{"contracts/EggNFT.sol":{"EggNFT":{"abi":[{"inputs":[],"stateMutability":"nonpayable","type":"constructor"},{"inputs":[{"internalType":"address","name":"sender","type":"address"},{"internalType":"uint256","name":"tokenId","type":"uint256"},{"internalType":"address","name":"owner","type":"address"}],"name":"ERC721IncorrectOwner","type":"error"},{"inputs":[{"internalType":"address","name":"operator","type":"address"},{"internalType":"uint256","name":"tokenId","type":"uint256"}],"name":"ERC721InsufficientApproval","type":"error"},{"inputs":[{"internalType":"address","name":"approver","type":"address"}],"name":"ERC721InvalidApprover","type":"error"},{"inputs":[{"internalType":"address","name":"operator","type":"address"}],"name":"ERC721InvalidOperator","type":"error"},{"inputs":[{"internalType":"address","name":"owner","type":"address"}],"name":"ERC721InvalidOwner","type":"error"},{"inputs":[{"internalType":"address","name":"receiver","type":"address"}],"name":"ERC721InvalidReceiver","type":"error"},{"inputs":[{"internalType":"address","name":"sender","type":"address"}],"name":"ERC721InvalidSender","type":"error"},{"inputs":[{"internalType":"uint256","name":"tokenId","type":"uint256"}],"name":"ERC721NonexistentToken","type":"error"},{"inputs":[{"internalType":"address","name":"owner","type":"address"}],"name":"OwnableInvalidOwner","type":"error"},{"inputs":[{"internalType":"address","name":"account","type":"address"}],"name":"OwnableUnauthorizedAccount","type":"error"},{"anonymous":false,"inputs":[{"indexed":true,"internalType":"address","name":"owner","type":"address"},{"indexed":true,"internalType":"address","name":"approved","type":"address"},{"indexed":true,"internalType":"uint256","name":"tokenId","type":"uint256"}],"name":"Approval","type":"event"},{"anonymous":false,"inputs":[{"indexed":true,"internalType":"address","name":"owner","type":"address"},{"indexed":true,"internalType":"address","name":"operator","type":"address"},{"indexed":false,"internalType":"bool","name":"approved","type":"bool"}],"name":"ApprovalForAll","type":"event"},{"anonymous":false,"inputs":[{"indexed":true,"internalType":"uint256","name":"tokenId","type":"uint256"},{"indexed":true,"internalType":"address","name":"owner","type":"address"}],"name":"EggHatched","type":"event"},{"anonymous":false,"inputs":[{"indexed":true,"internalType":"uint256","name":"tokenId","type":"uint256"},{"indexed":true,"internalType":"address","name":"buyer","type":"address"},{"indexed":false,"internalType":"uint8","name":"element","type":"uint8"},{"indexed":false,"internalType":"uint8","name":"rarity","type":"uint8"}],"name":"EggPurchased","type":"event"},{"anonymous":false,"inputs":[{"indexed":true,"internalType":"address","name":"previousOwner","type":"address"},{"indexed":true,"internalType":"address","name":"newOwner","type":"address"}],"name":"OwnershipTransferred","type":"event"},{"anonymous":false,"inputs":[{"indexed":true,"internalType":"address","name":"from","type":"address"},{"indexed":true,"internalType":"address","name":"to","type":"address"},{"indexed":true,"internalType":"uint256","name":"tokenId","type":"uint256"}],"name":"Transfer","type":"event"},{"inputs":[],"name":"EGG_PRICE","outputs":[{"internalType":"uint256","name":"","type":"uint256"}],"stateMutability":"view","type":"function"},{"inputs":[{"internalType":"address","name":"to","type":"address"},{"internalType":"uint256","name":"tokenId","type":"uint256"}],"name":"approve","outputs":[],"stateMutability":"nonpayable","type":"function"},{"inputs":[{"internalType":"address","name":"owner","type":"address"}],"name":"balanceOf","outputs":[{"internalType":"uint256","name":"","type":"uint256"}],"stateMutability":"view","type":"function"},{"inputs":[],"name":"buyEgg","outputs":[{"internalType":"uint256","name":"","type":"uint256"}],"stateMutability":"payable","type":"function"},{"inputs":[{"internalType":"uint256","name":"","type":"uint256"}],"name":"eggs","outputs":[{"internalType":"uint256","name":"id","type":"uint256"},{"internalType":"uint8","name":"element","type":"uint8"},{"internalType":"uint8","name":"rarity","type":"uint8"},{"internalType":"uint256","name":"purchaseTime","type":"uint256"},{"internalType":"bool","name":"hatched","type":"bool"}],"stateMutability":"view","type":"function"},{"inputs":[{"internalType":"uint256","name":"tokenId","type":"uint256"}],"name":"getApproved","outputs":[{"internalType":"address","name":"","type":"address"}],"stateMutability":"view","type":"function"},{"inputs":[{"internalType":"uint256","name":"tokenId","type":"uint256"}],"name":"getEgg","outputs":[{"components":[{"internalType":"uint256","name":"id","type":"uint256"},{"internalType":"uint8","name":"element","type":"uint8"},{"internalType":"uint8","name":"rarity","type":"uint8"},{"internalType":"uint256","name":"purchaseTime","type":"uint256"},{"internalType":"bool","name":"hatched","type":"bool"}],"internalType":"struct EggNFT.Egg","name":"","type":"tuple"}],"stateMutability":"view","type":"function"},{"inputs":[{"internalType":"uint256","name":"tokenId","type":"uint256"}],"name":"hatchEgg","outputs":[],"stateMutability":"nonpayable","type":"function"},{"inputs":[{"internalType":"address","name":"owner","type":"address"},{"internalType":"address","name":"operator","type":"address"}],"name":"isApprovedForAll","outputs":[{"internalType":"bool","name":"","type":"bool"}],"stateMutability":"view","type":"function"},{"inputs":[],"name":"name","outputs":[{"internalType":"string","name":"","type":"string"}],"stateMutability":"view","type":"function"},{"inputs":[],"name":"owner","outputs":[{"internalType":"address","name":"","type":"address"}],"stateMutability":"view","type":"function"},{"inputs":[{"internalType":"uint256","name":"tokenId","type":"uint256"}],"name":"ownerOf","outputs":[{"internalType":"address","name":"","type":"address"}],"stateMutability":"view","type":"function"},{"inputs":[],"name":"renounceOwnership","outputs":[],"stateMutability":"nonpayable","type":"function"},{"inputs":[{"internalType":"address","name":"from","type":"address"},{"internalType":"address","name":"to","type":"address"},{"internalType":"uint256","name":"tokenId","type":"uint256"}],"name":"safeTransferFrom","outputs":[],"stateMutability":"nonpayable","type":"function"},{"inputs":[{"internalType":"address","name":"from","type":"address"},{"internalType":"address","name":"to","type":"address"},{"internalType":"uint256","name":"tokenId","type":"uint256"},{"internalType":"bytes","name":"data","type":"bytes"}],"name":"safeTransferFrom","outputs":[],"stateMutability":"nonpayable","type":"function"},{"inputs":[{"internalType":"address","name":"operator","type":"address"},{"internalType":"bool","name":"approved","type":"bool"}],"name":"setApprovalForAll","outputs":[],"stateMutability":"nonpayable","type":"function"},{"inputs":[{"internalType":"bytes4","name":"interfaceId","type":"bytes4"}],"name":"supportsInterface","outputs":[{"internalType":"bool","name":"","type":"bool"}],"stateMutability":"view","type":"function"},{"inputs":[],"name":"symbol","outputs":[{"internalType":"string","name":"","type":"string"}],"stateMutability":"view","type":"function"},{"inputs":[{"internalType":"uint256","name":"tokenId","type":"uint256"}],"name":"tokenURI","outputs":[{"internalType":"string","name":"","type":"string"}],"stateMutability":"view","type":"function"},{"inputs":[{"internalType":"address","name":"from","type":"address"},{"internalType":"address","name":"to","type":"address"},{"internalType":"uint256","name":"tokenId","type":"uint256"}],"name":"transferFrom","outputs":[],"stateMutability":"nonpayable","type":"function"},{"inputs":[{"internalType":"address","name":"newOwner","type":"address"}],"name":"transferOwnership","outputs":[],"stateMutability":"nonpayable","type":"function"},{"inputs":[],"name":"withdraw","outputs":[],"stateMutability":"nonpayable","type":"function"}],"evm":{"bytecode":{"linkReferences":{},"object":"6080346200037b576001600160401b039060408181018381118382101762000365578152600f82526020916e447261676f6e20436974792045676760881b838201528151938285018581108282111762000365578352600385526245474760e81b84860152815181811162000365576000948554916001948584811c941680156200035a575b8385101462000346578190601f94858111620002f3575b5083908583116001146200028f57899262000283575b5050600019600383901b1c191690851b1786555b86519283116200026f5783548481811c9116801562000264575b82821014620002505782811162000208575b5080918311600114620001a157508495829394959262000195575b5050600019600383901b1c191690821b1790555b33156200017d5760068054336001600160a01b03198216811790925591519290916001600160a01b0316907f8be0079c531659141344cd1fd0a4f28419497f9722a3daafe3b4186f6b6457e09080a36113929081620003818239f35b51631e4fbdf760e01b81526004810191909152602490fd5b0151905038806200010d565b90601f198316968487528287209287905b898210620001f0575050838596979810620001d6575b505050811b01905562000121565b015160001960f88460031b161c19169055388080620001c8565b808785968294968601518155019501930190620001b2565b8487528187208380860160051c82019284871062000246575b0160051c019085905b8281106200023a575050620000f2565b8881550185906200022a565b9250819262000221565b634e487b7160e01b87526022600452602487fd5b90607f1690620000e0565b634e487b7160e01b86526041600452602486fd5b015190503880620000b2565b898052848a208894509190601f1984168b5b87828210620002dc5750508411620002c2575b505050811b018655620000c6565b015160001960f88460031b161c19169055388080620002b4565b8385015186558b97909501949384019301620002a1565b9091508880528389208580850160051c8201928686106200033c575b918991869594930160051c01915b8281106200032d5750506200009c565b8b81558594508991016200031d565b925081926200030f565b634e487b7160e01b88526022600452602488fd5b93607f169362000085565b634e487b7160e01b600052604160045260246000fd5b600080fdfe6080604081815260048036101561001557600080fd5b600092833560e01c90816301ffc9a714610e6a5750806306fdde0314610d9f578063081812fc14610d64578063095ea7b314610c885780631d4e18c914610c665780632385554c14610b1757806323b872dd14610aff5780633ccfd60b14610aaf57806342842e0e14610a805780636352211e14610a4f57806370a08231146109fa578063715018a61461099d5780637d635502146105da5780638da5cb5b146105b157806395d89b4114610498578063a22cb465146103ed578063b88d4fde14610358578063bb654efa146102fc578063c87b56dd146102a9578063e985e9c514610257578063f2fde38b146101c85763feb40f7e1461011557600080fd5b346101c45760203660031901126101c45782829160a0946080845161013981610f7c565b8281528260208201528286820152826060820152015235815260086020522081519061016482610f7c565b80549283835260ff600183015481602086018183168152818588019360081c168352608082600360028901549860608b01998a52015416970196151587528451978852511660208701525116908401525160608301525115156080820152f35b8280fd5b50346101c45760203660031901126101c4576101e2610f16565b906101eb611008565b6001600160a01b03918216928315610241575050600654826bffffffffffffffffffffffff60a01b821617600655167f8be0079c531659141344cd1fd0a4f28419497f9722a3daafe3b4186f6b6457e08380a380f35b51631e4fbdf760e01b8152908101849052602490fd5b5050346102a557806003193601126102a55760ff81602093610277610f16565b61027f610f31565b6001600160a01b0391821683526005875283832091168252855220549151911615158152f35b5080fd5b509190346102a55760203660031901126102a5576102ca6102f893356111d3565b508181516102d781610fae565b528051916102e483610fae565b825251918291602083526020830190610ed6565b0390f35b50346101c45760203660031901126101c45760a09282913581526008602052209081549160018101549160ff806003600285015494015416938251958652818116602087015260081c1690840152606083015215156080820152f35b5090346101c45760803660031901126101c457610373610f16565b61037b610f31565b60443591856064359567ffffffffffffffff87116102a557366023880112156102a557860135956103b76103ae88610fec565b96519687610fca565b86865236602488830101116102a557866103ea9760246020930183890137860101526103e4838383611034565b3361120e565b80f35b5090346101c457806003193601126101c457610407610f16565b9060243580151592838203610494576001600160a01b031693841561047d57506104509033865260056020528286208587526020528286209060ff801983541691151516179055565b519081527f17307eab39ab6107e8899845ad3d59bd9653f200f220920489ca2b5937696c3160203392a380f35b8251630b61174360e31b8152908101859052602490fd5b8580fd5b5091346105ae57806003193601126105ae578151918160019283549384811c918186169586156105a4575b6020968785108114610591578899509688969785829a52918260001461056a57505060011461050f575b5050506102f89291610500910385610fca565b51928284938452830190610ed6565b91908693508083527fb10e2d527612073b26eecdfd717e6a320cf44b4afac2b0732d9fcbe2b7fa0cf65b82841061055257505050820101816105006102f86104ed565b8054848a018601528895508794909301928101610539565b60ff19168782015293151560051b8601909301935084925061050091506102f890506104ed565b634e487b7160e01b835260228a52602483fd5b92607f16926104c3565b80fd5b5050346102a557816003193601126102a55760065490516001600160a01b039091168152602090f35b509190816003193601126102a557662386f26fc1000034106109645760075491600019938484146109515760018401600755825161061781610fae565b828152331561093b57848352602095600287528560018060a01b0386862054168015159283610909575b503380875260038a528787208054600101905582875260028a5287872080546001600160a01b03191682179055907fddf252ad1be2c89b69c2b068fc378daa952ba7f163c4a11628f55a4df523b3ef8780a46108f357333b6107d5575b50825185810142815285858301523360601b606083015260548252608082019282841067ffffffffffffffff8511176107c2575091600386610777938995848952815190209660ff60648160068b06169960081c0616603c81106000146107ac5750805b61070b86610f7c565b8386528960a08401928a8452600860ff60c0870194169a8b855261010060e08801974289520197838952835252209551865560ff6001870192511661ff008354925160081b169161ffff19161717905551600284015551151591019060ff801983541691151516179055565b825191825284820152827f323bf84ea2f2167a91e45d06cfcd3e1e9fffd5b3a307d24d5c3a516981af1b86833393a351908152f35b605a11156107bb576001610702565b6002610702565b634e487b7160e01b855260419052602484fd5b8395929594919451838180610811630a85bd0160e11b95868352338b8401528b6024840152876044840152608060648401526084830190610ed6565b03818a335af18791816108af575b5061087d575050503d600014610874573d61083981610fec565b9061084684519283610fca565b81528094823d92013e5b8351938461086e578251633250574960e11b81523381860152602490fd5b84925001fd5b60609350610850565b9295919491926001600160e01b03191603610898573861069e565b602490835190633250574960e11b82523390820152fd5b9091508481813d83116108ec575b6108c78183610fca565b810103126108e857516001600160e01b0319811681036108e857903861081f565b8780fd5b503d6108bd565b5091516339e3563760e11b815291820152602490fd5b600083815260046020526040902080546001600160a01b031916905581875260038a5287872090815401905538610641565b509151633250574960e11b815291820152602490fd5b634e487b7160e01b825260119052602490fd5b5162461bcd60e51b81526020818401526014602482015273125b9cdd59999a58da595b9d081c185e5b595b9d60621b6044820152606490fd5b83346105ae57806003193601126105ae576109b6611008565b600680546001600160a01b0319811690915581906001600160a01b03167f8be0079c531659141344cd1fd0a4f28419497f9722a3daafe3b4186f6b6457e08280a380f35b5091346105ae5760203660031901126105ae576001600160a01b03610a1d610f16565b16928315610a3a5750806020938392526003845220549051908152f35b91516322718ad960e21b815291820152602490fd5b5091346105ae5760203660031901126105ae5750610a6f602092356111d3565b90516001600160a01b039091168152f35b5050346102a5576103ea90610a9436610f47565b91925192610aa184610fae565b8584526103e4838383611034565b5050346102a557816003193601126102a557610ac9611008565b8180808060018060a01b03600654164790828215610af6575bf115610aec575080f35b51903d90823e3d90fd5b506108fc610ae2565b83346105ae576103ea610b1136610f47565b91611034565b5090346101c457602080600319360112610c6257823592610b37846111d3565b336001600160a01b0390911603610c35578385526008825260ff6003848720015416610c02578385526008825260028386200154610e108101809111610bef574210610bbe5750828452600890528220600301805460ff1916600117905533907fbcc217a4a801124dc2346b3503be7dfbbb798f5ea5d401306958d24640c088e08380a380f35b915162461bcd60e51b815291820152600d60248201526c456767206e6f7420726561647960981b6044820152606490fd5b634e487b7160e01b865260118252602486fd5b915162461bcd60e51b815291820152600f60248201526e105b1c9958591e481a185d18da1959608a1b6044820152606490fd5b915162461bcd60e51b81529182015260096024820152682737ba1037bbb732b960b91b6044820152606490fd5b8380fd5b5050346102a557816003193601126102a55760209051662386f26fc100008152f35b5090346101c457806003193601126101c457610ca2610f16565b91602435610caf816111d3565b33151580610d51575b80610d28575b610d12576001600160a01b039485169482918691167f8c5be1e5ebec7d5bd14f71427d1e84f3dd0314c0f7b2291e5b200ac8c7c3b9258880a48452602052822080546001600160a01b031916909117905580f35b835163a9fbf51f60e01b81523381850152602490fd5b506001600160a01b03811686526005602090815284872033885290528386205460ff1615610cbe565b506001600160a01b038116331415610cb8565b50346101c45760203660031901126101c457918260209335610d85816111d3565b50825283528190205490516001600160a01b039091168152f35b5091346105ae57806003193601126105ae5781519181825492600184811c91818616958615610e60575b6020968785108114610591578899509688969785829a52918260001461056a575050600114610e05575050506102f89291610500910385610fca565b91908693508280527f290decd9548b62a8d60345a988386fc84ba6bc95484008f6362f93160ef3e5635b828410610e4857505050820101816105006102f86104ed565b8054848a018601528895508794909301928101610e2f565b92607f1692610dc9565b925050346101c45760203660031901126101c4573563ffffffff60e01b81168091036101c457602092506380ac58cd60e01b8114908115610ec5575b8115610eb4575b5015158152f35b6301ffc9a760e01b14905038610ead565b635b5e139f60e01b81149150610ea6565b919082519283825260005b848110610f02575050826000602080949584010152601f8019910116010190565b602081830181015184830182015201610ee1565b600435906001600160a01b0382168203610f2c57565b600080fd5b602435906001600160a01b0382168203610f2c57565b6060906003190112610f2c576001600160a01b03906004358281168103610f2c57916024359081168103610f2c579060443590565b60a0810190811067ffffffffffffffff821117610f9857604052565b634e487b7160e01b600052604160045260246000fd5b6020810190811067ffffffffffffffff821117610f9857604052565b90601f8019910116810190811067ffffffffffffffff821117610f9857604052565b67ffffffffffffffff8111610f9857601f01601f191660200190565b6006546001600160a01b0316330361101c57565b60405163118cdaa760e01b8152336004820152602490fd5b6001600160a01b0391821692909183156111ba57600092828452826020956002875260409684888820541696879133151580611124575b509060027fddf252ad1be2c89b69c2b068fc378daa952ba7f163c4a11628f55a4df523b3ef92846110f1575b858352600381528b8320805460010190558683525289812080546001600160a01b0319168517905580a416928383036110d05750505050565b6064945051926364283d7b60e01b8452600484015260248301526044820152fd5b600087815260046020526040902080546001600160a01b0319169055848352600381528b83208054600019019055611097565b91939450915080611179575b156111405785929187913861106b565b87868861115d576024915190637e27328960e01b82526004820152fd5b604491519063177e802f60e01b82523360048301526024820152fd5b50338714801561119e575b806111305750858252600481523385898420541614611130565b5086825260058152878220338352815260ff8883205416611184565b604051633250574960e11b815260006004820152602490fd5b6000818152600260205260409020546001600160a01b03169081156111f6575090565b60249060405190637e27328960e01b82526004820152fd5b90939192833b611220575b5050505050565b604051630a85bd0160e11b8082526001600160a01b03938416600483015295831660248201526044810191909152608060648201529492169260209291859061126d906084830190610ed6565b039483816000978189895af1869181611318575b506112e2575050503d6000146112d9573d61129b81610fec565b906112a96040519283610fca565b81528093823d92013e5b825192836112d457604051633250574960e11b815260048101849052602490fd5b019050fd5b606092506112b3565b919450915063ffffffff60e01b160361130057503880808080611219565b60249060405190633250574960e11b82526004820152fd5b9091508481813d8311611355575b6113308183610fca565b8101031261135157516001600160e01b031981168103611351579038611281565b8680fd5b503d61132656fea2646970667358221220f68d947a5d778e60b227ee3d1959ed299235ccc0c1575e3ff5cb60f4eae2dd5364736f6c63430008140033","opcodes":"PUSH1 0x80 CALLVALUE PUSH3 0x37B JUMPI PUSH1 0x1 PUSH1 0x1 PUSH1 0x40 SHL SUB SWAP1 PUSH1 0x40 DUP2 DUP2 ADD DUP4 DUP2 GT DUP4 DUP3 LT OR PUSH3 0x365 JUMPI DUP2 MSTORE PUSH1 0xF DUP3 MSTORE PUSH1 0x20 SWAP2 PUSH15 0x447261676F6E204369747920456767 PUSH1 0x88 SHL DUP4 DUP3 ADD MSTORE DUP2 MLOAD SWAP4 DUP3 DUP6 ADD DUP6 DUP2 LT DUP3 DUP3 GT OR PUSH3 0x365 JUMPI DUP4 MSTORE PUSH1 0x3 DUP6 MSTORE PUSH3 0x454747 PUSH1 0xE8 SHL DUP5 DUP7 ADD MSTORE DUP2 MLOAD DUP2 DUP2 GT PUSH3 0x365 JUMPI PUSH1 0x0 SWAP5 DUP6 SLOAD SWAP2 PUSH1 0x1 SWAP5 DUP6 DUP5 DUP2 SHR SWAP5 AND DUP1 ISZERO PUSH3 0x35A JUMPI JUMPDEST DUP4 DUP6 LT EQ PUSH3 0x346 JUMPI DUP2 SWAP1 PUSH1 0x1F SWAP5 DUP6 DUP2 GT PUSH3 0x2F3 JUMPI JUMPDEST POP DUP4 SWAP1 DUP6 DUP4 GT PUSH1 0x1 EQ PUSH3 0x28F JUMPI DUP10 SWAP3 PUSH3 0x283 JUMPI JUMPDEST POP POP PUSH1 0x0 NOT PUSH1 0x3 DUP4 SWAP1 SHL SHR NOT AND SWAP1 DUP6 SHL OR DUP7 SSTORE JUMPDEST DUP7 MLOAD SWAP3 DUP4 GT PUSH3 0x26F JUMPI DUP4 SLOAD DUP5 DUP2 DUP2 SHR SWAP2 AND DUP1 ISZERO PUSH3 0x264 JUMPI JUMPDEST DUP3 DUP3 LT EQ PUSH3 0x250 JUMPI DUP3 DUP2 GT PUSH3 0x208 JUMPI JUMPDEST POP DUP1 SWAP2 DUP4 GT PUSH1 0x1 EQ PUSH3 0x1A1 JUMPI POP DUP5 SWAP6 DUP3 SWAP4 SWAP5 SWAP6 SWAP3 PUSH3 0x195 JUMPI JUMPDEST POP POP PUSH1 0x0 NOT PUSH1 0x3 DUP4 SWAP1 SHL SHR NOT AND SWAP1 DUP3 SHL OR SWAP1 SSTORE JUMPDEST CALLER ISZERO PUSH3 0x17D JUMPI PUSH1 0x6 DUP1 SLOAD CALLER PUSH1 0x1 PUSH1 0x1 PUSH1 0xA0 SHL SUB NOT DUP3 AND DUP2 OR SWAP1 SWAP3 SSTORE SWAP2 MLOAD SWAP3 SWAP1 SWAP2 PUSH1 0x1 PUSH1 0x1 PUSH1 0xA0 SHL SUB AND SWAP1 PUSH32 0x8BE0079C531659141344CD1FD0A4F28419497F9722A3DAAFE3B4186F6B6457E0 SWAP1 DUP1 LOG3 PUSH2 0x1392 SWAP1 DUP2 PUSH3 0x381 DUP3 CODECOPY RETURN JUMPDEST MLOAD PUSH4 0x1E4FBDF7 PUSH1 0xE0 SHL DUP2 MSTORE PUSH1 0x4 DUP2 ADD SWAP2 SWAP1 SWAP2 MSTORE PUSH1 0x24 SWAP1 REVERT JUMPDEST ADD MLOAD SWAP1 POP CODESIZE DUP1 PUSH3 0x10D JUMP JUMPDEST SWAP1 PUSH1 0x1F NOT DUP4 AND SWAP7 DUP5 DUP8 MSTORE DUP3 DUP8 KECCAK256 SWAP3 DUP8 SWAP1 JUMPDEST DUP10 DUP3 LT PUSH3 0x1F0 JUMPI POP POP DUP4 DUP6 SWAP7 SWAP8 SWAP9 LT PUSH3 0x1D6 JUMPI JUMPDEST POP POP POP DUP2 SHL ADD SWAP1 SSTORE PUSH3 0x121 JUMP JUMPDEST ADD MLOAD PUSH1 0x0 NOT PUSH1 0xF8 DUP5 PUSH1 0x3 SHL AND SHR NOT AND SWAP1 SSTORE CODESIZE DUP1 DUP1 PUSH3 0x1C8 JUMP JUMPDEST DUP1 DUP8 DUP6 SWAP7 DUP3 SWAP5 SWAP7 DUP7 ADD MLOAD DUP2 SSTORE ADD SWAP6 ADD SWAP4 ADD SWAP1 PUSH3 0x1B2 JUMP JUMPDEST DUP5 DUP8 MSTORE DUP2 DUP8 KECCAK256 DUP4 DUP1 DUP7 ADD PUSH1 0x5 SHR DUP3 ADD SWAP3 DUP5 DUP8 LT PUSH3 0x246 JUMPI JUMPDEST ADD PUSH1 0x5 SHR ADD SWAP1 DUP6 SWAP1 JUMPDEST DUP3 DUP2 LT PUSH3 0x23A JUMPI POP POP PUSH3 0xF2 JUMP JUMPDEST DUP9 DUP2 SSTORE ADD DUP6 SWAP1 PUSH3 0x22A JUMP JUMPDEST SWAP3 POP DUP2 SWAP3 PUSH3 0x221 JUMP JUMPDEST PUSH4 0x4E487B71 PUSH1 0xE0 SHL DUP8 MSTORE PUSH1 0x22 PUSH1 0x4 MSTORE PUSH1 0x24 DUP8 REVERT JUMPDEST SWAP1 PUSH1 0x7F AND SWAP1 PUSH3 0xE0 JUMP JUMPDEST PUSH4 0x4E487B71 PUSH1 0xE0 SHL DUP7 MSTORE PUSH1 0x41 PUSH1 0x4 MSTORE PUSH1 0x24 DUP7 REVERT JUMPDEST ADD MLOAD SWAP1 POP CODESIZE DUP1 PUSH3 0xB2 JUMP JUMPDEST DUP10 DUP1 MSTORE DUP5 DUP11 KECCAK256 DUP9 SWAP5 POP SWAP2 SWAP1 PUSH1 0x1F NOT DUP5 AND DUP12 JUMPDEST DUP8 DUP3 DUP3 LT PUSH3 0x2DC JUMPI POP POP DUP5 GT PUSH3 0x2C2 JUMPI JUMPDEST POP POP POP DUP2 SHL ADD DUP7 SSTORE PUSH3 0xC6 JUMP JUMPDEST ADD MLOAD PUSH1 0x0 NOT PUSH1 0xF8 DUP5 PUSH1 0x3 SHL AND SHR NOT AND SWAP1 SSTORE CODESIZE DUP1 DUP1 PUSH3 0x2B4 JUMP JUMPDEST DUP4 DUP6 ADD MLOAD DUP7 SSTORE DUP12 SWAP8 SWAP1 SWAP6 ADD SWAP5 SWAP4 DUP5 ADD SWAP4 ADD PUSH3 0x2A1 JUMP JUMPDEST SWAP1 SWAP2 POP DUP9 DUP1 MSTORE DUP4 DUP10 KECCAK256 DUP6 DUP1 DUP6 ADD PUSH1 0x5 SHR DUP3 ADD SWAP3 DUP7 DUP7 LT PUSH3 0x33C JUMPI JUMPDEST SWAP2 DUP10 SWAP2 DUP7 SWAP6 SWAP5 SWAP4 ADD PUSH1 0x5 SHR ADD SWAP2 JUMPDEST DUP3 DUP2 LT PUSH3 0x32D JUMPI POP POP PUSH3 0x9C JUMP JUMPDEST DUP12 DUP2 SSTORE DUP6 SWAP5 POP DUP10 SWAP2 ADD PUSH3 0x31D JUMP JUMPDEST SWAP3 POP DUP2 SWAP3 PUSH3 0x30F JUMP JUMPDEST PUSH4 0x4E487B71 PUSH1 0xE0 SHL DUP9 MSTORE PUSH1 0x22 PUSH1 0x4 MSTORE PUSH1 0x24 DUP9 REVERT JUMPDEST SWAP4 PUSH1 0x7F AND SWAP4 PUSH3 0x85 JUMP JUMPDEST PUSH4 0x4E487B71 PUSH1 0xE0 SHL PUSH1 0x0 MSTORE PUSH1 0x41 PUSH1 0x4 MSTORE PUSH1 0x24 PUSH1 0x0 REVERT JUMPDEST PUSH1 0x0 DUP1 REVERT INVALID PUSH1 0x80 PUSH1 0x40 DUP2 DUP2 MSTORE PUSH1 0x4 DUP1 CALLDATASIZE LT ISZERO PUSH2 0x15 JUMPI PUSH1 0x0 DUP1 REVERT JUMPDEST PUSH1 0x0 SWAP3 DUP4 CALLDATALOAD PUSH1 0xE0 SHR SWAP1 DUP2 PUSH4 0x1FFC9A7 EQ PUSH2 0xE6A JUMPI POP DUP1 PUSH4 0x6FDDE03 EQ PUSH2 0xD9F JUMPI DUP1 PUSH4 0x81812FC EQ PUSH2 0xD64 JUMPI DUP1 PUSH4 0x95EA7B3 EQ PUSH2 0xC88 JUMPI DUP1 PUSH4 0x1D4E18C9 EQ PUSH2 0xC66 JUMPI DUP1 PUSH4 0x2385554C EQ PUSH2 0xB17 JUMPI DUP1 PUSH4 0x23B872DD EQ PUSH2 0xAFF JUMPI DUP1 PUSH4 0x3CCFD60B EQ PUSH2 0xAAF JUMPI DUP1 PUSH4 0x42842E0E EQ PUSH2 0xA80 JUMPI DUP1 PUSH4 0x6352211E EQ PUSH2 0xA4F JUMPI DUP1 PUSH4 0x70A08231 EQ PUSH2 0x9FA JUMPI DUP1 PUSH4 0x715018A6 EQ PUSH2 0x99D JUMPI DUP1 PUSH4 0x7D635502 EQ PUSH2 0x5DA JUMPI DUP1 PUSH4 0x8DA5CB5B EQ PUSH2 0x5B1 JUMPI DUP1 PUSH4 0x95D89B41 EQ PUSH2 0x498 JUMPI DUP1 PUSH4 0xA22CB465 EQ PUSH2 0x3ED JUMPI DUP1 PUSH4 0xB88D4FDE EQ PUSH2 0x358 JUMPI DUP1 PUSH4 0xBB654EFA EQ PUSH2 0x2FC JUMPI DUP1 PUSH4 0xC87B56DD EQ PUSH2 0x2A9 JUMPI DUP1 PUSH4 0xE985E9C5 EQ PUSH2 0x257 JUMPI DUP1 PUSH4 0xF2FDE38B EQ PUSH2 0x1C8 JUMPI PUSH4 0xFEB40F7E EQ PUSH2 0x115 JUMPI PUSH1 0x0 DUP1 REVERT JUMPDEST CALLVALUE PUSH2 0x1C4 JUMPI PUSH1 0x20 CALLDATASIZE PUSH1 0x3 NOT ADD SLT PUSH2 0x1C4 JUMPI DUP3 DUP3 SWAP2 PUSH1 0xA0 SWAP5 PUSH1 0x80 DUP5 MLOAD PUSH2 0x139 DUP2 PUSH2 0xF7C JUMP JUMPDEST DUP3 DUP2 MSTORE DUP3 PUSH1 0x20 DUP3 ADD MSTORE DUP3 DUP7 DUP3 ADD MSTORE DUP3 PUSH1 0x60 DUP3 ADD MSTORE ADD MSTORE CALLDATALOAD DUP2 MSTORE PUSH1 0x8 PUSH1 0x20 MSTORE KECCAK256 DUP2 MLOAD SWAP1 PUSH2 0x164 DUP3 PUSH2 0xF7C JUMP JUMPDEST DUP1 SLOAD SWAP3 DUP4 DUP4 MSTORE PUSH1 0xFF PUSH1 0x1 DUP4 ADD SLOAD DUP2 PUSH1 0x20 DUP7 ADD DUP2 DUP4 AND DUP2 MSTORE DUP2 DUP6 DUP9 ADD SWAP4 PUSH1 0x8 SHR AND DUP4 MSTORE PUSH1 0x80 DUP3 PUSH1 0x3 PUSH1 0x2 DUP10 ADD SLOAD SWAP9 PUSH1 0x60 DUP12 ADD SWAP10 DUP11 MSTORE ADD SLOAD AND SWAP8 ADD SWAP7 ISZERO ISZERO DUP8 MSTORE DUP5 MLOAD SWAP8 DUP9 MSTORE MLOAD AND PUSH1 0x20 DUP8 ADD MSTORE MLOAD AND SWAP1 DUP5 ADD MSTORE MLOAD PUSH1 0x60 DUP4 ADD MSTORE MLOAD ISZERO ISZERO PUSH1 0x80 DUP3 ADD MSTORE RETURN JUMPDEST DUP3 DUP1 REVERT JUMPDEST POP CALLVALUE PUSH2 0x1C4 JUMPI PUSH1 0x20 CALLDATASIZE PUSH1 0x3 NOT ADD SLT PUSH2 0x1C4 JUMPI PUSH2 0x1E2 PUSH2 0xF16 JUMP JUMPDEST SWAP1 PUSH2 0x1EB PUSH2 0x1008 JUMP JUMPDEST PUSH1 0x1 PUSH1 0x1 PUSH1 0xA0 SHL SUB SWAP2 DUP3 AND SWAP3 DUP4 ISZERO PUSH2 0x241 JUMPI POP POP PUSH1 0x6 SLOAD DUP3 PUSH12 0xFFFFFFFFFFFFFFFFFFFFFFFF PUSH1 0xA0 SHL DUP3 AND OR PUSH1 0x6 SSTORE AND PUSH32 0x8BE0079C531659141344CD1FD0A4F28419497F9722A3DAAFE3B4186F6B6457E0 DUP4 DUP1 LOG3 DUP1 RETURN JUMPDEST MLOAD PUSH4 0x1E4FBDF7 PUSH1 0xE0 SHL DUP2 MSTORE SWAP1 DUP2 ADD DUP5 SWAP1 MSTORE PUSH1 0x24 SWAP1 REVERT JUMPDEST POP POP CALLVALUE PUSH2 0x2A5 JUMPI DUP1 PUSH1 0x3 NOT CALLDATASIZE ADD SLT PUSH2 0x2A5 JUMPI PUSH1 0xFF DUP2 PUSH1 0x20 SWAP4 PUSH2 0x277 PUSH2 0xF16 JUMP JUMPDEST PUSH2 0x27F PUSH2 0xF31 JUMP JUMPDEST PUSH1 0x1 PUSH1 0x1 PUSH1 0xA0 SHL SUB SWAP2 DUP3 AND DUP4 MSTORE PUSH1 0x5 DUP8 MSTORE DUP4 DUP4 KECCAK256 SWAP2 AND DUP3 MSTORE DUP6 MSTORE KECCAK256 SLOAD SWAP2 MLOAD SWAP2 AND ISZERO ISZERO DUP2 MSTORE RETURN JUMPDEST POP DUP1 REVERT JUMPDEST POP SWAP2 SWAP1 CALLVALUE PUSH2 0x2A5 JUMPI PUSH1 0x20 CALLDATASIZE PUSH1 0x3 NOT ADD SLT PUSH2 0x2A5 JUMPI PUSH2 0x2CA PUSH2 0x2F8 SWAP4 CALLDATALOAD PUSH2 0x11D3 JUMP JUMPDEST POP DUP2 DUP2 MLOAD PUSH2 0x2D7 DUP2 PUSH2 0xFAE JUMP JUMPDEST MSTORE DUP1 MLOAD SWAP2 PUSH2 0x2E4 DUP4 PUSH2 0xFAE JUMP JUMPDEST DUP3 MSTORE MLOAD SWAP2 DUP3 SWAP2 PUSH1 0x20 DUP4 MSTORE PUSH1 0x20 DUP4 ADD SWAP1 PUSH2 0xED6 JUMP JUMPDEST SUB SWAP1 RETURN JUMPDEST POP CALLVALUE PUSH2 0x1C4 JUMPI PUSH1 0x20 CALLDATASIZE PUSH1 0x3 NOT ADD SLT PUSH2 0x1C4 JUMPI PUSH1 0xA0 SWAP3 DUP3 SWAP2 CALLDATALOAD DUP2 MSTORE PUSH1 0x8 PUSH1 0x20 MSTORE KECCAK256 SWAP1 DUP2 SLOAD SWAP2 PUSH1 0x1 DUP2 ADD SLOAD SWAP2 PUSH1 0xFF DUP1 PUSH1 0x3 PUSH1 0x2 DUP6 ADD SLOAD SWAP5 ADD SLOAD AND SWAP4 DUP3 MLOAD SWAP6 DUP7 MSTORE DUP2 DUP2 AND PUSH1 0x20 DUP8 ADD MSTORE PUSH1 0x8 SHR AND SWAP1 DUP5 ADD MSTORE PUSH1 0x60 DUP4 ADD MSTORE ISZERO ISZERO PUSH1 0x80 DUP3 ADD MSTORE RETURN JUMPDEST POP SWAP1 CALLVALUE PUSH2 0x1C4 JUMPI PUSH1 0x80 CALLDATASIZE PUSH1 0x3 NOT ADD SLT PUSH2 0x1C4 JUMPI PUSH2 0x373 PUSH2 0xF16 JUMP JUMPDEST PUSH2 0x37B PUSH2 0xF31 JUMP JUMPDEST PUSH1 0x44 CALLDATALOAD SWAP2 DUP6 PUSH1 0x64 CALLDATALOAD SWAP6 PUSH8 0xFFFFFFFFFFFFFFFF DUP8 GT PUSH2 0x2A5 JUMPI CALLDATASIZE PUSH1 0x23 DUP9 ADD SLT ISZERO PUSH2 0x2A5 JUMPI DUP7 ADD CALLDATALOAD SWAP6 PUSH2 0x3B7 PUSH2 0x3AE DUP9 PUSH2 0xFEC JUMP JUMPDEST SWAP7 MLOAD SWAP7 DUP8 PUSH2 0xFCA JUMP JUMPDEST DUP7 DUP7 MSTORE CALLDATASIZE PUSH1 0x24 DUP9 DUP4 ADD ADD GT PUSH2 0x2A5 JUMPI DUP7 PUSH2 0x3EA SWAP8 PUSH1 0x24 PUSH1 0x20 SWAP4 ADD DUP4 DUP10 ADD CALLDATACOPY DUP7 ADD ADD MSTORE PUSH2 0x3E4 DUP4 DUP4 DUP4 PUSH2 0x1034 JUMP JUMPDEST CALLER PUSH2 0x120E JUMP JUMPDEST DUP1 RETURN JUMPDEST POP SWAP1 CALLVALUE PUSH2 0x1C4 JUMPI DUP1 PUSH1 0x3 NOT CALLDATASIZE ADD SLT PUSH2 0x1C4 JUMPI PUSH2 0x407 PUSH2 0xF16 JUMP JUMPDEST SWAP1 PUSH1 0x24 CALLDATALOAD DUP1 ISZERO ISZERO SWAP3 DUP4 DUP3 SUB PUSH2 0x494 JUMPI PUSH1 0x1 PUSH1 0x1 PUSH1 0xA0 SHL SUB AND SWAP4 DUP5 ISZERO PUSH2 0x47D JUMPI POP PUSH2 0x450 SWAP1 CALLER DUP7 MSTORE PUSH1 0x5 PUSH1 0x20 MSTORE DUP3 DUP7 KECCAK256 DUP6 DUP8 MSTORE PUSH1 0x20 MSTORE DUP3 DUP7 KECCAK256 SWAP1 PUSH1 0xFF DUP1 NOT DUP4 SLOAD AND SWAP2 ISZERO ISZERO AND OR SWAP1 SSTORE JUMP JUMPDEST MLOAD SWAP1 DUP2 MSTORE PUSH32 0x17307EAB39AB6107E8899845AD3D59BD9653F200F220920489CA2B5937696C31 PUSH1 0x20 CALLER SWAP3 LOG3 DUP1 RETURN JUMPDEST DUP3 MLOAD PUSH4 0xB611743 PUSH1 0xE3 SHL DUP2 MSTORE SWAP1 DUP2 ADD DUP6 SWAP1 MSTORE PUSH1 0x24 SWAP1 REVERT JUMPDEST DUP6 DUP1 REVERT JUMPDEST POP SWAP2 CALLVALUE PUSH2 0x5AE JUMPI DUP1 PUSH1 0x3 NOT CALLDATASIZE ADD SLT PUSH2 0x5AE JUMPI DUP2 MLOAD SWAP2 DUP2 PUSH1 0x1 SWAP3 DUP4 SLOAD SWAP4 DUP5 DUP2 SHR SWAP2 DUP2 DUP7 AND SWAP6 DUP7 ISZERO PUSH2 0x5A4 JUMPI JUMPDEST PUSH1 0x20 SWAP7 DUP8 DUP6 LT DUP2 EQ PUSH2 0x591 JUMPI DUP9 SWAP10 POP SWAP7 DUP9 SWAP7 SWAP8 DUP6 DUP3 SWAP11 MSTORE SWAP2 DUP3 PUSH1 0x0 EQ PUSH2 0x56A JUMPI POP POP PUSH1 0x1 EQ PUSH2 0x50F JUMPI JUMPDEST POP POP POP PUSH2 0x2F8 SWAP3 SWAP2 PUSH2 0x500 SWAP2 SUB DUP6 PUSH2 0xFCA JUMP JUMPDEST MLOAD SWAP3 DUP3 DUP5 SWAP4 DUP5 MSTORE DUP4 ADD SWAP1 PUSH2 0xED6 JUMP JUMPDEST SWAP2 SWAP1 DUP7 SWAP4 POP DUP1 DUP4 MSTORE PUSH32 0xB10E2D527612073B26EECDFD717E6A320CF44B4AFAC2B0732D9FCBE2B7FA0CF6 JUMPDEST DUP3 DUP5 LT PUSH2 0x552 JUMPI POP POP POP DUP3 ADD ADD DUP2 PUSH2 0x500 PUSH2 0x2F8 PUSH2 0x4ED JUMP JUMPDEST DUP1 SLOAD DUP5 DUP11 ADD DUP7 ADD MSTORE DUP9 SWAP6 POP DUP8 SWAP5 SWAP1 SWAP4 ADD SWAP3 DUP2 ADD PUSH2 0x539 JUMP JUMPDEST PUSH1 0xFF NOT AND DUP8 DUP3 ADD MSTORE SWAP4 ISZERO ISZERO PUSH1 0x5 SHL DUP7 ADD SWAP1 SWAP4 ADD SWAP4 POP DUP5 SWAP3 POP PUSH2 0x500 SWAP2 POP PUSH2 0x2F8 SWAP1 POP PUSH2 0x4ED JUMP JUMPDEST PUSH4 0x4E487B71 PUSH1 0xE0 SHL DUP4 MSTORE PUSH1 0x22 DUP11 MSTORE PUSH1 0x24 DUP4 REVERT JUMPDEST SWAP3 PUSH1 0x7F AND SWAP3 PUSH2 0x4C3 JUMP JUMPDEST DUP1 REVERT JUMPDEST POP POP CALLVALUE PUSH2 0x2A5 JUMPI DUP2 PUSH1 0x3 NOT CALLDATASIZE ADD SLT PUSH2 0x2A5 JUMPI PUSH1 0x6 SLOAD SWAP1 MLOAD PUSH1 0x1 PUSH1 0x1 PUSH1 0xA0 SHL SUB SWAP1 SWAP2 AND DUP2 MSTORE PUSH1 0x20 SWAP1 RETURN JUMPDEST POP SWAP2 SWAP1 DUP2 PUSH1 0x3 NOT CALLDATASIZE ADD SLT PUSH2 0x2A5 JUMPI PUSH7 0x2386F26FC10000 CALLVALUE LT PUSH2 0x964 JUMPI PUSH1 0x7 SLOAD SWAP2 PUSH1 0x0 NOT SWAP4 DUP5 DUP5 EQ PUSH2 0x951 JUMPI PUSH1 0x1 DUP5 ADD PUSH1 0x7 SSTORE DUP3 MLOAD PUSH2 0x617 DUP2 PUSH2 0xFAE JUMP JUMPDEST DUP3 DUP2 MSTORE CALLER ISZERO PUSH2 0x93B JUMPI DUP5 DUP4 MSTORE PUSH1 0x20 SWAP6 PUSH1 0x2 DUP8 MSTORE DUP6 PUSH1 0x1 DUP1 PUSH1 0xA0 SHL SUB DUP7 DUP7 KECCAK256 SLOAD AND DUP1 ISZERO ISZERO SWAP3 DUP4 PUSH2 0x909 JUMPI JUMPDEST POP CALLER DUP1 DUP8 MSTORE PUSH1 0x3 DUP11 MSTORE DUP8 DUP8 KECCAK256 DUP1 SLOAD PUSH1 0x1 ADD SWAP1 SSTORE DUP3 DUP8 MSTORE PUSH1 0x2 DUP11 MSTORE DUP8 DUP8 KECCAK256 DUP1 SLOAD PUSH1 0x1 PUSH1 0x1 PUSH1 0xA0 SHL SUB NOT AND DUP3 OR SWAP1 SSTORE SWAP1 PUSH32 0xDDF252AD1BE2C89B69C2B068FC378DAA952BA7F163C4A11628F55A4DF523B3EF DUP8 DUP1 LOG4 PUSH2 0x8F3 JUMPI CALLER EXTCODESIZE PUSH2 0x7D5 JUMPI JUMPDEST POP DUP3 MLOAD DUP6 DUP2 ADD TIMESTAMP DUP2 MSTORE DUP6 DUP6 DUP4 ADD MSTORE CALLER PUSH1 0x60 SHL PUSH1 0x60 DUP4 ADD MSTORE PUSH1 0x54 DUP3 MSTORE PUSH1 0x80 DUP3 ADD SWAP3 DUP3 DUP5 LT PUSH8 0xFFFFFFFFFFFFFFFF DUP6 GT OR PUSH2 0x7C2 JUMPI POP SWAP2 PUSH1 0x3 DUP7 PUSH2 0x777 SWAP4 DUP10 SWAP6 DUP5 DUP10 MSTORE DUP2 MLOAD SWAP1 KECCAK256 SWAP7 PUSH1 0xFF PUSH1 0x64 DUP2 PUSH1 0x6 DUP12 MOD AND SWAP10 PUSH1 0x8 SHR MOD AND PUSH1 0x3C DUP2 LT PUSH1 0x0 EQ PUSH2 0x7AC JUMPI POP DUP1 JUMPDEST PUSH2 0x70B DUP7 PUSH2 0xF7C JUMP JUMPDEST DUP4 DUP7 MSTORE DUP10 PUSH1 0xA0 DUP5 ADD SWAP3 DUP11 DUP5 MSTORE PUSH1 0x8 PUSH1 0xFF PUSH1 0xC0 DUP8 ADD SWAP5 AND SWAP11 DUP12 DUP6 MSTORE PUSH2 0x100 PUSH1 0xE0 DUP9 ADD SWAP8 TIMESTAMP DUP10 MSTORE ADD SWAP8 DUP4 DUP10 MSTORE DUP4 MSTORE MSTORE KECCAK256 SWAP6 MLOAD DUP7 SSTORE PUSH1 0xFF PUSH1 0x1 DUP8 ADD SWAP3 MLOAD AND PUSH2 0xFF00 DUP4 SLOAD SWAP3 MLOAD PUSH1 0x8 SHL AND SWAP2 PUSH2 0xFFFF NOT AND OR OR SWAP1 SSTORE MLOAD PUSH1 0x2 DUP5 ADD SSTORE MLOAD ISZERO ISZERO SWAP2 ADD SWAP1 PUSH1 0xFF DUP1 NOT DUP4 SLOAD AND SWAP2 ISZERO ISZERO AND OR SWAP1 SSTORE JUMP JUMPDEST DUP3 MLOAD SWAP2 DUP3 MSTORE DUP5 DUP3 ADD MSTORE DUP3 PUSH32 0x323BF84EA2F2167A91E45D06CFCD3E1E9FFFD5B3A307D24D5C3A516981AF1B86 DUP4 CALLER SWAP4 LOG3 MLOAD SWAP1 DUP2 MSTORE RETURN JUMPDEST PUSH1 0x5A GT ISZERO PUSH2 0x7BB JUMPI PUSH1 0x1 PUSH2 0x702 JUMP JUMPDEST PUSH1 0x2 PUSH2 0x702 JUMP JUMPDEST PUSH4 0x4E487B71 PUSH1 0xE0 SHL DUP6 MSTORE PUSH1 0x41 SWAP1 MSTORE PUSH1 0x24 DUP5 REVERT JUMPDEST DUP4 SWAP6 SWAP3 SWAP6 SWAP5 SWAP2 SWAP5 MLOAD DUP4 DUP2 DUP1 PUSH2 0x811 PUSH4 0xA85BD01 PUSH1 0xE1 SHL SWAP6 DUP7 DUP4 MSTORE CALLER DUP12 DUP5 ADD MSTORE DUP12 PUSH1 0x24 DUP5 ADD MSTORE DUP8 PUSH1 0x44 DUP5 ADD MSTORE PUSH1 0x80 PUSH1 0x64 DUP5 ADD MSTORE PUSH1 0x84 DUP4 ADD SWAP1 PUSH2 0xED6 JUMP JUMPDEST SUB DUP2 DUP11 CALLER GAS CALL DUP8 SWAP2 DUP2 PUSH2 0x8AF JUMPI JUMPDEST POP PUSH2 0x87D JUMPI POP POP POP RETURNDATASIZE PUSH1 0x0 EQ PUSH2 0x874 JUMPI RETURNDATASIZE PUSH2 0x839 DUP2 PUSH2 0xFEC JUMP JUMPDEST SWAP1 PUSH2 0x846 DUP5 MLOAD SWAP3 DUP4 PUSH2 0xFCA JUMP JUMPDEST DUP2 MSTORE DUP1 SWAP5 DUP3 RETURNDATASIZE SWAP3 ADD RETURNDATACOPY JUMPDEST DUP4 MLOAD SWAP4 DUP5 PUSH2 0x86E JUMPI DUP3 MLOAD PUSH4 0x32505749 PUSH1 0xE1 SHL DUP2 MSTORE CALLER DUP2 DUP7 ADD MSTORE PUSH1 0x24 SWAP1 REVERT JUMPDEST DUP5 SWAP3 POP ADD REVERT JUMPDEST PUSH1 0x60 SWAP4 POP PUSH2 0x850 JUMP JUMPDEST SWAP3 SWAP6 SWAP2 SWAP5 SWAP2 SWAP3 PUSH1 0x1 PUSH1 0x1 PUSH1 0xE0 SHL SUB NOT AND SUB PUSH2 0x898 JUMPI CODESIZE PUSH2 0x69E JUMP JUMPDEST PUSH1 0x24 SWAP1 DUP4 MLOAD SWAP1 PUSH4 0x32505749 PUSH1 0xE1 SHL DUP3 MSTORE CALLER SWAP1 DUP3 ADD MSTORE REVERT JUMPDEST SWAP1 SWAP2 POP DUP5 DUP2 DUP2 RETURNDATASIZE DUP4 GT PUSH2 0x8EC JUMPI JUMPDEST PUSH2 0x8C7 DUP2 DUP4 PUSH2 0xFCA JUMP JUMPDEST DUP2 ADD SUB SLT PUSH2 0x8E8 JUMPI MLOAD PUSH1 0x1 PUSH1 0x1 PUSH1 0xE0 SHL SUB NOT DUP2 AND DUP2 SUB PUSH2 0x8E8 JUMPI SWAP1 CODESIZE PUSH2 0x81F JUMP JUMPDEST DUP8 DUP1 REVERT JUMPDEST POP RETURNDATASIZE PUSH2 0x8BD JUMP JUMPDEST POP SWAP2 MLOAD PUSH4 0x39E35637 PUSH1 0xE1 SHL DUP2 MSTORE SWAP2 DUP3 ADD MSTORE PUSH1 0x24 SWAP1 REVERT JUMPDEST PUSH1 0x0 DUP4 DUP2 MSTORE PUSH1 0x4 PUSH1 0x20 MSTORE PUSH1 0x40 SWAP1 KECCAK256 DUP1 SLOAD PUSH1 0x1 PUSH1 0x1 PUSH1 0xA0 SHL SUB NOT AND SWAP1 SSTORE DUP2 DUP8 MSTORE PUSH1 0x3 DUP11 MSTORE DUP8 DUP8 KECCAK256 SWAP1 DUP2 SLOAD ADD SWAP1 SSTORE CODESIZE PUSH2 0x641 JUMP JUMPDEST POP SWAP2 MLOAD PUSH4 0x32505749 PUSH1 0xE1 SHL DUP2 MSTORE SWAP2 DUP3 ADD MSTORE PUSH1 0x24 SWAP1 REVERT JUMPDEST PUSH4 0x4E487B71 PUSH1 0xE0 SHL DUP3 MSTORE PUSH1 0x11 SWAP1 MSTORE PUSH1 0x24 SWAP1 REVERT JUMPDEST MLOAD PUSH3 0x461BCD PUSH1 0xE5 SHL DUP2 MSTORE PUSH1 0x20 DUP2 DUP5 ADD MSTORE PUSH1 0x14 PUSH1 0x24 DUP3 ADD MSTORE PUSH20 0x125B9CDD59999A58DA595B9D081C185E5B595B9D PUSH1 0x62 SHL PUSH1 0x44 DUP3 ADD MSTORE PUSH1 0x64 SWAP1 REVERT JUMPDEST DUP4 CALLVALUE PUSH2 0x5AE JUMPI DUP1 PUSH1 0x3 NOT CALLDATASIZE ADD SLT PUSH2 0x5AE JUMPI PUSH2 0x9B6 PUSH2 0x1008 JUMP JUMPDEST PUSH1 0x6 DUP1 SLOAD PUSH1 0x1 PUSH1 0x1 PUSH1 0xA0 SHL SUB NOT DUP2 AND SWAP1 SWAP2 SSTORE DUP2 SWAP1 PUSH1 0x1 PUSH1 0x1 PUSH1 0xA0 SHL SUB AND PUSH32 0x8BE0079C531659141344CD1FD0A4F28419497F9722A3DAAFE3B4186F6B6457E0 DUP3 DUP1 LOG3 DUP1 RETURN JUMPDEST POP SWAP2 CALLVALUE PUSH2 0x5AE JUMPI PUSH1 0x20 CALLDATASIZE PUSH1 0x3 NOT ADD SLT PUSH2 0x5AE JUMPI PUSH1 0x1 PUSH1 0x1 PUSH1 0xA0 SHL SUB PUSH2 0xA1D PUSH2 0xF16 JUMP JUMPDEST AND SWAP3 DUP4 ISZERO PUSH2 0xA3A JUMPI POP DUP1 PUSH1 0x20 SWAP4 DUP4 SWAP3 MSTORE PUSH1 0x3 DUP5 MSTORE KECCAK256 SLOAD SWAP1 MLOAD SWAP1 DUP2 MSTORE RETURN JUMPDEST SWAP2 MLOAD PUSH4 0x22718AD9 PUSH1 0xE2 SHL DUP2 MSTORE SWAP2 DUP3 ADD MSTORE PUSH1 0x24 SWAP1 REVERT JUMPDEST POP SWAP2 CALLVALUE PUSH2 0x5AE JUMPI PUSH1 0x20 CALLDATASIZE PUSH1 0x3 NOT ADD SLT PUSH2 0x5AE JUMPI POP PUSH2 0xA6F PUSH1 0x20 SWAP3 CALLDATALOAD PUSH2 0x11D3 JUMP JUMPDEST SWAP1 MLOAD PUSH1 0x1 PUSH1 0x1 PUSH1 0xA0 SHL SUB SWAP1 SWAP2 AND DUP2 MSTORE RETURN JUMPDEST POP POP CALLVALUE PUSH2 0x2A5 JUMPI PUSH2 0x3EA SWAP1 PUSH2 0xA94 CALLDATASIZE PUSH2 0xF47 JUMP JUMPDEST SWAP2 SWAP3 MLOAD SWAP3 PUSH2 0xAA1 DUP5 PUSH2 0xFAE JUMP JUMPDEST DUP6 DUP5 MSTORE PUSH2 0x3E4 DUP4 DUP4 DUP4 PUSH2 0x1034 JUMP JUMPDEST POP POP CALLVALUE PUSH2 0x2A5 JUMPI DUP2 PUSH1 0x3 NOT CALLDATASIZE ADD SLT PUSH2 0x2A5 JUMPI PUSH2 0xAC9 PUSH2 0x1008 JUMP JUMPDEST DUP2 DUP1 DUP1 DUP1 PUSH1 0x1 DUP1 PUSH1 0xA0 SHL SUB PUSH1 0x6 SLOAD AND SELFBALANCE SWAP1 DUP3 DUP3 ISZERO PUSH2 0xAF6 JUMPI JUMPDEST CALL ISZERO PUSH2 0xAEC JUMPI POP DUP1 RETURN JUMPDEST MLOAD SWAP1 RETURNDATASIZE SWAP1 DUP3 RETURNDATACOPY RETURNDATASIZE SWAP1 REVERT JUMPDEST POP PUSH2 0x8FC PUSH2 0xAE2 JUMP JUMPDEST DUP4 CALLVALUE PUSH2 0x5AE JUMPI PUSH2 0x3EA PUSH2 0xB11 CALLDATASIZE PUSH2 0xF47 JUMP JUMPDEST SWAP2 PUSH2 0x1034 JUMP JUMPDEST POP SWAP1 CALLVALUE PUSH2 0x1C4 JUMPI PUSH1 0x20 DUP1 PUSH1 0x3 NOT CALLDATASIZE ADD SLT PUSH2 0xC62 JUMPI DUP3 CALLDATALOAD SWAP3 PUSH2 0xB37 DUP5 PUSH2 0x11D3 JUMP JUMPDEST CALLER PUSH1 0x1 PUSH1 0x1 PUSH1 0xA0 SHL SUB SWAP1 SWAP2 AND SUB PUSH2 0xC35 JUMPI DUP4 DUP6 MSTORE PUSH1 0x8 DUP3 MSTORE PUSH1 0xFF PUSH1 0x3 DUP5 DUP8 KECCAK256 ADD SLOAD AND PUSH2 0xC02 JUMPI DUP4 DUP6 MSTORE PUSH1 0x8 DUP3 MSTORE PUSH1 0x2 DUP4 DUP7 KECCAK256 ADD SLOAD PUSH2 0xE10 DUP2 ADD DUP1 SWAP2 GT PUSH2 0xBEF JUMPI TIMESTAMP LT PUSH2 0xBBE JUMPI POP DUP3 DUP5 MSTORE PUSH1 0x8 SWAP1 MSTORE DUP3 KECCAK256 PUSH1 0x3 ADD DUP1 SLOAD PUSH1 0xFF NOT AND PUSH1 0x1 OR SWAP1 SSTORE CALLER SWAP1 PUSH32 0xBCC217A4A801124DC2346B3503BE7DFBBB798F5EA5D401306958D24640C088E0 DUP4 DUP1 LOG3 DUP1 RETURN JUMPDEST SWAP2 MLOAD PUSH3 0x461BCD PUSH1 0xE5 SHL DUP2 MSTORE SWAP2 DUP3 ADD MSTORE PUSH1 0xD PUSH1 0x24 DUP3 ADD MSTORE PUSH13 0x456767206E6F74207265616479 PUSH1 0x98 SHL PUSH1 0x44 DUP3 ADD MSTORE PUSH1 0x64 SWAP1 REVERT JUMPDEST PUSH4 0x4E487B71 PUSH1 0xE0 SHL DUP7 MSTORE PUSH1 0x11 DUP3 MSTORE PUSH1 0x24 DUP7 REVERT JUMPDEST SWAP2 MLOAD PUSH3 0x461BCD PUSH1 0xE5 SHL DUP2 MSTORE SWAP2 DUP3 ADD MSTORE PUSH1 0xF PUSH1 0x24 DUP3 ADD MSTORE PUSH15 0x105B1C9958591E481A185D18DA1959 PUSH1 0x8A SHL PUSH1 0x44 DUP3 ADD MSTORE PUSH1 0x64 SWAP1 REVERT JUMPDEST SWAP2 MLOAD PUSH3 0x461BCD PUSH1 0xE5 SHL DUP2 MSTORE SWAP2 DUP3 ADD MSTORE PUSH1 0x9 PUSH1 0x24 DUP3 ADD MSTORE PUSH9 0x2737BA1037BBB732B9 PUSH1 0xB9 SHL PUSH1 0x44 DUP3 ADD MSTORE PUSH1 0x64 SWAP1 REVERT JUMPDEST DUP4 DUP1 REVERT JUMPDEST POP POP CALLVALUE PUSH2 0x2A5 JUMPI DUP2 PUSH1 0x3 NOT CALLDATASIZE ADD SLT PUSH2 0x2A5 JUMPI PUSH1 0x20 SWAP1 MLOAD PUSH7 0x2386F26FC10000 DUP2 MSTORE RETURN JUMPDEST POP SWAP1 CALLVALUE PUSH2 0x1C4 JUMPI DUP1 PUSH1 0x3 NOT CALLDATASIZE ADD SLT PUSH2 0x1C4 JUMPI PUSH2 0xCA2 PUSH2 0xF16 JUMP JUMPDEST SWAP2 PUSH1 0x24 CALLDATALOAD PUSH2 0xCAF DUP2 PUSH2 0x11D3 JUMP JUMPDEST CALLER ISZERO ISZERO DUP1 PUSH2 0xD51 JUMPI JUMPDEST DUP1 PUSH2 0xD28 JUMPI JUMPDEST PUSH2 0xD12 JUMPI PUSH1 0x1 PUSH1 0x1 PUSH1 0xA0 SHL SUB SWAP5 DUP6 AND SWAP5 DUP3 SWAP2 DUP7 SWAP2 AND PUSH32 0x8C5BE1E5EBEC7D5BD14F71427D1E84F3DD0314C0F7B2291E5B200AC8C7C3B925 DUP9 DUP1 LOG4 DUP5 MSTORE PUSH1 0x20 MSTORE DUP3 KECCAK256 DUP1 SLOAD PUSH1 0x1 PUSH1 0x1 PUSH1 0xA0 SHL SUB NOT AND SWAP1 SWAP2 OR SWAP1 SSTORE DUP1 RETURN JUMPDEST DUP4 MLOAD PUSH4 0xA9FBF51F PUSH1 0xE0 SHL DUP2 MSTORE CALLER DUP2 DUP6 ADD MSTORE PUSH1 0x24 SWAP1 REVERT JUMPDEST POP PUSH1 0x1 PUSH1 0x1 PUSH1 0xA0 SHL SUB DUP2 AND DUP7 MSTORE PUSH1 0x5 PUSH1 0x20 SWAP1 DUP2 MSTORE DUP5 DUP8 KECCAK256 CALLER DUP9 MSTORE SWAP1 MSTORE DUP4 DUP7 KECCAK256 SLOAD PUSH1 0xFF AND ISZERO PUSH2 0xCBE JUMP JUMPDEST POP PUSH1 0x1 PUSH1 0x1 PUSH1 0xA0 SHL SUB DUP2 AND CALLER EQ ISZERO PUSH2 0xCB8 JUMP JUMPDEST POP CALLVALUE PUSH2 0x1C4 JUMPI PUSH1 0x20 CALLDATASIZE PUSH1 0x3 NOT ADD SLT PUSH2 0x1C4 JUMPI SWAP2 DUP3 PUSH1 0x20 SWAP4 CALLDATALOAD PUSH2 0xD85 DUP2 PUSH2 0x11D3 JUMP JUMPDEST POP DUP3 MSTORE DUP4 MSTORE DUP2 SWAP1 KECCAK256 SLOAD SWAP1 MLOAD PUSH1 0x1 PUSH1 0x1 PUSH1 0xA0 SHL SUB SWAP1 SWAP2 AND DUP2 MSTORE RETURN JUMPDEST POP SWAP2 CALLVALUE PUSH2 0x5AE JUMPI DUP1 PUSH1 0x3 NOT CALLDATASIZE ADD SLT PUSH2 0x5AE JUMPI DUP2 MLOAD SWAP2 DUP2 DUP3 SLOAD SWAP3 PUSH1 0x1 DUP5 DUP2 SHR SWAP2 DUP2 DUP7 AND SWAP6 DUP7 ISZERO PUSH2 0xE60 JUMPI JUMPDEST PUSH1 0x20 SWAP7 DUP8 DUP6 LT DUP2 EQ PUSH2 0x591 JUMPI DUP9 SWAP10 POP SWAP7 DUP9 SWAP7 SWAP8 DUP6 DUP3 SWAP11 MSTORE SWAP2 DUP3 PUSH1 0x0 EQ PUSH2 0x56A JUMPI POP POP PUSH1 0x1 EQ PUSH2 0xE05 JUMPI POP POP POP PUSH2 0x2F8 SWAP3 SWAP2 PUSH2 0x500 SWAP2 SUB DUP6 PUSH2 0xFCA JUMP JUMPDEST SWAP2 SWAP1 DUP7 SWAP4 POP DUP3 DUP1 MSTORE PUSH32 0x290DECD9548B62A8D60345A988386FC84BA6BC95484008F6362F93160EF3E563 JUMPDEST DUP3 DUP5 LT PUSH2 0xE48 JUMPI POP POP POP DUP3 ADD ADD DUP2 PUSH2 0x500 PUSH2 0x2F8 PUSH2 0x4ED JUMP JUMPDEST DUP1 SLOAD DUP5 DUP11 ADD DUP7 ADD MSTORE DUP9 SWAP6 POP DUP8 SWAP5 SWAP1 SWAP4 ADD SWAP3 DUP2 ADD PUSH2 0xE2F JUMP JUMPDEST SWAP3 PUSH1 0x7F AND SWAP3 PUSH2 0xDC9 JUMP JUMPDEST SWAP3 POP POP CALLVALUE PUSH2 0x1C4 JUMPI PUSH1 0x20 CALLDATASIZE PUSH1 0x3 NOT ADD SLT PUSH2 0x1C4 JUMPI CALLDATALOAD PUSH4 0xFFFFFFFF PUSH1 0xE0 SHL DUP2 AND DUP1 SWAP2 SUB PUSH2 0x1C4 JUMPI PUSH1 0x20 SWAP3 POP PUSH4 0x80AC58CD PUSH1 0xE0 SHL DUP2 EQ SWAP1 DUP2 ISZERO PUSH2 0xEC5 JUMPI JUMPDEST DUP2 ISZERO PUSH2 0xEB4 JUMPI JUMPDEST POP ISZERO ISZERO DUP2 MSTORE RETURN JUMPDEST PUSH4 0x1FFC9A7 PUSH1 0xE0 SHL EQ SWAP1 POP CODESIZE PUSH2 0xEAD JUMP JUMPDEST PUSH4 0x5B5E139F PUSH1 0xE0 SHL DUP2 EQ SWAP2 POP PUSH2 0xEA6 JUMP JUMPDEST SWAP2 SWAP1 DUP3 MLOAD SWAP3 DUP4 DUP3 MSTORE PUSH1 0x0 JUMPDEST DUP5 DUP2 LT PUSH2 0xF02 JUMPI POP POP DUP3 PUSH1 0x0 PUSH1 0x20 DUP1 SWAP5 SWAP6 DUP5 ADD ADD MSTORE PUSH1 0x1F DUP1 NOT SWAP2 ADD AND ADD ADD SWAP1 JUMP JUMPDEST PUSH1 0x20 DUP2 DUP4 ADD DUP2 ADD MLOAD DUP5 DUP4 ADD DUP3 ADD MSTORE ADD PUSH2 0xEE1 JUMP JUMPDEST PUSH1 0x4 CALLDATALOAD SWAP1 PUSH1 0x1 PUSH1 0x1 PUSH1 0xA0 SHL SUB DUP3 AND DUP3 SUB PUSH2 0xF2C JUMPI JUMP JUMPDEST PUSH1 0x0 DUP1 REVERT JUMPDEST PUSH1 0x24 CALLDATALOAD SWAP1 PUSH1 0x1 PUSH1 0x1 PUSH1 0xA0 SHL SUB DUP3 AND DUP3 SUB PUSH2 0xF2C JUMPI JUMP JUMPDEST PUSH1 0x60 SWAP1 PUSH1 0x3 NOT ADD SLT PUSH2 0xF2C JUMPI PUSH1 0x1 PUSH1 0x1 PUSH1 0xA0 SHL SUB SWAP1 PUSH1 0x4 CALLDATALOAD DUP3 DUP2 AND DUP2 SUB PUSH2 0xF2C JUMPI SWAP2 PUSH1 0x24 CALLDATALOAD SWAP1 DUP2 AND DUP2 SUB PUSH2 0xF2C JUMPI SWAP1 PUSH1 0x44 CALLDATALOAD SWAP1 JUMP JUMPDEST PUSH1 0xA0 DUP2 ADD SWAP1 DUP2 LT PUSH8 0xFFFFFFFFFFFFFFFF DUP3 GT OR PUSH2 0xF98 JUMPI PUSH1 0x40 MSTORE JUMP JUMPDEST PUSH4 0x4E487B71 PUSH1 0xE0 SHL PUSH1 0x0 MSTORE PUSH1 0x41 PUSH1 0x4 MSTORE PUSH1 0x24 PUSH1 0x0 REVERT JUMPDEST PUSH1 0x20 DUP2 ADD SWAP1 DUP2 LT PUSH8 0xFFFFFFFFFFFFFFFF DUP3 GT OR PUSH2 0xF98 JUMPI PUSH1 0x40 MSTORE JUMP JUMPDEST SWAP1 PUSH1 0x1F DUP1 NOT SWAP2 ADD AND DUP2 ADD SWAP1 DUP2 LT PUSH8 0xFFFFFFFFFFFFFFFF DUP3 GT OR PUSH2 0xF98 JUMPI PUSH1 0x40 MSTORE JUMP JUMPDEST PUSH8 0xFFFFFFFFFFFFFFFF DUP2 GT PUSH2 0xF98 JUMPI PUSH1 0x1F ADD PUSH1 0x1F NOT AND PUSH1 0x20 ADD SWAP1 JUMP JUMPDEST PUSH1 0x6 SLOAD PUSH1 0x1 PUSH1 0x1 PUSH1 0xA0 SHL SUB AND CALLER SUB PUSH2 0x101C JUMPI JUMP JUMPDEST PUSH1 0x40 MLOAD PUSH4 0x118CDAA7 PUSH1 0xE0 SHL DUP2 MSTORE CALLER PUSH1 0x4 DUP3 ADD MSTORE PUSH1 0x24 SWAP1 REVERT JUMPDEST PUSH1 0x1 PUSH1 0x1 PUSH1 0xA0 SHL SUB SWAP2 DUP3 AND SWAP3 SWAP1 SWAP2 DUP4 ISZERO PUSH2 0x11BA JUMPI PUSH1 0x0 SWAP3 DUP3 DUP5 MSTORE DUP3 PUSH1 0x20 SWAP6 PUSH1 0x2 DUP8 MSTORE PUSH1 0x40 SWAP7 DUP5 DUP9 DUP9 KECCAK256 SLOAD AND SWAP7 DUP8 SWAP2 CALLER ISZERO ISZERO DUP1 PUSH2 0x1124 JUMPI JUMPDEST POP SWAP1 PUSH1 0x2 PUSH32 0xDDF252AD1BE2C89B69C2B068FC378DAA952BA7F163C4A11628F55A4DF523B3EF SWAP3 DUP5 PUSH2 0x10F1 JUMPI JUMPDEST DUP6 DUP4 MSTORE PUSH1 0x3 DUP2 MSTORE DUP12 DUP4 KECCAK256 DUP1 SLOAD PUSH1 0x1 ADD SWAP1 SSTORE DUP7 DUP4 MSTORE MSTORE DUP10 DUP2 KECCAK256 DUP1 SLOAD PUSH1 0x1 PUSH1 0x1 PUSH1 0xA0 SHL SUB NOT AND DUP6 OR SWAP1 SSTORE DUP1 LOG4 AND SWAP3 DUP4 DUP4 SUB PUSH2 0x10D0 JUMPI POP POP POP POP JUMP JUMPDEST PUSH1 0x64 SWAP5 POP MLOAD SWAP3 PUSH4 0x64283D7B PUSH1 0xE0 SHL DUP5 MSTORE PUSH1 0x4 DUP5 ADD MSTORE PUSH1 0x24 DUP4 ADD MSTORE PUSH1 0x44 DUP3 ADD MSTORE REVERT JUMPDEST PUSH1 0x0 DUP8 DUP2 MSTORE PUSH1 0x4 PUSH1 0x20 MSTORE PUSH1 0x40 SWAP1 KECCAK256 DUP1 SLOAD PUSH1 0x1 PUSH1 0x1 PUSH1 0xA0 SHL SUB NOT AND SWAP1 SSTORE DUP5 DUP4 MSTORE PUSH1 0x3 DUP2 MSTORE DUP12 DUP4 KECCAK256 DUP1 SLOAD PUSH1 0x0 NOT ADD SWAP1 SSTORE PUSH2 0x1097 JUMP JUMPDEST SWAP2 SWAP4 SWAP5 POP SWAP2 POP DUP1 PUSH2 0x1179 JUMPI JUMPDEST ISZERO PUSH2 0x1140 JUMPI DUP6 SWAP3 SWAP2 DUP8 SWAP2 CODESIZE PUSH2 0x106B JUMP JUMPDEST DUP8 DUP7 DUP9 PUSH2 0x115D JUMPI PUSH1 0x24 SWAP2 MLOAD SWAP1 PUSH4 0x7E273289 PUSH1 0xE0 SHL DUP3 MSTORE PUSH1 0x4 DUP3 ADD MSTORE REVERT JUMPDEST PUSH1 0x44 SWAP2 MLOAD SWAP1 PUSH4 0x177E802F PUSH1 0xE0 SHL DUP3 MSTORE CALLER PUSH1 0x4 DUP4 ADD MSTORE PUSH1 0x24 DUP3 ADD MSTORE REVERT JUMPDEST POP CALLER DUP8 EQ DUP1 ISZERO PUSH2 0x119E JUMPI JUMPDEST DUP1 PUSH2 0x1130 JUMPI POP DUP6 DUP3 MSTORE PUSH1 0x4 DUP2 MSTORE CALLER DUP6 DUP10 DUP5 KECCAK256 SLOAD AND EQ PUSH2 0x1130 JUMP JUMPDEST POP DUP7 DUP3 MSTORE PUSH1 0x5 DUP2 MSTORE DUP8 DUP3 KECCAK256 CALLER DUP4 MSTORE DUP2 MSTORE PUSH1 0xFF DUP9 DUP4 KECCAK256 SLOAD AND PUSH2 0x1184 JUMP JUMPDEST PUSH1 0x40 MLOAD PUSH4 0x32505749 PUSH1 0xE1 SHL DUP2 MSTORE PUSH1 0x0 PUSH1 0x4 DUP3 ADD MSTORE PUSH1 0x24 SWAP1 REVERT JUMPDEST PUSH1 0x0 DUP2 DUP2 MSTORE PUSH1 0x2 PUSH1 0x20 MSTORE PUSH1 0x40 SWAP1 KECCAK256 SLOAD PUSH1 0x1 PUSH1 0x1 PUSH1 0xA0 SHL SUB AND SWAP1 DUP2 ISZERO PUSH2 0x11F6 JUMPI POP SWAP1 JUMP JUMPDEST PUSH1 0x24 SWAP1 PUSH1 0x40 MLOAD SWAP1 PUSH4 0x7E273289 PUSH1 0xE0 SHL DUP3 MSTORE PUSH1 0x4 DUP3 ADD MSTORE REVERT JUMPDEST SWAP1 SWAP4 SWAP2 SWAP3 DUP4 EXTCODESIZE PUSH2 0x1220 JUMPI JUMPDEST POP POP POP POP POP JUMP JUMPDEST PUSH1 0x40 MLOAD PUSH4 0xA85BD01 PUSH1 0xE1 SHL DUP1 DUP3 MSTORE PUSH1 0x1 PUSH1 0x1 PUSH1 0xA0 SHL SUB SWAP4 DUP5 AND PUSH1 0x4 DUP4 ADD MSTORE SWAP6 DUP4 AND PUSH1 0x24 DUP3 ADD MSTORE PUSH1 0x44 DUP2 ADD SWAP2 SWAP1 SWAP2 MSTORE PUSH1 0x80 PUSH1 0x64 DUP3 ADD MSTORE SWAP5 SWAP3 AND SWAP3 PUSH1 0x20 SWAP3 SWAP2 DUP6 SWAP1 PUSH2 0x126D SWAP1 PUSH1 0x84 DUP4 ADD SWAP1 PUSH2 0xED6 JUMP JUMPDEST SUB SWAP5 DUP4 DUP2 PUSH1 0x0 SWAP8 DUP2 DUP10 DUP10 GAS CALL DUP7 SWAP2 DUP2 PUSH2 0x1318 JUMPI JUMPDEST POP PUSH2 0x12E2 JUMPI POP POP POP RETURNDATASIZE PUSH1 0x0 EQ PUSH2 0x12D9 JUMPI RETURNDATASIZE PUSH2 0x129B DUP2 PUSH2 0xFEC JUMP JUMPDEST SWAP1 PUSH2 0x12A9 PUSH1 0x40 MLOAD SWAP3 DUP4 PUSH2 0xFCA JUMP JUMPDEST DUP2 MSTORE DUP1 SWAP4 DUP3 RETURNDATASIZE SWAP3 ADD RETURNDATACOPY JUMPDEST DUP3 MLOAD SWAP3 DUP4 PUSH2 0x12D4 JUMPI PUSH1 0x40 MLOAD PUSH4 0x32505749 PUSH1 0xE1 SHL DUP2 MSTORE PUSH1 0x4 DUP2 ADD DUP5 SWAP1 MSTORE PUSH1 0x24 SWAP1 REVERT JUMPDEST ADD SWAP1 POP REVERT JUMPDEST PUSH1 0x60 SWAP3 POP PUSH2 0x12B3 JUMP JUMPDEST SWAP2 SWAP5 POP SWAP2 POP PUSH4 0xFFFFFFFF PUSH1 0xE0 SHL AND SUB PUSH2 0x1300 JUMPI POP CODESIZE DUP1 DUP1 DUP1 DUP1 PUSH2 0x1219 JUMP JUMPDEST PUSH1 0x24 SWAP1 PUSH1 0x40 MLOAD SWAP1 PUSH4 0x32505749 PUSH1 0xE1 SHL DUP3 MSTORE PUSH1 0x4 DUP3 ADD MSTORE REVERT JUMPDEST SWAP1 SWAP2 POP DUP5 DUP2 DUP2 RETURNDATASIZE DUP4 GT PUSH2 0x1355 JUMPI JUMPDEST PUSH2 0x1330 DUP2 DUP4 PUSH2 0xFCA JUMP JUMPDEST DUP2 ADD SUB SLT PUSH2 0x1351 JUMPI MLOAD PUSH1 0x1 PUSH1 0x1 PUSH1 0xE0 SHL SUB NOT DUP2 AND DUP2 SUB PUSH2 0x1351 JUMPI SWAP1 CODESIZE PUSH2 0x1281 JUMP JUMPDEST DUP7 DUP1 REVERT JUMPDEST POP RETURNDATASIZE PUSH2 0x1326 JUMP INVALID LOG2 PUSH5 0x6970667358 0x22 SLT KECCAK256 0xF6 DUP14 SWAP5 PUSH27 0x5D778E60B227EE3D1959ED299235CCC0C1575E3FF5CB60F4EAE2DD MSTORE8 PUSH5 0x736F6C6343 STOP ADDMOD EQ STOP CALLER "},"methodIdentifiers":{"EGG_PRICE()":"1d4e18c9","approve(address,uint256)":"095ea7b3","balanceOf(address)":"70a08231","buyEgg()":"7d635502","eggs(uint256)":"bb654efa","getApproved(uint256)":"081812fc","getEgg(uint256)":"feb40f7e","hatchEgg(uint256)":"2385554c","isApprovedForAll(address,address)":"e985e9c5","name()":"06fdde03","owner()":"8da5cb5b","ownerOf(uint256)":"6352211e","renounceOwnership()":"715018a6","safeTransferFrom(address,address,uint256)":"42842e0e","safeTransferFrom(address,address,uint256,bytes)":"b88d4fde","setApprovalForAll(address,bool)":"a22cb465","supportsInterface(bytes4)":"01ffc9a7","symbol()":"95d89b41","tokenURI(uint256)":"c87b56dd","transferFrom(address,address,uint256)":"23b872dd","transferOwnership(address)":"f2fde38b","withdraw()":"3ccfd60b"}}}}}