{"contracts/BattleArena.sol":{"BattleArena":{"abi":[{"inputs":[{"internalType":"address","name":"_dragonContract","type":"address"}],"stateMutability":"nonpayable","type":"constructor"},{"anonymous":false,"inputs":[{"indexed":true,"internalType":"uint256","name":"battleId","type":"uint256"},{"indexed":true,"internalType":"address","name":"winner","type":"address"},{"indexed":false,"internalType":"uint256","name":"expGained","type":"uint256"}],"name":"BattleCompleted","type":"event"},{"anonymous":false,"inputs":[{"indexed":true,"internalType":"uint256","name":"battleId","type":"uint256"},{"indexed":true,"internalType":"address","name":"challenger","type":"address"},{"indexed":false,"internalType":"uint256","name":"challengerDragon","type":"uint256"},{"indexed":false,"internalType":"uint256","name":"opponentDragon","type":"uint256"}],"name":"BattleInitiated","type":"event"},{"inputs":[{"internalType":"uint256","name":"","type":"uint256"}],"name":"battles","outputs":[{"internalType":"uint256","name":"id","type":"uint256"},{"internalType":"address","name":"challenger","type":"address"},{"internalType":"uint256","name":"challengerDragonId","type":"uint256"},{"internalType":"address","name":"opponent","type":"address"},{"internalType":"uint256","name":"opponentDragonId","type":"uint256"},{"internalType":"uint256","name":"timestamp","type":"uint256"},{"internalType":"address","name":"winner","type":"address"},{"internalType":"bool","name":"completed","type":"bool"},{"internalType":"uint256","name":"expReward","type":"uint256"}],"stateMutability":"view","type":"function"},{"inputs":[],"name":"dragonContract","outputs":[{"internalType":"contract IDragonNFT","name":"","type":"address"}],"stateMutability":"view","type":"function"},{"inputs":[{"internalType":"uint256","name":"battleId","type":"uint256"}],"name":"getBattle","outputs":[{"components":[{"internalType":"uint256","name":"id","type":"uint256"},{"internalType":"address","name":"challenger","type":"address"},{"internalType":"uint256","name":"challengerDragonId","type":"uint256"},{"internalType":"address","name":"opponent","type":"address"},{"internalType":"uint256","name":"opponentDragonId","type":"uint256"},{"internalType":"uint256","name":"timestamp","type":"uint256"},{"internalType":"address","name":"winner","type":"address"},{"internalType":"bool","name":"completed","type":"bool"},{"internalType":"uint256","name":"expReward","type":"uint256"}],"internalType":"struct BattleArena.Battle","name":"","type":"tuple"}],"stateMutability":"view","type":"function"},{"inputs":[{"internalType":"address","name":"user","type":"address"}],"name":"getUserBattles","outputs":[{"internalType":"uint256[]","name":"","type":"uint256[]"}],"stateMutability":"view","type":"function"},{"inputs":[{"internalType":"uint256","name":"myDragonId","type":"uint256"},{"internalType":"uint256","name":"opponentDragonId","type":"uint256"}],"name":"initiateBattle","outputs":[{"internalType":"uint256","name":"","type":"uint256"}],"stateMutability":"nonpayable","type":"function"},{"inputs":[{"internalType":"uint256","name":"battleId","type":"uint256"},{"internalType":"address","name":"winner","type":"address"},{"internalType":"uint256","name":"expGained","type":"uint256"}],"name":"submitBattleResult","outputs":[],"stateMutability":"nonpayable","type":"function"},{"inputs":[{"internalType":"address","name":"","type":"address"},{"internalType":"uint256","name":"","type":"uint256"}],"name":"userBattles","outputs":[{"internalType":"uint256","name":"","type":"uint256"}],"stateMutability":"view","type":"function"}],"evm":{"bytecode":{"linkReferences":{},"object":"60803461007457601f610bea38819003918201601f19168301916001600160401b038311848410176100795780849260209460405283398101031261007457516001600160a01b0381169081900361007457600080546001600160a01b031916919091179055604051610b5a90816100908239f35b600080fd5b634e487b7160e01b600052604160045260246000fdfe60806040908082526004908136101561001757600080fd5b60009160e08335811c928363012fc85e146108305750826305760181146107da5782635217ea291461030c578263606d2e96146102785782636dd0ce7a1461014f57505080639711dc38146101235763f5dbbaed1461007557600080fd5b3461012057602090816003193601126101205782906001600160a01b0361009a610a10565b16815260028352818120908251808584549182815201908194845286842090845b81811061010c57505050816100d1910382610a8c565b83519485948186019282875251809352850193925b8281106100f557505050500390f35b8351855286955093810193928101926001016100e6565b8254845292880192600192830192016100bb565b80fd5b50903461014b578160031936011261014b57905490516001600160a01b039091168152602090f35b5080fd5b9091503461027457602036600319011261027457808480519461017186610a59565b80865280602087015280828701528060608701528060808701528060a08701528060c0870152808387015280610100809701528435815260016020522092855180946101bc82610a59565b8054808352600160a01b600190038094816001850154169a602086019b8c52600285015481870190815283600387015416926060880193845286015494608088019586528c60058801549760a08a0198895260068101549b8a8860c08f9d019c168c52019b60a01c60ff1615158c52600701549c019b8c528483519e8f9283525116906020015251908c0152511660608a01525160808901525160a0880152511660c086015251151590840152519082015261012090f35b8280fd5b849250346103085760203660031901126103085760ff83610120958435815260016020522080549460018060a01b03908160018401541695600284015490836003860154169085015491600586015493600760068801549701549981519b8c5260208c01528a01526060890152608088015260a0870152811660c086015260a01c16151590830152610100820152f35b8380fd5b9391503461027457816003193601126102745780359060249384359160018060a01b039081835416978651986331a9108f60e11b808b5287848c015260209a8b818c81865afa90811561077f5787916107bd575b50853391160361078957885163e0bb933b60e01b815284810188905286818c81865afa801561077f5787906105dd575b6101a0915001511561059b578a908a8a518094819382528a888301525afa908115610591579084918691610564575b50169233841461052257600354986000198a146105115750938895938693828a999794868b968f600183016003558851956103f987610a59565b8387528b8d8389013381528c8a0191825260608a01918b835260808b0193845260a08b019542875260c08c01998b8b528c01988b8a526101008d019b808d5252600190528d8d209a518b558660018c01925116916bffffffffffffffffffffffff60a01b92838254161790555160028b01558560038b019251169082541617905551908701555160058601556006850192511682549160ff60a01b9051151560a01b16916affffffffffffffffffffff60a81b161717905551906007015533825260028b5283838320906104cc91610aea565b815260028a5220906104dd91610aea565b83519182528682015233927f2e1463e8d1391d8dce100cd457a5e3707257dd4b1f90d3a4c5dcdf8bbece118d91a351908152f35b634e487b7160e01b86526011845285fd5b875162461bcd60e51b81528084018b9052601d818b01527f43616e6e6f7420626174746c6520796f7572206f776e20647261676f6e0000006044820152606490fd5b61058491508b3d8d1161058a575b61057c8183610a8c565b810190610aae565b386103bf565b503d610572565b88513d87823e3d90fd5b885162461bcd60e51b81528085018c9052601e818c01527f4f70706f6e656e7420647261676f6e206e6f74206f6e207374616e64627900006044820152606490fd5b503d8088833e6105ed8183610a8c565b8101908c8183031261077b57805167ffffffffffffffff918282116107775701906101c0928383820312610777578c5193840184811083821117610765578d5282518452828f01518281116107615783019080601f8301121561076157815192831161076557908f92918e519361066d81601f19601f8701160186610a8c565b8385528383010111610761578f90918b92835b82811061074b575050830101528d83015261069c8b8201610acd565b8b8301526106ac60608201610acd565b60608301526106bd60808201610adb565b60808301526106ce60a08201610adb565b60a08301526106df60c08201610adb565b60c08301526106ef858201610acd565b85830152610100808201519083015261012080820151908301526101408082015190830152610160808201519083015261018080820151908301526101a080910151908115158203610747578201526101a090610390565b8880fd5b8181018401518682018501528d94508301610680565b8a80fd5b634e487b7160e01b8b52604189528e8bfd5b8980fd5b8780fd5b8a513d89823e3d90fd5b885162461bcd60e51b81528085018c9052600f818c01526e2737ba103cb7bab910323930b3b7b760891b6044820152606490fd5b6107d491508c8d3d1061058a5761057c8183610a8c565b38610360565b83853461014b578060031936011261014b576107f4610a10565b6001600160a01b03168252600260205280822080546024359390841015610120575060209261082291610a2b565b91905490519160031b1c8152f35b8583869234610308576060366003190112610308576001600160a01b03602435818116948435949091869003610a0c57604435928588526020946001865283892092600684019283549260ff8460a01c166109cb57508060018601541680331480156109bc575b15610987578a14908115610977575b50156109435785151580610938575b1561090057506001600160a81b0319168717600160a01b179055600701829055519081527f5f6e525271d68d47b9049b49a4ed50e63d6e24b56b74fc5d8d595818fcdfa0239190a380f35b845162461bcd60e51b81529081018790526012602482015271125b9d985b1a5908195e1c08185b5bdd5b9d60721b6044820152606490fd5b5060c88611156108b5565b845162461bcd60e51b8152908101879052600e60248201526d24b73b30b634b2103bb4b73732b960911b6044820152606490fd5b905060038501541689148b6108a6565b865162461bcd60e51b81528084018a9052600f60248201526e139bdd081c185c9d1a58da5c185b9d608a1b6044820152606490fd5b50816003870154163314610897565b62461bcd60e51b8152828101899052601860248201527f426174746c6520616c726561647920636f6d706c6574656400000000000000006044820152606490fd5b8680fd5b600435906001600160a01b0382168203610a2657565b600080fd5b8054821015610a435760005260206000200190600090565b634e487b7160e01b600052603260045260246000fd5b610120810190811067ffffffffffffffff821117610a7657604052565b634e487b7160e01b600052604160045260246000fd5b90601f8019910116810190811067ffffffffffffffff821117610a7657604052565b90816020910312610a2657516001600160a01b0381168103610a265790565b519060ff82168203610a2657565b519061ffff82168203610a2657565b805468010000000000000000811015610a7657610b0c91600182018155610a2b565b819291549060031b91821b91600019901b191617905556fea26469706673582212200aa35a3b6ceca4ca9d3059719e19a974ad791c8f541632b36a842a2c3758484b64736f6c63430008140033","opcodes":"PUSH1 0x80 CALLVALUE PUSH2 0x74 JUMPI PUSH1 0x1F PUSH2 0xBEA CODESIZE DUP2 SWAP1 SUB SWAP2 DUP3 ADD PUSH1 0x1F NOT AND DUP4 ADD SWAP2 PUSH1 0x1 PUSH1 0x1 PUSH1 0x40 SHL SUB DUP4 GT DUP5 DUP5 LT OR PUSH2 0x79 JUMPI DUP1 DUP5 SWAP3 PUSH1 0x20 SWAP5 PUSH1 0x40 MSTORE DUP4 CODECOPY DUP2 ADD SUB SLT PUSH2 0x74 JUMPI MLOAD PUSH1 0x1 PUSH1 0x1 PUSH1 0xA0 SHL SUB DUP2 AND SWAP1 DUP2 SWAP1 SUB PUSH2 0x74 JUMPI PUSH1 0x0 DUP1 SLOAD PUSH1 0x1 PUSH1 0x1 PUSH1 0xA0 SHL SUB NOT AND SWAP2 SWAP1 SWAP2 OR SWAP1 SSTORE PUSH1 0x40 MLOAD PUSH2 0xB5A SWAP1 DUP2 PUSH2 0x90 DUP3 CODECOPY RETURN JUMPDEST PUSH1 0x0 DUP1 REVERT JUMPDEST PUSH4 0x4E487B71 PUSH1 0xE0 SHL PUSH1 0x0 MSTORE PUSH1 0x41 PUSH1 0x4 MSTORE PUSH1 0x24 PUSH1 0x0 REVERT INVALID PUSH1 0x80 PUSH1 0x40 SWAP1 DUP1 DUP3 MSTORE PUSH1 0x4 SWAP1 DUP2 CALLDATASIZE LT ISZERO PUSH2 0x17 JUMPI PUSH1 0x0 DUP1 REVERT JUMPDEST PUSH1 0x0 SWAP2 PUSH1 0xE0 DUP4 CALLDATALOAD DUP2 SHR SWAP3 DUP4 PUSH4 0x12FC85E EQ PUSH2 0x830 JUMPI POP DUP3 PUSH4 0x5760181 EQ PUSH2 0x7DA JUMPI DUP3 PUSH4 0x5217EA29 EQ PUSH2 0x30C JUMPI DUP3 PUSH4 0x606D2E96 EQ PUSH2 0x278 JUMPI DUP3 PUSH4 0x6DD0CE7A EQ PUSH2 0x14F JUMPI POP POP DUP1 PUSH4 0x9711DC38 EQ PUSH2 0x123 JUMPI PUSH4 0xF5DBBAED EQ PUSH2 0x75 JUMPI PUSH1 0x0 DUP1 REVERT JUMPDEST CALLVALUE PUSH2 0x120 JUMPI PUSH1 0x20 SWAP1 DUP2 PUSH1 0x3 NOT CALLDATASIZE ADD SLT PUSH2 0x120 JUMPI DUP3 SWAP1 PUSH1 0x1 PUSH1 0x1 PUSH1 0xA0 SHL SUB PUSH2 0x9A PUSH2 0xA10 JUMP JUMPDEST AND DUP2 MSTORE PUSH1 0x2 DUP4 MSTORE DUP2 DUP2 KECCAK256 SWAP1 DUP3 MLOAD DUP1 DUP6 DUP5 SLOAD SWAP2 DUP3 DUP2 MSTORE ADD SWAP1 DUP2 SWAP5 DUP5 MSTORE DUP7 DUP5 KECCAK256 SWAP1 DUP5 JUMPDEST DUP2 DUP2 LT PUSH2 0x10C JUMPI POP POP POP DUP2 PUSH2 0xD1 SWAP2 SUB DUP3 PUSH2 0xA8C JUMP JUMPDEST DUP4 MLOAD SWAP5 DUP6 SWAP5 DUP2 DUP7 ADD SWAP3 DUP3 DUP8 MSTORE MLOAD DUP1 SWAP4 MSTORE DUP6 ADD SWAP4 SWAP3 JUMPDEST DUP3 DUP2 LT PUSH2 0xF5 JUMPI POP POP POP POP SUB SWAP1 RETURN JUMPDEST DUP4 MLOAD DUP6 MSTORE DUP7 SWAP6 POP SWAP4 DUP2 ADD SWAP4 SWAP3 DUP2 ADD SWAP3 PUSH1 0x1 ADD PUSH2 0xE6 JUMP JUMPDEST DUP3 SLOAD DUP5 MSTORE SWAP3 DUP9 ADD SWAP3 PUSH1 0x1 SWAP3 DUP4 ADD SWAP3 ADD PUSH2 0xBB JUMP JUMPDEST DUP1 REVERT JUMPDEST POP SWAP1 CALLVALUE PUSH2 0x14B JUMPI DUP2 PUSH1 0x3 NOT CALLDATASIZE ADD SLT PUSH2 0x14B JUMPI SWAP1 SLOAD SWAP1 MLOAD PUSH1 0x1 PUSH1 0x1 PUSH1 0xA0 SHL SUB SWAP1 SWAP2 AND DUP2 MSTORE PUSH1 0x20 SWAP1 RETURN JUMPDEST POP DUP1 REVERT JUMPDEST SWAP1 SWAP2 POP CALLVALUE PUSH2 0x274 JUMPI PUSH1 0x20 CALLDATASIZE PUSH1 0x3 NOT ADD SLT PUSH2 0x274 JUMPI DUP1 DUP5 DUP1 MLOAD SWAP5 PUSH2 0x171 DUP7 PUSH2 0xA59 JUMP JUMPDEST DUP1 DUP7 MSTORE DUP1 PUSH1 0x20 DUP8 ADD MSTORE DUP1 DUP3 DUP8 ADD MSTORE DUP1 PUSH1 0x60 DUP8 ADD MSTORE DUP1 PUSH1 0x80 DUP8 ADD MSTORE DUP1 PUSH1 0xA0 DUP8 ADD MSTORE DUP1 PUSH1 0xC0 DUP8 ADD MSTORE DUP1 DUP4 DUP8 ADD MSTORE DUP1 PUSH2 0x100 DUP1 SWAP8 ADD MSTORE DUP5 CALLDATALOAD DUP2 MSTORE PUSH1 0x1 PUSH1 0x20 MSTORE KECCAK256 SWAP3 DUP6 MLOAD DUP1 SWAP5 PUSH2 0x1BC DUP3 PUSH2 0xA59 JUMP JUMPDEST DUP1 SLOAD DUP1 DUP4 MSTORE PUSH1 0x1 PUSH1 0xA0 SHL PUSH1 0x1 SWAP1 SUB DUP1 SWAP5 DUP2 PUSH1 0x1 DUP6 ADD SLOAD AND SWAP11 PUSH1 0x20 DUP7 ADD SWAP12 DUP13 MSTORE PUSH1 0x2 DUP6 ADD SLOAD DUP2 DUP8 ADD SWAP1 DUP2 MSTORE DUP4 PUSH1 0x3 DUP8 ADD SLOAD AND SWAP3 PUSH1 0x60 DUP9 ADD SWAP4 DUP5 MSTORE DUP7 ADD SLOAD SWAP5 PUSH1 0x80 DUP9 ADD SWAP6 DUP7 MSTORE DUP13 PUSH1 0x5 DUP9 ADD SLOAD SWAP8 PUSH1 0xA0 DUP11 ADD SWAP9 DUP10 MSTORE PUSH1 0x6 DUP2 ADD SLOAD SWAP12 DUP11 DUP9 PUSH1 0xC0 DUP16 SWAP14 ADD SWAP13 AND DUP13 MSTORE ADD SWAP12 PUSH1 0xA0 SHR PUSH1 0xFF AND ISZERO ISZERO DUP13 MSTORE PUSH1 0x7 ADD SLOAD SWAP13 ADD SWAP12 DUP13 MSTORE DUP5 DUP4 MLOAD SWAP15 DUP16 SWAP3 DUP4 MSTORE MLOAD AND SWAP1 PUSH1 0x20 ADD MSTORE MLOAD SWAP1 DUP13 ADD MSTORE MLOAD AND PUSH1 0x60 DUP11 ADD MSTORE MLOAD PUSH1 0x80 DUP10 ADD MSTORE MLOAD PUSH1 0xA0 DUP9 ADD MSTORE MLOAD AND PUSH1 0xC0 DUP7 ADD MSTORE MLOAD ISZERO ISZERO SWAP1 DUP5 ADD MSTORE MLOAD SWAP1 DUP3 ADD MSTORE PUSH2 0x120 SWAP1 RETURN JUMPDEST DUP3 DUP1 REVERT JUMPDEST DUP5 SWAP3 POP CALLVALUE PUSH2 0x308 JUMPI PUSH1 0x20 CALLDATASIZE PUSH1 0x3 NOT ADD SLT PUSH2 0x308 JUMPI PUSH1 0xFF DUP4 PUSH2 0x120 SWAP6 DUP5 CALLDATALOAD DUP2 MSTORE PUSH1 0x1 PUSH1 0x20 MSTORE KECCAK256 DUP1 SLOAD SWAP5 PUSH1 0x1 DUP1 PUSH1 0xA0 SHL SUB SWAP1 DUP2 PUSH1 0x1 DUP5 ADD SLOAD AND SWAP6 PUSH1 0x2 DUP5 ADD SLOAD SWAP1 DUP4 PUSH1 0x3 DUP7 ADD SLOAD AND SWAP1 DUP6 ADD SLOAD SWAP2 PUSH1 0x5 DUP7 ADD SLOAD SWAP4 PUSH1 0x7 PUSH1 0x6 DUP9 ADD SLOAD SWAP8 ADD SLOAD SWAP10 DUP2 MLOAD SWAP12 DUP13 MSTORE PUSH1 0x20 DUP13 ADD MSTORE DUP11 ADD MSTORE PUSH1 0x60 DUP10 ADD MSTORE PUSH1 0x80 DUP9 ADD MSTORE PUSH1 0xA0 DUP8 ADD MSTORE DUP2 AND PUSH1 0xC0 DUP7 ADD MSTORE PUSH1 0xA0 SHR AND ISZERO ISZERO SWAP1 DUP4 ADD MSTORE PUSH2 0x100 DUP3 ADD MSTORE RETURN JUMPDEST DUP4 DUP1 REVERT JUMPDEST SWAP4 SWAP2 POP CALLVALUE PUSH2 0x274 JUMPI DUP2 PUSH1 0x3 NOT CALLDATASIZE ADD SLT PUSH2 0x274 JUMPI DUP1 CALLDATALOAD SWAP1 PUSH1 0x24 SWAP4 DUP5 CALLDATALOAD SWAP2 PUSH1 0x1 DUP1 PUSH1 0xA0 SHL SUB SWAP1 DUP2 DUP4 SLOAD AND SWAP8 DUP7 MLOAD SWAP9 PUSH4 0x31A9108F PUSH1 0xE1 SHL DUP1 DUP12 MSTORE DUP8 DUP5 DUP13 ADD MSTORE PUSH1 0x20 SWAP11 DUP12 DUP2 DUP13 DUP2 DUP7 GAS STATICCALL SWAP1 DUP2 ISZERO PUSH2 0x77F JUMPI DUP8 SWAP2 PUSH2 0x7BD JUMPI JUMPDEST POP DUP6 CALLER SWAP2 AND SUB PUSH2 0x789 JUMPI DUP9 MLOAD PUSH4 0xE0BB933B PUSH1 0xE0 SHL DUP2 MSTORE DUP5 DUP2 ADD DUP9 SWAP1 MSTORE DUP7 DUP2 DUP13 DUP2 DUP7 GAS STATICCALL DUP1 ISZERO PUSH2 0x77F JUMPI DUP8 SWAP1 PUSH2 0x5DD JUMPI JUMPDEST PUSH2 0x1A0 SWAP2 POP ADD MLOAD ISZERO PUSH2 0x59B JUMPI DUP11 SWAP1 DUP11 DUP11 MLOAD DUP1 SWAP5 DUP2 SWAP4 DUP3 MSTORE DUP11 DUP9 DUP4 ADD MSTORE GAS STATICCALL SWAP1 DUP2 ISZERO PUSH2 0x591 JUMPI SWAP1 DUP5 SWAP2 DUP7 SWAP2 PUSH2 0x564 JUMPI JUMPDEST POP AND SWAP3 CALLER DUP5 EQ PUSH2 0x522 JUMPI PUSH1 0x3 SLOAD SWAP9 PUSH1 0x0 NOT DUP11 EQ PUSH2 0x511 JUMPI POP SWAP4 DUP9 SWAP6 SWAP4 DUP7 SWAP4 DUP3 DUP11 SWAP10 SWAP8 SWAP5 DUP7 DUP12 SWAP7 DUP16 PUSH1 0x1 DUP4 ADD PUSH1 0x3 SSTORE DUP9 MLOAD SWAP6 PUSH2 0x3F9 DUP8 PUSH2 0xA59 JUMP JUMPDEST DUP4 DUP8 MSTORE DUP12 DUP14 DUP4 DUP10 ADD CALLER DUP2 MSTORE DUP13 DUP11 ADD SWAP2 DUP3 MSTORE PUSH1 0x60 DUP11 ADD SWAP2 DUP12 DUP4 MSTORE PUSH1 0x80 DUP12 ADD SWAP4 DUP5 MSTORE PUSH1 0xA0 DUP12 ADD SWAP6 TIMESTAMP DUP8 MSTORE PUSH1 0xC0 DUP13 ADD SWAP10 DUP12 DUP12 MSTORE DUP13 ADD SWAP9 DUP12 DUP11 MSTORE PUSH2 0x100 DUP14 ADD SWAP12 DUP1 DUP14 MSTORE MSTORE PUSH1 0x1 SWAP1 MSTORE DUP14 DUP14 KECCAK256 SWAP11 MLOAD DUP12 SSTORE DUP7 PUSH1 0x1 DUP13 ADD SWAP3 MLOAD AND SWAP2 PUSH12 0xFFFFFFFFFFFFFFFFFFFFFFFF PUSH1 0xA0 SHL SWAP3 DUP4 DUP3 SLOAD AND OR SWAP1 SSTORE MLOAD PUSH1 0x2 DUP12 ADD SSTORE DUP6 PUSH1 0x3 DUP12 ADD SWAP3 MLOAD AND SWAP1 DUP3 SLOAD AND OR SWAP1 SSTORE MLOAD SWAP1 DUP8 ADD SSTORE MLOAD PUSH1 0x5 DUP7 ADD SSTORE PUSH1 0x6 DUP6 ADD SWAP3 MLOAD AND DUP3 SLOAD SWAP2 PUSH1 0xFF PUSH1 0xA0 SHL SWAP1 MLOAD ISZERO ISZERO PUSH1 0xA0 SHL AND SWAP2 PUSH11 0xFFFFFFFFFFFFFFFFFFFFFF PUSH1 0xA8 SHL AND OR OR SWAP1 SSTORE MLOAD SWAP1 PUSH1 0x7 ADD SSTORE CALLER DUP3 MSTORE PUSH1 0x2 DUP12 MSTORE DUP4 DUP4 DUP4 KECCAK256 SWAP1 PUSH2 0x4CC SWAP2 PUSH2 0xAEA JUMP JUMPDEST DUP2 MSTORE PUSH1 0x2 DUP11 MSTORE KECCAK256 SWAP1 PUSH2 0x4DD SWAP2 PUSH2 0xAEA JUMP JUMPDEST DUP4 MLOAD SWAP2 DUP3 MSTORE DUP7 DUP3 ADD MSTORE CALLER SWAP3 PUSH32 0x2E1463E8D1391D8DCE100CD457A5E3707257DD4B1F90D3A4C5DCDF8BBECE118D SWAP2 LOG3 MLOAD SWAP1 DUP2 MSTORE RETURN JUMPDEST PUSH4 0x4E487B71 PUSH1 0xE0 SHL DUP7 MSTORE PUSH1 0x11 DUP5 MSTORE DUP6 REVERT JUMPDEST DUP8 MLOAD PUSH3 0x461BCD PUSH1 0xE5 SHL DUP2 MSTORE DUP1 DUP5 ADD DUP12 SWAP1 MSTORE PUSH1 0x1D DUP2 DUP12 ADD MSTORE PUSH32 0x43616E6E6F7420626174746C6520796F7572206F776E20647261676F6E000000 PUSH1 0x44 DUP3 ADD MSTORE PUSH1 0x64 SWAP1 REVERT JUMPDEST PUSH2 0x584 SWAP2 POP DUP12 RETURNDATASIZE DUP14 GT PUSH2 0x58A JUMPI JUMPDEST PUSH2 0x57C DUP2 DUP4 PUSH2 0xA8C JUMP JUMPDEST DUP2 ADD SWAP1 PUSH2 0xAAE JUMP JUMPDEST CODESIZE PUSH2 0x3BF JUMP JUMPDEST POP RETURNDATASIZE PUSH2 0x572 JUMP JUMPDEST DUP9 MLOAD RETURNDATASIZE DUP8 DUP3 RETURNDATACOPY RETURNDATASIZE SWAP1 REVERT JUMPDEST DUP9 MLOAD PUSH3 0x461BCD PUSH1 0xE5 SHL DUP2 MSTORE DUP1 DUP6 ADD DUP13 SWAP1 MSTORE PUSH1 0x1E DUP2 DUP13 ADD MSTORE PUSH32 0x4F70706F6E656E7420647261676F6E206E6F74206F6E207374616E6462790000 PUSH1 0x44 DUP3 ADD MSTORE PUSH1 0x64 SWAP1 REVERT JUMPDEST POP RETURNDATASIZE DUP1 DUP9 DUP4 RETURNDATACOPY PUSH2 0x5ED DUP2 DUP4 PUSH2 0xA8C JUMP JUMPDEST DUP2 ADD SWAP1 DUP13 DUP2 DUP4 SUB SLT PUSH2 0x77B JUMPI DUP1 MLOAD PUSH8 0xFFFFFFFFFFFFFFFF SWAP2 DUP3 DUP3 GT PUSH2 0x777 JUMPI ADD SWAP1 PUSH2 0x1C0 SWAP3 DUP4 DUP4 DUP3 SUB SLT PUSH2 0x777 JUMPI DUP13 MLOAD SWAP4 DUP5 ADD DUP5 DUP2 LT DUP4 DUP3 GT OR PUSH2 0x765 JUMPI DUP14 MSTORE DUP3 MLOAD DUP5 MSTORE DUP3 DUP16 ADD MLOAD DUP3 DUP2 GT PUSH2 0x761 JUMPI DUP4 ADD SWAP1 DUP1 PUSH1 0x1F DUP4 ADD SLT ISZERO PUSH2 0x761 JUMPI DUP2 MLOAD SWAP3 DUP4 GT PUSH2 0x765 JUMPI SWAP1 DUP16 SWAP3 SWAP2 DUP15 MLOAD SWAP4 PUSH2 0x66D DUP2 PUSH1 0x1F NOT PUSH1 0x1F DUP8 ADD AND ADD DUP7 PUSH2 0xA8C JUMP JUMPDEST DUP4 DUP6 MSTORE DUP4 DUP4 ADD ADD GT PUSH2 0x761 JUMPI DUP16 SWAP1 SWAP2 DUP12 SWAP3 DUP4 JUMPDEST DUP3 DUP2 LT PUSH2 0x74B JUMPI POP POP DUP4 ADD ADD MSTORE DUP14 DUP4 ADD MSTORE PUSH2 0x69C DUP12 DUP3 ADD PUSH2 0xACD JUMP JUMPDEST DUP12 DUP4 ADD MSTORE PUSH2 0x6AC PUSH1 0x60 DUP3 ADD PUSH2 0xACD JUMP JUMPDEST PUSH1 0x60 DUP4 ADD MSTORE PUSH2 0x6BD PUSH1 0x80 DUP3 ADD PUSH2 0xADB JUMP JUMPDEST PUSH1 0x80 DUP4 ADD MSTORE PUSH2 0x6CE PUSH1 0xA0 DUP3 ADD PUSH2 0xADB JUMP JUMPDEST PUSH1 0xA0 DUP4 ADD MSTORE PUSH2 0x6DF PUSH1 0xC0 DUP3 ADD PUSH2 0xADB JUMP JUMPDEST PUSH1 0xC0 DUP4 ADD MSTORE PUSH2 0x6EF DUP6 DUP3 ADD PUSH2 0xACD JUMP JUMPDEST DUP6 DUP4 ADD MSTORE PUSH2 0x100 DUP1 DUP3 ADD MLOAD SWAP1 DUP4 ADD MSTORE PUSH2 0x120 DUP1 DUP3 ADD MLOAD SWAP1 DUP4 ADD MSTORE PUSH2 0x140 DUP1 DUP3 ADD MLOAD SWAP1 DUP4 ADD MSTORE PUSH2 0x160 DUP1 DUP3 ADD MLOAD SWAP1 DUP4 ADD MSTORE PUSH2 0x180 DUP1 DUP3 ADD MLOAD SWAP1 DUP4 ADD MSTORE PUSH2 0x1A0 DUP1 SWAP2 ADD MLOAD SWAP1 DUP2 ISZERO ISZERO DUP3 SUB PUSH2 0x747 JUMPI DUP3 ADD MSTORE PUSH2 0x1A0 SWAP1 PUSH2 0x390 JUMP JUMPDEST DUP9 DUP1 REVERT JUMPDEST DUP2 DUP2 ADD DUP5 ADD MLOAD DUP7 DUP3 ADD DUP6 ADD MSTORE DUP14 SWAP5 POP DUP4 ADD PUSH2 0x680 JUMP JUMPDEST DUP11 DUP1 REVERT JUMPDEST PUSH4 0x4E487B71 PUSH1 0xE0 SHL DUP12 MSTORE PUSH1 0x41 DUP10 MSTORE DUP15 DUP12 REVERT JUMPDEST DUP10 DUP1 REVERT JUMPDEST DUP8 DUP1 REVERT JUMPDEST DUP11 MLOAD RETURNDATASIZE DUP10 DUP3 RETURNDATACOPY RETURNDATASIZE SWAP1 REVERT JUMPDEST DUP9 MLOAD PUSH3 0x461BCD PUSH1 0xE5 SHL DUP2 MSTORE DUP1 DUP6 ADD DUP13 SWAP1 MSTORE PUSH1 0xF DUP2 DUP13 ADD MSTORE PUSH15 0x2737BA103CB7BAB910323930B3B7B7 PUSH1 0x89 SHL PUSH1 0x44 DUP3 ADD MSTORE PUSH1 0x64 SWAP1 REVERT JUMPDEST PUSH2 0x7D4 SWAP2 POP DUP13 DUP14 RETURNDATASIZE LT PUSH2 0x58A JUMPI PUSH2 0x57C DUP2 DUP4 PUSH2 0xA8C JUMP JUMPDEST CODESIZE PUSH2 0x360 JUMP JUMPDEST DUP4 DUP6 CALLVALUE PUSH2 0x14B JUMPI DUP1 PUSH1 0x3 NOT CALLDATASIZE ADD SLT PUSH2 0x14B JUMPI PUSH2 0x7F4 PUSH2 0xA10 JUMP JUMPDEST PUSH1 0x1 PUSH1 0x1 PUSH1 0xA0 SHL SUB AND DUP3 MSTORE PUSH1 0x2 PUSH1 0x20 MSTORE DUP1 DUP3 KECCAK256 DUP1 SLOAD PUSH1 0x24 CALLDATALOAD SWAP4 SWAP1 DUP5 LT ISZERO PUSH2 0x120 JUMPI POP PUSH1 0x20 SWAP3 PUSH2 0x822 SWAP2 PUSH2 0xA2B JUMP JUMPDEST SWAP2 SWAP1 SLOAD SWAP1 MLOAD SWAP2 PUSH1 0x3 SHL SHR DUP2 MSTORE RETURN JUMPDEST DUP6 DUP4 DUP7 SWAP3 CALLVALUE PUSH2 0x308 JUMPI PUSH1 0x60 CALLDATASIZE PUSH1 0x3 NOT ADD SLT PUSH2 0x308 JUMPI PUSH1 0x1 PUSH1 0x1 PUSH1 0xA0 SHL SUB PUSH1 0x24 CALLDATALOAD DUP2 DUP2 AND SWAP5 DUP5 CALLDATALOAD SWAP5 SWAP1 SWAP2 DUP7 SWAP1 SUB PUSH2 0xA0C JUMPI PUSH1 0x44 CALLDATALOAD SWAP3 DUP6 DUP9 MSTORE PUSH1 0x20 SWAP5 PUSH1 0x1 DUP7 MSTORE DUP4 DUP10 KECCAK256 SWAP3 PUSH1 0x6 DUP5 ADD SWAP3 DUP4 SLOAD SWAP3 PUSH1 0xFF DUP5 PUSH1 0xA0 SHR AND PUSH2 0x9CB JUMPI POP DUP1 PUSH1 0x1 DUP7 ADD SLOAD AND DUP1 CALLER EQ DUP1 ISZERO PUSH2 0x9BC JUMPI JUMPDEST ISZERO PUSH2 0x987 JUMPI DUP11 EQ SWAP1 DUP2 ISZERO PUSH2 0x977 JUMPI JUMPDEST POP ISZERO PUSH2 0x943 JUMPI DUP6 ISZERO ISZERO DUP1 PUSH2 0x938 JUMPI JUMPDEST ISZERO PUSH2 0x900 JUMPI POP PUSH1 0x1 PUSH1 0x1 PUSH1 0xA8 SHL SUB NOT AND DUP8 OR PUSH1 0x1 PUSH1 0xA0 SHL OR SWAP1 SSTORE PUSH1 0x7 ADD DUP3 SWAP1 SSTORE MLOAD SWAP1 DUP2 MSTORE PUSH32 0x5F6E525271D68D47B9049B49A4ED50E63D6E24B56B74FC5D8D595818FCDFA023 SWAP2 SWAP1 LOG3 DUP1 RETURN JUMPDEST DUP5 MLOAD PUSH3 0x461BCD PUSH1 0xE5 SHL DUP2 MSTORE SWAP1 DUP2 ADD DUP8 SWAP1 MSTORE PUSH1 0x12 PUSH1 0x24 DUP3 ADD MSTORE PUSH18 0x125B9D985B1A5908195E1C08185B5BDD5B9D PUSH1 0x72 SHL PUSH1 0x44 DUP3 ADD MSTORE PUSH1 0x64 SWAP1 REVERT JUMPDEST POP PUSH1 0xC8 DUP7 GT ISZERO PUSH2 0x8B5 JUMP JUMPDEST DUP5 MLOAD PUSH3 0x461BCD PUSH1 0xE5 SHL DUP2 MSTORE SWAP1 DUP2 ADD DUP8 SWAP1 MSTORE PUSH1 0xE PUSH1 0x24 DUP3 ADD MSTORE PUSH14 0x24B73B30B634B2103BB4B73732B9 PUSH1 0x91 SHL PUSH1 0x44 DUP3 ADD MSTORE PUSH1 0x64 SWAP1 REVERT JUMPDEST SWAP1 POP PUSH1 0x3 DUP6 ADD SLOAD AND DUP10 EQ DUP12 PUSH2 0x8A6 JUMP JUMPDEST DUP7 MLOAD PUSH3 0x461BCD PUSH1 0xE5 SHL DUP2 MSTORE DUP1 DUP5 ADD DUP11 SWAP1 MSTORE PUSH1 0xF PUSH1 0x24 DUP3 ADD MSTORE PUSH15 0x139BDD081C185C9D1A58DA5C185B9D PUSH1 0x8A SHL PUSH1 0x44 DUP3 ADD MSTORE PUSH1 0x64 SWAP1 REVERT JUMPDEST POP DUP2 PUSH1 0x3 DUP8 ADD SLOAD AND CALLER EQ PUSH2 0x897 JUMP JUMPDEST PUSH3 0x461BCD PUSH1 0xE5 SHL DUP2 MSTORE DUP3 DUP2 ADD DUP10 SWAP1 MSTORE PUSH1 0x18 PUSH1 0x24 DUP3 ADD MSTORE PUSH32 0x426174746C6520616C726561647920636F6D706C657465640000000000000000 PUSH1 0x44 DUP3 ADD MSTORE PUSH1 0x64 SWAP1 REVERT JUMPDEST DUP7 DUP1 REVERT JUMPDEST PUSH1 0x4 CALLDATALOAD SWAP1 PUSH1 0x1 PUSH1 0x1 PUSH1 0xA0 SHL SUB DUP3 AND DUP3 SUB PUSH2 0xA26 JUMPI JUMP JUMPDEST PUSH1 0x0 DUP1 REVERT JUMPDEST DUP1 SLOAD DUP3 LT ISZERO PUSH2 0xA43 JUMPI PUSH1 0x0 MSTORE PUSH1 0x20 PUSH1 0x0 KECCAK256 ADD SWAP1 PUSH1 0x0 SWAP1 JUMP JUMPDEST PUSH4 0x4E487B71 PUSH1 0xE0 SHL PUSH1 0x0 MSTORE PUSH1 0x32 PUSH1 0x4 MSTORE PUSH1 0x24 PUSH1 0x0 REVERT JUMPDEST PUSH2 0x120 DUP2 ADD SWAP1 DUP2 LT PUSH8 0xFFFFFFFFFFFFFFFF DUP3 GT OR PUSH2 0xA76 JUMPI PUSH1 0x40 MSTORE JUMP JUMPDEST PUSH4 0x4E487B71 PUSH1 0xE0 SHL PUSH1 0x0 MSTORE PUSH1 0x41 PUSH1 0x4 MSTORE PUSH1 0x24 PUSH1 0x0 REVERT JUMPDEST SWAP1 PUSH1 0x1F DUP1 NOT SWAP2 ADD AND DUP2 ADD SWAP1 DUP2 LT PUSH8 0xFFFFFFFFFFFFFFFF DUP3 GT OR PUSH2 0xA76 JUMPI PUSH1 0x40 MSTORE JUMP JUMPDEST SWAP1 DUP2 PUSH1 0x20 SWAP2 SUB SLT PUSH2 0xA26 JUMPI MLOAD PUSH1 0x1 PUSH1 0x1 PUSH1 0xA0 SHL SUB DUP2 AND DUP2 SUB PUSH2 0xA26 JUMPI SWAP1 JUMP JUMPDEST MLOAD SWAP1 PUSH1 0xFF DUP3 AND DUP3 SUB PUSH2 0xA26 JUMPI JUMP JUMPDEST MLOAD SWAP1 PUSH2 0xFFFF DUP3 AND DUP3 SUB PUSH2 0xA26 JUMPI JUMP JUMPDEST DUP1 SLOAD PUSH9 0x10000000000000000 DUP2 LT ISZERO PUSH2 0xA76 JUMPI PUSH2 0xB0C SWAP2 PUSH1 0x1 DUP3 ADD DUP2 SSTORE PUSH2 0xA2B JUMP JUMPDEST DUP2 SWAP3 SWAP2 SLOAD SWAP1 PUSH1 0x3 SHL SWAP2 DUP3 SHL SWAP2 PUSH1 0x0 NOT SWAP1 SHL NOT AND OR SWAP1 SSTORE JUMP INVALID LOG2 PUSH5 0x6970667358 0x22 SLT KECCAK256 EXP LOG3 GAS EXTCODESIZE PUSH13 0xECA4CA9D3059719E19A974AD79 SHR DUP16 SLOAD AND ORIGIN 0xB3 PUSH11 0x842A2C3758484B64736F6C PUSH4 0x43000814 STOP CALLER "},"methodIdentifiers":{"battles(uint256)":"606d2e96","dragonContract()":"9711dc38","getBattle(uint256)":"6dd0ce7a","getUserBattles(address)":"f5dbbaed","initiateBattle(uint256,uint256)":"5217ea29","submitBattleResult(uint256,address,uint256)":"012fc85e","userBattles(address,uint256)":"05760181"}}}}}