{"contracts/DragonMarketplace.sol":{"DragonMarketplace":{"abi":[{"inputs":[{"internalType":"address","name":"_dragonNFT","type":"address"}],"stateMutability":"nonpayable","type":"constructor"},{"inputs":[{"internalType":"address","name":"owner","type":"address"}],"name":"OwnableInvalidOwner","type":"error"},{"inputs":[{"internalType":"address","name":"account","type":"address"}],"name":"OwnableUnauthorizedAccount","type":"error"},{"inputs":[],"name":"ReentrancyGuardReentrantCall","type":"error"},{"anonymous":false,"inputs":[{"indexed":true,"internalType":"uint256","name":"dragonId","type":"uint256"},{"indexed":true,"internalType":"address","name":"seller","type":"address"},{"indexed":false,"internalType":"uint256","name":"price","type":"uint256"}],"name":"DragonListed","type":"event"},{"anonymous":false,"inputs":[{"indexed":true,"internalType":"uint256","name":"dragonId","type":"uint256"},{"indexed":true,"internalType":"address","name":"seller","type":"address"},{"indexed":true,"internalType":"address","name":"buyer","type":"address"},{"indexed":false,"internalType":"uint256","name":"price","type":"uint256"}],"name":"DragonSold","type":"event"},{"anonymous":false,"inputs":[{"indexed":true,"internalType":"uint256","name":"element","type":"uint256"},{"indexed":true,"internalType":"uint256","name":"rarity","type":"uint256"},{"indexed":false,"internalType":"uint256","name":"newFloor","type":"uint256"}],"name":"FloorPriceUpdated","type":"event"},{"anonymous":false,"inputs":[{"indexed":true,"internalType":"uint256","name":"dragonId","type":"uint256"},{"indexed":true,"internalType":"address","name":"seller","type":"address"}],"name":"ListingCancelled","type":"event"},{"anonymous":false,"inputs":[{"indexed":true,"internalType":"address","name":"previousOwner","type":"address"},{"indexed":true,"internalType":"address","name":"newOwner","type":"address"}],"name":"OwnershipTransferred","type":"event"},{"anonymous":false,"inputs":[{"indexed":true,"internalType":"uint256","name":"offerId","type":"uint256"},{"indexed":true,"internalType":"address","name":"seller","type":"address"},{"indexed":true,"internalType":"address","name":"buyer","type":"address"}],"name":"TradeOfferAccepted","type":"event"},{"anonymous":false,"inputs":[{"indexed":true,"internalType":"uint256","name":"offerId","type":"uint256"}],"name":"TradeOfferCancelled","type":"event"},{"anonymous":false,"inputs":[{"indexed":true,"internalType":"uint256","name":"offerId","type":"uint256"},{"indexed":false,"internalType":"address","name":"offerer","type":"address"},{"indexed":false,"internalType":"uint256","name":"offeredDragon","type":"uint256"},{"indexed":false,"internalType":"uint256","name":"targetDragon","type":"uint256"},{"indexed":false,"internalType":"uint256","name":"ethDifference","type":"uint256"}],"name":"TradeOfferCreated","type":"event"},{"inputs":[],"name":"FEE_DENOMINATOR","outputs":[{"internalType":"uint256","name":"","type":"uint256"}],"stateMutability":"view","type":"function"},{"inputs":[{"internalType":"uint256","name":"offerId","type":"uint256"}],"name":"acceptTradeOffer","outputs":[],"stateMutability":"nonpayable","type":"function"},{"inputs":[{"internalType":"uint256","name":"","type":"uint256"}],"name":"activeListings","outputs":[{"internalType":"uint256","name":"","type":"uint256"}],"stateMutability":"view","type":"function"},{"inputs":[{"internalType":"uint256","name":"dragonId","type":"uint256"}],"name":"buyDragon","outputs":[],"stateMutability":"payable","type":"function"},{"inputs":[{"internalType":"uint256","name":"element","type":"uint256"},{"internalType":"uint256","name":"rarity","type":"uint256"}],"name":"calculateFloorPrice","outputs":[{"internalType":"uint256","name":"","type":"uint256"}],"stateMutability":"view","type":"function"},{"inputs":[{"internalType":"uint256","name":"dragonId","type":"uint256"}],"name":"cancelListing","outputs":[],"stateMutability":"nonpayable","type":"function"},{"inputs":[{"internalType":"uint256","name":"offerId","type":"uint256"}],"name":"cancelTradeOffer","outputs":[],"stateMutability":"nonpayable","type":"function"},{"inputs":[{"internalType":"uint256","name":"offeredDragonId","type":"uint256"},{"internalType":"uint256","name":"targetDragonId","type":"uint256"},{"internalType":"address","name":"targetOwner","type":"address"},{"internalType":"uint256","name":"offeredElement","type":"uint256"},{"internalType":"uint256","name":"offeredRarity","type":"uint256"},{"internalType":"uint256","name":"targetElement","type":"uint256"},{"internalType":"uint256","name":"targetRarity","type":"uint256"}],"name":"createTradeOffer","outputs":[{"internalType":"uint256","name":"","type":"uint256"}],"stateMutability":"payable","type":"function"},{"inputs":[],"name":"dragonNFT","outputs":[{"internalType":"contract IERC721","name":"","type":"address"}],"stateMutability":"view","type":"function"},{"inputs":[{"internalType":"uint256","name":"","type":"uint256"},{"internalType":"uint256","name":"","type":"uint256"}],"name":"dragonTradeOffers","outputs":[{"internalType":"uint256","name":"","type":"uint256"}],"stateMutability":"view","type":"function"},{"inputs":[{"internalType":"uint256","name":"","type":"uint256"},{"internalType":"uint256","name":"","type":"uint256"}],"name":"floorPrices","outputs":[{"internalType":"uint256","name":"element","type":"uint256"},{"internalType":"uint256","name":"rarity","type":"uint256"},{"internalType":"uint256","name":"floorPrice","type":"uint256"},{"internalType":"uint256","name":"lastUpdated","type":"uint256"}],"stateMutability":"view","type":"function"},{"inputs":[],"name":"getActiveListings","outputs":[{"components":[{"internalType":"uint256","name":"dragonId","type":"uint256"},{"internalType":"address","name":"seller","type":"address"},{"internalType":"uint256","name":"price","type":"uint256"},{"internalType":"bool","name":"isActive","type":"bool"},{"internalType":"uint256","name":"listedAt","type":"uint256"}],"internalType":"struct DragonMarketplace.Listing[]","name":"","type":"tuple[]"}],"stateMutability":"view","type":"function"},{"inputs":[{"internalType":"uint256","name":"dragonId","type":"uint256"}],"name":"getTradeOffersForDragon","outputs":[{"internalType":"uint256[]","name":"","type":"uint256[]"}],"stateMutability":"view","type":"function"},{"inputs":[{"internalType":"uint256","name":"dragonId","type":"uint256"},{"internalType":"uint256","name":"price","type":"uint256"}],"name":"listDragon","outputs":[],"stateMutability":"nonpayable","type":"function"},{"inputs":[{"internalType":"uint256","name":"","type":"uint256"}],"name":"listings","outputs":[{"internalType":"uint256","name":"dragonId","type":"uint256"},{"internalType":"address","name":"seller","type":"address"},{"internalType":"uint256","name":"price","type":"uint256"},{"internalType":"bool","name":"isActive","type":"bool"},{"internalType":"uint256","name":"listedAt","type":"uint256"}],"stateMutability":"view","type":"function"},{"inputs":[],"name":"marketplaceFee","outputs":[{"internalType":"uint256","name":"","type":"uint256"}],"stateMutability":"view","type":"function"},{"inputs":[],"name":"owner","outputs":[{"internalType":"address","name":"","type":"address"}],"stateMutability":"view","type":"function"},{"inputs":[],"name":"renounceOwnership","outputs":[],"stateMutability":"nonpayable","type":"function"},{"inputs":[{"internalType":"uint256","name":"","type":"uint256"}],"name":"salesHistory","outputs":[{"internalType":"uint256","name":"dragonId","type":"uint256"},{"internalType":"uint256","name":"price","type":"uint256"},{"internalType":"uint256","name":"timestamp","type":"uint256"},{"internalType":"uint256","name":"element","type":"uint256"},{"internalType":"uint256","name":"rarity","type":"uint256"}],"stateMutability":"view","type":"function"},{"inputs":[{"internalType":"uint256","name":"newFee","type":"uint256"}],"name":"setMarketplaceFee","outputs":[],"stateMutability":"nonpayable","type":"function"},{"inputs":[{"internalType":"uint256","name":"newFee","type":"uint256"}],"name":"setTradeInFee","outputs":[],"stateMutability":"nonpayable","type":"function"},{"inputs":[],"name":"tradeInFee","outputs":[{"internalType":"uint256","name":"","type":"uint256"}],"stateMutability":"view","type":"function"},{"inputs":[{"internalType":"uint256","name":"","type":"uint256"}],"name":"tradeOffers","outputs":[{"internalType":"uint256","name":"offerId","type":"uint256"},{"internalType":"address","name":"offerer","type":"address"},{"internalType":"uint256","name":"offeredDragonId","type":"uint256"},{"internalType":"address","name":"target","type":"address"},{"internalType":"uint256","name":"targetDragonId","type":"uint256"},{"internalType":"uint256","name":"ethDifference","type":"uint256"},{"internalType":"bool","name":"isActive","type":"bool"},{"internalType":"uint256","name":"createdAt","type":"uint256"},{"internalType":"uint256","name":"expiresAt","type":"uint256"}],"stateMutability":"view","type":"function"},{"inputs":[{"internalType":"address","name":"newOwner","type":"address"}],"name":"transferOwnership","outputs":[],"stateMutability":"nonpayable","type":"function"},{"inputs":[{"internalType":"uint256","name":"element","type":"uint256"},{"internalType":"uint256","name":"rarity","type":"uint256"},{"internalType":"uint256","name":"newFloor","type":"uint256"}],"name":"updateFloorPrice","outputs":[],"stateMutability":"nonpayable","type":"function"},{"inputs":[],"name":"withdrawFees","outputs":[],"stateMutability":"nonpayable","type":"function"},{"stateMutability":"payable","type":"receive"}],"evm":{"bytecode":{"linkReferences":{},"object":"6080346200035c57601f6200219b38819003918201601f19168301916001600160401b038311848410176200036157808492604094855283396020938491810103126200035c57516001600160a01b0390818116908190036200035c573315620003445760039293600091825460018060a01b031994338683161785553391167f8be0079c531659141344cd1fd0a4f28419497f9722a3daafe3b4186f6b6457e08580a36001938480556103e886556107d06004556002541617600255818360028380620000cc62000377565b858152818101908582528a8c808301662386f26fc100009485825260608501924284528b805260078852808c208b8d5288528b2094518555518985015551878401555191015584808c84815191858352837f2df3fc9611087e1428b8ced3c9c2ed6653d92b2f351a869bd136cfec04c6f6339d8e809a8196a36200014f62000377565b8481528f8c848301878152848401908a82528560608601934285528a815260078952818120895220945185555188850155518c8401555191015551858152a36200019862000377565b8481528a8c848301888152818401908582526060850192428452898c5260078852808c208b8d5288528b209451855551898501555187840155519101558a51908152a360028484848984868484620001ef62000377565b94838652818601958587528f8282019767016345785d8a0000988981526060840191428352888052600787528589208a8a52875285892094518555518d85015551888401555191015551858152a36200024762000377565b8481528a8c848301888152818401908582526060850192428452898c5260078852808c208b8d5288528b209451855551888501555188840155519101558a51908152a36200029462000377565b90808252828201918683528688820193670de0b6b3a7640000948581526060840191428352858052600788528b862084875288528b862094518555518985015551600284015551910155858185858a51868152a385620002f362000377565b91868352848301828152898401908582528a60608601934285528a815260078952818120868252895220945185555188850155516002840155519101558551908152a351611e039081620003988239f35b8251631e4fbdf760e01b815260006004820152602490fd5b600080fd5b634e487b7160e01b600052604160045260246000fd5b60405190608082016001600160401b03811183821017620003615760405256fe60406080815260048036101561001f575b5050361561001d57600080fd5b005b600091823560e01c806213363c1461194e57806320a564db146118bf578063305a67a8146117a4578063476343ee1461169157806348ff07191461166e57806349bf8b44146116455780635d5b90211461133757806361cf48631461130c57806365357b3d146110855780636a16696414611066578063715018a61461100c57806387c35bc014610dfe5780638d15978714610b765780638da5cb5b14610b4e5780638fa46ac914610a875780639407ea9814610a57578063a0e569ff14610a39578063aa2b2bd9146108ab578063ab265cb11461086a578063b190939e1461083a578063caf6ca01146107eb578063d73792a9146107ce578063de74e57b14610771578063ebcd0e2d14610284578063f16a3207146101df5763f2fde38b146101495750610010565b346101db5760203660031901126101db576001600160a01b038235818116939192908490036101d65761017a611a61565b83156101c0575050600054826001600160601b0360a01b821617600055167f8be0079c531659141344cd1fd0a4f28419497f9722a3daafe3b4186f6b6457e0600080a380f35b51631e4fbdf760e01b8152908101849052602490fd5b600080fd5b8280fd5b509134610281576020918260031936011261027d57929192358152600a8352818120908251808584549182815201908194845286842090845b818110610269575050508161022e910382611ad3565b83519485948186019282875251809352850193925b82811061025257505050500390f35b835185528695509381019392810192600101610243565b825484529288019260019283019201610218565b5080fd5b80fd5b5060e03660031901126101db576001600160a01b0392604480358581169480359360248035939091908890036101d6576102bc611b14565b60025487516331a9108f60e11b80825285820189905260209b928316918c818781865afa90811561076757859161074a575b50833391160361070757895190815286868201528b818681855afa9081156106fd578b9184918e87926106d0575b505016036106965785881461065457606435835260078b5288832060843584528b52600289842001549660a435845260078c5289842060c43585528c5260028a85200154978015158061064b575b1561061357849881811161059e575b505050803b156101db5788516323b872dd60e01b815233868201908152306020820152604081018a90529091849183919082908490829060600103925af1801561059457908391610580575b50506103d2600854611bf3565b988960085562093a8042019081421161056d57895192610120840184811067ffffffffffffffff82111761055957936104b860018f8f8f9998968f8f93978f93916009899c9a8f948f61010060089f8e60e0918a5284815285810199338b528101978852606081019a8b52608081019b8c5260a081019c8d5260c081019d8e52019d8e429052019d8e5252528d8d209b518c558160018d01935116926001600160601b0360a01b93848254161790555160028c015560038b0192511690825416179055518b880155516005870155511515600686019060ff801983541691151516179055565b51600784015551910155848152600a8a522090815492600160401b84101561054657505092608092610513837f71d76c00ffb4f5abbf79f321b52ae2b8885930ce3ffa7552059ad0c70e5da97d9660018b9996018155611a49565b81549060031b9088821b91600019901b191617905586519233845289840152868301526060820152a26001805551908152f35b604190634e487b7160e01b600052526000fd5b86604189634e487b7160e01b600052526000fd5b5050634e487b7160e01b82525060118352fd5b61058990611a8d565b61027d5781386103c5565b89513d85823e3d90fd5b6105c3929950906105ae91611b99565b6127106105bc885483611b70565b0490611be6565b968734106105d2578080610379565b857f496e73756666696369656e742045544820666f72207472616465000000000000606492601a8f89908f519562461bcd60e51b8752860152840152820152fd5b508572119b1bdbdc881c1c9a58d9481b9bdd081cd95d606a1b60649260138f89908f519562461bcd60e51b8752860152840152820152fd5b5088151561036a565b50875162461bcd60e51b81528085018b90526018818501527f43616e6e6f742074726164652073616d6520647261676f6e000000000000000081880152606490fd5b50875162461bcd60e51b81528085018b9052601581850152740a8c2e4cecae840deeedccae440dad2e6dac2e8c6d605b1b81880152606490fd5b6106ef9250803d106106f6575b6106e78183611ad3565b810190611af5565b388e61031c565b503d6106dd565b8a513d86823e3d90fd5b5050875162461bcd60e51b81528085018b9052601b818501527f4e6f74206f776e6572206f66206f66666572656420647261676f6e000000000081880152606490fd5b61076191508d803d106106f6576106e78183611ad3565b386102ee565b8b513d87823e3d90fd5b50346101db5760203660031901126101db578060a09383358152600560205220805492600180861b036001830154169260028301549160ff6003850154169301549381519586526020860152840152151560608301526080820152f35b83823461027d578160031936011261027d57602090516127108152f35b83823461027d57806080926107ff366119fc565b908252600760205282822090825260205220908154916001810154916003600283015492015492815194855260208501528301526060820152f35b50503461027d57602036600319011261027d57803590610858611a61565b610866611388831115611d92565b5580f35b83823461027d5761087a366119fc565b92908152600a602052818120908154841015610281575060209261089d91611a49565b91905490519160031b1c8152f35b5090346101db5760203660031901126101db578035916108c9611b14565b8284526009602052808420600681018054906108e760ff8316611c02565b60018301546001600160a01b03929083163303610a085760ff191690556002805490830154879392909116803b15610a045784516323b872dd60e01b8152308782019081523360208201526040810193909352918491839182908490829060600103925af180156109fa579083916109e6575b50506005015480610993575b50837fc754a4b878552d0fc775d075fea1dc22f51657a9ef39ede106fe10828e7b8caa8280a26001805580f35b81808092335af16109a2611ba6565b50156109af578381610966565b906020606492519162461bcd60e51b83528201526011602482015270115512081c99599d5b990819985a5b1959607a1b6044820152fd5b6109ef90611a8d565b61027d57813861095a565b84513d85823e3d90fd5b8380fd5b845162461bcd60e51b8152602081880152600b60248201526a2737ba1037b33332b932b960a91b6044820152606490fd5b5090346101db57826003193601126101db5760209250549051908152f35b50503461027d57602036600319011261027d5735610a73611a61565b610a816107d0821115611d92565b60035580f35b5090346101db5760603660031901126101db578035906024359260443591610aad611a61565b815190608082019082821067ffffffffffffffff831117610b395750917f2df3fc9611087e1428b8ced3c9c2ed6653d92b2f351a869bd136cfec04c6f6339391602093825285815260038482018881528383018581526060840191428352898c5260078852858c208b8d528852858c20945185555160018501555160028401555191015551908152a380f35b604190634e487b7160e01b6000525260246000fd5b83823461027d578160031936011261027d57905490516001600160a01b039091168152602090f35b508290602090816003193601126101db57833591610b92611b14565b82845260058152818420926003840191825493610bb160ff8616611b37565b600286015494853410610dc45760018060a01b03806001809901541695610be7612710610be06003548b611b70565b0489611b99565b9260ff1916905560025416803b15610dc05782516323b872dd60e01b815230818c019081523360208201526040810187905290918a9183919082908490829060600103925af18015610db657908991610d9e575b5080808093885af1610c4b611ba6565b5015610d6a57843411610d19575b805197610c6589611ab7565b83895282890190868252828a0142815260608b018a815260808c01918a8352600b54600160401b811015610d0657808c610ca29201600b556119ab565b959095610cf4577f921c8b778aa5da00e865fbebd027acf9388620c626df2cd24df3cf3768e96ed898999a9b9c9d518655518c86015551600285015551600384015551910155519485523394a4805580f35b634e487b7160e01b8d528c855260248dfd5b634e487b7160e01b8d526041855260248dfd5b86808080610d278934611b99565b335af1610d32611ba6565b50610c59575162461bcd60e51b815280880191909152600d60248201526c1499599d5b990819985a5b1959609a1b6044820152606490fd5b5162461bcd60e51b815280880191909152600e60248201526d14185e5b595b9d0819985a5b195960921b6044820152606490fd5b610da790611a8d565b610db257878a610c3b565b8780fd5b83513d8b823e3d90fd5b8880fd5b815162461bcd60e51b8152808a018490526014602482015273125b9cdd59999a58da595b9d081c185e5b595b9d60621b6044820152606490fd5b5091903461027d578160031936011261027d576006548291825b828110610fc45750610e2983611c41565b92610e3686519485611ad3565b808452610e45601f1991611c41565b01845b818110610f915750508390845b838110610ecd57505050508251916020808401908085528351809252808686019401925b828110610e865785850386f35b835180518652808301516001600160a01b03168684015287810151888701526060808201511515908701526080908101519086015260a09094019392810192600101610e79565b610ed681611a12565b9054600391821b1c875260059060209180835260ff9081838c8c20015416610f0b575b50505050610f0690611bf3565b610e55565b849692610f8794928792610f21610f0698611a12565b905490841b1c8d5284528c8c20918d5194610f3b86611ab7565b8354865260018401546001600160a01b03169086015260028301548e860152820154161515606084015201546080820152610f768289611c59565b52610f818188611c59565b50611bf3565b9290388080610ef9565b6020908751610f9f81611ab7565b878152828881830152888a830152886060830152886080830152828801015201610e48565b60ff610fcf82611a12565b9054600391821b1c87526005602052878720015416610ff7575b610ff290611bf3565b610e18565b92611004610ff291611bf3565b939050610fe9565b8334610281578060031936011261028157611025611a61565b600080546001600160a01b0319811682556001600160a01b03167f8be0079c531659141344cd1fd0a4f28419497f9722a3daafe3b4186f6b6457e08280a380f35b83823461027d578160031936011261027d576020906003549051908152f35b50346101db57611094366119fc565b92909161109f611b14565b60025481516331a9108f60e11b8152808401859052602093916001600160a01b0391908216908581602481855afa9081156113025789916112e5575b5082339116036112b657861561127f578588526005855260ff6003858a2001541661124b578088913b1561027d5784516323b872dd60e01b815233858201908152306020820152604081018990529091839183919082908490829060600103925af1801561124157611229575b5082906111be85519361115a85611ab7565b888552878501338152878601908b82526060870192600184528960808901964288528d815260058d522097518855600188019151166001600160601b0360a01b825416179055516002860155511515600385019060ff801983541691151516179055565b5191015560065490600160401b821015610b395750906112068260017f8f95eb146180baeccb688c7d9448e2186ec121c1a7891ccb4398434aec159936959401600655611a12565b81549060031b9086821b91600019901b1916179055519384523393a36001805580f35b61123290611a8d565b61123d578638611148565b8680fd5b85513d84823e3d90fd5b835162461bcd60e51b8152808401869052600e60248201526d105b1c9958591e481b1a5cdd195960921b6044820152606490fd5b835162461bcd60e51b8152808401869052601160248201527005072696365206d757374206265203e203607c1b6044820152606490fd5b835162461bcd60e51b815280840186905260096024820152682737ba1037bbb732b960b91b6044820152606490fd5b6112fc9150863d88116106f6576106e78183611ad3565b386110db565b85513d8b823e3d90fd5b5090346101db5760203660031901126101db573591600654831015610281575061089d602092611a12565b50346101db57602080600319360112610a0457823592611355611b14565b8385526009825282852091600683019384549361137460ff8616611c02565b60038101546001600160a01b039690871633036116115760088201544210156115de5786600254169560248587850154988651928380926331a9108f60e11b82528c8c8301525afa9081156115d4578b916115b7575b508833911603611574579089929160ff19169055866002541695600182019688885416813b156115525785516323b872dd60e01b80825233828b019081526001600160a01b039093166020840152604083019490945291859183919082908490829060600103925af1801561156a57908491611556575b50508760025416906002830154823b156115525785519182523088830190815233602082015260408101919091529091849183919082908490829060600103925af180156109fa5790839161153e575b505060050154806114d2575b505050505054169033907f1368b7350e5e5d1defe357e4992c04f76331b806f36fb57436abb2354d5035338480a46001805580f35b81806114ef81936127106114e860035483611b70565b0490611b99565b335af16114fa611ba6565b501561150757868161149d565b5162461bcd60e51b8152918201526013602482015272115512081d1c985b9cd9995c8819985a5b1959606a1b604482015260649150fd5b61154790611a8d565b61027d578138611491565b8480fd5b61155f90611a8d565b6101db578238611441565b85513d86823e3d90fd5b835162461bcd60e51b8152808701869052601760248201527f446f6e2774206f776e2074617267657420647261676f6e0000000000000000006044820152606490fd5b6115ce9150863d88116106f6576106e78183611ad3565b386113ca565b85513d8d823e3d90fd5b50505162461bcd60e51b815291820152600d60248201526c13d999995c88195e1c1a5c9959609a1b604482015260649150fd5b50505162461bcd60e51b815291820152600e60248201526d139bdd081d1a19481d185c99d95d60921b604482015260649150fd5b83823461027d578160031936011261027d5760025490516001600160a01b039091168152602090f35b83823461027d5760209061168a611684366119fc565b90611c6d565b9051908152f35b50346101db57826003193601126101db576116aa611a61565b4783906001600854905b81811115611763575050906116c891611b99565b801561172a57835484918291829182916001600160a01b03165af16116eb611ba6565b50156116f5578280f35b906020606492519162461bcd60e51b8352820152600f60248201526e15da5d1a191c985dc819985a5b1959608a1b6044820152fd5b815162461bcd60e51b815260208185015260136024820152724e6f206665657320746f20776974686472617760681b6044820152606490fd5b808752600960205284872060ff60068201541661178a575b5061178590611bf3565b6116b4565b6117859194600561179d92015490611be6565b939061177b565b5082903461027d57602036600319011261027d578235926117c3611b14565b83835260056020528183206003810180546001926117e360ff8316611b37565b838060a01b03938491015416330361188f5760ff191690556002541690813b15610a045782516323b872dd60e01b815230918101918252336020830152604082018690529291849184919082908490829060600103925af19081156118865750611877575b509033907f8e25282255ab31897df2b0456bb993ac7f84d376861aefd84901d2d63a7428a28380a36001805580f35b61188090611a8d565b82611848565b513d84823e3d90fd5b845162461bcd60e51b8152602081860152600a6024820152692737ba1039b2b63632b960b11b6044820152606490fd5b5090346101db5760203660031901126101db5781610120938235815260096020522080549260018060a01b038060018401541693600284015491600385015416908401549060058501549260ff6006870154169460086007880154970154978151998a5260208a01528801526060870152608086015260a0850152151560c084015260e0830152610100820152f35b50346101db5760203660031901126101db57813592600b54841015610281575061197960a0936119ab565b508054926001820154926002830154916003840154930154938151958652602086015284015260608301526080820152f35b600b548110156119e657600590600b600052027f0175b7a638427703f0dbe7bb9bbf987a2551717b34e79f33b5b1008d1fa01db90190600090565b634e487b7160e01b600052603260045260246000fd5b60409060031901126101d6576004359060243590565b6006548110156119e65760066000527ff652222313e28459528d920b65115c16c04f3efc82aaedc97be59f3f377c0d3f0190600090565b80548210156119e65760005260206000200190600090565b6000546001600160a01b03163303611a7557565b60405163118cdaa760e01b8152336004820152602490fd5b67ffffffffffffffff8111611aa157604052565b634e487b7160e01b600052604160045260246000fd5b60a0810190811067ffffffffffffffff821117611aa157604052565b90601f8019910116810190811067ffffffffffffffff821117611aa157604052565b908160209103126101d657516001600160a01b03811681036101d65790565b600260015414611b25576002600155565b604051633ee5aeb560e01b8152600490fd5b15611b3e57565b60405162461bcd60e51b815260206004820152600a602482015269139bdd081b1a5cdd195960b21b6044820152606490fd5b81810292918115918404141715611b8357565b634e487b7160e01b600052601160045260246000fd5b91908203918211611b8357565b3d15611be1573d9067ffffffffffffffff8211611aa15760405191611bd5601f8201601f191660200184611ad3565b82523d6000602084013e565b606090565b91908201809211611b8357565b6000198114611b835760010190565b15611c0957565b60405162461bcd60e51b815260206004820152601060248201526f4f66666572206e6f742061637469766560801b6044820152606490fd5b67ffffffffffffffff8111611aa15760051b60200190565b80518210156119e65760209160051b010190565b4262093a7f198101939260009283928611611d7e57600b54805b611cc3575b509091928094955015611c9f5750500490565b91509150600052600760205260406000209060005260205260026040600020015490565b6000198101818111611b8357611cd8906119ab565b50608060409189835193611ceb85611ab7565b825485526001830154948560208201526002840154809282015260046003850154948560608401520154948591015210611d7657848691149182611d6c575b5050611d50575b50600a851015611d4b578015611b83576000190180611c87565b611c8c565b611d5f90611d65929695611be6565b93611bf3565b9338611d31565b1490508438611d2a565b505050611c8c565b634e487b7160e01b84526011600452602484fd5b15611d9957565b60405162461bcd60e51b815260206004820152600c60248201526b08ccaca40e8dede40d0d2ced60a31b6044820152606490fdfea26469706673582212205d8f5d4e9954a447e0e9385755d3df944cde4b722786b7cf68c0ff1f1907692b64736f6c63430008140033","opcodes":"PUSH1 0x80 CALLVALUE PUSH3 0x35C JUMPI PUSH1 0x1F PUSH3 0x219B CODESIZE DUP2 SWAP1 SUB SWAP2 DUP3 ADD PUSH1 0x1F NOT AND DUP4 ADD SWAP2 PUSH1 0x1 PUSH1 0x1 PUSH1 0x40 SHL SUB DUP4 GT DUP5 DUP5 LT OR PUSH3 0x361 JUMPI DUP1 DUP5 SWAP3 PUSH1 0x40 SWAP5 DUP6 MSTORE DUP4 CODECOPY PUSH1 0x20 SWAP4 DUP5 SWAP2 DUP2 ADD SUB SLT PUSH3 0x35C JUMPI MLOAD PUSH1 0x1 PUSH1 0x1 PUSH1 0xA0 SHL SUB SWAP1 DUP2 DUP2 AND SWAP1 DUP2 SWAP1 SUB PUSH3 0x35C JUMPI CALLER ISZERO PUSH3 0x344 JUMPI PUSH1 0x3 SWAP3 SWAP4 PUSH1 0x0 SWAP2 DUP3 SLOAD PUSH1 0x1 DUP1 PUSH1 0xA0 SHL SUB NOT SWAP5 CALLER DUP7 DUP4 AND OR DUP6 SSTORE CALLER SWAP2 AND PUSH32 0x8BE0079C531659141344CD1FD0A4F28419497F9722A3DAAFE3B4186F6B6457E0 DUP6 DUP1 LOG3 PUSH1 0x1 SWAP4 DUP5 DUP1 SSTORE PUSH2 0x3E8 DUP7 SSTORE PUSH2 0x7D0 PUSH1 0x4 SSTORE PUSH1 0x2 SLOAD AND OR PUSH1 0x2 SSTORE DUP2 DUP4 PUSH1 0x2 DUP4 DUP1 PUSH3 0xCC PUSH3 0x377 JUMP JUMPDEST DUP6 DUP2 MSTORE DUP2 DUP2 ADD SWAP1 DUP6 DUP3 MSTORE DUP11 DUP13 DUP1 DUP4 ADD PUSH7 0x2386F26FC10000 SWAP5 DUP6 DUP3 MSTORE PUSH1 0x60 DUP6 ADD SWAP3 TIMESTAMP DUP5 MSTORE DUP12 DUP1 MSTORE PUSH1 0x7 DUP9 MSTORE DUP1 DUP13 KECCAK256 DUP12 DUP14 MSTORE DUP9 MSTORE DUP12 KECCAK256 SWAP5 MLOAD DUP6 SSTORE MLOAD DUP10 DUP6 ADD SSTORE MLOAD DUP8 DUP5 ADD SSTORE MLOAD SWAP2 ADD SSTORE DUP5 DUP1 DUP13 DUP5 DUP2 MLOAD SWAP2 DUP6 DUP4 MSTORE DUP4 PUSH32 0x2DF3FC9611087E1428B8CED3C9C2ED6653D92B2F351A869BD136CFEC04C6F633 SWAP14 DUP15 DUP1 SWAP11 DUP2 SWAP7 LOG3 PUSH3 0x14F PUSH3 0x377 JUMP JUMPDEST DUP5 DUP2 MSTORE DUP16 DUP13 DUP5 DUP4 ADD DUP8 DUP2 MSTORE DUP5 DUP5 ADD SWAP1 DUP11 DUP3 MSTORE DUP6 PUSH1 0x60 DUP7 ADD SWAP4 TIMESTAMP DUP6 MSTORE DUP11 DUP2 MSTORE PUSH1 0x7 DUP10 MSTORE DUP2 DUP2 KECCAK256 DUP10 MSTORE KECCAK256 SWAP5 MLOAD DUP6 SSTORE MLOAD DUP9 DUP6 ADD SSTORE MLOAD DUP13 DUP5 ADD SSTORE MLOAD SWAP2 ADD SSTORE MLOAD DUP6 DUP2 MSTORE LOG3 PUSH3 0x198 PUSH3 0x377 JUMP JUMPDEST DUP5 DUP2 MSTORE DUP11 DUP13 DUP5 DUP4 ADD DUP9 DUP2 MSTORE DUP2 DUP5 ADD SWAP1 DUP6 DUP3 MSTORE PUSH1 0x60 DUP6 ADD SWAP3 TIMESTAMP DUP5 MSTORE DUP10 DUP13 MSTORE PUSH1 0x7 DUP9 MSTORE DUP1 DUP13 KECCAK256 DUP12 DUP14 MSTORE DUP9 MSTORE DUP12 KECCAK256 SWAP5 MLOAD DUP6 SSTORE MLOAD DUP10 DUP6 ADD SSTORE MLOAD DUP8 DUP5 ADD SSTORE MLOAD SWAP2 ADD SSTORE DUP11 MLOAD SWAP1 DUP2 MSTORE LOG3 PUSH1 0x2 DUP5 DUP5 DUP5 DUP10 DUP5 DUP7 DUP5 DUP5 PUSH3 0x1EF PUSH3 0x377 JUMP JUMPDEST SWAP5 DUP4 DUP7 MSTORE DUP2 DUP7 ADD SWAP6 DUP6 DUP8 MSTORE DUP16 DUP3 DUP3 ADD SWAP8 PUSH8 0x16345785D8A0000 SWAP9 DUP10 DUP2 MSTORE PUSH1 0x60 DUP5 ADD SWAP2 TIMESTAMP DUP4 MSTORE DUP9 DUP1 MSTORE PUSH1 0x7 DUP8 MSTORE DUP6 DUP10 KECCAK256 DUP11 DUP11 MSTORE DUP8 MSTORE DUP6 DUP10 KECCAK256 SWAP5 MLOAD DUP6 SSTORE MLOAD DUP14 DUP6 ADD SSTORE MLOAD DUP9 DUP5 ADD SSTORE MLOAD SWAP2 ADD SSTORE MLOAD DUP6 DUP2 MSTORE LOG3 PUSH3 0x247 PUSH3 0x377 JUMP JUMPDEST DUP5 DUP2 MSTORE DUP11 DUP13 DUP5 DUP4 ADD DUP9 DUP2 MSTORE DUP2 DUP5 ADD SWAP1 DUP6 DUP3 MSTORE PUSH1 0x60 DUP6 ADD SWAP3 TIMESTAMP DUP5 MSTORE DUP10 DUP13 MSTORE PUSH1 0x7 DUP9 MSTORE DUP1 DUP13 KECCAK256 DUP12 DUP14 MSTORE DUP9 MSTORE DUP12 KECCAK256 SWAP5 MLOAD DUP6 SSTORE MLOAD DUP9 DUP6 ADD SSTORE MLOAD DUP9 DUP5 ADD SSTORE MLOAD SWAP2 ADD SSTORE DUP11 MLOAD SWAP1 DUP2 MSTORE LOG3 PUSH3 0x294 PUSH3 0x377 JUMP JUMPDEST SWAP1 DUP1 DUP3 MSTORE DUP3 DUP3 ADD SWAP2 DUP7 DUP4 MSTORE DUP7 DUP9 DUP3 ADD SWAP4 PUSH8 0xDE0B6B3A7640000 SWAP5 DUP6 DUP2 MSTORE PUSH1 0x60 DUP5 ADD SWAP2 TIMESTAMP DUP4 MSTORE DUP6 DUP1 MSTORE PUSH1 0x7 DUP9 MSTORE DUP12 DUP7 KECCAK256 DUP5 DUP8 MSTORE DUP9 MSTORE DUP12 DUP7 KECCAK256 SWAP5 MLOAD DUP6 SSTORE MLOAD DUP10 DUP6 ADD SSTORE MLOAD PUSH1 0x2 DUP5 ADD SSTORE MLOAD SWAP2 ADD SSTORE DUP6 DUP2 DUP6 DUP6 DUP11 MLOAD DUP7 DUP2 MSTORE LOG3 DUP6 PUSH3 0x2F3 PUSH3 0x377 JUMP JUMPDEST SWAP2 DUP7 DUP4 MSTORE DUP5 DUP4 ADD DUP3 DUP2 MSTORE DUP10 DUP5 ADD SWAP1 DUP6 DUP3 MSTORE DUP11 PUSH1 0x60 DUP7 ADD SWAP4 TIMESTAMP DUP6 MSTORE DUP11 DUP2 MSTORE PUSH1 0x7 DUP10 MSTORE DUP2 DUP2 KECCAK256 DUP7 DUP3 MSTORE DUP10 MSTORE KECCAK256 SWAP5 MLOAD DUP6 SSTORE MLOAD DUP9 DUP6 ADD SSTORE MLOAD PUSH1 0x2 DUP5 ADD SSTORE MLOAD SWAP2 ADD SSTORE DUP6 MLOAD SWAP1 DUP2 MSTORE LOG3 MLOAD PUSH2 0x1E03 SWAP1 DUP2 PUSH3 0x398 DUP3 CODECOPY RETURN JUMPDEST DUP3 MLOAD PUSH4 0x1E4FBDF7 PUSH1 0xE0 SHL DUP2 MSTORE PUSH1 0x0 PUSH1 0x4 DUP3 ADD MSTORE PUSH1 0x24 SWAP1 REVERT JUMPDEST PUSH1 0x0 DUP1 REVERT JUMPDEST PUSH4 0x4E487B71 PUSH1 0xE0 SHL PUSH1 0x0 MSTORE PUSH1 0x41 PUSH1 0x4 MSTORE PUSH1 0x24 PUSH1 0x0 REVERT JUMPDEST PUSH1 0x40 MLOAD SWAP1 PUSH1 0x80 DUP3 ADD PUSH1 0x1 PUSH1 0x1 PUSH1 0x40 SHL SUB DUP2 GT DUP4 DUP3 LT OR PUSH3 0x361 JUMPI PUSH1 0x40 MSTORE JUMP INVALID PUSH1 0x40 PUSH1 0x80 DUP2 MSTORE PUSH1 0x4 DUP1 CALLDATASIZE LT ISZERO PUSH2 0x1F JUMPI JUMPDEST POP POP CALLDATASIZE ISZERO PUSH2 0x1D JUMPI PUSH1 0x0 DUP1 REVERT JUMPDEST STOP JUMPDEST PUSH1 0x0 SWAP2 DUP3 CALLDATALOAD PUSH1 0xE0 SHR DUP1 PUSH3 0x13363C EQ PUSH2 0x194E JUMPI DUP1 PUSH4 0x20A564DB EQ PUSH2 0x18BF JUMPI DUP1 PUSH4 0x305A67A8 EQ PUSH2 0x17A4 JUMPI DUP1 PUSH4 0x476343EE EQ PUSH2 0x1691 JUMPI DUP1 PUSH4 0x48FF0719 EQ PUSH2 0x166E JUMPI DUP1 PUSH4 0x49BF8B44 EQ PUSH2 0x1645 JUMPI DUP1 PUSH4 0x5D5B9021 EQ PUSH2 0x1337 JUMPI DUP1 PUSH4 0x61CF4863 EQ PUSH2 0x130C JUMPI DUP1 PUSH4 0x65357B3D EQ PUSH2 0x1085 JUMPI DUP1 PUSH4 0x6A166964 EQ PUSH2 0x1066 JUMPI DUP1 PUSH4 0x715018A6 EQ PUSH2 0x100C JUMPI DUP1 PUSH4 0x87C35BC0 EQ PUSH2 0xDFE JUMPI DUP1 PUSH4 0x8D159787 EQ PUSH2 0xB76 JUMPI DUP1 PUSH4 0x8DA5CB5B EQ PUSH2 0xB4E JUMPI DUP1 PUSH4 0x8FA46AC9 EQ PUSH2 0xA87 JUMPI DUP1 PUSH4 0x9407EA98 EQ PUSH2 0xA57 JUMPI DUP1 PUSH4 0xA0E569FF EQ PUSH2 0xA39 JUMPI DUP1 PUSH4 0xAA2B2BD9 EQ PUSH2 0x8AB JUMPI DUP1 PUSH4 0xAB265CB1 EQ PUSH2 0x86A JUMPI DUP1 PUSH4 0xB190939E EQ PUSH2 0x83A JUMPI DUP1 PUSH4 0xCAF6CA01 EQ PUSH2 0x7EB JUMPI DUP1 PUSH4 0xD73792A9 EQ PUSH2 0x7CE JUMPI DUP1 PUSH4 0xDE74E57B EQ PUSH2 0x771 JUMPI DUP1 PUSH4 0xEBCD0E2D EQ PUSH2 0x284 JUMPI DUP1 PUSH4 0xF16A3207 EQ PUSH2 0x1DF JUMPI PUSH4 0xF2FDE38B EQ PUSH2 0x149 JUMPI POP PUSH2 0x10 JUMP JUMPDEST CALLVALUE PUSH2 0x1DB JUMPI PUSH1 0x20 CALLDATASIZE PUSH1 0x3 NOT ADD SLT PUSH2 0x1DB JUMPI PUSH1 0x1 PUSH1 0x1 PUSH1 0xA0 SHL SUB DUP3 CALLDATALOAD DUP2 DUP2 AND SWAP4 SWAP2 SWAP3 SWAP1 DUP5 SWAP1 SUB PUSH2 0x1D6 JUMPI PUSH2 0x17A PUSH2 0x1A61 JUMP JUMPDEST DUP4 ISZERO PUSH2 0x1C0 JUMPI POP POP PUSH1 0x0 SLOAD DUP3 PUSH1 0x1 PUSH1 0x1 PUSH1 0x60 SHL SUB PUSH1 0xA0 SHL DUP3 AND OR PUSH1 0x0 SSTORE AND PUSH32 0x8BE0079C531659141344CD1FD0A4F28419497F9722A3DAAFE3B4186F6B6457E0 PUSH1 0x0 DUP1 LOG3 DUP1 RETURN JUMPDEST MLOAD PUSH4 0x1E4FBDF7 PUSH1 0xE0 SHL DUP2 MSTORE SWAP1 DUP2 ADD DUP5 SWAP1 MSTORE PUSH1 0x24 SWAP1 REVERT JUMPDEST PUSH1 0x0 DUP1 REVERT JUMPDEST DUP3 DUP1 REVERT JUMPDEST POP SWAP2 CALLVALUE PUSH2 0x281 JUMPI PUSH1 0x20 SWAP2 DUP3 PUSH1 0x3 NOT CALLDATASIZE ADD SLT PUSH2 0x27D JUMPI SWAP3 SWAP2 SWAP3 CALLDATALOAD DUP2 MSTORE PUSH1 0xA DUP4 MSTORE DUP2 DUP2 KECCAK256 SWAP1 DUP3 MLOAD DUP1 DUP6 DUP5 SLOAD SWAP2 DUP3 DUP2 MSTORE ADD SWAP1 DUP2 SWAP5 DUP5 MSTORE DUP7 DUP5 KECCAK256 SWAP1 DUP5 JUMPDEST DUP2 DUP2 LT PUSH2 0x269 JUMPI POP POP POP DUP2 PUSH2 0x22E SWAP2 SUB DUP3 PUSH2 0x1AD3 JUMP JUMPDEST DUP4 MLOAD SWAP5 DUP6 SWAP5 DUP2 DUP7 ADD SWAP3 DUP3 DUP8 MSTORE MLOAD DUP1 SWAP4 MSTORE DUP6 ADD SWAP4 SWAP3 JUMPDEST DUP3 DUP2 LT PUSH2 0x252 JUMPI POP POP POP POP SUB SWAP1 RETURN JUMPDEST DUP4 MLOAD DUP6 MSTORE DUP7 SWAP6 POP SWAP4 DUP2 ADD SWAP4 SWAP3 DUP2 ADD SWAP3 PUSH1 0x1 ADD PUSH2 0x243 JUMP JUMPDEST DUP3 SLOAD DUP5 MSTORE SWAP3 DUP9 ADD SWAP3 PUSH1 0x1 SWAP3 DUP4 ADD SWAP3 ADD PUSH2 0x218 JUMP JUMPDEST POP DUP1 REVERT JUMPDEST DUP1 REVERT JUMPDEST POP PUSH1 0xE0 CALLDATASIZE PUSH1 0x3 NOT ADD SLT PUSH2 0x1DB JUMPI PUSH1 0x1 PUSH1 0x1 PUSH1 0xA0 SHL SUB SWAP3 PUSH1 0x44 DUP1 CALLDATALOAD DUP6 DUP2 AND SWAP5 DUP1 CALLDATALOAD SWAP4 PUSH1 0x24 DUP1 CALLDATALOAD SWAP4 SWAP1 SWAP2 SWAP1 DUP9 SWAP1 SUB PUSH2 0x1D6 JUMPI PUSH2 0x2BC PUSH2 0x1B14 JUMP JUMPDEST PUSH1 0x2 SLOAD DUP8 MLOAD PUSH4 0x31A9108F PUSH1 0xE1 SHL DUP1 DUP3 MSTORE DUP6 DUP3 ADD DUP10 SWAP1 MSTORE PUSH1 0x20 SWAP12 SWAP3 DUP4 AND SWAP2 DUP13 DUP2 DUP8 DUP2 DUP7 GAS STATICCALL SWAP1 DUP2 ISZERO PUSH2 0x767 JUMPI DUP6 SWAP2 PUSH2 0x74A JUMPI JUMPDEST POP DUP4 CALLER SWAP2 AND SUB PUSH2 0x707 JUMPI DUP10 MLOAD SWAP1 DUP2 MSTORE DUP7 DUP7 DUP3 ADD MSTORE DUP12 DUP2 DUP7 DUP2 DUP6 GAS STATICCALL SWAP1 DUP2 ISZERO PUSH2 0x6FD JUMPI DUP12 SWAP2 DUP5 SWAP2 DUP15 DUP8 SWAP3 PUSH2 0x6D0 JUMPI JUMPDEST POP POP AND SUB PUSH2 0x696 JUMPI DUP6 DUP9 EQ PUSH2 0x654 JUMPI PUSH1 0x64 CALLDATALOAD DUP4 MSTORE PUSH1 0x7 DUP12 MSTORE DUP9 DUP4 KECCAK256 PUSH1 0x84 CALLDATALOAD DUP5 MSTORE DUP12 MSTORE PUSH1 0x2 DUP10 DUP5 KECCAK256 ADD SLOAD SWAP7 PUSH1 0xA4 CALLDATALOAD DUP5 MSTORE PUSH1 0x7 DUP13 MSTORE DUP10 DUP5 KECCAK256 PUSH1 0xC4 CALLDATALOAD DUP6 MSTORE DUP13 MSTORE PUSH1 0x2 DUP11 DUP6 KECCAK256 ADD SLOAD SWAP8 DUP1 ISZERO ISZERO DUP1 PUSH2 0x64B JUMPI JUMPDEST ISZERO PUSH2 0x613 JUMPI DUP5 SWAP9 DUP2 DUP2 GT PUSH2 0x59E JUMPI JUMPDEST POP POP POP DUP1 EXTCODESIZE ISZERO PUSH2 0x1DB JUMPI DUP9 MLOAD PUSH4 0x23B872DD PUSH1 0xE0 SHL DUP2 MSTORE CALLER DUP7 DUP3 ADD SWAP1 DUP2 MSTORE ADDRESS PUSH1 0x20 DUP3 ADD MSTORE PUSH1 0x40 DUP2 ADD DUP11 SWAP1 MSTORE SWAP1 SWAP2 DUP5 SWAP2 DUP4 SWAP2 SWAP1 DUP3 SWAP1 DUP5 SWAP1 DUP3 SWAP1 PUSH1 0x60 ADD SUB SWAP3 GAS CALL DUP1 ISZERO PUSH2 0x594 JUMPI SWAP1 DUP4 SWAP2 PUSH2 0x580 JUMPI JUMPDEST POP POP PUSH2 0x3D2 PUSH1 0x8 SLOAD PUSH2 0x1BF3 JUMP JUMPDEST SWAP9 DUP10 PUSH1 0x8 SSTORE PUSH3 0x93A80 TIMESTAMP ADD SWAP1 DUP2 TIMESTAMP GT PUSH2 0x56D JUMPI DUP10 MLOAD SWAP3 PUSH2 0x120 DUP5 ADD DUP5 DUP2 LT PUSH8 0xFFFFFFFFFFFFFFFF DUP3 GT OR PUSH2 0x559 JUMPI SWAP4 PUSH2 0x4B8 PUSH1 0x1 DUP16 DUP16 DUP16 SWAP10 SWAP9 SWAP7 DUP16 DUP16 SWAP4 SWAP8 DUP16 SWAP4 SWAP2 PUSH1 0x9 DUP10 SWAP13 SWAP11 DUP16 SWAP5 DUP16 PUSH2 0x100 PUSH1 0x8 SWAP16 DUP15 PUSH1 0xE0 SWAP2 DUP11 MSTORE DUP5 DUP2 MSTORE DUP6 DUP2 ADD SWAP10 CALLER DUP12 MSTORE DUP2 ADD SWAP8 DUP9 MSTORE PUSH1 0x60 DUP2 ADD SWAP11 DUP12 MSTORE PUSH1 0x80 DUP2 ADD SWAP12 DUP13 MSTORE PUSH1 0xA0 DUP2 ADD SWAP13 DUP14 MSTORE PUSH1 0xC0 DUP2 ADD SWAP14 DUP15 MSTORE ADD SWAP14 DUP15 TIMESTAMP SWAP1 MSTORE ADD SWAP14 DUP15 MSTORE MSTORE MSTORE DUP14 DUP14 KECCAK256 SWAP12 MLOAD DUP13 SSTORE DUP2 PUSH1 0x1 DUP14 ADD SWAP4 MLOAD AND SWAP3 PUSH1 0x1 PUSH1 0x1 PUSH1 0x60 SHL SUB PUSH1 0xA0 SHL SWAP4 DUP5 DUP3 SLOAD AND OR SWAP1 SSTORE MLOAD PUSH1 0x2 DUP13 ADD SSTORE PUSH1 0x3 DUP12 ADD SWAP3 MLOAD AND SWAP1 DUP3 SLOAD AND OR SWAP1 SSTORE MLOAD DUP12 DUP9 ADD SSTORE MLOAD PUSH1 0x5 DUP8 ADD SSTORE MLOAD ISZERO ISZERO PUSH1 0x6 DUP7 ADD SWAP1 PUSH1 0xFF DUP1 NOT DUP4 SLOAD AND SWAP2 ISZERO ISZERO AND OR SWAP1 SSTORE JUMP JUMPDEST MLOAD PUSH1 0x7 DUP5 ADD SSTORE MLOAD SWAP2 ADD SSTORE DUP5 DUP2 MSTORE PUSH1 0xA DUP11 MSTORE KECCAK256 SWAP1 DUP2 SLOAD SWAP3 PUSH1 0x1 PUSH1 0x40 SHL DUP5 LT ISZERO PUSH2 0x546 JUMPI POP POP SWAP3 PUSH1 0x80 SWAP3 PUSH2 0x513 DUP4 PUSH32 0x71D76C00FFB4F5ABBF79F321B52AE2B8885930CE3FFA7552059AD0C70E5DA97D SWAP7 PUSH1 0x1 DUP12 SWAP10 SWAP7 ADD DUP2 SSTORE PUSH2 0x1A49 JUMP JUMPDEST DUP2 SLOAD SWAP1 PUSH1 0x3 SHL SWAP1 DUP9 DUP3 SHL SWAP2 PUSH1 0x0 NOT SWAP1 SHL NOT AND OR SWAP1 SSTORE DUP7 MLOAD SWAP3 CALLER DUP5 MSTORE DUP10 DUP5 ADD MSTORE DUP7 DUP4 ADD MSTORE PUSH1 0x60 DUP3 ADD MSTORE LOG2 PUSH1 0x1 DUP1 SSTORE MLOAD SWAP1 DUP2 MSTORE RETURN JUMPDEST PUSH1 0x41 SWAP1 PUSH4 0x4E487B71 PUSH1 0xE0 SHL PUSH1 0x0 MSTORE MSTORE PUSH1 0x0 REVERT JUMPDEST DUP7 PUSH1 0x41 DUP10 PUSH4 0x4E487B71 PUSH1 0xE0 SHL PUSH1 0x0 MSTORE MSTORE PUSH1 0x0 REVERT JUMPDEST POP POP PUSH4 0x4E487B71 PUSH1 0xE0 SHL DUP3 MSTORE POP PUSH1 0x11 DUP4 MSTORE REVERT JUMPDEST PUSH2 0x589 SWAP1 PUSH2 0x1A8D JUMP JUMPDEST PUSH2 0x27D JUMPI DUP2 CODESIZE PUSH2 0x3C5 JUMP JUMPDEST DUP10 MLOAD RETURNDATASIZE DUP6 DUP3 RETURNDATACOPY RETURNDATASIZE SWAP1 REVERT JUMPDEST PUSH2 0x5C3 SWAP3 SWAP10 POP SWAP1 PUSH2 0x5AE SWAP2 PUSH2 0x1B99 JUMP JUMPDEST PUSH2 0x2710 PUSH2 0x5BC DUP9 SLOAD DUP4 PUSH2 0x1B70 JUMP JUMPDEST DIV SWAP1 PUSH2 0x1BE6 JUMP JUMPDEST SWAP7 DUP8 CALLVALUE LT PUSH2 0x5D2 JUMPI DUP1 DUP1 PUSH2 0x379 JUMP JUMPDEST DUP6 PUSH32 0x496E73756666696369656E742045544820666F72207472616465000000000000 PUSH1 0x64 SWAP3 PUSH1 0x1A DUP16 DUP10 SWAP1 DUP16 MLOAD SWAP6 PUSH3 0x461BCD PUSH1 0xE5 SHL DUP8 MSTORE DUP7 ADD MSTORE DUP5 ADD MSTORE DUP3 ADD MSTORE REVERT JUMPDEST POP DUP6 PUSH19 0x119B1BDBDC881C1C9A58D9481B9BDD081CD95D PUSH1 0x6A SHL PUSH1 0x64 SWAP3 PUSH1 0x13 DUP16 DUP10 SWAP1 DUP16 MLOAD SWAP6 PUSH3 0x461BCD PUSH1 0xE5 SHL DUP8 MSTORE DUP7 ADD MSTORE DUP5 ADD MSTORE DUP3 ADD MSTORE REVERT JUMPDEST POP DUP9 ISZERO ISZERO PUSH2 0x36A JUMP JUMPDEST POP DUP8 MLOAD PUSH3 0x461BCD PUSH1 0xE5 SHL DUP2 MSTORE DUP1 DUP6 ADD DUP12 SWAP1 MSTORE PUSH1 0x18 DUP2 DUP6 ADD MSTORE PUSH32 0x43616E6E6F742074726164652073616D6520647261676F6E0000000000000000 DUP2 DUP9 ADD MSTORE PUSH1 0x64 SWAP1 REVERT JUMPDEST POP DUP8 MLOAD PUSH3 0x461BCD PUSH1 0xE5 SHL DUP2 MSTORE DUP1 DUP6 ADD DUP12 SWAP1 MSTORE PUSH1 0x15 DUP2 DUP6 ADD MSTORE PUSH21 0xA8C2E4CECAE840DEEEDCCAE440DAD2E6DAC2E8C6D PUSH1 0x5B SHL DUP2 DUP9 ADD MSTORE PUSH1 0x64 SWAP1 REVERT JUMPDEST PUSH2 0x6EF SWAP3 POP DUP1 RETURNDATASIZE LT PUSH2 0x6F6 JUMPI JUMPDEST PUSH2 0x6E7 DUP2 DUP4 PUSH2 0x1AD3 JUMP JUMPDEST DUP2 ADD SWAP1 PUSH2 0x1AF5 JUMP JUMPDEST CODESIZE DUP15 PUSH2 0x31C JUMP JUMPDEST POP RETURNDATASIZE PUSH2 0x6DD JUMP JUMPDEST DUP11 MLOAD RETURNDATASIZE DUP7 DUP3 RETURNDATACOPY RETURNDATASIZE SWAP1 REVERT JUMPDEST POP POP DUP8 MLOAD PUSH3 0x461BCD PUSH1 0xE5 SHL DUP2 MSTORE DUP1 DUP6 ADD DUP12 SWAP1 MSTORE PUSH1 0x1B DUP2 DUP6 ADD MSTORE PUSH32 0x4E6F74206F776E6572206F66206F66666572656420647261676F6E0000000000 DUP2 DUP9 ADD MSTORE PUSH1 0x64 SWAP1 REVERT JUMPDEST PUSH2 0x761 SWAP2 POP DUP14 DUP1 RETURNDATASIZE LT PUSH2 0x6F6 JUMPI PUSH2 0x6E7 DUP2 DUP4 PUSH2 0x1AD3 JUMP JUMPDEST CODESIZE PUSH2 0x2EE JUMP JUMPDEST DUP12 MLOAD RETURNDATASIZE DUP8 DUP3 RETURNDATACOPY RETURNDATASIZE SWAP1 REVERT JUMPDEST POP CALLVALUE PUSH2 0x1DB JUMPI PUSH1 0x20 CALLDATASIZE PUSH1 0x3 NOT ADD SLT PUSH2 0x1DB JUMPI DUP1 PUSH1 0xA0 SWAP4 DUP4 CALLDATALOAD DUP2 MSTORE PUSH1 0x5 PUSH1 0x20 MSTORE KECCAK256 DUP1 SLOAD SWAP3 PUSH1 0x1 DUP1 DUP7 SHL SUB PUSH1 0x1 DUP4 ADD SLOAD AND SWAP3 PUSH1 0x2 DUP4 ADD SLOAD SWAP2 PUSH1 0xFF PUSH1 0x3 DUP6 ADD SLOAD AND SWAP4 ADD SLOAD SWAP4 DUP2 MLOAD SWAP6 DUP7 MSTORE PUSH1 0x20 DUP7 ADD MSTORE DUP5 ADD MSTORE ISZERO ISZERO PUSH1 0x60 DUP4 ADD MSTORE PUSH1 0x80 DUP3 ADD MSTORE RETURN JUMPDEST DUP4 DUP3 CALLVALUE PUSH2 0x27D JUMPI DUP2 PUSH1 0x3 NOT CALLDATASIZE ADD SLT PUSH2 0x27D JUMPI PUSH1 0x20 SWAP1 MLOAD PUSH2 0x2710 DUP2 MSTORE RETURN JUMPDEST DUP4 DUP3 CALLVALUE PUSH2 0x27D JUMPI DUP1 PUSH1 0x80 SWAP3 PUSH2 0x7FF CALLDATASIZE PUSH2 0x19FC JUMP JUMPDEST SWAP1 DUP3 MSTORE PUSH1 0x7 PUSH1 0x20 MSTORE DUP3 DUP3 KECCAK256 SWAP1 DUP3 MSTORE PUSH1 0x20 MSTORE KECCAK256 SWAP1 DUP2 SLOAD SWAP2 PUSH1 0x1 DUP2 ADD SLOAD SWAP2 PUSH1 0x3 PUSH1 0x2 DUP4 ADD SLOAD SWAP3 ADD SLOAD SWAP3 DUP2 MLOAD SWAP5 DUP6 MSTORE PUSH1 0x20 DUP6 ADD MSTORE DUP4 ADD MSTORE PUSH1 0x60 DUP3 ADD MSTORE RETURN JUMPDEST POP POP CALLVALUE PUSH2 0x27D JUMPI PUSH1 0x20 CALLDATASIZE PUSH1 0x3 NOT ADD SLT PUSH2 0x27D JUMPI DUP1 CALLDATALOAD SWAP1 PUSH2 0x858 PUSH2 0x1A61 JUMP JUMPDEST PUSH2 0x866 PUSH2 0x1388 DUP4 GT ISZERO PUSH2 0x1D92 JUMP JUMPDEST SSTORE DUP1 RETURN JUMPDEST DUP4 DUP3 CALLVALUE PUSH2 0x27D JUMPI PUSH2 0x87A CALLDATASIZE PUSH2 0x19FC JUMP JUMPDEST SWAP3 SWAP1 DUP2 MSTORE PUSH1 0xA PUSH1 0x20 MSTORE DUP2 DUP2 KECCAK256 SWAP1 DUP2 SLOAD DUP5 LT ISZERO PUSH2 0x281 JUMPI POP PUSH1 0x20 SWAP3 PUSH2 0x89D SWAP2 PUSH2 0x1A49 JUMP JUMPDEST SWAP2 SWAP1 SLOAD SWAP1 MLOAD SWAP2 PUSH1 0x3 SHL SHR DUP2 MSTORE RETURN JUMPDEST POP SWAP1 CALLVALUE PUSH2 0x1DB JUMPI PUSH1 0x20 CALLDATASIZE PUSH1 0x3 NOT ADD SLT PUSH2 0x1DB JUMPI DUP1 CALLDATALOAD SWAP2 PUSH2 0x8C9 PUSH2 0x1B14 JUMP JUMPDEST DUP3 DUP5 MSTORE PUSH1 0x9 PUSH1 0x20 MSTORE DUP1 DUP5 KECCAK256 PUSH1 0x6 DUP2 ADD DUP1 SLOAD SWAP1 PUSH2 0x8E7 PUSH1 0xFF DUP4 AND PUSH2 0x1C02 JUMP JUMPDEST PUSH1 0x1 DUP4 ADD SLOAD PUSH1 0x1 PUSH1 0x1 PUSH1 0xA0 SHL SUB SWAP3 SWAP1 DUP4 AND CALLER SUB PUSH2 0xA08 JUMPI PUSH1 0xFF NOT AND SWAP1 SSTORE PUSH1 0x2 DUP1 SLOAD SWAP1 DUP4 ADD SLOAD DUP8 SWAP4 SWAP3 SWAP1 SWAP2 AND DUP1 EXTCODESIZE ISZERO PUSH2 0xA04 JUMPI DUP5 MLOAD PUSH4 0x23B872DD PUSH1 0xE0 SHL DUP2 MSTORE ADDRESS DUP8 DUP3 ADD SWAP1 DUP2 MSTORE CALLER PUSH1 0x20 DUP3 ADD MSTORE PUSH1 0x40 DUP2 ADD SWAP4 SWAP1 SWAP4 MSTORE SWAP2 DUP5 SWAP2 DUP4 SWAP2 DUP3 SWAP1 DUP5 SWAP1 DUP3 SWAP1 PUSH1 0x60 ADD SUB SWAP3 GAS CALL DUP1 ISZERO PUSH2 0x9FA JUMPI SWAP1 DUP4 SWAP2 PUSH2 0x9E6 JUMPI JUMPDEST POP POP PUSH1 0x5 ADD SLOAD DUP1 PUSH2 0x993 JUMPI JUMPDEST POP DUP4 PUSH32 0xC754A4B878552D0FC775D075FEA1DC22F51657A9EF39EDE106FE10828E7B8CAA DUP3 DUP1 LOG2 PUSH1 0x1 DUP1 SSTORE DUP1 RETURN JUMPDEST DUP2 DUP1 DUP1 SWAP3 CALLER GAS CALL PUSH2 0x9A2 PUSH2 0x1BA6 JUMP JUMPDEST POP ISZERO PUSH2 0x9AF JUMPI DUP4 DUP2 PUSH2 0x966 JUMP JUMPDEST SWAP1 PUSH1 0x20 PUSH1 0x64 SWAP3 MLOAD SWAP2 PUSH3 0x461BCD PUSH1 0xE5 SHL DUP4 MSTORE DUP3 ADD MSTORE PUSH1 0x11 PUSH1 0x24 DUP3 ADD MSTORE PUSH17 0x115512081C99599D5B990819985A5B1959 PUSH1 0x7A SHL PUSH1 0x44 DUP3 ADD MSTORE REVERT JUMPDEST PUSH2 0x9EF SWAP1 PUSH2 0x1A8D JUMP JUMPDEST PUSH2 0x27D JUMPI DUP2 CODESIZE PUSH2 0x95A JUMP JUMPDEST DUP5 MLOAD RETURNDATASIZE DUP6 DUP3 RETURNDATACOPY RETURNDATASIZE SWAP1 REVERT JUMPDEST DUP4 DUP1 REVERT JUMPDEST DUP5 MLOAD PUSH3 0x461BCD PUSH1 0xE5 SHL DUP2 MSTORE PUSH1 0x20 DUP2 DUP9 ADD MSTORE PUSH1 0xB PUSH1 0x24 DUP3 ADD MSTORE PUSH11 0x2737BA1037B33332B932B9 PUSH1 0xA9 SHL PUSH1 0x44 DUP3 ADD MSTORE PUSH1 0x64 SWAP1 REVERT JUMPDEST POP SWAP1 CALLVALUE PUSH2 0x1DB JUMPI DUP3 PUSH1 0x3 NOT CALLDATASIZE ADD SLT PUSH2 0x1DB JUMPI PUSH1 0x20 SWAP3 POP SLOAD SWAP1 MLOAD SWAP1 DUP2 MSTORE RETURN JUMPDEST POP POP CALLVALUE PUSH2 0x27D JUMPI PUSH1 0x20 CALLDATASIZE PUSH1 0x3 NOT ADD SLT PUSH2 0x27D JUMPI CALLDATALOAD PUSH2 0xA73 PUSH2 0x1A61 JUMP JUMPDEST PUSH2 0xA81 PUSH2 0x7D0 DUP3 GT ISZERO PUSH2 0x1D92 JUMP JUMPDEST PUSH1 0x3 SSTORE DUP1 RETURN JUMPDEST POP SWAP1 CALLVALUE PUSH2 0x1DB JUMPI PUSH1 0x60 CALLDATASIZE PUSH1 0x3 NOT ADD SLT PUSH2 0x1DB JUMPI DUP1 CALLDATALOAD SWAP1 PUSH1 0x24 CALLDATALOAD SWAP3 PUSH1 0x44 CALLDATALOAD SWAP2 PUSH2 0xAAD PUSH2 0x1A61 JUMP JUMPDEST DUP2 MLOAD SWAP1 PUSH1 0x80 DUP3 ADD SWAP1 DUP3 DUP3 LT PUSH8 0xFFFFFFFFFFFFFFFF DUP4 GT OR PUSH2 0xB39 JUMPI POP SWAP2 PUSH32 0x2DF3FC9611087E1428B8CED3C9C2ED6653D92B2F351A869BD136CFEC04C6F633 SWAP4 SWAP2 PUSH1 0x20 SWAP4 DUP3 MSTORE DUP6 DUP2 MSTORE PUSH1 0x3 DUP5 DUP3 ADD DUP9 DUP2 MSTORE DUP4 DUP4 ADD DUP6 DUP2 MSTORE PUSH1 0x60 DUP5 ADD SWAP2 TIMESTAMP DUP4 MSTORE DUP10 DUP13 MSTORE PUSH1 0x7 DUP9 MSTORE DUP6 DUP13 KECCAK256 DUP12 DUP14 MSTORE DUP9 MSTORE DUP6 DUP13 KECCAK256 SWAP5 MLOAD DUP6 SSTORE MLOAD PUSH1 0x1 DUP6 ADD SSTORE MLOAD PUSH1 0x2 DUP5 ADD SSTORE MLOAD SWAP2 ADD SSTORE MLOAD SWAP1 DUP2 MSTORE LOG3 DUP1 RETURN JUMPDEST PUSH1 0x41 SWAP1 PUSH4 0x4E487B71 PUSH1 0xE0 SHL PUSH1 0x0 MSTORE MSTORE PUSH1 0x24 PUSH1 0x0 REVERT JUMPDEST DUP4 DUP3 CALLVALUE PUSH2 0x27D JUMPI DUP2 PUSH1 0x3 NOT CALLDATASIZE ADD SLT PUSH2 0x27D JUMPI SWAP1 SLOAD SWAP1 MLOAD PUSH1 0x1 PUSH1 0x1 PUSH1 0xA0 SHL SUB SWAP1 SWAP2 AND DUP2 MSTORE PUSH1 0x20 SWAP1 RETURN JUMPDEST POP DUP3 SWAP1 PUSH1 0x20 SWAP1 DUP2 PUSH1 0x3 NOT CALLDATASIZE ADD SLT PUSH2 0x1DB JUMPI DUP4 CALLDATALOAD SWAP2 PUSH2 0xB92 PUSH2 0x1B14 JUMP JUMPDEST DUP3 DUP5 MSTORE PUSH1 0x5 DUP2 MSTORE DUP2 DUP5 KECCAK256 SWAP3 PUSH1 0x3 DUP5 ADD SWAP2 DUP3 SLOAD SWAP4 PUSH2 0xBB1 PUSH1 0xFF DUP7 AND PUSH2 0x1B37 JUMP JUMPDEST PUSH1 0x2 DUP7 ADD SLOAD SWAP5 DUP6 CALLVALUE LT PUSH2 0xDC4 JUMPI PUSH1 0x1 DUP1 PUSH1 0xA0 SHL SUB DUP1 PUSH1 0x1 DUP1 SWAP10 ADD SLOAD AND SWAP6 PUSH2 0xBE7 PUSH2 0x2710 PUSH2 0xBE0 PUSH1 0x3 SLOAD DUP12 PUSH2 0x1B70 JUMP JUMPDEST DIV DUP10 PUSH2 0x1B99 JUMP JUMPDEST SWAP3 PUSH1 0xFF NOT AND SWAP1 SSTORE PUSH1 0x2 SLOAD AND DUP1 EXTCODESIZE ISZERO PUSH2 0xDC0 JUMPI DUP3 MLOAD PUSH4 0x23B872DD PUSH1 0xE0 SHL DUP2 MSTORE ADDRESS DUP2 DUP13 ADD SWAP1 DUP2 MSTORE CALLER PUSH1 0x20 DUP3 ADD MSTORE PUSH1 0x40 DUP2 ADD DUP8 SWAP1 MSTORE SWAP1 SWAP2 DUP11 SWAP2 DUP4 SWAP2 SWAP1 DUP3 SWAP1 DUP5 SWAP1 DUP3 SWAP1 PUSH1 0x60 ADD SUB SWAP3 GAS CALL DUP1 ISZERO PUSH2 0xDB6 JUMPI SWAP1 DUP10 SWAP2 PUSH2 0xD9E JUMPI JUMPDEST POP DUP1 DUP1 DUP1 SWAP4 DUP9 GAS CALL PUSH2 0xC4B PUSH2 0x1BA6 JUMP JUMPDEST POP ISZERO PUSH2 0xD6A JUMPI DUP5 CALLVALUE GT PUSH2 0xD19 JUMPI JUMPDEST DUP1 MLOAD SWAP8 PUSH2 0xC65 DUP10 PUSH2 0x1AB7 JUMP JUMPDEST DUP4 DUP10 MSTORE DUP3 DUP10 ADD SWAP1 DUP7 DUP3 MSTORE DUP3 DUP11 ADD TIMESTAMP DUP2 MSTORE PUSH1 0x60 DUP12 ADD DUP11 DUP2 MSTORE PUSH1 0x80 DUP13 ADD SWAP2 DUP11 DUP4 MSTORE PUSH1 0xB SLOAD PUSH1 0x1 PUSH1 0x40 SHL DUP2 LT ISZERO PUSH2 0xD06 JUMPI DUP1 DUP13 PUSH2 0xCA2 SWAP3 ADD PUSH1 0xB SSTORE PUSH2 0x19AB JUMP JUMPDEST SWAP6 SWAP1 SWAP6 PUSH2 0xCF4 JUMPI PUSH32 0x921C8B778AA5DA00E865FBEBD027ACF9388620C626DF2CD24DF3CF3768E96ED8 SWAP9 SWAP10 SWAP11 SWAP12 SWAP13 SWAP14 MLOAD DUP7 SSTORE MLOAD DUP13 DUP7 ADD SSTORE MLOAD PUSH1 0x2 DUP6 ADD SSTORE MLOAD PUSH1 0x3 DUP5 ADD SSTORE MLOAD SWAP2 ADD SSTORE MLOAD SWAP5 DUP6 MSTORE CALLER SWAP5 LOG4 DUP1 SSTORE DUP1 RETURN JUMPDEST PUSH4 0x4E487B71 PUSH1 0xE0 SHL DUP14 MSTORE DUP13 DUP6 MSTORE PUSH1 0x24 DUP14 REVERT JUMPDEST PUSH4 0x4E487B71 PUSH1 0xE0 SHL DUP14 MSTORE PUSH1 0x41 DUP6 MSTORE PUSH1 0x24 DUP14 REVERT JUMPDEST DUP7 DUP1 DUP1 DUP1 PUSH2 0xD27 DUP10 CALLVALUE PUSH2 0x1B99 JUMP JUMPDEST CALLER GAS CALL PUSH2 0xD32 PUSH2 0x1BA6 JUMP JUMPDEST POP PUSH2 0xC59 JUMPI MLOAD PUSH3 0x461BCD PUSH1 0xE5 SHL DUP2 MSTORE DUP1 DUP9 ADD SWAP2 SWAP1 SWAP2 MSTORE PUSH1 0xD PUSH1 0x24 DUP3 ADD MSTORE PUSH13 0x1499599D5B990819985A5B1959 PUSH1 0x9A SHL PUSH1 0x44 DUP3 ADD MSTORE PUSH1 0x64 SWAP1 REVERT JUMPDEST MLOAD PUSH3 0x461BCD PUSH1 0xE5 SHL DUP2 MSTORE DUP1 DUP9 ADD SWAP2 SWAP1 SWAP2 MSTORE PUSH1 0xE PUSH1 0x24 DUP3 ADD MSTORE PUSH14 0x14185E5B595B9D0819985A5B1959 PUSH1 0x92 SHL PUSH1 0x44 DUP3 ADD MSTORE PUSH1 0x64 SWAP1 REVERT JUMPDEST PUSH2 0xDA7 SWAP1 PUSH2 0x1A8D JUMP JUMPDEST PUSH2 0xDB2 JUMPI DUP8 DUP11 PUSH2 0xC3B JUMP JUMPDEST DUP8 DUP1 REVERT JUMPDEST DUP4 MLOAD RETURNDATASIZE DUP12 DUP3 RETURNDATACOPY RETURNDATASIZE SWAP1 REVERT JUMPDEST DUP9 DUP1 REVERT JUMPDEST DUP2 MLOAD PUSH3 0x461BCD PUSH1 0xE5 SHL DUP2 MSTORE DUP1 DUP11 ADD DUP5 SWAP1 MSTORE PUSH1 0x14 PUSH1 0x24 DUP3 ADD MSTORE PUSH20 0x125B9CDD59999A58DA595B9D081C185E5B595B9D PUSH1 0x62 SHL PUSH1 0x44 DUP3 ADD MSTORE PUSH1 0x64 SWAP1 REVERT JUMPDEST POP SWAP2 SWAP1 CALLVALUE PUSH2 0x27D JUMPI DUP2 PUSH1 0x3 NOT CALLDATASIZE ADD SLT PUSH2 0x27D JUMPI PUSH1 0x6 SLOAD DUP3 SWAP2 DUP3 JUMPDEST DUP3 DUP2 LT PUSH2 0xFC4 JUMPI POP PUSH2 0xE29 DUP4 PUSH2 0x1C41 JUMP JUMPDEST SWAP3 PUSH2 0xE36 DUP7 MLOAD SWAP5 DUP6 PUSH2 0x1AD3 JUMP JUMPDEST DUP1 DUP5 MSTORE PUSH2 0xE45 PUSH1 0x1F NOT SWAP2 PUSH2 0x1C41 JUMP JUMPDEST ADD DUP5 JUMPDEST DUP2 DUP2 LT PUSH2 0xF91 JUMPI POP POP DUP4 SWAP1 DUP5 JUMPDEST DUP4 DUP2 LT PUSH2 0xECD JUMPI POP POP POP POP DUP3 MLOAD SWAP2 PUSH1 0x20 DUP1 DUP5 ADD SWAP1 DUP1 DUP6 MSTORE DUP4 MLOAD DUP1 SWAP3 MSTORE DUP1 DUP7 DUP7 ADD SWAP5 ADD SWAP3 JUMPDEST DUP3 DUP2 LT PUSH2 0xE86 JUMPI DUP6 DUP6 SUB DUP7 RETURN JUMPDEST DUP4 MLOAD DUP1 MLOAD DUP7 MSTORE DUP1 DUP4 ADD MLOAD PUSH1 0x1 PUSH1 0x1 PUSH1 0xA0 SHL SUB AND DUP7 DUP5 ADD MSTORE DUP8 DUP2 ADD MLOAD DUP9 DUP8 ADD MSTORE PUSH1 0x60 DUP1 DUP3 ADD MLOAD ISZERO ISZERO SWAP1 DUP8 ADD MSTORE PUSH1 0x80 SWAP1 DUP2 ADD MLOAD SWAP1 DUP7 ADD MSTORE PUSH1 0xA0 SWAP1 SWAP5 ADD SWAP4 SWAP3 DUP2 ADD SWAP3 PUSH1 0x1 ADD PUSH2 0xE79 JUMP JUMPDEST PUSH2 0xED6 DUP2 PUSH2 0x1A12 JUMP JUMPDEST SWAP1 SLOAD PUSH1 0x3 SWAP2 DUP3 SHL SHR DUP8 MSTORE PUSH1 0x5 SWAP1 PUSH1 0x20 SWAP2 DUP1 DUP4 MSTORE PUSH1 0xFF SWAP1 DUP2 DUP4 DUP13 DUP13 KECCAK256 ADD SLOAD AND PUSH2 0xF0B JUMPI JUMPDEST POP POP POP POP PUSH2 0xF06 SWAP1 PUSH2 0x1BF3 JUMP JUMPDEST PUSH2 0xE55 JUMP JUMPDEST DUP5 SWAP7 SWAP3 PUSH2 0xF87 SWAP5 SWAP3 DUP8 SWAP3 PUSH2 0xF21 PUSH2 0xF06 SWAP9 PUSH2 0x1A12 JUMP JUMPDEST SWAP1 SLOAD SWAP1 DUP5 SHL SHR DUP14 MSTORE DUP5 MSTORE DUP13 DUP13 KECCAK256 SWAP2 DUP14 MLOAD SWAP5 PUSH2 0xF3B DUP7 PUSH2 0x1AB7 JUMP JUMPDEST DUP4 SLOAD DUP7 MSTORE PUSH1 0x1 DUP5 ADD SLOAD PUSH1 0x1 PUSH1 0x1 PUSH1 0xA0 SHL SUB AND SWAP1 DUP7 ADD MSTORE PUSH1 0x2 DUP4 ADD SLOAD DUP15 DUP7 ADD MSTORE DUP3 ADD SLOAD AND ISZERO ISZERO PUSH1 0x60 DUP5 ADD MSTORE ADD SLOAD PUSH1 0x80 DUP3 ADD MSTORE PUSH2 0xF76 DUP3 DUP10 PUSH2 0x1C59 JUMP JUMPDEST MSTORE PUSH2 0xF81 DUP2 DUP9 PUSH2 0x1C59 JUMP JUMPDEST POP PUSH2 0x1BF3 JUMP JUMPDEST SWAP3 SWAP1 CODESIZE DUP1 DUP1 PUSH2 0xEF9 JUMP JUMPDEST PUSH1 0x20 SWAP1 DUP8 MLOAD PUSH2 0xF9F DUP2 PUSH2 0x1AB7 JUMP JUMPDEST DUP8 DUP2 MSTORE DUP3 DUP9 DUP2 DUP4 ADD MSTORE DUP9 DUP11 DUP4 ADD MSTORE DUP9 PUSH1 0x60 DUP4 ADD MSTORE DUP9 PUSH1 0x80 DUP4 ADD MSTORE DUP3 DUP9 ADD ADD MSTORE ADD PUSH2 0xE48 JUMP JUMPDEST PUSH1 0xFF PUSH2 0xFCF DUP3 PUSH2 0x1A12 JUMP JUMPDEST SWAP1 SLOAD PUSH1 0x3 SWAP2 DUP3 SHL SHR DUP8 MSTORE PUSH1 0x5 PUSH1 0x20 MSTORE DUP8 DUP8 KECCAK256 ADD SLOAD AND PUSH2 0xFF7 JUMPI JUMPDEST PUSH2 0xFF2 SWAP1 PUSH2 0x1BF3 JUMP JUMPDEST PUSH2 0xE18 JUMP JUMPDEST SWAP3 PUSH2 0x1004 PUSH2 0xFF2 SWAP2 PUSH2 0x1BF3 JUMP JUMPDEST SWAP4 SWAP1 POP PUSH2 0xFE9 JUMP JUMPDEST DUP4 CALLVALUE PUSH2 0x281 JUMPI DUP1 PUSH1 0x3 NOT CALLDATASIZE ADD SLT PUSH2 0x281 JUMPI PUSH2 0x1025 PUSH2 0x1A61 JUMP JUMPDEST PUSH1 0x0 DUP1 SLOAD PUSH1 0x1 PUSH1 0x1 PUSH1 0xA0 SHL SUB NOT DUP2 AND DUP3 SSTORE PUSH1 0x1 PUSH1 0x1 PUSH1 0xA0 SHL SUB AND PUSH32 0x8BE0079C531659141344CD1FD0A4F28419497F9722A3DAAFE3B4186F6B6457E0 DUP3 DUP1 LOG3 DUP1 RETURN JUMPDEST DUP4 DUP3 CALLVALUE PUSH2 0x27D JUMPI DUP2 PUSH1 0x3 NOT CALLDATASIZE ADD SLT PUSH2 0x27D JUMPI PUSH1 0x20 SWAP1 PUSH1 0x3 SLOAD SWAP1 MLOAD SWAP1 DUP2 MSTORE RETURN JUMPDEST POP CALLVALUE PUSH2 0x1DB JUMPI PUSH2 0x1094 CALLDATASIZE PUSH2 0x19FC JUMP JUMPDEST SWAP3 SWAP1 SWAP2 PUSH2 0x109F PUSH2 0x1B14 JUMP JUMPDEST PUSH1 0x2 SLOAD DUP2 MLOAD PUSH4 0x31A9108F PUSH1 0xE1 SHL DUP2 MSTORE DUP1 DUP5 ADD DUP6 SWAP1 MSTORE PUSH1 0x20 SWAP4 SWAP2 PUSH1 0x1 PUSH1 0x1 PUSH1 0xA0 SHL SUB SWAP2 SWAP1 DUP3 AND SWAP1 DUP6 DUP2 PUSH1 0x24 DUP2 DUP6 GAS STATICCALL SWAP1 DUP2 ISZERO PUSH2 0x1302 JUMPI DUP10 SWAP2 PUSH2 0x12E5 JUMPI JUMPDEST POP DUP3 CALLER SWAP2 AND SUB PUSH2 0x12B6 JUMPI DUP7 ISZERO PUSH2 0x127F JUMPI DUP6 DUP9 MSTORE PUSH1 0x5 DUP6 MSTORE PUSH1 0xFF PUSH1 0x3 DUP6 DUP11 KECCAK256 ADD SLOAD AND PUSH2 0x124B JUMPI DUP1 DUP9 SWAP2 EXTCODESIZE ISZERO PUSH2 0x27D JUMPI DUP5 MLOAD PUSH4 0x23B872DD PUSH1 0xE0 SHL DUP2 MSTORE CALLER DUP6 DUP3 ADD SWAP1 DUP2 MSTORE ADDRESS PUSH1 0x20 DUP3 ADD MSTORE PUSH1 0x40 DUP2 ADD DUP10 SWAP1 MSTORE SWAP1 SWAP2 DUP4 SWAP2 DUP4 SWAP2 SWAP1 DUP3 SWAP1 DUP5 SWAP1 DUP3 SWAP1 PUSH1 0x60 ADD SUB SWAP3 GAS CALL DUP1 ISZERO PUSH2 0x1241 JUMPI PUSH2 0x1229 JUMPI JUMPDEST POP DUP3 SWAP1 PUSH2 0x11BE DUP6 MLOAD SWAP4 PUSH2 0x115A DUP6 PUSH2 0x1AB7 JUMP JUMPDEST DUP9 DUP6 MSTORE DUP8 DUP6 ADD CALLER DUP2 MSTORE DUP8 DUP7 ADD SWAP1 DUP12 DUP3 MSTORE PUSH1 0x60 DUP8 ADD SWAP3 PUSH1 0x1 DUP5 MSTORE DUP10 PUSH1 0x80 DUP10 ADD SWAP7 TIMESTAMP DUP9 MSTORE DUP14 DUP2 MSTORE PUSH1 0x5 DUP14 MSTORE KECCAK256 SWAP8 MLOAD DUP9 SSTORE PUSH1 0x1 DUP9 ADD SWAP2 MLOAD AND PUSH1 0x1 PUSH1 0x1 PUSH1 0x60 SHL SUB PUSH1 0xA0 SHL DUP3 SLOAD AND OR SWAP1 SSTORE MLOAD PUSH1 0x2 DUP7 ADD SSTORE MLOAD ISZERO ISZERO PUSH1 0x3 DUP6 ADD SWAP1 PUSH1 0xFF DUP1 NOT DUP4 SLOAD AND SWAP2 ISZERO ISZERO AND OR SWAP1 SSTORE JUMP JUMPDEST MLOAD SWAP2 ADD SSTORE PUSH1 0x6 SLOAD SWAP1 PUSH1 0x1 PUSH1 0x40 SHL DUP3 LT ISZERO PUSH2 0xB39 JUMPI POP SWAP1 PUSH2 0x1206 DUP3 PUSH1 0x1 PUSH32 0x8F95EB146180BAECCB688C7D9448E2186EC121C1A7891CCB4398434AEC159936 SWAP6 SWAP5 ADD PUSH1 0x6 SSTORE PUSH2 0x1A12 JUMP JUMPDEST DUP2 SLOAD SWAP1 PUSH1 0x3 SHL SWAP1 DUP7 DUP3 SHL SWAP2 PUSH1 0x0 NOT SWAP1 SHL NOT AND OR SWAP1 SSTORE MLOAD SWAP4 DUP5 MSTORE CALLER SWAP4 LOG3 PUSH1 0x1 DUP1 SSTORE DUP1 RETURN JUMPDEST PUSH2 0x1232 SWAP1 PUSH2 0x1A8D JUMP JUMPDEST PUSH2 0x123D JUMPI DUP7 CODESIZE PUSH2 0x1148 JUMP JUMPDEST DUP7 DUP1 REVERT JUMPDEST DUP6 MLOAD RETURNDATASIZE DUP5 DUP3 RETURNDATACOPY RETURNDATASIZE SWAP1 REVERT JUMPDEST DUP4 MLOAD PUSH3 0x461BCD PUSH1 0xE5 SHL DUP2 MSTORE DUP1 DUP5 ADD DUP7 SWAP1 MSTORE PUSH1 0xE PUSH1 0x24 DUP3 ADD MSTORE PUSH14 0x105B1C9958591E481B1A5CDD1959 PUSH1 0x92 SHL PUSH1 0x44 DUP3 ADD MSTORE PUSH1 0x64 SWAP1 REVERT JUMPDEST DUP4 MLOAD PUSH3 0x461BCD PUSH1 0xE5 SHL DUP2 MSTORE DUP1 DUP5 ADD DUP7 SWAP1 MSTORE PUSH1 0x11 PUSH1 0x24 DUP3 ADD MSTORE PUSH17 0x5072696365206D757374206265203E203 PUSH1 0x7C SHL PUSH1 0x44 DUP3 ADD MSTORE PUSH1 0x64 SWAP1 REVERT JUMPDEST DUP4 MLOAD PUSH3 0x461BCD PUSH1 0xE5 SHL DUP2 MSTORE DUP1 DUP5 ADD DUP7 SWAP1 MSTORE PUSH1 0x9 PUSH1 0x24 DUP3 ADD MSTORE PUSH9 0x2737BA1037BBB732B9 PUSH1 0xB9 SHL PUSH1 0x44 DUP3 ADD MSTORE PUSH1 0x64 SWAP1 REVERT JUMPDEST PUSH2 0x12FC SWAP2 POP DUP7 RETURNDATASIZE DUP9 GT PUSH2 0x6F6 JUMPI PUSH2 0x6E7 DUP2 DUP4 PUSH2 0x1AD3 JUMP JUMPDEST CODESIZE PUSH2 0x10DB JUMP JUMPDEST DUP6 MLOAD RETURNDATASIZE DUP12 DUP3 RETURNDATACOPY RETURNDATASIZE SWAP1 REVERT JUMPDEST POP SWAP1 CALLVALUE PUSH2 0x1DB JUMPI PUSH1 0x20 CALLDATASIZE PUSH1 0x3 NOT ADD SLT PUSH2 0x1DB JUMPI CALLDATALOAD SWAP2 PUSH1 0x6 SLOAD DUP4 LT ISZERO PUSH2 0x281 JUMPI POP PUSH2 0x89D PUSH1 0x20 SWAP3 PUSH2 0x1A12 JUMP JUMPDEST POP CALLVALUE PUSH2 0x1DB JUMPI PUSH1 0x20 DUP1 PUSH1 0x3 NOT CALLDATASIZE ADD SLT PUSH2 0xA04 JUMPI DUP3 CALLDATALOAD SWAP3 PUSH2 0x1355 PUSH2 0x1B14 JUMP JUMPDEST DUP4 DUP6 MSTORE PUSH1 0x9 DUP3 MSTORE DUP3 DUP6 KECCAK256 SWAP2 PUSH1 0x6 DUP4 ADD SWAP4 DUP5 SLOAD SWAP4 PUSH2 0x1374 PUSH1 0xFF DUP7 AND PUSH2 0x1C02 JUMP JUMPDEST PUSH1 0x3 DUP2 ADD SLOAD PUSH1 0x1 PUSH1 0x1 PUSH1 0xA0 SHL SUB SWAP7 SWAP1 DUP8 AND CALLER SUB PUSH2 0x1611 JUMPI PUSH1 0x8 DUP3 ADD SLOAD TIMESTAMP LT ISZERO PUSH2 0x15DE JUMPI DUP7 PUSH1 0x2 SLOAD AND SWAP6 PUSH1 0x24 DUP6 DUP8 DUP6 ADD SLOAD SWAP9 DUP7 MLOAD SWAP3 DUP4 DUP1 SWAP3 PUSH4 0x31A9108F PUSH1 0xE1 SHL DUP3 MSTORE DUP13 DUP13 DUP4 ADD MSTORE GAS STATICCALL SWAP1 DUP2 ISZERO PUSH2 0x15D4 JUMPI DUP12 SWAP2 PUSH2 0x15B7 JUMPI JUMPDEST POP DUP9 CALLER SWAP2 AND SUB PUSH2 0x1574 JUMPI SWAP1 DUP10 SWAP3 SWAP2 PUSH1 0xFF NOT AND SWAP1 SSTORE DUP7 PUSH1 0x2 SLOAD AND SWAP6 PUSH1 0x1 DUP3 ADD SWAP7 DUP9 DUP9 SLOAD AND DUP2 EXTCODESIZE ISZERO PUSH2 0x1552 JUMPI DUP6 MLOAD PUSH4 0x23B872DD PUSH1 0xE0 SHL DUP1 DUP3 MSTORE CALLER DUP3 DUP12 ADD SWAP1 DUP2 MSTORE PUSH1 0x1 PUSH1 0x1 PUSH1 0xA0 SHL SUB SWAP1 SWAP4 AND PUSH1 0x20 DUP5 ADD MSTORE PUSH1 0x40 DUP4 ADD SWAP5 SWAP1 SWAP5 MSTORE SWAP2 DUP6 SWAP2 DUP4 SWAP2 SWAP1 DUP3 SWAP1 DUP5 SWAP1 DUP3 SWAP1 PUSH1 0x60 ADD SUB SWAP3 GAS CALL DUP1 ISZERO PUSH2 0x156A JUMPI SWAP1 DUP5 SWAP2 PUSH2 0x1556 JUMPI JUMPDEST POP POP DUP8 PUSH1 0x2 SLOAD AND SWAP1 PUSH1 0x2 DUP4 ADD SLOAD DUP3 EXTCODESIZE ISZERO PUSH2 0x1552 JUMPI DUP6 MLOAD SWAP2 DUP3 MSTORE ADDRESS DUP9 DUP4 ADD SWAP1 DUP2 MSTORE CALLER PUSH1 0x20 DUP3 ADD MSTORE PUSH1 0x40 DUP2 ADD SWAP2 SWAP1 SWAP2 MSTORE SWAP1 SWAP2 DUP5 SWAP2 DUP4 SWAP2 SWAP1 DUP3 SWAP1 DUP5 SWAP1 DUP3 SWAP1 PUSH1 0x60 ADD SUB SWAP3 GAS CALL DUP1 ISZERO PUSH2 0x9FA JUMPI SWAP1 DUP4 SWAP2 PUSH2 0x153E JUMPI JUMPDEST POP POP PUSH1 0x5 ADD SLOAD DUP1 PUSH2 0x14D2 JUMPI JUMPDEST POP POP POP POP POP SLOAD AND SWAP1 CALLER SWAP1 PUSH32 0x1368B7350E5E5D1DEFE357E4992C04F76331B806F36FB57436ABB2354D503533 DUP5 DUP1 LOG4 PUSH1 0x1 DUP1 SSTORE DUP1 RETURN JUMPDEST DUP2 DUP1 PUSH2 0x14EF DUP2 SWAP4 PUSH2 0x2710 PUSH2 0x14E8 PUSH1 0x3 SLOAD DUP4 PUSH2 0x1B70 JUMP JUMPDEST DIV SWAP1 PUSH2 0x1B99 JUMP JUMPDEST CALLER GAS CALL PUSH2 0x14FA PUSH2 0x1BA6 JUMP JUMPDEST POP ISZERO PUSH2 0x1507 JUMPI DUP7 DUP2 PUSH2 0x149D JUMP JUMPDEST MLOAD PUSH3 0x461BCD PUSH1 0xE5 SHL DUP2 MSTORE SWAP2 DUP3 ADD MSTORE PUSH1 0x13 PUSH1 0x24 DUP3 ADD MSTORE PUSH19 0x115512081D1C985B9CD9995C8819985A5B1959 PUSH1 0x6A SHL PUSH1 0x44 DUP3 ADD MSTORE PUSH1 0x64 SWAP2 POP REVERT JUMPDEST PUSH2 0x1547 SWAP1 PUSH2 0x1A8D JUMP JUMPDEST PUSH2 0x27D JUMPI DUP2 CODESIZE PUSH2 0x1491 JUMP JUMPDEST DUP5 DUP1 REVERT JUMPDEST PUSH2 0x155F SWAP1 PUSH2 0x1A8D JUMP JUMPDEST PUSH2 0x1DB JUMPI DUP3 CODESIZE PUSH2 0x1441 JUMP JUMPDEST DUP6 MLOAD RETURNDATASIZE DUP7 DUP3 RETURNDATACOPY RETURNDATASIZE SWAP1 REVERT JUMPDEST DUP4 MLOAD PUSH3 0x461BCD PUSH1 0xE5 SHL DUP2 MSTORE DUP1 DUP8 ADD DUP7 SWAP1 MSTORE PUSH1 0x17 PUSH1 0x24 DUP3 ADD MSTORE PUSH32 0x446F6E2774206F776E2074617267657420647261676F6E000000000000000000 PUSH1 0x44 DUP3 ADD MSTORE PUSH1 0x64 SWAP1 REVERT JUMPDEST PUSH2 0x15CE SWAP2 POP DUP7 RETURNDATASIZE DUP9 GT PUSH2 0x6F6 JUMPI PUSH2 0x6E7 DUP2 DUP4 PUSH2 0x1AD3 JUMP JUMPDEST CODESIZE PUSH2 0x13CA JUMP JUMPDEST DUP6 MLOAD RETURNDATASIZE DUP14 DUP3 RETURNDATACOPY RETURNDATASIZE SWAP1 REVERT JUMPDEST POP POP MLOAD PUSH3 0x461BCD PUSH1 0xE5 SHL DUP2 MSTORE SWAP2 DUP3 ADD MSTORE PUSH1 0xD PUSH1 0x24 DUP3 ADD MSTORE PUSH13 0x13D999995C88195E1C1A5C9959 PUSH1 0x9A SHL PUSH1 0x44 DUP3 ADD MSTORE PUSH1 0x64 SWAP2 POP REVERT JUMPDEST POP POP MLOAD PUSH3 0x461BCD PUSH1 0xE5 SHL DUP2 MSTORE SWAP2 DUP3 ADD MSTORE PUSH1 0xE PUSH1 0x24 DUP3 ADD MSTORE PUSH14 0x139BDD081D1A19481D185C99D95D PUSH1 0x92 SHL PUSH1 0x44 DUP3 ADD MSTORE PUSH1 0x64 SWAP2 POP REVERT JUMPDEST DUP4 DUP3 CALLVALUE PUSH2 0x27D JUMPI DUP2 PUSH1 0x3 NOT CALLDATASIZE ADD SLT PUSH2 0x27D JUMPI PUSH1 0x2 SLOAD SWAP1 MLOAD PUSH1 0x1 PUSH1 0x1 PUSH1 0xA0 SHL SUB SWAP1 SWAP2 AND DUP2 MSTORE PUSH1 0x20 SWAP1 RETURN JUMPDEST DUP4 DUP3 CALLVALUE PUSH2 0x27D JUMPI PUSH1 0x20 SWAP1 PUSH2 0x168A PUSH2 0x1684 CALLDATASIZE PUSH2 0x19FC JUMP JUMPDEST SWAP1 PUSH2 0x1C6D JUMP JUMPDEST SWAP1 MLOAD SWAP1 DUP2 MSTORE RETURN JUMPDEST POP CALLVALUE PUSH2 0x1DB JUMPI DUP3 PUSH1 0x3 NOT CALLDATASIZE ADD SLT PUSH2 0x1DB JUMPI PUSH2 0x16AA PUSH2 0x1A61 JUMP JUMPDEST SELFBALANCE DUP4 SWAP1 PUSH1 0x1 PUSH1 0x8 SLOAD SWAP1 JUMPDEST DUP2 DUP2 GT ISZERO PUSH2 0x1763 JUMPI POP POP SWAP1 PUSH2 0x16C8 SWAP2 PUSH2 0x1B99 JUMP JUMPDEST DUP1 ISZERO PUSH2 0x172A JUMPI DUP4 SLOAD DUP5 SWAP2 DUP3 SWAP2 DUP3 SWAP2 DUP3 SWAP2 PUSH1 0x1 PUSH1 0x1 PUSH1 0xA0 SHL SUB AND GAS CALL PUSH2 0x16EB PUSH2 0x1BA6 JUMP JUMPDEST POP ISZERO PUSH2 0x16F5 JUMPI DUP3 DUP1 RETURN JUMPDEST SWAP1 PUSH1 0x20 PUSH1 0x64 SWAP3 MLOAD SWAP2 PUSH3 0x461BCD PUSH1 0xE5 SHL DUP4 MSTORE DUP3 ADD MSTORE PUSH1 0xF PUSH1 0x24 DUP3 ADD MSTORE PUSH15 0x15DA5D1A191C985DC819985A5B1959 PUSH1 0x8A SHL PUSH1 0x44 DUP3 ADD MSTORE REVERT JUMPDEST DUP2 MLOAD PUSH3 0x461BCD PUSH1 0xE5 SHL DUP2 MSTORE PUSH1 0x20 DUP2 DUP6 ADD MSTORE PUSH1 0x13 PUSH1 0x24 DUP3 ADD MSTORE PUSH19 0x4E6F206665657320746F207769746864726177 PUSH1 0x68 SHL PUSH1 0x44 DUP3 ADD MSTORE PUSH1 0x64 SWAP1 REVERT JUMPDEST DUP1 DUP8 MSTORE PUSH1 0x9 PUSH1 0x20 MSTORE DUP5 DUP8 KECCAK256 PUSH1 0xFF PUSH1 0x6 DUP3 ADD SLOAD AND PUSH2 0x178A JUMPI JUMPDEST POP PUSH2 0x1785 SWAP1 PUSH2 0x1BF3 JUMP JUMPDEST PUSH2 0x16B4 JUMP JUMPDEST PUSH2 0x1785 SWAP2 SWAP5 PUSH1 0x5 PUSH2 0x179D SWAP3 ADD SLOAD SWAP1 PUSH2 0x1BE6 JUMP JUMPDEST SWAP4 SWAP1 PUSH2 0x177B JUMP JUMPDEST POP DUP3 SWAP1 CALLVALUE PUSH2 0x27D JUMPI PUSH1 0x20 CALLDATASIZE PUSH1 0x3 NOT ADD SLT PUSH2 0x27D JUMPI DUP3 CALLDATALOAD SWAP3 PUSH2 0x17C3 PUSH2 0x1B14 JUMP JUMPDEST DUP4 DUP4 MSTORE PUSH1 0x5 PUSH1 0x20 MSTORE DUP2 DUP4 KECCAK256 PUSH1 0x3 DUP2 ADD DUP1 SLOAD PUSH1 0x1 SWAP3 PUSH2 0x17E3 PUSH1 0xFF DUP4 AND PUSH2 0x1B37 JUMP JUMPDEST DUP4 DUP1 PUSH1 0xA0 SHL SUB SWAP4 DUP5 SWAP2 ADD SLOAD AND CALLER SUB PUSH2 0x188F JUMPI PUSH1 0xFF NOT AND SWAP1 SSTORE PUSH1 0x2 SLOAD AND SWAP1 DUP2 EXTCODESIZE ISZERO PUSH2 0xA04 JUMPI DUP3 MLOAD PUSH4 0x23B872DD PUSH1 0xE0 SHL DUP2 MSTORE ADDRESS SWAP2 DUP2 ADD SWAP2 DUP3 MSTORE CALLER PUSH1 0x20 DUP4 ADD MSTORE PUSH1 0x40 DUP3 ADD DUP7 SWAP1 MSTORE SWAP3 SWAP2 DUP5 SWAP2 DUP5 SWAP2 SWAP1 DUP3 SWAP1 DUP5 SWAP1 DUP3 SWAP1 PUSH1 0x60 ADD SUB SWAP3 GAS CALL SWAP1 DUP2 ISZERO PUSH2 0x1886 JUMPI POP PUSH2 0x1877 JUMPI JUMPDEST POP SWAP1 CALLER SWAP1 PUSH32 0x8E25282255AB31897DF2B0456BB993AC7F84D376861AEFD84901D2D63A7428A2 DUP4 DUP1 LOG3 PUSH1 0x1 DUP1 SSTORE DUP1 RETURN JUMPDEST PUSH2 0x1880 SWAP1 PUSH2 0x1A8D JUMP JUMPDEST DUP3 PUSH2 0x1848 JUMP JUMPDEST MLOAD RETURNDATASIZE DUP5 DUP3 RETURNDATACOPY RETURNDATASIZE SWAP1 REVERT JUMPDEST DUP5 MLOAD PUSH3 0x461BCD PUSH1 0xE5 SHL DUP2 MSTORE PUSH1 0x20 DUP2 DUP7 ADD MSTORE PUSH1 0xA PUSH1 0x24 DUP3 ADD MSTORE PUSH10 0x2737BA1039B2B63632B9 PUSH1 0xB1 SHL PUSH1 0x44 DUP3 ADD MSTORE PUSH1 0x64 SWAP1 REVERT JUMPDEST POP SWAP1 CALLVALUE PUSH2 0x1DB JUMPI PUSH1 0x20 CALLDATASIZE PUSH1 0x3 NOT ADD SLT PUSH2 0x1DB JUMPI DUP2 PUSH2 0x120 SWAP4 DUP3 CALLDATALOAD DUP2 MSTORE PUSH1 0x9 PUSH1 0x20 MSTORE KECCAK256 DUP1 SLOAD SWAP3 PUSH1 0x1 DUP1 PUSH1 0xA0 SHL SUB DUP1 PUSH1 0x1 DUP5 ADD SLOAD AND SWAP4 PUSH1 0x2 DUP5 ADD SLOAD SWAP2 PUSH1 0x3 DUP6 ADD SLOAD AND SWAP1 DUP5 ADD SLOAD SWAP1 PUSH1 0x5 DUP6 ADD SLOAD SWAP3 PUSH1 0xFF PUSH1 0x6 DUP8 ADD SLOAD AND SWAP5 PUSH1 0x8 PUSH1 0x7 DUP9 ADD SLOAD SWAP8 ADD SLOAD SWAP8 DUP2 MLOAD SWAP10 DUP11 MSTORE PUSH1 0x20 DUP11 ADD MSTORE DUP9 ADD MSTORE PUSH1 0x60 DUP8 ADD MSTORE PUSH1 0x80 DUP7 ADD MSTORE PUSH1 0xA0 DUP6 ADD MSTORE ISZERO ISZERO PUSH1 0xC0 DUP5 ADD MSTORE PUSH1 0xE0 DUP4 ADD MSTORE PUSH2 0x100 DUP3 ADD MSTORE RETURN JUMPDEST POP CALLVALUE PUSH2 0x1DB JUMPI PUSH1 0x20 CALLDATASIZE PUSH1 0x3 NOT ADD SLT PUSH2 0x1DB JUMPI DUP2 CALLDATALOAD SWAP3 PUSH1 0xB SLOAD DUP5 LT ISZERO PUSH2 0x281 JUMPI POP PUSH2 0x1979 PUSH1 0xA0 SWAP4 PUSH2 0x19AB JUMP JUMPDEST POP DUP1 SLOAD SWAP3 PUSH1 0x1 DUP3 ADD SLOAD SWAP3 PUSH1 0x2 DUP4 ADD SLOAD SWAP2 PUSH1 0x3 DUP5 ADD SLOAD SWAP4 ADD SLOAD SWAP4 DUP2 MLOAD SWAP6 DUP7 MSTORE PUSH1 0x20 DUP7 ADD MSTORE DUP5 ADD MSTORE PUSH1 0x60 DUP4 ADD MSTORE PUSH1 0x80 DUP3 ADD MSTORE RETURN JUMPDEST PUSH1 0xB SLOAD DUP2 LT ISZERO PUSH2 0x19E6 JUMPI PUSH1 0x5 SWAP1 PUSH1 0xB PUSH1 0x0 MSTORE MUL PUSH32 0x175B7A638427703F0DBE7BB9BBF987A2551717B34E79F33B5B1008D1FA01DB9 ADD SWAP1 PUSH1 0x0 SWAP1 JUMP JUMPDEST PUSH4 0x4E487B71 PUSH1 0xE0 SHL PUSH1 0x0 MSTORE PUSH1 0x32 PUSH1 0x4 MSTORE PUSH1 0x24 PUSH1 0x0 REVERT JUMPDEST PUSH1 0x40 SWAP1 PUSH1 0x3 NOT ADD SLT PUSH2 0x1D6 JUMPI PUSH1 0x4 CALLDATALOAD SWAP1 PUSH1 0x24 CALLDATALOAD SWAP1 JUMP JUMPDEST PUSH1 0x6 SLOAD DUP2 LT ISZERO PUSH2 0x19E6 JUMPI PUSH1 0x6 PUSH1 0x0 MSTORE PUSH32 0xF652222313E28459528D920B65115C16C04F3EFC82AAEDC97BE59F3F377C0D3F ADD SWAP1 PUSH1 0x0 SWAP1 JUMP JUMPDEST DUP1 SLOAD DUP3 LT ISZERO PUSH2 0x19E6 JUMPI PUSH1 0x0 MSTORE PUSH1 0x20 PUSH1 0x0 KECCAK256 ADD SWAP1 PUSH1 0x0 SWAP1 JUMP JUMPDEST PUSH1 0x0 SLOAD PUSH1 0x1 PUSH1 0x1 PUSH1 0xA0 SHL SUB AND CALLER SUB PUSH2 0x1A75 JUMPI JUMP JUMPDEST PUSH1 0x40 MLOAD PUSH4 0x118CDAA7 PUSH1 0xE0 SHL DUP2 MSTORE CALLER PUSH1 0x4 DUP3 ADD MSTORE PUSH1 0x24 SWAP1 REVERT JUMPDEST PUSH8 0xFFFFFFFFFFFFFFFF DUP2 GT PUSH2 0x1AA1 JUMPI PUSH1 0x40 MSTORE JUMP JUMPDEST PUSH4 0x4E487B71 PUSH1 0xE0 SHL PUSH1 0x0 MSTORE PUSH1 0x41 PUSH1 0x4 MSTORE PUSH1 0x24 PUSH1 0x0 REVERT JUMPDEST PUSH1 0xA0 DUP2 ADD SWAP1 DUP2 LT PUSH8 0xFFFFFFFFFFFFFFFF DUP3 GT OR PUSH2 0x1AA1 JUMPI PUSH1 0x40 MSTORE JUMP JUMPDEST SWAP1 PUSH1 0x1F DUP1 NOT SWAP2 ADD AND DUP2 ADD SWAP1 DUP2 LT PUSH8 0xFFFFFFFFFFFFFFFF DUP3 GT OR PUSH2 0x1AA1 JUMPI PUSH1 0x40 MSTORE JUMP JUMPDEST SWAP1 DUP2 PUSH1 0x20 SWAP2 SUB SLT PUSH2 0x1D6 JUMPI MLOAD PUSH1 0x1 PUSH1 0x1 PUSH1 0xA0 SHL SUB DUP2 AND DUP2 SUB PUSH2 0x1D6 JUMPI SWAP1 JUMP JUMPDEST PUSH1 0x2 PUSH1 0x1 SLOAD EQ PUSH2 0x1B25 JUMPI PUSH1 0x2 PUSH1 0x1 SSTORE JUMP JUMPDEST PUSH1 0x40 MLOAD PUSH4 0x3EE5AEB5 PUSH1 0xE0 SHL DUP2 MSTORE PUSH1 0x4 SWAP1 REVERT JUMPDEST ISZERO PUSH2 0x1B3E JUMPI JUMP JUMPDEST PUSH1 0x40 MLOAD PUSH3 0x461BCD PUSH1 0xE5 SHL DUP2 MSTORE PUSH1 0x20 PUSH1 0x4 DUP3 ADD MSTORE PUSH1 0xA PUSH1 0x24 DUP3 ADD MSTORE PUSH10 0x139BDD081B1A5CDD1959 PUSH1 0xB2 SHL PUSH1 0x44 DUP3 ADD MSTORE PUSH1 0x64 SWAP1 REVERT JUMPDEST DUP2 DUP2 MUL SWAP3 SWAP2 DUP2 ISZERO SWAP2 DUP5 DIV EQ OR ISZERO PUSH2 0x1B83 JUMPI JUMP JUMPDEST PUSH4 0x4E487B71 PUSH1 0xE0 SHL PUSH1 0x0 MSTORE PUSH1 0x11 PUSH1 0x4 MSTORE PUSH1 0x24 PUSH1 0x0 REVERT JUMPDEST SWAP2 SWAP1 DUP3 SUB SWAP2 DUP3 GT PUSH2 0x1B83 JUMPI JUMP JUMPDEST RETURNDATASIZE ISZERO PUSH2 0x1BE1 JUMPI RETURNDATASIZE SWAP1 PUSH8 0xFFFFFFFFFFFFFFFF DUP3 GT PUSH2 0x1AA1 JUMPI PUSH1 0x40 MLOAD SWAP2 PUSH2 0x1BD5 PUSH1 0x1F DUP3 ADD PUSH1 0x1F NOT AND PUSH1 0x20 ADD DUP5 PUSH2 0x1AD3 JUMP JUMPDEST DUP3 MSTORE RETURNDATASIZE PUSH1 0x0 PUSH1 0x20 DUP5 ADD RETURNDATACOPY JUMP JUMPDEST PUSH1 0x60 SWAP1 JUMP JUMPDEST SWAP2 SWAP1 DUP3 ADD DUP1 SWAP3 GT PUSH2 0x1B83 JUMPI JUMP JUMPDEST PUSH1 0x0 NOT DUP2 EQ PUSH2 0x1B83 JUMPI PUSH1 0x1 ADD SWAP1 JUMP JUMPDEST ISZERO PUSH2 0x1C09 JUMPI JUMP JUMPDEST PUSH1 0x40 MLOAD PUSH3 0x461BCD PUSH1 0xE5 SHL DUP2 MSTORE PUSH1 0x20 PUSH1 0x4 DUP3 ADD MSTORE PUSH1 0x10 PUSH1 0x24 DUP3 ADD MSTORE PUSH16 0x4F66666572206E6F7420616374697665 PUSH1 0x80 SHL PUSH1 0x44 DUP3 ADD MSTORE PUSH1 0x64 SWAP1 REVERT JUMPDEST PUSH8 0xFFFFFFFFFFFFFFFF DUP2 GT PUSH2 0x1AA1 JUMPI PUSH1 0x5 SHL PUSH1 0x20 ADD SWAP1 JUMP JUMPDEST DUP1 MLOAD DUP3 LT ISZERO PUSH2 0x19E6 JUMPI PUSH1 0x20 SWAP2 PUSH1 0x5 SHL ADD ADD SWAP1 JUMP JUMPDEST TIMESTAMP PUSH3 0x93A7F NOT DUP2 ADD SWAP4 SWAP3 PUSH1 0x0 SWAP3 DUP4 SWAP3 DUP7 GT PUSH2 0x1D7E JUMPI PUSH1 0xB SLOAD DUP1 JUMPDEST PUSH2 0x1CC3 JUMPI JUMPDEST POP SWAP1 SWAP2 SWAP3 DUP1 SWAP5 SWAP6 POP ISZERO PUSH2 0x1C9F JUMPI POP POP DIV SWAP1 JUMP JUMPDEST SWAP2 POP SWAP2 POP PUSH1 0x0 MSTORE PUSH1 0x7 PUSH1 0x20 MSTORE PUSH1 0x40 PUSH1 0x0 KECCAK256 SWAP1 PUSH1 0x0 MSTORE PUSH1 0x20 MSTORE PUSH1 0x2 PUSH1 0x40 PUSH1 0x0 KECCAK256 ADD SLOAD SWAP1 JUMP JUMPDEST PUSH1 0x0 NOT DUP2 ADD DUP2 DUP2 GT PUSH2 0x1B83 JUMPI PUSH2 0x1CD8 SWAP1 PUSH2 0x19AB JUMP JUMPDEST POP PUSH1 0x80 PUSH1 0x40 SWAP2 DUP10 DUP4 MLOAD SWAP4 PUSH2 0x1CEB DUP6 PUSH2 0x1AB7 JUMP JUMPDEST DUP3 SLOAD DUP6 MSTORE PUSH1 0x1 DUP4 ADD SLOAD SWAP5 DUP6 PUSH1 0x20 DUP3 ADD MSTORE PUSH1 0x2 DUP5 ADD SLOAD DUP1 SWAP3 DUP3 ADD MSTORE PUSH1 0x4 PUSH1 0x3 DUP6 ADD SLOAD SWAP5 DUP6 PUSH1 0x60 DUP5 ADD MSTORE ADD SLOAD SWAP5 DUP6 SWAP2 ADD MSTORE LT PUSH2 0x1D76 JUMPI DUP5 DUP7 SWAP2 EQ SWAP2 DUP3 PUSH2 0x1D6C JUMPI JUMPDEST POP POP PUSH2 0x1D50 JUMPI JUMPDEST POP PUSH1 0xA DUP6 LT ISZERO PUSH2 0x1D4B JUMPI DUP1 ISZERO PUSH2 0x1B83 JUMPI PUSH1 0x0 NOT ADD DUP1 PUSH2 0x1C87 JUMP JUMPDEST PUSH2 0x1C8C JUMP JUMPDEST PUSH2 0x1D5F SWAP1 PUSH2 0x1D65 SWAP3 SWAP7 SWAP6 PUSH2 0x1BE6 JUMP JUMPDEST SWAP4 PUSH2 0x1BF3 JUMP JUMPDEST SWAP4 CODESIZE PUSH2 0x1D31 JUMP JUMPDEST EQ SWAP1 POP DUP5 CODESIZE PUSH2 0x1D2A JUMP JUMPDEST POP POP POP PUSH2 0x1C8C JUMP JUMPDEST PUSH4 0x4E487B71 PUSH1 0xE0 SHL DUP5 MSTORE PUSH1 0x11 PUSH1 0x4 MSTORE PUSH1 0x24 DUP5 REVERT JUMPDEST ISZERO PUSH2 0x1D99 JUMPI JUMP JUMPDEST PUSH1 0x40 MLOAD PUSH3 0x461BCD PUSH1 0xE5 SHL DUP2 MSTORE PUSH1 0x20 PUSH1 0x4 DUP3 ADD MSTORE PUSH1 0xC PUSH1 0x24 DUP3 ADD MSTORE PUSH12 0x8CCACA40E8DEDE40D0D2CED PUSH1 0xA3 SHL PUSH1 0x44 DUP3 ADD MSTORE PUSH1 0x64 SWAP1 REVERT INVALID LOG2 PUSH5 0x6970667358 0x22 SLT KECCAK256 0x5D DUP16 0x5D 0x4E SWAP10 SLOAD LOG4 SELFBALANCE 0xE0 0xE9 CODESIZE JUMPI SSTORE 0xD3 0xDF SWAP5 0x4C 0xDE 0x4B PUSH19 0x2786B7CF68C0FF1F1907692B64736F6C634300 ADDMOD EQ STOP CALLER "},"methodIdentifiers":{"FEE_DENOMINATOR()":"d73792a9","acceptTradeOffer(uint256)":"5d5b9021","activeListings(uint256)":"61cf4863","buyDragon(uint256)":"8d159787","calculateFloorPrice(uint256,uint256)":"48ff0719","cancelListing(uint256)":"305a67a8","cancelTradeOffer(uint256)":"aa2b2bd9","createTradeOffer(uint256,uint256,address,uint256,uint256,uint256,uint256)":"ebcd0e2d","dragonNFT()":"49bf8b44","dragonTradeOffers(uint256,uint256)":"ab265cb1","floorPrices(uint256,uint256)":"caf6ca01","getActiveListings()":"87c35bc0","getTradeOffersForDragon(uint256)":"f16a3207","listDragon(uint256,uint256)":"65357b3d","listings(uint256)":"de74e57b","marketplaceFee()":"6a166964","owner()":"8da5cb5b","renounceOwnership()":"715018a6","salesHistory(uint256)":"0013363c","setMarketplaceFee(uint256)":"9407ea98","setTradeInFee(uint256)":"b190939e","tradeInFee()":"a0e569ff","tradeOffers(uint256)":"20a564db","transferOwnership(address)":"f2fde38b","updateFloorPrice(uint256,uint256,uint256)":"8fa46ac9","withdrawFees()":"476343ee"}}}}}