{"contracts/Leaderboard.sol":{"Leaderboard":{"abi":[{"inputs":[],"stateMutability":"nonpayable","type":"constructor"},{"inputs":[{"internalType":"address","name":"owner","type":"address"}],"name":"OwnableInvalidOwner","type":"error"},{"inputs":[{"internalType":"address","name":"account","type":"address"}],"name":"OwnableUnauthorizedAccount","type":"error"},{"anonymous":false,"inputs":[{"indexed":true,"internalType":"address","name":"player","type":"address"},{"indexed":false,"internalType":"uint256","name":"totalPoints","type":"uint256"}],"name":"NewLeader","type":"event"},{"anonymous":false,"inputs":[{"indexed":true,"internalType":"address","name":"previousOwner","type":"address"},{"indexed":true,"internalType":"address","name":"newOwner","type":"address"}],"name":"OwnershipTransferred","type":"event"},{"anonymous":false,"inputs":[{"indexed":true,"internalType":"address","name":"player","type":"address"},{"indexed":false,"internalType":"uint256","name":"points","type":"uint256"},{"indexed":false,"internalType":"string","name":"reason","type":"string"}],"name":"PointsAwarded","type":"event"},{"anonymous":false,"inputs":[{"indexed":true,"internalType":"address","name":"player","type":"address"},{"indexed":false,"internalType":"uint256","name":"newRank","type":"uint256"}],"name":"RankUpdated","type":"event"},{"anonymous":false,"inputs":[{"indexed":true,"internalType":"address","name":"player","type":"address"},{"indexed":false,"internalType":"uint256","name":"amount","type":"uint256"}],"name":"RewardClaimed","type":"event"},{"inputs":[],"name":"POINTS_PER_BREED","outputs":[{"internalType":"uint256","name":"","type":"uint256"}],"stateMutability":"view","type":"function"},{"inputs":[],"name":"POINTS_PER_HATCH","outputs":[{"internalType":"uint256","name":"","type":"uint256"}],"stateMutability":"view","type":"function"},{"inputs":[],"name":"POINTS_PER_LEGENDARY_HATCH","outputs":[{"internalType":"uint256","name":"","type":"uint256"}],"stateMutability":"view","type":"function"},{"inputs":[],"name":"POINTS_PER_RARE_HATCH","outputs":[{"internalType":"uint256","name":"","type":"uint256"}],"stateMutability":"view","type":"function"},{"inputs":[],"name":"POINTS_PER_WIN","outputs":[{"internalType":"uint256","name":"","type":"uint256"}],"stateMutability":"view","type":"function"},{"inputs":[{"internalType":"uint256","name":"minPoints","type":"uint256"},{"internalType":"uint256","name":"rewardAmount","type":"uint256"},{"internalType":"string","name":"tierName","type":"string"}],"name":"addRewardTier","outputs":[],"stateMutability":"nonpayable","type":"function"},{"inputs":[],"name":"claimReward","outputs":[],"stateMutability":"nonpayable","type":"function"},{"inputs":[{"internalType":"address","name":"","type":"address"}],"name":"claimableRewards","outputs":[{"internalType":"uint256","name":"","type":"uint256"}],"stateMutability":"view","type":"function"},{"inputs":[],"name":"dragonNFTContract","outputs":[{"internalType":"address","name":"","type":"address"}],"stateMutability":"view","type":"function"},{"inputs":[],"name":"fundRewards","outputs":[],"stateMutability":"payable","type":"function"},{"inputs":[{"internalType":"address","name":"player","type":"address"}],"name":"getPlayerRank","outputs":[{"internalType":"uint256","name":"","type":"uint256"}],"stateMutability":"view","type":"function"},{"inputs":[{"internalType":"address","name":"player","type":"address"}],"name":"getPlayerStats","outputs":[{"components":[{"internalType":"uint256","name":"totalPoints","type":"uint256"},{"internalType":"uint256","name":"battlesWon","type":"uint256"},{"internalType":"uint256","name":"dragonsHatched","type":"uint256"},{"internalType":"uint256","name":"dragonsBred","type":"uint256"},{"internalType":"uint256","name":"rewardsClaimed","type":"uint256"},{"internalType":"uint256","name":"lastActivityTime","type":"uint256"},{"internalType":"uint256","name":"rank","type":"uint256"}],"internalType":"struct Leaderboard.PlayerStats","name":"","type":"tuple"}],"stateMutability":"view","type":"function"},{"inputs":[],"name":"getRewardTiers","outputs":[{"components":[{"internalType":"uint256","name":"minPoints","type":"uint256"},{"internalType":"uint256","name":"rewardAmount","type":"uint256"},{"internalType":"string","name":"tierName","type":"string"}],"internalType":"struct Leaderboard.RewardTier[]","name":"","type":"tuple[]"}],"stateMutability":"view","type":"function"},{"inputs":[{"internalType":"uint256","name":"count","type":"uint256"}],"name":"getTopPlayers","outputs":[{"internalType":"address[]","name":"","type":"address[]"},{"internalType":"uint256[]","name":"","type":"uint256[]"}],"stateMutability":"view","type":"function"},{"inputs":[],"name":"getTotalPlayers","outputs":[{"internalType":"uint256","name":"","type":"uint256"}],"stateMutability":"view","type":"function"},{"inputs":[{"internalType":"address","name":"","type":"address"}],"name":"isPlayer","outputs":[{"internalType":"bool","name":"","type":"bool"}],"stateMutability":"view","type":"function"},{"inputs":[],"name":"owner","outputs":[{"internalType":"address","name":"","type":"address"}],"stateMutability":"view","type":"function"},{"inputs":[{"internalType":"address","name":"","type":"address"}],"name":"playerStats","outputs":[{"internalType":"uint256","name":"totalPoints","type":"uint256"},{"internalType":"uint256","name":"battlesWon","type":"uint256"},{"internalType":"uint256","name":"dragonsHatched","type":"uint256"},{"internalType":"uint256","name":"dragonsBred","type":"uint256"},{"internalType":"uint256","name":"rewardsClaimed","type":"uint256"},{"internalType":"uint256","name":"lastActivityTime","type":"uint256"},{"internalType":"uint256","name":"rank","type":"uint256"}],"stateMutability":"view","type":"function"},{"inputs":[{"internalType":"uint256","name":"","type":"uint256"}],"name":"players","outputs":[{"internalType":"address","name":"","type":"address"}],"stateMutability":"view","type":"function"},{"inputs":[{"internalType":"address","name":"player","type":"address"}],"name":"recordBattleWin","outputs":[],"stateMutability":"nonpayable","type":"function"},{"inputs":[{"internalType":"address","name":"player","type":"address"}],"name":"recordBreed","outputs":[],"stateMutability":"nonpayable","type":"function"},{"inputs":[{"internalType":"address","name":"player","type":"address"},{"internalType":"bool","name":"isRare","type":"bool"},{"internalType":"bool","name":"isLegendary","type":"bool"}],"name":"recordHatch","outputs":[],"stateMutability":"nonpayable","type":"function"},{"inputs":[],"name":"renounceOwnership","outputs":[],"stateMutability":"nonpayable","type":"function"},{"inputs":[{"internalType":"uint256","name":"","type":"uint256"}],"name":"rewardTiers","outputs":[{"internalType":"uint256","name":"minPoints","type":"uint256"},{"internalType":"uint256","name":"rewardAmount","type":"uint256"},{"internalType":"string","name":"tierName","type":"string"}],"stateMutability":"view","type":"function"},{"inputs":[],"name":"rewardToken","outputs":[{"internalType":"address","name":"","type":"address"}],"stateMutability":"view","type":"function"},{"inputs":[],"name":"rewardsEnabled","outputs":[{"internalType":"bool","name":"","type":"bool"}],"stateMutability":"view","type":"function"},{"inputs":[{"internalType":"address","name":"_dragonNFT","type":"address"}],"name":"setDragonNFTContract","outputs":[],"stateMutability":"nonpayable","type":"function"},{"inputs":[{"internalType":"address","name":"_token","type":"address"}],"name":"setRewardToken","outputs":[],"stateMutability":"nonpayable","type":"function"},{"inputs":[{"internalType":"bool","name":"_enabled","type":"bool"}],"name":"setRewardsEnabled","outputs":[],"stateMutability":"nonpayable","type":"function"},{"inputs":[],"name":"totalPointsDistributed","outputs":[{"internalType":"uint256","name":"","type":"uint256"}],"stateMutability":"view","type":"function"},{"inputs":[{"internalType":"address","name":"newOwner","type":"address"}],"name":"transferOwnership","outputs":[],"stateMutability":"nonpayable","type":"function"},{"inputs":[],"name":"withdrawFunds","outputs":[],"stateMutability":"nonpayable","type":"function"},{"stateMutability":"payable","type":"receive"}],"evm":{"bytecode":{"linkReferences":{},"object":"608060409080825234620001df573315620001c9575060008054336001600160a01b0319821681178355916001600160a01b03909116907f8be0079c531659141344cd1fd0a4f28419497f9722a3daafe3b4186f6b6457e09080a3620001bb62000068620001e4565b6103e88152620000a6602091662386f26fc10000838201526200008a6200021a565b600681526542726f6e7a6560d01b84820152858201526200023a565b620000eb620000b4620001e4565b611388815266b1a2bc2ec5000083820152620000cf6200021a565b600681526529b4b63b32b960d11b84820152858201526200023a565b6200012f620000f9620001e4565b6127108152670214e8348c4f000083820152620001156200021a565b600481526311dbdb1960e21b84820152858201526200023a565b620001776200013d620001e4565b6161a881526706f05b59d3b2000083820152620001596200021a565b6008815267506c6174696e756d60c01b84820152858201526200023a565b62000181620001e4565b9061c3508252670de0b6b3a76400008183015266111a585b5bdb9960ca1b620001a96200021a565b9160078352820152838201526200023a565b516119159081620004018239f35b631e4fbdf760e01b815260006004820152602490fd5b600080fd5b60405190606082016001600160401b038111838210176200020457604052565b634e487b7160e01b600052604160045260246000fd5b60408051919082016001600160401b038111838210176200020457604052565b600480549068010000000000000000821015620003eb576001808301808355831015620003d65760008281526040600260209560038785209102018751815586880151858201550195015180519360018060401b038511620003c3578654908482811c92168015620003b8575b87831014620003a55750601f81116200035a575b508491601f8511600114620002f7579394508492919083620002eb575b50501b916000199060031b1c1916179055565b015192503880620002d8565b86815285812093958591601f198316915b888383106200033f575050501062000325575b505050811b019055565b015160001960f88460031b161c191690553880806200031b565b85870151885590960195948501948793509081019062000308565b868352858320601f860160051c8101918787106200039a575b601f0160051c019084905b8281106200038e575050620002bb565b8481550184906200037e565b909150819062000373565b634e487b7160e01b845260229052602483fd5b91607f1691620002a7565b634e487b7160e01b835260419052602482fd5b603282634e487b7160e01b6000525260246000fd5b604190634e487b7160e01b6000525260246000fdfe60406080815260048036101561001f575b5050361561001d57600080fd5b005b6000803560e01c806253d798146111af5780630271e3cc146110ad57806309c95e101461106f5780631074f75214610ec15780631dafe16b14610e9a57806324600fc314610e2057806332c69a0f14610e0457806333e5113914610de757806339ffa43414610da25780634529cae714610d83578063476b285c14610d5a5780634fd66eae14610c77578063715018a614610c1d5780637bc94d9814610bfe5780637ce9a33014610acf57806383b8c98e14610ab35780638aee812714610a6e5780638da5cb5b14610a46578063a697cb0e14610a0a578063b88a802f146108b6578063ba3c00671461073a578063cdafbbb6146106c2578063d00c7a77146106a6578063d08e69941461068a578063dc01f60d14610652578063ecb6c66a14610555578063f2fde38b146104cd578063f5f3a4aa146102b1578063f71d96cb1461026f578063f7c618c114610242578063ff18bf0b146101ec5763ff2011141461018a5750610010565b346101e95760203660031901126101e957813591548210156101e957506101b090611329565b50906101e582549160606101cb60026001870154960161139e565b918051958695865260208601528401526060830190611210565b0390f35b80fd5b50918260031936011261023e57610201611444565b341561020b578280f35b906020606492519162461bcd60e51b8352820152600d60248201526c139bc8199d5b991cc81cd95b9d609a1b6044820152fd5b8280fd5b50823461026b578160031936011261026b5760075490516001600160a01b039091168152602090f35b5080fd5b5091903461023e57602036600319011261023e5735916002548310156101e9575061029b6020926112dc565b905491519160018060a01b039160031b1c168152f35b50913461023e57606036600319011261023e576044359067ffffffffffffffff908183116104c957366023840112156104c957828401358281116104b65781519460209187601f199661030b8589601f860116018a6112ba565b8289526024923684828401011161023e578084879301838c013789010152610331611444565b835161033c81611282565b8235815283810194823586528101978852825494600160401b8610156104a45761036c6001968781018655611329565b92909261049357906002929151825551868201550196519182519586116104825750506103998654611364565b601f811161043c575b5081601f85116001146103dd57508394509083929187946103d2575b50501b916000199060031b1c191617905580f35b0151925038806103be565b9294849081168789528489209489905b888383106104225750505010610409575b505050811b01905580f35b015160001960f88460031b161c191690553880806103fe565b8587015188559096019594850194879350908101906103ed565b868852828820601f860160051c810191848710610478575b601f0160051c019084905b82811061046d5750506103a2565b89815501849061045f565b9091508190610454565b634e487b7160e01b89526041905287fd5b634e487b7160e01b8b528a8552838bfd5b634e487b7160e01b8a5260418452828afd5b634e487b7160e01b865260418552602486fd5b8480fd5b5091903461023e57602036600319011261023e576104e96111f5565b906104f2611444565b6001600160a01b0391821692831561053f57505082546001600160a01b0319811683178455167f8be0079c531659141344cd1fd0a4f28419497f9722a3daafe3b4186f6b6457e08380a380f35b51631e4fbdf760e01b8152908101849052602490fd5b50903461026b578160031936011261026b57805491610573836118b3565b61057f855191826112ba565b838152602093848201809484527f8a35acfbc15ff81a39ae7d344fd709f28e8600b4aa8c65c6b64bfe7fe36bd19b84915b83831061062d57505050508451938085019181865251809252858501868360051b8701019493965b8388106105e55786860387f35b9091929394838061061c600193603f198b8203018752858a5180518352848101518584015201519060609081888201520190611210565b9701930197019690939291936105d8565b600388600192610640859b98999b6117ba565b815201920192019190969493966105b0565b50823461026b57602036600319011261026b5760209181906001600160a01b0361067a6111f5565b1681526005845220549051908152f35b50823461026b578160031936011261026b576020905160968152f35b50823461026b578160031936011261026b576020905160c88152f35b5091903461023e57602036600319011261023e5760e09282906001600160a01b036106eb6111f5565b1681526001602052208054926001820154926002830154600384015491840154926006600586015495015495815197885260208801528601526060850152608084015260a083015260c0820152f35b50913461023e57602091826003193601126108b2576002549035818111156108a857509190925b61076a836118b3565b92610777855194856112ba565b808452610783816118b3565b9280850191601f1980950136843761079a816118b3565b906107a7885192836112ba565b8082526107b3816118b3565b8284019601368737845b81811061083e575050865196879681880191885251809152606087019390855b81811061081e57505050858303868301525180835291810193925b82811061080757505050500390f35b8351855286955093810193928101926001016107f8565b82516001600160a01b0316865289985094840194918401916001016107dd565b8061085361089b929a9495979698999a6112dc565b90546001600160a01b039160039190821b1c8216610871848e6118cb565b5261087b836112dc565b9054911b1c168652600187528386205461089582876118cb565b526114ad565b97969593949291976107bd565b9050919092610761565b8380fd5b5091903461023e578260031936011261023e5760ff60075460a01c16156109d2573383526020600581528284205491821561099a578247106109595733855260058252848481205560018252838520016109118382546114d2565b905583808080853382f11561094d577f106f923f993c2149d49b4255ff723acafa1f2d94393f561d3eda32ae348f72419192519283523392a280f35b505051903d90823e3d90fd5b60649184519162461bcd60e51b8352820152601d60248201527f496e73756666696369656e7420636f6e74726163742062616c616e63650000006044820152fd5b60649184519162461bcd60e51b835282015260146024820152734e6f207265776172647320617661696c61626c6560601b6044820152fd5b6020606492519162461bcd60e51b8352820152601360248201527214995dd85c991cc81b9bdd08195b98589b1959606a1b6044820152fd5b50823461026b57602036600319011261026b5760209160069082906001600160a01b03610a356111f5565b168152600185522001549051908152f35b50823461026b578160031936011261026b57905490516001600160a01b039091168152602090f35b50346101e95760203660031901126101e957610a886111f5565b610a90611444565b60018060a01b03166bffffffffffffffffffffffff60a01b600754161760075580f35b50823461026b578160031936011261026b576020905160328152f35b50913461023e57602036600319011261023e57610aea6111f5565b6006546001600160a01b0390811633148015610bf2575b610b0a90611470565b610b13826114df565b8116928385526001602052600183862001610b2e81546114ad565b9055838552600160205282852080549060648201809211610bdf5755838552600160205242600584872001556008549060648201809211610bcc575091610ba36080927f4c3089477cda1ac100291a040b3ac97ff5f55b6d8b2acfb56a59b9419d95ce0494600855610b9e611577565b6117e9565b600a81519160648352806020840152820152692130ba3a3632902bb4b760b11b6060820152a280f35b634e487b7160e01b865260119052602485fd5b634e487b7160e01b875260118352602487fd5b50845481163314610b01565b50823461026b578160031936011261026b576020906008549051908152f35b50346101e957806003193601126101e957610c36611444565b80546001600160a01b03198116825581906001600160a01b03167f8be0079c531659141344cd1fd0a4f28419497f9722a3daafe3b4186f6b6457e08280a380f35b50913461023e57602036600319011261023e578060e093610c966111f5565b8160c08451610ca481611250565b82815282602082015282868201528260608201528260808201528260a0820152015260018060a01b03168152600160205220815191610ce283611250565b81549384845260018301549160208501928352600284015481860190815260038501549260608701938452850154936080870194855260c0600660058801549760a08a0198895201549701968752825197885251602088015251908601525160608501525160808401525160a08301525160c0820152f35b50823461026b578160031936011261026b5760065490516001600160a01b039091168152602090f35b50823461026b578160031936011261026b576020906002549051908152f35b50346101e95760203660031901126101e957610dbc6111f5565b610dc4611444565b60018060a01b03166bffffffffffffffffffffffff60a01b600654161760065580f35b50823461026b578160031936011261026b57602090516101f48152f35b50823461026b578160031936011261026b576020905160648152f35b5091903461023e578260031936011261023e57610e3b611444565b47908115610e6c5750825483918291829182916001600160a01b031682f115610e62575080f35b51903d90823e3d90fd5b606490602084519162461bcd60e51b835282015260086024820152674e6f2066756e647360c01b6044820152fd5b50823461026b578160031936011261026b5760209060ff60075460a01c1690519015158152f35b50823461026b57606036600319011261026b57610edc6111f5565b6024359081151582036108b2576044359283151584036104c9576006547f4c3089477cda1ac100291a040b3ac97ff5f55b6d8b2acfb56a59b9419d95ce04936001600160a01b03929091831633148015611063575b610f3a90611470565b610f43846114df565b603291861561104a57610ff692506101f4935b851696878952610fb5602096600188526002858c2001610f7681546114ad565b9055898b5260018852848b20610f8d8882546114d2565b9055898b5260018852426005868d200155610faa876008546114d2565b600855610b9e611577565b15610ffc57508051610fc68161129e565b600f81526e098cacecadcc8c2e4f24090c2e8c6d608b1b85820152905b8080519586958652850152830190611210565b0390a280f35b1561102957805161100c8161129e565b600a8152690a4c2e4ca4090c2e8c6d60b31b858201525b90610fe3565b80516110348161129e565b6005815264090c2e8c6d60db1b85820152611023565b8061105a575b610ff69293610f56565b60c89250611050565b50865483163314610f31565b50823461026b57602036600319011261026b5760209160ff9082906001600160a01b0361109a6111f5565b1681526003855220541690519015158152f35b50913461023e57602036600319011261023e576110c86111f5565b6006546001600160a01b03908116331480156111a3575b6110e890611470565b6110f1826114df565b811692838552600160205260038386200161110c81546114ad565b9055838552600160205282852080549060968201809211610bdf5755838552600160205242600584872001556008549060968201809211610bcc57509161117c6080927f4c3089477cda1ac100291a040b3ac97ff5f55b6d8b2acfb56a59b9419d95ce0494600855610b9e611577565b600881519160968352806020840152820152674272656564696e6760c01b6060820152a280f35b508454811633146110df565b50903461026b57602036600319011261026b573580151580910361026b576111d5611444565b6007805460ff60a01b191660a09290921b60ff60a01b1691909117905580f35b600435906001600160a01b038216820361120b57565b600080fd5b919082519283825260005b84811061123c575050826000602080949584010152601f8019910116010190565b60208183018101518483018201520161121b565b60e0810190811067ffffffffffffffff82111761126c57604052565b634e487b7160e01b600052604160045260246000fd5b6060810190811067ffffffffffffffff82111761126c57604052565b6040810190811067ffffffffffffffff82111761126c57604052565b90601f8019910116810190811067ffffffffffffffff82111761126c57604052565b6002548110156113135760026000527f405787fa12a823e0f2b7631cc41b3ba8828b3321ca811111fa75cd3aa3bb5ace0190600090565b634e487b7160e01b600052603260045260246000fd5b600454811015611313576003906004600052027f8a35acfbc15ff81a39ae7d344fd709f28e8600b4aa8c65c6b64bfe7fe36bd19b0190600090565b90600182811c92168015611394575b602083101461137e57565b634e487b7160e01b600052602260045260246000fd5b91607f1691611373565b90604051918260008254926113b284611364565b90818452600194858116908160001461142157506001146113de575b50506113dc925003836112ba565b565b9093915060005260209081600020936000915b8183106114095750506113dc935082010138806113ce565b855488840185015294850194879450918301916113f1565b9150506113dc94506020925060ff191682840152151560051b82010138806113ce565b6000546001600160a01b0316330361145857565b60405163118cdaa760e01b8152336004820152602490fd5b1561147757565b60405162461bcd60e51b815260206004820152600e60248201526d139bdd08185d5d1a1bdc9a5e995960921b6044820152606490fd5b60001981146114bc5760010190565b634e487b7160e01b600052601160045260246000fd5b919082018092116114bc57565b6001600160a01b03811660008181526003602052604081205490929060ff161561150857505050565b600254600160401b81101561156357604093929161152f82600161154e94016002556112dc565b90919082549060031b9160018060a01b03809116831b921b1916179055565b8152600360205220805460ff19166001179055565b634e487b7160e01b84526041600452602484fd5b60005b600280548210806117b0575b1561166f57600190818301908184116114bc5790825b6115b2575b5050506115ad906114ad565b61157a565b8154811080611665575b156116605790611618826115d085946112dc565b60018060a01b03809254600392831b1c166000526020868152604087816000205492856115fc8d6112dc565b905490871b1c1660005252600020541061161f575b50506114ad565b909161159c565b61165082611659936116308b6112dc565b905490851b1c1692611641866112dc565b9054911b1c1661152f8a6112dc565b61152f836112dc565b3880611611565b6115a1565b50606481106115bc565b505060005b6002548110806117a6575b156117a357600190818101918282116114bc576116db9261169f836112dc565b92909160018060a01b03809354600395861b1c1660005260209180835260066040928082856000200154036116e0575b505050505050506114ad565b611674565b808392876116ed8b6112dc565b9054908b1b1c166000528387528560002001558561170a896112dc565b905490891b1c167f83868f8c9b95fb4e3033e4bd8340c88ee6137771dbaf89333c960a3183258fb7868651848152a214611746575b80806116cf565b837f67c9a9e267dea2a0d7aa75b534fb824a6be722311a388432892d1ffc92e9ab4494611772886112dc565b905490881b1c1695611783886112dc565b9054911b1c16600052825280600020549051908152a2388080808061173f565b50565b506064811061167f565b5060648210611586565b906040516117c781611282565b60406117e46002839580548552600181015460208601520161139e565b910152565b60ff60075460a01c16156117a35760018060a01b0316600081815260206001815260409283832054936004928354805b611827575b50505050505050565b60001981018181116118a05761183f61184591611329565b506117ba565b80518810156118725750801561185f576000190180611819565b634e487b7160e01b865260118552602486fd5b9050600593965081929594500151948352522080548211611898575b808080808061181e565b55388061188e565b634e487b7160e01b875260118652602487fd5b67ffffffffffffffff811161126c5760051b60200190565b80518210156113135760209160051b01019056fea26469706673582212207c6d8588c5628034ffda49ecf56d9142af2a0673a7207a8e915835a26468956b64736f6c63430008140033","opcodes":"PUSH1 0x80 PUSH1 0x40 SWAP1 DUP1 DUP3 MSTORE CALLVALUE PUSH3 0x1DF JUMPI CALLER ISZERO PUSH3 0x1C9 JUMPI POP PUSH1 0x0 DUP1 SLOAD CALLER PUSH1 0x1 PUSH1 0x1 PUSH1 0xA0 SHL SUB NOT DUP3 AND DUP2 OR DUP4 SSTORE SWAP2 PUSH1 0x1 PUSH1 0x1 PUSH1 0xA0 SHL SUB SWAP1 SWAP2 AND SWAP1 PUSH32 0x8BE0079C531659141344CD1FD0A4F28419497F9722A3DAAFE3B4186F6B6457E0 SWAP1 DUP1 LOG3 PUSH3 0x1BB PUSH3 0x68 PUSH3 0x1E4 JUMP JUMPDEST PUSH2 0x3E8 DUP2 MSTORE PUSH3 0xA6 PUSH1 0x20 SWAP2 PUSH7 0x2386F26FC10000 DUP4 DUP3 ADD MSTORE PUSH3 0x8A PUSH3 0x21A JUMP JUMPDEST PUSH1 0x6 DUP2 MSTORE PUSH6 0x42726F6E7A65 PUSH1 0xD0 SHL DUP5 DUP3 ADD MSTORE DUP6 DUP3 ADD MSTORE PUSH3 0x23A JUMP JUMPDEST PUSH3 0xEB PUSH3 0xB4 PUSH3 0x1E4 JUMP JUMPDEST PUSH2 0x1388 DUP2 MSTORE PUSH7 0xB1A2BC2EC50000 DUP4 DUP3 ADD MSTORE PUSH3 0xCF PUSH3 0x21A JUMP JUMPDEST PUSH1 0x6 DUP2 MSTORE PUSH6 0x29B4B63B32B9 PUSH1 0xD1 SHL DUP5 DUP3 ADD MSTORE DUP6 DUP3 ADD MSTORE PUSH3 0x23A JUMP JUMPDEST PUSH3 0x12F PUSH3 0xF9 PUSH3 0x1E4 JUMP JUMPDEST PUSH2 0x2710 DUP2 MSTORE PUSH8 0x214E8348C4F0000 DUP4 DUP3 ADD MSTORE PUSH3 0x115 PUSH3 0x21A JUMP JUMPDEST PUSH1 0x4 DUP2 MSTORE PUSH4 0x11DBDB19 PUSH1 0xE2 SHL DUP5 DUP3 ADD MSTORE DUP6 DUP3 ADD MSTORE PUSH3 0x23A JUMP JUMPDEST PUSH3 0x177 PUSH3 0x13D PUSH3 0x1E4 JUMP JUMPDEST PUSH2 0x61A8 DUP2 MSTORE PUSH8 0x6F05B59D3B20000 DUP4 DUP3 ADD MSTORE PUSH3 0x159 PUSH3 0x21A JUMP JUMPDEST PUSH1 0x8 DUP2 MSTORE PUSH8 0x506C6174696E756D PUSH1 0xC0 SHL DUP5 DUP3 ADD MSTORE DUP6 DUP3 ADD MSTORE PUSH3 0x23A JUMP JUMPDEST PUSH3 0x181 PUSH3 0x1E4 JUMP JUMPDEST SWAP1 PUSH2 0xC350 DUP3 MSTORE PUSH8 0xDE0B6B3A7640000 DUP2 DUP4 ADD MSTORE PUSH7 0x111A585B5BDB99 PUSH1 0xCA SHL PUSH3 0x1A9 PUSH3 0x21A JUMP JUMPDEST SWAP2 PUSH1 0x7 DUP4 MSTORE DUP3 ADD MSTORE DUP4 DUP3 ADD MSTORE PUSH3 0x23A JUMP JUMPDEST MLOAD PUSH2 0x1915 SWAP1 DUP2 PUSH3 0x401 DUP3 CODECOPY RETURN JUMPDEST PUSH4 0x1E4FBDF7 PUSH1 0xE0 SHL DUP2 MSTORE PUSH1 0x0 PUSH1 0x4 DUP3 ADD MSTORE PUSH1 0x24 SWAP1 REVERT JUMPDEST PUSH1 0x0 DUP1 REVERT JUMPDEST PUSH1 0x40 MLOAD SWAP1 PUSH1 0x60 DUP3 ADD PUSH1 0x1 PUSH1 0x1 PUSH1 0x40 SHL SUB DUP2 GT DUP4 DUP3 LT OR PUSH3 0x204 JUMPI PUSH1 0x40 MSTORE JUMP JUMPDEST PUSH4 0x4E487B71 PUSH1 0xE0 SHL PUSH1 0x0 MSTORE PUSH1 0x41 PUSH1 0x4 MSTORE PUSH1 0x24 PUSH1 0x0 REVERT JUMPDEST PUSH1 0x40 DUP1 MLOAD SWAP2 SWAP1 DUP3 ADD PUSH1 0x1 PUSH1 0x1 PUSH1 0x40 SHL SUB DUP2 GT DUP4 DUP3 LT OR PUSH3 0x204 JUMPI PUSH1 0x40 MSTORE JUMP JUMPDEST PUSH1 0x4 DUP1 SLOAD SWAP1 PUSH9 0x10000000000000000 DUP3 LT ISZERO PUSH3 0x3EB JUMPI PUSH1 0x1 DUP1 DUP4 ADD DUP1 DUP4 SSTORE DUP4 LT ISZERO PUSH3 0x3D6 JUMPI PUSH1 0x0 DUP3 DUP2 MSTORE PUSH1 0x40 PUSH1 0x2 PUSH1 0x20 SWAP6 PUSH1 0x3 DUP8 DUP6 KECCAK256 SWAP2 MUL ADD DUP8 MLOAD DUP2 SSTORE DUP7 DUP9 ADD MLOAD DUP6 DUP3 ADD SSTORE ADD SWAP6 ADD MLOAD DUP1 MLOAD SWAP4 PUSH1 0x1 DUP1 PUSH1 0x40 SHL SUB DUP6 GT PUSH3 0x3C3 JUMPI DUP7 SLOAD SWAP1 DUP5 DUP3 DUP2 SHR SWAP3 AND DUP1 ISZERO PUSH3 0x3B8 JUMPI JUMPDEST DUP8 DUP4 LT EQ PUSH3 0x3A5 JUMPI POP PUSH1 0x1F DUP2 GT PUSH3 0x35A JUMPI JUMPDEST POP DUP5 SWAP2 PUSH1 0x1F DUP6 GT PUSH1 0x1 EQ PUSH3 0x2F7 JUMPI SWAP4 SWAP5 POP DUP5 SWAP3 SWAP2 SWAP1 DUP4 PUSH3 0x2EB JUMPI JUMPDEST POP POP SHL SWAP2 PUSH1 0x0 NOT SWAP1 PUSH1 0x3 SHL SHR NOT AND OR SWAP1 SSTORE JUMP JUMPDEST ADD MLOAD SWAP3 POP CODESIZE DUP1 PUSH3 0x2D8 JUMP JUMPDEST DUP7 DUP2 MSTORE DUP6 DUP2 KECCAK256 SWAP4 SWAP6 DUP6 SWAP2 PUSH1 0x1F NOT DUP4 AND SWAP2 JUMPDEST DUP9 DUP4 DUP4 LT PUSH3 0x33F JUMPI POP POP POP LT PUSH3 0x325 JUMPI JUMPDEST POP POP POP DUP2 SHL ADD SWAP1 SSTORE JUMP JUMPDEST ADD MLOAD PUSH1 0x0 NOT PUSH1 0xF8 DUP5 PUSH1 0x3 SHL AND SHR NOT AND SWAP1 SSTORE CODESIZE DUP1 DUP1 PUSH3 0x31B JUMP JUMPDEST DUP6 DUP8 ADD MLOAD DUP9 SSTORE SWAP1 SWAP7 ADD SWAP6 SWAP5 DUP6 ADD SWAP5 DUP8 SWAP4 POP SWAP1 DUP2 ADD SWAP1 PUSH3 0x308 JUMP JUMPDEST DUP7 DUP4 MSTORE DUP6 DUP4 KECCAK256 PUSH1 0x1F DUP7 ADD PUSH1 0x5 SHR DUP2 ADD SWAP2 DUP8 DUP8 LT PUSH3 0x39A JUMPI JUMPDEST PUSH1 0x1F ADD PUSH1 0x5 SHR ADD SWAP1 DUP5 SWAP1 JUMPDEST DUP3 DUP2 LT PUSH3 0x38E JUMPI POP POP PUSH3 0x2BB JUMP JUMPDEST DUP5 DUP2 SSTORE ADD DUP5 SWAP1 PUSH3 0x37E JUMP JUMPDEST SWAP1 SWAP2 POP DUP2 SWAP1 PUSH3 0x373 JUMP JUMPDEST PUSH4 0x4E487B71 PUSH1 0xE0 SHL DUP5 MSTORE PUSH1 0x22 SWAP1 MSTORE PUSH1 0x24 DUP4 REVERT JUMPDEST SWAP2 PUSH1 0x7F AND SWAP2 PUSH3 0x2A7 JUMP JUMPDEST PUSH4 0x4E487B71 PUSH1 0xE0 SHL DUP4 MSTORE PUSH1 0x41 SWAP1 MSTORE PUSH1 0x24 DUP3 REVERT JUMPDEST PUSH1 0x32 DUP3 PUSH4 0x4E487B71 PUSH1 0xE0 SHL PUSH1 0x0 MSTORE MSTORE PUSH1 0x24 PUSH1 0x0 REVERT JUMPDEST PUSH1 0x41 SWAP1 PUSH4 0x4E487B71 PUSH1 0xE0 SHL PUSH1 0x0 MSTORE MSTORE PUSH1 0x24 PUSH1 0x0 REVERT INVALID PUSH1 0x40 PUSH1 0x80 DUP2 MSTORE PUSH1 0x4 DUP1 CALLDATASIZE LT ISZERO PUSH2 0x1F JUMPI JUMPDEST POP POP CALLDATASIZE ISZERO PUSH2 0x1D JUMPI PUSH1 0x0 DUP1 REVERT JUMPDEST STOP JUMPDEST PUSH1 0x0 DUP1 CALLDATALOAD PUSH1 0xE0 SHR DUP1 PUSH3 0x53D798 EQ PUSH2 0x11AF JUMPI DUP1 PUSH4 0x271E3CC EQ PUSH2 0x10AD JUMPI DUP1 PUSH4 0x9C95E10 EQ PUSH2 0x106F JUMPI DUP1 PUSH4 0x1074F752 EQ PUSH2 0xEC1 JUMPI DUP1 PUSH4 0x1DAFE16B EQ PUSH2 0xE9A JUMPI DUP1 PUSH4 0x24600FC3 EQ PUSH2 0xE20 JUMPI DUP1 PUSH4 0x32C69A0F EQ PUSH2 0xE04 JUMPI DUP1 PUSH4 0x33E51139 EQ PUSH2 0xDE7 JUMPI DUP1 PUSH4 0x39FFA434 EQ PUSH2 0xDA2 JUMPI DUP1 PUSH4 0x4529CAE7 EQ PUSH2 0xD83 JUMPI DUP1 PUSH4 0x476B285C EQ PUSH2 0xD5A JUMPI DUP1 PUSH4 0x4FD66EAE EQ PUSH2 0xC77 JUMPI DUP1 PUSH4 0x715018A6 EQ PUSH2 0xC1D JUMPI DUP1 PUSH4 0x7BC94D98 EQ PUSH2 0xBFE JUMPI DUP1 PUSH4 0x7CE9A330 EQ PUSH2 0xACF JUMPI DUP1 PUSH4 0x83B8C98E EQ PUSH2 0xAB3 JUMPI DUP1 PUSH4 0x8AEE8127 EQ PUSH2 0xA6E JUMPI DUP1 PUSH4 0x8DA5CB5B EQ PUSH2 0xA46 JUMPI DUP1 PUSH4 0xA697CB0E EQ PUSH2 0xA0A JUMPI DUP1 PUSH4 0xB88A802F EQ PUSH2 0x8B6 JUMPI DUP1 PUSH4 0xBA3C0067 EQ PUSH2 0x73A JUMPI DUP1 PUSH4 0xCDAFBBB6 EQ PUSH2 0x6C2 JUMPI DUP1 PUSH4 0xD00C7A77 EQ PUSH2 0x6A6 JUMPI DUP1 PUSH4 0xD08E6994 EQ PUSH2 0x68A JUMPI DUP1 PUSH4 0xDC01F60D EQ PUSH2 0x652 JUMPI DUP1 PUSH4 0xECB6C66A EQ PUSH2 0x555 JUMPI DUP1 PUSH4 0xF2FDE38B EQ PUSH2 0x4CD JUMPI DUP1 PUSH4 0xF5F3A4AA EQ PUSH2 0x2B1 JUMPI DUP1 PUSH4 0xF71D96CB EQ PUSH2 0x26F JUMPI DUP1 PUSH4 0xF7C618C1 EQ PUSH2 0x242 JUMPI DUP1 PUSH4 0xFF18BF0B EQ PUSH2 0x1EC JUMPI PUSH4 0xFF201114 EQ PUSH2 0x18A JUMPI POP PUSH2 0x10 JUMP JUMPDEST CALLVALUE PUSH2 0x1E9 JUMPI PUSH1 0x20 CALLDATASIZE PUSH1 0x3 NOT ADD SLT PUSH2 0x1E9 JUMPI DUP2 CALLDATALOAD SWAP2 SLOAD DUP3 LT ISZERO PUSH2 0x1E9 JUMPI POP PUSH2 0x1B0 SWAP1 PUSH2 0x1329 JUMP JUMPDEST POP SWAP1 PUSH2 0x1E5 DUP3 SLOAD SWAP2 PUSH1 0x60 PUSH2 0x1CB PUSH1 0x2 PUSH1 0x1 DUP8 ADD SLOAD SWAP7 ADD PUSH2 0x139E JUMP JUMPDEST SWAP2 DUP1 MLOAD SWAP6 DUP7 SWAP6 DUP7 MSTORE PUSH1 0x20 DUP7 ADD MSTORE DUP5 ADD MSTORE PUSH1 0x60 DUP4 ADD SWAP1 PUSH2 0x1210 JUMP JUMPDEST SUB SWAP1 RETURN JUMPDEST DUP1 REVERT JUMPDEST POP SWAP2 DUP3 PUSH1 0x3 NOT CALLDATASIZE ADD SLT PUSH2 0x23E JUMPI PUSH2 0x201 PUSH2 0x1444 JUMP JUMPDEST CALLVALUE ISZERO PUSH2 0x20B JUMPI DUP3 DUP1 RETURN JUMPDEST SWAP1 PUSH1 0x20 PUSH1 0x64 SWAP3 MLOAD SWAP2 PUSH3 0x461BCD PUSH1 0xE5 SHL DUP4 MSTORE DUP3 ADD MSTORE PUSH1 0xD PUSH1 0x24 DUP3 ADD MSTORE PUSH13 0x139BC8199D5B991CC81CD95B9D PUSH1 0x9A SHL PUSH1 0x44 DUP3 ADD MSTORE REVERT JUMPDEST DUP3 DUP1 REVERT JUMPDEST POP DUP3 CALLVALUE PUSH2 0x26B JUMPI DUP2 PUSH1 0x3 NOT CALLDATASIZE ADD SLT PUSH2 0x26B JUMPI PUSH1 0x7 SLOAD SWAP1 MLOAD PUSH1 0x1 PUSH1 0x1 PUSH1 0xA0 SHL SUB SWAP1 SWAP2 AND DUP2 MSTORE PUSH1 0x20 SWAP1 RETURN JUMPDEST POP DUP1 REVERT JUMPDEST POP SWAP2 SWAP1 CALLVALUE PUSH2 0x23E JUMPI PUSH1 0x20 CALLDATASIZE PUSH1 0x3 NOT ADD SLT PUSH2 0x23E JUMPI CALLDATALOAD SWAP2 PUSH1 0x2 SLOAD DUP4 LT ISZERO PUSH2 0x1E9 JUMPI POP PUSH2 0x29B PUSH1 0x20 SWAP3 PUSH2 0x12DC JUMP JUMPDEST SWAP1 SLOAD SWAP2 MLOAD SWAP2 PUSH1 0x1 DUP1 PUSH1 0xA0 SHL SUB SWAP2 PUSH1 0x3 SHL SHR AND DUP2 MSTORE RETURN JUMPDEST POP SWAP2 CALLVALUE PUSH2 0x23E JUMPI PUSH1 0x60 CALLDATASIZE PUSH1 0x3 NOT ADD SLT PUSH2 0x23E JUMPI PUSH1 0x44 CALLDATALOAD SWAP1 PUSH8 0xFFFFFFFFFFFFFFFF SWAP1 DUP2 DUP4 GT PUSH2 0x4C9 JUMPI CALLDATASIZE PUSH1 0x23 DUP5 ADD SLT ISZERO PUSH2 0x4C9 JUMPI DUP3 DUP5 ADD CALLDATALOAD DUP3 DUP2 GT PUSH2 0x4B6 JUMPI DUP2 MLOAD SWAP5 PUSH1 0x20 SWAP2 DUP8 PUSH1 0x1F NOT SWAP7 PUSH2 0x30B DUP6 DUP10 PUSH1 0x1F DUP7 ADD AND ADD DUP11 PUSH2 0x12BA JUMP JUMPDEST DUP3 DUP10 MSTORE PUSH1 0x24 SWAP3 CALLDATASIZE DUP5 DUP3 DUP5 ADD ADD GT PUSH2 0x23E JUMPI DUP1 DUP5 DUP8 SWAP4 ADD DUP4 DUP13 ADD CALLDATACOPY DUP10 ADD ADD MSTORE PUSH2 0x331 PUSH2 0x1444 JUMP JUMPDEST DUP4 MLOAD PUSH2 0x33C DUP2 PUSH2 0x1282 JUMP JUMPDEST DUP3 CALLDATALOAD DUP2 MSTORE DUP4 DUP2 ADD SWAP5 DUP3 CALLDATALOAD DUP7 MSTORE DUP2 ADD SWAP8 DUP9 MSTORE DUP3 SLOAD SWAP5 PUSH1 0x1 PUSH1 0x40 SHL DUP7 LT ISZERO PUSH2 0x4A4 JUMPI PUSH2 0x36C PUSH1 0x1 SWAP7 DUP8 DUP2 ADD DUP7 SSTORE PUSH2 0x1329 JUMP JUMPDEST SWAP3 SWAP1 SWAP3 PUSH2 0x493 JUMPI SWAP1 PUSH1 0x2 SWAP3 SWAP2 MLOAD DUP3 SSTORE MLOAD DUP7 DUP3 ADD SSTORE ADD SWAP7 MLOAD SWAP2 DUP3 MLOAD SWAP6 DUP7 GT PUSH2 0x482 JUMPI POP POP PUSH2 0x399 DUP7 SLOAD PUSH2 0x1364 JUMP JUMPDEST PUSH1 0x1F DUP2 GT PUSH2 0x43C JUMPI JUMPDEST POP DUP2 PUSH1 0x1F DUP6 GT PUSH1 0x1 EQ PUSH2 0x3DD JUMPI POP DUP4 SWAP5 POP SWAP1 DUP4 SWAP3 SWAP2 DUP8 SWAP5 PUSH2 0x3D2 JUMPI JUMPDEST POP POP SHL SWAP2 PUSH1 0x0 NOT SWAP1 PUSH1 0x3 SHL SHR NOT AND OR SWAP1 SSTORE DUP1 RETURN JUMPDEST ADD MLOAD SWAP3 POP CODESIZE DUP1 PUSH2 0x3BE JUMP JUMPDEST SWAP3 SWAP5 DUP5 SWAP1 DUP2 AND DUP8 DUP10 MSTORE DUP5 DUP10 KECCAK256 SWAP5 DUP10 SWAP1 JUMPDEST DUP9 DUP4 DUP4 LT PUSH2 0x422 JUMPI POP POP POP LT PUSH2 0x409 JUMPI JUMPDEST POP POP POP DUP2 SHL ADD SWAP1 SSTORE DUP1 RETURN JUMPDEST ADD MLOAD PUSH1 0x0 NOT PUSH1 0xF8 DUP5 PUSH1 0x3 SHL AND SHR NOT AND SWAP1 SSTORE CODESIZE DUP1 DUP1 PUSH2 0x3FE JUMP JUMPDEST DUP6 DUP8 ADD MLOAD DUP9 SSTORE SWAP1 SWAP7 ADD SWAP6 SWAP5 DUP6 ADD SWAP5 DUP8 SWAP4 POP SWAP1 DUP2 ADD SWAP1 PUSH2 0x3ED JUMP JUMPDEST DUP7 DUP9 MSTORE DUP3 DUP9 KECCAK256 PUSH1 0x1F DUP7 ADD PUSH1 0x5 SHR DUP2 ADD SWAP2 DUP5 DUP8 LT PUSH2 0x478 JUMPI JUMPDEST PUSH1 0x1F ADD PUSH1 0x5 SHR ADD SWAP1 DUP5 SWAP1 JUMPDEST DUP3 DUP2 LT PUSH2 0x46D JUMPI POP POP PUSH2 0x3A2 JUMP JUMPDEST DUP10 DUP2 SSTORE ADD DUP5 SWAP1 PUSH2 0x45F JUMP JUMPDEST SWAP1 SWAP2 POP DUP2 SWAP1 PUSH2 0x454 JUMP JUMPDEST PUSH4 0x4E487B71 PUSH1 0xE0 SHL DUP10 MSTORE PUSH1 0x41 SWAP1 MSTORE DUP8 REVERT JUMPDEST PUSH4 0x4E487B71 PUSH1 0xE0 SHL DUP12 MSTORE DUP11 DUP6 MSTORE DUP4 DUP12 REVERT JUMPDEST PUSH4 0x4E487B71 PUSH1 0xE0 SHL DUP11 MSTORE PUSH1 0x41 DUP5 MSTORE DUP3 DUP11 REVERT JUMPDEST PUSH4 0x4E487B71 PUSH1 0xE0 SHL DUP7 MSTORE PUSH1 0x41 DUP6 MSTORE PUSH1 0x24 DUP7 REVERT JUMPDEST DUP5 DUP1 REVERT JUMPDEST POP SWAP2 SWAP1 CALLVALUE PUSH2 0x23E JUMPI PUSH1 0x20 CALLDATASIZE PUSH1 0x3 NOT ADD SLT PUSH2 0x23E JUMPI PUSH2 0x4E9 PUSH2 0x11F5 JUMP JUMPDEST SWAP1 PUSH2 0x4F2 PUSH2 0x1444 JUMP JUMPDEST PUSH1 0x1 PUSH1 0x1 PUSH1 0xA0 SHL SUB SWAP2 DUP3 AND SWAP3 DUP4 ISZERO PUSH2 0x53F JUMPI POP POP DUP3 SLOAD PUSH1 0x1 PUSH1 0x1 PUSH1 0xA0 SHL SUB NOT DUP2 AND DUP4 OR DUP5 SSTORE AND PUSH32 0x8BE0079C531659141344CD1FD0A4F28419497F9722A3DAAFE3B4186F6B6457E0 DUP4 DUP1 LOG3 DUP1 RETURN JUMPDEST MLOAD PUSH4 0x1E4FBDF7 PUSH1 0xE0 SHL DUP2 MSTORE SWAP1 DUP2 ADD DUP5 SWAP1 MSTORE PUSH1 0x24 SWAP1 REVERT JUMPDEST POP SWAP1 CALLVALUE PUSH2 0x26B JUMPI DUP2 PUSH1 0x3 NOT CALLDATASIZE ADD SLT PUSH2 0x26B JUMPI DUP1 SLOAD SWAP2 PUSH2 0x573 DUP4 PUSH2 0x18B3 JUMP JUMPDEST PUSH2 0x57F DUP6 MLOAD SWAP2 DUP3 PUSH2 0x12BA JUMP JUMPDEST DUP4 DUP2 MSTORE PUSH1 0x20 SWAP4 DUP5 DUP3 ADD DUP1 SWAP5 DUP5 MSTORE PUSH32 0x8A35ACFBC15FF81A39AE7D344FD709F28E8600B4AA8C65C6B64BFE7FE36BD19B DUP5 SWAP2 JUMPDEST DUP4 DUP4 LT PUSH2 0x62D JUMPI POP POP POP POP DUP5 MLOAD SWAP4 DUP1 DUP6 ADD SWAP2 DUP2 DUP7 MSTORE MLOAD DUP1 SWAP3 MSTORE DUP6 DUP6 ADD DUP7 DUP4 PUSH1 0x5 SHL DUP8 ADD ADD SWAP5 SWAP4 SWAP7 JUMPDEST DUP4 DUP9 LT PUSH2 0x5E5 JUMPI DUP7 DUP7 SUB DUP8 RETURN JUMPDEST SWAP1 SWAP2 SWAP3 SWAP4 SWAP5 DUP4 DUP1 PUSH2 0x61C PUSH1 0x1 SWAP4 PUSH1 0x3F NOT DUP12 DUP3 SUB ADD DUP8 MSTORE DUP6 DUP11 MLOAD DUP1 MLOAD DUP4 MSTORE DUP5 DUP2 ADD MLOAD DUP6 DUP5 ADD MSTORE ADD MLOAD SWAP1 PUSH1 0x60 SWAP1 DUP2 DUP9 DUP3 ADD MSTORE ADD SWAP1 PUSH2 0x1210 JUMP JUMPDEST SWAP8 ADD SWAP4 ADD SWAP8 ADD SWAP7 SWAP1 SWAP4 SWAP3 SWAP2 SWAP4 PUSH2 0x5D8 JUMP JUMPDEST PUSH1 0x3 DUP9 PUSH1 0x1 SWAP3 PUSH2 0x640 DUP6 SWAP12 SWAP9 SWAP10 SWAP12 PUSH2 0x17BA JUMP JUMPDEST DUP2 MSTORE ADD SWAP3 ADD SWAP3 ADD SWAP2 SWAP1 SWAP7 SWAP5 SWAP4 SWAP7 PUSH2 0x5B0 JUMP JUMPDEST POP DUP3 CALLVALUE PUSH2 0x26B JUMPI PUSH1 0x20 CALLDATASIZE PUSH1 0x3 NOT ADD SLT PUSH2 0x26B JUMPI PUSH1 0x20 SWAP2 DUP2 SWAP1 PUSH1 0x1 PUSH1 0x1 PUSH1 0xA0 SHL SUB PUSH2 0x67A PUSH2 0x11F5 JUMP JUMPDEST AND DUP2 MSTORE PUSH1 0x5 DUP5 MSTORE KECCAK256 SLOAD SWAP1 MLOAD SWAP1 DUP2 MSTORE RETURN JUMPDEST POP DUP3 CALLVALUE PUSH2 0x26B JUMPI DUP2 PUSH1 0x3 NOT CALLDATASIZE ADD SLT PUSH2 0x26B JUMPI PUSH1 0x20 SWAP1 MLOAD PUSH1 0x96 DUP2 MSTORE RETURN JUMPDEST POP DUP3 CALLVALUE PUSH2 0x26B JUMPI DUP2 PUSH1 0x3 NOT CALLDATASIZE ADD SLT PUSH2 0x26B JUMPI PUSH1 0x20 SWAP1 MLOAD PUSH1 0xC8 DUP2 MSTORE RETURN JUMPDEST POP SWAP2 SWAP1 CALLVALUE PUSH2 0x23E JUMPI PUSH1 0x20 CALLDATASIZE PUSH1 0x3 NOT ADD SLT PUSH2 0x23E JUMPI PUSH1 0xE0 SWAP3 DUP3 SWAP1 PUSH1 0x1 PUSH1 0x1 PUSH1 0xA0 SHL SUB PUSH2 0x6EB PUSH2 0x11F5 JUMP JUMPDEST AND DUP2 MSTORE PUSH1 0x1 PUSH1 0x20 MSTORE KECCAK256 DUP1 SLOAD SWAP3 PUSH1 0x1 DUP3 ADD SLOAD SWAP3 PUSH1 0x2 DUP4 ADD SLOAD PUSH1 0x3 DUP5 ADD SLOAD SWAP2 DUP5 ADD SLOAD SWAP3 PUSH1 0x6 PUSH1 0x5 DUP7 ADD SLOAD SWAP6 ADD SLOAD SWAP6 DUP2 MLOAD SWAP8 DUP9 MSTORE PUSH1 0x20 DUP9 ADD MSTORE DUP7 ADD MSTORE PUSH1 0x60 DUP6 ADD MSTORE PUSH1 0x80 DUP5 ADD MSTORE PUSH1 0xA0 DUP4 ADD MSTORE PUSH1 0xC0 DUP3 ADD MSTORE RETURN JUMPDEST POP SWAP2 CALLVALUE PUSH2 0x23E JUMPI PUSH1 0x20 SWAP2 DUP3 PUSH1 0x3 NOT CALLDATASIZE ADD SLT PUSH2 0x8B2 JUMPI PUSH1 0x2 SLOAD SWAP1 CALLDATALOAD DUP2 DUP2 GT ISZERO PUSH2 0x8A8 JUMPI POP SWAP2 SWAP1 SWAP3 JUMPDEST PUSH2 0x76A DUP4 PUSH2 0x18B3 JUMP JUMPDEST SWAP3 PUSH2 0x777 DUP6 MLOAD SWAP5 DUP6 PUSH2 0x12BA JUMP JUMPDEST DUP1 DUP5 MSTORE PUSH2 0x783 DUP2 PUSH2 0x18B3 JUMP JUMPDEST SWAP3 DUP1 DUP6 ADD SWAP2 PUSH1 0x1F NOT DUP1 SWAP6 ADD CALLDATASIZE DUP5 CALLDATACOPY PUSH2 0x79A DUP2 PUSH2 0x18B3 JUMP JUMPDEST SWAP1 PUSH2 0x7A7 DUP9 MLOAD SWAP3 DUP4 PUSH2 0x12BA JUMP JUMPDEST DUP1 DUP3 MSTORE PUSH2 0x7B3 DUP2 PUSH2 0x18B3 JUMP JUMPDEST DUP3 DUP5 ADD SWAP7 ADD CALLDATASIZE DUP8 CALLDATACOPY DUP5 JUMPDEST DUP2 DUP2 LT PUSH2 0x83E JUMPI POP POP DUP7 MLOAD SWAP7 DUP8 SWAP7 DUP2 DUP9 ADD SWAP2 DUP9 MSTORE MLOAD DUP1 SWAP2 MSTORE PUSH1 0x60 DUP8 ADD SWAP4 SWAP1 DUP6 JUMPDEST DUP2 DUP2 LT PUSH2 0x81E JUMPI POP POP POP DUP6 DUP4 SUB DUP7 DUP4 ADD MSTORE MLOAD DUP1 DUP4 MSTORE SWAP2 DUP2 ADD SWAP4 SWAP3 JUMPDEST DUP3 DUP2 LT PUSH2 0x807 JUMPI POP POP POP POP SUB SWAP1 RETURN JUMPDEST DUP4 MLOAD DUP6 MSTORE DUP7 SWAP6 POP SWAP4 DUP2 ADD SWAP4 SWAP3 DUP2 ADD SWAP3 PUSH1 0x1 ADD PUSH2 0x7F8 JUMP JUMPDEST DUP3 MLOAD PUSH1 0x1 PUSH1 0x1 PUSH1 0xA0 SHL SUB AND DUP7 MSTORE DUP10 SWAP9 POP SWAP5 DUP5 ADD SWAP5 SWAP2 DUP5 ADD SWAP2 PUSH1 0x1 ADD PUSH2 0x7DD JUMP JUMPDEST DUP1 PUSH2 0x853 PUSH2 0x89B SWAP3 SWAP11 SWAP5 SWAP6 SWAP8 SWAP7 SWAP9 SWAP10 SWAP11 PUSH2 0x12DC JUMP JUMPDEST SWAP1 SLOAD PUSH1 0x1 PUSH1 0x1 PUSH1 0xA0 SHL SUB SWAP2 PUSH1 0x3 SWAP2 SWAP1 DUP3 SHL SHR DUP3 AND PUSH2 0x871 DUP5 DUP15 PUSH2 0x18CB JUMP JUMPDEST MSTORE PUSH2 0x87B DUP4 PUSH2 0x12DC JUMP JUMPDEST SWAP1 SLOAD SWAP2 SHL SHR AND DUP7 MSTORE PUSH1 0x1 DUP8 MSTORE DUP4 DUP7 KECCAK256 SLOAD PUSH2 0x895 DUP3 DUP8 PUSH2 0x18CB JUMP JUMPDEST MSTORE PUSH2 0x14AD JUMP JUMPDEST SWAP8 SWAP7 SWAP6 SWAP4 SWAP5 SWAP3 SWAP2 SWAP8 PUSH2 0x7BD JUMP JUMPDEST SWAP1 POP SWAP2 SWAP1 SWAP3 PUSH2 0x761 JUMP JUMPDEST DUP4 DUP1 REVERT JUMPDEST POP SWAP2 SWAP1 CALLVALUE PUSH2 0x23E JUMPI DUP3 PUSH1 0x3 NOT CALLDATASIZE ADD SLT PUSH2 0x23E JUMPI PUSH1 0xFF PUSH1 0x7 SLOAD PUSH1 0xA0 SHR AND ISZERO PUSH2 0x9D2 JUMPI CALLER DUP4 MSTORE PUSH1 0x20 PUSH1 0x5 DUP2 MSTORE DUP3 DUP5 KECCAK256 SLOAD SWAP2 DUP3 ISZERO PUSH2 0x99A JUMPI DUP3 SELFBALANCE LT PUSH2 0x959 JUMPI CALLER DUP6 MSTORE PUSH1 0x5 DUP3 MSTORE DUP5 DUP5 DUP2 KECCAK256 SSTORE PUSH1 0x1 DUP3 MSTORE DUP4 DUP6 KECCAK256 ADD PUSH2 0x911 DUP4 DUP3 SLOAD PUSH2 0x14D2 JUMP JUMPDEST SWAP1 SSTORE DUP4 DUP1 DUP1 DUP1 DUP6 CALLER DUP3 CALL ISZERO PUSH2 0x94D JUMPI PUSH32 0x106F923F993C2149D49B4255FF723ACAFA1F2D94393F561D3EDA32AE348F7241 SWAP2 SWAP3 MLOAD SWAP3 DUP4 MSTORE CALLER SWAP3 LOG2 DUP1 RETURN JUMPDEST POP POP MLOAD SWAP1 RETURNDATASIZE SWAP1 DUP3 RETURNDATACOPY RETURNDATASIZE SWAP1 REVERT JUMPDEST PUSH1 0x64 SWAP2 DUP5 MLOAD SWAP2 PUSH3 0x461BCD PUSH1 0xE5 SHL DUP4 MSTORE DUP3 ADD MSTORE PUSH1 0x1D PUSH1 0x24 DUP3 ADD MSTORE PUSH32 0x496E73756666696369656E7420636F6E74726163742062616C616E6365000000 PUSH1 0x44 DUP3 ADD MSTORE REVERT JUMPDEST PUSH1 0x64 SWAP2 DUP5 MLOAD SWAP2 PUSH3 0x461BCD PUSH1 0xE5 SHL DUP4 MSTORE DUP3 ADD MSTORE PUSH1 0x14 PUSH1 0x24 DUP3 ADD MSTORE PUSH20 0x4E6F207265776172647320617661696C61626C65 PUSH1 0x60 SHL PUSH1 0x44 DUP3 ADD MSTORE REVERT JUMPDEST PUSH1 0x20 PUSH1 0x64 SWAP3 MLOAD SWAP2 PUSH3 0x461BCD PUSH1 0xE5 SHL DUP4 MSTORE DUP3 ADD MSTORE PUSH1 0x13 PUSH1 0x24 DUP3 ADD MSTORE PUSH19 0x14995DD85C991CC81B9BDD08195B98589B1959 PUSH1 0x6A SHL PUSH1 0x44 DUP3 ADD MSTORE REVERT JUMPDEST POP DUP3 CALLVALUE PUSH2 0x26B JUMPI PUSH1 0x20 CALLDATASIZE PUSH1 0x3 NOT ADD SLT PUSH2 0x26B JUMPI PUSH1 0x20 SWAP2 PUSH1 0x6 SWAP1 DUP3 SWAP1 PUSH1 0x1 PUSH1 0x1 PUSH1 0xA0 SHL SUB PUSH2 0xA35 PUSH2 0x11F5 JUMP JUMPDEST AND DUP2 MSTORE PUSH1 0x1 DUP6 MSTORE KECCAK256 ADD SLOAD SWAP1 MLOAD SWAP1 DUP2 MSTORE RETURN JUMPDEST POP DUP3 CALLVALUE PUSH2 0x26B JUMPI DUP2 PUSH1 0x3 NOT CALLDATASIZE ADD SLT PUSH2 0x26B JUMPI SWAP1 SLOAD SWAP1 MLOAD PUSH1 0x1 PUSH1 0x1 PUSH1 0xA0 SHL SUB SWAP1 SWAP2 AND DUP2 MSTORE PUSH1 0x20 SWAP1 RETURN JUMPDEST POP CALLVALUE PUSH2 0x1E9 JUMPI PUSH1 0x20 CALLDATASIZE PUSH1 0x3 NOT ADD SLT PUSH2 0x1E9 JUMPI PUSH2 0xA88 PUSH2 0x11F5 JUMP JUMPDEST PUSH2 0xA90 PUSH2 0x1444 JUMP JUMPDEST PUSH1 0x1 DUP1 PUSH1 0xA0 SHL SUB AND PUSH12 0xFFFFFFFFFFFFFFFFFFFFFFFF PUSH1 0xA0 SHL PUSH1 0x7 SLOAD AND OR PUSH1 0x7 SSTORE DUP1 RETURN JUMPDEST POP DUP3 CALLVALUE PUSH2 0x26B JUMPI DUP2 PUSH1 0x3 NOT CALLDATASIZE ADD SLT PUSH2 0x26B JUMPI PUSH1 0x20 SWAP1 MLOAD PUSH1 0x32 DUP2 MSTORE RETURN JUMPDEST POP SWAP2 CALLVALUE PUSH2 0x23E JUMPI PUSH1 0x20 CALLDATASIZE PUSH1 0x3 NOT ADD SLT PUSH2 0x23E JUMPI PUSH2 0xAEA PUSH2 0x11F5 JUMP JUMPDEST PUSH1 0x6 SLOAD PUSH1 0x1 PUSH1 0x1 PUSH1 0xA0 SHL SUB SWAP1 DUP2 AND CALLER EQ DUP1 ISZERO PUSH2 0xBF2 JUMPI JUMPDEST PUSH2 0xB0A SWAP1 PUSH2 0x1470 JUMP JUMPDEST PUSH2 0xB13 DUP3 PUSH2 0x14DF JUMP JUMPDEST DUP2 AND SWAP3 DUP4 DUP6 MSTORE PUSH1 0x1 PUSH1 0x20 MSTORE PUSH1 0x1 DUP4 DUP7 KECCAK256 ADD PUSH2 0xB2E DUP2 SLOAD PUSH2 0x14AD JUMP JUMPDEST SWAP1 SSTORE DUP4 DUP6 MSTORE PUSH1 0x1 PUSH1 0x20 MSTORE DUP3 DUP6 KECCAK256 DUP1 SLOAD SWAP1 PUSH1 0x64 DUP3 ADD DUP1 SWAP3 GT PUSH2 0xBDF JUMPI SSTORE DUP4 DUP6 MSTORE PUSH1 0x1 PUSH1 0x20 MSTORE TIMESTAMP PUSH1 0x5 DUP5 DUP8 KECCAK256 ADD SSTORE PUSH1 0x8 SLOAD SWAP1 PUSH1 0x64 DUP3 ADD DUP1 SWAP3 GT PUSH2 0xBCC JUMPI POP SWAP2 PUSH2 0xBA3 PUSH1 0x80 SWAP3 PUSH32 0x4C3089477CDA1AC100291A040B3AC97FF5F55B6D8B2ACFB56A59B9419D95CE04 SWAP5 PUSH1 0x8 SSTORE PUSH2 0xB9E PUSH2 0x1577 JUMP JUMPDEST PUSH2 0x17E9 JUMP JUMPDEST PUSH1 0xA DUP2 MLOAD SWAP2 PUSH1 0x64 DUP4 MSTORE DUP1 PUSH1 0x20 DUP5 ADD MSTORE DUP3 ADD MSTORE PUSH10 0x2130BA3A3632902BB4B7 PUSH1 0xB1 SHL PUSH1 0x60 DUP3 ADD MSTORE LOG2 DUP1 RETURN JUMPDEST PUSH4 0x4E487B71 PUSH1 0xE0 SHL DUP7 MSTORE PUSH1 0x11 SWAP1 MSTORE PUSH1 0x24 DUP6 REVERT JUMPDEST PUSH4 0x4E487B71 PUSH1 0xE0 SHL DUP8 MSTORE PUSH1 0x11 DUP4 MSTORE PUSH1 0x24 DUP8 REVERT JUMPDEST POP DUP5 SLOAD DUP2 AND CALLER EQ PUSH2 0xB01 JUMP JUMPDEST POP DUP3 CALLVALUE PUSH2 0x26B JUMPI DUP2 PUSH1 0x3 NOT CALLDATASIZE ADD SLT PUSH2 0x26B JUMPI PUSH1 0x20 SWAP1 PUSH1 0x8 SLOAD SWAP1 MLOAD SWAP1 DUP2 MSTORE RETURN JUMPDEST POP CALLVALUE PUSH2 0x1E9 JUMPI DUP1 PUSH1 0x3 NOT CALLDATASIZE ADD SLT PUSH2 0x1E9 JUMPI PUSH2 0xC36 PUSH2 0x1444 JUMP JUMPDEST DUP1 SLOAD PUSH1 0x1 PUSH1 0x1 PUSH1 0xA0 SHL SUB NOT DUP2 AND DUP3 SSTORE DUP2 SWAP1 PUSH1 0x1 PUSH1 0x1 PUSH1 0xA0 SHL SUB AND PUSH32 0x8BE0079C531659141344CD1FD0A4F28419497F9722A3DAAFE3B4186F6B6457E0 DUP3 DUP1 LOG3 DUP1 RETURN JUMPDEST POP SWAP2 CALLVALUE PUSH2 0x23E JUMPI PUSH1 0x20 CALLDATASIZE PUSH1 0x3 NOT ADD SLT PUSH2 0x23E JUMPI DUP1 PUSH1 0xE0 SWAP4 PUSH2 0xC96 PUSH2 0x11F5 JUMP JUMPDEST DUP2 PUSH1 0xC0 DUP5 MLOAD PUSH2 0xCA4 DUP2 PUSH2 0x1250 JUMP JUMPDEST DUP3 DUP2 MSTORE DUP3 PUSH1 0x20 DUP3 ADD MSTORE DUP3 DUP7 DUP3 ADD MSTORE DUP3 PUSH1 0x60 DUP3 ADD MSTORE DUP3 PUSH1 0x80 DUP3 ADD MSTORE DUP3 PUSH1 0xA0 DUP3 ADD MSTORE ADD MSTORE PUSH1 0x1 DUP1 PUSH1 0xA0 SHL SUB AND DUP2 MSTORE PUSH1 0x1 PUSH1 0x20 MSTORE KECCAK256 DUP2 MLOAD SWAP2 PUSH2 0xCE2 DUP4 PUSH2 0x1250 JUMP JUMPDEST DUP2 SLOAD SWAP4 DUP5 DUP5 MSTORE PUSH1 0x1 DUP4 ADD SLOAD SWAP2 PUSH1 0x20 DUP6 ADD SWAP3 DUP4 MSTORE PUSH1 0x2 DUP5 ADD SLOAD DUP2 DUP7 ADD SWAP1 DUP2 MSTORE PUSH1 0x3 DUP6 ADD SLOAD SWAP3 PUSH1 0x60 DUP8 ADD SWAP4 DUP5 MSTORE DUP6 ADD SLOAD SWAP4 PUSH1 0x80 DUP8 ADD SWAP5 DUP6 MSTORE PUSH1 0xC0 PUSH1 0x6 PUSH1 0x5 DUP9 ADD SLOAD SWAP8 PUSH1 0xA0 DUP11 ADD SWAP9 DUP10 MSTORE ADD SLOAD SWAP8 ADD SWAP7 DUP8 MSTORE DUP3 MLOAD SWAP8 DUP9 MSTORE MLOAD PUSH1 0x20 DUP9 ADD MSTORE MLOAD SWAP1 DUP7 ADD MSTORE MLOAD PUSH1 0x60 DUP6 ADD MSTORE MLOAD PUSH1 0x80 DUP5 ADD MSTORE MLOAD PUSH1 0xA0 DUP4 ADD MSTORE MLOAD PUSH1 0xC0 DUP3 ADD MSTORE RETURN JUMPDEST POP DUP3 CALLVALUE PUSH2 0x26B JUMPI DUP2 PUSH1 0x3 NOT CALLDATASIZE ADD SLT PUSH2 0x26B JUMPI PUSH1 0x6 SLOAD SWAP1 MLOAD PUSH1 0x1 PUSH1 0x1 PUSH1 0xA0 SHL SUB SWAP1 SWAP2 AND DUP2 MSTORE PUSH1 0x20 SWAP1 RETURN JUMPDEST POP DUP3 CALLVALUE PUSH2 0x26B JUMPI DUP2 PUSH1 0x3 NOT CALLDATASIZE ADD SLT PUSH2 0x26B JUMPI PUSH1 0x20 SWAP1 PUSH1 0x2 SLOAD SWAP1 MLOAD SWAP1 DUP2 MSTORE RETURN JUMPDEST POP CALLVALUE PUSH2 0x1E9 JUMPI PUSH1 0x20 CALLDATASIZE PUSH1 0x3 NOT ADD SLT PUSH2 0x1E9 JUMPI PUSH2 0xDBC PUSH2 0x11F5 JUMP JUMPDEST PUSH2 0xDC4 PUSH2 0x1444 JUMP JUMPDEST PUSH1 0x1 DUP1 PUSH1 0xA0 SHL SUB AND PUSH12 0xFFFFFFFFFFFFFFFFFFFFFFFF PUSH1 0xA0 SHL PUSH1 0x6 SLOAD AND OR PUSH1 0x6 SSTORE DUP1 RETURN JUMPDEST POP DUP3 CALLVALUE PUSH2 0x26B JUMPI DUP2 PUSH1 0x3 NOT CALLDATASIZE ADD SLT PUSH2 0x26B JUMPI PUSH1 0x20 SWAP1 MLOAD PUSH2 0x1F4 DUP2 MSTORE RETURN JUMPDEST POP DUP3 CALLVALUE PUSH2 0x26B JUMPI DUP2 PUSH1 0x3 NOT CALLDATASIZE ADD SLT PUSH2 0x26B JUMPI PUSH1 0x20 SWAP1 MLOAD PUSH1 0x64 DUP2 MSTORE RETURN JUMPDEST POP SWAP2 SWAP1 CALLVALUE PUSH2 0x23E JUMPI DUP3 PUSH1 0x3 NOT CALLDATASIZE ADD SLT PUSH2 0x23E JUMPI PUSH2 0xE3B PUSH2 0x1444 JUMP JUMPDEST SELFBALANCE SWAP1 DUP2 ISZERO PUSH2 0xE6C JUMPI POP DUP3 SLOAD DUP4 SWAP2 DUP3 SWAP2 DUP3 SWAP2 DUP3 SWAP2 PUSH1 0x1 PUSH1 0x1 PUSH1 0xA0 SHL SUB AND DUP3 CALL ISZERO PUSH2 0xE62 JUMPI POP DUP1 RETURN JUMPDEST MLOAD SWAP1 RETURNDATASIZE SWAP1 DUP3 RETURNDATACOPY RETURNDATASIZE SWAP1 REVERT JUMPDEST PUSH1 0x64 SWAP1 PUSH1 0x20 DUP5 MLOAD SWAP2 PUSH3 0x461BCD PUSH1 0xE5 SHL DUP4 MSTORE DUP3 ADD MSTORE PUSH1 0x8 PUSH1 0x24 DUP3 ADD MSTORE PUSH8 0x4E6F2066756E6473 PUSH1 0xC0 SHL PUSH1 0x44 DUP3 ADD MSTORE REVERT JUMPDEST POP DUP3 CALLVALUE PUSH2 0x26B JUMPI DUP2 PUSH1 0x3 NOT CALLDATASIZE ADD SLT PUSH2 0x26B JUMPI PUSH1 0x20 SWAP1 PUSH1 0xFF PUSH1 0x7 SLOAD PUSH1 0xA0 SHR AND SWAP1 MLOAD SWAP1 ISZERO ISZERO DUP2 MSTORE RETURN JUMPDEST POP DUP3 CALLVALUE PUSH2 0x26B JUMPI PUSH1 0x60 CALLDATASIZE PUSH1 0x3 NOT ADD SLT PUSH2 0x26B JUMPI PUSH2 0xEDC PUSH2 0x11F5 JUMP JUMPDEST PUSH1 0x24 CALLDATALOAD SWAP1 DUP2 ISZERO ISZERO DUP3 SUB PUSH2 0x8B2 JUMPI PUSH1 0x44 CALLDATALOAD SWAP3 DUP4 ISZERO ISZERO DUP5 SUB PUSH2 0x4C9 JUMPI PUSH1 0x6 SLOAD PUSH32 0x4C3089477CDA1AC100291A040B3AC97FF5F55B6D8B2ACFB56A59B9419D95CE04 SWAP4 PUSH1 0x1 PUSH1 0x1 PUSH1 0xA0 SHL SUB SWAP3 SWAP1 SWAP2 DUP4 AND CALLER EQ DUP1 ISZERO PUSH2 0x1063 JUMPI JUMPDEST PUSH2 0xF3A SWAP1 PUSH2 0x1470 JUMP JUMPDEST PUSH2 0xF43 DUP5 PUSH2 0x14DF JUMP JUMPDEST PUSH1 0x32 SWAP2 DUP7 ISZERO PUSH2 0x104A JUMPI PUSH2 0xFF6 SWAP3 POP PUSH2 0x1F4 SWAP4 JUMPDEST DUP6 AND SWAP7 DUP8 DUP10 MSTORE PUSH2 0xFB5 PUSH1 0x20 SWAP7 PUSH1 0x1 DUP9 MSTORE PUSH1 0x2 DUP6 DUP13 KECCAK256 ADD PUSH2 0xF76 DUP2 SLOAD PUSH2 0x14AD JUMP JUMPDEST SWAP1 SSTORE DUP10 DUP12 MSTORE PUSH1 0x1 DUP9 MSTORE DUP5 DUP12 KECCAK256 PUSH2 0xF8D DUP9 DUP3 SLOAD PUSH2 0x14D2 JUMP JUMPDEST SWAP1 SSTORE DUP10 DUP12 MSTORE PUSH1 0x1 DUP9 MSTORE TIMESTAMP PUSH1 0x5 DUP7 DUP14 KECCAK256 ADD SSTORE PUSH2 0xFAA DUP8 PUSH1 0x8 SLOAD PUSH2 0x14D2 JUMP JUMPDEST PUSH1 0x8 SSTORE PUSH2 0xB9E PUSH2 0x1577 JUMP JUMPDEST ISZERO PUSH2 0xFFC JUMPI POP DUP1 MLOAD PUSH2 0xFC6 DUP2 PUSH2 0x129E JUMP JUMPDEST PUSH1 0xF DUP2 MSTORE PUSH15 0x98CACECADCC8C2E4F24090C2E8C6D PUSH1 0x8B SHL DUP6 DUP3 ADD MSTORE SWAP1 JUMPDEST DUP1 DUP1 MLOAD SWAP6 DUP7 SWAP6 DUP7 MSTORE DUP6 ADD MSTORE DUP4 ADD SWAP1 PUSH2 0x1210 JUMP JUMPDEST SUB SWAP1 LOG2 DUP1 RETURN JUMPDEST ISZERO PUSH2 0x1029 JUMPI DUP1 MLOAD PUSH2 0x100C DUP2 PUSH2 0x129E JUMP JUMPDEST PUSH1 0xA DUP2 MSTORE PUSH10 0xA4C2E4CA4090C2E8C6D PUSH1 0xB3 SHL DUP6 DUP3 ADD MSTORE JUMPDEST SWAP1 PUSH2 0xFE3 JUMP JUMPDEST DUP1 MLOAD PUSH2 0x1034 DUP2 PUSH2 0x129E JUMP JUMPDEST PUSH1 0x5 DUP2 MSTORE PUSH5 0x90C2E8C6D PUSH1 0xDB SHL DUP6 DUP3 ADD MSTORE PUSH2 0x1023 JUMP JUMPDEST DUP1 PUSH2 0x105A JUMPI JUMPDEST PUSH2 0xFF6 SWAP3 SWAP4 PUSH2 0xF56 JUMP JUMPDEST PUSH1 0xC8 SWAP3 POP PUSH2 0x1050 JUMP JUMPDEST POP DUP7 SLOAD DUP4 AND CALLER EQ PUSH2 0xF31 JUMP JUMPDEST POP DUP3 CALLVALUE PUSH2 0x26B JUMPI PUSH1 0x20 CALLDATASIZE PUSH1 0x3 NOT ADD SLT PUSH2 0x26B JUMPI PUSH1 0x20 SWAP2 PUSH1 0xFF SWAP1 DUP3 SWAP1 PUSH1 0x1 PUSH1 0x1 PUSH1 0xA0 SHL SUB PUSH2 0x109A PUSH2 0x11F5 JUMP JUMPDEST AND DUP2 MSTORE PUSH1 0x3 DUP6 MSTORE KECCAK256 SLOAD AND SWAP1 MLOAD SWAP1 ISZERO ISZERO DUP2 MSTORE RETURN JUMPDEST POP SWAP2 CALLVALUE PUSH2 0x23E JUMPI PUSH1 0x20 CALLDATASIZE PUSH1 0x3 NOT ADD SLT PUSH2 0x23E JUMPI PUSH2 0x10C8 PUSH2 0x11F5 JUMP JUMPDEST PUSH1 0x6 SLOAD PUSH1 0x1 PUSH1 0x1 PUSH1 0xA0 SHL SUB SWAP1 DUP2 AND CALLER EQ DUP1 ISZERO PUSH2 0x11A3 JUMPI JUMPDEST PUSH2 0x10E8 SWAP1 PUSH2 0x1470 JUMP JUMPDEST PUSH2 0x10F1 DUP3 PUSH2 0x14DF JUMP JUMPDEST DUP2 AND SWAP3 DUP4 DUP6 MSTORE PUSH1 0x1 PUSH1 0x20 MSTORE PUSH1 0x3 DUP4 DUP7 KECCAK256 ADD PUSH2 0x110C DUP2 SLOAD PUSH2 0x14AD JUMP JUMPDEST SWAP1 SSTORE DUP4 DUP6 MSTORE PUSH1 0x1 PUSH1 0x20 MSTORE DUP3 DUP6 KECCAK256 DUP1 SLOAD SWAP1 PUSH1 0x96 DUP3 ADD DUP1 SWAP3 GT PUSH2 0xBDF JUMPI SSTORE DUP4 DUP6 MSTORE PUSH1 0x1 PUSH1 0x20 MSTORE TIMESTAMP PUSH1 0x5 DUP5 DUP8 KECCAK256 ADD SSTORE PUSH1 0x8 SLOAD SWAP1 PUSH1 0x96 DUP3 ADD DUP1 SWAP3 GT PUSH2 0xBCC JUMPI POP SWAP2 PUSH2 0x117C PUSH1 0x80 SWAP3 PUSH32 0x4C3089477CDA1AC100291A040B3AC97FF5F55B6D8B2ACFB56A59B9419D95CE04 SWAP5 PUSH1 0x8 SSTORE PUSH2 0xB9E PUSH2 0x1577 JUMP JUMPDEST PUSH1 0x8 DUP2 MLOAD SWAP2 PUSH1 0x96 DUP4 MSTORE DUP1 PUSH1 0x20 DUP5 ADD MSTORE DUP3 ADD MSTORE PUSH8 0x4272656564696E67 PUSH1 0xC0 SHL PUSH1 0x60 DUP3 ADD MSTORE LOG2 DUP1 RETURN JUMPDEST POP DUP5 SLOAD DUP2 AND CALLER EQ PUSH2 0x10DF JUMP JUMPDEST POP SWAP1 CALLVALUE PUSH2 0x26B JUMPI PUSH1 0x20 CALLDATASIZE PUSH1 0x3 NOT ADD SLT PUSH2 0x26B JUMPI CALLDATALOAD DUP1 ISZERO ISZERO DUP1 SWAP2 SUB PUSH2 0x26B JUMPI PUSH2 0x11D5 PUSH2 0x1444 JUMP JUMPDEST PUSH1 0x7 DUP1 SLOAD PUSH1 0xFF PUSH1 0xA0 SHL NOT AND PUSH1 0xA0 SWAP3 SWAP1 SWAP3 SHL PUSH1 0xFF PUSH1 0xA0 SHL AND SWAP2 SWAP1 SWAP2 OR SWAP1 SSTORE DUP1 RETURN JUMPDEST PUSH1 0x4 CALLDATALOAD SWAP1 PUSH1 0x1 PUSH1 0x1 PUSH1 0xA0 SHL SUB DUP3 AND DUP3 SUB PUSH2 0x120B JUMPI JUMP JUMPDEST PUSH1 0x0 DUP1 REVERT JUMPDEST SWAP2 SWAP1 DUP3 MLOAD SWAP3 DUP4 DUP3 MSTORE PUSH1 0x0 JUMPDEST DUP5 DUP2 LT PUSH2 0x123C JUMPI POP POP DUP3 PUSH1 0x0 PUSH1 0x20 DUP1 SWAP5 SWAP6 DUP5 ADD ADD MSTORE PUSH1 0x1F DUP1 NOT SWAP2 ADD AND ADD ADD SWAP1 JUMP JUMPDEST PUSH1 0x20 DUP2 DUP4 ADD DUP2 ADD MLOAD DUP5 DUP4 ADD DUP3 ADD MSTORE ADD PUSH2 0x121B JUMP JUMPDEST PUSH1 0xE0 DUP2 ADD SWAP1 DUP2 LT PUSH8 0xFFFFFFFFFFFFFFFF DUP3 GT OR PUSH2 0x126C JUMPI PUSH1 0x40 MSTORE JUMP JUMPDEST PUSH4 0x4E487B71 PUSH1 0xE0 SHL PUSH1 0x0 MSTORE PUSH1 0x41 PUSH1 0x4 MSTORE PUSH1 0x24 PUSH1 0x0 REVERT JUMPDEST PUSH1 0x60 DUP2 ADD SWAP1 DUP2 LT PUSH8 0xFFFFFFFFFFFFFFFF DUP3 GT OR PUSH2 0x126C JUMPI PUSH1 0x40 MSTORE JUMP JUMPDEST PUSH1 0x40 DUP2 ADD SWAP1 DUP2 LT PUSH8 0xFFFFFFFFFFFFFFFF DUP3 GT OR PUSH2 0x126C JUMPI PUSH1 0x40 MSTORE JUMP JUMPDEST SWAP1 PUSH1 0x1F DUP1 NOT SWAP2 ADD AND DUP2 ADD SWAP1 DUP2 LT PUSH8 0xFFFFFFFFFFFFFFFF DUP3 GT OR PUSH2 0x126C JUMPI PUSH1 0x40 MSTORE JUMP JUMPDEST PUSH1 0x2 SLOAD DUP2 LT ISZERO PUSH2 0x1313 JUMPI PUSH1 0x2 PUSH1 0x0 MSTORE PUSH32 0x405787FA12A823E0F2B7631CC41B3BA8828B3321CA811111FA75CD3AA3BB5ACE ADD SWAP1 PUSH1 0x0 SWAP1 JUMP JUMPDEST PUSH4 0x4E487B71 PUSH1 0xE0 SHL PUSH1 0x0 MSTORE PUSH1 0x32 PUSH1 0x4 MSTORE PUSH1 0x24 PUSH1 0x0 REVERT JUMPDEST PUSH1 0x4 SLOAD DUP2 LT ISZERO PUSH2 0x1313 JUMPI PUSH1 0x3 SWAP1 PUSH1 0x4 PUSH1 0x0 MSTORE MUL PUSH32 0x8A35ACFBC15FF81A39AE7D344FD709F28E8600B4AA8C65C6B64BFE7FE36BD19B ADD SWAP1 PUSH1 0x0 SWAP1 JUMP JUMPDEST SWAP1 PUSH1 0x1 DUP3 DUP2 SHR SWAP3 AND DUP1 ISZERO PUSH2 0x1394 JUMPI JUMPDEST PUSH1 0x20 DUP4 LT EQ PUSH2 0x137E JUMPI JUMP JUMPDEST PUSH4 0x4E487B71 PUSH1 0xE0 SHL PUSH1 0x0 MSTORE PUSH1 0x22 PUSH1 0x4 MSTORE PUSH1 0x24 PUSH1 0x0 REVERT JUMPDEST SWAP2 PUSH1 0x7F AND SWAP2 PUSH2 0x1373 JUMP JUMPDEST SWAP1 PUSH1 0x40 MLOAD SWAP2 DUP3 PUSH1 0x0 DUP3 SLOAD SWAP3 PUSH2 0x13B2 DUP5 PUSH2 0x1364 JUMP JUMPDEST SWAP1 DUP2 DUP5 MSTORE PUSH1 0x1 SWAP5 DUP6 DUP2 AND SWAP1 DUP2 PUSH1 0x0 EQ PUSH2 0x1421 JUMPI POP PUSH1 0x1 EQ PUSH2 0x13DE JUMPI JUMPDEST POP POP PUSH2 0x13DC SWAP3 POP SUB DUP4 PUSH2 0x12BA JUMP JUMPDEST JUMP JUMPDEST SWAP1 SWAP4 SWAP2 POP PUSH1 0x0 MSTORE PUSH1 0x20 SWAP1 DUP2 PUSH1 0x0 KECCAK256 SWAP4 PUSH1 0x0 SWAP2 JUMPDEST DUP2 DUP4 LT PUSH2 0x1409 JUMPI POP POP PUSH2 0x13DC SWAP4 POP DUP3 ADD ADD CODESIZE DUP1 PUSH2 0x13CE JUMP JUMPDEST DUP6 SLOAD DUP9 DUP5 ADD DUP6 ADD MSTORE SWAP5 DUP6 ADD SWAP5 DUP8 SWAP5 POP SWAP2 DUP4 ADD SWAP2 PUSH2 0x13F1 JUMP JUMPDEST SWAP2 POP POP PUSH2 0x13DC SWAP5 POP PUSH1 0x20 SWAP3 POP PUSH1 0xFF NOT AND DUP3 DUP5 ADD MSTORE ISZERO ISZERO PUSH1 0x5 SHL DUP3 ADD ADD CODESIZE DUP1 PUSH2 0x13CE JUMP JUMPDEST PUSH1 0x0 SLOAD PUSH1 0x1 PUSH1 0x1 PUSH1 0xA0 SHL SUB AND CALLER SUB PUSH2 0x1458 JUMPI JUMP JUMPDEST PUSH1 0x40 MLOAD PUSH4 0x118CDAA7 PUSH1 0xE0 SHL DUP2 MSTORE CALLER PUSH1 0x4 DUP3 ADD MSTORE PUSH1 0x24 SWAP1 REVERT JUMPDEST ISZERO PUSH2 0x1477 JUMPI JUMP JUMPDEST PUSH1 0x40 MLOAD PUSH3 0x461BCD PUSH1 0xE5 SHL DUP2 MSTORE PUSH1 0x20 PUSH1 0x4 DUP3 ADD MSTORE PUSH1 0xE PUSH1 0x24 DUP3 ADD MSTORE PUSH14 0x139BDD08185D5D1A1BDC9A5E9959 PUSH1 0x92 SHL PUSH1 0x44 DUP3 ADD MSTORE PUSH1 0x64 SWAP1 REVERT JUMPDEST PUSH1 0x0 NOT DUP2 EQ PUSH2 0x14BC JUMPI PUSH1 0x1 ADD SWAP1 JUMP JUMPDEST PUSH4 0x4E487B71 PUSH1 0xE0 SHL PUSH1 0x0 MSTORE PUSH1 0x11 PUSH1 0x4 MSTORE PUSH1 0x24 PUSH1 0x0 REVERT JUMPDEST SWAP2 SWAP1 DUP3 ADD DUP1 SWAP3 GT PUSH2 0x14BC JUMPI JUMP JUMPDEST PUSH1 0x1 PUSH1 0x1 PUSH1 0xA0 SHL SUB DUP2 AND PUSH1 0x0 DUP2 DUP2 MSTORE PUSH1 0x3 PUSH1 0x20 MSTORE PUSH1 0x40 DUP2 KECCAK256 SLOAD SWAP1 SWAP3 SWAP1 PUSH1 0xFF AND ISZERO PUSH2 0x1508 JUMPI POP POP POP JUMP JUMPDEST PUSH1 0x2 SLOAD PUSH1 0x1 PUSH1 0x40 SHL DUP2 LT ISZERO PUSH2 0x1563 JUMPI PUSH1 0x40 SWAP4 SWAP3 SWAP2 PUSH2 0x152F DUP3 PUSH1 0x1 PUSH2 0x154E SWAP5 ADD PUSH1 0x2 SSTORE PUSH2 0x12DC JUMP JUMPDEST SWAP1 SWAP2 SWAP1 DUP3 SLOAD SWAP1 PUSH1 0x3 SHL SWAP2 PUSH1 0x1 DUP1 PUSH1 0xA0 SHL SUB DUP1 SWAP2 AND DUP4 SHL SWAP3 SHL NOT AND OR SWAP1 SSTORE JUMP JUMPDEST DUP2 MSTORE PUSH1 0x3 PUSH1 0x20 MSTORE KECCAK256 DUP1 SLOAD PUSH1 0xFF NOT AND PUSH1 0x1 OR SWAP1 SSTORE JUMP JUMPDEST PUSH4 0x4E487B71 PUSH1 0xE0 SHL DUP5 MSTORE PUSH1 0x41 PUSH1 0x4 MSTORE PUSH1 0x24 DUP5 REVERT JUMPDEST PUSH1 0x0 JUMPDEST PUSH1 0x2 DUP1 SLOAD DUP3 LT DUP1 PUSH2 0x17B0 JUMPI JUMPDEST ISZERO PUSH2 0x166F JUMPI PUSH1 0x1 SWAP1 DUP2 DUP4 ADD SWAP1 DUP2 DUP5 GT PUSH2 0x14BC JUMPI SWAP1 DUP3 JUMPDEST PUSH2 0x15B2 JUMPI JUMPDEST POP POP POP PUSH2 0x15AD SWAP1 PUSH2 0x14AD JUMP JUMPDEST PUSH2 0x157A JUMP JUMPDEST DUP2 SLOAD DUP2 LT DUP1 PUSH2 0x1665 JUMPI JUMPDEST ISZERO PUSH2 0x1660 JUMPI SWAP1 PUSH2 0x1618 DUP3 PUSH2 0x15D0 DUP6 SWAP5 PUSH2 0x12DC JUMP JUMPDEST PUSH1 0x1 DUP1 PUSH1 0xA0 SHL SUB DUP1 SWAP3 SLOAD PUSH1 0x3 SWAP3 DUP4 SHL SHR AND PUSH1 0x0 MSTORE PUSH1 0x20 DUP7 DUP2 MSTORE PUSH1 0x40 DUP8 DUP2 PUSH1 0x0 KECCAK256 SLOAD SWAP3 DUP6 PUSH2 0x15FC DUP14 PUSH2 0x12DC JUMP JUMPDEST SWAP1 SLOAD SWAP1 DUP8 SHL SHR AND PUSH1 0x0 MSTORE MSTORE PUSH1 0x0 KECCAK256 SLOAD LT PUSH2 0x161F JUMPI JUMPDEST POP POP PUSH2 0x14AD JUMP JUMPDEST SWAP1 SWAP2 PUSH2 0x159C JUMP JUMPDEST PUSH2 0x1650 DUP3 PUSH2 0x1659 SWAP4 PUSH2 0x1630 DUP12 PUSH2 0x12DC JUMP JUMPDEST SWAP1 SLOAD SWAP1 DUP6 SHL SHR AND SWAP3 PUSH2 0x1641 DUP7 PUSH2 0x12DC JUMP JUMPDEST SWAP1 SLOAD SWAP2 SHL SHR AND PUSH2 0x152F DUP11 PUSH2 0x12DC JUMP JUMPDEST PUSH2 0x152F DUP4 PUSH2 0x12DC JUMP JUMPDEST CODESIZE DUP1 PUSH2 0x1611 JUMP JUMPDEST PUSH2 0x15A1 JUMP JUMPDEST POP PUSH1 0x64 DUP2 LT PUSH2 0x15BC JUMP JUMPDEST POP POP PUSH1 0x0 JUMPDEST PUSH1 0x2 SLOAD DUP2 LT DUP1 PUSH2 0x17A6 JUMPI JUMPDEST ISZERO PUSH2 0x17A3 JUMPI PUSH1 0x1 SWAP1 DUP2 DUP2 ADD SWAP2 DUP3 DUP3 GT PUSH2 0x14BC JUMPI PUSH2 0x16DB SWAP3 PUSH2 0x169F DUP4 PUSH2 0x12DC JUMP JUMPDEST SWAP3 SWAP1 SWAP2 PUSH1 0x1 DUP1 PUSH1 0xA0 SHL SUB DUP1 SWAP4 SLOAD PUSH1 0x3 SWAP6 DUP7 SHL SHR AND PUSH1 0x0 MSTORE PUSH1 0x20 SWAP2 DUP1 DUP4 MSTORE PUSH1 0x6 PUSH1 0x40 SWAP3 DUP1 DUP3 DUP6 PUSH1 0x0 KECCAK256 ADD SLOAD SUB PUSH2 0x16E0 JUMPI JUMPDEST POP POP POP POP POP POP POP PUSH2 0x14AD JUMP JUMPDEST PUSH2 0x1674 JUMP JUMPDEST DUP1 DUP4 SWAP3 DUP8 PUSH2 0x16ED DUP12 PUSH2 0x12DC JUMP JUMPDEST SWAP1 SLOAD SWAP1 DUP12 SHL SHR AND PUSH1 0x0 MSTORE DUP4 DUP8 MSTORE DUP6 PUSH1 0x0 KECCAK256 ADD SSTORE DUP6 PUSH2 0x170A DUP10 PUSH2 0x12DC JUMP JUMPDEST SWAP1 SLOAD SWAP1 DUP10 SHL SHR AND PUSH32 0x83868F8C9B95FB4E3033E4BD8340C88EE6137771DBAF89333C960A3183258FB7 DUP7 DUP7 MLOAD DUP5 DUP2 MSTORE LOG2 EQ PUSH2 0x1746 JUMPI JUMPDEST DUP1 DUP1 PUSH2 0x16CF JUMP JUMPDEST DUP4 PUSH32 0x67C9A9E267DEA2A0D7AA75B534FB824A6BE722311A388432892D1FFC92E9AB44 SWAP5 PUSH2 0x1772 DUP9 PUSH2 0x12DC JUMP JUMPDEST SWAP1 SLOAD SWAP1 DUP9 SHL SHR AND SWAP6 PUSH2 0x1783 DUP9 PUSH2 0x12DC JUMP JUMPDEST SWAP1 SLOAD SWAP2 SHL SHR AND PUSH1 0x0 MSTORE DUP3 MSTORE DUP1 PUSH1 0x0 KECCAK256 SLOAD SWAP1 MLOAD SWAP1 DUP2 MSTORE LOG2 CODESIZE DUP1 DUP1 DUP1 DUP1 PUSH2 0x173F JUMP JUMPDEST POP JUMP JUMPDEST POP PUSH1 0x64 DUP2 LT PUSH2 0x167F JUMP JUMPDEST POP PUSH1 0x64 DUP3 LT PUSH2 0x1586 JUMP JUMPDEST SWAP1 PUSH1 0x40 MLOAD PUSH2 0x17C7 DUP2 PUSH2 0x1282 JUMP JUMPDEST PUSH1 0x40 PUSH2 0x17E4 PUSH1 0x2 DUP4 SWAP6 DUP1 SLOAD DUP6 MSTORE PUSH1 0x1 DUP2 ADD SLOAD PUSH1 0x20 DUP7 ADD MSTORE ADD PUSH2 0x139E JUMP JUMPDEST SWAP2 ADD MSTORE JUMP JUMPDEST PUSH1 0xFF PUSH1 0x7 SLOAD PUSH1 0xA0 SHR AND ISZERO PUSH2 0x17A3 JUMPI PUSH1 0x1 DUP1 PUSH1 0xA0 SHL SUB AND PUSH1 0x0 DUP2 DUP2 MSTORE PUSH1 0x20 PUSH1 0x1 DUP2 MSTORE PUSH1 0x40 SWAP3 DUP4 DUP4 KECCAK256 SLOAD SWAP4 PUSH1 0x4 SWAP3 DUP4 SLOAD DUP1 JUMPDEST PUSH2 0x1827 JUMPI JUMPDEST POP POP POP POP POP POP POP JUMP JUMPDEST PUSH1 0x0 NOT DUP2 ADD DUP2 DUP2 GT PUSH2 0x18A0 JUMPI PUSH2 0x183F PUSH2 0x1845 SWAP2 PUSH2 0x1329 JUMP JUMPDEST POP PUSH2 0x17BA JUMP JUMPDEST DUP1 MLOAD DUP9 LT ISZERO PUSH2 0x1872 JUMPI POP DUP1 ISZERO PUSH2 0x185F JUMPI PUSH1 0x0 NOT ADD DUP1 PUSH2 0x1819 JUMP JUMPDEST PUSH4 0x4E487B71 PUSH1 0xE0 SHL DUP7 MSTORE PUSH1 0x11 DUP6 MSTORE PUSH1 0x24 DUP7 REVERT JUMPDEST SWAP1 POP PUSH1 0x5 SWAP4 SWAP7 POP DUP2 SWAP3 SWAP6 SWAP5 POP ADD MLOAD SWAP5 DUP4 MSTORE MSTORE KECCAK256 DUP1 SLOAD DUP3 GT PUSH2 0x1898 JUMPI JUMPDEST DUP1 DUP1 DUP1 DUP1 DUP1 PUSH2 0x181E JUMP JUMPDEST SSTORE CODESIZE DUP1 PUSH2 0x188E JUMP JUMPDEST PUSH4 0x4E487B71 PUSH1 0xE0 SHL DUP8 MSTORE PUSH1 0x11 DUP7 MSTORE PUSH1 0x24 DUP8 REVERT JUMPDEST PUSH8 0xFFFFFFFFFFFFFFFF DUP2 GT PUSH2 0x126C JUMPI PUSH1 0x5 SHL PUSH1 0x20 ADD SWAP1 JUMP JUMPDEST DUP1 MLOAD DUP3 LT ISZERO PUSH2 0x1313 JUMPI PUSH1 0x20 SWAP2 PUSH1 0x5 SHL ADD ADD SWAP1 JUMP INVALID LOG2 PUSH5 0x6970667358 0x22 SLT KECCAK256 PUSH29 0x6D8588C5628034FFDA49ECF56D9142AF2A0673A7207A8E915835A26468 SWAP6 PUSH12 0x64736F6C6343000814003300 "},"methodIdentifiers":{"POINTS_PER_BREED()":"d08e6994","POINTS_PER_HATCH()":"83b8c98e","POINTS_PER_LEGENDARY_HATCH()":"33e51139","POINTS_PER_RARE_HATCH()":"d00c7a77","POINTS_PER_WIN()":"32c69a0f","addRewardTier(uint256,uint256,string)":"f5f3a4aa","claimReward()":"b88a802f","claimableRewards(address)":"dc01f60d","dragonNFTContract()":"476b285c","fundRewards()":"ff18bf0b","getPlayerRank(address)":"a697cb0e","getPlayerStats(address)":"4fd66eae","getRewardTiers()":"ecb6c66a","getTopPlayers(uint256)":"ba3c0067","getTotalPlayers()":"4529cae7","isPlayer(address)":"09c95e10","owner()":"8da5cb5b","playerStats(address)":"cdafbbb6","players(uint256)":"f71d96cb","recordBattleWin(address)":"7ce9a330","recordBreed(address)":"0271e3cc","recordHatch(address,bool,bool)":"1074f752","renounceOwnership()":"715018a6","rewardTiers(uint256)":"ff201114","rewardToken()":"f7c618c1","rewardsEnabled()":"1dafe16b","setDragonNFTContract(address)":"39ffa434","setRewardToken(address)":"8aee8127","setRewardsEnabled(bool)":"0053d798","totalPointsDistributed()":"7bc94d98","transferOwnership(address)":"f2fde38b","withdrawFunds()":"24600fc3"}}}}}