{"contracts/EggNFTBatch.sol":{"EggNFTBatch":{"abi":[{"inputs":[],"stateMutability":"nonpayable","type":"constructor"},{"inputs":[{"internalType":"address","name":"sender","type":"address"},{"internalType":"uint256","name":"tokenId","type":"uint256"},{"internalType":"address","name":"owner","type":"address"}],"name":"ERC721IncorrectOwner","type":"error"},{"inputs":[{"internalType":"address","name":"operator","type":"address"},{"internalType":"uint256","name":"tokenId","type":"uint256"}],"name":"ERC721InsufficientApproval","type":"error"},{"inputs":[{"internalType":"address","name":"approver","type":"address"}],"name":"ERC721InvalidApprover","type":"error"},{"inputs":[{"internalType":"address","name":"operator","type":"address"}],"name":"ERC721InvalidOperator","type":"error"},{"inputs":[{"internalType":"address","name":"owner","type":"address"}],"name":"ERC721InvalidOwner","type":"error"},{"inputs":[{"internalType":"address","name":"receiver","type":"address"}],"name":"ERC721InvalidReceiver","type":"error"},{"inputs":[{"internalType":"address","name":"sender","type":"address"}],"name":"ERC721InvalidSender","type":"error"},{"inputs":[{"internalType":"uint256","name":"tokenId","type":"uint256"}],"name":"ERC721NonexistentToken","type":"error"},{"inputs":[{"internalType":"address","name":"owner","type":"address"}],"name":"OwnableInvalidOwner","type":"error"},{"inputs":[{"internalType":"address","name":"account","type":"address"}],"name":"OwnableUnauthorizedAccount","type":"error"},{"anonymous":false,"inputs":[{"indexed":true,"internalType":"address","name":"owner","type":"address"},{"indexed":true,"internalType":"address","name":"approved","type":"address"},{"indexed":true,"internalType":"uint256","name":"tokenId","type":"uint256"}],"name":"Approval","type":"event"},{"anonymous":false,"inputs":[{"indexed":true,"internalType":"address","name":"owner","type":"address"},{"indexed":true,"internalType":"address","name":"operator","type":"address"},{"indexed":false,"internalType":"bool","name":"approved","type":"bool"}],"name":"ApprovalForAll","type":"event"},{"anonymous":false,"inputs":[{"indexed":true,"internalType":"uint256","name":"tokenId","type":"uint256"},{"indexed":true,"internalType":"address","name":"owner","type":"address"}],"name":"EggHatched","type":"event"},{"anonymous":false,"inputs":[{"indexed":true,"internalType":"address","name":"buyer","type":"address"},{"indexed":true,"internalType":"uint256","name":"tokenId","type":"uint256"},{"indexed":false,"internalType":"enum EggNFTBatch.Rarity","name":"rarity","type":"uint8"},{"indexed":false,"internalType":"bool","name":"isInstallment","type":"bool"}],"name":"EggMinted","type":"event"},{"anonymous":false,"inputs":[],"name":"FirstSaleEnded","type":"event"},{"anonymous":false,"inputs":[{"indexed":true,"internalType":"address","name":"buyer","type":"address"},{"indexed":true,"internalType":"uint256","name":"eggId","type":"uint256"}],"name":"InstallmentCompleted","type":"event"},{"anonymous":false,"inputs":[{"indexed":true,"internalType":"address","name":"buyer","type":"address"},{"indexed":true,"internalType":"uint256","name":"eggId","type":"uint256"},{"indexed":false,"internalType":"uint256","name":"payment","type":"uint256"},{"indexed":false,"internalType":"uint256","name":"installmentNumber","type":"uint256"}],"name":"InstallmentPayment","type":"event"},{"anonymous":false,"inputs":[{"indexed":true,"internalType":"address","name":"previousOwner","type":"address"},{"indexed":true,"internalType":"address","name":"newOwner","type":"address"}],"name":"OwnershipTransferred","type":"event"},{"anonymous":false,"inputs":[{"indexed":true,"internalType":"address","name":"from","type":"address"},{"indexed":true,"internalType":"address","name":"to","type":"address"},{"indexed":true,"internalType":"uint256","name":"tokenId","type":"uint256"}],"name":"Transfer","type":"event"},{"inputs":[],"name":"COMMON_COUNT","outputs":[{"internalType":"uint256","name":"","type":"uint256"}],"stateMutability":"view","type":"function"},{"inputs":[],"name":"COMMON_PRICE","outputs":[{"internalType":"uint256","name":"","type":"uint256"}],"stateMutability":"view","type":"function"},{"inputs":[],"name":"INSTALLMENT_COUNT","outputs":[{"internalType":"uint256","name":"","type":"uint256"}],"stateMutability":"view","type":"function"},{"inputs":[],"name":"LEGENDARY_COUNT","outputs":[{"internalType":"uint256","name":"","type":"uint256"}],"stateMutability":"view","type":"function"},{"inputs":[],"name":"LEGENDARY_PRICE","outputs":[{"internalType":"uint256","name":"","type":"uint256"}],"stateMutability":"view","type":"function"},{"inputs":[],"name":"MAX_SUPPLY","outputs":[{"internalType":"uint256","name":"","type":"uint256"}],"stateMutability":"view","type":"function"},{"inputs":[],"name":"PAYMENT_INTERVAL","outputs":[{"internalType":"uint256","name":"","type":"uint256"}],"stateMutability":"view","type":"function"},{"inputs":[],"name":"RARE_COUNT","outputs":[{"internalType":"uint256","name":"","type":"uint256"}],"stateMutability":"view","type":"function"},{"inputs":[],"name":"RARE_PRICE","outputs":[{"internalType":"uint256","name":"","type":"uint256"}],"stateMutability":"view","type":"function"},{"inputs":[],"name":"UNIQUE_COUNT","outputs":[{"internalType":"uint256","name":"","type":"uint256"}],"stateMutability":"view","type":"function"},{"inputs":[],"name":"UNIQUE_PRICE","outputs":[{"internalType":"uint256","name":"","type":"uint256"}],"stateMutability":"view","type":"function"},{"inputs":[{"internalType":"address","name":"to","type":"address"},{"internalType":"uint256","name":"tokenId","type":"uint256"}],"name":"approve","outputs":[],"stateMutability":"nonpayable","type":"function"},{"inputs":[{"internalType":"address","name":"owner","type":"address"}],"name":"balanceOf","outputs":[{"internalType":"uint256","name":"","type":"uint256"}],"stateMutability":"view","type":"function"},{"inputs":[{"internalType":"address[]","name":"recipients","type":"address[]"},{"internalType":"enum EggNFTBatch.Rarity[]","name":"rarities","type":"uint8[]"}],"name":"batchMint","outputs":[],"stateMutability":"nonpayable","type":"function"},{"inputs":[],"name":"commonMinted","outputs":[{"internalType":"uint256","name":"","type":"uint256"}],"stateMutability":"view","type":"function"},{"inputs":[],"name":"dragonNFTContract","outputs":[{"internalType":"address","name":"","type":"address"}],"stateMutability":"view","type":"function"},{"inputs":[{"internalType":"uint256","name":"","type":"uint256"}],"name":"eggs","outputs":[{"internalType":"enum EggNFTBatch.Rarity","name":"rarity","type":"uint8"},{"internalType":"uint256","name":"batchId","type":"uint256"},{"internalType":"bool","name":"isHatched","type":"bool"},{"internalType":"uint256","name":"mintedAt","type":"uint256"}],"stateMutability":"view","type":"function"},{"inputs":[],"name":"endFirstSale","outputs":[],"stateMutability":"nonpayable","type":"function"},{"inputs":[],"name":"firstSaleEndTime","outputs":[{"internalType":"uint256","name":"","type":"uint256"}],"stateMutability":"view","type":"function"},{"inputs":[{"internalType":"uint256","name":"tokenId","type":"uint256"}],"name":"getApproved","outputs":[{"internalType":"address","name":"","type":"address"}],"stateMutability":"view","type":"function"},{"inputs":[{"internalType":"uint256","name":"tokenId","type":"uint256"}],"name":"getEgg","outputs":[{"components":[{"internalType":"enum EggNFTBatch.Rarity","name":"rarity","type":"uint8"},{"internalType":"uint256","name":"batchId","type":"uint256"},{"internalType":"bool","name":"isHatched","type":"bool"},{"internalType":"uint256","name":"mintedAt","type":"uint256"}],"internalType":"struct EggNFTBatch.Egg","name":"","type":"tuple"}],"stateMutability":"view","type":"function"},{"inputs":[{"internalType":"enum EggNFTBatch.Rarity","name":"rarity","type":"uint8"}],"name":"getInstallmentAmount","outputs":[{"internalType":"uint256","name":"","type":"uint256"}],"stateMutability":"pure","type":"function"},{"inputs":[{"internalType":"uint256","name":"tokenId","type":"uint256"}],"name":"getInstallmentStatus","outputs":[{"internalType":"uint256","name":"paidAmount","type":"uint256"},{"internalType":"uint256","name":"remainingAmount","type":"uint256"},{"internalType":"uint256","name":"nextPaymentDue","type":"uint256"},{"internalType":"bool","name":"isComplete","type":"bool"}],"stateMutability":"view","type":"function"},{"inputs":[{"internalType":"enum EggNFTBatch.Rarity","name":"rarity","type":"uint8"}],"name":"getPriceForRarity","outputs":[{"internalType":"uint256","name":"","type":"uint256"}],"stateMutability":"pure","type":"function"},{"inputs":[],"name":"getRaritySupply","outputs":[{"internalType":"uint256","name":"legendary","type":"uint256"},{"internalType":"uint256","name":"unique","type":"uint256"},{"internalType":"uint256","name":"rare","type":"uint256"},{"internalType":"uint256","name":"common","type":"uint256"}],"stateMutability":"view","type":"function"},{"inputs":[{"internalType":"address","name":"user","type":"address"}],"name":"getUserInstallments","outputs":[{"internalType":"uint256[]","name":"","type":"uint256[]"}],"stateMutability":"view","type":"function"},{"inputs":[{"internalType":"uint256","name":"tokenId","type":"uint256"}],"name":"hatchEgg","outputs":[],"stateMutability":"nonpayable","type":"function"},{"inputs":[{"internalType":"uint256","name":"","type":"uint256"}],"name":"installmentPlans","outputs":[{"internalType":"address","name":"buyer","type":"address"},{"internalType":"uint256","name":"eggId","type":"uint256"},{"internalType":"uint256","name":"totalPrice","type":"uint256"},{"internalType":"uint256","name":"paidAmount","type":"uint256"},{"internalType":"uint256","name":"installmentsPaid","type":"uint256"},{"internalType":"uint256","name":"lastPaymentTime","type":"uint256"},{"internalType":"bool","name":"isComplete","type":"bool"},{"internalType":"bool","name":"isActive","type":"bool"}],"stateMutability":"view","type":"function"},{"inputs":[{"internalType":"address","name":"owner","type":"address"},{"internalType":"address","name":"operator","type":"address"}],"name":"isApprovedForAll","outputs":[{"internalType":"bool","name":"","type":"bool"}],"stateMutability":"view","type":"function"},{"inputs":[],"name":"isFirstSaleActive","outputs":[{"internalType":"bool","name":"","type":"bool"}],"stateMutability":"view","type":"function"},{"inputs":[],"name":"legendaryMinted","outputs":[{"internalType":"uint256","name":"","type":"uint256"}],"stateMutability":"view","type":"function"},{"inputs":[{"internalType":"enum EggNFTBatch.Rarity","name":"_rarity","type":"uint8"}],"name":"mintEgg","outputs":[],"stateMutability":"payable","type":"function"},{"inputs":[{"internalType":"enum EggNFTBatch.Rarity","name":"_rarity","type":"uint8"}],"name":"mintEggWithInstallment","outputs":[],"stateMutability":"payable","type":"function"},{"inputs":[],"name":"mintGachaEgg","outputs":[],"stateMutability":"payable","type":"function"},{"inputs":[],"name":"name","outputs":[{"internalType":"string","name":"","type":"string"}],"stateMutability":"view","type":"function"},{"inputs":[],"name":"owner","outputs":[{"internalType":"address","name":"","type":"address"}],"stateMutability":"view","type":"function"},{"inputs":[{"internalType":"uint256","name":"tokenId","type":"uint256"}],"name":"ownerOf","outputs":[{"internalType":"address","name":"","type":"address"}],"stateMutability":"view","type":"function"},{"inputs":[{"internalType":"uint256","name":"tokenId","type":"uint256"}],"name":"payInstallment","outputs":[],"stateMutability":"payable","type":"function"},{"inputs":[],"name":"rareMinted","outputs":[{"internalType":"uint256","name":"","type":"uint256"}],"stateMutability":"view","type":"function"},{"inputs":[],"name":"renounceOwnership","outputs":[],"stateMutability":"nonpayable","type":"function"},{"inputs":[{"internalType":"address","name":"from","type":"address"},{"internalType":"address","name":"to","type":"address"},{"internalType":"uint256","name":"tokenId","type":"uint256"}],"name":"safeTransferFrom","outputs":[],"stateMutability":"nonpayable","type":"function"},{"inputs":[{"internalType":"address","name":"from","type":"address"},{"internalType":"address","name":"to","type":"address"},{"internalType":"uint256","name":"tokenId","type":"uint256"},{"internalType":"bytes","name":"data","type":"bytes"}],"name":"safeTransferFrom","outputs":[],"stateMutability":"nonpayable","type":"function"},{"inputs":[{"internalType":"address","name":"operator","type":"address"},{"internalType":"bool","name":"approved","type":"bool"}],"name":"setApprovalForAll","outputs":[],"stateMutability":"nonpayable","type":"function"},{"inputs":[{"internalType":"string","name":"baseURI","type":"string"}],"name":"setBaseURI","outputs":[],"stateMutability":"nonpayable","type":"function"},{"inputs":[{"internalType":"address","name":"_dragonContract","type":"address"}],"name":"setDragonContract","outputs":[],"stateMutability":"nonpayable","type":"function"},{"inputs":[{"internalType":"bytes4","name":"interfaceId","type":"bytes4"}],"name":"supportsInterface","outputs":[{"internalType":"bool","name":"","type":"bool"}],"stateMutability":"view","type":"function"},{"inputs":[],"name":"symbol","outputs":[{"internalType":"string","name":"","type":"string"}],"stateMutability":"view","type":"function"},{"inputs":[{"internalType":"uint256","name":"tokenId","type":"uint256"}],"name":"tokenURI","outputs":[{"internalType":"string","name":"","type":"string"}],"stateMutability":"view","type":"function"},{"inputs":[{"internalType":"address","name":"from","type":"address"},{"internalType":"address","name":"to","type":"address"},{"internalType":"uint256","name":"tokenId","type":"uint256"}],"name":"transferFrom","outputs":[],"stateMutability":"nonpayable","type":"function"},{"inputs":[{"internalType":"address","name":"newOwner","type":"address"}],"name":"transferOwnership","outputs":[],"stateMutability":"nonpayable","type":"function"},{"inputs":[],"name":"uniqueMinted","outputs":[{"internalType":"uint256","name":"","type":"uint256"}],"stateMutability":"view","type":"function"},{"inputs":[{"internalType":"address","name":"","type":"address"},{"internalType":"uint256","name":"","type":"uint256"}],"name":"userInstallments","outputs":[{"internalType":"uint256","name":"","type":"uint256"}],"stateMutability":"view","type":"function"},{"inputs":[],"name":"withdraw","outputs":[],"stateMutability":"nonpayable","type":"function"}],"evm":{"bytecode":{"linkReferences":{},"object":"608034620003ab576001600160401b03906040908082018381118282101762000395578252600a815260209069447261676f6e2045676760b01b8282015282519383850185811082821117620003955784526005855264445245474760d81b83860152815181811162000395576000938454916001948584811c941680156200038a575b8385101462000376578190601f9485811162000323575b508390858311600114620002bf578892620002b3575b5050600019600383901b1c191690851b1785555b86519283116200029f5783548481811c9116801562000294575b82821014620002805782811162000238575b5080918311600114620001d1575083949582939492620001c5575b5050600019600383901b1c191690821b1781555b3315620001ae5760068054336001600160a01b0319821681179092559351936001600160a01b03167f8be0079c531659141344cd1fd0a4f28419497f9722a3daafe3b4186f6b6457e08480a38060ff19600c541617600c5560075562093a804201908142116200019a5750600d55612f3e9081620003b18239f35b634e487b7160e01b81526011600452602490fd5b506024915190631e4fbdf760e01b82526004820152fd5b0151905038806200010b565b90601f198316968486528286209286905b8982106200022057505083859697981062000206575b505050811b0181556200011f565b015160001960f88460031b161c19169055388080620001f8565b808785968294968601518155019501930190620001e2565b8486528186208380860160051c82019284871062000276575b0160051c019085905b8281106200026a575050620000f0565b8781550185906200025a565b9250819262000251565b634e487b7160e01b86526022600452602486fd5b90607f1690620000de565b634e487b7160e01b85526041600452602485fd5b015190503880620000b0565b8880528489208894509190601f1984168a5b878282106200030c5750508411620002f2575b505050811b018555620000c4565b015160001960f88460031b161c19169055388080620002e4565b8385015186558b97909501949384019301620002d1565b9091508780528388208580850160051c8201928686106200036c575b918991869594930160051c01915b8281106200035d5750506200009a565b8a81558594508991016200034d565b925081926200033f565b634e487b7160e01b87526022600452602487fd5b93607f169362000083565b634e487b7160e01b600052604160045260246000fd5b600080fdfe6080604081815260048036101561001557600080fd5b600092833560e01c90816301ffc9a714611d6057508063039f14b014611d205780630651e16214611cbc57806306fdde0314611c14578063081812fc14611bd9578063095ea7b314611afd5780630a21213714611ade5780630af4750e14611ac25780630ea92db214611aa657806312383f1a146118ce5780631b397db5146118955780631e188a56146114db57806320dd0c84146114bd5780632385554c1461131457806323b872dd146112fc5780632e119c79146112d95780632f3e1b63146112ba5780633133602a146111d057806332cb6b0c146111b357806333080d711461118f5780633ccfd60b1461111657806342842e0e146110e7578063476b285c146110be578063544352081461101157806355f804b314610e745780636352211e14610e4357806366435c0614610e2457806370a0823114610dcf578063715018a614610d725780637561875314610d555780637869b40c14610d0b57806379c352a714610b225780638da5cb5b14610af957806395d89b4114610a165780639efa44f8146109f7578063a22cb46514610950578063b4d34441146108ce578063b88d4fde1461085b578063bb654efa14610803578063bdc71fb8146107e0578063c092ae38146107c4578063c200e534146107a1578063c87b56dd14610769578063d519989914610747578063df34800c14610714578063df3ea193146106f8578063e2f8a01714610495578063e985e9c514610447578063e9aac10214610428578063eb76d5ed146103f8578063f2fde38b1461036e578063f48375dc146103115763feb40f7e1461026a57600080fd5b3461030d57602036600319011261030d578282916080946060845161028e81611ead565b828152826020820152828682015201523581526010602052208151916102b383611ead565b6102c160ff83541684612606565b60018201549160208401928352600360ff600283015416918386019215158352015492606085019384526102f88351809651611f8e565b51602085015251151590830152516060820152f35b8280fd5b50503461036a578060031936011261036a5761032b611dcc565b6001600160a01b03168252601260205280822080546024359390841015610367575060209261035991611fb1565b91905490519160031b1c8152f35b80fd5b5080fd5b503461030d57602036600319011261030d57610388611dcc565b90610391611fdf565b6001600160a01b039182169283156103e2575050600654826001600160601b0360a01b821617600655167f8be0079c531659141344cd1fd0a4f28419497f9722a3daafe3b4186f6b6457e08380a380f35b51631e4fbdf760e01b8152908101849052602490fd5b509134610367576020366003190112610367578235928310156103675750610421602092612868565b9051908152f35b50503461036a578160031936011261036a576020906008549051908152f35b50503461036a578060031936011261036a5760ff81602093610467611dcc565b61046f611de7565b6001600160a01b0391821683526005875283832091168252855220549151911615158152f35b50906020806003193601126106f45782359283855260118252828520600681019384549360ff8560081c16156106c15782546001600160a01b0316330361068f5760ff851661065a5783830193845494600386101561062d576005850191825462015180810180911161061a5742106105d7576003806002880154049661051d883414612548565b018054908782018092116105c45755600187018097116105b1575092858095937f533ee8548875d0f22a581a3c1a9288f512457c881609110b967d0c66a6db573e936003988c975542905582519485528401523392a31461057c578380f35b60ff19166001179055337f21bfb436a474b6bdcdddacb49d2f7b16e5d70a35f6543bc99c2ff3d94bc3d9ab8380a33880808380f35b634e487b7160e01b8b526011905260248afd5b634e487b7160e01b8d526011835260248dfd5b845162461bcd60e51b8152908101849052601a60248201527f546f6f206561726c7920666f72206e657874207061796d656e740000000000006044820152606490fd5b634e487b7160e01b8c526011825260248cfd5b50915162461bcd60e51b8152918201526008602482015267105b1b081c185a5960c21b6044820152606490fd5b8390606492519162461bcd60e51b8352820152601060248201526f416c726561647920636f6d706c65746560801b6044820152fd5b8390606492519162461bcd60e51b8352820152600d60248201526c2737ba103cb7bab910383630b760991b6044820152fd5b8390606492519162461bcd60e51b8352820152600e60248201526d27379030b1ba34bb3290383630b760911b6044820152fd5b8380fd5b50503461036a578160031936011261036a576020905160238152f35b509134610367576020366003190112610367578235928310156103675750600361073f602093612868565b049051908152f35b50503461036a578160031936011261036a576020905166b1a2bc2ec500008152f35b509134610367576020366003190112610367575061078a61079d92356128b9565b9051918291602083526020830190611e20565b0390f35b50503461036a578160031936011261036a5760209051670429d069189e00008152f35b50503461036a578160031936011261036a5760209051602d8152f35b50503461036a578160031936011261036a57602090516706f05b59d3b200008152f35b503461030d57602036600319011261030d57608092829135815260106020522060ff81541691600182015491600360ff6002830154169101549261084983518096611f8e565b60208501521515908301526060820152f35b83823461036a57608036600319011261036a57610876611dcc565b61087e611de7565b6044359060643567ffffffffffffffff81116108ca57366023820112156108ca576108c7948160246108b593369301359101611f3f565b926108c1838383612045565b3361241f565b80f35b8580fd5b503461030d57602036600319011261030d5780826101009460ff9335815260116020522060018060a01b03815416936001820154926002830154600384015491840154926006600586015495015495815198895260208901528701526060860152608085015260a0840152818116151560c084015260081c16151560e0820152f35b50903461030d578060031936011261030d5761096a611dcc565b90602435801515928382036108ca576001600160a01b03169384156109e057506109b39033865260056020528286208587526020528286209060ff801983541691151516179055565b519081527f17307eab39ab6107e8899845ad3d59bd9653f200f220920489ca2b5937696c3160203392a380f35b8251630b61174360e31b8152908101859052602490fd5b50503461036a578160031936011261036a576020906009549051908152f35b50503461036a578160031936011261036a57805190826001805491610a3a8361200b565b80865292828116908115610ad15750600114610a75575b505050610a638261079d940383611f01565b51918291602083526020830190611e20565b94508085527fb10e2d527612073b26eecdfd717e6a320cf44b4afac2b0732d9fcbe2b7fa0cf65b828610610ab957505050610a6382602061079d9582010194610a51565b80546020878701810191909152909501948101610a9c565b61079d975086935060209250610a6394915060ff191682840152151560051b82010194610a51565b50503461036a578160031936011261036a5760065490516001600160a01b039091168152602090f35b509134610367578160031936011261036757823567ffffffffffffffff918282116103675736602383011215610367578185013591610b6083611f76565b90610b6d86519283611f01565b8382526020908183016024809660051b830101913683116108ca578601905b828210610cec57505050833594851161030d573660238601121561030d578487013594610bb886611f76565b95610bc588519788611f01565b808752858388019160051b830101913683116108ca578601905b828210610cd157505050610bf1611fdf565b8151855103610c9e57825b8251811015610c9a576103e860075411610c63576001600160a01b03610c2282856125f2565b5116610c2e82886125f2565b519089821015610c5157610c4c9291610c4691612612565b506125cd565b610bfc565b634e487b7160e01b865260218a528686fd5b865162461bcd60e51b81528089018390526012818701527113585e081cdd5c1c1b1e481c995858da195960721b6044820152606490fd5b8380f35b86600f8560649389519362461bcd60e51b85528401528201526e098cadccee8d040dad2e6dac2e8c6d608b1b6044820152fd5b81358a811015610ce8578152908301908301610bdf565b8680fd5b81356001600160a01b0381168103610ce8578152908301908301610b8c565b8334610367578060031936011261036757610d24611fdf565b60ff19600c5416600c557f87f8b5fcd37e51287c7d6863576ed7ba36c0b4506d1147ca3ba2eab69aedb1b58180a180f35b50503461036a578160031936011261036a576020905161037f8152f35b8334610367578060031936011261036757610d8b611fdf565b600680546001600160a01b0319811690915581906001600160a01b03167f8be0079c531659141344cd1fd0a4f28419497f9722a3daafe3b4186f6b6457e08280a380f35b509134610367576020366003190112610367576001600160a01b03610df2611dcc565b16928315610e0f5750806020938392526003845220549051908152f35b91516322718ad960e21b815291820152602490fd5b50503461036a578160031936011261036a57602090600b549051908152f35b5091346103675760203660031901126103675750610e63602092356122a0565b90516001600160a01b039091168152f35b5082346103675760208060031936011261036a5767ffffffffffffffff9083358281116106f457366023820112156106f457610eb99036906024818801359101611f3f565b93610ec2611fdf565b8451928311610ffe5750610ed7600e5461200b565b601f8111610f9c575b5080601f8311600114610f1b57508293829392610f10575b50508160011b916000199060031b1c191617600e5580f35b015190508380610ef8565b600e8452601f198316947fbb7b4a454dc3493923482f07822329ed19e8244eff582cc204f8554c3620c3fd929185905b878210610f84575050836001959610610f6b575b505050811b01600e5580f35b015160001960f88460031b161c19169055838080610f5f565b80600185968294968601518155019501930190610f4b565b600e84527fbb7b4a454dc3493923482f07822329ed19e8244eff582cc204f8554c3620c3fd601f840160051c810191838510610ff4575b601f0160051c01905b818110610fe95750610ee0565b848155600101610fdc565b9091508190610fd3565b634e487b7160e01b845260419052602483fd5b82843461036757602090816003193601126103675782906001600160a01b03611038611dcc565b16815260128352818120908251808584549182815201908194845286842090845b8181106110aa575050508161106f910382611f01565b83519485948186019282875251809352850193925b82811061109357505050500390f35b835185528695509381019392810192600101611084565b825484529288019260019283019201611059565b50503461036a578160031936011261036a57600f5490516001600160a01b039091168152602090f35b50503461036a576108c7906110fb36611e45565b9192519261110884611ec9565b8584526108c1838383612045565b503461030d578260031936011261030d5761112f611fdf565b47908115611161575060065483918291829182916001600160a01b031682f115611157575080f35b51903d90823e3d90fd5b606490602084519162461bcd60e51b835282015260086024820152674e6f2066756e647360c01b6044820152fd5b50503461036a578160031936011261036a5760209060ff600c541690519015158152f35b50503461036a578160031936011261036a57602090516103e88152f35b5091903461036a57602036600319011261036a57823582526011602052808220918151916111fd83611e7a565b60018060a01b038454168352600184015460208401526002840154928382820152600385015494856060830152868101546080830152600660058201549160a0840192835201549160e060ff60c08301948181161515865260081c1615159101528585039485116112a757519262015180840180941161129457506080955051151592815194855260208501528301526060820152f35b634e487b7160e01b815260118752602490fd5b634e487b7160e01b845260118752602484fd5b50503461036a578160031936011261036a57602090600a549051908152f35b50503461036a578160031936011261036a5760209051670214e8348c4f00008152f35b8334610367576108c761130e36611e45565b91612045565b50903461030d576020806003193601126106f457823592611334846122a0565b6001600160a01b0390339082160361148b578486526010835260ff6002858820015416611457578486526011835260e0600685882086519361137585611e7a565b815416845260018101548685015260028101548785015260038101546060850152848101546080850152600581015460a085015201549160ff8084161593841560c084015260081c161515918291015261140c575b5050828452601090528220600201805460ff1916600117905533907fbcc217a4a801124dc2346b3503be7dfbbb798f5ea5d401306958d24640c088e08380a380f35b61141657806113ca565b915162461bcd60e51b815291820152601760248201527f436f6d706c657465207061796d656e74732066697273740000000000000000006044820152606490fd5b50915162461bcd60e51b815291820152600f60248201526e105b1c9958591e481a185d18da1959608a1b6044820152606490fd5b50915162461bcd60e51b815291820152600d60248201526c2737ba1032b3b39037bbb732b960991b6044820152606490fd5b50503461036a578160031936011261036a5760209051620151808152f35b50919060208060031936011261030d57833591848310156106f457600754926115086103e885111561250a565b61151181612868565b9260038404938434036118525760ff600c5416611842575b61153283612821565b1561180857611540866125cd565b600755600383036117bf576115566008546125cd565b6008555b83519261156684611ead565b6115708185612606565b828401936001948581528682018a815260608301914283528a8c5260108752888c2093518d8110156117ab57845460ff91821660ff1991821617865591518986015591516002850180549115159093169116179055600390519101558451906115d882611ec9565b8882523315611794576001600160a01b0391826115f58a336121e4565b1661177d579188878b959382953390843392611610936122db565b8151908161161d91611f8e565b888882015233917fd48981a3a59cf6fb9f8e7df82b62b368aff5a96c6d53f6837cf0871485b53f0791a386519161165383611e7a565b3383528583019084825288840190815260608401908a8252608085019289845260a08601944286528b60c0880199808b5260e08901998d8b52815260118c52209651166001600160601b0360a01b8754161786555189860155516002850155516003840155518b830155516005820155600601915115156116e090839060ff801983541691151516179055565b51151581549060081b61ff00169061ff001916179055338652601281528286208054906801000000000000000082101561176a578161174791857f533ee8548875d0f22a581a3c1a9288f512457c881609110b967d0c66a6db573e97969594018155611fb1565b81549060031b9088821b91600019901b191617905582519485528401523392a380f35b634e487b7160e01b885260418952602488fd5b86516339e3563760e11b8152808c018b9052602490fd5b8551633250574960e11b8152808b018a9052602490fd5b50634e487b7160e01b8c5260218d5260248cfd5b600283036117da576117d26009546125cd565b60095561155a565b600183036117f5576117ed600a546125cd565b600a5561155a565b611800600b546125cd565b600b5561155a565b835162461bcd60e51b8152808901839052601460248201527314985c9a5d1e481b1a5b5a5d081c995858da195960621b6044820152606490fd5b61184d831515612588565b611529565b835162461bcd60e51b8152808901839052601760248201527f496e636f7272656374206669727374207061796d656e740000000000000000006044820152606490fd5b50503461036a578160031936011261036a576080906008549060095490600a5490600b5492815194855260208501528301526060820152f35b50908260031936011261030d5760ff600c5416611a6f576118f766b1a2bc2ec500003414612548565b600b549161037f831015611a375761191d60075493611915856125cd565b6007556125cd565b600b55815161192b81611ead565b848152602081016001815283820186815260608301914283528688526010602052858820935185811015611a2457845460ff91821660ff1991821617865591516001860155915160028501805491151590931691161790556003905191015581519061199682611ec9565b8482523315611a0d576001600160a01b036119b185336121e4565b166119f657506119c3908333336122db565b7fd48981a3a59cf6fb9f8e7df82b62b368aff5a96c6d53f6837cf0871485b53f078151918483528460208401523392a380f35b82516339e3563760e11b8152908101859052602490fd5b8251633250574960e11b8152908101859052602490fd5b634e487b7160e01b895260218652602489fd5b6020606492519162461bcd60e51b83528201526013602482015272139bc818dbdb5b5bdb881959d9dcc81b19599d606a1b6044820152fd5b906020606492519162461bcd60e51b8352820152601160248201527046697273742073616c652061637469766560781b6044820152fd5b50503461036a578160031936011261036a576020905160038152f35b50503461036a578160031936011261036a576020905160198152f35b50503461036a578160031936011261036a57602090600d549051908152f35b50903461030d578060031936011261030d57611b17611dcc565b91602435611b24816122a0565b33151580611bc6575b80611b9d575b611b87576001600160a01b039485169482918691167f8c5be1e5ebec7d5bd14f71427d1e84f3dd0314c0f7b2291e5b200ac8c7c3b9258880a48452602052822080546001600160a01b031916909117905580f35b835163a9fbf51f60e01b81523381850152602490fd5b506001600160a01b03811686526005602090815284872033885290528386205460ff1615611b33565b506001600160a01b038116331415611b2d565b503461030d57602036600319011261030d57918260209335611bfa816122a0565b50825283528190205490516001600160a01b039091168152f35b50503461036a578160031936011261036a57805190828054611c358161200b565b80855291600191808316908115610ad15750600114611c6057505050610a638261079d940383611f01565b80809650527f290decd9548b62a8d60345a988386fc84ba6bc95484008f6362f93160ef3e5635b828610611ca457505050610a6382602061079d9582010194610a51565b80546020878701810191909152909501948101611c87565b8382602036600319011261036a5780359081101561036a57611d0c90611ce86103e8600754111561250a565b611cfb611cf482612868565b3414612548565b60ff600c5416611d10575b33612612565b5080f35b611d1b811515612588565b611d06565b833461036757602036600319011261036757611d3a611dcc565b611d42611fdf565b60018060a01b03166001600160601b0360a01b600f541617600f5580f35b9250503461030d57602036600319011261030d573563ffffffff60e01b811680910361030d57602092506380ac58cd60e01b8114908115611dbb575b8115611daa575b5015158152f35b6301ffc9a760e01b14905038611da3565b635b5e139f60e01b81149150611d9c565b600435906001600160a01b0382168203611de257565b600080fd5b602435906001600160a01b0382168203611de257565b60005b838110611e105750506000910152565b8181015183820152602001611e00565b90602091611e3981518092818552858086019101611dfd565b601f01601f1916010190565b6060906003190112611de2576001600160a01b03906004358281168103611de257916024359081168103611de2579060443590565b610100810190811067ffffffffffffffff821117611e9757604052565b634e487b7160e01b600052604160045260246000fd5b6080810190811067ffffffffffffffff821117611e9757604052565b6020810190811067ffffffffffffffff821117611e9757604052565b6040810190811067ffffffffffffffff821117611e9757604052565b90601f8019910116810190811067ffffffffffffffff821117611e9757604052565b67ffffffffffffffff8111611e9757601f01601f191660200190565b929192611f4b82611f23565b91611f596040519384611f01565b829481845281830111611de2578281602093846000960137010152565b67ffffffffffffffff8111611e975760051b60200190565b906004821015611f9b5752565b634e487b7160e01b600052602160045260246000fd5b8054821015611fc95760005260206000200190600090565b634e487b7160e01b600052603260045260246000fd5b6006546001600160a01b03163303611ff357565b60405163118cdaa760e01b8152336004820152602490fd5b90600182811c9216801561203b575b602083101461202557565b634e487b7160e01b600052602260045260246000fd5b91607f169161201a565b6001600160a01b0391821692909183156121cb57600092828452826020956002875260409684888820541696879133151580612135575b509060027fddf252ad1be2c89b69c2b068fc378daa952ba7f163c4a11628f55a4df523b3ef9284612102575b858352600381528b8320805460010190558683525289812080546001600160a01b0319168517905580a416928383036120e15750505050565b6064945051926364283d7b60e01b8452600484015260248301526044820152fd5b600087815260046020526040902080546001600160a01b0319169055848352600381528b832080546000190190556120a8565b9193945091508061218a575b156121515785929187913861207c565b87868861216e576024915190637e27328960e01b82526004820152fd5b604491519063177e802f60e01b82523360048301526024820152fd5b5033871480156121af575b806121415750858252600481523385898420541614612141565b5086825260058152878220338352815260ff8883205416612195565b604051633250574960e11b815260006004820152602490fd5b6000828152600260205260408120546001600160a01b03908116939284917fddf252ad1be2c89b69c2b068fc378daa952ba7f163c4a11628f55a4df523b3ef918361226b575b169283612253575b84815260026020526040812080546001600160a01b0319168517905580a490565b83815260036020526040812060018154019055612232565b600086815260046020526040902080546001600160a01b0319169055838552600360205260408520805460001901905561222a565b6000818152600260205260409020546001600160a01b03169081156122c3575090565b60249060405190637e27328960e01b82526004820152fd5b90929192803b6122ec575b50505050565b9061233b9293949160018060a01b038091169460405191630a85bd0160e11b93848452166004830152600096876024840152604483015260806064830152818060209687936084830190611e20565b038189895af18691816123df575b506123aa575050503d6000146123a1573d61236381611f23565b906123716040519283611f01565b81528093823d92013e5b8251928361239c57604051633250574960e11b815260048101849052602490fd5b019050fd5b6060925061237b565b919450915063ffffffff60e01b16036123c75750388080806122e6565b60249060405190633250574960e11b82526004820152fd5b9091508481813d8311612418575b6123f78183611f01565b81010312610ce857516001600160e01b031981168103610ce8579038612349565b503d6123ed565b90939192833b612431575b5050505050565b604051630a85bd0160e11b8082526001600160a01b03938416600483015295831660248201526044810191909152608060648201529492169260209291859061247e906084830190611e20565b039483816000978189895af18691816124ca575b506124ac575050503d6000146123a1573d61236381611f23565b919450915063ffffffff60e01b16036123c75750388080808061242a565b9091508481813d8311612503575b6124e28183611f01565b81010312610ce857516001600160e01b031981168103610ce8579038612492565b503d6124d8565b1561251157565b60405162461bcd60e51b815260206004820152600f60248201526e105b1b081959d9dcc81b5a5b9d1959608a1b6044820152606490fd5b1561254f57565b60405162461bcd60e51b8152602060048201526011602482015270125b98dbdc9c9958dd081c185e5b595b9d607a1b6044820152606490fd5b1561258f57565b60405162461bcd60e51b815260206004820152601660248201527546697273742073616c653a20526172652b206f6e6c7960501b6044820152606490fd5b60001981146125dc5760010190565b634e487b7160e01b600052601160045260246000fd5b8051821015611fc95760209160051b010190565b6004821015611f9b5752565b9061261c81612821565b156127e5576007549161262e836125cd565b600755600491828110156127d057600381036127875761264f6008546125cd565b6008555b60409182519061266282611ead565b61266c8383612606565b602082019160018352848101926000938481526060830191428352898652601060205287862093518981101561277457845460ff91821660ff199182161786559151600186015591516002850180549115159093169116179055600390519101558351906126d982611ec9565b8282526001600160a01b038181169690871561275d576126f989846121e4565b166127465750916127317fd48981a3a59cf6fb9f8e7df82b62b368aff5a96c6d53f6837cf0871485b53f0794928880989795336122db565b61273d83518093611f8e565b6020820152a390565b85516339e3563760e11b8152908101849052602490fd5b8651633250574960e11b8152808301869052602490fd5b634e487b7160e01b875260218a52602487fd5b600281036127a25761279a6009546125cd565b600955612653565b600181036127bd576127b5600a546125cd565b600a55612653565b6127c8600b546125cd565b600b55612653565b602183634e487b7160e01b6000525260246000fd5b60405162461bcd60e51b815260206004820152601460248201527314985c9a5d1e481b1a5b5a5d081c995858da195960621b6044820152606490fd5b6004811015611f9b576003811461285e57600281146128545760011461284b5761037f600b541090565b602d600a541090565b5060236009541090565b5060196008541090565b6004811015611f9b57600381146128ac576002811461289f576001146128935766b1a2bc2ec5000090565b670214e8348c4f000090565b50670429d069189e000090565b506706f05b59d3b2000090565b6001600160a01b036128ca826122a0565b1615612cba57600e54906128dd8261200b565b156129c3576128eb90612cf5565b60405180926000906128fc8161200b565b9060019081811690811561299c575060011461293d575b50508061292b8460209361293a965194859201611dfd565b0103601f198101835282611f01565b90565b600e60009081529192507fbb7b4a454dc3493923482f07822329ed19e8244eff582cc204f8554c3620c3fd5b8383106129815750505081016020018261292b612913565b80546020848901810191909152879550909201918101612969565b60ff19166020868101919091528315159093028501909201925084915061292b9050612913565b80915060005260209060108252604091826000209280516129e381611ead565b6129f160ff86541682612606565b600185015490838101918252600360ff6002880154169684830197151588520154606082015251926004841015611f9b5761293a94612a3b612a3561012e96612e5d565b91612cf5565b965115612c70577f7d5d2c22696d616765223a22697066733a2f2f516d596f7572496d6167654861612a8c8551612a7181611ee5565b600781526612185d18da195960ca1b85820152945b51612cf5565b85519889967f646174613a6170706c69636174696f6e2f6a736f6e3b757466382c7b226e616d868901526f65223a22447261676f6e20456767202360801b90880152612ae1815180928760508b019101611dfd565b8601947f222c226465736372697074696f6e223a2241206d7973746963616c206472616760508701527f6f6e206567672066726f6d20447261676f6e20436974792e205261726974793a6070870152600160fd1b6090870152835185850196612b4e82609183018a611dfd565b017f222c2261747472696275746573223a5b7b2274726169745f74797065223a225260918201526f30b934ba3c9116113b30b63ab2911d1160811b60b1820152845190612b9f8260c183018a611dfd565b017f227d2c7b2274726169745f74797065223a22537461747573222c2276616c756560c182015262111d1160e91b60e1820152612be5825180938860e485019101611dfd565b017f227d2c7b2274726169745f74797065223a224261746368222c2276616c75652260e4820152601d60f91b610104820152612c2c82518093610105978885019101611dfd565b01928301526273682f60e81b6101258301525190612c51826101289485840190611dfd565b0190652e706e67227d60d01b908201520361010e810184520182611f01565b7f7d5d2c22696d616765223a22697066733a2f2f516d596f7572496d6167654861612a8c8551612c9f81611ee5565b6009815268155b9a185d18da195960ba1b8582015294612a86565b60405162461bcd60e51b8152602060048201526013602482015272151bdad95b88191bd95cdb89dd08195e1a5cdd606a1b6044820152606490fd5b806000917a184f03e93ff9f4daa797ed6e38ed64bf6a1f01000000000000000080821015612e4f575b506d04ee2d6d415b85acef810000000080831015612e40575b50662386f26fc1000080831015612e31575b506305f5e10080831015612e22575b5061271080831015612e13575b506064821015612e03575b600a80921015612df9575b60019081602181860195612d8e87611f23565b96612d9c6040519889611f01565b808852612dab601f1991611f23565b01366020890137860101905b612dc3575b5050505090565b600019019083906f181899199a1a9b1b9c1cb0b131b232b360811b8282061a835304918215612df457919082612db7565b612dbc565b9160010191612d7b565b9190606460029104910191612d70565b60049193920491019138612d65565b60089193920491019138612d58565b60109193920491019138612d49565b60209193920491019138612d37565b604093508104915038612d1e565b6004811015611f9b5760038114612ee25760028114612ebf57600114612e9f57604051612e8981611ee5565b600681526521b7b6b6b7b760d11b602082015290565b604051612eab81611ee5565b60048152635261726560e01b602082015290565b50604051612ecc81611ee5565b6006815265556e6971756560d01b602082015290565b50604051612eef81611ee5565b60098152684c6567656e6461727960b81b60208201529056fea264697066735822122040ebb376e2fe09146ed3f17d3dd33680df6be015ad515a0bcd4e2a6b2d9aaf0264736f6c63430008140033","opcodes":"PUSH1 0x80 CALLVALUE PUSH3 0x3AB JUMPI PUSH1 0x1 PUSH1 0x1 PUSH1 0x40 SHL SUB SWAP1 PUSH1 0x40 SWAP1 DUP1 DUP3 ADD DUP4 DUP2 GT DUP3 DUP3 LT OR PUSH3 0x395 JUMPI DUP3 MSTORE PUSH1 0xA DUP2 MSTORE PUSH1 0x20 SWAP1 PUSH10 0x447261676F6E20456767 PUSH1 0xB0 SHL DUP3 DUP3 ADD MSTORE DUP3 MLOAD SWAP4 DUP4 DUP6 ADD DUP6 DUP2 LT DUP3 DUP3 GT OR PUSH3 0x395 JUMPI DUP5 MSTORE PUSH1 0x5 DUP6 MSTORE PUSH5 0x4452454747 PUSH1 0xD8 SHL DUP4 DUP7 ADD MSTORE DUP2 MLOAD DUP2 DUP2 GT PUSH3 0x395 JUMPI PUSH1 0x0 SWAP4 DUP5 SLOAD SWAP2 PUSH1 0x1 SWAP5 DUP6 DUP5 DUP2 SHR SWAP5 AND DUP1 ISZERO PUSH3 0x38A JUMPI JUMPDEST DUP4 DUP6 LT EQ PUSH3 0x376 JUMPI DUP2 SWAP1 PUSH1 0x1F SWAP5 DUP6 DUP2 GT PUSH3 0x323 JUMPI JUMPDEST POP DUP4 SWAP1 DUP6 DUP4 GT PUSH1 0x1 EQ PUSH3 0x2BF JUMPI DUP9 SWAP3 PUSH3 0x2B3 JUMPI JUMPDEST POP POP PUSH1 0x0 NOT PUSH1 0x3 DUP4 SWAP1 SHL SHR NOT AND SWAP1 DUP6 SHL OR DUP6 SSTORE JUMPDEST DUP7 MLOAD SWAP3 DUP4 GT PUSH3 0x29F JUMPI DUP4 SLOAD DUP5 DUP2 DUP2 SHR SWAP2 AND DUP1 ISZERO PUSH3 0x294 JUMPI JUMPDEST DUP3 DUP3 LT EQ PUSH3 0x280 JUMPI DUP3 DUP2 GT PUSH3 0x238 JUMPI JUMPDEST POP DUP1 SWAP2 DUP4 GT PUSH1 0x1 EQ PUSH3 0x1D1 JUMPI POP DUP4 SWAP5 SWAP6 DUP3 SWAP4 SWAP5 SWAP3 PUSH3 0x1C5 JUMPI JUMPDEST POP POP PUSH1 0x0 NOT PUSH1 0x3 DUP4 SWAP1 SHL SHR NOT AND SWAP1 DUP3 SHL OR DUP2 SSTORE JUMPDEST CALLER ISZERO PUSH3 0x1AE JUMPI PUSH1 0x6 DUP1 SLOAD CALLER PUSH1 0x1 PUSH1 0x1 PUSH1 0xA0 SHL SUB NOT DUP3 AND DUP2 OR SWAP1 SWAP3 SSTORE SWAP4 MLOAD SWAP4 PUSH1 0x1 PUSH1 0x1 PUSH1 0xA0 SHL SUB AND PUSH32 0x8BE0079C531659141344CD1FD0A4F28419497F9722A3DAAFE3B4186F6B6457E0 DUP5 DUP1 LOG3 DUP1 PUSH1 0xFF NOT PUSH1 0xC SLOAD AND OR PUSH1 0xC SSTORE PUSH1 0x7 SSTORE PUSH3 0x93A80 TIMESTAMP ADD SWAP1 DUP2 TIMESTAMP GT PUSH3 0x19A JUMPI POP PUSH1 0xD SSTORE PUSH2 0x2F3E SWAP1 DUP2 PUSH3 0x3B1 DUP3 CODECOPY RETURN JUMPDEST PUSH4 0x4E487B71 PUSH1 0xE0 SHL DUP2 MSTORE PUSH1 0x11 PUSH1 0x4 MSTORE PUSH1 0x24 SWAP1 REVERT JUMPDEST POP PUSH1 0x24 SWAP2 MLOAD SWAP1 PUSH4 0x1E4FBDF7 PUSH1 0xE0 SHL DUP3 MSTORE PUSH1 0x4 DUP3 ADD MSTORE REVERT JUMPDEST ADD MLOAD SWAP1 POP CODESIZE DUP1 PUSH3 0x10B JUMP JUMPDEST SWAP1 PUSH1 0x1F NOT DUP4 AND SWAP7 DUP5 DUP7 MSTORE DUP3 DUP7 KECCAK256 SWAP3 DUP7 SWAP1 JUMPDEST DUP10 DUP3 LT PUSH3 0x220 JUMPI POP POP DUP4 DUP6 SWAP7 SWAP8 SWAP9 LT PUSH3 0x206 JUMPI JUMPDEST POP POP POP DUP2 SHL ADD DUP2 SSTORE PUSH3 0x11F JUMP JUMPDEST ADD MLOAD PUSH1 0x0 NOT PUSH1 0xF8 DUP5 PUSH1 0x3 SHL AND SHR NOT AND SWAP1 SSTORE CODESIZE DUP1 DUP1 PUSH3 0x1F8 JUMP JUMPDEST DUP1 DUP8 DUP6 SWAP7 DUP3 SWAP5 SWAP7 DUP7 ADD MLOAD DUP2 SSTORE ADD SWAP6 ADD SWAP4 ADD SWAP1 PUSH3 0x1E2 JUMP JUMPDEST DUP5 DUP7 MSTORE DUP2 DUP7 KECCAK256 DUP4 DUP1 DUP7 ADD PUSH1 0x5 SHR DUP3 ADD SWAP3 DUP5 DUP8 LT PUSH3 0x276 JUMPI JUMPDEST ADD PUSH1 0x5 SHR ADD SWAP1 DUP6 SWAP1 JUMPDEST DUP3 DUP2 LT PUSH3 0x26A JUMPI POP POP PUSH3 0xF0 JUMP JUMPDEST DUP8 DUP2 SSTORE ADD DUP6 SWAP1 PUSH3 0x25A JUMP JUMPDEST SWAP3 POP DUP2 SWAP3 PUSH3 0x251 JUMP JUMPDEST PUSH4 0x4E487B71 PUSH1 0xE0 SHL DUP7 MSTORE PUSH1 0x22 PUSH1 0x4 MSTORE PUSH1 0x24 DUP7 REVERT JUMPDEST SWAP1 PUSH1 0x7F AND SWAP1 PUSH3 0xDE JUMP JUMPDEST PUSH4 0x4E487B71 PUSH1 0xE0 SHL DUP6 MSTORE PUSH1 0x41 PUSH1 0x4 MSTORE PUSH1 0x24 DUP6 REVERT JUMPDEST ADD MLOAD SWAP1 POP CODESIZE DUP1 PUSH3 0xB0 JUMP JUMPDEST DUP9 DUP1 MSTORE DUP5 DUP10 KECCAK256 DUP9 SWAP5 POP SWAP2 SWAP1 PUSH1 0x1F NOT DUP5 AND DUP11 JUMPDEST DUP8 DUP3 DUP3 LT PUSH3 0x30C JUMPI POP POP DUP5 GT PUSH3 0x2F2 JUMPI JUMPDEST POP POP POP DUP2 SHL ADD DUP6 SSTORE PUSH3 0xC4 JUMP JUMPDEST ADD MLOAD PUSH1 0x0 NOT PUSH1 0xF8 DUP5 PUSH1 0x3 SHL AND SHR NOT AND SWAP1 SSTORE CODESIZE DUP1 DUP1 PUSH3 0x2E4 JUMP JUMPDEST DUP4 DUP6 ADD MLOAD DUP7 SSTORE DUP12 SWAP8 SWAP1 SWAP6 ADD SWAP5 SWAP4 DUP5 ADD SWAP4 ADD PUSH3 0x2D1 JUMP JUMPDEST SWAP1 SWAP2 POP DUP8 DUP1 MSTORE DUP4 DUP9 KECCAK256 DUP6 DUP1 DUP6 ADD PUSH1 0x5 SHR DUP3 ADD SWAP3 DUP7 DUP7 LT PUSH3 0x36C JUMPI JUMPDEST SWAP2 DUP10 SWAP2 DUP7 SWAP6 SWAP5 SWAP4 ADD PUSH1 0x5 SHR ADD SWAP2 JUMPDEST DUP3 DUP2 LT PUSH3 0x35D JUMPI POP POP PUSH3 0x9A JUMP JUMPDEST DUP11 DUP2 SSTORE DUP6 SWAP5 POP DUP10 SWAP2 ADD PUSH3 0x34D JUMP JUMPDEST SWAP3 POP DUP2 SWAP3 PUSH3 0x33F JUMP JUMPDEST PUSH4 0x4E487B71 PUSH1 0xE0 SHL DUP8 MSTORE PUSH1 0x22 PUSH1 0x4 MSTORE PUSH1 0x24 DUP8 REVERT JUMPDEST SWAP4 PUSH1 0x7F AND SWAP4 PUSH3 0x83 JUMP JUMPDEST PUSH4 0x4E487B71 PUSH1 0xE0 SHL PUSH1 0x0 MSTORE PUSH1 0x41 PUSH1 0x4 MSTORE PUSH1 0x24 PUSH1 0x0 REVERT JUMPDEST PUSH1 0x0 DUP1 REVERT INVALID PUSH1 0x80 PUSH1 0x40 DUP2 DUP2 MSTORE PUSH1 0x4 DUP1 CALLDATASIZE LT ISZERO PUSH2 0x15 JUMPI PUSH1 0x0 DUP1 REVERT JUMPDEST PUSH1 0x0 SWAP3 DUP4 CALLDATALOAD PUSH1 0xE0 SHR SWAP1 DUP2 PUSH4 0x1FFC9A7 EQ PUSH2 0x1D60 JUMPI POP DUP1 PUSH4 0x39F14B0 EQ PUSH2 0x1D20 JUMPI DUP1 PUSH4 0x651E162 EQ PUSH2 0x1CBC JUMPI DUP1 PUSH4 0x6FDDE03 EQ PUSH2 0x1C14 JUMPI DUP1 PUSH4 0x81812FC EQ PUSH2 0x1BD9 JUMPI DUP1 PUSH4 0x95EA7B3 EQ PUSH2 0x1AFD JUMPI DUP1 PUSH4 0xA212137 EQ PUSH2 0x1ADE JUMPI DUP1 PUSH4 0xAF4750E EQ PUSH2 0x1AC2 JUMPI DUP1 PUSH4 0xEA92DB2 EQ PUSH2 0x1AA6 JUMPI DUP1 PUSH4 0x12383F1A EQ PUSH2 0x18CE JUMPI DUP1 PUSH4 0x1B397DB5 EQ PUSH2 0x1895 JUMPI DUP1 PUSH4 0x1E188A56 EQ PUSH2 0x14DB JUMPI DUP1 PUSH4 0x20DD0C84 EQ PUSH2 0x14BD JUMPI DUP1 PUSH4 0x2385554C EQ PUSH2 0x1314 JUMPI DUP1 PUSH4 0x23B872DD EQ PUSH2 0x12FC JUMPI DUP1 PUSH4 0x2E119C79 EQ PUSH2 0x12D9 JUMPI DUP1 PUSH4 0x2F3E1B63 EQ PUSH2 0x12BA JUMPI DUP1 PUSH4 0x3133602A EQ PUSH2 0x11D0 JUMPI DUP1 PUSH4 0x32CB6B0C EQ PUSH2 0x11B3 JUMPI DUP1 PUSH4 0x33080D71 EQ PUSH2 0x118F JUMPI DUP1 PUSH4 0x3CCFD60B EQ PUSH2 0x1116 JUMPI DUP1 PUSH4 0x42842E0E EQ PUSH2 0x10E7 JUMPI DUP1 PUSH4 0x476B285C EQ PUSH2 0x10BE JUMPI DUP1 PUSH4 0x54435208 EQ PUSH2 0x1011 JUMPI DUP1 PUSH4 0x55F804B3 EQ PUSH2 0xE74 JUMPI DUP1 PUSH4 0x6352211E EQ PUSH2 0xE43 JUMPI DUP1 PUSH4 0x66435C06 EQ PUSH2 0xE24 JUMPI DUP1 PUSH4 0x70A08231 EQ PUSH2 0xDCF JUMPI DUP1 PUSH4 0x715018A6 EQ PUSH2 0xD72 JUMPI DUP1 PUSH4 0x75618753 EQ PUSH2 0xD55 JUMPI DUP1 PUSH4 0x7869B40C EQ PUSH2 0xD0B JUMPI DUP1 PUSH4 0x79C352A7 EQ PUSH2 0xB22 JUMPI DUP1 PUSH4 0x8DA5CB5B EQ PUSH2 0xAF9 JUMPI DUP1 PUSH4 0x95D89B41 EQ PUSH2 0xA16 JUMPI DUP1 PUSH4 0x9EFA44F8 EQ PUSH2 0x9F7 JUMPI DUP1 PUSH4 0xA22CB465 EQ PUSH2 0x950 JUMPI DUP1 PUSH4 0xB4D34441 EQ PUSH2 0x8CE JUMPI DUP1 PUSH4 0xB88D4FDE EQ PUSH2 0x85B JUMPI DUP1 PUSH4 0xBB654EFA EQ PUSH2 0x803 JUMPI DUP1 PUSH4 0xBDC71FB8 EQ PUSH2 0x7E0 JUMPI DUP1 PUSH4 0xC092AE38 EQ PUSH2 0x7C4 JUMPI DUP1 PUSH4 0xC200E534 EQ PUSH2 0x7A1 JUMPI DUP1 PUSH4 0xC87B56DD EQ PUSH2 0x769 JUMPI DUP1 PUSH4 0xD5199899 EQ PUSH2 0x747 JUMPI DUP1 PUSH4 0xDF34800C EQ PUSH2 0x714 JUMPI DUP1 PUSH4 0xDF3EA193 EQ PUSH2 0x6F8 JUMPI DUP1 PUSH4 0xE2F8A017 EQ PUSH2 0x495 JUMPI DUP1 PUSH4 0xE985E9C5 EQ PUSH2 0x447 JUMPI DUP1 PUSH4 0xE9AAC102 EQ PUSH2 0x428 JUMPI DUP1 PUSH4 0xEB76D5ED EQ PUSH2 0x3F8 JUMPI DUP1 PUSH4 0xF2FDE38B EQ PUSH2 0x36E JUMPI DUP1 PUSH4 0xF48375DC EQ PUSH2 0x311 JUMPI PUSH4 0xFEB40F7E EQ PUSH2 0x26A JUMPI PUSH1 0x0 DUP1 REVERT JUMPDEST CALLVALUE PUSH2 0x30D JUMPI PUSH1 0x20 CALLDATASIZE PUSH1 0x3 NOT ADD SLT PUSH2 0x30D JUMPI DUP3 DUP3 SWAP2 PUSH1 0x80 SWAP5 PUSH1 0x60 DUP5 MLOAD PUSH2 0x28E DUP2 PUSH2 0x1EAD JUMP JUMPDEST DUP3 DUP2 MSTORE DUP3 PUSH1 0x20 DUP3 ADD MSTORE DUP3 DUP7 DUP3 ADD MSTORE ADD MSTORE CALLDATALOAD DUP2 MSTORE PUSH1 0x10 PUSH1 0x20 MSTORE KECCAK256 DUP2 MLOAD SWAP2 PUSH2 0x2B3 DUP4 PUSH2 0x1EAD JUMP JUMPDEST PUSH2 0x2C1 PUSH1 0xFF DUP4 SLOAD AND DUP5 PUSH2 0x2606 JUMP JUMPDEST PUSH1 0x1 DUP3 ADD SLOAD SWAP2 PUSH1 0x20 DUP5 ADD SWAP3 DUP4 MSTORE PUSH1 0x3 PUSH1 0xFF PUSH1 0x2 DUP4 ADD SLOAD AND SWAP2 DUP4 DUP7 ADD SWAP3 ISZERO ISZERO DUP4 MSTORE ADD SLOAD SWAP3 PUSH1 0x60 DUP6 ADD SWAP4 DUP5 MSTORE PUSH2 0x2F8 DUP4 MLOAD DUP1 SWAP7 MLOAD PUSH2 0x1F8E JUMP JUMPDEST MLOAD PUSH1 0x20 DUP6 ADD MSTORE MLOAD ISZERO ISZERO SWAP1 DUP4 ADD MSTORE MLOAD PUSH1 0x60 DUP3 ADD MSTORE RETURN JUMPDEST DUP3 DUP1 REVERT JUMPDEST POP POP CALLVALUE PUSH2 0x36A JUMPI DUP1 PUSH1 0x3 NOT CALLDATASIZE ADD SLT PUSH2 0x36A JUMPI PUSH2 0x32B PUSH2 0x1DCC JUMP JUMPDEST PUSH1 0x1 PUSH1 0x1 PUSH1 0xA0 SHL SUB AND DUP3 MSTORE PUSH1 0x12 PUSH1 0x20 MSTORE DUP1 DUP3 KECCAK256 DUP1 SLOAD PUSH1 0x24 CALLDATALOAD SWAP4 SWAP1 DUP5 LT ISZERO PUSH2 0x367 JUMPI POP PUSH1 0x20 SWAP3 PUSH2 0x359 SWAP2 PUSH2 0x1FB1 JUMP JUMPDEST SWAP2 SWAP1 SLOAD SWAP1 MLOAD SWAP2 PUSH1 0x3 SHL SHR DUP2 MSTORE RETURN JUMPDEST DUP1 REVERT JUMPDEST POP DUP1 REVERT JUMPDEST POP CALLVALUE PUSH2 0x30D JUMPI PUSH1 0x20 CALLDATASIZE PUSH1 0x3 NOT ADD SLT PUSH2 0x30D JUMPI PUSH2 0x388 PUSH2 0x1DCC JUMP JUMPDEST SWAP1 PUSH2 0x391 PUSH2 0x1FDF JUMP JUMPDEST PUSH1 0x1 PUSH1 0x1 PUSH1 0xA0 SHL SUB SWAP2 DUP3 AND SWAP3 DUP4 ISZERO PUSH2 0x3E2 JUMPI POP POP PUSH1 0x6 SLOAD DUP3 PUSH1 0x1 PUSH1 0x1 PUSH1 0x60 SHL SUB PUSH1 0xA0 SHL DUP3 AND OR PUSH1 0x6 SSTORE AND PUSH32 0x8BE0079C531659141344CD1FD0A4F28419497F9722A3DAAFE3B4186F6B6457E0 DUP4 DUP1 LOG3 DUP1 RETURN JUMPDEST MLOAD PUSH4 0x1E4FBDF7 PUSH1 0xE0 SHL DUP2 MSTORE SWAP1 DUP2 ADD DUP5 SWAP1 MSTORE PUSH1 0x24 SWAP1 REVERT JUMPDEST POP SWAP2 CALLVALUE PUSH2 0x367 JUMPI PUSH1 0x20 CALLDATASIZE PUSH1 0x3 NOT ADD SLT PUSH2 0x367 JUMPI DUP3 CALLDATALOAD SWAP3 DUP4 LT ISZERO PUSH2 0x367 JUMPI POP PUSH2 0x421 PUSH1 0x20 SWAP3 PUSH2 0x2868 JUMP JUMPDEST SWAP1 MLOAD SWAP1 DUP2 MSTORE RETURN JUMPDEST POP POP CALLVALUE PUSH2 0x36A JUMPI DUP2 PUSH1 0x3 NOT CALLDATASIZE ADD SLT PUSH2 0x36A JUMPI PUSH1 0x20 SWAP1 PUSH1 0x8 SLOAD SWAP1 MLOAD SWAP1 DUP2 MSTORE RETURN JUMPDEST POP POP CALLVALUE PUSH2 0x36A JUMPI DUP1 PUSH1 0x3 NOT CALLDATASIZE ADD SLT PUSH2 0x36A JUMPI PUSH1 0xFF DUP2 PUSH1 0x20 SWAP4 PUSH2 0x467 PUSH2 0x1DCC JUMP JUMPDEST PUSH2 0x46F PUSH2 0x1DE7 JUMP JUMPDEST PUSH1 0x1 PUSH1 0x1 PUSH1 0xA0 SHL SUB SWAP2 DUP3 AND DUP4 MSTORE PUSH1 0x5 DUP8 MSTORE DUP4 DUP4 KECCAK256 SWAP2 AND DUP3 MSTORE DUP6 MSTORE KECCAK256 SLOAD SWAP2 MLOAD SWAP2 AND ISZERO ISZERO DUP2 MSTORE RETURN JUMPDEST POP SWAP1 PUSH1 0x20 DUP1 PUSH1 0x3 NOT CALLDATASIZE ADD SLT PUSH2 0x6F4 JUMPI DUP3 CALLDATALOAD SWAP3 DUP4 DUP6 MSTORE PUSH1 0x11 DUP3 MSTORE DUP3 DUP6 KECCAK256 PUSH1 0x6 DUP2 ADD SWAP4 DUP5 SLOAD SWAP4 PUSH1 0xFF DUP6 PUSH1 0x8 SHR AND ISZERO PUSH2 0x6C1 JUMPI DUP3 SLOAD PUSH1 0x1 PUSH1 0x1 PUSH1 0xA0 SHL SUB AND CALLER SUB PUSH2 0x68F JUMPI PUSH1 0xFF DUP6 AND PUSH2 0x65A JUMPI DUP4 DUP4 ADD SWAP4 DUP5 SLOAD SWAP5 PUSH1 0x3 DUP7 LT ISZERO PUSH2 0x62D JUMPI PUSH1 0x5 DUP6 ADD SWAP2 DUP3 SLOAD PUSH3 0x15180 DUP2 ADD DUP1 SWAP2 GT PUSH2 0x61A JUMPI TIMESTAMP LT PUSH2 0x5D7 JUMPI PUSH1 0x3 DUP1 PUSH1 0x2 DUP9 ADD SLOAD DIV SWAP7 PUSH2 0x51D DUP9 CALLVALUE EQ PUSH2 0x2548 JUMP JUMPDEST ADD DUP1 SLOAD SWAP1 DUP8 DUP3 ADD DUP1 SWAP3 GT PUSH2 0x5C4 JUMPI SSTORE PUSH1 0x1 DUP8 ADD DUP1 SWAP8 GT PUSH2 0x5B1 JUMPI POP SWAP3 DUP6 DUP1 SWAP6 SWAP4 PUSH32 0x533EE8548875D0F22A581A3C1A9288F512457C881609110B967D0C66A6DB573E SWAP4 PUSH1 0x3 SWAP9 DUP13 SWAP8 SSTORE TIMESTAMP SWAP1 SSTORE DUP3 MLOAD SWAP5 DUP6 MSTORE DUP5 ADD MSTORE CALLER SWAP3 LOG3 EQ PUSH2 0x57C JUMPI DUP4 DUP1 RETURN JUMPDEST PUSH1 0xFF NOT AND PUSH1 0x1 OR SWAP1 SSTORE CALLER PUSH32 0x21BFB436A474B6BDCDDDACB49D2F7B16E5D70A35F6543BC99C2FF3D94BC3D9AB DUP4 DUP1 LOG3 CODESIZE DUP1 DUP1 DUP4 DUP1 RETURN JUMPDEST PUSH4 0x4E487B71 PUSH1 0xE0 SHL DUP12 MSTORE PUSH1 0x11 SWAP1 MSTORE PUSH1 0x24 DUP11 REVERT JUMPDEST PUSH4 0x4E487B71 PUSH1 0xE0 SHL DUP14 MSTORE PUSH1 0x11 DUP4 MSTORE PUSH1 0x24 DUP14 REVERT JUMPDEST DUP5 MLOAD PUSH3 0x461BCD PUSH1 0xE5 SHL DUP2 MSTORE SWAP1 DUP2 ADD DUP5 SWAP1 MSTORE PUSH1 0x1A PUSH1 0x24 DUP3 ADD MSTORE PUSH32 0x546F6F206561726C7920666F72206E657874207061796D656E74000000000000 PUSH1 0x44 DUP3 ADD MSTORE PUSH1 0x64 SWAP1 REVERT JUMPDEST PUSH4 0x4E487B71 PUSH1 0xE0 SHL DUP13 MSTORE PUSH1 0x11 DUP3 MSTORE PUSH1 0x24 DUP13 REVERT JUMPDEST POP SWAP2 MLOAD PUSH3 0x461BCD PUSH1 0xE5 SHL DUP2 MSTORE SWAP2 DUP3 ADD MSTORE PUSH1 0x8 PUSH1 0x24 DUP3 ADD MSTORE PUSH8 0x105B1B081C185A59 PUSH1 0xC2 SHL PUSH1 0x44 DUP3 ADD MSTORE PUSH1 0x64 SWAP1 REVERT JUMPDEST DUP4 SWAP1 PUSH1 0x64 SWAP3 MLOAD SWAP2 PUSH3 0x461BCD PUSH1 0xE5 SHL DUP4 MSTORE DUP3 ADD MSTORE PUSH1 0x10 PUSH1 0x24 DUP3 ADD MSTORE PUSH16 0x416C726561647920636F6D706C657465 PUSH1 0x80 SHL PUSH1 0x44 DUP3 ADD MSTORE REVERT JUMPDEST DUP4 SWAP1 PUSH1 0x64 SWAP3 MLOAD SWAP2 PUSH3 0x461BCD PUSH1 0xE5 SHL DUP4 MSTORE DUP3 ADD MSTORE PUSH1 0xD PUSH1 0x24 DUP3 ADD MSTORE PUSH13 0x2737BA103CB7BAB910383630B7 PUSH1 0x99 SHL PUSH1 0x44 DUP3 ADD MSTORE REVERT JUMPDEST DUP4 SWAP1 PUSH1 0x64 SWAP3 MLOAD SWAP2 PUSH3 0x461BCD PUSH1 0xE5 SHL DUP4 MSTORE DUP3 ADD MSTORE PUSH1 0xE PUSH1 0x24 DUP3 ADD MSTORE PUSH14 0x27379030B1BA34BB3290383630B7 PUSH1 0x91 SHL PUSH1 0x44 DUP3 ADD MSTORE REVERT JUMPDEST DUP4 DUP1 REVERT JUMPDEST POP POP CALLVALUE PUSH2 0x36A JUMPI DUP2 PUSH1 0x3 NOT CALLDATASIZE ADD SLT PUSH2 0x36A JUMPI PUSH1 0x20 SWAP1 MLOAD PUSH1 0x23 DUP2 MSTORE RETURN JUMPDEST POP SWAP2 CALLVALUE PUSH2 0x367 JUMPI PUSH1 0x20 CALLDATASIZE PUSH1 0x3 NOT ADD SLT PUSH2 0x367 JUMPI DUP3 CALLDATALOAD SWAP3 DUP4 LT ISZERO PUSH2 0x367 JUMPI POP PUSH1 0x3 PUSH2 0x73F PUSH1 0x20 SWAP4 PUSH2 0x2868 JUMP JUMPDEST DIV SWAP1 MLOAD SWAP1 DUP2 MSTORE RETURN JUMPDEST POP POP CALLVALUE PUSH2 0x36A JUMPI DUP2 PUSH1 0x3 NOT CALLDATASIZE ADD SLT PUSH2 0x36A JUMPI PUSH1 0x20 SWAP1 MLOAD PUSH7 0xB1A2BC2EC50000 DUP2 MSTORE RETURN JUMPDEST POP SWAP2 CALLVALUE PUSH2 0x367 JUMPI PUSH1 0x20 CALLDATASIZE PUSH1 0x3 NOT ADD SLT PUSH2 0x367 JUMPI POP PUSH2 0x78A PUSH2 0x79D SWAP3 CALLDATALOAD PUSH2 0x28B9 JUMP JUMPDEST SWAP1 MLOAD SWAP2 DUP3 SWAP2 PUSH1 0x20 DUP4 MSTORE PUSH1 0x20 DUP4 ADD SWAP1 PUSH2 0x1E20 JUMP JUMPDEST SUB SWAP1 RETURN JUMPDEST POP POP CALLVALUE PUSH2 0x36A JUMPI DUP2 PUSH1 0x3 NOT CALLDATASIZE ADD SLT PUSH2 0x36A JUMPI PUSH1 0x20 SWAP1 MLOAD PUSH8 0x429D069189E0000 DUP2 MSTORE RETURN JUMPDEST POP POP CALLVALUE PUSH2 0x36A JUMPI DUP2 PUSH1 0x3 NOT CALLDATASIZE ADD SLT PUSH2 0x36A JUMPI PUSH1 0x20 SWAP1 MLOAD PUSH1 0x2D DUP2 MSTORE RETURN JUMPDEST POP POP CALLVALUE PUSH2 0x36A JUMPI DUP2 PUSH1 0x3 NOT CALLDATASIZE ADD SLT PUSH2 0x36A JUMPI PUSH1 0x20 SWAP1 MLOAD PUSH8 0x6F05B59D3B20000 DUP2 MSTORE RETURN JUMPDEST POP CALLVALUE PUSH2 0x30D JUMPI PUSH1 0x20 CALLDATASIZE PUSH1 0x3 NOT ADD SLT PUSH2 0x30D JUMPI PUSH1 0x80 SWAP3 DUP3 SWAP2 CALLDATALOAD DUP2 MSTORE PUSH1 0x10 PUSH1 0x20 MSTORE KECCAK256 PUSH1 0xFF DUP2 SLOAD AND SWAP2 PUSH1 0x1 DUP3 ADD SLOAD SWAP2 PUSH1 0x3 PUSH1 0xFF PUSH1 0x2 DUP4 ADD SLOAD AND SWAP2 ADD SLOAD SWAP3 PUSH2 0x849 DUP4 MLOAD DUP1 SWAP7 PUSH2 0x1F8E JUMP JUMPDEST PUSH1 0x20 DUP6 ADD MSTORE ISZERO ISZERO SWAP1 DUP4 ADD MSTORE PUSH1 0x60 DUP3 ADD MSTORE RETURN JUMPDEST DUP4 DUP3 CALLVALUE PUSH2 0x36A JUMPI PUSH1 0x80 CALLDATASIZE PUSH1 0x3 NOT ADD SLT PUSH2 0x36A JUMPI PUSH2 0x876 PUSH2 0x1DCC JUMP JUMPDEST PUSH2 0x87E PUSH2 0x1DE7 JUMP JUMPDEST PUSH1 0x44 CALLDATALOAD SWAP1 PUSH1 0x64 CALLDATALOAD PUSH8 0xFFFFFFFFFFFFFFFF DUP2 GT PUSH2 0x8CA JUMPI CALLDATASIZE PUSH1 0x23 DUP3 ADD SLT ISZERO PUSH2 0x8CA JUMPI PUSH2 0x8C7 SWAP5 DUP2 PUSH1 0x24 PUSH2 0x8B5 SWAP4 CALLDATASIZE SWAP4 ADD CALLDATALOAD SWAP2 ADD PUSH2 0x1F3F JUMP JUMPDEST SWAP3 PUSH2 0x8C1 DUP4 DUP4 DUP4 PUSH2 0x2045 JUMP JUMPDEST CALLER PUSH2 0x241F JUMP JUMPDEST DUP1 RETURN JUMPDEST DUP6 DUP1 REVERT JUMPDEST POP CALLVALUE PUSH2 0x30D JUMPI PUSH1 0x20 CALLDATASIZE PUSH1 0x3 NOT ADD SLT PUSH2 0x30D JUMPI DUP1 DUP3 PUSH2 0x100 SWAP5 PUSH1 0xFF SWAP4 CALLDATALOAD DUP2 MSTORE PUSH1 0x11 PUSH1 0x20 MSTORE KECCAK256 PUSH1 0x1 DUP1 PUSH1 0xA0 SHL SUB DUP2 SLOAD AND SWAP4 PUSH1 0x1 DUP3 ADD SLOAD SWAP3 PUSH1 0x2 DUP4 ADD SLOAD PUSH1 0x3 DUP5 ADD SLOAD SWAP2 DUP5 ADD SLOAD SWAP3 PUSH1 0x6 PUSH1 0x5 DUP7 ADD SLOAD SWAP6 ADD SLOAD SWAP6 DUP2 MLOAD SWAP9 DUP10 MSTORE PUSH1 0x20 DUP10 ADD MSTORE DUP8 ADD MSTORE PUSH1 0x60 DUP7 ADD MSTORE PUSH1 0x80 DUP6 ADD MSTORE PUSH1 0xA0 DUP5 ADD MSTORE DUP2 DUP2 AND ISZERO ISZERO PUSH1 0xC0 DUP5 ADD MSTORE PUSH1 0x8 SHR AND ISZERO ISZERO PUSH1 0xE0 DUP3 ADD MSTORE RETURN JUMPDEST POP SWAP1 CALLVALUE PUSH2 0x30D JUMPI DUP1 PUSH1 0x3 NOT CALLDATASIZE ADD SLT PUSH2 0x30D JUMPI PUSH2 0x96A PUSH2 0x1DCC JUMP JUMPDEST SWAP1 PUSH1 0x24 CALLDATALOAD DUP1 ISZERO ISZERO SWAP3 DUP4 DUP3 SUB PUSH2 0x8CA JUMPI PUSH1 0x1 PUSH1 0x1 PUSH1 0xA0 SHL SUB AND SWAP4 DUP5 ISZERO PUSH2 0x9E0 JUMPI POP PUSH2 0x9B3 SWAP1 CALLER DUP7 MSTORE PUSH1 0x5 PUSH1 0x20 MSTORE DUP3 DUP7 KECCAK256 DUP6 DUP8 MSTORE PUSH1 0x20 MSTORE DUP3 DUP7 KECCAK256 SWAP1 PUSH1 0xFF DUP1 NOT DUP4 SLOAD AND SWAP2 ISZERO ISZERO AND OR SWAP1 SSTORE JUMP JUMPDEST MLOAD SWAP1 DUP2 MSTORE PUSH32 0x17307EAB39AB6107E8899845AD3D59BD9653F200F220920489CA2B5937696C31 PUSH1 0x20 CALLER SWAP3 LOG3 DUP1 RETURN JUMPDEST DUP3 MLOAD PUSH4 0xB611743 PUSH1 0xE3 SHL DUP2 MSTORE SWAP1 DUP2 ADD DUP6 SWAP1 MSTORE PUSH1 0x24 SWAP1 REVERT JUMPDEST POP POP CALLVALUE PUSH2 0x36A JUMPI DUP2 PUSH1 0x3 NOT CALLDATASIZE ADD SLT PUSH2 0x36A JUMPI PUSH1 0x20 SWAP1 PUSH1 0x9 SLOAD SWAP1 MLOAD SWAP1 DUP2 MSTORE RETURN JUMPDEST POP POP CALLVALUE PUSH2 0x36A JUMPI DUP2 PUSH1 0x3 NOT CALLDATASIZE ADD SLT PUSH2 0x36A JUMPI DUP1 MLOAD SWAP1 DUP3 PUSH1 0x1 DUP1 SLOAD SWAP2 PUSH2 0xA3A DUP4 PUSH2 0x200B JUMP JUMPDEST DUP1 DUP7 MSTORE SWAP3 DUP3 DUP2 AND SWAP1 DUP2 ISZERO PUSH2 0xAD1 JUMPI POP PUSH1 0x1 EQ PUSH2 0xA75 JUMPI JUMPDEST POP POP POP PUSH2 0xA63 DUP3 PUSH2 0x79D SWAP5 SUB DUP4 PUSH2 0x1F01 JUMP JUMPDEST MLOAD SWAP2 DUP3 SWAP2 PUSH1 0x20 DUP4 MSTORE PUSH1 0x20 DUP4 ADD SWAP1 PUSH2 0x1E20 JUMP JUMPDEST SWAP5 POP DUP1 DUP6 MSTORE PUSH32 0xB10E2D527612073B26EECDFD717E6A320CF44B4AFAC2B0732D9FCBE2B7FA0CF6 JUMPDEST DUP3 DUP7 LT PUSH2 0xAB9 JUMPI POP POP POP PUSH2 0xA63 DUP3 PUSH1 0x20 PUSH2 0x79D SWAP6 DUP3 ADD ADD SWAP5 PUSH2 0xA51 JUMP JUMPDEST DUP1 SLOAD PUSH1 0x20 DUP8 DUP8 ADD DUP2 ADD SWAP2 SWAP1 SWAP2 MSTORE SWAP1 SWAP6 ADD SWAP5 DUP2 ADD PUSH2 0xA9C JUMP JUMPDEST PUSH2 0x79D SWAP8 POP DUP7 SWAP4 POP PUSH1 0x20 SWAP3 POP PUSH2 0xA63 SWAP5 SWAP2 POP PUSH1 0xFF NOT AND DUP3 DUP5 ADD MSTORE ISZERO ISZERO PUSH1 0x5 SHL DUP3 ADD ADD SWAP5 PUSH2 0xA51 JUMP JUMPDEST POP POP CALLVALUE PUSH2 0x36A JUMPI DUP2 PUSH1 0x3 NOT CALLDATASIZE ADD SLT PUSH2 0x36A JUMPI PUSH1 0x6 SLOAD SWAP1 MLOAD PUSH1 0x1 PUSH1 0x1 PUSH1 0xA0 SHL SUB SWAP1 SWAP2 AND DUP2 MSTORE PUSH1 0x20 SWAP1 RETURN JUMPDEST POP SWAP2 CALLVALUE PUSH2 0x367 JUMPI DUP2 PUSH1 0x3 NOT CALLDATASIZE ADD SLT PUSH2 0x367 JUMPI DUP3 CALLDATALOAD PUSH8 0xFFFFFFFFFFFFFFFF SWAP2 DUP3 DUP3 GT PUSH2 0x367 JUMPI CALLDATASIZE PUSH1 0x23 DUP4 ADD SLT ISZERO PUSH2 0x367 JUMPI DUP2 DUP6 ADD CALLDATALOAD SWAP2 PUSH2 0xB60 DUP4 PUSH2 0x1F76 JUMP JUMPDEST SWAP1 PUSH2 0xB6D DUP7 MLOAD SWAP3 DUP4 PUSH2 0x1F01 JUMP JUMPDEST DUP4 DUP3 MSTORE PUSH1 0x20 SWAP1 DUP2 DUP4 ADD PUSH1 0x24 DUP1 SWAP7 PUSH1 0x5 SHL DUP4 ADD ADD SWAP2 CALLDATASIZE DUP4 GT PUSH2 0x8CA JUMPI DUP7 ADD SWAP1 JUMPDEST DUP3 DUP3 LT PUSH2 0xCEC JUMPI POP POP POP DUP4 CALLDATALOAD SWAP5 DUP6 GT PUSH2 0x30D JUMPI CALLDATASIZE PUSH1 0x23 DUP7 ADD SLT ISZERO PUSH2 0x30D JUMPI DUP5 DUP8 ADD CALLDATALOAD SWAP5 PUSH2 0xBB8 DUP7 PUSH2 0x1F76 JUMP JUMPDEST SWAP6 PUSH2 0xBC5 DUP9 MLOAD SWAP8 DUP9 PUSH2 0x1F01 JUMP JUMPDEST DUP1 DUP8 MSTORE DUP6 DUP4 DUP9 ADD SWAP2 PUSH1 0x5 SHL DUP4 ADD ADD SWAP2 CALLDATASIZE DUP4 GT PUSH2 0x8CA JUMPI DUP7 ADD SWAP1 JUMPDEST DUP3 DUP3 LT PUSH2 0xCD1 JUMPI POP POP POP PUSH2 0xBF1 PUSH2 0x1FDF JUMP JUMPDEST DUP2 MLOAD DUP6 MLOAD SUB PUSH2 0xC9E JUMPI DUP3 JUMPDEST DUP3 MLOAD DUP2 LT ISZERO PUSH2 0xC9A JUMPI PUSH2 0x3E8 PUSH1 0x7 SLOAD GT PUSH2 0xC63 JUMPI PUSH1 0x1 PUSH1 0x1 PUSH1 0xA0 SHL SUB PUSH2 0xC22 DUP3 DUP6 PUSH2 0x25F2 JUMP JUMPDEST MLOAD AND PUSH2 0xC2E DUP3 DUP9 PUSH2 0x25F2 JUMP JUMPDEST MLOAD SWAP1 DUP10 DUP3 LT ISZERO PUSH2 0xC51 JUMPI PUSH2 0xC4C SWAP3 SWAP2 PUSH2 0xC46 SWAP2 PUSH2 0x2612 JUMP JUMPDEST POP PUSH2 0x25CD JUMP JUMPDEST PUSH2 0xBFC JUMP JUMPDEST PUSH4 0x4E487B71 PUSH1 0xE0 SHL DUP7 MSTORE PUSH1 0x21 DUP11 MSTORE DUP7 DUP7 REVERT JUMPDEST DUP7 MLOAD PUSH3 0x461BCD PUSH1 0xE5 SHL DUP2 MSTORE DUP1 DUP10 ADD DUP4 SWAP1 MSTORE PUSH1 0x12 DUP2 DUP8 ADD MSTORE PUSH18 0x13585E081CDD5C1C1B1E481C995858DA1959 PUSH1 0x72 SHL PUSH1 0x44 DUP3 ADD MSTORE PUSH1 0x64 SWAP1 REVERT JUMPDEST DUP4 DUP1 RETURN JUMPDEST DUP7 PUSH1 0xF DUP6 PUSH1 0x64 SWAP4 DUP10 MLOAD SWAP4 PUSH3 0x461BCD PUSH1 0xE5 SHL DUP6 MSTORE DUP5 ADD MSTORE DUP3 ADD MSTORE PUSH15 0x98CADCCEE8D040DAD2E6DAC2E8C6D PUSH1 0x8B SHL PUSH1 0x44 DUP3 ADD MSTORE REVERT JUMPDEST DUP2 CALLDATALOAD DUP11 DUP2 LT ISZERO PUSH2 0xCE8 JUMPI DUP2 MSTORE SWAP1 DUP4 ADD SWAP1 DUP4 ADD PUSH2 0xBDF JUMP JUMPDEST DUP7 DUP1 REVERT JUMPDEST DUP2 CALLDATALOAD PUSH1 0x1 PUSH1 0x1 PUSH1 0xA0 SHL SUB DUP2 AND DUP2 SUB PUSH2 0xCE8 JUMPI DUP2 MSTORE SWAP1 DUP4 ADD SWAP1 DUP4 ADD PUSH2 0xB8C JUMP JUMPDEST DUP4 CALLVALUE PUSH2 0x367 JUMPI DUP1 PUSH1 0x3 NOT CALLDATASIZE ADD SLT PUSH2 0x367 JUMPI PUSH2 0xD24 PUSH2 0x1FDF JUMP JUMPDEST PUSH1 0xFF NOT PUSH1 0xC SLOAD AND PUSH1 0xC SSTORE PUSH32 0x87F8B5FCD37E51287C7D6863576ED7BA36C0B4506D1147CA3BA2EAB69AEDB1B5 DUP2 DUP1 LOG1 DUP1 RETURN JUMPDEST POP POP CALLVALUE PUSH2 0x36A JUMPI DUP2 PUSH1 0x3 NOT CALLDATASIZE ADD SLT PUSH2 0x36A JUMPI PUSH1 0x20 SWAP1 MLOAD PUSH2 0x37F DUP2 MSTORE RETURN JUMPDEST DUP4 CALLVALUE PUSH2 0x367 JUMPI DUP1 PUSH1 0x3 NOT CALLDATASIZE ADD SLT PUSH2 0x367 JUMPI PUSH2 0xD8B PUSH2 0x1FDF JUMP JUMPDEST PUSH1 0x6 DUP1 SLOAD PUSH1 0x1 PUSH1 0x1 PUSH1 0xA0 SHL SUB NOT DUP2 AND SWAP1 SWAP2 SSTORE DUP2 SWAP1 PUSH1 0x1 PUSH1 0x1 PUSH1 0xA0 SHL SUB AND PUSH32 0x8BE0079C531659141344CD1FD0A4F28419497F9722A3DAAFE3B4186F6B6457E0 DUP3 DUP1 LOG3 DUP1 RETURN JUMPDEST POP SWAP2 CALLVALUE PUSH2 0x367 JUMPI PUSH1 0x20 CALLDATASIZE PUSH1 0x3 NOT ADD SLT PUSH2 0x367 JUMPI PUSH1 0x1 PUSH1 0x1 PUSH1 0xA0 SHL SUB PUSH2 0xDF2 PUSH2 0x1DCC JUMP JUMPDEST AND SWAP3 DUP4 ISZERO PUSH2 0xE0F JUMPI POP DUP1 PUSH1 0x20 SWAP4 DUP4 SWAP3 MSTORE PUSH1 0x3 DUP5 MSTORE KECCAK256 SLOAD SWAP1 MLOAD SWAP1 DUP2 MSTORE RETURN JUMPDEST SWAP2 MLOAD PUSH4 0x22718AD9 PUSH1 0xE2 SHL DUP2 MSTORE SWAP2 DUP3 ADD MSTORE PUSH1 0x24 SWAP1 REVERT JUMPDEST POP POP CALLVALUE PUSH2 0x36A JUMPI DUP2 PUSH1 0x3 NOT CALLDATASIZE ADD SLT PUSH2 0x36A JUMPI PUSH1 0x20 SWAP1 PUSH1 0xB SLOAD SWAP1 MLOAD SWAP1 DUP2 MSTORE RETURN JUMPDEST POP SWAP2 CALLVALUE PUSH2 0x367 JUMPI PUSH1 0x20 CALLDATASIZE PUSH1 0x3 NOT ADD SLT PUSH2 0x367 JUMPI POP PUSH2 0xE63 PUSH1 0x20 SWAP3 CALLDATALOAD PUSH2 0x22A0 JUMP JUMPDEST SWAP1 MLOAD PUSH1 0x1 PUSH1 0x1 PUSH1 0xA0 SHL SUB SWAP1 SWAP2 AND DUP2 MSTORE RETURN JUMPDEST POP DUP3 CALLVALUE PUSH2 0x367 JUMPI PUSH1 0x20 DUP1 PUSH1 0x3 NOT CALLDATASIZE ADD SLT PUSH2 0x36A JUMPI PUSH8 0xFFFFFFFFFFFFFFFF SWAP1 DUP4 CALLDATALOAD DUP3 DUP2 GT PUSH2 0x6F4 JUMPI CALLDATASIZE PUSH1 0x23 DUP3 ADD SLT ISZERO PUSH2 0x6F4 JUMPI PUSH2 0xEB9 SWAP1 CALLDATASIZE SWAP1 PUSH1 0x24 DUP2 DUP9 ADD CALLDATALOAD SWAP2 ADD PUSH2 0x1F3F JUMP JUMPDEST SWAP4 PUSH2 0xEC2 PUSH2 0x1FDF JUMP JUMPDEST DUP5 MLOAD SWAP3 DUP4 GT PUSH2 0xFFE JUMPI POP PUSH2 0xED7 PUSH1 0xE SLOAD PUSH2 0x200B JUMP JUMPDEST PUSH1 0x1F DUP2 GT PUSH2 0xF9C JUMPI JUMPDEST POP DUP1 PUSH1 0x1F DUP4 GT PUSH1 0x1 EQ PUSH2 0xF1B JUMPI POP DUP3 SWAP4 DUP3 SWAP4 SWAP3 PUSH2 0xF10 JUMPI JUMPDEST POP POP DUP2 PUSH1 0x1 SHL SWAP2 PUSH1 0x0 NOT SWAP1 PUSH1 0x3 SHL SHR NOT AND OR PUSH1 0xE SSTORE DUP1 RETURN JUMPDEST ADD MLOAD SWAP1 POP DUP4 DUP1 PUSH2 0xEF8 JUMP JUMPDEST PUSH1 0xE DUP5 MSTORE PUSH1 0x1F NOT DUP4 AND SWAP5 PUSH32 0xBB7B4A454DC3493923482F07822329ED19E8244EFF582CC204F8554C3620C3FD SWAP3 SWAP2 DUP6 SWAP1 JUMPDEST DUP8 DUP3 LT PUSH2 0xF84 JUMPI POP POP DUP4 PUSH1 0x1 SWAP6 SWAP7 LT PUSH2 0xF6B JUMPI JUMPDEST POP POP POP DUP2 SHL ADD PUSH1 0xE SSTORE DUP1 RETURN JUMPDEST ADD MLOAD PUSH1 0x0 NOT PUSH1 0xF8 DUP5 PUSH1 0x3 SHL AND SHR NOT AND SWAP1 SSTORE DUP4 DUP1 DUP1 PUSH2 0xF5F JUMP JUMPDEST DUP1 PUSH1 0x1 DUP6 SWAP7 DUP3 SWAP5 SWAP7 DUP7 ADD MLOAD DUP2 SSTORE ADD SWAP6 ADD SWAP4 ADD SWAP1 PUSH2 0xF4B JUMP JUMPDEST PUSH1 0xE DUP5 MSTORE PUSH32 0xBB7B4A454DC3493923482F07822329ED19E8244EFF582CC204F8554C3620C3FD PUSH1 0x1F DUP5 ADD PUSH1 0x5 SHR DUP2 ADD SWAP2 DUP4 DUP6 LT PUSH2 0xFF4 JUMPI JUMPDEST PUSH1 0x1F ADD PUSH1 0x5 SHR ADD SWAP1 JUMPDEST DUP2 DUP2 LT PUSH2 0xFE9 JUMPI POP PUSH2 0xEE0 JUMP JUMPDEST DUP5 DUP2 SSTORE PUSH1 0x1 ADD PUSH2 0xFDC JUMP JUMPDEST SWAP1 SWAP2 POP DUP2 SWAP1 PUSH2 0xFD3 JUMP JUMPDEST PUSH4 0x4E487B71 PUSH1 0xE0 SHL DUP5 MSTORE PUSH1 0x41 SWAP1 MSTORE PUSH1 0x24 DUP4 REVERT JUMPDEST DUP3 DUP5 CALLVALUE PUSH2 0x367 JUMPI PUSH1 0x20 SWAP1 DUP2 PUSH1 0x3 NOT CALLDATASIZE ADD SLT PUSH2 0x367 JUMPI DUP3 SWAP1 PUSH1 0x1 PUSH1 0x1 PUSH1 0xA0 SHL SUB PUSH2 0x1038 PUSH2 0x1DCC JUMP JUMPDEST AND DUP2 MSTORE PUSH1 0x12 DUP4 MSTORE DUP2 DUP2 KECCAK256 SWAP1 DUP3 MLOAD DUP1 DUP6 DUP5 SLOAD SWAP2 DUP3 DUP2 MSTORE ADD SWAP1 DUP2 SWAP5 DUP5 MSTORE DUP7 DUP5 KECCAK256 SWAP1 DUP5 JUMPDEST DUP2 DUP2 LT PUSH2 0x10AA JUMPI POP POP POP DUP2 PUSH2 0x106F SWAP2 SUB DUP3 PUSH2 0x1F01 JUMP JUMPDEST DUP4 MLOAD SWAP5 DUP6 SWAP5 DUP2 DUP7 ADD SWAP3 DUP3 DUP8 MSTORE MLOAD DUP1 SWAP4 MSTORE DUP6 ADD SWAP4 SWAP3 JUMPDEST DUP3 DUP2 LT PUSH2 0x1093 JUMPI POP POP POP POP SUB SWAP1 RETURN JUMPDEST DUP4 MLOAD DUP6 MSTORE DUP7 SWAP6 POP SWAP4 DUP2 ADD SWAP4 SWAP3 DUP2 ADD SWAP3 PUSH1 0x1 ADD PUSH2 0x1084 JUMP JUMPDEST DUP3 SLOAD DUP5 MSTORE SWAP3 DUP9 ADD SWAP3 PUSH1 0x1 SWAP3 DUP4 ADD SWAP3 ADD PUSH2 0x1059 JUMP JUMPDEST POP POP CALLVALUE PUSH2 0x36A JUMPI DUP2 PUSH1 0x3 NOT CALLDATASIZE ADD SLT PUSH2 0x36A JUMPI PUSH1 0xF SLOAD SWAP1 MLOAD PUSH1 0x1 PUSH1 0x1 PUSH1 0xA0 SHL SUB SWAP1 SWAP2 AND DUP2 MSTORE PUSH1 0x20 SWAP1 RETURN JUMPDEST POP POP CALLVALUE PUSH2 0x36A JUMPI PUSH2 0x8C7 SWAP1 PUSH2 0x10FB CALLDATASIZE PUSH2 0x1E45 JUMP JUMPDEST SWAP2 SWAP3 MLOAD SWAP3 PUSH2 0x1108 DUP5 PUSH2 0x1EC9 JUMP JUMPDEST DUP6 DUP5 MSTORE PUSH2 0x8C1 DUP4 DUP4 DUP4 PUSH2 0x2045 JUMP JUMPDEST POP CALLVALUE PUSH2 0x30D JUMPI DUP3 PUSH1 0x3 NOT CALLDATASIZE ADD SLT PUSH2 0x30D JUMPI PUSH2 0x112F PUSH2 0x1FDF JUMP JUMPDEST SELFBALANCE SWAP1 DUP2 ISZERO PUSH2 0x1161 JUMPI POP PUSH1 0x6 SLOAD DUP4 SWAP2 DUP3 SWAP2 DUP3 SWAP2 DUP3 SWAP2 PUSH1 0x1 PUSH1 0x1 PUSH1 0xA0 SHL SUB AND DUP3 CALL ISZERO PUSH2 0x1157 JUMPI POP DUP1 RETURN JUMPDEST MLOAD SWAP1 RETURNDATASIZE SWAP1 DUP3 RETURNDATACOPY RETURNDATASIZE SWAP1 REVERT JUMPDEST PUSH1 0x64 SWAP1 PUSH1 0x20 DUP5 MLOAD SWAP2 PUSH3 0x461BCD PUSH1 0xE5 SHL DUP4 MSTORE DUP3 ADD MSTORE PUSH1 0x8 PUSH1 0x24 DUP3 ADD MSTORE PUSH8 0x4E6F2066756E6473 PUSH1 0xC0 SHL PUSH1 0x44 DUP3 ADD MSTORE REVERT JUMPDEST POP POP CALLVALUE PUSH2 0x36A JUMPI DUP2 PUSH1 0x3 NOT CALLDATASIZE ADD SLT PUSH2 0x36A JUMPI PUSH1 0x20 SWAP1 PUSH1 0xFF PUSH1 0xC SLOAD AND SWAP1 MLOAD SWAP1 ISZERO ISZERO DUP2 MSTORE RETURN JUMPDEST POP POP CALLVALUE PUSH2 0x36A JUMPI DUP2 PUSH1 0x3 NOT CALLDATASIZE ADD SLT PUSH2 0x36A JUMPI PUSH1 0x20 SWAP1 MLOAD PUSH2 0x3E8 DUP2 MSTORE RETURN JUMPDEST POP SWAP2 SWAP1 CALLVALUE PUSH2 0x36A JUMPI PUSH1 0x20 CALLDATASIZE PUSH1 0x3 NOT ADD SLT PUSH2 0x36A JUMPI DUP3 CALLDATALOAD DUP3 MSTORE PUSH1 0x11 PUSH1 0x20 MSTORE DUP1 DUP3 KECCAK256 SWAP2 DUP2 MLOAD SWAP2 PUSH2 0x11FD DUP4 PUSH2 0x1E7A JUMP JUMPDEST PUSH1 0x1 DUP1 PUSH1 0xA0 SHL SUB DUP5 SLOAD AND DUP4 MSTORE PUSH1 0x1 DUP5 ADD SLOAD PUSH1 0x20 DUP5 ADD MSTORE PUSH1 0x2 DUP5 ADD SLOAD SWAP3 DUP4 DUP3 DUP3 ADD MSTORE PUSH1 0x3 DUP6 ADD SLOAD SWAP5 DUP6 PUSH1 0x60 DUP4 ADD MSTORE DUP7 DUP2 ADD SLOAD PUSH1 0x80 DUP4 ADD MSTORE PUSH1 0x6 PUSH1 0x5 DUP3 ADD SLOAD SWAP2 PUSH1 0xA0 DUP5 ADD SWAP3 DUP4 MSTORE ADD SLOAD SWAP2 PUSH1 0xE0 PUSH1 0xFF PUSH1 0xC0 DUP4 ADD SWAP5 DUP2 DUP2 AND ISZERO ISZERO DUP7 MSTORE PUSH1 0x8 SHR AND ISZERO ISZERO SWAP2 ADD MSTORE DUP6 DUP6 SUB SWAP5 DUP6 GT PUSH2 0x12A7 JUMPI MLOAD SWAP3 PUSH3 0x15180 DUP5 ADD DUP1 SWAP5 GT PUSH2 0x1294 JUMPI POP PUSH1 0x80 SWAP6 POP MLOAD ISZERO ISZERO SWAP3 DUP2 MLOAD SWAP5 DUP6 MSTORE PUSH1 0x20 DUP6 ADD MSTORE DUP4 ADD MSTORE PUSH1 0x60 DUP3 ADD MSTORE RETURN JUMPDEST PUSH4 0x4E487B71 PUSH1 0xE0 SHL DUP2 MSTORE PUSH1 0x11 DUP8 MSTORE PUSH1 0x24 SWAP1 REVERT JUMPDEST PUSH4 0x4E487B71 PUSH1 0xE0 SHL DUP5 MSTORE PUSH1 0x11 DUP8 MSTORE PUSH1 0x24 DUP5 REVERT JUMPDEST POP POP CALLVALUE PUSH2 0x36A JUMPI DUP2 PUSH1 0x3 NOT CALLDATASIZE ADD SLT PUSH2 0x36A JUMPI PUSH1 0x20 SWAP1 PUSH1 0xA SLOAD SWAP1 MLOAD SWAP1 DUP2 MSTORE RETURN JUMPDEST POP POP CALLVALUE PUSH2 0x36A JUMPI DUP2 PUSH1 0x3 NOT CALLDATASIZE ADD SLT PUSH2 0x36A JUMPI PUSH1 0x20 SWAP1 MLOAD PUSH8 0x214E8348C4F0000 DUP2 MSTORE RETURN JUMPDEST DUP4 CALLVALUE PUSH2 0x367 JUMPI PUSH2 0x8C7 PUSH2 0x130E CALLDATASIZE PUSH2 0x1E45 JUMP JUMPDEST SWAP2 PUSH2 0x2045 JUMP JUMPDEST POP SWAP1 CALLVALUE PUSH2 0x30D JUMPI PUSH1 0x20 DUP1 PUSH1 0x3 NOT CALLDATASIZE ADD SLT PUSH2 0x6F4 JUMPI DUP3 CALLDATALOAD SWAP3 PUSH2 0x1334 DUP5 PUSH2 0x22A0 JUMP JUMPDEST PUSH1 0x1 PUSH1 0x1 PUSH1 0xA0 SHL SUB SWAP1 CALLER SWAP1 DUP3 AND SUB PUSH2 0x148B JUMPI DUP5 DUP7 MSTORE PUSH1 0x10 DUP4 MSTORE PUSH1 0xFF PUSH1 0x2 DUP6 DUP9 KECCAK256 ADD SLOAD AND PUSH2 0x1457 JUMPI DUP5 DUP7 MSTORE PUSH1 0x11 DUP4 MSTORE PUSH1 0xE0 PUSH1 0x6 DUP6 DUP9 KECCAK256 DUP7 MLOAD SWAP4 PUSH2 0x1375 DUP6 PUSH2 0x1E7A JUMP JUMPDEST DUP2 SLOAD AND DUP5 MSTORE PUSH1 0x1 DUP2 ADD SLOAD DUP7 DUP6 ADD MSTORE PUSH1 0x2 DUP2 ADD SLOAD DUP8 DUP6 ADD MSTORE PUSH1 0x3 DUP2 ADD SLOAD PUSH1 0x60 DUP6 ADD MSTORE DUP5 DUP2 ADD SLOAD PUSH1 0x80 DUP6 ADD MSTORE PUSH1 0x5 DUP2 ADD SLOAD PUSH1 0xA0 DUP6 ADD MSTORE ADD SLOAD SWAP2 PUSH1 0xFF DUP1 DUP5 AND ISZERO SWAP4 DUP5 ISZERO PUSH1 0xC0 DUP5 ADD MSTORE PUSH1 0x8 SHR AND ISZERO ISZERO SWAP2 DUP3 SWAP2 ADD MSTORE PUSH2 0x140C JUMPI JUMPDEST POP POP DUP3 DUP5 MSTORE PUSH1 0x10 SWAP1 MSTORE DUP3 KECCAK256 PUSH1 0x2 ADD DUP1 SLOAD PUSH1 0xFF NOT AND PUSH1 0x1 OR SWAP1 SSTORE CALLER SWAP1 PUSH32 0xBCC217A4A801124DC2346B3503BE7DFBBB798F5EA5D401306958D24640C088E0 DUP4 DUP1 LOG3 DUP1 RETURN JUMPDEST PUSH2 0x1416 JUMPI DUP1 PUSH2 0x13CA JUMP JUMPDEST SWAP2 MLOAD PUSH3 0x461BCD PUSH1 0xE5 SHL DUP2 MSTORE SWAP2 DUP3 ADD MSTORE PUSH1 0x17 PUSH1 0x24 DUP3 ADD MSTORE PUSH32 0x436F6D706C657465207061796D656E7473206669727374000000000000000000 PUSH1 0x44 DUP3 ADD MSTORE PUSH1 0x64 SWAP1 REVERT JUMPDEST POP SWAP2 MLOAD PUSH3 0x461BCD PUSH1 0xE5 SHL DUP2 MSTORE SWAP2 DUP3 ADD MSTORE PUSH1 0xF PUSH1 0x24 DUP3 ADD MSTORE PUSH15 0x105B1C9958591E481A185D18DA1959 PUSH1 0x8A SHL PUSH1 0x44 DUP3 ADD MSTORE PUSH1 0x64 SWAP1 REVERT JUMPDEST POP SWAP2 MLOAD PUSH3 0x461BCD PUSH1 0xE5 SHL DUP2 MSTORE SWAP2 DUP3 ADD MSTORE PUSH1 0xD PUSH1 0x24 DUP3 ADD MSTORE PUSH13 0x2737BA1032B3B39037BBB732B9 PUSH1 0x99 SHL PUSH1 0x44 DUP3 ADD MSTORE PUSH1 0x64 SWAP1 REVERT JUMPDEST POP POP CALLVALUE PUSH2 0x36A JUMPI DUP2 PUSH1 0x3 NOT CALLDATASIZE ADD SLT PUSH2 0x36A JUMPI PUSH1 0x20 SWAP1 MLOAD PUSH3 0x15180 DUP2 MSTORE RETURN JUMPDEST POP SWAP2 SWAP1 PUSH1 0x20 DUP1 PUSH1 0x3 NOT CALLDATASIZE ADD SLT PUSH2 0x30D JUMPI DUP4 CALLDATALOAD SWAP2 DUP5 DUP4 LT ISZERO PUSH2 0x6F4 JUMPI PUSH1 0x7 SLOAD SWAP3 PUSH2 0x1508 PUSH2 0x3E8 DUP6 GT ISZERO PUSH2 0x250A JUMP JUMPDEST PUSH2 0x1511 DUP2 PUSH2 0x2868 JUMP JUMPDEST SWAP3 PUSH1 0x3 DUP5 DIV SWAP4 DUP5 CALLVALUE SUB PUSH2 0x1852 JUMPI PUSH1 0xFF PUSH1 0xC SLOAD AND PUSH2 0x1842 JUMPI JUMPDEST PUSH2 0x1532 DUP4 PUSH2 0x2821 JUMP JUMPDEST ISZERO PUSH2 0x1808 JUMPI PUSH2 0x1540 DUP7 PUSH2 0x25CD JUMP JUMPDEST PUSH1 0x7 SSTORE PUSH1 0x3 DUP4 SUB PUSH2 0x17BF JUMPI PUSH2 0x1556 PUSH1 0x8 SLOAD PUSH2 0x25CD JUMP JUMPDEST PUSH1 0x8 SSTORE JUMPDEST DUP4 MLOAD SWAP3 PUSH2 0x1566 DUP5 PUSH2 0x1EAD JUMP JUMPDEST PUSH2 0x1570 DUP2 DUP6 PUSH2 0x2606 JUMP JUMPDEST DUP3 DUP5 ADD SWAP4 PUSH1 0x1 SWAP5 DUP6 DUP2 MSTORE DUP7 DUP3 ADD DUP11 DUP2 MSTORE PUSH1 0x60 DUP4 ADD SWAP2 TIMESTAMP DUP4 MSTORE DUP11 DUP13 MSTORE PUSH1 0x10 DUP8 MSTORE DUP9 DUP13 KECCAK256 SWAP4 MLOAD DUP14 DUP2 LT ISZERO PUSH2 0x17AB JUMPI DUP5 SLOAD PUSH1 0xFF SWAP2 DUP3 AND PUSH1 0xFF NOT SWAP2 DUP3 AND OR DUP7 SSTORE SWAP2 MLOAD DUP10 DUP7 ADD SSTORE SWAP2 MLOAD PUSH1 0x2 DUP6 ADD DUP1 SLOAD SWAP2 ISZERO ISZERO SWAP1 SWAP4 AND SWAP2 AND OR SWAP1 SSTORE PUSH1 0x3 SWAP1 MLOAD SWAP2 ADD SSTORE DUP5 MLOAD SWAP1 PUSH2 0x15D8 DUP3 PUSH2 0x1EC9 JUMP JUMPDEST DUP9 DUP3 MSTORE CALLER ISZERO PUSH2 0x1794 JUMPI PUSH1 0x1 PUSH1 0x1 PUSH1 0xA0 SHL SUB SWAP2 DUP3 PUSH2 0x15F5 DUP11 CALLER PUSH2 0x21E4 JUMP JUMPDEST AND PUSH2 0x177D JUMPI SWAP2 DUP9 DUP8 DUP12 SWAP6 SWAP4 DUP3 SWAP6 CALLER SWAP1 DUP5 CALLER SWAP3 PUSH2 0x1610 SWAP4 PUSH2 0x22DB JUMP JUMPDEST DUP2 MLOAD SWAP1 DUP2 PUSH2 0x161D SWAP2 PUSH2 0x1F8E JUMP JUMPDEST DUP9 DUP9 DUP3 ADD MSTORE CALLER SWAP2 PUSH32 0xD48981A3A59CF6FB9F8E7DF82B62B368AFF5A96C6D53F6837CF0871485B53F07 SWAP2 LOG3 DUP7 MLOAD SWAP2 PUSH2 0x1653 DUP4 PUSH2 0x1E7A JUMP JUMPDEST CALLER DUP4 MSTORE DUP6 DUP4 ADD SWAP1 DUP5 DUP3 MSTORE DUP9 DUP5 ADD SWAP1 DUP2 MSTORE PUSH1 0x60 DUP5 ADD SWAP1 DUP11 DUP3 MSTORE PUSH1 0x80 DUP6 ADD SWAP3 DUP10 DUP5 MSTORE PUSH1 0xA0 DUP7 ADD SWAP5 TIMESTAMP DUP7 MSTORE DUP12 PUSH1 0xC0 DUP9 ADD SWAP10 DUP1 DUP12 MSTORE PUSH1 0xE0 DUP10 ADD SWAP10 DUP14 DUP12 MSTORE DUP2 MSTORE PUSH1 0x11 DUP13 MSTORE KECCAK256 SWAP7 MLOAD AND PUSH1 0x1 PUSH1 0x1 PUSH1 0x60 SHL SUB PUSH1 0xA0 SHL DUP8 SLOAD AND OR DUP7 SSTORE MLOAD DUP10 DUP7 ADD SSTORE MLOAD PUSH1 0x2 DUP6 ADD SSTORE MLOAD PUSH1 0x3 DUP5 ADD SSTORE MLOAD DUP12 DUP4 ADD SSTORE MLOAD PUSH1 0x5 DUP3 ADD SSTORE PUSH1 0x6 ADD SWAP2 MLOAD ISZERO ISZERO PUSH2 0x16E0 SWAP1 DUP4 SWAP1 PUSH1 0xFF DUP1 NOT DUP4 SLOAD AND SWAP2 ISZERO ISZERO AND OR SWAP1 SSTORE JUMP JUMPDEST MLOAD ISZERO ISZERO DUP2 SLOAD SWAP1 PUSH1 0x8 SHL PUSH2 0xFF00 AND SWAP1 PUSH2 0xFF00 NOT AND OR SWAP1 SSTORE CALLER DUP7 MSTORE PUSH1 0x12 DUP2 MSTORE DUP3 DUP7 KECCAK256 DUP1 SLOAD SWAP1 PUSH9 0x10000000000000000 DUP3 LT ISZERO PUSH2 0x176A JUMPI DUP2 PUSH2 0x1747 SWAP2 DUP6 PUSH32 0x533EE8548875D0F22A581A3C1A9288F512457C881609110B967D0C66A6DB573E SWAP8 SWAP7 SWAP6 SWAP5 ADD DUP2 SSTORE PUSH2 0x1FB1 JUMP JUMPDEST DUP2 SLOAD SWAP1 PUSH1 0x3 SHL SWAP1 DUP9 DUP3 SHL SWAP2 PUSH1 0x0 NOT SWAP1 SHL NOT AND OR SWAP1 SSTORE DUP3 MLOAD SWAP5 DUP6 MSTORE DUP5 ADD MSTORE CALLER SWAP3 LOG3 DUP1 RETURN JUMPDEST PUSH4 0x4E487B71 PUSH1 0xE0 SHL DUP9 MSTORE PUSH1 0x41 DUP10 MSTORE PUSH1 0x24 DUP9 REVERT JUMPDEST DUP7 MLOAD PUSH4 0x39E35637 PUSH1 0xE1 SHL DUP2 MSTORE DUP1 DUP13 ADD DUP12 SWAP1 MSTORE PUSH1 0x24 SWAP1 REVERT JUMPDEST DUP6 MLOAD PUSH4 0x32505749 PUSH1 0xE1 SHL DUP2 MSTORE DUP1 DUP12 ADD DUP11 SWAP1 MSTORE PUSH1 0x24 SWAP1 REVERT JUMPDEST POP PUSH4 0x4E487B71 PUSH1 0xE0 SHL DUP13 MSTORE PUSH1 0x21 DUP14 MSTORE PUSH1 0x24 DUP13 REVERT JUMPDEST PUSH1 0x2 DUP4 SUB PUSH2 0x17DA JUMPI PUSH2 0x17D2 PUSH1 0x9 SLOAD PUSH2 0x25CD JUMP JUMPDEST PUSH1 0x9 SSTORE PUSH2 0x155A JUMP JUMPDEST PUSH1 0x1 DUP4 SUB PUSH2 0x17F5 JUMPI PUSH2 0x17ED PUSH1 0xA SLOAD PUSH2 0x25CD JUMP JUMPDEST PUSH1 0xA SSTORE PUSH2 0x155A JUMP JUMPDEST PUSH2 0x1800 PUSH1 0xB SLOAD PUSH2 0x25CD JUMP JUMPDEST PUSH1 0xB SSTORE PUSH2 0x155A JUMP JUMPDEST DUP4 MLOAD PUSH3 0x461BCD PUSH1 0xE5 SHL DUP2 MSTORE DUP1 DUP10 ADD DUP4 SWAP1 MSTORE PUSH1 0x14 PUSH1 0x24 DUP3 ADD MSTORE PUSH20 0x14985C9A5D1E481B1A5B5A5D081C995858DA1959 PUSH1 0x62 SHL PUSH1 0x44 DUP3 ADD MSTORE PUSH1 0x64 SWAP1 REVERT JUMPDEST PUSH2 0x184D DUP4 ISZERO ISZERO PUSH2 0x2588 JUMP JUMPDEST PUSH2 0x1529 JUMP JUMPDEST DUP4 MLOAD PUSH3 0x461BCD PUSH1 0xE5 SHL DUP2 MSTORE DUP1 DUP10 ADD DUP4 SWAP1 MSTORE PUSH1 0x17 PUSH1 0x24 DUP3 ADD MSTORE PUSH32 0x496E636F7272656374206669727374207061796D656E74000000000000000000 PUSH1 0x44 DUP3 ADD MSTORE PUSH1 0x64 SWAP1 REVERT JUMPDEST POP POP CALLVALUE PUSH2 0x36A JUMPI DUP2 PUSH1 0x3 NOT CALLDATASIZE ADD SLT PUSH2 0x36A JUMPI PUSH1 0x80 SWAP1 PUSH1 0x8 SLOAD SWAP1 PUSH1 0x9 SLOAD SWAP1 PUSH1 0xA SLOAD SWAP1 PUSH1 0xB SLOAD SWAP3 DUP2 MLOAD SWAP5 DUP6 MSTORE PUSH1 0x20 DUP6 ADD MSTORE DUP4 ADD MSTORE PUSH1 0x60 DUP3 ADD MSTORE RETURN JUMPDEST POP SWAP1 DUP3 PUSH1 0x3 NOT CALLDATASIZE ADD SLT PUSH2 0x30D JUMPI PUSH1 0xFF PUSH1 0xC SLOAD AND PUSH2 0x1A6F JUMPI PUSH2 0x18F7 PUSH7 0xB1A2BC2EC50000 CALLVALUE EQ PUSH2 0x2548 JUMP JUMPDEST PUSH1 0xB SLOAD SWAP2 PUSH2 0x37F DUP4 LT ISZERO PUSH2 0x1A37 JUMPI PUSH2 0x191D PUSH1 0x7 SLOAD SWAP4 PUSH2 0x1915 DUP6 PUSH2 0x25CD JUMP JUMPDEST PUSH1 0x7 SSTORE PUSH2 0x25CD JUMP JUMPDEST PUSH1 0xB SSTORE DUP2 MLOAD PUSH2 0x192B DUP2 PUSH2 0x1EAD JUMP JUMPDEST DUP5 DUP2 MSTORE PUSH1 0x20 DUP2 ADD PUSH1 0x1 DUP2 MSTORE DUP4 DUP3 ADD DUP7 DUP2 MSTORE PUSH1 0x60 DUP4 ADD SWAP2 TIMESTAMP DUP4 MSTORE DUP7 DUP9 MSTORE PUSH1 0x10 PUSH1 0x20 MSTORE DUP6 DUP9 KECCAK256 SWAP4 MLOAD DUP6 DUP2 LT ISZERO PUSH2 0x1A24 JUMPI DUP5 SLOAD PUSH1 0xFF SWAP2 DUP3 AND PUSH1 0xFF NOT SWAP2 DUP3 AND OR DUP7 SSTORE SWAP2 MLOAD PUSH1 0x1 DUP7 ADD SSTORE SWAP2 MLOAD PUSH1 0x2 DUP6 ADD DUP1 SLOAD SWAP2 ISZERO ISZERO SWAP1 SWAP4 AND SWAP2 AND OR SWAP1 SSTORE PUSH1 0x3 SWAP1 MLOAD SWAP2 ADD SSTORE DUP2 MLOAD SWAP1 PUSH2 0x1996 DUP3 PUSH2 0x1EC9 JUMP JUMPDEST DUP5 DUP3 MSTORE CALLER ISZERO PUSH2 0x1A0D JUMPI PUSH1 0x1 PUSH1 0x1 PUSH1 0xA0 SHL SUB PUSH2 0x19B1 DUP6 CALLER PUSH2 0x21E4 JUMP JUMPDEST AND PUSH2 0x19F6 JUMPI POP PUSH2 0x19C3 SWAP1 DUP4 CALLER CALLER PUSH2 0x22DB JUMP JUMPDEST PUSH32 0xD48981A3A59CF6FB9F8E7DF82B62B368AFF5A96C6D53F6837CF0871485B53F07 DUP2 MLOAD SWAP2 DUP5 DUP4 MSTORE DUP5 PUSH1 0x20 DUP5 ADD MSTORE CALLER SWAP3 LOG3 DUP1 RETURN JUMPDEST DUP3 MLOAD PUSH4 0x39E35637 PUSH1 0xE1 SHL DUP2 MSTORE SWAP1 DUP2 ADD DUP6 SWAP1 MSTORE PUSH1 0x24 SWAP1 REVERT JUMPDEST DUP3 MLOAD PUSH4 0x32505749 PUSH1 0xE1 SHL DUP2 MSTORE SWAP1 DUP2 ADD DUP6 SWAP1 MSTORE PUSH1 0x24 SWAP1 REVERT JUMPDEST PUSH4 0x4E487B71 PUSH1 0xE0 SHL DUP10 MSTORE PUSH1 0x21 DUP7 MSTORE PUSH1 0x24 DUP10 REVERT JUMPDEST PUSH1 0x20 PUSH1 0x64 SWAP3 MLOAD SWAP2 PUSH3 0x461BCD PUSH1 0xE5 SHL DUP4 MSTORE DUP3 ADD MSTORE PUSH1 0x13 PUSH1 0x24 DUP3 ADD MSTORE PUSH19 0x139BC818DBDB5B5BDB881959D9DCC81B19599D PUSH1 0x6A SHL PUSH1 0x44 DUP3 ADD MSTORE REVERT JUMPDEST SWAP1 PUSH1 0x20 PUSH1 0x64 SWAP3 MLOAD SWAP2 PUSH3 0x461BCD PUSH1 0xE5 SHL DUP4 MSTORE DUP3 ADD MSTORE PUSH1 0x11 PUSH1 0x24 DUP3 ADD MSTORE PUSH17 0x46697273742073616C6520616374697665 PUSH1 0x78 SHL PUSH1 0x44 DUP3 ADD MSTORE REVERT JUMPDEST POP POP CALLVALUE PUSH2 0x36A JUMPI DUP2 PUSH1 0x3 NOT CALLDATASIZE ADD SLT PUSH2 0x36A JUMPI PUSH1 0x20 SWAP1 MLOAD PUSH1 0x3 DUP2 MSTORE RETURN JUMPDEST POP POP CALLVALUE PUSH2 0x36A JUMPI DUP2 PUSH1 0x3 NOT CALLDATASIZE ADD SLT PUSH2 0x36A JUMPI PUSH1 0x20 SWAP1 MLOAD PUSH1 0x19 DUP2 MSTORE RETURN JUMPDEST POP POP CALLVALUE PUSH2 0x36A JUMPI DUP2 PUSH1 0x3 NOT CALLDATASIZE ADD SLT PUSH2 0x36A JUMPI PUSH1 0x20 SWAP1 PUSH1 0xD SLOAD SWAP1 MLOAD SWAP1 DUP2 MSTORE RETURN JUMPDEST POP SWAP1 CALLVALUE PUSH2 0x30D JUMPI DUP1 PUSH1 0x3 NOT CALLDATASIZE ADD SLT PUSH2 0x30D JUMPI PUSH2 0x1B17 PUSH2 0x1DCC JUMP JUMPDEST SWAP2 PUSH1 0x24 CALLDATALOAD PUSH2 0x1B24 DUP2 PUSH2 0x22A0 JUMP JUMPDEST CALLER ISZERO ISZERO DUP1 PUSH2 0x1BC6 JUMPI JUMPDEST DUP1 PUSH2 0x1B9D JUMPI JUMPDEST PUSH2 0x1B87 JUMPI PUSH1 0x1 PUSH1 0x1 PUSH1 0xA0 SHL SUB SWAP5 DUP6 AND SWAP5 DUP3 SWAP2 DUP7 SWAP2 AND PUSH32 0x8C5BE1E5EBEC7D5BD14F71427D1E84F3DD0314C0F7B2291E5B200AC8C7C3B925 DUP9 DUP1 LOG4 DUP5 MSTORE PUSH1 0x20 MSTORE DUP3 KECCAK256 DUP1 SLOAD PUSH1 0x1 PUSH1 0x1 PUSH1 0xA0 SHL SUB NOT AND SWAP1 SWAP2 OR SWAP1 SSTORE DUP1 RETURN JUMPDEST DUP4 MLOAD PUSH4 0xA9FBF51F PUSH1 0xE0 SHL DUP2 MSTORE CALLER DUP2 DUP6 ADD MSTORE PUSH1 0x24 SWAP1 REVERT JUMPDEST POP PUSH1 0x1 PUSH1 0x1 PUSH1 0xA0 SHL SUB DUP2 AND DUP7 MSTORE PUSH1 0x5 PUSH1 0x20 SWAP1 DUP2 MSTORE DUP5 DUP8 KECCAK256 CALLER DUP9 MSTORE SWAP1 MSTORE DUP4 DUP7 KECCAK256 SLOAD PUSH1 0xFF AND ISZERO PUSH2 0x1B33 JUMP JUMPDEST POP PUSH1 0x1 PUSH1 0x1 PUSH1 0xA0 SHL SUB DUP2 AND CALLER EQ ISZERO PUSH2 0x1B2D JUMP JUMPDEST POP CALLVALUE PUSH2 0x30D JUMPI PUSH1 0x20 CALLDATASIZE PUSH1 0x3 NOT ADD SLT PUSH2 0x30D JUMPI SWAP2 DUP3 PUSH1 0x20 SWAP4 CALLDATALOAD PUSH2 0x1BFA DUP2 PUSH2 0x22A0 JUMP JUMPDEST POP DUP3 MSTORE DUP4 MSTORE DUP2 SWAP1 KECCAK256 SLOAD SWAP1 MLOAD PUSH1 0x1 PUSH1 0x1 PUSH1 0xA0 SHL SUB SWAP1 SWAP2 AND DUP2 MSTORE RETURN JUMPDEST POP POP CALLVALUE PUSH2 0x36A JUMPI DUP2 PUSH1 0x3 NOT CALLDATASIZE ADD SLT PUSH2 0x36A JUMPI DUP1 MLOAD SWAP1 DUP3 DUP1 SLOAD PUSH2 0x1C35 DUP2 PUSH2 0x200B JUMP JUMPDEST DUP1 DUP6 MSTORE SWAP2 PUSH1 0x1 SWAP2 DUP1 DUP4 AND SWAP1 DUP2 ISZERO PUSH2 0xAD1 JUMPI POP PUSH1 0x1 EQ PUSH2 0x1C60 JUMPI POP POP POP PUSH2 0xA63 DUP3 PUSH2 0x79D SWAP5 SUB DUP4 PUSH2 0x1F01 JUMP JUMPDEST DUP1 DUP1 SWAP7 POP MSTORE PUSH32 0x290DECD9548B62A8D60345A988386FC84BA6BC95484008F6362F93160EF3E563 JUMPDEST DUP3 DUP7 LT PUSH2 0x1CA4 JUMPI POP POP POP PUSH2 0xA63 DUP3 PUSH1 0x20 PUSH2 0x79D SWAP6 DUP3 ADD ADD SWAP5 PUSH2 0xA51 JUMP JUMPDEST DUP1 SLOAD PUSH1 0x20 DUP8 DUP8 ADD DUP2 ADD SWAP2 SWAP1 SWAP2 MSTORE SWAP1 SWAP6 ADD SWAP5 DUP2 ADD PUSH2 0x1C87 JUMP JUMPDEST DUP4 DUP3 PUSH1 0x20 CALLDATASIZE PUSH1 0x3 NOT ADD SLT PUSH2 0x36A JUMPI DUP1 CALLDATALOAD SWAP1 DUP2 LT ISZERO PUSH2 0x36A JUMPI PUSH2 0x1D0C SWAP1 PUSH2 0x1CE8 PUSH2 0x3E8 PUSH1 0x7 SLOAD GT ISZERO PUSH2 0x250A JUMP JUMPDEST PUSH2 0x1CFB PUSH2 0x1CF4 DUP3 PUSH2 0x2868 JUMP JUMPDEST CALLVALUE EQ PUSH2 0x2548 JUMP JUMPDEST PUSH1 0xFF PUSH1 0xC SLOAD AND PUSH2 0x1D10 JUMPI JUMPDEST CALLER PUSH2 0x2612 JUMP JUMPDEST POP DUP1 RETURN JUMPDEST PUSH2 0x1D1B DUP2 ISZERO ISZERO PUSH2 0x2588 JUMP JUMPDEST PUSH2 0x1D06 JUMP JUMPDEST DUP4 CALLVALUE PUSH2 0x367 JUMPI PUSH1 0x20 CALLDATASIZE PUSH1 0x3 NOT ADD SLT PUSH2 0x367 JUMPI PUSH2 0x1D3A PUSH2 0x1DCC JUMP JUMPDEST PUSH2 0x1D42 PUSH2 0x1FDF JUMP JUMPDEST PUSH1 0x1 DUP1 PUSH1 0xA0 SHL SUB AND PUSH1 0x1 PUSH1 0x1 PUSH1 0x60 SHL SUB PUSH1 0xA0 SHL PUSH1 0xF SLOAD AND OR PUSH1 0xF SSTORE DUP1 RETURN JUMPDEST SWAP3 POP POP CALLVALUE PUSH2 0x30D JUMPI PUSH1 0x20 CALLDATASIZE PUSH1 0x3 NOT ADD SLT PUSH2 0x30D JUMPI CALLDATALOAD PUSH4 0xFFFFFFFF PUSH1 0xE0 SHL DUP2 AND DUP1 SWAP2 SUB PUSH2 0x30D JUMPI PUSH1 0x20 SWAP3 POP PUSH4 0x80AC58CD PUSH1 0xE0 SHL DUP2 EQ SWAP1 DUP2 ISZERO PUSH2 0x1DBB JUMPI JUMPDEST DUP2 ISZERO PUSH2 0x1DAA JUMPI JUMPDEST POP ISZERO ISZERO DUP2 MSTORE RETURN JUMPDEST PUSH4 0x1FFC9A7 PUSH1 0xE0 SHL EQ SWAP1 POP CODESIZE PUSH2 0x1DA3 JUMP JUMPDEST PUSH4 0x5B5E139F PUSH1 0xE0 SHL DUP2 EQ SWAP2 POP PUSH2 0x1D9C JUMP JUMPDEST PUSH1 0x4 CALLDATALOAD SWAP1 PUSH1 0x1 PUSH1 0x1 PUSH1 0xA0 SHL SUB DUP3 AND DUP3 SUB PUSH2 0x1DE2 JUMPI JUMP JUMPDEST PUSH1 0x0 DUP1 REVERT JUMPDEST PUSH1 0x24 CALLDATALOAD SWAP1 PUSH1 0x1 PUSH1 0x1 PUSH1 0xA0 SHL SUB DUP3 AND DUP3 SUB PUSH2 0x1DE2 JUMPI JUMP JUMPDEST PUSH1 0x0 JUMPDEST DUP4 DUP2 LT PUSH2 0x1E10 JUMPI POP POP PUSH1 0x0 SWAP2 ADD MSTORE JUMP JUMPDEST DUP2 DUP2 ADD MLOAD DUP4 DUP3 ADD MSTORE PUSH1 0x20 ADD PUSH2 0x1E00 JUMP JUMPDEST SWAP1 PUSH1 0x20 SWAP2 PUSH2 0x1E39 DUP2 MLOAD DUP1 SWAP3 DUP2 DUP6 MSTORE DUP6 DUP1 DUP7 ADD SWAP2 ADD PUSH2 0x1DFD JUMP JUMPDEST PUSH1 0x1F ADD PUSH1 0x1F NOT AND ADD ADD SWAP1 JUMP JUMPDEST PUSH1 0x60 SWAP1 PUSH1 0x3 NOT ADD SLT PUSH2 0x1DE2 JUMPI PUSH1 0x1 PUSH1 0x1 PUSH1 0xA0 SHL SUB SWAP1 PUSH1 0x4 CALLDATALOAD DUP3 DUP2 AND DUP2 SUB PUSH2 0x1DE2 JUMPI SWAP2 PUSH1 0x24 CALLDATALOAD SWAP1 DUP2 AND DUP2 SUB PUSH2 0x1DE2 JUMPI SWAP1 PUSH1 0x44 CALLDATALOAD SWAP1 JUMP JUMPDEST PUSH2 0x100 DUP2 ADD SWAP1 DUP2 LT PUSH8 0xFFFFFFFFFFFFFFFF DUP3 GT OR PUSH2 0x1E97 JUMPI PUSH1 0x40 MSTORE JUMP JUMPDEST PUSH4 0x4E487B71 PUSH1 0xE0 SHL PUSH1 0x0 MSTORE PUSH1 0x41 PUSH1 0x4 MSTORE PUSH1 0x24 PUSH1 0x0 REVERT JUMPDEST PUSH1 0x80 DUP2 ADD SWAP1 DUP2 LT PUSH8 0xFFFFFFFFFFFFFFFF DUP3 GT OR PUSH2 0x1E97 JUMPI PUSH1 0x40 MSTORE JUMP JUMPDEST PUSH1 0x20 DUP2 ADD SWAP1 DUP2 LT PUSH8 0xFFFFFFFFFFFFFFFF DUP3 GT OR PUSH2 0x1E97 JUMPI PUSH1 0x40 MSTORE JUMP JUMPDEST PUSH1 0x40 DUP2 ADD SWAP1 DUP2 LT PUSH8 0xFFFFFFFFFFFFFFFF DUP3 GT OR PUSH2 0x1E97 JUMPI PUSH1 0x40 MSTORE JUMP JUMPDEST SWAP1 PUSH1 0x1F DUP1 NOT SWAP2 ADD AND DUP2 ADD SWAP1 DUP2 LT PUSH8 0xFFFFFFFFFFFFFFFF DUP3 GT OR PUSH2 0x1E97 JUMPI PUSH1 0x40 MSTORE JUMP JUMPDEST PUSH8 0xFFFFFFFFFFFFFFFF DUP2 GT PUSH2 0x1E97 JUMPI PUSH1 0x1F ADD PUSH1 0x1F NOT AND PUSH1 0x20 ADD SWAP1 JUMP JUMPDEST SWAP3 SWAP2 SWAP3 PUSH2 0x1F4B DUP3 PUSH2 0x1F23 JUMP JUMPDEST SWAP2 PUSH2 0x1F59 PUSH1 0x40 MLOAD SWAP4 DUP5 PUSH2 0x1F01 JUMP JUMPDEST DUP3 SWAP5 DUP2 DUP5 MSTORE DUP2 DUP4 ADD GT PUSH2 0x1DE2 JUMPI DUP3 DUP2 PUSH1 0x20 SWAP4 DUP5 PUSH1 0x0 SWAP7 ADD CALLDATACOPY ADD ADD MSTORE JUMP JUMPDEST PUSH8 0xFFFFFFFFFFFFFFFF DUP2 GT PUSH2 0x1E97 JUMPI PUSH1 0x5 SHL PUSH1 0x20 ADD SWAP1 JUMP JUMPDEST SWAP1 PUSH1 0x4 DUP3 LT ISZERO PUSH2 0x1F9B JUMPI MSTORE JUMP JUMPDEST PUSH4 0x4E487B71 PUSH1 0xE0 SHL PUSH1 0x0 MSTORE PUSH1 0x21 PUSH1 0x4 MSTORE PUSH1 0x24 PUSH1 0x0 REVERT JUMPDEST DUP1 SLOAD DUP3 LT ISZERO PUSH2 0x1FC9 JUMPI PUSH1 0x0 MSTORE PUSH1 0x20 PUSH1 0x0 KECCAK256 ADD SWAP1 PUSH1 0x0 SWAP1 JUMP JUMPDEST PUSH4 0x4E487B71 PUSH1 0xE0 SHL PUSH1 0x0 MSTORE PUSH1 0x32 PUSH1 0x4 MSTORE PUSH1 0x24 PUSH1 0x0 REVERT JUMPDEST PUSH1 0x6 SLOAD PUSH1 0x1 PUSH1 0x1 PUSH1 0xA0 SHL SUB AND CALLER SUB PUSH2 0x1FF3 JUMPI JUMP JUMPDEST PUSH1 0x40 MLOAD PUSH4 0x118CDAA7 PUSH1 0xE0 SHL DUP2 MSTORE CALLER PUSH1 0x4 DUP3 ADD MSTORE PUSH1 0x24 SWAP1 REVERT JUMPDEST SWAP1 PUSH1 0x1 DUP3 DUP2 SHR SWAP3 AND DUP1 ISZERO PUSH2 0x203B JUMPI JUMPDEST PUSH1 0x20 DUP4 LT EQ PUSH2 0x2025 JUMPI JUMP JUMPDEST PUSH4 0x4E487B71 PUSH1 0xE0 SHL PUSH1 0x0 MSTORE PUSH1 0x22 PUSH1 0x4 MSTORE PUSH1 0x24 PUSH1 0x0 REVERT JUMPDEST SWAP2 PUSH1 0x7F AND SWAP2 PUSH2 0x201A JUMP JUMPDEST PUSH1 0x1 PUSH1 0x1 PUSH1 0xA0 SHL SUB SWAP2 DUP3 AND SWAP3 SWAP1 SWAP2 DUP4 ISZERO PUSH2 0x21CB JUMPI PUSH1 0x0 SWAP3 DUP3 DUP5 MSTORE DUP3 PUSH1 0x20 SWAP6 PUSH1 0x2 DUP8 MSTORE PUSH1 0x40 SWAP7 DUP5 DUP9 DUP9 KECCAK256 SLOAD AND SWAP7 DUP8 SWAP2 CALLER ISZERO ISZERO DUP1 PUSH2 0x2135 JUMPI JUMPDEST POP SWAP1 PUSH1 0x2 PUSH32 0xDDF252AD1BE2C89B69C2B068FC378DAA952BA7F163C4A11628F55A4DF523B3EF SWAP3 DUP5 PUSH2 0x2102 JUMPI JUMPDEST DUP6 DUP4 MSTORE PUSH1 0x3 DUP2 MSTORE DUP12 DUP4 KECCAK256 DUP1 SLOAD PUSH1 0x1 ADD SWAP1 SSTORE DUP7 DUP4 MSTORE MSTORE DUP10 DUP2 KECCAK256 DUP1 SLOAD PUSH1 0x1 PUSH1 0x1 PUSH1 0xA0 SHL SUB NOT AND DUP6 OR SWAP1 SSTORE DUP1 LOG4 AND SWAP3 DUP4 DUP4 SUB PUSH2 0x20E1 JUMPI POP POP POP POP JUMP JUMPDEST PUSH1 0x64 SWAP5 POP MLOAD SWAP3 PUSH4 0x64283D7B PUSH1 0xE0 SHL DUP5 MSTORE PUSH1 0x4 DUP5 ADD MSTORE PUSH1 0x24 DUP4 ADD MSTORE PUSH1 0x44 DUP3 ADD MSTORE REVERT JUMPDEST PUSH1 0x0 DUP8 DUP2 MSTORE PUSH1 0x4 PUSH1 0x20 MSTORE PUSH1 0x40 SWAP1 KECCAK256 DUP1 SLOAD PUSH1 0x1 PUSH1 0x1 PUSH1 0xA0 SHL SUB NOT AND SWAP1 SSTORE DUP5 DUP4 MSTORE PUSH1 0x3 DUP2 MSTORE DUP12 DUP4 KECCAK256 DUP1 SLOAD PUSH1 0x0 NOT ADD SWAP1 SSTORE PUSH2 0x20A8 JUMP JUMPDEST SWAP2 SWAP4 SWAP5 POP SWAP2 POP DUP1 PUSH2 0x218A JUMPI JUMPDEST ISZERO PUSH2 0x2151 JUMPI DUP6 SWAP3 SWAP2 DUP8 SWAP2 CODESIZE PUSH2 0x207C JUMP JUMPDEST DUP8 DUP7 DUP9 PUSH2 0x216E JUMPI PUSH1 0x24 SWAP2 MLOAD SWAP1 PUSH4 0x7E273289 PUSH1 0xE0 SHL DUP3 MSTORE PUSH1 0x4 DUP3 ADD MSTORE REVERT JUMPDEST PUSH1 0x44 SWAP2 MLOAD SWAP1 PUSH4 0x177E802F PUSH1 0xE0 SHL DUP3 MSTORE CALLER PUSH1 0x4 DUP4 ADD MSTORE PUSH1 0x24 DUP3 ADD MSTORE REVERT JUMPDEST POP CALLER DUP8 EQ DUP1 ISZERO PUSH2 0x21AF JUMPI JUMPDEST DUP1 PUSH2 0x2141 JUMPI POP DUP6 DUP3 MSTORE PUSH1 0x4 DUP2 MSTORE CALLER DUP6 DUP10 DUP5 KECCAK256 SLOAD AND EQ PUSH2 0x2141 JUMP JUMPDEST POP DUP7 DUP3 MSTORE PUSH1 0x5 DUP2 MSTORE DUP8 DUP3 KECCAK256 CALLER DUP4 MSTORE DUP2 MSTORE PUSH1 0xFF DUP9 DUP4 KECCAK256 SLOAD AND PUSH2 0x2195 JUMP JUMPDEST PUSH1 0x40 MLOAD PUSH4 0x32505749 PUSH1 0xE1 SHL DUP2 MSTORE PUSH1 0x0 PUSH1 0x4 DUP3 ADD MSTORE PUSH1 0x24 SWAP1 REVERT JUMPDEST PUSH1 0x0 DUP3 DUP2 MSTORE PUSH1 0x2 PUSH1 0x20 MSTORE PUSH1 0x40 DUP2 KECCAK256 SLOAD PUSH1 0x1 PUSH1 0x1 PUSH1 0xA0 SHL SUB SWAP1 DUP2 AND SWAP4 SWAP3 DUP5 SWAP2 PUSH32 0xDDF252AD1BE2C89B69C2B068FC378DAA952BA7F163C4A11628F55A4DF523B3EF SWAP2 DUP4 PUSH2 0x226B JUMPI JUMPDEST AND SWAP3 DUP4 PUSH2 0x2253 JUMPI JUMPDEST DUP5 DUP2 MSTORE PUSH1 0x2 PUSH1 0x20 MSTORE PUSH1 0x40 DUP2 KECCAK256 DUP1 SLOAD PUSH1 0x1 PUSH1 0x1 PUSH1 0xA0 SHL SUB NOT AND DUP6 OR SWAP1 SSTORE DUP1 LOG4 SWAP1 JUMP JUMPDEST DUP4 DUP2 MSTORE PUSH1 0x3 PUSH1 0x20 MSTORE PUSH1 0x40 DUP2 KECCAK256 PUSH1 0x1 DUP2 SLOAD ADD SWAP1 SSTORE PUSH2 0x2232 JUMP JUMPDEST PUSH1 0x0 DUP7 DUP2 MSTORE PUSH1 0x4 PUSH1 0x20 MSTORE PUSH1 0x40 SWAP1 KECCAK256 DUP1 SLOAD PUSH1 0x1 PUSH1 0x1 PUSH1 0xA0 SHL SUB NOT AND SWAP1 SSTORE DUP4 DUP6 MSTORE PUSH1 0x3 PUSH1 0x20 MSTORE PUSH1 0x40 DUP6 KECCAK256 DUP1 SLOAD PUSH1 0x0 NOT ADD SWAP1 SSTORE PUSH2 0x222A JUMP JUMPDEST PUSH1 0x0 DUP2 DUP2 MSTORE PUSH1 0x2 PUSH1 0x20 MSTORE PUSH1 0x40 SWAP1 KECCAK256 SLOAD PUSH1 0x1 PUSH1 0x1 PUSH1 0xA0 SHL SUB AND SWAP1 DUP2 ISZERO PUSH2 0x22C3 JUMPI POP SWAP1 JUMP JUMPDEST PUSH1 0x24 SWAP1 PUSH1 0x40 MLOAD SWAP1 PUSH4 0x7E273289 PUSH1 0xE0 SHL DUP3 MSTORE PUSH1 0x4 DUP3 ADD MSTORE REVERT JUMPDEST SWAP1 SWAP3 SWAP2 SWAP3 DUP1 EXTCODESIZE PUSH2 0x22EC JUMPI JUMPDEST POP POP POP POP JUMP JUMPDEST SWAP1 PUSH2 0x233B SWAP3 SWAP4 SWAP5 SWAP2 PUSH1 0x1 DUP1 PUSH1 0xA0 SHL SUB DUP1 SWAP2 AND SWAP5 PUSH1 0x40 MLOAD SWAP2 PUSH4 0xA85BD01 PUSH1 0xE1 SHL SWAP4 DUP5 DUP5 MSTORE AND PUSH1 0x4 DUP4 ADD MSTORE PUSH1 0x0 SWAP7 DUP8 PUSH1 0x24 DUP5 ADD MSTORE PUSH1 0x44 DUP4 ADD MSTORE PUSH1 0x80 PUSH1 0x64 DUP4 ADD MSTORE DUP2 DUP1 PUSH1 0x20 SWAP7 DUP8 SWAP4 PUSH1 0x84 DUP4 ADD SWAP1 PUSH2 0x1E20 JUMP JUMPDEST SUB DUP2 DUP10 DUP10 GAS CALL DUP7 SWAP2 DUP2 PUSH2 0x23DF JUMPI JUMPDEST POP PUSH2 0x23AA JUMPI POP POP POP RETURNDATASIZE PUSH1 0x0 EQ PUSH2 0x23A1 JUMPI RETURNDATASIZE PUSH2 0x2363 DUP2 PUSH2 0x1F23 JUMP JUMPDEST SWAP1 PUSH2 0x2371 PUSH1 0x40 MLOAD SWAP3 DUP4 PUSH2 0x1F01 JUMP JUMPDEST DUP2 MSTORE DUP1 SWAP4 DUP3 RETURNDATASIZE SWAP3 ADD RETURNDATACOPY JUMPDEST DUP3 MLOAD SWAP3 DUP4 PUSH2 0x239C JUMPI PUSH1 0x40 MLOAD PUSH4 0x32505749 PUSH1 0xE1 SHL DUP2 MSTORE PUSH1 0x4 DUP2 ADD DUP5 SWAP1 MSTORE PUSH1 0x24 SWAP1 REVERT JUMPDEST ADD SWAP1 POP REVERT JUMPDEST PUSH1 0x60 SWAP3 POP PUSH2 0x237B JUMP JUMPDEST SWAP2 SWAP5 POP SWAP2 POP PUSH4 0xFFFFFFFF PUSH1 0xE0 SHL AND SUB PUSH2 0x23C7 JUMPI POP CODESIZE DUP1 DUP1 DUP1 PUSH2 0x22E6 JUMP JUMPDEST PUSH1 0x24 SWAP1 PUSH1 0x40 MLOAD SWAP1 PUSH4 0x32505749 PUSH1 0xE1 SHL DUP3 MSTORE PUSH1 0x4 DUP3 ADD MSTORE REVERT JUMPDEST SWAP1 SWAP2 POP DUP5 DUP2 DUP2 RETURNDATASIZE DUP4 GT PUSH2 0x2418 JUMPI JUMPDEST PUSH2 0x23F7 DUP2 DUP4 PUSH2 0x1F01 JUMP JUMPDEST DUP2 ADD SUB SLT PUSH2 0xCE8 JUMPI MLOAD PUSH1 0x1 PUSH1 0x1 PUSH1 0xE0 SHL SUB NOT DUP2 AND DUP2 SUB PUSH2 0xCE8 JUMPI SWAP1 CODESIZE PUSH2 0x2349 JUMP JUMPDEST POP RETURNDATASIZE PUSH2 0x23ED JUMP JUMPDEST SWAP1 SWAP4 SWAP2 SWAP3 DUP4 EXTCODESIZE PUSH2 0x2431 JUMPI JUMPDEST POP POP POP POP POP JUMP JUMPDEST PUSH1 0x40 MLOAD PUSH4 0xA85BD01 PUSH1 0xE1 SHL DUP1 DUP3 MSTORE PUSH1 0x1 PUSH1 0x1 PUSH1 0xA0 SHL SUB SWAP4 DUP5 AND PUSH1 0x4 DUP4 ADD MSTORE SWAP6 DUP4 AND PUSH1 0x24 DUP3 ADD MSTORE PUSH1 0x44 DUP2 ADD SWAP2 SWAP1 SWAP2 MSTORE PUSH1 0x80 PUSH1 0x64 DUP3 ADD MSTORE SWAP5 SWAP3 AND SWAP3 PUSH1 0x20 SWAP3 SWAP2 DUP6 SWAP1 PUSH2 0x247E SWAP1 PUSH1 0x84 DUP4 ADD SWAP1 PUSH2 0x1E20 JUMP JUMPDEST SUB SWAP5 DUP4 DUP2 PUSH1 0x0 SWAP8 DUP2 DUP10 DUP10 GAS CALL DUP7 SWAP2 DUP2 PUSH2 0x24CA JUMPI JUMPDEST POP PUSH2 0x24AC JUMPI POP POP POP RETURNDATASIZE PUSH1 0x0 EQ PUSH2 0x23A1 JUMPI RETURNDATASIZE PUSH2 0x2363 DUP2 PUSH2 0x1F23 JUMP JUMPDEST SWAP2 SWAP5 POP SWAP2 POP PUSH4 0xFFFFFFFF PUSH1 0xE0 SHL AND SUB PUSH2 0x23C7 JUMPI POP CODESIZE DUP1 DUP1 DUP1 DUP1 PUSH2 0x242A JUMP JUMPDEST SWAP1 SWAP2 POP DUP5 DUP2 DUP2 RETURNDATASIZE DUP4 GT PUSH2 0x2503 JUMPI JUMPDEST PUSH2 0x24E2 DUP2 DUP4 PUSH2 0x1F01 JUMP JUMPDEST DUP2 ADD SUB SLT PUSH2 0xCE8 JUMPI MLOAD PUSH1 0x1 PUSH1 0x1 PUSH1 0xE0 SHL SUB NOT DUP2 AND DUP2 SUB PUSH2 0xCE8 JUMPI SWAP1 CODESIZE PUSH2 0x2492 JUMP JUMPDEST POP RETURNDATASIZE PUSH2 0x24D8 JUMP JUMPDEST ISZERO PUSH2 0x2511 JUMPI JUMP JUMPDEST PUSH1 0x40 MLOAD PUSH3 0x461BCD PUSH1 0xE5 SHL DUP2 MSTORE PUSH1 0x20 PUSH1 0x4 DUP3 ADD MSTORE PUSH1 0xF PUSH1 0x24 DUP3 ADD MSTORE PUSH15 0x105B1B081959D9DCC81B5A5B9D1959 PUSH1 0x8A SHL PUSH1 0x44 DUP3 ADD MSTORE PUSH1 0x64 SWAP1 REVERT JUMPDEST ISZERO PUSH2 0x254F JUMPI JUMP JUMPDEST PUSH1 0x40 MLOAD PUSH3 0x461BCD PUSH1 0xE5 SHL DUP2 MSTORE PUSH1 0x20 PUSH1 0x4 DUP3 ADD MSTORE PUSH1 0x11 PUSH1 0x24 DUP3 ADD MSTORE PUSH17 0x125B98DBDC9C9958DD081C185E5B595B9D PUSH1 0x7A SHL PUSH1 0x44 DUP3 ADD MSTORE PUSH1 0x64 SWAP1 REVERT JUMPDEST ISZERO PUSH2 0x258F JUMPI JUMP JUMPDEST PUSH1 0x40 MLOAD PUSH3 0x461BCD PUSH1 0xE5 SHL DUP2 MSTORE PUSH1 0x20 PUSH1 0x4 DUP3 ADD MSTORE PUSH1 0x16 PUSH1 0x24 DUP3 ADD MSTORE PUSH22 0x46697273742073616C653A20526172652B206F6E6C79 PUSH1 0x50 SHL PUSH1 0x44 DUP3 ADD MSTORE PUSH1 0x64 SWAP1 REVERT JUMPDEST PUSH1 0x0 NOT DUP2 EQ PUSH2 0x25DC JUMPI PUSH1 0x1 ADD SWAP1 JUMP JUMPDEST PUSH4 0x4E487B71 PUSH1 0xE0 SHL PUSH1 0x0 MSTORE PUSH1 0x11 PUSH1 0x4 MSTORE PUSH1 0x24 PUSH1 0x0 REVERT JUMPDEST DUP1 MLOAD DUP3 LT ISZERO PUSH2 0x1FC9 JUMPI PUSH1 0x20 SWAP2 PUSH1 0x5 SHL ADD ADD SWAP1 JUMP JUMPDEST PUSH1 0x4 DUP3 LT ISZERO PUSH2 0x1F9B JUMPI MSTORE JUMP JUMPDEST SWAP1 PUSH2 0x261C DUP2 PUSH2 0x2821 JUMP JUMPDEST ISZERO PUSH2 0x27E5 JUMPI PUSH1 0x7 SLOAD SWAP2 PUSH2 0x262E DUP4 PUSH2 0x25CD JUMP JUMPDEST PUSH1 0x7 SSTORE PUSH1 0x4 SWAP2 DUP3 DUP2 LT ISZERO PUSH2 0x27D0 JUMPI PUSH1 0x3 DUP2 SUB PUSH2 0x2787 JUMPI PUSH2 0x264F PUSH1 0x8 SLOAD PUSH2 0x25CD JUMP JUMPDEST PUSH1 0x8 SSTORE JUMPDEST PUSH1 0x40 SWAP2 DUP3 MLOAD SWAP1 PUSH2 0x2662 DUP3 PUSH2 0x1EAD JUMP JUMPDEST PUSH2 0x266C DUP4 DUP4 PUSH2 0x2606 JUMP JUMPDEST PUSH1 0x20 DUP3 ADD SWAP2 PUSH1 0x1 DUP4 MSTORE DUP5 DUP2 ADD SWAP3 PUSH1 0x0 SWAP4 DUP5 DUP2 MSTORE PUSH1 0x60 DUP4 ADD SWAP2 TIMESTAMP DUP4 MSTORE DUP10 DUP7 MSTORE PUSH1 0x10 PUSH1 0x20 MSTORE DUP8 DUP7 KECCAK256 SWAP4 MLOAD DUP10 DUP2 LT ISZERO PUSH2 0x2774 JUMPI DUP5 SLOAD PUSH1 0xFF SWAP2 DUP3 AND PUSH1 0xFF NOT SWAP2 DUP3 AND OR DUP7 SSTORE SWAP2 MLOAD PUSH1 0x1 DUP7 ADD SSTORE SWAP2 MLOAD PUSH1 0x2 DUP6 ADD DUP1 SLOAD SWAP2 ISZERO ISZERO SWAP1 SWAP4 AND SWAP2 AND OR SWAP1 SSTORE PUSH1 0x3 SWAP1 MLOAD SWAP2 ADD SSTORE DUP4 MLOAD SWAP1 PUSH2 0x26D9 DUP3 PUSH2 0x1EC9 JUMP JUMPDEST DUP3 DUP3 MSTORE PUSH1 0x1 PUSH1 0x1 PUSH1 0xA0 SHL SUB DUP2 DUP2 AND SWAP7 SWAP1 DUP8 ISZERO PUSH2 0x275D JUMPI PUSH2 0x26F9 DUP10 DUP5 PUSH2 0x21E4 JUMP JUMPDEST AND PUSH2 0x2746 JUMPI POP SWAP2 PUSH2 0x2731 PUSH32 0xD48981A3A59CF6FB9F8E7DF82B62B368AFF5A96C6D53F6837CF0871485B53F07 SWAP5 SWAP3 DUP9 DUP1 SWAP9 SWAP8 SWAP6 CALLER PUSH2 0x22DB JUMP JUMPDEST PUSH2 0x273D DUP4 MLOAD DUP1 SWAP4 PUSH2 0x1F8E JUMP JUMPDEST PUSH1 0x20 DUP3 ADD MSTORE LOG3 SWAP1 JUMP JUMPDEST DUP6 MLOAD PUSH4 0x39E35637 PUSH1 0xE1 SHL DUP2 MSTORE SWAP1 DUP2 ADD DUP5 SWAP1 MSTORE PUSH1 0x24 SWAP1 REVERT JUMPDEST DUP7 MLOAD PUSH4 0x32505749 PUSH1 0xE1 SHL DUP2 MSTORE DUP1 DUP4 ADD DUP7 SWAP1 MSTORE PUSH1 0x24 SWAP1 REVERT JUMPDEST PUSH4 0x4E487B71 PUSH1 0xE0 SHL DUP8 MSTORE PUSH1 0x21 DUP11 MSTORE PUSH1 0x24 DUP8 REVERT JUMPDEST PUSH1 0x2 DUP2 SUB PUSH2 0x27A2 JUMPI PUSH2 0x279A PUSH1 0x9 SLOAD PUSH2 0x25CD JUMP JUMPDEST PUSH1 0x9 SSTORE PUSH2 0x2653 JUMP JUMPDEST PUSH1 0x1 DUP2 SUB PUSH2 0x27BD JUMPI PUSH2 0x27B5 PUSH1 0xA SLOAD PUSH2 0x25CD JUMP JUMPDEST PUSH1 0xA SSTORE PUSH2 0x2653 JUMP JUMPDEST PUSH2 0x27C8 PUSH1 0xB SLOAD PUSH2 0x25CD JUMP JUMPDEST PUSH1 0xB SSTORE PUSH2 0x2653 JUMP JUMPDEST PUSH1 0x21 DUP4 PUSH4 0x4E487B71 PUSH1 0xE0 SHL PUSH1 0x0 MSTORE MSTORE PUSH1 0x24 PUSH1 0x0 REVERT JUMPDEST PUSH1 0x40 MLOAD PUSH3 0x461BCD PUSH1 0xE5 SHL DUP2 MSTORE PUSH1 0x20 PUSH1 0x4 DUP3 ADD MSTORE PUSH1 0x14 PUSH1 0x24 DUP3 ADD MSTORE PUSH20 0x14985C9A5D1E481B1A5B5A5D081C995858DA1959 PUSH1 0x62 SHL PUSH1 0x44 DUP3 ADD MSTORE PUSH1 0x64 SWAP1 REVERT JUMPDEST PUSH1 0x4 DUP2 LT ISZERO PUSH2 0x1F9B JUMPI PUSH1 0x3 DUP2 EQ PUSH2 0x285E JUMPI PUSH1 0x2 DUP2 EQ PUSH2 0x2854 JUMPI PUSH1 0x1 EQ PUSH2 0x284B JUMPI PUSH2 0x37F PUSH1 0xB SLOAD LT SWAP1 JUMP JUMPDEST PUSH1 0x2D PUSH1 0xA SLOAD LT SWAP1 JUMP JUMPDEST POP PUSH1 0x23 PUSH1 0x9 SLOAD LT SWAP1 JUMP JUMPDEST POP PUSH1 0x19 PUSH1 0x8 SLOAD LT SWAP1 JUMP JUMPDEST PUSH1 0x4 DUP2 LT ISZERO PUSH2 0x1F9B JUMPI PUSH1 0x3 DUP2 EQ PUSH2 0x28AC JUMPI PUSH1 0x2 DUP2 EQ PUSH2 0x289F JUMPI PUSH1 0x1 EQ PUSH2 0x2893 JUMPI PUSH7 0xB1A2BC2EC50000 SWAP1 JUMP JUMPDEST PUSH8 0x214E8348C4F0000 SWAP1 JUMP JUMPDEST POP PUSH8 0x429D069189E0000 SWAP1 JUMP JUMPDEST POP PUSH8 0x6F05B59D3B20000 SWAP1 JUMP JUMPDEST PUSH1 0x1 PUSH1 0x1 PUSH1 0xA0 SHL SUB PUSH2 0x28CA DUP3 PUSH2 0x22A0 JUMP JUMPDEST AND ISZERO PUSH2 0x2CBA JUMPI PUSH1 0xE SLOAD SWAP1 PUSH2 0x28DD DUP3 PUSH2 0x200B JUMP JUMPDEST ISZERO PUSH2 0x29C3 JUMPI PUSH2 0x28EB SWAP1 PUSH2 0x2CF5 JUMP JUMPDEST PUSH1 0x40 MLOAD DUP1 SWAP3 PUSH1 0x0 SWAP1 PUSH2 0x28FC DUP2 PUSH2 0x200B JUMP JUMPDEST SWAP1 PUSH1 0x1 SWAP1 DUP2 DUP2 AND SWAP1 DUP2 ISZERO PUSH2 0x299C JUMPI POP PUSH1 0x1 EQ PUSH2 0x293D JUMPI JUMPDEST POP POP DUP1 PUSH2 0x292B DUP5 PUSH1 0x20 SWAP4 PUSH2 0x293A SWAP7 MLOAD SWAP5 DUP6 SWAP3 ADD PUSH2 0x1DFD JUMP JUMPDEST ADD SUB PUSH1 0x1F NOT DUP2 ADD DUP4 MSTORE DUP3 PUSH2 0x1F01 JUMP JUMPDEST SWAP1 JUMP JUMPDEST PUSH1 0xE PUSH1 0x0 SWAP1 DUP2 MSTORE SWAP2 SWAP3 POP PUSH32 0xBB7B4A454DC3493923482F07822329ED19E8244EFF582CC204F8554C3620C3FD JUMPDEST DUP4 DUP4 LT PUSH2 0x2981 JUMPI POP POP POP DUP2 ADD PUSH1 0x20 ADD DUP3 PUSH2 0x292B PUSH2 0x2913 JUMP JUMPDEST DUP1 SLOAD PUSH1 0x20 DUP5 DUP10 ADD DUP2 ADD SWAP2 SWAP1 SWAP2 MSTORE DUP8 SWAP6 POP SWAP1 SWAP3 ADD SWAP2 DUP2 ADD PUSH2 0x2969 JUMP JUMPDEST PUSH1 0xFF NOT AND PUSH1 0x20 DUP7 DUP2 ADD SWAP2 SWAP1 SWAP2 MSTORE DUP4 ISZERO ISZERO SWAP1 SWAP4 MUL DUP6 ADD SWAP1 SWAP3 ADD SWAP3 POP DUP5 SWAP2 POP PUSH2 0x292B SWAP1 POP PUSH2 0x2913 JUMP JUMPDEST DUP1 SWAP2 POP PUSH1 0x0 MSTORE PUSH1 0x20 SWAP1 PUSH1 0x10 DUP3 MSTORE PUSH1 0x40 SWAP2 DUP3 PUSH1 0x0 KECCAK256 SWAP3 DUP1 MLOAD PUSH2 0x29E3 DUP2 PUSH2 0x1EAD JUMP JUMPDEST PUSH2 0x29F1 PUSH1 0xFF DUP7 SLOAD AND DUP3 PUSH2 0x2606 JUMP JUMPDEST PUSH1 0x1 DUP6 ADD SLOAD SWAP1 DUP4 DUP2 ADD SWAP2 DUP3 MSTORE PUSH1 0x3 PUSH1 0xFF PUSH1 0x2 DUP9 ADD SLOAD AND SWAP7 DUP5 DUP4 ADD SWAP8 ISZERO ISZERO DUP9 MSTORE ADD SLOAD PUSH1 0x60 DUP3 ADD MSTORE MLOAD SWAP3 PUSH1 0x4 DUP5 LT ISZERO PUSH2 0x1F9B JUMPI PUSH2 0x293A SWAP5 PUSH2 0x2A3B PUSH2 0x2A35 PUSH2 0x12E SWAP7 PUSH2 0x2E5D JUMP JUMPDEST SWAP2 PUSH2 0x2CF5 JUMP JUMPDEST SWAP7 MLOAD ISZERO PUSH2 0x2C70 JUMPI PUSH32 0x7D5D2C22696D616765223A22697066733A2F2F516D596F7572496D6167654861 PUSH2 0x2A8C DUP6 MLOAD PUSH2 0x2A71 DUP2 PUSH2 0x1EE5 JUMP JUMPDEST PUSH1 0x7 DUP2 MSTORE PUSH7 0x12185D18DA1959 PUSH1 0xCA SHL DUP6 DUP3 ADD MSTORE SWAP5 JUMPDEST MLOAD PUSH2 0x2CF5 JUMP JUMPDEST DUP6 MLOAD SWAP9 DUP10 SWAP7 PUSH32 0x646174613A6170706C69636174696F6E2F6A736F6E3B757466382C7B226E616D DUP7 DUP10 ADD MSTORE PUSH16 0x65223A22447261676F6E204567672023 PUSH1 0x80 SHL SWAP1 DUP9 ADD MSTORE PUSH2 0x2AE1 DUP2 MLOAD DUP1 SWAP3 DUP8 PUSH1 0x50 DUP12 ADD SWAP2 ADD PUSH2 0x1DFD JUMP JUMPDEST DUP7 ADD SWAP5 PUSH32 0x222C226465736372697074696F6E223A2241206D7973746963616C2064726167 PUSH1 0x50 DUP8 ADD MSTORE PUSH32 0x6F6E206567672066726F6D20447261676F6E20436974792E205261726974793A PUSH1 0x70 DUP8 ADD MSTORE PUSH1 0x1 PUSH1 0xFD SHL PUSH1 0x90 DUP8 ADD MSTORE DUP4 MLOAD DUP6 DUP6 ADD SWAP7 PUSH2 0x2B4E DUP3 PUSH1 0x91 DUP4 ADD DUP11 PUSH2 0x1DFD JUMP JUMPDEST ADD PUSH32 0x222C2261747472696275746573223A5B7B2274726169745F74797065223A2252 PUSH1 0x91 DUP3 ADD MSTORE PUSH16 0x30B934BA3C9116113B30B63AB2911D11 PUSH1 0x81 SHL PUSH1 0xB1 DUP3 ADD MSTORE DUP5 MLOAD SWAP1 PUSH2 0x2B9F DUP3 PUSH1 0xC1 DUP4 ADD DUP11 PUSH2 0x1DFD JUMP JUMPDEST ADD PUSH32 0x227D2C7B2274726169745F74797065223A22537461747573222C2276616C7565 PUSH1 0xC1 DUP3 ADD MSTORE PUSH3 0x111D11 PUSH1 0xE9 SHL PUSH1 0xE1 DUP3 ADD MSTORE PUSH2 0x2BE5 DUP3 MLOAD DUP1 SWAP4 DUP9 PUSH1 0xE4 DUP6 ADD SWAP2 ADD PUSH2 0x1DFD JUMP JUMPDEST ADD PUSH32 0x227D2C7B2274726169745F74797065223A224261746368222C2276616C756522 PUSH1 0xE4 DUP3 ADD MSTORE PUSH1 0x1D PUSH1 0xF9 SHL PUSH2 0x104 DUP3 ADD MSTORE PUSH2 0x2C2C DUP3 MLOAD DUP1 SWAP4 PUSH2 0x105 SWAP8 DUP9 DUP6 ADD SWAP2 ADD PUSH2 0x1DFD JUMP JUMPDEST ADD SWAP3 DUP4 ADD MSTORE PUSH3 0x73682F PUSH1 0xE8 SHL PUSH2 0x125 DUP4 ADD MSTORE MLOAD SWAP1 PUSH2 0x2C51 DUP3 PUSH2 0x128 SWAP5 DUP6 DUP5 ADD SWAP1 PUSH2 0x1DFD JUMP JUMPDEST ADD SWAP1 PUSH6 0x2E706E67227D PUSH1 0xD0 SHL SWAP1 DUP3 ADD MSTORE SUB PUSH2 0x10E DUP2 ADD DUP5 MSTORE ADD DUP3 PUSH2 0x1F01 JUMP JUMPDEST PUSH32 0x7D5D2C22696D616765223A22697066733A2F2F516D596F7572496D6167654861 PUSH2 0x2A8C DUP6 MLOAD PUSH2 0x2C9F DUP2 PUSH2 0x1EE5 JUMP JUMPDEST PUSH1 0x9 DUP2 MSTORE PUSH9 0x155B9A185D18DA1959 PUSH1 0xBA SHL DUP6 DUP3 ADD MSTORE SWAP5 PUSH2 0x2A86 JUMP JUMPDEST PUSH1 0x40 MLOAD PUSH3 0x461BCD PUSH1 0xE5 SHL DUP2 MSTORE PUSH1 0x20 PUSH1 0x4 DUP3 ADD MSTORE PUSH1 0x13 PUSH1 0x24 DUP3 ADD MSTORE PUSH19 0x151BDAD95B88191BD95CDB89DD08195E1A5CDD PUSH1 0x6A SHL PUSH1 0x44 DUP3 ADD MSTORE PUSH1 0x64 SWAP1 REVERT JUMPDEST DUP1 PUSH1 0x0 SWAP2 PUSH27 0x184F03E93FF9F4DAA797ED6E38ED64BF6A1F010000000000000000 DUP1 DUP3 LT ISZERO PUSH2 0x2E4F JUMPI JUMPDEST POP PUSH14 0x4EE2D6D415B85ACEF8100000000 DUP1 DUP4 LT ISZERO PUSH2 0x2E40 JUMPI JUMPDEST POP PUSH7 0x2386F26FC10000 DUP1 DUP4 LT ISZERO PUSH2 0x2E31 JUMPI JUMPDEST POP PUSH4 0x5F5E100 DUP1 DUP4 LT ISZERO PUSH2 0x2E22 JUMPI JUMPDEST POP PUSH2 0x2710 DUP1 DUP4 LT ISZERO PUSH2 0x2E13 JUMPI JUMPDEST POP PUSH1 0x64 DUP3 LT ISZERO PUSH2 0x2E03 JUMPI JUMPDEST PUSH1 0xA DUP1 SWAP3 LT ISZERO PUSH2 0x2DF9 JUMPI JUMPDEST PUSH1 0x1 SWAP1 DUP2 PUSH1 0x21 DUP2 DUP7 ADD SWAP6 PUSH2 0x2D8E DUP8 PUSH2 0x1F23 JUMP JUMPDEST SWAP7 PUSH2 0x2D9C PUSH1 0x40 MLOAD SWAP9 DUP10 PUSH2 0x1F01 JUMP JUMPDEST DUP1 DUP9 MSTORE PUSH2 0x2DAB PUSH1 0x1F NOT SWAP2 PUSH2 0x1F23 JUMP JUMPDEST ADD CALLDATASIZE PUSH1 0x20 DUP10 ADD CALLDATACOPY DUP7 ADD ADD SWAP1 JUMPDEST PUSH2 0x2DC3 JUMPI JUMPDEST POP POP POP POP SWAP1 JUMP JUMPDEST PUSH1 0x0 NOT ADD SWAP1 DUP4 SWAP1 PUSH16 0x181899199A1A9B1B9C1CB0B131B232B3 PUSH1 0x81 SHL DUP3 DUP3 MOD BYTE DUP4 MSTORE8 DIV SWAP2 DUP3 ISZERO PUSH2 0x2DF4 JUMPI SWAP2 SWAP1 DUP3 PUSH2 0x2DB7 JUMP JUMPDEST PUSH2 0x2DBC JUMP JUMPDEST SWAP2 PUSH1 0x1 ADD SWAP2 PUSH2 0x2D7B JUMP JUMPDEST SWAP2 SWAP1 PUSH1 0x64 PUSH1 0x2 SWAP2 DIV SWAP2 ADD SWAP2 PUSH2 0x2D70 JUMP JUMPDEST PUSH1 0x4 SWAP2 SWAP4 SWAP3 DIV SWAP2 ADD SWAP2 CODESIZE PUSH2 0x2D65 JUMP JUMPDEST PUSH1 0x8 SWAP2 SWAP4 SWAP3 DIV SWAP2 ADD SWAP2 CODESIZE PUSH2 0x2D58 JUMP JUMPDEST PUSH1 0x10 SWAP2 SWAP4 SWAP3 DIV SWAP2 ADD SWAP2 CODESIZE PUSH2 0x2D49 JUMP JUMPDEST PUSH1 0x20 SWAP2 SWAP4 SWAP3 DIV SWAP2 ADD SWAP2 CODESIZE PUSH2 0x2D37 JUMP JUMPDEST PUSH1 0x40 SWAP4 POP DUP2 DIV SWAP2 POP CODESIZE PUSH2 0x2D1E JUMP JUMPDEST PUSH1 0x4 DUP2 LT ISZERO PUSH2 0x1F9B JUMPI PUSH1 0x3 DUP2 EQ PUSH2 0x2EE2 JUMPI PUSH1 0x2 DUP2 EQ PUSH2 0x2EBF JUMPI PUSH1 0x1 EQ PUSH2 0x2E9F JUMPI PUSH1 0x40 MLOAD PUSH2 0x2E89 DUP2 PUSH2 0x1EE5 JUMP JUMPDEST PUSH1 0x6 DUP2 MSTORE PUSH6 0x21B7B6B6B7B7 PUSH1 0xD1 SHL PUSH1 0x20 DUP3 ADD MSTORE SWAP1 JUMP JUMPDEST PUSH1 0x40 MLOAD PUSH2 0x2EAB DUP2 PUSH2 0x1EE5 JUMP JUMPDEST PUSH1 0x4 DUP2 MSTORE PUSH4 0x52617265 PUSH1 0xE0 SHL PUSH1 0x20 DUP3 ADD MSTORE SWAP1 JUMP JUMPDEST POP PUSH1 0x40 MLOAD PUSH2 0x2ECC DUP2 PUSH2 0x1EE5 JUMP JUMPDEST PUSH1 0x6 DUP2 MSTORE PUSH6 0x556E69717565 PUSH1 0xD0 SHL PUSH1 0x20 DUP3 ADD MSTORE SWAP1 JUMP JUMPDEST POP PUSH1 0x40 MLOAD PUSH2 0x2EEF DUP2 PUSH2 0x1EE5 JUMP JUMPDEST PUSH1 0x9 DUP2 MSTORE PUSH9 0x4C6567656E64617279 PUSH1 0xB8 SHL PUSH1 0x20 DUP3 ADD MSTORE SWAP1 JUMP INVALID LOG2 PUSH5 0x6970667358 0x22 SLT KECCAK256 BLOCKHASH 0xEB 0xB3 PUSH23 0xE2FE09146ED3F17D3DD33680DF6BE015AD515A0BCD4E2A PUSH12 0x2D9AAF0264736F6C63430008 EQ STOP CALLER "},"methodIdentifiers":{"COMMON_COUNT()":"75618753","COMMON_PRICE()":"d5199899","INSTALLMENT_COUNT()":"0ea92db2","LEGENDARY_COUNT()":"0af4750e","LEGENDARY_PRICE()":"bdc71fb8","MAX_SUPPLY()":"32cb6b0c","PAYMENT_INTERVAL()":"20dd0c84","RARE_COUNT()":"c092ae38","RARE_PRICE()":"2e119c79","UNIQUE_COUNT()":"df3ea193","UNIQUE_PRICE()":"c200e534","approve(address,uint256)":"095ea7b3","balanceOf(address)":"70a08231","batchMint(address[],uint8[])":"79c352a7","commonMinted()":"66435c06","dragonNFTContract()":"476b285c","eggs(uint256)":"bb654efa","endFirstSale()":"7869b40c","firstSaleEndTime()":"0a212137","getApproved(uint256)":"081812fc","getEgg(uint256)":"feb40f7e","getInstallmentAmount(uint8)":"df34800c","getInstallmentStatus(uint256)":"3133602a","getPriceForRarity(uint8)":"eb76d5ed","getRaritySupply()":"1b397db5","getUserInstallments(address)":"54435208","hatchEgg(uint256)":"2385554c","installmentPlans(uint256)":"b4d34441","isApprovedForAll(address,address)":"e985e9c5","isFirstSaleActive()":"33080d71","legendaryMinted()":"e9aac102","mintEgg(uint8)":"0651e162","mintEggWithInstallment(uint8)":"1e188a56","mintGachaEgg()":"12383f1a","name()":"06fdde03","owner()":"8da5cb5b","ownerOf(uint256)":"6352211e","payInstallment(uint256)":"e2f8a017","rareMinted()":"2f3e1b63","renounceOwnership()":"715018a6","safeTransferFrom(address,address,uint256)":"42842e0e","safeTransferFrom(address,address,uint256,bytes)":"b88d4fde","setApprovalForAll(address,bool)":"a22cb465","setBaseURI(string)":"55f804b3","setDragonContract(address)":"039f14b0","supportsInterface(bytes4)":"01ffc9a7","symbol()":"95d89b41","tokenURI(uint256)":"c87b56dd","transferFrom(address,address,uint256)":"23b872dd","transferOwnership(address)":"f2fde38b","uniqueMinted()":"9efa44f8","userInstallments(address,uint256)":"f48375dc","withdraw()":"3ccfd60b"}}}}}