{"contracts/DragonNFTWithRarity.sol":{"DragonNFTWithRarity":{"abi":[{"inputs":[{"internalType":"address","name":"_eggNFT","type":"address"}],"stateMutability":"nonpayable","type":"constructor"},{"inputs":[{"internalType":"address","name":"sender","type":"address"},{"internalType":"uint256","name":"tokenId","type":"uint256"},{"internalType":"address","name":"owner","type":"address"}],"name":"ERC721IncorrectOwner","type":"error"},{"inputs":[{"internalType":"address","name":"operator","type":"address"},{"internalType":"uint256","name":"tokenId","type":"uint256"}],"name":"ERC721InsufficientApproval","type":"error"},{"inputs":[{"internalType":"address","name":"approver","type":"address"}],"name":"ERC721InvalidApprover","type":"error"},{"inputs":[{"internalType":"address","name":"operator","type":"address"}],"name":"ERC721InvalidOperator","type":"error"},{"inputs":[{"internalType":"address","name":"owner","type":"address"}],"name":"ERC721InvalidOwner","type":"error"},{"inputs":[{"internalType":"address","name":"receiver","type":"address"}],"name":"ERC721InvalidReceiver","type":"error"},{"inputs":[{"internalType":"address","name":"sender","type":"address"}],"name":"ERC721InvalidSender","type":"error"},{"inputs":[{"internalType":"uint256","name":"tokenId","type":"uint256"}],"name":"ERC721NonexistentToken","type":"error"},{"inputs":[{"internalType":"address","name":"owner","type":"address"}],"name":"OwnableInvalidOwner","type":"error"},{"inputs":[{"internalType":"address","name":"account","type":"address"}],"name":"OwnableUnauthorizedAccount","type":"error"},{"anonymous":false,"inputs":[{"indexed":true,"internalType":"address","name":"owner","type":"address"},{"indexed":true,"internalType":"address","name":"approved","type":"address"},{"indexed":true,"internalType":"uint256","name":"tokenId","type":"uint256"}],"name":"Approval","type":"event"},{"anonymous":false,"inputs":[{"indexed":true,"internalType":"address","name":"owner","type":"address"},{"indexed":true,"internalType":"address","name":"operator","type":"address"},{"indexed":false,"internalType":"bool","name":"approved","type":"bool"}],"name":"ApprovalForAll","type":"event"},{"anonymous":false,"inputs":[{"indexed":true,"internalType":"uint256","name":"winnerId","type":"uint256"},{"indexed":true,"internalType":"uint256","name":"loserId","type":"uint256"}],"name":"BattleResult","type":"event"},{"anonymous":false,"inputs":[{"indexed":true,"internalType":"uint256","name":"dragonId","type":"uint256"},{"indexed":true,"internalType":"address","name":"owner","type":"address"},{"indexed":false,"internalType":"enum DragonNFTWithRarity.Element","name":"element","type":"uint8"},{"indexed":false,"internalType":"enum DragonNFTWithRarity.Rarity","name":"rarity","type":"uint8"}],"name":"DragonHatched","type":"event"},{"anonymous":false,"inputs":[{"indexed":true,"internalType":"uint256","name":"dragonId","type":"uint256"},{"indexed":false,"internalType":"uint256","name":"newLevel","type":"uint256"}],"name":"DragonLevelUp","type":"event"},{"anonymous":false,"inputs":[{"indexed":true,"internalType":"address","name":"previousOwner","type":"address"},{"indexed":true,"internalType":"address","name":"newOwner","type":"address"}],"name":"OwnershipTransferred","type":"event"},{"anonymous":false,"inputs":[{"indexed":true,"internalType":"address","name":"from","type":"address"},{"indexed":true,"internalType":"address","name":"to","type":"address"},{"indexed":true,"internalType":"uint256","name":"tokenId","type":"uint256"}],"name":"Transfer","type":"event"},{"inputs":[{"internalType":"address","name":"to","type":"address"},{"internalType":"uint256","name":"tokenId","type":"uint256"}],"name":"approve","outputs":[],"stateMutability":"nonpayable","type":"function"},{"inputs":[{"internalType":"address","name":"owner","type":"address"}],"name":"balanceOf","outputs":[{"internalType":"uint256","name":"","type":"uint256"}],"stateMutability":"view","type":"function"},{"inputs":[{"internalType":"uint256","name":"parent1Id","type":"uint256"},{"internalType":"uint256","name":"parent2Id","type":"uint256"}],"name":"breedDragons","outputs":[{"internalType":"uint256","name":"","type":"uint256"}],"stateMutability":"nonpayable","type":"function"},{"inputs":[{"internalType":"uint256","name":"","type":"uint256"}],"name":"dragons","outputs":[{"internalType":"uint256","name":"id","type":"uint256"},{"internalType":"enum DragonNFTWithRarity.Element","name":"element","type":"uint8"},{"internalType":"enum DragonNFTWithRarity.PowerType","name":"powerType","type":"uint8"},{"internalType":"enum DragonNFTWithRarity.Rarity","name":"rarity","type":"uint8"},{"internalType":"uint256","name":"attack","type":"uint256"},{"internalType":"uint256","name":"defense","type":"uint256"},{"internalType":"uint256","name":"speed","type":"uint256"},{"internalType":"uint256","name":"level","type":"uint256"},{"internalType":"uint256","name":"experience","type":"uint256"},{"internalType":"uint256","name":"wins","type":"uint256"},{"internalType":"uint256","name":"losses","type":"uint256"},{"internalType":"uint256","name":"birthTime","type":"uint256"},{"internalType":"uint256","name":"parentEggId","type":"uint256"}],"stateMutability":"view","type":"function"},{"inputs":[],"name":"eggNFT","outputs":[{"internalType":"contract IEggNFT","name":"","type":"address"}],"stateMutability":"view","type":"function"},{"inputs":[{"internalType":"uint256","name":"tokenId","type":"uint256"}],"name":"getApproved","outputs":[{"internalType":"address","name":"","type":"address"}],"stateMutability":"view","type":"function"},{"inputs":[{"internalType":"uint256","name":"dragonId","type":"uint256"}],"name":"getBattlePower","outputs":[{"internalType":"uint256","name":"","type":"uint256"}],"stateMutability":"view","type":"function"},{"inputs":[{"internalType":"uint256","name":"dragonId","type":"uint256"}],"name":"getDragon","outputs":[{"components":[{"internalType":"uint256","name":"id","type":"uint256"},{"internalType":"enum DragonNFTWithRarity.Element","name":"element","type":"uint8"},{"internalType":"enum DragonNFTWithRarity.PowerType","name":"powerType","type":"uint8"},{"internalType":"enum DragonNFTWithRarity.Rarity","name":"rarity","type":"uint8"},{"internalType":"uint256","name":"attack","type":"uint256"},{"internalType":"uint256","name":"defense","type":"uint256"},{"internalType":"uint256","name":"speed","type":"uint256"},{"internalType":"uint256","name":"level","type":"uint256"},{"internalType":"uint256","name":"experience","type":"uint256"},{"internalType":"uint256","name":"wins","type":"uint256"},{"internalType":"uint256","name":"losses","type":"uint256"},{"internalType":"uint256","name":"birthTime","type":"uint256"},{"internalType":"uint256","name":"parentEggId","type":"uint256"}],"internalType":"struct DragonNFTWithRarity.Dragon","name":"","type":"tuple"}],"stateMutability":"view","type":"function"},{"inputs":[{"internalType":"address","name":"user","type":"address"}],"name":"getUserDragons","outputs":[{"internalType":"uint256[]","name":"","type":"uint256[]"}],"stateMutability":"view","type":"function"},{"inputs":[{"internalType":"uint256","name":"eggId","type":"uint256"}],"name":"hatchEgg","outputs":[{"internalType":"uint256","name":"","type":"uint256"}],"stateMutability":"nonpayable","type":"function"},{"inputs":[{"internalType":"address","name":"owner","type":"address"},{"internalType":"address","name":"operator","type":"address"}],"name":"isApprovedForAll","outputs":[{"internalType":"bool","name":"","type":"bool"}],"stateMutability":"view","type":"function"},{"inputs":[],"name":"leaderboardContract","outputs":[{"internalType":"address","name":"","type":"address"}],"stateMutability":"view","type":"function"},{"inputs":[],"name":"name","outputs":[{"internalType":"string","name":"","type":"string"}],"stateMutability":"view","type":"function"},{"inputs":[],"name":"owner","outputs":[{"internalType":"address","name":"","type":"address"}],"stateMutability":"view","type":"function"},{"inputs":[{"internalType":"uint256","name":"tokenId","type":"uint256"}],"name":"ownerOf","outputs":[{"internalType":"address","name":"","type":"address"}],"stateMutability":"view","type":"function"},{"inputs":[{"internalType":"enum DragonNFTWithRarity.Rarity","name":"","type":"uint8"}],"name":"rarityMultipliers","outputs":[{"internalType":"uint256","name":"","type":"uint256"}],"stateMutability":"view","type":"function"},{"inputs":[{"internalType":"uint256","name":"winnerId","type":"uint256"},{"internalType":"uint256","name":"loserId","type":"uint256"},{"internalType":"uint256","name":"expGained","type":"uint256"}],"name":"recordBattleResult","outputs":[],"stateMutability":"nonpayable","type":"function"},{"inputs":[],"name":"renounceOwnership","outputs":[],"stateMutability":"nonpayable","type":"function"},{"inputs":[{"internalType":"address","name":"from","type":"address"},{"internalType":"address","name":"to","type":"address"},{"internalType":"uint256","name":"tokenId","type":"uint256"}],"name":"safeTransferFrom","outputs":[],"stateMutability":"nonpayable","type":"function"},{"inputs":[{"internalType":"address","name":"from","type":"address"},{"internalType":"address","name":"to","type":"address"},{"internalType":"uint256","name":"tokenId","type":"uint256"},{"internalType":"bytes","name":"data","type":"bytes"}],"name":"safeTransferFrom","outputs":[],"stateMutability":"nonpayable","type":"function"},{"inputs":[{"internalType":"address","name":"operator","type":"address"},{"internalType":"bool","name":"approved","type":"bool"}],"name":"setApprovalForAll","outputs":[],"stateMutability":"nonpayable","type":"function"},{"inputs":[{"internalType":"string","name":"baseURI","type":"string"}],"name":"setBaseURI","outputs":[],"stateMutability":"nonpayable","type":"function"},{"inputs":[{"internalType":"address","name":"_eggNFT","type":"address"}],"name":"setEggNFT","outputs":[],"stateMutability":"nonpayable","type":"function"},{"inputs":[{"internalType":"address","name":"_leaderboard","type":"address"}],"name":"setLeaderboard","outputs":[],"stateMutability":"nonpayable","type":"function"},{"inputs":[{"internalType":"bytes4","name":"interfaceId","type":"bytes4"}],"name":"supportsInterface","outputs":[{"internalType":"bool","name":"","type":"bool"}],"stateMutability":"view","type":"function"},{"inputs":[],"name":"symbol","outputs":[{"internalType":"string","name":"","type":"string"}],"stateMutability":"view","type":"function"},{"inputs":[{"internalType":"uint256","name":"tokenId","type":"uint256"}],"name":"tokenURI","outputs":[{"internalType":"string","name":"","type":"string"}],"stateMutability":"view","type":"function"},{"inputs":[{"internalType":"address","name":"from","type":"address"},{"internalType":"address","name":"to","type":"address"},{"internalType":"uint256","name":"tokenId","type":"uint256"}],"name":"transferFrom","outputs":[],"stateMutability":"nonpayable","type":"function"},{"inputs":[{"internalType":"address","name":"newOwner","type":"address"}],"name":"transferOwnership","outputs":[],"stateMutability":"nonpayable","type":"function"},{"inputs":[{"internalType":"address","name":"","type":"address"},{"internalType":"uint256","name":"","type":"uint256"}],"name":"userDragons","outputs":[{"internalType":"uint256","name":"","type":"uint256"}],"stateMutability":"view","type":"function"}],"evm":{"bytecode":{"linkReferences":{},"object":"608034620003f257620033e390813803601f1991601f91838382011682019460018060401b039183871083881117620003dc5780849260409889528339602093849181010312620003f257516001600160a01b03808216929091839003620003f2576200006b620003f7565b946012865271223930b3b7b71021b4ba3c90223930b3b7b760711b8587015262000094620003f7565b6006815265222920a3a7a760d11b86820152865197838911620003dc576000988954986001998a81811c91168015620003d1575b8a821014620003bd579081868493116200036a575b50899086831160011462000309578c92620002fd575b5050600019600383901b1c191690891b1789555b8151938411620002e95787548881811c91168015620002de575b88821014620002ca57908184869594931162000273575b5087928411600114620002125750889262000206575b5050600019600383901b1c191690851b1784555b3315620001ee57614e209492869492600b9260065460018060a01b03199133838316176006553391167f8be0079c531659141344cd1fd0a4f28419497f9722a3daafe3b4186f6b6457e08880a3846007556009541617600955838052526127108383205581526130d48282205560028152613a988282205560038152205551612fcb9081620004188239f35b8551631e4fbdf760e01b815260048101869052602490fd5b0151905038806200014e565b888a52878a20899590939291168a5b898282106200025c575050841162000242575b505050811b01845562000162565b015160001960f88460031b161c1916905538808062000234565b8385015186558b9790950194938401930162000221565b9091929350888a52878a208480870160051c8201928a8810620002c0575b9187968c92969594930160051c01915b828110620002b157505062000138565b8c81558796508b9101620002a1565b9250819262000291565b634e487b7160e01b8a52602260045260248afd5b90607f169062000121565b634e487b7160e01b89526041600452602489fd5b015190503880620000f3565b908c91858d95168380528c8420935b8d82821062000353575050841162000339575b505050811b01895562000107565b015160001960f88460031b161c191690553880806200032b565b8385015186558f9790950194938401930162000318565b9091508b8052898c208680850160051c8201928c8610620003b3575b918d91869594930160051c01915b828110620003a4575050620000dd565b8e81558594508d910162000394565b9250819262000386565b634e487b7160e01b8c52602260045260248cfd5b90607f1690620000c8565b634e487b7160e01b600052604160045260246000fd5b600080fd5b60408051919082016001600160401b03811183821017620003dc5760405256fe608080604052600436101561001357600080fd5b60003560e01c90816301ffc9a714611b9c5750806306fdde0314611af9578063081812fc14611abb578063095ea7b3146119d45780630cb2cc141461197c578063168218f6146117895780631f8d442a146117605780632385554c146112c057806323b872dd146112a957806342842e0e1461127b5780634315e3871461123857806347b50c421461118457806355f804b314610fe35780636352211e14610fb357806368562d201461098657806370a082311461092d578063715018a6146108d05780638da5cb5b146108a757806395d89b41146107dc578063975332591461079e578063a22cb465146106f9578063b88d4fde1461068b578063c87b56dd14610654578063d2a59d6914610584578063e0bb933b146103b7578063e4a2fe1d146102be578063e985e9c514610268578063f1a2de7214610225578063f2fde38b146101975763ff0224d31461016957600080fd5b3461019257600036600319011261019257600a546040516001600160a01b039091168152602090f35b600080fd5b34610192576020366003190112610192576101b0611c4f565b6101b8611e04565b6001600160a01b0390811690811561020c57600654826bffffffffffffffffffffffff60a01b821617600655167f8be0079c531659141344cd1fd0a4f28419497f9722a3daafe3b4186f6b6457e0600080a3005b604051631e4fbdf760e01b815260006004820152602490fd5b346101925760203660031901126101925761023e611c4f565b610246611e04565b600a80546001600160a01b0319166001600160a01b0392909216919091179055005b3461019257604036600319011261019257610281611c4f565b610289611c65565b9060018060a01b03809116600052600560205260406000209116600052602052602060ff604060002054166040519015158152f35b3461019257602036600319011261019257600435600052600c60205260206103af60406000206103a76040516102f381611cde565b8254815260ff600184015461030c8282168885016121ca565b61031e828260081c16604085016121d6565b60101c1661032b81611de0565b606082015261039f60028401548060808401526003850154908160a085015260048601549360c08101948552610180600a60058901549860e08401998a526006810154610100850152600781015461012085015260088101546101408501526009810154610160850152015491015261244a565b90519061244a565b9051906121b7565b604051908152f35b346101925760203660031901126101925760006101806040516103d981611cde565b8281528260208201528260408201528260608201528260808201528260a08201528260c08201528260e0820152826101008201528261012082015282610140820152826101608201520152600435600052600c6020526101a06040600020600a6040519161044683611cde565b8054835260ff6001820154610460828216602087016121ca565b610472828260081c16604087016121d6565b60101c1661047f81611de0565b606084015260028101546080840152600381015460a0840152600481015460c0840152600581015460e08401526006810154610100840152600781015461012084015260088101546101408401526009810154610160840152015461018082015261018060405191805183526104fd60208201516020850190611dea565b61050f60408201516040850190611df7565b606081015161051d81611de0565b60608401526080810151608084015260a081015160a084015260c081015160c084015260e081015160e08401526101008101516101008401526101208101516101208401526101408101516101408401526101608101516101608401520151610180820152f35b3461019257602036600319011261019257600435600052600c6020526101a0604060002080549060018101549060ff8260101c16600282015460038301546004840154600585015490600686015492600787015494600888015496610612600a60098b01549a01549a60ff604080519e8f90815261060760208201848616611dea565b019160081c16611df7565b61061b81611de0565b60608b015260808a015260a089015260c088015260e0870152610100860152610120850152610140840152610160830152610180820152f35b34610192576020366003190112610192576106876106736004356124a6565b604051918291602083526020830190611c2a565b0390f35b34610192576080366003190112610192576106a4611c4f565b6106ac611c65565b906044356064359267ffffffffffffffff84116101925736602385011215610192576106e56106f7943690602481600401359101611da9565b926106f1838383611e6a565b33612044565b005b3461019257604036600319011261019257610712611c4f565b60243590811515809203610192576001600160a01b031690811561078557336000526005602052604060002082600052602052604060002060ff1981541660ff83161790556040519081527f17307eab39ab6107e8899845ad3d59bd9653f200f220920489ca2b5937696c3160203392a3005b604051630b61174360e31b815260048101839052602490fd5b34610192576020366003190112610192576004356004811015610192576107c481611de0565b600052600b6020526020604060002054604051908152f35b34610192576000366003190112610192576040516000600180549061080082611e30565b808552918181169081156108805750600114610827575b6106878461067381860382611d6b565b600081815292507fb10e2d527612073b26eecdfd717e6a320cf44b4afac2b0732d9fcbe2b7fa0cf65b82841061086857505050810160200161067382610817565b80546020858701810191909152909301928101610850565b60ff191660208087019190915292151560051b850190920192506106739150839050610817565b34610192576000366003190112610192576006546040516001600160a01b039091168152602090f35b34610192576000366003190112610192576108e9611e04565b600680546001600160a01b031981169091556000906001600160a01b03167f8be0079c531659141344cd1fd0a4f28419497f9722a3daafe3b4186f6b6457e08280a3005b34610192576020366003190112610192576001600160a01b0361094e611c4f565b16801561096d5760005260036020526020604060002054604051908152f35b6040516322718ad960e21b815260006004820152602490fd5b34610192576040366003190112610192576109a2600435612009565b6001600160a01b03903390821603610f775733906109c1602435612009565b1603610f3b57600435600052600c602052600460056040600020015410610efe57602435600052600c602052600460056040600020015410610ec157600435600052600c6020526040600020600a60405191610a1c83611cde565b8054835260ff6001820154610a36828216602087016121ca565b610a48828260081c16604087016121d6565b60101c16610a5581611de0565b606084015260028101546080840152600381015460a0840152600481015460c0840152600581015460e084015260068101546101008401526007810154610120840152600881015461014084015260098101546101608401520154610180820152602435600052600c602052604060002090600a60405192610ad684611cde565b8054845260ff6001820154610af0828216602088016121ca565b610b02828260081c16604088016121d6565b60101c16610b0f81611de0565b606085015260028101546080850152600381015460a0850152600481015460c0850152600581015460e0850152600681015461010085015260078101546101208501526008810154610140850152600981015461016085015201546101808301526060810151610b7e81611de0565b606083015190610b8d82611de0565b610b9682611de0565b610b9f81611de0565b1115610eae576060810151610bb381611de0565b60016040516020810190428252600435604082015260408152610bd581611d4f565b51902016610e9a5760208201516006811015610e6b57905b60016040516020810190428252602435604082015260408152610c0f81611d4f565b51902016610e81576040830151926003841015610e6b57610ca393945b612710610cb9610cab82610cb2610c78610c4f608089015160808901519061244a565b60011c9660c080610c6960a08c015160a08501519061244a565b60011c9a01519101519061244a565b60011c95610c8589611de0565b88600052600b60205282604060002054948580936007549e8f612192565b6007556121b7565b04976121b7565b04936121b7565b0491610ce460405197610ccb89611cde565b878952610cdb8760208b016121ca565b604089016121d6565b610ced84611de0565b836060880152608087015260a086015260c0850152600160e085015260006101008501526000610120850152600061014085015242610160850152600061018085015282600052600c6020526040600020845181556020850151946006861015610e6b5760018201546040820151916003831015610e6b57602097600a9361ff006101809460ff62ff00006060870151610d8681611de0565b610d8f81611de0565b60101b1694169062ffffff1916179160081b16171760018501556080810151600285015560a0810151600385015560c0810151600485015560e081015160058501556101008101516006850155610120810151600785015561014081015160088501556101608101516009850155015191015533600052600d8452610e188360406000206121e2565b610e22833361221c565b610e2f6040518093611dea565b610e3881611de0565b83820152817fde84af6d30866324ee8781dd4ac14e6124c517b058043a88c80227b93d22800a60403393a3604051908152f35b634e487b7160e01b600052602160045260246000fd5b6040840151926003841015610e6b57610ca39394610c2c565b60208301516006811015610e6b5790610bed565b6060820151610ebc81611de0565b610bb3565b60405162461bcd60e51b8152602060048201526015602482015274506172656e7432206c6576656c20746f6f206c6f7760581b6044820152606490fd5b60405162461bcd60e51b8152602060048201526015602482015274506172656e7431206c6576656c20746f6f206c6f7760581b6044820152606490fd5b60405162461bcd60e51b81526020600482015260146024820152732737ba1037bbb732b91037b3103830b932b73a1960611b6044820152606490fd5b60405162461bcd60e51b81526020600482015260146024820152734e6f74206f776e6572206f6620706172656e743160601b6044820152606490fd5b34610192576020366003190112610192576020610fd1600435612009565b6040516001600160a01b039091168152f35b34610192576020806003193601126101925767ffffffffffffffff600435818111610192573660238201121561019257611027903690602481600401359101611da9565b91611030611e04565b825191821161116e57611044600854611e30565b601f811161110a575b5080601f83116001146110895750819260009261107e575b5050600019600383901b1c191660019190911b17600855005b015190508280611065565b90601f1983169360086000527ff3f7a9fe364faab93b216da50a3214154f22a0a2b415b23a84c8169e8b636ee3926000905b8682106110f257505083600195106110d9575b505050811b01600855005b015160001960f88460031b161c191690558280806110ce565b806001859682949686015181550195019301906110bb565b60086000527ff3f7a9fe364faab93b216da50a3214154f22a0a2b415b23a84c8169e8b636ee3601f840160051c810191838510611164575b601f0160051c01905b818110611158575061104d565b6000815560010161114b565b9091508190611142565b634e487b7160e01b600052604160045260246000fd5b3461019257602080600319360112610192576001600160a01b036111a6611c4f565b16600052600d8152604060002060405190818382549182815201908192600052846000209060005b868282106112245786866111e482880383611d6b565b604051928392818401908285525180915260408401929160005b82811061120d57505050500390f35b8351855286955093810193928101926001016111fe565b8354855290930192600192830192016111ce565b3461019257602036600319011261019257611251611c4f565b611259611e04565b600980546001600160a01b0319166001600160a01b0392909216919091179055005b34610192576106f761128c36611ca9565b906040519261129a84611d33565b600084526106f1838383611e6a565b34610192576106f76112ba36611ca9565b91611e6a565b34610192576020366003190112610192576009546040516331a9108f60e11b815260048035908201526001600160a01b0391821691602082602481865afa9182156116e257600092611723575b50339116036116ee57608060249160405192838092635db2a77d60e11b825260043560048301525afa80156116e257600091600091611696575b5061165b576040519060066020830142815260043560408501523360601b9384606082015266195b195b595b9d60ca1b6074820152605b815261138981611cfb565b51902006916006831015610e6b57600390604051602081019142835260043560408301526060820152643837bbb2b960d91b6074820152605981526113cd81611cfb565b51902006916003831015610e6b576113e482611de0565b6113f060ff8316611de0565b61141a6040516113ff81611d17565b600681526561747461636b60d01b6020820152600435612457565b9161144660405161142a81611d17565b6007815266646566656e736560c81b6020820152600435612457565b61146f60405161145581611d17565b60058152641cdc19595960da1b6020820152600435612457565b61147b60ff8416611de0565b60ff8316600052600b602052610cab6114b560406000205480610cb2816007549a6114a58c612192565b60075561271096879485926121b7565b04916114c760405197610ccb89611cde565b6114d360ff8516611de0565b60ff84166060880152608087015260a086015260c0850152600160e08501526000610100850152600061012085015260006101408501524261016085015260043561018085015282600052600c602052604060002090845182556020850151916006831015610e6b5760018101546040870151906003821015610e6b578760ff95600a9361ff00610180948962ff0000606060209f015161157381611de0565b61157c81611de0565b60101b1694169062ffffff1916179160081b16171760018501556080810151600285015560a0810151600385015560c0810151600485015560e081015160058501556101008101516006850155610120810151600785015561014081015160088501556101608101516009850155015191015533600052600d85526116058460406000206121e2565b61160f843361221c565b61161c6040518094611dea565b611627828216611de0565b1683820152817fde84af6d30866324ee8781dd4ac14e6124c517b058043a88c80227b93d22800a60403393a3604051908152f35b60405162461bcd60e51b81526020600482015260136024820152721159d9c8185b1c9958591e481a185d18da1959606a1b6044820152606490fd5b9150506080813d82116116da575b816116b160809383611d6b565b810103126101925780519060048210156101925760400151908115158203610192579082611347565b3d91506116a4565b6040513d6000823e3d90fd5b60405162461bcd60e51b815260206004820152600d60248201526c2737ba1032b3b39037bbb732b960991b6044820152606490fd5b9091506020813d602011611758575b8161173f60209383611d6b565b810103126101925751818116810361019257908361130d565b3d9150611732565b34610192576000366003190112610192576009546040516001600160a01b039091168152602090f35b34610192576060366003190112610192576004356024803560018060a01b0380600a5416331490811561196e575b50156119395782600052602092600c845260076040600020016117da8154612192565b905580600052600c845260066040600020016117f9604435825461244a565b905581600052600c845260086040600020016118158154612192565b905580600052600c845260406000209360059283860193845496606497888102908082048a14901517156119245792600682019060028301916004600385019401955b8154106118fb576118698954612192565b808a5583548681018091116118e657845584548681018091116118e65785558654600381018091116118e6578755887fb873985bf70acbc386cfb464c89165d78a194f67b3bf545670776e363545f66089604051848152a28b8102908082048d14901517611858578a634e487b7160e01b60005260116004526000fd5b8b634e487b7160e01b60005260116004526000fd5b50867f37fdf7cda6ec1c848e98866fe5e1f781b2b5976a1d79c7770394e65503ce92af600080a3005b87634e487b7160e01b60005260116004526000fd5b60405162461bcd60e51b815260206004820152600e818401526d139bdd08185d5d1a1bdc9a5e995960921b6044820152606490fd5b9050600654163314846117b7565b3461019257604036600319011261019257611995611c4f565b6001600160a01b03166000908152600d6020526040902080546024359190821015610192576020916119c691611c7b565b90546040519160031b1c8152f35b34610192576040366003190112610192576119ed611c4f565b6024356119f981612009565b33151580611aa8575b80611a7b575b611a63576001600160a01b039283169282918491167f8c5be1e5ebec7d5bd14f71427d1e84f3dd0314c0f7b2291e5b200ac8c7c3b925600080a4600090815260046020526040902080546001600160a01b0319169091179055005b60405163a9fbf51f60e01b8152336004820152602490fd5b5060018060a01b038116600052600560205260406000203360005260205260ff6040600020541615611a08565b506001600160a01b038116331415611a02565b3461019257602036600319011261019257600435611ad881612009565b506000526004602052602060018060a01b0360406000205416604051908152f35b346101925760003660031901126101925760405160008054611b1a81611e30565b808452906001908181169081156108805750600114611b43576106878461067381860382611d6b565b600080805292507f290decd9548b62a8d60345a988386fc84ba6bc95484008f6362f93160ef3e5635b828410611b8457505050810160200161067382610817565b80546020858701810191909152909301928101611b6c565b34610192576020366003190112610192576004359063ffffffff60e01b8216809203610192576020916380ac58cd60e01b8114908115611bf6575b8115611be5575b5015158152f35b6301ffc9a760e01b14905083611bde565b635b5e139f60e01b81149150611bd7565b60005b838110611c1a5750506000910152565b8181015183820152602001611c0a565b90602091611c4381518092818552858086019101611c07565b601f01601f1916010190565b600435906001600160a01b038216820361019257565b602435906001600160a01b038216820361019257565b8054821015611c935760005260206000200190600090565b634e487b7160e01b600052603260045260246000fd5b6060906003190112610192576001600160a01b0390600435828116810361019257916024359081168103610192579060443590565b6101a0810190811067ffffffffffffffff82111761116e57604052565b6080810190811067ffffffffffffffff82111761116e57604052565b6040810190811067ffffffffffffffff82111761116e57604052565b6020810190811067ffffffffffffffff82111761116e57604052565b6060810190811067ffffffffffffffff82111761116e57604052565b90601f8019910116810190811067ffffffffffffffff82111761116e57604052565b67ffffffffffffffff811161116e57601f01601f191660200190565b929192611db582611d8d565b91611dc36040519384611d6b565b829481845281830111610192578281602093846000960137010152565b60041115610e6b57565b906006821015610e6b5752565b906003821015610e6b5752565b6006546001600160a01b03163303611e1857565b60405163118cdaa760e01b8152336004820152602490fd5b90600182811c92168015611e60575b6020831014611e4a57565b634e487b7160e01b600052602260045260246000fd5b91607f1691611e3f565b6001600160a01b039182169290918315611ff057600092828452826020956002875260409684888820541696879133151580611f5a575b509060027fddf252ad1be2c89b69c2b068fc378daa952ba7f163c4a11628f55a4df523b3ef9284611f27575b858352600381528b8320805460010190558683525289812080546001600160a01b0319168517905580a41692838303611f065750505050565b6064945051926364283d7b60e01b8452600484015260248301526044820152fd5b600087815260046020526040902080546001600160a01b0319169055848352600381528b83208054600019019055611ecd565b91939450915080611faf575b15611f7657859291879138611ea1565b878688611f93576024915190637e27328960e01b82526004820152fd5b604491519063177e802f60e01b82523360048301526024820152fd5b503387148015611fd4575b80611f665750858252600481523385898420541614611f66565b5086825260058152878220338352815260ff8883205416611fba565b604051633250574960e11b815260006004820152602490fd5b6000818152600260205260409020546001600160a01b031690811561202c575090565b60249060405190637e27328960e01b82526004820152fd5b90939192833b612056575b5050505050565b604051630a85bd0160e11b8082526001600160a01b0393841660048301529583166024820152604481019190915260806064820152949216926020929185906120a3906084830190611c2a565b039483816000978189895af186918161214e575b50612118575050503d60001461210f573d6120d181611d8d565b906120df6040519283611d6b565b81528093823d92013e5b8251928361210a57604051633250574960e11b815260048101849052602490fd5b019050fd5b606092506120e9565b919450915063ffffffff60e01b16036121365750388080808061204f565b60249060405190633250574960e11b82526004820152fd5b9091508481813d831161218b575b6121668183611d6b565b8101031261218757516001600160e01b0319811681036121875790386120b7565b8680fd5b503d61215c565b60001981146121a15760010190565b634e487b7160e01b600052601160045260246000fd5b818102929181159184041417156121a157565b6006821015610e6b5752565b6003821015610e6b5752565b80546801000000000000000081101561116e5761220491600182018155611c7b565b819291549060031b91821b91600019901b1916179055565b6040805161222981611d33565b6000808252936001600160a01b0384811694909290851561243257828752602093600285528588205416838782151592836123ff575b818b5260038852888b2080546001019055828b5260028852888b2080546001600160a01b031916831790557fddf252ad1be2c89b69c2b068fc378daa952ba7f163c4a11628f55a4df523b3ef8b80a46123e7573b6122c0575b505050505050565b826122fe918596979894955180938192630a85bd0160e11b968784523360048501528c60248501526044840152608060648401526084830190611c2a565b03818a8a5af18791816123a3575b5061236c575050503d600014612363573d61232681611d8d565b9061233384519283611d6b565b81528094823d92013e5b8351938461235d578251633250574960e11b815260048101859052602490fd5b84925001fd5b6060935061233d565b919550915063ffffffff60e01b160361238c5750503880808080806122b8565b602492505190633250574960e11b82526004820152fd5b9091508481813d83116123e0575b6123bb8183611d6b565b810103126123dc57516001600160e01b0319811681036123dc57903861230c565b8780fd5b503d6123b1565b84516339e3563760e11b815260048101889052602490fd5b600083815260046020526040902080546001600160a01b0319169055808b5260038852888b20805460001901905561225f565b8451633250574960e11b815260048101889052602490fd5b919082018092116121a157565b60339161249460606040518093602082019542875260408301526124848151809260208686019101611c07565b8101036040810184520182611d6b565b51902006603201806032116121a15790565b6001600160a01b036124b782612009565b1615612bc057600854906124ca82611e30565b156125b0576124d890612bfb565b60405180926000906124e981611e30565b90600190818116908115612589575060011461252a575b50508061251884602093612527965194859201611c07565b0103601f198101835282611d6b565b90565b600860009081529192507ff3f7a9fe364faab93b216da50a3214154f22a0a2b415b23a84c8169e8b636ee35b83831061256e57505050810160200182612518612500565b80546020848901810191909152879550909201918101612556565b60ff1916602086810191909152831515909302850190920192508491506125189050612500565b90506000818152600c6020526040812090604051906125ce82611cde565b8254825260018301549060208301936125ea60ff8416866121ca565b60ff6040850193612600828260081c16866121d6565b60101c1693606081019461261381611de0565b85526002820154906080810191825260038301549160a0820192835260048401549460c0830195865260058501549860e08401998a5260068601546101008501526007860154936101208101948552610180600a6008890154986101408401998a5260098101546101608501520154910152516006811015612bac5761269b6126ab91612d63565b98516126a681611de0565b612e57565b9651906003821015612b9857506126c190612f15565b986126cb90612bfb565b97516126d690612bfb565b90516126e190612bfb565b92516126ec90612bfb565b94516126f790612bfb565b915161270290612bfb565b935161270d90612bfb565b94604051998a9960208b017f646174613a6170706c69636174696f6e2f6a736f6e3b757466382c7b226e616d90526332911d1160e11b60408c0152885160448c018160208c019161275d92611c07565b808c01604401600160fd1b9052808b8d815193849101604501916020019161278492611c07565b8c0101604581016820447261676f6e202360b81b905281519182604e830191602001916127b092611c07565b01604e81017f222c226465736372697074696f6e223a224120706f77657266756c20647261679052606e81017f6f6e2066726f6d20447261676f6e20436974792e20456c656d656e743a2000009052895190608c81018260208d019161281592611c07565b01608c810169016102930b934ba3c9d160b51b9052885190609681018260208c019161284092611c07565b6f222c2261747472696275746573223a5b60801b609692909101918201527f7b2274726169745f74797065223a22456c656d656e74222c2276616c7565223a60a6820152601160f91b60c68201528951906128a28260c7830160208e01611c07565b0162089f4b60ea1b908160c782015260ca81017f7b2274726169745f74797065223a22526172697479222c2276616c7565223a22905289519060ea81018260208d01916128ee92611c07565b018160ea82015260ed81017f7b2274726169745f74797065223a22506f7765722054797065222c2276616c7590526332911d1160e11b61010d8201528251906101119382858301916020019161294392611c07565b019182015261011481017f7b2274726169745f74797065223a224c6576656c222c2276616c7565223a000090528251906101329382858301916020019161298992611c07565b0191611f4b60f21b948584818096948195015261013481017f7b2274726169745f74797065223a2241747461636b222c2276616c7565223a009052825190610153938285830191602001916129dd92611c07565b019182015261015581017f7b2274726169745f74797065223a22446566656e7365222c2276616c7565223a905282519061017593828583019160200191612a2392611c07565b019182015261017781017f7b2274726169745f74797065223a225370656564222c2276616c7565223a0000905282519061019593828583019160200191612a6992611c07565b019182015261019781017f7b2274726169745f74797065223a2257696e73222c2276616c7565223a00000090528251906101b493828583019160200191612aaf92611c07565b01918201526101b681017f7b2274726169745f74797065223a224c6f73736573222c2276616c7565223a0090528151906101d592828483019160200191612af592611c07565b01908101607d60f81b90526101d681017f5d2c22696d616765223a22697066733a2f2f516d596f7572496d61676548617390526101f6810161682f60f01b90528151906101f892828483019160200191612b4e92611c07565b01908101605f60f81b90528151906101f992828483019160200191612b7292611c07565b0190652e706e67227d60d01b90820152036101df810182526101ff016125279082611d6b565b634e487b7160e01b81526021600452602490fd5b634e487b7160e01b82526021600452602482fd5b60405162461bcd60e51b8152602060048201526013602482015272151bdad95b88191bd95cdb89dd08195e1a5cdd606a1b6044820152606490fd5b806000917a184f03e93ff9f4daa797ed6e38ed64bf6a1f01000000000000000080821015612d55575b506d04ee2d6d415b85acef810000000080831015612d46575b50662386f26fc1000080831015612d37575b506305f5e10080831015612d28575b5061271080831015612d19575b506064821015612d09575b600a80921015612cff575b60019081602181860195612c9487611d8d565b96612ca26040519889611d6b565b808852612cb1601f1991611d8d565b01366020890137860101905b612cc9575b5050505090565b600019019083906f181899199a1a9b1b9c1cb0b131b232b360811b8282061a835304918215612cfa57919082612cbd565b612cc2565b9160010191612c81565b9190606460029104910191612c76565b60049193920491019138612c6b565b60089193920491019138612c5e565b60109193920491019138612c4f565b60209193920491019138612c3d565b604093508104915038612c24565b6006811015610e6b578015612e365760018114612e145760028114612df25760038114612dd257600414612db257604051612d9d81611d17565b6005815264131a59da1d60da1b602082015290565b604051612dbe81611d17565b60048152634461726b60e01b602082015290565b50604051612ddf81611d17565b600381526220b4b960e91b602082015290565b50604051612dff81611d17565b600581526408ac2e4e8d60db1b602082015290565b50604051612e2181611d17565b60058152642bb0ba32b960d91b602082015290565b50604051612e4381611d17565b60048152634669726560e01b602082015290565b612e6081611de0565b60038114612eef57612e7181611de0565b60028114612ecc5780612e85600192611de0565b14612eac57604051612e9681611d17565b600681526521b7b6b6b7b760d11b602082015290565b604051612eb881611d17565b60048152635261726560e01b602082015290565b50604051612ed981611d17565b6006815265556e6971756560d01b602082015290565b50604051612efc81611d17565b60098152684c6567656e6461727960b81b602082015290565b6003811015610e6b578015612f7057600114612f4d57604051612f3781611d17565b6006815265121e589c9a5960d21b602082015290565b604051612f5981611d17565b6007815266135859da58d85b60ca1b602082015290565b50604051612f7d81611d17565b6008815267141a1e5cda58d85b60c21b60208201529056fea2646970667358221220eabe7869dc10a8ed89f9b138c3b5f7a70c1b570481e7f3ab5f13766a8cb07b9b64736f6c63430008140033","opcodes":"PUSH1 0x80 CALLVALUE PUSH3 0x3F2 JUMPI PUSH3 0x33E3 SWAP1 DUP2 CODESIZE SUB PUSH1 0x1F NOT SWAP2 PUSH1 0x1F SWAP2 DUP4 DUP4 DUP3 ADD AND DUP3 ADD SWAP5 PUSH1 0x1 DUP1 PUSH1 0x40 SHL SUB SWAP2 DUP4 DUP8 LT DUP4 DUP9 GT OR PUSH3 0x3DC JUMPI DUP1 DUP5 SWAP3 PUSH1 0x40 SWAP9 DUP10 MSTORE DUP4 CODECOPY PUSH1 0x20 SWAP4 DUP5 SWAP2 DUP2 ADD SUB SLT PUSH3 0x3F2 JUMPI MLOAD PUSH1 0x1 PUSH1 0x1 PUSH1 0xA0 SHL SUB DUP1 DUP3 AND SWAP3 SWAP1 SWAP2 DUP4 SWAP1 SUB PUSH3 0x3F2 JUMPI PUSH3 0x6B PUSH3 0x3F7 JUMP JUMPDEST SWAP5 PUSH1 0x12 DUP7 MSTORE PUSH18 0x223930B3B7B71021B4BA3C90223930B3B7B7 PUSH1 0x71 SHL DUP6 DUP8 ADD MSTORE PUSH3 0x94 PUSH3 0x3F7 JUMP JUMPDEST PUSH1 0x6 DUP2 MSTORE PUSH6 0x222920A3A7A7 PUSH1 0xD1 SHL DUP7 DUP3 ADD MSTORE DUP7 MLOAD SWAP8 DUP4 DUP10 GT PUSH3 0x3DC JUMPI PUSH1 0x0 SWAP9 DUP10 SLOAD SWAP9 PUSH1 0x1 SWAP10 DUP11 DUP2 DUP2 SHR SWAP2 AND DUP1 ISZERO PUSH3 0x3D1 JUMPI JUMPDEST DUP11 DUP3 LT EQ PUSH3 0x3BD JUMPI SWAP1 DUP2 DUP7 DUP5 SWAP4 GT PUSH3 0x36A JUMPI JUMPDEST POP DUP10 SWAP1 DUP7 DUP4 GT PUSH1 0x1 EQ PUSH3 0x309 JUMPI DUP13 SWAP3 PUSH3 0x2FD JUMPI JUMPDEST POP POP PUSH1 0x0 NOT PUSH1 0x3 DUP4 SWAP1 SHL SHR NOT AND SWAP1 DUP10 SHL OR DUP10 SSTORE JUMPDEST DUP2 MLOAD SWAP4 DUP5 GT PUSH3 0x2E9 JUMPI DUP8 SLOAD DUP9 DUP2 DUP2 SHR SWAP2 AND DUP1 ISZERO PUSH3 0x2DE JUMPI JUMPDEST DUP9 DUP3 LT EQ PUSH3 0x2CA JUMPI SWAP1 DUP2 DUP5 DUP7 SWAP6 SWAP5 SWAP4 GT PUSH3 0x273 JUMPI JUMPDEST POP DUP8 SWAP3 DUP5 GT PUSH1 0x1 EQ PUSH3 0x212 JUMPI POP DUP9 SWAP3 PUSH3 0x206 JUMPI JUMPDEST POP POP PUSH1 0x0 NOT PUSH1 0x3 DUP4 SWAP1 SHL SHR NOT AND SWAP1 DUP6 SHL OR DUP5 SSTORE JUMPDEST CALLER ISZERO PUSH3 0x1EE JUMPI PUSH2 0x4E20 SWAP5 SWAP3 DUP7 SWAP5 SWAP3 PUSH1 0xB SWAP3 PUSH1 0x6 SLOAD PUSH1 0x1 DUP1 PUSH1 0xA0 SHL SUB NOT SWAP2 CALLER DUP4 DUP4 AND OR PUSH1 0x6 SSTORE CALLER SWAP2 AND PUSH32 0x8BE0079C531659141344CD1FD0A4F28419497F9722A3DAAFE3B4186F6B6457E0 DUP9 DUP1 LOG3 DUP5 PUSH1 0x7 SSTORE PUSH1 0x9 SLOAD AND OR PUSH1 0x9 SSTORE DUP4 DUP1 MSTORE MSTORE PUSH2 0x2710 DUP4 DUP4 KECCAK256 SSTORE DUP2 MSTORE PUSH2 0x30D4 DUP3 DUP3 KECCAK256 SSTORE PUSH1 0x2 DUP2 MSTORE PUSH2 0x3A98 DUP3 DUP3 KECCAK256 SSTORE PUSH1 0x3 DUP2 MSTORE KECCAK256 SSTORE MLOAD PUSH2 0x2FCB SWAP1 DUP2 PUSH3 0x418 DUP3 CODECOPY RETURN JUMPDEST DUP6 MLOAD PUSH4 0x1E4FBDF7 PUSH1 0xE0 SHL DUP2 MSTORE PUSH1 0x4 DUP2 ADD DUP7 SWAP1 MSTORE PUSH1 0x24 SWAP1 REVERT JUMPDEST ADD MLOAD SWAP1 POP CODESIZE DUP1 PUSH3 0x14E JUMP JUMPDEST DUP9 DUP11 MSTORE DUP8 DUP11 KECCAK256 DUP10 SWAP6 SWAP1 SWAP4 SWAP3 SWAP2 AND DUP11 JUMPDEST DUP10 DUP3 DUP3 LT PUSH3 0x25C JUMPI POP POP DUP5 GT PUSH3 0x242 JUMPI JUMPDEST POP POP POP DUP2 SHL ADD DUP5 SSTORE PUSH3 0x162 JUMP JUMPDEST ADD MLOAD PUSH1 0x0 NOT PUSH1 0xF8 DUP5 PUSH1 0x3 SHL AND SHR NOT AND SWAP1 SSTORE CODESIZE DUP1 DUP1 PUSH3 0x234 JUMP JUMPDEST DUP4 DUP6 ADD MLOAD DUP7 SSTORE DUP12 SWAP8 SWAP1 SWAP6 ADD SWAP5 SWAP4 DUP5 ADD SWAP4 ADD PUSH3 0x221 JUMP JUMPDEST SWAP1 SWAP2 SWAP3 SWAP4 POP DUP9 DUP11 MSTORE DUP8 DUP11 KECCAK256 DUP5 DUP1 DUP8 ADD PUSH1 0x5 SHR DUP3 ADD SWAP3 DUP11 DUP9 LT PUSH3 0x2C0 JUMPI JUMPDEST SWAP2 DUP8 SWAP7 DUP13 SWAP3 SWAP7 SWAP6 SWAP5 SWAP4 ADD PUSH1 0x5 SHR ADD SWAP2 JUMPDEST DUP3 DUP2 LT PUSH3 0x2B1 JUMPI POP POP PUSH3 0x138 JUMP JUMPDEST DUP13 DUP2 SSTORE DUP8 SWAP7 POP DUP12 SWAP2 ADD PUSH3 0x2A1 JUMP JUMPDEST SWAP3 POP DUP2 SWAP3 PUSH3 0x291 JUMP JUMPDEST PUSH4 0x4E487B71 PUSH1 0xE0 SHL DUP11 MSTORE PUSH1 0x22 PUSH1 0x4 MSTORE PUSH1 0x24 DUP11 REVERT JUMPDEST SWAP1 PUSH1 0x7F AND SWAP1 PUSH3 0x121 JUMP JUMPDEST PUSH4 0x4E487B71 PUSH1 0xE0 SHL DUP10 MSTORE PUSH1 0x41 PUSH1 0x4 MSTORE PUSH1 0x24 DUP10 REVERT JUMPDEST ADD MLOAD SWAP1 POP CODESIZE DUP1 PUSH3 0xF3 JUMP JUMPDEST SWAP1 DUP13 SWAP2 DUP6 DUP14 SWAP6 AND DUP4 DUP1 MSTORE DUP13 DUP5 KECCAK256 SWAP4 JUMPDEST DUP14 DUP3 DUP3 LT PUSH3 0x353 JUMPI POP POP DUP5 GT PUSH3 0x339 JUMPI JUMPDEST POP POP POP DUP2 SHL ADD DUP10 SSTORE PUSH3 0x107 JUMP JUMPDEST ADD MLOAD PUSH1 0x0 NOT PUSH1 0xF8 DUP5 PUSH1 0x3 SHL AND SHR NOT AND SWAP1 SSTORE CODESIZE DUP1 DUP1 PUSH3 0x32B JUMP JUMPDEST DUP4 DUP6 ADD MLOAD DUP7 SSTORE DUP16 SWAP8 SWAP1 SWAP6 ADD SWAP5 SWAP4 DUP5 ADD SWAP4 ADD PUSH3 0x318 JUMP JUMPDEST SWAP1 SWAP2 POP DUP12 DUP1 MSTORE DUP10 DUP13 KECCAK256 DUP7 DUP1 DUP6 ADD PUSH1 0x5 SHR DUP3 ADD SWAP3 DUP13 DUP7 LT PUSH3 0x3B3 JUMPI JUMPDEST SWAP2 DUP14 SWAP2 DUP7 SWAP6 SWAP5 SWAP4 ADD PUSH1 0x5 SHR ADD SWAP2 JUMPDEST DUP3 DUP2 LT PUSH3 0x3A4 JUMPI POP POP PUSH3 0xDD JUMP JUMPDEST DUP15 DUP2 SSTORE DUP6 SWAP5 POP DUP14 SWAP2 ADD PUSH3 0x394 JUMP JUMPDEST SWAP3 POP DUP2 SWAP3 PUSH3 0x386 JUMP JUMPDEST PUSH4 0x4E487B71 PUSH1 0xE0 SHL DUP13 MSTORE PUSH1 0x22 PUSH1 0x4 MSTORE PUSH1 0x24 DUP13 REVERT JUMPDEST SWAP1 PUSH1 0x7F AND SWAP1 PUSH3 0xC8 JUMP JUMPDEST PUSH4 0x4E487B71 PUSH1 0xE0 SHL PUSH1 0x0 MSTORE PUSH1 0x41 PUSH1 0x4 MSTORE PUSH1 0x24 PUSH1 0x0 REVERT JUMPDEST PUSH1 0x0 DUP1 REVERT JUMPDEST PUSH1 0x40 DUP1 MLOAD SWAP2 SWAP1 DUP3 ADD PUSH1 0x1 PUSH1 0x1 PUSH1 0x40 SHL SUB DUP2 GT DUP4 DUP3 LT OR PUSH3 0x3DC JUMPI PUSH1 0x40 MSTORE JUMP INVALID PUSH1 0x80 DUP1 PUSH1 0x40 MSTORE PUSH1 0x4 CALLDATASIZE LT ISZERO PUSH2 0x13 JUMPI PUSH1 0x0 DUP1 REVERT JUMPDEST PUSH1 0x0 CALLDATALOAD PUSH1 0xE0 SHR SWAP1 DUP2 PUSH4 0x1FFC9A7 EQ PUSH2 0x1B9C JUMPI POP DUP1 PUSH4 0x6FDDE03 EQ PUSH2 0x1AF9 JUMPI DUP1 PUSH4 0x81812FC EQ PUSH2 0x1ABB JUMPI DUP1 PUSH4 0x95EA7B3 EQ PUSH2 0x19D4 JUMPI DUP1 PUSH4 0xCB2CC14 EQ PUSH2 0x197C JUMPI DUP1 PUSH4 0x168218F6 EQ PUSH2 0x1789 JUMPI DUP1 PUSH4 0x1F8D442A EQ PUSH2 0x1760 JUMPI DUP1 PUSH4 0x2385554C EQ PUSH2 0x12C0 JUMPI DUP1 PUSH4 0x23B872DD EQ PUSH2 0x12A9 JUMPI DUP1 PUSH4 0x42842E0E EQ PUSH2 0x127B JUMPI DUP1 PUSH4 0x4315E387 EQ PUSH2 0x1238 JUMPI DUP1 PUSH4 0x47B50C42 EQ PUSH2 0x1184 JUMPI DUP1 PUSH4 0x55F804B3 EQ PUSH2 0xFE3 JUMPI DUP1 PUSH4 0x6352211E EQ PUSH2 0xFB3 JUMPI DUP1 PUSH4 0x68562D20 EQ PUSH2 0x986 JUMPI DUP1 PUSH4 0x70A08231 EQ PUSH2 0x92D JUMPI DUP1 PUSH4 0x715018A6 EQ PUSH2 0x8D0 JUMPI DUP1 PUSH4 0x8DA5CB5B EQ PUSH2 0x8A7 JUMPI DUP1 PUSH4 0x95D89B41 EQ PUSH2 0x7DC JUMPI DUP1 PUSH4 0x97533259 EQ PUSH2 0x79E JUMPI DUP1 PUSH4 0xA22CB465 EQ PUSH2 0x6F9 JUMPI DUP1 PUSH4 0xB88D4FDE EQ PUSH2 0x68B JUMPI DUP1 PUSH4 0xC87B56DD EQ PUSH2 0x654 JUMPI DUP1 PUSH4 0xD2A59D69 EQ PUSH2 0x584 JUMPI DUP1 PUSH4 0xE0BB933B EQ PUSH2 0x3B7 JUMPI DUP1 PUSH4 0xE4A2FE1D EQ PUSH2 0x2BE JUMPI DUP1 PUSH4 0xE985E9C5 EQ PUSH2 0x268 JUMPI DUP1 PUSH4 0xF1A2DE72 EQ PUSH2 0x225 JUMPI DUP1 PUSH4 0xF2FDE38B EQ PUSH2 0x197 JUMPI PUSH4 0xFF0224D3 EQ PUSH2 0x169 JUMPI PUSH1 0x0 DUP1 REVERT JUMPDEST CALLVALUE PUSH2 0x192 JUMPI PUSH1 0x0 CALLDATASIZE PUSH1 0x3 NOT ADD SLT PUSH2 0x192 JUMPI PUSH1 0xA SLOAD PUSH1 0x40 MLOAD PUSH1 0x1 PUSH1 0x1 PUSH1 0xA0 SHL SUB SWAP1 SWAP2 AND DUP2 MSTORE PUSH1 0x20 SWAP1 RETURN JUMPDEST PUSH1 0x0 DUP1 REVERT JUMPDEST CALLVALUE PUSH2 0x192 JUMPI PUSH1 0x20 CALLDATASIZE PUSH1 0x3 NOT ADD SLT PUSH2 0x192 JUMPI PUSH2 0x1B0 PUSH2 0x1C4F JUMP JUMPDEST PUSH2 0x1B8 PUSH2 0x1E04 JUMP JUMPDEST PUSH1 0x1 PUSH1 0x1 PUSH1 0xA0 SHL SUB SWAP1 DUP2 AND SWAP1 DUP2 ISZERO PUSH2 0x20C JUMPI PUSH1 0x6 SLOAD DUP3 PUSH12 0xFFFFFFFFFFFFFFFFFFFFFFFF PUSH1 0xA0 SHL DUP3 AND OR PUSH1 0x6 SSTORE AND PUSH32 0x8BE0079C531659141344CD1FD0A4F28419497F9722A3DAAFE3B4186F6B6457E0 PUSH1 0x0 DUP1 LOG3 STOP JUMPDEST PUSH1 0x40 MLOAD PUSH4 0x1E4FBDF7 PUSH1 0xE0 SHL DUP2 MSTORE PUSH1 0x0 PUSH1 0x4 DUP3 ADD MSTORE PUSH1 0x24 SWAP1 REVERT JUMPDEST CALLVALUE PUSH2 0x192 JUMPI PUSH1 0x20 CALLDATASIZE PUSH1 0x3 NOT ADD SLT PUSH2 0x192 JUMPI PUSH2 0x23E PUSH2 0x1C4F JUMP JUMPDEST PUSH2 0x246 PUSH2 0x1E04 JUMP JUMPDEST PUSH1 0xA DUP1 SLOAD PUSH1 0x1 PUSH1 0x1 PUSH1 0xA0 SHL SUB NOT AND PUSH1 0x1 PUSH1 0x1 PUSH1 0xA0 SHL SUB SWAP3 SWAP1 SWAP3 AND SWAP2 SWAP1 SWAP2 OR SWAP1 SSTORE STOP JUMPDEST CALLVALUE PUSH2 0x192 JUMPI PUSH1 0x40 CALLDATASIZE PUSH1 0x3 NOT ADD SLT PUSH2 0x192 JUMPI PUSH2 0x281 PUSH2 0x1C4F JUMP JUMPDEST PUSH2 0x289 PUSH2 0x1C65 JUMP JUMPDEST SWAP1 PUSH1 0x1 DUP1 PUSH1 0xA0 SHL SUB DUP1 SWAP2 AND PUSH1 0x0 MSTORE PUSH1 0x5 PUSH1 0x20 MSTORE PUSH1 0x40 PUSH1 0x0 KECCAK256 SWAP2 AND PUSH1 0x0 MSTORE PUSH1 0x20 MSTORE PUSH1 0x20 PUSH1 0xFF PUSH1 0x40 PUSH1 0x0 KECCAK256 SLOAD AND PUSH1 0x40 MLOAD SWAP1 ISZERO ISZERO DUP2 MSTORE RETURN JUMPDEST CALLVALUE PUSH2 0x192 JUMPI PUSH1 0x20 CALLDATASIZE PUSH1 0x3 NOT ADD SLT PUSH2 0x192 JUMPI PUSH1 0x4 CALLDATALOAD PUSH1 0x0 MSTORE PUSH1 0xC PUSH1 0x20 MSTORE PUSH1 0x20 PUSH2 0x3AF PUSH1 0x40 PUSH1 0x0 KECCAK256 PUSH2 0x3A7 PUSH1 0x40 MLOAD PUSH2 0x2F3 DUP2 PUSH2 0x1CDE JUMP JUMPDEST DUP3 SLOAD DUP2 MSTORE PUSH1 0xFF PUSH1 0x1 DUP5 ADD SLOAD PUSH2 0x30C DUP3 DUP3 AND DUP9 DUP6 ADD PUSH2 0x21CA JUMP JUMPDEST PUSH2 0x31E DUP3 DUP3 PUSH1 0x8 SHR AND PUSH1 0x40 DUP6 ADD PUSH2 0x21D6 JUMP JUMPDEST PUSH1 0x10 SHR AND PUSH2 0x32B DUP2 PUSH2 0x1DE0 JUMP JUMPDEST PUSH1 0x60 DUP3 ADD MSTORE PUSH2 0x39F PUSH1 0x2 DUP5 ADD SLOAD DUP1 PUSH1 0x80 DUP5 ADD MSTORE PUSH1 0x3 DUP6 ADD SLOAD SWAP1 DUP2 PUSH1 0xA0 DUP6 ADD MSTORE PUSH1 0x4 DUP7 ADD SLOAD SWAP4 PUSH1 0xC0 DUP2 ADD SWAP5 DUP6 MSTORE PUSH2 0x180 PUSH1 0xA PUSH1 0x5 DUP10 ADD SLOAD SWAP9 PUSH1 0xE0 DUP5 ADD SWAP10 DUP11 MSTORE PUSH1 0x6 DUP2 ADD SLOAD PUSH2 0x100 DUP6 ADD MSTORE PUSH1 0x7 DUP2 ADD SLOAD PUSH2 0x120 DUP6 ADD MSTORE PUSH1 0x8 DUP2 ADD SLOAD PUSH2 0x140 DUP6 ADD MSTORE PUSH1 0x9 DUP2 ADD SLOAD PUSH2 0x160 DUP6 ADD MSTORE ADD SLOAD SWAP2 ADD MSTORE PUSH2 0x244A JUMP JUMPDEST SWAP1 MLOAD SWAP1 PUSH2 0x244A JUMP JUMPDEST SWAP1 MLOAD SWAP1 PUSH2 0x21B7 JUMP JUMPDEST PUSH1 0x40 MLOAD SWAP1 DUP2 MSTORE RETURN JUMPDEST CALLVALUE PUSH2 0x192 JUMPI PUSH1 0x20 CALLDATASIZE PUSH1 0x3 NOT ADD SLT PUSH2 0x192 JUMPI PUSH1 0x0 PUSH2 0x180 PUSH1 0x40 MLOAD PUSH2 0x3D9 DUP2 PUSH2 0x1CDE JUMP JUMPDEST DUP3 DUP2 MSTORE DUP3 PUSH1 0x20 DUP3 ADD MSTORE DUP3 PUSH1 0x40 DUP3 ADD MSTORE DUP3 PUSH1 0x60 DUP3 ADD MSTORE DUP3 PUSH1 0x80 DUP3 ADD MSTORE DUP3 PUSH1 0xA0 DUP3 ADD MSTORE DUP3 PUSH1 0xC0 DUP3 ADD MSTORE DUP3 PUSH1 0xE0 DUP3 ADD MSTORE DUP3 PUSH2 0x100 DUP3 ADD MSTORE DUP3 PUSH2 0x120 DUP3 ADD MSTORE DUP3 PUSH2 0x140 DUP3 ADD MSTORE DUP3 PUSH2 0x160 DUP3 ADD MSTORE ADD MSTORE PUSH1 0x4 CALLDATALOAD PUSH1 0x0 MSTORE PUSH1 0xC PUSH1 0x20 MSTORE PUSH2 0x1A0 PUSH1 0x40 PUSH1 0x0 KECCAK256 PUSH1 0xA PUSH1 0x40 MLOAD SWAP2 PUSH2 0x446 DUP4 PUSH2 0x1CDE JUMP JUMPDEST DUP1 SLOAD DUP4 MSTORE PUSH1 0xFF PUSH1 0x1 DUP3 ADD SLOAD PUSH2 0x460 DUP3 DUP3 AND PUSH1 0x20 DUP8 ADD PUSH2 0x21CA JUMP JUMPDEST PUSH2 0x472 DUP3 DUP3 PUSH1 0x8 SHR AND PUSH1 0x40 DUP8 ADD PUSH2 0x21D6 JUMP JUMPDEST PUSH1 0x10 SHR AND PUSH2 0x47F DUP2 PUSH2 0x1DE0 JUMP JUMPDEST PUSH1 0x60 DUP5 ADD MSTORE PUSH1 0x2 DUP2 ADD SLOAD PUSH1 0x80 DUP5 ADD MSTORE PUSH1 0x3 DUP2 ADD SLOAD PUSH1 0xA0 DUP5 ADD MSTORE PUSH1 0x4 DUP2 ADD SLOAD PUSH1 0xC0 DUP5 ADD MSTORE PUSH1 0x5 DUP2 ADD SLOAD PUSH1 0xE0 DUP5 ADD MSTORE PUSH1 0x6 DUP2 ADD SLOAD PUSH2 0x100 DUP5 ADD MSTORE PUSH1 0x7 DUP2 ADD SLOAD PUSH2 0x120 DUP5 ADD MSTORE PUSH1 0x8 DUP2 ADD SLOAD PUSH2 0x140 DUP5 ADD MSTORE PUSH1 0x9 DUP2 ADD SLOAD PUSH2 0x160 DUP5 ADD MSTORE ADD SLOAD PUSH2 0x180 DUP3 ADD MSTORE PUSH2 0x180 PUSH1 0x40 MLOAD SWAP2 DUP1 MLOAD DUP4 MSTORE PUSH2 0x4FD PUSH1 0x20 DUP3 ADD MLOAD PUSH1 0x20 DUP6 ADD SWAP1 PUSH2 0x1DEA JUMP JUMPDEST PUSH2 0x50F PUSH1 0x40 DUP3 ADD MLOAD PUSH1 0x40 DUP6 ADD SWAP1 PUSH2 0x1DF7 JUMP JUMPDEST PUSH1 0x60 DUP2 ADD MLOAD PUSH2 0x51D DUP2 PUSH2 0x1DE0 JUMP JUMPDEST PUSH1 0x60 DUP5 ADD MSTORE PUSH1 0x80 DUP2 ADD MLOAD PUSH1 0x80 DUP5 ADD MSTORE PUSH1 0xA0 DUP2 ADD MLOAD PUSH1 0xA0 DUP5 ADD MSTORE PUSH1 0xC0 DUP2 ADD MLOAD PUSH1 0xC0 DUP5 ADD MSTORE PUSH1 0xE0 DUP2 ADD MLOAD PUSH1 0xE0 DUP5 ADD MSTORE PUSH2 0x100 DUP2 ADD MLOAD PUSH2 0x100 DUP5 ADD MSTORE PUSH2 0x120 DUP2 ADD MLOAD PUSH2 0x120 DUP5 ADD MSTORE PUSH2 0x140 DUP2 ADD MLOAD PUSH2 0x140 DUP5 ADD MSTORE PUSH2 0x160 DUP2 ADD MLOAD PUSH2 0x160 DUP5 ADD MSTORE ADD MLOAD PUSH2 0x180 DUP3 ADD MSTORE RETURN JUMPDEST CALLVALUE PUSH2 0x192 JUMPI PUSH1 0x20 CALLDATASIZE PUSH1 0x3 NOT ADD SLT PUSH2 0x192 JUMPI PUSH1 0x4 CALLDATALOAD PUSH1 0x0 MSTORE PUSH1 0xC PUSH1 0x20 MSTORE PUSH2 0x1A0 PUSH1 0x40 PUSH1 0x0 KECCAK256 DUP1 SLOAD SWAP1 PUSH1 0x1 DUP2 ADD SLOAD SWAP1 PUSH1 0xFF DUP3 PUSH1 0x10 SHR AND PUSH1 0x2 DUP3 ADD SLOAD PUSH1 0x3 DUP4 ADD SLOAD PUSH1 0x4 DUP5 ADD SLOAD PUSH1 0x5 DUP6 ADD SLOAD SWAP1 PUSH1 0x6 DUP7 ADD SLOAD SWAP3 PUSH1 0x7 DUP8 ADD SLOAD SWAP5 PUSH1 0x8 DUP9 ADD SLOAD SWAP7 PUSH2 0x612 PUSH1 0xA PUSH1 0x9 DUP12 ADD SLOAD SWAP11 ADD SLOAD SWAP11 PUSH1 0xFF PUSH1 0x40 DUP1 MLOAD SWAP15 DUP16 SWAP1 DUP2 MSTORE PUSH2 0x607 PUSH1 0x20 DUP3 ADD DUP5 DUP7 AND PUSH2 0x1DEA JUMP JUMPDEST ADD SWAP2 PUSH1 0x8 SHR AND PUSH2 0x1DF7 JUMP JUMPDEST PUSH2 0x61B DUP2 PUSH2 0x1DE0 JUMP JUMPDEST PUSH1 0x60 DUP12 ADD MSTORE PUSH1 0x80 DUP11 ADD MSTORE PUSH1 0xA0 DUP10 ADD MSTORE PUSH1 0xC0 DUP9 ADD MSTORE PUSH1 0xE0 DUP8 ADD MSTORE PUSH2 0x100 DUP7 ADD MSTORE PUSH2 0x120 DUP6 ADD MSTORE PUSH2 0x140 DUP5 ADD MSTORE PUSH2 0x160 DUP4 ADD MSTORE PUSH2 0x180 DUP3 ADD MSTORE RETURN JUMPDEST CALLVALUE PUSH2 0x192 JUMPI PUSH1 0x20 CALLDATASIZE PUSH1 0x3 NOT ADD SLT PUSH2 0x192 JUMPI PUSH2 0x687 PUSH2 0x673 PUSH1 0x4 CALLDATALOAD PUSH2 0x24A6 JUMP JUMPDEST PUSH1 0x40 MLOAD SWAP2 DUP3 SWAP2 PUSH1 0x20 DUP4 MSTORE PUSH1 0x20 DUP4 ADD SWAP1 PUSH2 0x1C2A JUMP JUMPDEST SUB SWAP1 RETURN JUMPDEST CALLVALUE PUSH2 0x192 JUMPI PUSH1 0x80 CALLDATASIZE PUSH1 0x3 NOT ADD SLT PUSH2 0x192 JUMPI PUSH2 0x6A4 PUSH2 0x1C4F JUMP JUMPDEST PUSH2 0x6AC PUSH2 0x1C65 JUMP JUMPDEST SWAP1 PUSH1 0x44 CALLDATALOAD PUSH1 0x64 CALLDATALOAD SWAP3 PUSH8 0xFFFFFFFFFFFFFFFF DUP5 GT PUSH2 0x192 JUMPI CALLDATASIZE PUSH1 0x23 DUP6 ADD SLT ISZERO PUSH2 0x192 JUMPI PUSH2 0x6E5 PUSH2 0x6F7 SWAP5 CALLDATASIZE SWAP1 PUSH1 0x24 DUP2 PUSH1 0x4 ADD CALLDATALOAD SWAP2 ADD PUSH2 0x1DA9 JUMP JUMPDEST SWAP3 PUSH2 0x6F1 DUP4 DUP4 DUP4 PUSH2 0x1E6A JUMP JUMPDEST CALLER PUSH2 0x2044 JUMP JUMPDEST STOP JUMPDEST CALLVALUE PUSH2 0x192 JUMPI PUSH1 0x40 CALLDATASIZE PUSH1 0x3 NOT ADD SLT PUSH2 0x192 JUMPI PUSH2 0x712 PUSH2 0x1C4F JUMP JUMPDEST PUSH1 0x24 CALLDATALOAD SWAP1 DUP2 ISZERO ISZERO DUP1 SWAP3 SUB PUSH2 0x192 JUMPI PUSH1 0x1 PUSH1 0x1 PUSH1 0xA0 SHL SUB AND SWAP1 DUP2 ISZERO PUSH2 0x785 JUMPI CALLER PUSH1 0x0 MSTORE PUSH1 0x5 PUSH1 0x20 MSTORE PUSH1 0x40 PUSH1 0x0 KECCAK256 DUP3 PUSH1 0x0 MSTORE PUSH1 0x20 MSTORE PUSH1 0x40 PUSH1 0x0 KECCAK256 PUSH1 0xFF NOT DUP2 SLOAD AND PUSH1 0xFF DUP4 AND OR SWAP1 SSTORE PUSH1 0x40 MLOAD SWAP1 DUP2 MSTORE PUSH32 0x17307EAB39AB6107E8899845AD3D59BD9653F200F220920489CA2B5937696C31 PUSH1 0x20 CALLER SWAP3 LOG3 STOP JUMPDEST PUSH1 0x40 MLOAD PUSH4 0xB611743 PUSH1 0xE3 SHL DUP2 MSTORE PUSH1 0x4 DUP2 ADD DUP4 SWAP1 MSTORE PUSH1 0x24 SWAP1 REVERT JUMPDEST CALLVALUE PUSH2 0x192 JUMPI PUSH1 0x20 CALLDATASIZE PUSH1 0x3 NOT ADD SLT PUSH2 0x192 JUMPI PUSH1 0x4 CALLDATALOAD PUSH1 0x4 DUP2 LT ISZERO PUSH2 0x192 JUMPI PUSH2 0x7C4 DUP2 PUSH2 0x1DE0 JUMP JUMPDEST PUSH1 0x0 MSTORE PUSH1 0xB PUSH1 0x20 MSTORE PUSH1 0x20 PUSH1 0x40 PUSH1 0x0 KECCAK256 SLOAD PUSH1 0x40 MLOAD SWAP1 DUP2 MSTORE RETURN JUMPDEST CALLVALUE PUSH2 0x192 JUMPI PUSH1 0x0 CALLDATASIZE PUSH1 0x3 NOT ADD SLT PUSH2 0x192 JUMPI PUSH1 0x40 MLOAD PUSH1 0x0 PUSH1 0x1 DUP1 SLOAD SWAP1 PUSH2 0x800 DUP3 PUSH2 0x1E30 JUMP JUMPDEST DUP1 DUP6 MSTORE SWAP2 DUP2 DUP2 AND SWAP1 DUP2 ISZERO PUSH2 0x880 JUMPI POP PUSH1 0x1 EQ PUSH2 0x827 JUMPI JUMPDEST PUSH2 0x687 DUP5 PUSH2 0x673 DUP2 DUP7 SUB DUP3 PUSH2 0x1D6B JUMP JUMPDEST PUSH1 0x0 DUP2 DUP2 MSTORE SWAP3 POP PUSH32 0xB10E2D527612073B26EECDFD717E6A320CF44B4AFAC2B0732D9FCBE2B7FA0CF6 JUMPDEST DUP3 DUP5 LT PUSH2 0x868 JUMPI POP POP POP DUP2 ADD PUSH1 0x20 ADD PUSH2 0x673 DUP3 PUSH2 0x817 JUMP JUMPDEST DUP1 SLOAD PUSH1 0x20 DUP6 DUP8 ADD DUP2 ADD SWAP2 SWAP1 SWAP2 MSTORE SWAP1 SWAP4 ADD SWAP3 DUP2 ADD PUSH2 0x850 JUMP JUMPDEST PUSH1 0xFF NOT AND PUSH1 0x20 DUP1 DUP8 ADD SWAP2 SWAP1 SWAP2 MSTORE SWAP3 ISZERO ISZERO PUSH1 0x5 SHL DUP6 ADD SWAP1 SWAP3 ADD SWAP3 POP PUSH2 0x673 SWAP2 POP DUP4 SWAP1 POP PUSH2 0x817 JUMP JUMPDEST CALLVALUE PUSH2 0x192 JUMPI PUSH1 0x0 CALLDATASIZE PUSH1 0x3 NOT ADD SLT PUSH2 0x192 JUMPI PUSH1 0x6 SLOAD PUSH1 0x40 MLOAD PUSH1 0x1 PUSH1 0x1 PUSH1 0xA0 SHL SUB SWAP1 SWAP2 AND DUP2 MSTORE PUSH1 0x20 SWAP1 RETURN JUMPDEST CALLVALUE PUSH2 0x192 JUMPI PUSH1 0x0 CALLDATASIZE PUSH1 0x3 NOT ADD SLT PUSH2 0x192 JUMPI PUSH2 0x8E9 PUSH2 0x1E04 JUMP JUMPDEST PUSH1 0x6 DUP1 SLOAD PUSH1 0x1 PUSH1 0x1 PUSH1 0xA0 SHL SUB NOT DUP2 AND SWAP1 SWAP2 SSTORE PUSH1 0x0 SWAP1 PUSH1 0x1 PUSH1 0x1 PUSH1 0xA0 SHL SUB AND PUSH32 0x8BE0079C531659141344CD1FD0A4F28419497F9722A3DAAFE3B4186F6B6457E0 DUP3 DUP1 LOG3 STOP JUMPDEST CALLVALUE PUSH2 0x192 JUMPI PUSH1 0x20 CALLDATASIZE PUSH1 0x3 NOT ADD SLT PUSH2 0x192 JUMPI PUSH1 0x1 PUSH1 0x1 PUSH1 0xA0 SHL SUB PUSH2 0x94E PUSH2 0x1C4F JUMP JUMPDEST AND DUP1 ISZERO PUSH2 0x96D JUMPI PUSH1 0x0 MSTORE PUSH1 0x3 PUSH1 0x20 MSTORE PUSH1 0x20 PUSH1 0x40 PUSH1 0x0 KECCAK256 SLOAD PUSH1 0x40 MLOAD SWAP1 DUP2 MSTORE RETURN JUMPDEST PUSH1 0x40 MLOAD PUSH4 0x22718AD9 PUSH1 0xE2 SHL DUP2 MSTORE PUSH1 0x0 PUSH1 0x4 DUP3 ADD MSTORE PUSH1 0x24 SWAP1 REVERT JUMPDEST CALLVALUE PUSH2 0x192 JUMPI PUSH1 0x40 CALLDATASIZE PUSH1 0x3 NOT ADD SLT PUSH2 0x192 JUMPI PUSH2 0x9A2 PUSH1 0x4 CALLDATALOAD PUSH2 0x2009 JUMP JUMPDEST PUSH1 0x1 PUSH1 0x1 PUSH1 0xA0 SHL SUB SWAP1 CALLER SWAP1 DUP3 AND SUB PUSH2 0xF77 JUMPI CALLER SWAP1 PUSH2 0x9C1 PUSH1 0x24 CALLDATALOAD PUSH2 0x2009 JUMP JUMPDEST AND SUB PUSH2 0xF3B JUMPI PUSH1 0x4 CALLDATALOAD PUSH1 0x0 MSTORE PUSH1 0xC PUSH1 0x20 MSTORE PUSH1 0x4 PUSH1 0x5 PUSH1 0x40 PUSH1 0x0 KECCAK256 ADD SLOAD LT PUSH2 0xEFE JUMPI PUSH1 0x24 CALLDATALOAD PUSH1 0x0 MSTORE PUSH1 0xC PUSH1 0x20 MSTORE PUSH1 0x4 PUSH1 0x5 PUSH1 0x40 PUSH1 0x0 KECCAK256 ADD SLOAD LT PUSH2 0xEC1 JUMPI PUSH1 0x4 CALLDATALOAD PUSH1 0x0 MSTORE PUSH1 0xC PUSH1 0x20 MSTORE PUSH1 0x40 PUSH1 0x0 KECCAK256 PUSH1 0xA PUSH1 0x40 MLOAD SWAP2 PUSH2 0xA1C DUP4 PUSH2 0x1CDE JUMP JUMPDEST DUP1 SLOAD DUP4 MSTORE PUSH1 0xFF PUSH1 0x1 DUP3 ADD SLOAD PUSH2 0xA36 DUP3 DUP3 AND PUSH1 0x20 DUP8 ADD PUSH2 0x21CA JUMP JUMPDEST PUSH2 0xA48 DUP3 DUP3 PUSH1 0x8 SHR AND PUSH1 0x40 DUP8 ADD PUSH2 0x21D6 JUMP JUMPDEST PUSH1 0x10 SHR AND PUSH2 0xA55 DUP2 PUSH2 0x1DE0 JUMP JUMPDEST PUSH1 0x60 DUP5 ADD MSTORE PUSH1 0x2 DUP2 ADD SLOAD PUSH1 0x80 DUP5 ADD MSTORE PUSH1 0x3 DUP2 ADD SLOAD PUSH1 0xA0 DUP5 ADD MSTORE PUSH1 0x4 DUP2 ADD SLOAD PUSH1 0xC0 DUP5 ADD MSTORE PUSH1 0x5 DUP2 ADD SLOAD PUSH1 0xE0 DUP5 ADD MSTORE PUSH1 0x6 DUP2 ADD SLOAD PUSH2 0x100 DUP5 ADD MSTORE PUSH1 0x7 DUP2 ADD SLOAD PUSH2 0x120 DUP5 ADD MSTORE PUSH1 0x8 DUP2 ADD SLOAD PUSH2 0x140 DUP5 ADD MSTORE PUSH1 0x9 DUP2 ADD SLOAD PUSH2 0x160 DUP5 ADD MSTORE ADD SLOAD PUSH2 0x180 DUP3 ADD MSTORE PUSH1 0x24 CALLDATALOAD PUSH1 0x0 MSTORE PUSH1 0xC PUSH1 0x20 MSTORE PUSH1 0x40 PUSH1 0x0 KECCAK256 SWAP1 PUSH1 0xA PUSH1 0x40 MLOAD SWAP3 PUSH2 0xAD6 DUP5 PUSH2 0x1CDE JUMP JUMPDEST DUP1 SLOAD DUP5 MSTORE PUSH1 0xFF PUSH1 0x1 DUP3 ADD SLOAD PUSH2 0xAF0 DUP3 DUP3 AND PUSH1 0x20 DUP9 ADD PUSH2 0x21CA JUMP JUMPDEST PUSH2 0xB02 DUP3 DUP3 PUSH1 0x8 SHR AND PUSH1 0x40 DUP9 ADD PUSH2 0x21D6 JUMP JUMPDEST PUSH1 0x10 SHR AND PUSH2 0xB0F DUP2 PUSH2 0x1DE0 JUMP JUMPDEST PUSH1 0x60 DUP6 ADD MSTORE PUSH1 0x2 DUP2 ADD SLOAD PUSH1 0x80 DUP6 ADD MSTORE PUSH1 0x3 DUP2 ADD SLOAD PUSH1 0xA0 DUP6 ADD MSTORE PUSH1 0x4 DUP2 ADD SLOAD PUSH1 0xC0 DUP6 ADD MSTORE PUSH1 0x5 DUP2 ADD SLOAD PUSH1 0xE0 DUP6 ADD MSTORE PUSH1 0x6 DUP2 ADD SLOAD PUSH2 0x100 DUP6 ADD MSTORE PUSH1 0x7 DUP2 ADD SLOAD PUSH2 0x120 DUP6 ADD MSTORE PUSH1 0x8 DUP2 ADD SLOAD PUSH2 0x140 DUP6 ADD MSTORE PUSH1 0x9 DUP2 ADD SLOAD PUSH2 0x160 DUP6 ADD MSTORE ADD SLOAD PUSH2 0x180 DUP4 ADD MSTORE PUSH1 0x60 DUP2 ADD MLOAD PUSH2 0xB7E DUP2 PUSH2 0x1DE0 JUMP JUMPDEST PUSH1 0x60 DUP4 ADD MLOAD SWAP1 PUSH2 0xB8D DUP3 PUSH2 0x1DE0 JUMP JUMPDEST PUSH2 0xB96 DUP3 PUSH2 0x1DE0 JUMP JUMPDEST PUSH2 0xB9F DUP2 PUSH2 0x1DE0 JUMP JUMPDEST GT ISZERO PUSH2 0xEAE JUMPI PUSH1 0x60 DUP2 ADD MLOAD PUSH2 0xBB3 DUP2 PUSH2 0x1DE0 JUMP JUMPDEST PUSH1 0x1 PUSH1 0x40 MLOAD PUSH1 0x20 DUP2 ADD SWAP1 TIMESTAMP DUP3 MSTORE PUSH1 0x4 CALLDATALOAD PUSH1 0x40 DUP3 ADD MSTORE PUSH1 0x40 DUP2 MSTORE PUSH2 0xBD5 DUP2 PUSH2 0x1D4F JUMP JUMPDEST MLOAD SWAP1 KECCAK256 AND PUSH2 0xE9A JUMPI PUSH1 0x20 DUP3 ADD MLOAD PUSH1 0x6 DUP2 LT ISZERO PUSH2 0xE6B JUMPI SWAP1 JUMPDEST PUSH1 0x1 PUSH1 0x40 MLOAD PUSH1 0x20 DUP2 ADD SWAP1 TIMESTAMP DUP3 MSTORE PUSH1 0x24 CALLDATALOAD PUSH1 0x40 DUP3 ADD MSTORE PUSH1 0x40 DUP2 MSTORE PUSH2 0xC0F DUP2 PUSH2 0x1D4F JUMP JUMPDEST MLOAD SWAP1 KECCAK256 AND PUSH2 0xE81 JUMPI PUSH1 0x40 DUP4 ADD MLOAD SWAP3 PUSH1 0x3 DUP5 LT ISZERO PUSH2 0xE6B JUMPI PUSH2 0xCA3 SWAP4 SWAP5 JUMPDEST PUSH2 0x2710 PUSH2 0xCB9 PUSH2 0xCAB DUP3 PUSH2 0xCB2 PUSH2 0xC78 PUSH2 0xC4F PUSH1 0x80 DUP10 ADD MLOAD PUSH1 0x80 DUP10 ADD MLOAD SWAP1 PUSH2 0x244A JUMP JUMPDEST PUSH1 0x1 SHR SWAP7 PUSH1 0xC0 DUP1 PUSH2 0xC69 PUSH1 0xA0 DUP13 ADD MLOAD PUSH1 0xA0 DUP6 ADD MLOAD SWAP1 PUSH2 0x244A JUMP JUMPDEST PUSH1 0x1 SHR SWAP11 ADD MLOAD SWAP2 ADD MLOAD SWAP1 PUSH2 0x244A JUMP JUMPDEST PUSH1 0x1 SHR SWAP6 PUSH2 0xC85 DUP10 PUSH2 0x1DE0 JUMP JUMPDEST DUP9 PUSH1 0x0 MSTORE PUSH1 0xB PUSH1 0x20 MSTORE DUP3 PUSH1 0x40 PUSH1 0x0 KECCAK256 SLOAD SWAP5 DUP6 DUP1 SWAP4 PUSH1 0x7 SLOAD SWAP15 DUP16 PUSH2 0x2192 JUMP JUMPDEST PUSH1 0x7 SSTORE PUSH2 0x21B7 JUMP JUMPDEST DIV SWAP8 PUSH2 0x21B7 JUMP JUMPDEST DIV SWAP4 PUSH2 0x21B7 JUMP JUMPDEST DIV SWAP2 PUSH2 0xCE4 PUSH1 0x40 MLOAD SWAP8 PUSH2 0xCCB DUP10 PUSH2 0x1CDE JUMP JUMPDEST DUP8 DUP10 MSTORE PUSH2 0xCDB DUP8 PUSH1 0x20 DUP12 ADD PUSH2 0x21CA JUMP JUMPDEST PUSH1 0x40 DUP10 ADD PUSH2 0x21D6 JUMP JUMPDEST PUSH2 0xCED DUP5 PUSH2 0x1DE0 JUMP JUMPDEST DUP4 PUSH1 0x60 DUP9 ADD MSTORE PUSH1 0x80 DUP8 ADD MSTORE PUSH1 0xA0 DUP7 ADD MSTORE PUSH1 0xC0 DUP6 ADD MSTORE PUSH1 0x1 PUSH1 0xE0 DUP6 ADD MSTORE PUSH1 0x0 PUSH2 0x100 DUP6 ADD MSTORE PUSH1 0x0 PUSH2 0x120 DUP6 ADD MSTORE PUSH1 0x0 PUSH2 0x140 DUP6 ADD MSTORE TIMESTAMP PUSH2 0x160 DUP6 ADD MSTORE PUSH1 0x0 PUSH2 0x180 DUP6 ADD MSTORE DUP3 PUSH1 0x0 MSTORE PUSH1 0xC PUSH1 0x20 MSTORE PUSH1 0x40 PUSH1 0x0 KECCAK256 DUP5 MLOAD DUP2 SSTORE PUSH1 0x20 DUP6 ADD MLOAD SWAP5 PUSH1 0x6 DUP7 LT ISZERO PUSH2 0xE6B JUMPI PUSH1 0x1 DUP3 ADD SLOAD PUSH1 0x40 DUP3 ADD MLOAD SWAP2 PUSH1 0x3 DUP4 LT ISZERO PUSH2 0xE6B JUMPI PUSH1 0x20 SWAP8 PUSH1 0xA SWAP4 PUSH2 0xFF00 PUSH2 0x180 SWAP5 PUSH1 0xFF PUSH3 0xFF0000 PUSH1 0x60 DUP8 ADD MLOAD PUSH2 0xD86 DUP2 PUSH2 0x1DE0 JUMP JUMPDEST PUSH2 0xD8F DUP2 PUSH2 0x1DE0 JUMP JUMPDEST PUSH1 0x10 SHL AND SWAP5 AND SWAP1 PUSH3 0xFFFFFF NOT AND OR SWAP2 PUSH1 0x8 SHL AND OR OR PUSH1 0x1 DUP6 ADD SSTORE PUSH1 0x80 DUP2 ADD MLOAD PUSH1 0x2 DUP6 ADD SSTORE PUSH1 0xA0 DUP2 ADD MLOAD PUSH1 0x3 DUP6 ADD SSTORE PUSH1 0xC0 DUP2 ADD MLOAD PUSH1 0x4 DUP6 ADD SSTORE PUSH1 0xE0 DUP2 ADD MLOAD PUSH1 0x5 DUP6 ADD SSTORE PUSH2 0x100 DUP2 ADD MLOAD PUSH1 0x6 DUP6 ADD SSTORE PUSH2 0x120 DUP2 ADD MLOAD PUSH1 0x7 DUP6 ADD SSTORE PUSH2 0x140 DUP2 ADD MLOAD PUSH1 0x8 DUP6 ADD SSTORE PUSH2 0x160 DUP2 ADD MLOAD PUSH1 0x9 DUP6 ADD SSTORE ADD MLOAD SWAP2 ADD SSTORE CALLER PUSH1 0x0 MSTORE PUSH1 0xD DUP5 MSTORE PUSH2 0xE18 DUP4 PUSH1 0x40 PUSH1 0x0 KECCAK256 PUSH2 0x21E2 JUMP JUMPDEST PUSH2 0xE22 DUP4 CALLER PUSH2 0x221C JUMP JUMPDEST PUSH2 0xE2F PUSH1 0x40 MLOAD DUP1 SWAP4 PUSH2 0x1DEA JUMP JUMPDEST PUSH2 0xE38 DUP2 PUSH2 0x1DE0 JUMP JUMPDEST DUP4 DUP3 ADD MSTORE DUP2 PUSH32 0xDE84AF6D30866324EE8781DD4AC14E6124C517B058043A88C80227B93D22800A PUSH1 0x40 CALLER SWAP4 LOG3 PUSH1 0x40 MLOAD SWAP1 DUP2 MSTORE RETURN JUMPDEST PUSH4 0x4E487B71 PUSH1 0xE0 SHL PUSH1 0x0 MSTORE PUSH1 0x21 PUSH1 0x4 MSTORE PUSH1 0x24 PUSH1 0x0 REVERT JUMPDEST PUSH1 0x40 DUP5 ADD MLOAD SWAP3 PUSH1 0x3 DUP5 LT ISZERO PUSH2 0xE6B JUMPI PUSH2 0xCA3 SWAP4 SWAP5 PUSH2 0xC2C JUMP JUMPDEST PUSH1 0x20 DUP4 ADD MLOAD PUSH1 0x6 DUP2 LT ISZERO PUSH2 0xE6B JUMPI SWAP1 PUSH2 0xBED JUMP JUMPDEST PUSH1 0x60 DUP3 ADD MLOAD PUSH2 0xEBC DUP2 PUSH2 0x1DE0 JUMP JUMPDEST PUSH2 0xBB3 JUMP JUMPDEST PUSH1 0x40 MLOAD PUSH3 0x461BCD PUSH1 0xE5 SHL DUP2 MSTORE PUSH1 0x20 PUSH1 0x4 DUP3 ADD MSTORE PUSH1 0x15 PUSH1 0x24 DUP3 ADD MSTORE PUSH21 0x506172656E7432206C6576656C20746F6F206C6F77 PUSH1 0x58 SHL PUSH1 0x44 DUP3 ADD MSTORE PUSH1 0x64 SWAP1 REVERT JUMPDEST PUSH1 0x40 MLOAD PUSH3 0x461BCD PUSH1 0xE5 SHL DUP2 MSTORE PUSH1 0x20 PUSH1 0x4 DUP3 ADD MSTORE PUSH1 0x15 PUSH1 0x24 DUP3 ADD MSTORE PUSH21 0x506172656E7431206C6576656C20746F6F206C6F77 PUSH1 0x58 SHL PUSH1 0x44 DUP3 ADD MSTORE PUSH1 0x64 SWAP1 REVERT JUMPDEST PUSH1 0x40 MLOAD PUSH3 0x461BCD PUSH1 0xE5 SHL DUP2 MSTORE PUSH1 0x20 PUSH1 0x4 DUP3 ADD MSTORE PUSH1 0x14 PUSH1 0x24 DUP3 ADD MSTORE PUSH20 0x2737BA1037BBB732B91037B3103830B932B73A19 PUSH1 0x61 SHL PUSH1 0x44 DUP3 ADD MSTORE PUSH1 0x64 SWAP1 REVERT JUMPDEST PUSH1 0x40 MLOAD PUSH3 0x461BCD PUSH1 0xE5 SHL DUP2 MSTORE PUSH1 0x20 PUSH1 0x4 DUP3 ADD MSTORE PUSH1 0x14 PUSH1 0x24 DUP3 ADD MSTORE PUSH20 0x4E6F74206F776E6572206F6620706172656E7431 PUSH1 0x60 SHL PUSH1 0x44 DUP3 ADD MSTORE PUSH1 0x64 SWAP1 REVERT JUMPDEST CALLVALUE PUSH2 0x192 JUMPI PUSH1 0x20 CALLDATASIZE PUSH1 0x3 NOT ADD SLT PUSH2 0x192 JUMPI PUSH1 0x20 PUSH2 0xFD1 PUSH1 0x4 CALLDATALOAD PUSH2 0x2009 JUMP JUMPDEST PUSH1 0x40 MLOAD PUSH1 0x1 PUSH1 0x1 PUSH1 0xA0 SHL SUB SWAP1 SWAP2 AND DUP2 MSTORE RETURN JUMPDEST CALLVALUE PUSH2 0x192 JUMPI PUSH1 0x20 DUP1 PUSH1 0x3 NOT CALLDATASIZE ADD SLT PUSH2 0x192 JUMPI PUSH8 0xFFFFFFFFFFFFFFFF PUSH1 0x4 CALLDATALOAD DUP2 DUP2 GT PUSH2 0x192 JUMPI CALLDATASIZE PUSH1 0x23 DUP3 ADD SLT ISZERO PUSH2 0x192 JUMPI PUSH2 0x1027 SWAP1 CALLDATASIZE SWAP1 PUSH1 0x24 DUP2 PUSH1 0x4 ADD CALLDATALOAD SWAP2 ADD PUSH2 0x1DA9 JUMP JUMPDEST SWAP2 PUSH2 0x1030 PUSH2 0x1E04 JUMP JUMPDEST DUP3 MLOAD SWAP2 DUP3 GT PUSH2 0x116E JUMPI PUSH2 0x1044 PUSH1 0x8 SLOAD PUSH2 0x1E30 JUMP JUMPDEST PUSH1 0x1F DUP2 GT PUSH2 0x110A JUMPI JUMPDEST POP DUP1 PUSH1 0x1F DUP4 GT PUSH1 0x1 EQ PUSH2 0x1089 JUMPI POP DUP2 SWAP3 PUSH1 0x0 SWAP3 PUSH2 0x107E JUMPI JUMPDEST POP POP PUSH1 0x0 NOT PUSH1 0x3 DUP4 SWAP1 SHL SHR NOT AND PUSH1 0x1 SWAP2 SWAP1 SWAP2 SHL OR PUSH1 0x8 SSTORE STOP JUMPDEST ADD MLOAD SWAP1 POP DUP3 DUP1 PUSH2 0x1065 JUMP JUMPDEST SWAP1 PUSH1 0x1F NOT DUP4 AND SWAP4 PUSH1 0x8 PUSH1 0x0 MSTORE PUSH32 0xF3F7A9FE364FAAB93B216DA50A3214154F22A0A2B415B23A84C8169E8B636EE3 SWAP3 PUSH1 0x0 SWAP1 JUMPDEST DUP7 DUP3 LT PUSH2 0x10F2 JUMPI POP POP DUP4 PUSH1 0x1 SWAP6 LT PUSH2 0x10D9 JUMPI JUMPDEST POP POP POP DUP2 SHL ADD PUSH1 0x8 SSTORE STOP JUMPDEST ADD MLOAD PUSH1 0x0 NOT PUSH1 0xF8 DUP5 PUSH1 0x3 SHL AND SHR NOT AND SWAP1 SSTORE DUP3 DUP1 DUP1 PUSH2 0x10CE JUMP JUMPDEST DUP1 PUSH1 0x1 DUP6 SWAP7 DUP3 SWAP5 SWAP7 DUP7 ADD MLOAD DUP2 SSTORE ADD SWAP6 ADD SWAP4 ADD SWAP1 PUSH2 0x10BB JUMP JUMPDEST PUSH1 0x8 PUSH1 0x0 MSTORE PUSH32 0xF3F7A9FE364FAAB93B216DA50A3214154F22A0A2B415B23A84C8169E8B636EE3 PUSH1 0x1F DUP5 ADD PUSH1 0x5 SHR DUP2 ADD SWAP2 DUP4 DUP6 LT PUSH2 0x1164 JUMPI JUMPDEST PUSH1 0x1F ADD PUSH1 0x5 SHR ADD SWAP1 JUMPDEST DUP2 DUP2 LT PUSH2 0x1158 JUMPI POP PUSH2 0x104D JUMP JUMPDEST PUSH1 0x0 DUP2 SSTORE PUSH1 0x1 ADD PUSH2 0x114B JUMP JUMPDEST SWAP1 SWAP2 POP DUP2 SWAP1 PUSH2 0x1142 JUMP JUMPDEST PUSH4 0x4E487B71 PUSH1 0xE0 SHL PUSH1 0x0 MSTORE PUSH1 0x41 PUSH1 0x4 MSTORE PUSH1 0x24 PUSH1 0x0 REVERT JUMPDEST CALLVALUE PUSH2 0x192 JUMPI PUSH1 0x20 DUP1 PUSH1 0x3 NOT CALLDATASIZE ADD SLT PUSH2 0x192 JUMPI PUSH1 0x1 PUSH1 0x1 PUSH1 0xA0 SHL SUB PUSH2 0x11A6 PUSH2 0x1C4F JUMP JUMPDEST AND PUSH1 0x0 MSTORE PUSH1 0xD DUP2 MSTORE PUSH1 0x40 PUSH1 0x0 KECCAK256 PUSH1 0x40 MLOAD SWAP1 DUP2 DUP4 DUP3 SLOAD SWAP2 DUP3 DUP2 MSTORE ADD SWAP1 DUP2 SWAP3 PUSH1 0x0 MSTORE DUP5 PUSH1 0x0 KECCAK256 SWAP1 PUSH1 0x0 JUMPDEST DUP7 DUP3 DUP3 LT PUSH2 0x1224 JUMPI DUP7 DUP7 PUSH2 0x11E4 DUP3 DUP9 SUB DUP4 PUSH2 0x1D6B JUMP JUMPDEST PUSH1 0x40 MLOAD SWAP3 DUP4 SWAP3 DUP2 DUP5 ADD SWAP1 DUP3 DUP6 MSTORE MLOAD DUP1 SWAP2 MSTORE PUSH1 0x40 DUP5 ADD SWAP3 SWAP2 PUSH1 0x0 JUMPDEST DUP3 DUP2 LT PUSH2 0x120D JUMPI POP POP POP POP SUB SWAP1 RETURN JUMPDEST DUP4 MLOAD DUP6 MSTORE DUP7 SWAP6 POP SWAP4 DUP2 ADD SWAP4 SWAP3 DUP2 ADD SWAP3 PUSH1 0x1 ADD PUSH2 0x11FE JUMP JUMPDEST DUP4 SLOAD DUP6 MSTORE SWAP1 SWAP4 ADD SWAP3 PUSH1 0x1 SWAP3 DUP4 ADD SWAP3 ADD PUSH2 0x11CE JUMP JUMPDEST CALLVALUE PUSH2 0x192 JUMPI PUSH1 0x20 CALLDATASIZE PUSH1 0x3 NOT ADD SLT PUSH2 0x192 JUMPI PUSH2 0x1251 PUSH2 0x1C4F JUMP JUMPDEST PUSH2 0x1259 PUSH2 0x1E04 JUMP JUMPDEST PUSH1 0x9 DUP1 SLOAD PUSH1 0x1 PUSH1 0x1 PUSH1 0xA0 SHL SUB NOT AND PUSH1 0x1 PUSH1 0x1 PUSH1 0xA0 SHL SUB SWAP3 SWAP1 SWAP3 AND SWAP2 SWAP1 SWAP2 OR SWAP1 SSTORE STOP JUMPDEST CALLVALUE PUSH2 0x192 JUMPI PUSH2 0x6F7 PUSH2 0x128C CALLDATASIZE PUSH2 0x1CA9 JUMP JUMPDEST SWAP1 PUSH1 0x40 MLOAD SWAP3 PUSH2 0x129A DUP5 PUSH2 0x1D33 JUMP JUMPDEST PUSH1 0x0 DUP5 MSTORE PUSH2 0x6F1 DUP4 DUP4 DUP4 PUSH2 0x1E6A JUMP JUMPDEST CALLVALUE PUSH2 0x192 JUMPI PUSH2 0x6F7 PUSH2 0x12BA CALLDATASIZE PUSH2 0x1CA9 JUMP JUMPDEST SWAP2 PUSH2 0x1E6A JUMP JUMPDEST CALLVALUE PUSH2 0x192 JUMPI PUSH1 0x20 CALLDATASIZE PUSH1 0x3 NOT ADD SLT PUSH2 0x192 JUMPI PUSH1 0x9 SLOAD PUSH1 0x40 MLOAD PUSH4 0x31A9108F PUSH1 0xE1 SHL DUP2 MSTORE PUSH1 0x4 DUP1 CALLDATALOAD SWAP1 DUP3 ADD MSTORE PUSH1 0x1 PUSH1 0x1 PUSH1 0xA0 SHL SUB SWAP2 DUP3 AND SWAP2 PUSH1 0x20 DUP3 PUSH1 0x24 DUP2 DUP7 GAS STATICCALL SWAP2 DUP3 ISZERO PUSH2 0x16E2 JUMPI PUSH1 0x0 SWAP3 PUSH2 0x1723 JUMPI JUMPDEST POP CALLER SWAP2 AND SUB PUSH2 0x16EE JUMPI PUSH1 0x80 PUSH1 0x24 SWAP2 PUSH1 0x40 MLOAD SWAP3 DUP4 DUP1 SWAP3 PUSH4 0x5DB2A77D PUSH1 0xE1 SHL DUP3 MSTORE PUSH1 0x4 CALLDATALOAD PUSH1 0x4 DUP4 ADD MSTORE GAS STATICCALL DUP1 ISZERO PUSH2 0x16E2 JUMPI PUSH1 0x0 SWAP2 PUSH1 0x0 SWAP2 PUSH2 0x1696 JUMPI JUMPDEST POP PUSH2 0x165B JUMPI PUSH1 0x40 MLOAD SWAP1 PUSH1 0x6 PUSH1 0x20 DUP4 ADD TIMESTAMP DUP2 MSTORE PUSH1 0x4 CALLDATALOAD PUSH1 0x40 DUP6 ADD MSTORE CALLER PUSH1 0x60 SHL SWAP4 DUP5 PUSH1 0x60 DUP3 ADD MSTORE PUSH7 0x195B195B595B9D PUSH1 0xCA SHL PUSH1 0x74 DUP3 ADD MSTORE PUSH1 0x5B DUP2 MSTORE PUSH2 0x1389 DUP2 PUSH2 0x1CFB JUMP JUMPDEST MLOAD SWAP1 KECCAK256 MOD SWAP2 PUSH1 0x6 DUP4 LT ISZERO PUSH2 0xE6B JUMPI PUSH1 0x3 SWAP1 PUSH1 0x40 MLOAD PUSH1 0x20 DUP2 ADD SWAP2 TIMESTAMP DUP4 MSTORE PUSH1 0x4 CALLDATALOAD PUSH1 0x40 DUP4 ADD MSTORE PUSH1 0x60 DUP3 ADD MSTORE PUSH5 0x3837BBB2B9 PUSH1 0xD9 SHL PUSH1 0x74 DUP3 ADD MSTORE PUSH1 0x59 DUP2 MSTORE PUSH2 0x13CD DUP2 PUSH2 0x1CFB JUMP JUMPDEST MLOAD SWAP1 KECCAK256 MOD SWAP2 PUSH1 0x3 DUP4 LT ISZERO PUSH2 0xE6B JUMPI PUSH2 0x13E4 DUP3 PUSH2 0x1DE0 JUMP JUMPDEST PUSH2 0x13F0 PUSH1 0xFF DUP4 AND PUSH2 0x1DE0 JUMP JUMPDEST PUSH2 0x141A PUSH1 0x40 MLOAD PUSH2 0x13FF DUP2 PUSH2 0x1D17 JUMP JUMPDEST PUSH1 0x6 DUP2 MSTORE PUSH6 0x61747461636B PUSH1 0xD0 SHL PUSH1 0x20 DUP3 ADD MSTORE PUSH1 0x4 CALLDATALOAD PUSH2 0x2457 JUMP JUMPDEST SWAP2 PUSH2 0x1446 PUSH1 0x40 MLOAD PUSH2 0x142A DUP2 PUSH2 0x1D17 JUMP JUMPDEST PUSH1 0x7 DUP2 MSTORE PUSH7 0x646566656E7365 PUSH1 0xC8 SHL PUSH1 0x20 DUP3 ADD MSTORE PUSH1 0x4 CALLDATALOAD PUSH2 0x2457 JUMP JUMPDEST PUSH2 0x146F PUSH1 0x40 MLOAD PUSH2 0x1455 DUP2 PUSH2 0x1D17 JUMP JUMPDEST PUSH1 0x5 DUP2 MSTORE PUSH5 0x1CDC195959 PUSH1 0xDA SHL PUSH1 0x20 DUP3 ADD MSTORE PUSH1 0x4 CALLDATALOAD PUSH2 0x2457 JUMP JUMPDEST PUSH2 0x147B PUSH1 0xFF DUP5 AND PUSH2 0x1DE0 JUMP JUMPDEST PUSH1 0xFF DUP4 AND PUSH1 0x0 MSTORE PUSH1 0xB PUSH1 0x20 MSTORE PUSH2 0xCAB PUSH2 0x14B5 PUSH1 0x40 PUSH1 0x0 KECCAK256 SLOAD DUP1 PUSH2 0xCB2 DUP2 PUSH1 0x7 SLOAD SWAP11 PUSH2 0x14A5 DUP13 PUSH2 0x2192 JUMP JUMPDEST PUSH1 0x7 SSTORE PUSH2 0x2710 SWAP7 DUP8 SWAP5 DUP6 SWAP3 PUSH2 0x21B7 JUMP JUMPDEST DIV SWAP2 PUSH2 0x14C7 PUSH1 0x40 MLOAD SWAP8 PUSH2 0xCCB DUP10 PUSH2 0x1CDE JUMP JUMPDEST PUSH2 0x14D3 PUSH1 0xFF DUP6 AND PUSH2 0x1DE0 JUMP JUMPDEST PUSH1 0xFF DUP5 AND PUSH1 0x60 DUP9 ADD MSTORE PUSH1 0x80 DUP8 ADD MSTORE PUSH1 0xA0 DUP7 ADD MSTORE PUSH1 0xC0 DUP6 ADD MSTORE PUSH1 0x1 PUSH1 0xE0 DUP6 ADD MSTORE PUSH1 0x0 PUSH2 0x100 DUP6 ADD MSTORE PUSH1 0x0 PUSH2 0x120 DUP6 ADD MSTORE PUSH1 0x0 PUSH2 0x140 DUP6 ADD MSTORE TIMESTAMP PUSH2 0x160 DUP6 ADD MSTORE PUSH1 0x4 CALLDATALOAD PUSH2 0x180 DUP6 ADD MSTORE DUP3 PUSH1 0x0 MSTORE PUSH1 0xC PUSH1 0x20 MSTORE PUSH1 0x40 PUSH1 0x0 KECCAK256 SWAP1 DUP5 MLOAD DUP3 SSTORE PUSH1 0x20 DUP6 ADD MLOAD SWAP2 PUSH1 0x6 DUP4 LT ISZERO PUSH2 0xE6B JUMPI PUSH1 0x1 DUP2 ADD SLOAD PUSH1 0x40 DUP8 ADD MLOAD SWAP1 PUSH1 0x3 DUP3 LT ISZERO PUSH2 0xE6B JUMPI DUP8 PUSH1 0xFF SWAP6 PUSH1 0xA SWAP4 PUSH2 0xFF00 PUSH2 0x180 SWAP5 DUP10 PUSH3 0xFF0000 PUSH1 0x60 PUSH1 0x20 SWAP16 ADD MLOAD PUSH2 0x1573 DUP2 PUSH2 0x1DE0 JUMP JUMPDEST PUSH2 0x157C DUP2 PUSH2 0x1DE0 JUMP JUMPDEST PUSH1 0x10 SHL AND SWAP5 AND SWAP1 PUSH3 0xFFFFFF NOT AND OR SWAP2 PUSH1 0x8 SHL AND OR OR PUSH1 0x1 DUP6 ADD SSTORE PUSH1 0x80 DUP2 ADD MLOAD PUSH1 0x2 DUP6 ADD SSTORE PUSH1 0xA0 DUP2 ADD MLOAD PUSH1 0x3 DUP6 ADD SSTORE PUSH1 0xC0 DUP2 ADD MLOAD PUSH1 0x4 DUP6 ADD SSTORE PUSH1 0xE0 DUP2 ADD MLOAD PUSH1 0x5 DUP6 ADD SSTORE PUSH2 0x100 DUP2 ADD MLOAD PUSH1 0x6 DUP6 ADD SSTORE PUSH2 0x120 DUP2 ADD MLOAD PUSH1 0x7 DUP6 ADD SSTORE PUSH2 0x140 DUP2 ADD MLOAD PUSH1 0x8 DUP6 ADD SSTORE PUSH2 0x160 DUP2 ADD MLOAD PUSH1 0x9 DUP6 ADD SSTORE ADD MLOAD SWAP2 ADD SSTORE CALLER PUSH1 0x0 MSTORE PUSH1 0xD DUP6 MSTORE PUSH2 0x1605 DUP5 PUSH1 0x40 PUSH1 0x0 KECCAK256 PUSH2 0x21E2 JUMP JUMPDEST PUSH2 0x160F DUP5 CALLER PUSH2 0x221C JUMP JUMPDEST PUSH2 0x161C PUSH1 0x40 MLOAD DUP1 SWAP5 PUSH2 0x1DEA JUMP JUMPDEST PUSH2 0x1627 DUP3 DUP3 AND PUSH2 0x1DE0 JUMP JUMPDEST AND DUP4 DUP3 ADD MSTORE DUP2 PUSH32 0xDE84AF6D30866324EE8781DD4AC14E6124C517B058043A88C80227B93D22800A PUSH1 0x40 CALLER SWAP4 LOG3 PUSH1 0x40 MLOAD SWAP1 DUP2 MSTORE RETURN JUMPDEST PUSH1 0x40 MLOAD PUSH3 0x461BCD PUSH1 0xE5 SHL DUP2 MSTORE PUSH1 0x20 PUSH1 0x4 DUP3 ADD MSTORE PUSH1 0x13 PUSH1 0x24 DUP3 ADD MSTORE PUSH19 0x1159D9C8185B1C9958591E481A185D18DA1959 PUSH1 0x6A SHL PUSH1 0x44 DUP3 ADD MSTORE PUSH1 0x64 SWAP1 REVERT JUMPDEST SWAP2 POP POP PUSH1 0x80 DUP2 RETURNDATASIZE DUP3 GT PUSH2 0x16DA JUMPI JUMPDEST DUP2 PUSH2 0x16B1 PUSH1 0x80 SWAP4 DUP4 PUSH2 0x1D6B JUMP JUMPDEST DUP2 ADD SUB SLT PUSH2 0x192 JUMPI DUP1 MLOAD SWAP1 PUSH1 0x4 DUP3 LT ISZERO PUSH2 0x192 JUMPI PUSH1 0x40 ADD MLOAD SWAP1 DUP2 ISZERO ISZERO DUP3 SUB PUSH2 0x192 JUMPI SWAP1 DUP3 PUSH2 0x1347 JUMP JUMPDEST RETURNDATASIZE SWAP2 POP PUSH2 0x16A4 JUMP JUMPDEST PUSH1 0x40 MLOAD RETURNDATASIZE PUSH1 0x0 DUP3 RETURNDATACOPY RETURNDATASIZE SWAP1 REVERT JUMPDEST PUSH1 0x40 MLOAD PUSH3 0x461BCD PUSH1 0xE5 SHL DUP2 MSTORE PUSH1 0x20 PUSH1 0x4 DUP3 ADD MSTORE PUSH1 0xD PUSH1 0x24 DUP3 ADD MSTORE PUSH13 0x2737BA1032B3B39037BBB732B9 PUSH1 0x99 SHL PUSH1 0x44 DUP3 ADD MSTORE PUSH1 0x64 SWAP1 REVERT JUMPDEST SWAP1 SWAP2 POP PUSH1 0x20 DUP2 RETURNDATASIZE PUSH1 0x20 GT PUSH2 0x1758 JUMPI JUMPDEST DUP2 PUSH2 0x173F PUSH1 0x20 SWAP4 DUP4 PUSH2 0x1D6B JUMP JUMPDEST DUP2 ADD SUB SLT PUSH2 0x192 JUMPI MLOAD DUP2 DUP2 AND DUP2 SUB PUSH2 0x192 JUMPI SWAP1 DUP4 PUSH2 0x130D JUMP JUMPDEST RETURNDATASIZE SWAP2 POP PUSH2 0x1732 JUMP JUMPDEST CALLVALUE PUSH2 0x192 JUMPI PUSH1 0x0 CALLDATASIZE PUSH1 0x3 NOT ADD SLT PUSH2 0x192 JUMPI PUSH1 0x9 SLOAD PUSH1 0x40 MLOAD PUSH1 0x1 PUSH1 0x1 PUSH1 0xA0 SHL SUB SWAP1 SWAP2 AND DUP2 MSTORE PUSH1 0x20 SWAP1 RETURN JUMPDEST CALLVALUE PUSH2 0x192 JUMPI PUSH1 0x60 CALLDATASIZE PUSH1 0x3 NOT ADD SLT PUSH2 0x192 JUMPI PUSH1 0x4 CALLDATALOAD PUSH1 0x24 DUP1 CALLDATALOAD PUSH1 0x1 DUP1 PUSH1 0xA0 SHL SUB DUP1 PUSH1 0xA SLOAD AND CALLER EQ SWAP1 DUP2 ISZERO PUSH2 0x196E JUMPI JUMPDEST POP ISZERO PUSH2 0x1939 JUMPI DUP3 PUSH1 0x0 MSTORE PUSH1 0x20 SWAP3 PUSH1 0xC DUP5 MSTORE PUSH1 0x7 PUSH1 0x40 PUSH1 0x0 KECCAK256 ADD PUSH2 0x17DA DUP2 SLOAD PUSH2 0x2192 JUMP JUMPDEST SWAP1 SSTORE DUP1 PUSH1 0x0 MSTORE PUSH1 0xC DUP5 MSTORE PUSH1 0x6 PUSH1 0x40 PUSH1 0x0 KECCAK256 ADD PUSH2 0x17F9 PUSH1 0x44 CALLDATALOAD DUP3 SLOAD PUSH2 0x244A JUMP JUMPDEST SWAP1 SSTORE DUP2 PUSH1 0x0 MSTORE PUSH1 0xC DUP5 MSTORE PUSH1 0x8 PUSH1 0x40 PUSH1 0x0 KECCAK256 ADD PUSH2 0x1815 DUP2 SLOAD PUSH2 0x2192 JUMP JUMPDEST SWAP1 SSTORE DUP1 PUSH1 0x0 MSTORE PUSH1 0xC DUP5 MSTORE PUSH1 0x40 PUSH1 0x0 KECCAK256 SWAP4 PUSH1 0x5 SWAP3 DUP4 DUP7 ADD SWAP4 DUP5 SLOAD SWAP7 PUSH1 0x64 SWAP8 DUP9 DUP2 MUL SWAP1 DUP1 DUP3 DIV DUP11 EQ SWAP1 ISZERO OR ISZERO PUSH2 0x1924 JUMPI SWAP3 PUSH1 0x6 DUP3 ADD SWAP1 PUSH1 0x2 DUP4 ADD SWAP2 PUSH1 0x4 PUSH1 0x3 DUP6 ADD SWAP5 ADD SWAP6 JUMPDEST DUP2 SLOAD LT PUSH2 0x18FB JUMPI PUSH2 0x1869 DUP10 SLOAD PUSH2 0x2192 JUMP JUMPDEST DUP1 DUP11 SSTORE DUP4 SLOAD DUP7 DUP2 ADD DUP1 SWAP2 GT PUSH2 0x18E6 JUMPI DUP5 SSTORE DUP5 SLOAD DUP7 DUP2 ADD DUP1 SWAP2 GT PUSH2 0x18E6 JUMPI DUP6 SSTORE DUP7 SLOAD PUSH1 0x3 DUP2 ADD DUP1 SWAP2 GT PUSH2 0x18E6 JUMPI DUP8 SSTORE DUP9 PUSH32 0xB873985BF70ACBC386CFB464C89165D78A194F67B3BF545670776E363545F660 DUP10 PUSH1 0x40 MLOAD DUP5 DUP2 MSTORE LOG2 DUP12 DUP2 MUL SWAP1 DUP1 DUP3 DIV DUP14 EQ SWAP1 ISZERO OR PUSH2 0x1858 JUMPI DUP11 PUSH4 0x4E487B71 PUSH1 0xE0 SHL PUSH1 0x0 MSTORE PUSH1 0x11 PUSH1 0x4 MSTORE PUSH1 0x0 REVERT JUMPDEST DUP12 PUSH4 0x4E487B71 PUSH1 0xE0 SHL PUSH1 0x0 MSTORE PUSH1 0x11 PUSH1 0x4 MSTORE PUSH1 0x0 REVERT JUMPDEST POP DUP7 PUSH32 0x37FDF7CDA6EC1C848E98866FE5E1F781B2B5976A1D79C7770394E65503CE92AF PUSH1 0x0 DUP1 LOG3 STOP JUMPDEST DUP8 PUSH4 0x4E487B71 PUSH1 0xE0 SHL PUSH1 0x0 MSTORE PUSH1 0x11 PUSH1 0x4 MSTORE PUSH1 0x0 REVERT JUMPDEST PUSH1 0x40 MLOAD PUSH3 0x461BCD PUSH1 0xE5 SHL DUP2 MSTORE PUSH1 0x20 PUSH1 0x4 DUP3 ADD MSTORE PUSH1 0xE DUP2 DUP5 ADD MSTORE PUSH14 0x139BDD08185D5D1A1BDC9A5E9959 PUSH1 0x92 SHL PUSH1 0x44 DUP3 ADD MSTORE PUSH1 0x64 SWAP1 REVERT JUMPDEST SWAP1 POP PUSH1 0x6 SLOAD AND CALLER EQ DUP5 PUSH2 0x17B7 JUMP JUMPDEST CALLVALUE PUSH2 0x192 JUMPI PUSH1 0x40 CALLDATASIZE PUSH1 0x3 NOT ADD SLT PUSH2 0x192 JUMPI PUSH2 0x1995 PUSH2 0x1C4F JUMP JUMPDEST PUSH1 0x1 PUSH1 0x1 PUSH1 0xA0 SHL SUB AND PUSH1 0x0 SWAP1 DUP2 MSTORE PUSH1 0xD PUSH1 0x20 MSTORE PUSH1 0x40 SWAP1 KECCAK256 DUP1 SLOAD PUSH1 0x24 CALLDATALOAD SWAP2 SWAP1 DUP3 LT ISZERO PUSH2 0x192 JUMPI PUSH1 0x20 SWAP2 PUSH2 0x19C6 SWAP2 PUSH2 0x1C7B JUMP JUMPDEST SWAP1 SLOAD PUSH1 0x40 MLOAD SWAP2 PUSH1 0x3 SHL SHR DUP2 MSTORE RETURN JUMPDEST CALLVALUE PUSH2 0x192 JUMPI PUSH1 0x40 CALLDATASIZE PUSH1 0x3 NOT ADD SLT PUSH2 0x192 JUMPI PUSH2 0x19ED PUSH2 0x1C4F JUMP JUMPDEST PUSH1 0x24 CALLDATALOAD PUSH2 0x19F9 DUP2 PUSH2 0x2009 JUMP JUMPDEST CALLER ISZERO ISZERO DUP1 PUSH2 0x1AA8 JUMPI JUMPDEST DUP1 PUSH2 0x1A7B JUMPI JUMPDEST PUSH2 0x1A63 JUMPI PUSH1 0x1 PUSH1 0x1 PUSH1 0xA0 SHL SUB SWAP3 DUP4 AND SWAP3 DUP3 SWAP2 DUP5 SWAP2 AND PUSH32 0x8C5BE1E5EBEC7D5BD14F71427D1E84F3DD0314C0F7B2291E5B200AC8C7C3B925 PUSH1 0x0 DUP1 LOG4 PUSH1 0x0 SWAP1 DUP2 MSTORE PUSH1 0x4 PUSH1 0x20 MSTORE PUSH1 0x40 SWAP1 KECCAK256 DUP1 SLOAD PUSH1 0x1 PUSH1 0x1 PUSH1 0xA0 SHL SUB NOT AND SWAP1 SWAP2 OR SWAP1 SSTORE STOP JUMPDEST PUSH1 0x40 MLOAD PUSH4 0xA9FBF51F PUSH1 0xE0 SHL DUP2 MSTORE CALLER PUSH1 0x4 DUP3 ADD MSTORE PUSH1 0x24 SWAP1 REVERT JUMPDEST POP PUSH1 0x1 DUP1 PUSH1 0xA0 SHL SUB DUP2 AND PUSH1 0x0 MSTORE PUSH1 0x5 PUSH1 0x20 MSTORE PUSH1 0x40 PUSH1 0x0 KECCAK256 CALLER PUSH1 0x0 MSTORE PUSH1 0x20 MSTORE PUSH1 0xFF PUSH1 0x40 PUSH1 0x0 KECCAK256 SLOAD AND ISZERO PUSH2 0x1A08 JUMP JUMPDEST POP PUSH1 0x1 PUSH1 0x1 PUSH1 0xA0 SHL SUB DUP2 AND CALLER EQ ISZERO PUSH2 0x1A02 JUMP JUMPDEST CALLVALUE PUSH2 0x192 JUMPI PUSH1 0x20 CALLDATASIZE PUSH1 0x3 NOT ADD SLT PUSH2 0x192 JUMPI PUSH1 0x4 CALLDATALOAD PUSH2 0x1AD8 DUP2 PUSH2 0x2009 JUMP JUMPDEST POP PUSH1 0x0 MSTORE PUSH1 0x4 PUSH1 0x20 MSTORE PUSH1 0x20 PUSH1 0x1 DUP1 PUSH1 0xA0 SHL SUB PUSH1 0x40 PUSH1 0x0 KECCAK256 SLOAD AND PUSH1 0x40 MLOAD SWAP1 DUP2 MSTORE RETURN JUMPDEST CALLVALUE PUSH2 0x192 JUMPI PUSH1 0x0 CALLDATASIZE PUSH1 0x3 NOT ADD SLT PUSH2 0x192 JUMPI PUSH1 0x40 MLOAD PUSH1 0x0 DUP1 SLOAD PUSH2 0x1B1A DUP2 PUSH2 0x1E30 JUMP JUMPDEST DUP1 DUP5 MSTORE SWAP1 PUSH1 0x1 SWAP1 DUP2 DUP2 AND SWAP1 DUP2 ISZERO PUSH2 0x880 JUMPI POP PUSH1 0x1 EQ PUSH2 0x1B43 JUMPI PUSH2 0x687 DUP5 PUSH2 0x673 DUP2 DUP7 SUB DUP3 PUSH2 0x1D6B JUMP JUMPDEST PUSH1 0x0 DUP1 DUP1 MSTORE SWAP3 POP PUSH32 0x290DECD9548B62A8D60345A988386FC84BA6BC95484008F6362F93160EF3E563 JUMPDEST DUP3 DUP5 LT PUSH2 0x1B84 JUMPI POP POP POP DUP2 ADD PUSH1 0x20 ADD PUSH2 0x673 DUP3 PUSH2 0x817 JUMP JUMPDEST DUP1 SLOAD PUSH1 0x20 DUP6 DUP8 ADD DUP2 ADD SWAP2 SWAP1 SWAP2 MSTORE SWAP1 SWAP4 ADD SWAP3 DUP2 ADD PUSH2 0x1B6C JUMP JUMPDEST CALLVALUE PUSH2 0x192 JUMPI PUSH1 0x20 CALLDATASIZE PUSH1 0x3 NOT ADD SLT PUSH2 0x192 JUMPI PUSH1 0x4 CALLDATALOAD SWAP1 PUSH4 0xFFFFFFFF PUSH1 0xE0 SHL DUP3 AND DUP1 SWAP3 SUB PUSH2 0x192 JUMPI PUSH1 0x20 SWAP2 PUSH4 0x80AC58CD PUSH1 0xE0 SHL DUP2 EQ SWAP1 DUP2 ISZERO PUSH2 0x1BF6 JUMPI JUMPDEST DUP2 ISZERO PUSH2 0x1BE5 JUMPI JUMPDEST POP ISZERO ISZERO DUP2 MSTORE RETURN JUMPDEST PUSH4 0x1FFC9A7 PUSH1 0xE0 SHL EQ SWAP1 POP DUP4 PUSH2 0x1BDE JUMP JUMPDEST PUSH4 0x5B5E139F PUSH1 0xE0 SHL DUP2 EQ SWAP2 POP PUSH2 0x1BD7 JUMP JUMPDEST PUSH1 0x0 JUMPDEST DUP4 DUP2 LT PUSH2 0x1C1A JUMPI POP POP PUSH1 0x0 SWAP2 ADD MSTORE JUMP JUMPDEST DUP2 DUP2 ADD MLOAD DUP4 DUP3 ADD MSTORE PUSH1 0x20 ADD PUSH2 0x1C0A JUMP JUMPDEST SWAP1 PUSH1 0x20 SWAP2 PUSH2 0x1C43 DUP2 MLOAD DUP1 SWAP3 DUP2 DUP6 MSTORE DUP6 DUP1 DUP7 ADD SWAP2 ADD PUSH2 0x1C07 JUMP JUMPDEST PUSH1 0x1F ADD PUSH1 0x1F NOT AND ADD ADD SWAP1 JUMP JUMPDEST PUSH1 0x4 CALLDATALOAD SWAP1 PUSH1 0x1 PUSH1 0x1 PUSH1 0xA0 SHL SUB DUP3 AND DUP3 SUB PUSH2 0x192 JUMPI JUMP JUMPDEST PUSH1 0x24 CALLDATALOAD SWAP1 PUSH1 0x1 PUSH1 0x1 PUSH1 0xA0 SHL SUB DUP3 AND DUP3 SUB PUSH2 0x192 JUMPI JUMP JUMPDEST DUP1 SLOAD DUP3 LT ISZERO PUSH2 0x1C93 JUMPI PUSH1 0x0 MSTORE PUSH1 0x20 PUSH1 0x0 KECCAK256 ADD SWAP1 PUSH1 0x0 SWAP1 JUMP JUMPDEST PUSH4 0x4E487B71 PUSH1 0xE0 SHL PUSH1 0x0 MSTORE PUSH1 0x32 PUSH1 0x4 MSTORE PUSH1 0x24 PUSH1 0x0 REVERT JUMPDEST PUSH1 0x60 SWAP1 PUSH1 0x3 NOT ADD SLT PUSH2 0x192 JUMPI PUSH1 0x1 PUSH1 0x1 PUSH1 0xA0 SHL SUB SWAP1 PUSH1 0x4 CALLDATALOAD DUP3 DUP2 AND DUP2 SUB PUSH2 0x192 JUMPI SWAP2 PUSH1 0x24 CALLDATALOAD SWAP1 DUP2 AND DUP2 SUB PUSH2 0x192 JUMPI SWAP1 PUSH1 0x44 CALLDATALOAD SWAP1 JUMP JUMPDEST PUSH2 0x1A0 DUP2 ADD SWAP1 DUP2 LT PUSH8 0xFFFFFFFFFFFFFFFF DUP3 GT OR PUSH2 0x116E JUMPI PUSH1 0x40 MSTORE JUMP JUMPDEST PUSH1 0x80 DUP2 ADD SWAP1 DUP2 LT PUSH8 0xFFFFFFFFFFFFFFFF DUP3 GT OR PUSH2 0x116E JUMPI PUSH1 0x40 MSTORE JUMP JUMPDEST PUSH1 0x40 DUP2 ADD SWAP1 DUP2 LT PUSH8 0xFFFFFFFFFFFFFFFF DUP3 GT OR PUSH2 0x116E JUMPI PUSH1 0x40 MSTORE JUMP JUMPDEST PUSH1 0x20 DUP2 ADD SWAP1 DUP2 LT PUSH8 0xFFFFFFFFFFFFFFFF DUP3 GT OR PUSH2 0x116E JUMPI PUSH1 0x40 MSTORE JUMP JUMPDEST PUSH1 0x60 DUP2 ADD SWAP1 DUP2 LT PUSH8 0xFFFFFFFFFFFFFFFF DUP3 GT OR PUSH2 0x116E JUMPI PUSH1 0x40 MSTORE JUMP JUMPDEST SWAP1 PUSH1 0x1F DUP1 NOT SWAP2 ADD AND DUP2 ADD SWAP1 DUP2 LT PUSH8 0xFFFFFFFFFFFFFFFF DUP3 GT OR PUSH2 0x116E JUMPI PUSH1 0x40 MSTORE JUMP JUMPDEST PUSH8 0xFFFFFFFFFFFFFFFF DUP2 GT PUSH2 0x116E JUMPI PUSH1 0x1F ADD PUSH1 0x1F NOT AND PUSH1 0x20 ADD SWAP1 JUMP JUMPDEST SWAP3 SWAP2 SWAP3 PUSH2 0x1DB5 DUP3 PUSH2 0x1D8D JUMP JUMPDEST SWAP2 PUSH2 0x1DC3 PUSH1 0x40 MLOAD SWAP4 DUP5 PUSH2 0x1D6B JUMP JUMPDEST DUP3 SWAP5 DUP2 DUP5 MSTORE DUP2 DUP4 ADD GT PUSH2 0x192 JUMPI DUP3 DUP2 PUSH1 0x20 SWAP4 DUP5 PUSH1 0x0 SWAP7 ADD CALLDATACOPY ADD ADD MSTORE JUMP JUMPDEST PUSH1 0x4 GT ISZERO PUSH2 0xE6B JUMPI JUMP JUMPDEST SWAP1 PUSH1 0x6 DUP3 LT ISZERO PUSH2 0xE6B JUMPI MSTORE JUMP JUMPDEST SWAP1 PUSH1 0x3 DUP3 LT ISZERO PUSH2 0xE6B JUMPI MSTORE JUMP JUMPDEST PUSH1 0x6 SLOAD PUSH1 0x1 PUSH1 0x1 PUSH1 0xA0 SHL SUB AND CALLER SUB PUSH2 0x1E18 JUMPI JUMP JUMPDEST PUSH1 0x40 MLOAD PUSH4 0x118CDAA7 PUSH1 0xE0 SHL DUP2 MSTORE CALLER PUSH1 0x4 DUP3 ADD MSTORE PUSH1 0x24 SWAP1 REVERT JUMPDEST SWAP1 PUSH1 0x1 DUP3 DUP2 SHR SWAP3 AND DUP1 ISZERO PUSH2 0x1E60 JUMPI JUMPDEST PUSH1 0x20 DUP4 LT EQ PUSH2 0x1E4A JUMPI JUMP JUMPDEST PUSH4 0x4E487B71 PUSH1 0xE0 SHL PUSH1 0x0 MSTORE PUSH1 0x22 PUSH1 0x4 MSTORE PUSH1 0x24 PUSH1 0x0 REVERT JUMPDEST SWAP2 PUSH1 0x7F AND SWAP2 PUSH2 0x1E3F JUMP JUMPDEST PUSH1 0x1 PUSH1 0x1 PUSH1 0xA0 SHL SUB SWAP2 DUP3 AND SWAP3 SWAP1 SWAP2 DUP4 ISZERO PUSH2 0x1FF0 JUMPI PUSH1 0x0 SWAP3 DUP3 DUP5 MSTORE DUP3 PUSH1 0x20 SWAP6 PUSH1 0x2 DUP8 MSTORE PUSH1 0x40 SWAP7 DUP5 DUP9 DUP9 KECCAK256 SLOAD AND SWAP7 DUP8 SWAP2 CALLER ISZERO ISZERO DUP1 PUSH2 0x1F5A JUMPI JUMPDEST POP SWAP1 PUSH1 0x2 PUSH32 0xDDF252AD1BE2C89B69C2B068FC378DAA952BA7F163C4A11628F55A4DF523B3EF SWAP3 DUP5 PUSH2 0x1F27 JUMPI JUMPDEST DUP6 DUP4 MSTORE PUSH1 0x3 DUP2 MSTORE DUP12 DUP4 KECCAK256 DUP1 SLOAD PUSH1 0x1 ADD SWAP1 SSTORE DUP7 DUP4 MSTORE MSTORE DUP10 DUP2 KECCAK256 DUP1 SLOAD PUSH1 0x1 PUSH1 0x1 PUSH1 0xA0 SHL SUB NOT AND DUP6 OR SWAP1 SSTORE DUP1 LOG4 AND SWAP3 DUP4 DUP4 SUB PUSH2 0x1F06 JUMPI POP POP POP POP JUMP JUMPDEST PUSH1 0x64 SWAP5 POP MLOAD SWAP3 PUSH4 0x64283D7B PUSH1 0xE0 SHL DUP5 MSTORE PUSH1 0x4 DUP5 ADD MSTORE PUSH1 0x24 DUP4 ADD MSTORE PUSH1 0x44 DUP3 ADD MSTORE REVERT JUMPDEST PUSH1 0x0 DUP8 DUP2 MSTORE PUSH1 0x4 PUSH1 0x20 MSTORE PUSH1 0x40 SWAP1 KECCAK256 DUP1 SLOAD PUSH1 0x1 PUSH1 0x1 PUSH1 0xA0 SHL SUB NOT AND SWAP1 SSTORE DUP5 DUP4 MSTORE PUSH1 0x3 DUP2 MSTORE DUP12 DUP4 KECCAK256 DUP1 SLOAD PUSH1 0x0 NOT ADD SWAP1 SSTORE PUSH2 0x1ECD JUMP JUMPDEST SWAP2 SWAP4 SWAP5 POP SWAP2 POP DUP1 PUSH2 0x1FAF JUMPI JUMPDEST ISZERO PUSH2 0x1F76 JUMPI DUP6 SWAP3 SWAP2 DUP8 SWAP2 CODESIZE PUSH2 0x1EA1 JUMP JUMPDEST DUP8 DUP7 DUP9 PUSH2 0x1F93 JUMPI PUSH1 0x24 SWAP2 MLOAD SWAP1 PUSH4 0x7E273289 PUSH1 0xE0 SHL DUP3 MSTORE PUSH1 0x4 DUP3 ADD MSTORE REVERT JUMPDEST PUSH1 0x44 SWAP2 MLOAD SWAP1 PUSH4 0x177E802F PUSH1 0xE0 SHL DUP3 MSTORE CALLER PUSH1 0x4 DUP4 ADD MSTORE PUSH1 0x24 DUP3 ADD MSTORE REVERT JUMPDEST POP CALLER DUP8 EQ DUP1 ISZERO PUSH2 0x1FD4 JUMPI JUMPDEST DUP1 PUSH2 0x1F66 JUMPI POP DUP6 DUP3 MSTORE PUSH1 0x4 DUP2 MSTORE CALLER DUP6 DUP10 DUP5 KECCAK256 SLOAD AND EQ PUSH2 0x1F66 JUMP JUMPDEST POP DUP7 DUP3 MSTORE PUSH1 0x5 DUP2 MSTORE DUP8 DUP3 KECCAK256 CALLER DUP4 MSTORE DUP2 MSTORE PUSH1 0xFF DUP9 DUP4 KECCAK256 SLOAD AND PUSH2 0x1FBA JUMP JUMPDEST PUSH1 0x40 MLOAD PUSH4 0x32505749 PUSH1 0xE1 SHL DUP2 MSTORE PUSH1 0x0 PUSH1 0x4 DUP3 ADD MSTORE PUSH1 0x24 SWAP1 REVERT JUMPDEST PUSH1 0x0 DUP2 DUP2 MSTORE PUSH1 0x2 PUSH1 0x20 MSTORE PUSH1 0x40 SWAP1 KECCAK256 SLOAD PUSH1 0x1 PUSH1 0x1 PUSH1 0xA0 SHL SUB AND SWAP1 DUP2 ISZERO PUSH2 0x202C JUMPI POP SWAP1 JUMP JUMPDEST PUSH1 0x24 SWAP1 PUSH1 0x40 MLOAD SWAP1 PUSH4 0x7E273289 PUSH1 0xE0 SHL DUP3 MSTORE PUSH1 0x4 DUP3 ADD MSTORE REVERT JUMPDEST SWAP1 SWAP4 SWAP2 SWAP3 DUP4 EXTCODESIZE PUSH2 0x2056 JUMPI JUMPDEST POP POP POP POP POP JUMP JUMPDEST PUSH1 0x40 MLOAD PUSH4 0xA85BD01 PUSH1 0xE1 SHL DUP1 DUP3 MSTORE PUSH1 0x1 PUSH1 0x1 PUSH1 0xA0 SHL SUB SWAP4 DUP5 AND PUSH1 0x4 DUP4 ADD MSTORE SWAP6 DUP4 AND PUSH1 0x24 DUP3 ADD MSTORE PUSH1 0x44 DUP2 ADD SWAP2 SWAP1 SWAP2 MSTORE PUSH1 0x80 PUSH1 0x64 DUP3 ADD MSTORE SWAP5 SWAP3 AND SWAP3 PUSH1 0x20 SWAP3 SWAP2 DUP6 SWAP1 PUSH2 0x20A3 SWAP1 PUSH1 0x84 DUP4 ADD SWAP1 PUSH2 0x1C2A JUMP JUMPDEST SUB SWAP5 DUP4 DUP2 PUSH1 0x0 SWAP8 DUP2 DUP10 DUP10 GAS CALL DUP7 SWAP2 DUP2 PUSH2 0x214E JUMPI JUMPDEST POP PUSH2 0x2118 JUMPI POP POP POP RETURNDATASIZE PUSH1 0x0 EQ PUSH2 0x210F JUMPI RETURNDATASIZE PUSH2 0x20D1 DUP2 PUSH2 0x1D8D JUMP JUMPDEST SWAP1 PUSH2 0x20DF PUSH1 0x40 MLOAD SWAP3 DUP4 PUSH2 0x1D6B JUMP JUMPDEST DUP2 MSTORE DUP1 SWAP4 DUP3 RETURNDATASIZE SWAP3 ADD RETURNDATACOPY JUMPDEST DUP3 MLOAD SWAP3 DUP4 PUSH2 0x210A JUMPI PUSH1 0x40 MLOAD PUSH4 0x32505749 PUSH1 0xE1 SHL DUP2 MSTORE PUSH1 0x4 DUP2 ADD DUP5 SWAP1 MSTORE PUSH1 0x24 SWAP1 REVERT JUMPDEST ADD SWAP1 POP REVERT JUMPDEST PUSH1 0x60 SWAP3 POP PUSH2 0x20E9 JUMP JUMPDEST SWAP2 SWAP5 POP SWAP2 POP PUSH4 0xFFFFFFFF PUSH1 0xE0 SHL AND SUB PUSH2 0x2136 JUMPI POP CODESIZE DUP1 DUP1 DUP1 DUP1 PUSH2 0x204F JUMP JUMPDEST PUSH1 0x24 SWAP1 PUSH1 0x40 MLOAD SWAP1 PUSH4 0x32505749 PUSH1 0xE1 SHL DUP3 MSTORE PUSH1 0x4 DUP3 ADD MSTORE REVERT JUMPDEST SWAP1 SWAP2 POP DUP5 DUP2 DUP2 RETURNDATASIZE DUP4 GT PUSH2 0x218B JUMPI JUMPDEST PUSH2 0x2166 DUP2 DUP4 PUSH2 0x1D6B JUMP JUMPDEST DUP2 ADD SUB SLT PUSH2 0x2187 JUMPI MLOAD PUSH1 0x1 PUSH1 0x1 PUSH1 0xE0 SHL SUB NOT DUP2 AND DUP2 SUB PUSH2 0x2187 JUMPI SWAP1 CODESIZE PUSH2 0x20B7 JUMP JUMPDEST DUP7 DUP1 REVERT JUMPDEST POP RETURNDATASIZE PUSH2 0x215C JUMP JUMPDEST PUSH1 0x0 NOT DUP2 EQ PUSH2 0x21A1 JUMPI PUSH1 0x1 ADD SWAP1 JUMP JUMPDEST PUSH4 0x4E487B71 PUSH1 0xE0 SHL PUSH1 0x0 MSTORE PUSH1 0x11 PUSH1 0x4 MSTORE PUSH1 0x24 PUSH1 0x0 REVERT JUMPDEST DUP2 DUP2 MUL SWAP3 SWAP2 DUP2 ISZERO SWAP2 DUP5 DIV EQ OR ISZERO PUSH2 0x21A1 JUMPI JUMP JUMPDEST PUSH1 0x6 DUP3 LT ISZERO PUSH2 0xE6B JUMPI MSTORE JUMP JUMPDEST PUSH1 0x3 DUP3 LT ISZERO PUSH2 0xE6B JUMPI MSTORE JUMP JUMPDEST DUP1 SLOAD PUSH9 0x10000000000000000 DUP2 LT ISZERO PUSH2 0x116E JUMPI PUSH2 0x2204 SWAP2 PUSH1 0x1 DUP3 ADD DUP2 SSTORE PUSH2 0x1C7B JUMP JUMPDEST DUP2 SWAP3 SWAP2 SLOAD SWAP1 PUSH1 0x3 SHL SWAP2 DUP3 SHL SWAP2 PUSH1 0x0 NOT SWAP1 SHL NOT AND OR SWAP1 SSTORE JUMP JUMPDEST PUSH1 0x40 DUP1 MLOAD PUSH2 0x2229 DUP2 PUSH2 0x1D33 JUMP JUMPDEST PUSH1 0x0 DUP1 DUP3 MSTORE SWAP4 PUSH1 0x1 PUSH1 0x1 PUSH1 0xA0 SHL SUB DUP5 DUP2 AND SWAP5 SWAP1 SWAP3 SWAP1 DUP6 ISZERO PUSH2 0x2432 JUMPI DUP3 DUP8 MSTORE PUSH1 0x20 SWAP4 PUSH1 0x2 DUP6 MSTORE DUP6 DUP9 KECCAK256 SLOAD AND DUP4 DUP8 DUP3 ISZERO ISZERO SWAP3 DUP4 PUSH2 0x23FF JUMPI JUMPDEST DUP2 DUP12 MSTORE PUSH1 0x3 DUP9 MSTORE DUP9 DUP12 KECCAK256 DUP1 SLOAD PUSH1 0x1 ADD SWAP1 SSTORE DUP3 DUP12 MSTORE PUSH1 0x2 DUP9 MSTORE DUP9 DUP12 KECCAK256 DUP1 SLOAD PUSH1 0x1 PUSH1 0x1 PUSH1 0xA0 SHL SUB NOT AND DUP4 OR SWAP1 SSTORE PUSH32 0xDDF252AD1BE2C89B69C2B068FC378DAA952BA7F163C4A11628F55A4DF523B3EF DUP12 DUP1 LOG4 PUSH2 0x23E7 JUMPI EXTCODESIZE PUSH2 0x22C0 JUMPI JUMPDEST POP POP POP POP POP POP JUMP JUMPDEST DUP3 PUSH2 0x22FE SWAP2 DUP6 SWAP7 SWAP8 SWAP9 SWAP5 SWAP6 MLOAD DUP1 SWAP4 DUP2 SWAP3 PUSH4 0xA85BD01 PUSH1 0xE1 SHL SWAP7 DUP8 DUP5 MSTORE CALLER PUSH1 0x4 DUP6 ADD MSTORE DUP13 PUSH1 0x24 DUP6 ADD MSTORE PUSH1 0x44 DUP5 ADD MSTORE PUSH1 0x80 PUSH1 0x64 DUP5 ADD MSTORE PUSH1 0x84 DUP4 ADD SWAP1 PUSH2 0x1C2A JUMP JUMPDEST SUB DUP2 DUP11 DUP11 GAS CALL DUP8 SWAP2 DUP2 PUSH2 0x23A3 JUMPI JUMPDEST POP PUSH2 0x236C JUMPI POP POP POP RETURNDATASIZE PUSH1 0x0 EQ PUSH2 0x2363 JUMPI RETURNDATASIZE PUSH2 0x2326 DUP2 PUSH2 0x1D8D JUMP JUMPDEST SWAP1 PUSH2 0x2333 DUP5 MLOAD SWAP3 DUP4 PUSH2 0x1D6B JUMP JUMPDEST DUP2 MSTORE DUP1 SWAP5 DUP3 RETURNDATASIZE SWAP3 ADD RETURNDATACOPY JUMPDEST DUP4 MLOAD SWAP4 DUP5 PUSH2 0x235D JUMPI DUP3 MLOAD PUSH4 0x32505749 PUSH1 0xE1 SHL DUP2 MSTORE PUSH1 0x4 DUP2 ADD DUP6 SWAP1 MSTORE PUSH1 0x24 SWAP1 REVERT JUMPDEST DUP5 SWAP3 POP ADD REVERT JUMPDEST PUSH1 0x60 SWAP4 POP PUSH2 0x233D JUMP JUMPDEST SWAP2 SWAP6 POP SWAP2 POP PUSH4 0xFFFFFFFF PUSH1 0xE0 SHL AND SUB PUSH2 0x238C JUMPI POP POP CODESIZE DUP1 DUP1 DUP1 DUP1 DUP1 PUSH2 0x22B8 JUMP JUMPDEST PUSH1 0x24 SWAP3 POP MLOAD SWAP1 PUSH4 0x32505749 PUSH1 0xE1 SHL DUP3 MSTORE PUSH1 0x4 DUP3 ADD MSTORE REVERT JUMPDEST SWAP1 SWAP2 POP DUP5 DUP2 DUP2 RETURNDATASIZE DUP4 GT PUSH2 0x23E0 JUMPI JUMPDEST PUSH2 0x23BB DUP2 DUP4 PUSH2 0x1D6B JUMP JUMPDEST DUP2 ADD SUB SLT PUSH2 0x23DC JUMPI MLOAD PUSH1 0x1 PUSH1 0x1 PUSH1 0xE0 SHL SUB NOT DUP2 AND DUP2 SUB PUSH2 0x23DC JUMPI SWAP1 CODESIZE PUSH2 0x230C JUMP JUMPDEST DUP8 DUP1 REVERT JUMPDEST POP RETURNDATASIZE PUSH2 0x23B1 JUMP JUMPDEST DUP5 MLOAD PUSH4 0x39E35637 PUSH1 0xE1 SHL DUP2 MSTORE PUSH1 0x4 DUP2 ADD DUP9 SWAP1 MSTORE PUSH1 0x24 SWAP1 REVERT JUMPDEST PUSH1 0x0 DUP4 DUP2 MSTORE PUSH1 0x4 PUSH1 0x20 MSTORE PUSH1 0x40 SWAP1 KECCAK256 DUP1 SLOAD PUSH1 0x1 PUSH1 0x1 PUSH1 0xA0 SHL SUB NOT AND SWAP1 SSTORE DUP1 DUP12 MSTORE PUSH1 0x3 DUP9 MSTORE DUP9 DUP12 KECCAK256 DUP1 SLOAD PUSH1 0x0 NOT ADD SWAP1 SSTORE PUSH2 0x225F JUMP JUMPDEST DUP5 MLOAD PUSH4 0x32505749 PUSH1 0xE1 SHL DUP2 MSTORE PUSH1 0x4 DUP2 ADD DUP9 SWAP1 MSTORE PUSH1 0x24 SWAP1 REVERT JUMPDEST SWAP2 SWAP1 DUP3 ADD DUP1 SWAP3 GT PUSH2 0x21A1 JUMPI JUMP JUMPDEST PUSH1 0x33 SWAP2 PUSH2 0x2494 PUSH1 0x60 PUSH1 0x40 MLOAD DUP1 SWAP4 PUSH1 0x20 DUP3 ADD SWAP6 TIMESTAMP DUP8 MSTORE PUSH1 0x40 DUP4 ADD MSTORE PUSH2 0x2484 DUP2 MLOAD DUP1 SWAP3 PUSH1 0x20 DUP7 DUP7 ADD SWAP2 ADD PUSH2 0x1C07 JUMP JUMPDEST DUP2 ADD SUB PUSH1 0x40 DUP2 ADD DUP5 MSTORE ADD DUP3 PUSH2 0x1D6B JUMP JUMPDEST MLOAD SWAP1 KECCAK256 MOD PUSH1 0x32 ADD DUP1 PUSH1 0x32 GT PUSH2 0x21A1 JUMPI SWAP1 JUMP JUMPDEST PUSH1 0x1 PUSH1 0x1 PUSH1 0xA0 SHL SUB PUSH2 0x24B7 DUP3 PUSH2 0x2009 JUMP JUMPDEST AND ISZERO PUSH2 0x2BC0 JUMPI PUSH1 0x8 SLOAD SWAP1 PUSH2 0x24CA DUP3 PUSH2 0x1E30 JUMP JUMPDEST ISZERO PUSH2 0x25B0 JUMPI PUSH2 0x24D8 SWAP1 PUSH2 0x2BFB JUMP JUMPDEST PUSH1 0x40 MLOAD DUP1 SWAP3 PUSH1 0x0 SWAP1 PUSH2 0x24E9 DUP2 PUSH2 0x1E30 JUMP JUMPDEST SWAP1 PUSH1 0x1 SWAP1 DUP2 DUP2 AND SWAP1 DUP2 ISZERO PUSH2 0x2589 JUMPI POP PUSH1 0x1 EQ PUSH2 0x252A JUMPI JUMPDEST POP POP DUP1 PUSH2 0x2518 DUP5 PUSH1 0x20 SWAP4 PUSH2 0x2527 SWAP7 MLOAD SWAP5 DUP6 SWAP3 ADD PUSH2 0x1C07 JUMP JUMPDEST ADD SUB PUSH1 0x1F NOT DUP2 ADD DUP4 MSTORE DUP3 PUSH2 0x1D6B JUMP JUMPDEST SWAP1 JUMP JUMPDEST PUSH1 0x8 PUSH1 0x0 SWAP1 DUP2 MSTORE SWAP2 SWAP3 POP PUSH32 0xF3F7A9FE364FAAB93B216DA50A3214154F22A0A2B415B23A84C8169E8B636EE3 JUMPDEST DUP4 DUP4 LT PUSH2 0x256E JUMPI POP POP POP DUP2 ADD PUSH1 0x20 ADD DUP3 PUSH2 0x2518 PUSH2 0x2500 JUMP JUMPDEST DUP1 SLOAD PUSH1 0x20 DUP5 DUP10 ADD DUP2 ADD SWAP2 SWAP1 SWAP2 MSTORE DUP8 SWAP6 POP SWAP1 SWAP3 ADD SWAP2 DUP2 ADD PUSH2 0x2556 JUMP JUMPDEST PUSH1 0xFF NOT AND PUSH1 0x20 DUP7 DUP2 ADD SWAP2 SWAP1 SWAP2 MSTORE DUP4 ISZERO ISZERO SWAP1 SWAP4 MUL DUP6 ADD SWAP1 SWAP3 ADD SWAP3 POP DUP5 SWAP2 POP PUSH2 0x2518 SWAP1 POP PUSH2 0x2500 JUMP JUMPDEST SWAP1 POP PUSH1 0x0 DUP2 DUP2 MSTORE PUSH1 0xC PUSH1 0x20 MSTORE PUSH1 0x40 DUP2 KECCAK256 SWAP1 PUSH1 0x40 MLOAD SWAP1 PUSH2 0x25CE DUP3 PUSH2 0x1CDE JUMP JUMPDEST DUP3 SLOAD DUP3 MSTORE PUSH1 0x1 DUP4 ADD SLOAD SWAP1 PUSH1 0x20 DUP4 ADD SWAP4 PUSH2 0x25EA PUSH1 0xFF DUP5 AND DUP7 PUSH2 0x21CA JUMP JUMPDEST PUSH1 0xFF PUSH1 0x40 DUP6 ADD SWAP4 PUSH2 0x2600 DUP3 DUP3 PUSH1 0x8 SHR AND DUP7 PUSH2 0x21D6 JUMP JUMPDEST PUSH1 0x10 SHR AND SWAP4 PUSH1 0x60 DUP2 ADD SWAP5 PUSH2 0x2613 DUP2 PUSH2 0x1DE0 JUMP JUMPDEST DUP6 MSTORE PUSH1 0x2 DUP3 ADD SLOAD SWAP1 PUSH1 0x80 DUP2 ADD SWAP2 DUP3 MSTORE PUSH1 0x3 DUP4 ADD SLOAD SWAP2 PUSH1 0xA0 DUP3 ADD SWAP3 DUP4 MSTORE PUSH1 0x4 DUP5 ADD SLOAD SWAP5 PUSH1 0xC0 DUP4 ADD SWAP6 DUP7 MSTORE PUSH1 0x5 DUP6 ADD SLOAD SWAP9 PUSH1 0xE0 DUP5 ADD SWAP10 DUP11 MSTORE PUSH1 0x6 DUP7 ADD SLOAD PUSH2 0x100 DUP6 ADD MSTORE PUSH1 0x7 DUP7 ADD SLOAD SWAP4 PUSH2 0x120 DUP2 ADD SWAP5 DUP6 MSTORE PUSH2 0x180 PUSH1 0xA PUSH1 0x8 DUP10 ADD SLOAD SWAP9 PUSH2 0x140 DUP5 ADD SWAP10 DUP11 MSTORE PUSH1 0x9 DUP2 ADD SLOAD PUSH2 0x160 DUP6 ADD MSTORE ADD SLOAD SWAP2 ADD MSTORE MLOAD PUSH1 0x6 DUP2 LT ISZERO PUSH2 0x2BAC JUMPI PUSH2 0x269B PUSH2 0x26AB SWAP2 PUSH2 0x2D63 JUMP JUMPDEST SWAP9 MLOAD PUSH2 0x26A6 DUP2 PUSH2 0x1DE0 JUMP JUMPDEST PUSH2 0x2E57 JUMP JUMPDEST SWAP7 MLOAD SWAP1 PUSH1 0x3 DUP3 LT ISZERO PUSH2 0x2B98 JUMPI POP PUSH2 0x26C1 SWAP1 PUSH2 0x2F15 JUMP JUMPDEST SWAP9 PUSH2 0x26CB SWAP1 PUSH2 0x2BFB JUMP JUMPDEST SWAP8 MLOAD PUSH2 0x26D6 SWAP1 PUSH2 0x2BFB JUMP JUMPDEST SWAP1 MLOAD PUSH2 0x26E1 SWAP1 PUSH2 0x2BFB JUMP JUMPDEST SWAP3 MLOAD PUSH2 0x26EC SWAP1 PUSH2 0x2BFB JUMP JUMPDEST SWAP5 MLOAD PUSH2 0x26F7 SWAP1 PUSH2 0x2BFB JUMP JUMPDEST SWAP2 MLOAD PUSH2 0x2702 SWAP1 PUSH2 0x2BFB JUMP JUMPDEST SWAP4 MLOAD PUSH2 0x270D SWAP1 PUSH2 0x2BFB JUMP JUMPDEST SWAP5 PUSH1 0x40 MLOAD SWAP10 DUP11 SWAP10 PUSH1 0x20 DUP12 ADD PUSH32 0x646174613A6170706C69636174696F6E2F6A736F6E3B757466382C7B226E616D SWAP1 MSTORE PUSH4 0x32911D11 PUSH1 0xE1 SHL PUSH1 0x40 DUP13 ADD MSTORE DUP9 MLOAD PUSH1 0x44 DUP13 ADD DUP2 PUSH1 0x20 DUP13 ADD SWAP2 PUSH2 0x275D SWAP3 PUSH2 0x1C07 JUMP JUMPDEST DUP1 DUP13 ADD PUSH1 0x44 ADD PUSH1 0x1 PUSH1 0xFD SHL SWAP1 MSTORE DUP1 DUP12 DUP14 DUP2 MLOAD SWAP4 DUP5 SWAP2 ADD PUSH1 0x45 ADD SWAP2 PUSH1 0x20 ADD SWAP2 PUSH2 0x2784 SWAP3 PUSH2 0x1C07 JUMP JUMPDEST DUP13 ADD ADD PUSH1 0x45 DUP2 ADD PUSH9 0x20447261676F6E2023 PUSH1 0xB8 SHL SWAP1 MSTORE DUP2 MLOAD SWAP2 DUP3 PUSH1 0x4E DUP4 ADD SWAP2 PUSH1 0x20 ADD SWAP2 PUSH2 0x27B0 SWAP3 PUSH2 0x1C07 JUMP JUMPDEST ADD PUSH1 0x4E DUP2 ADD PUSH32 0x222C226465736372697074696F6E223A224120706F77657266756C2064726167 SWAP1 MSTORE PUSH1 0x6E DUP2 ADD PUSH32 0x6F6E2066726F6D20447261676F6E20436974792E20456C656D656E743A200000 SWAP1 MSTORE DUP10 MLOAD SWAP1 PUSH1 0x8C DUP2 ADD DUP3 PUSH1 0x20 DUP14 ADD SWAP2 PUSH2 0x2815 SWAP3 PUSH2 0x1C07 JUMP JUMPDEST ADD PUSH1 0x8C DUP2 ADD PUSH10 0x16102930B934BA3C9D1 PUSH1 0xB5 SHL SWAP1 MSTORE DUP9 MLOAD SWAP1 PUSH1 0x96 DUP2 ADD DUP3 PUSH1 0x20 DUP13 ADD SWAP2 PUSH2 0x2840 SWAP3 PUSH2 0x1C07 JUMP JUMPDEST PUSH16 0x222C2261747472696275746573223A5B PUSH1 0x80 SHL PUSH1 0x96 SWAP3 SWAP1 SWAP2 ADD SWAP2 DUP3 ADD MSTORE PUSH32 0x7B2274726169745F74797065223A22456C656D656E74222C2276616C7565223A PUSH1 0xA6 DUP3 ADD MSTORE PUSH1 0x11 PUSH1 0xF9 SHL PUSH1 0xC6 DUP3 ADD MSTORE DUP10 MLOAD SWAP1 PUSH2 0x28A2 DUP3 PUSH1 0xC7 DUP4 ADD PUSH1 0x20 DUP15 ADD PUSH2 0x1C07 JUMP JUMPDEST ADD PUSH3 0x89F4B PUSH1 0xEA SHL SWAP1 DUP2 PUSH1 0xC7 DUP3 ADD MSTORE PUSH1 0xCA DUP2 ADD PUSH32 0x7B2274726169745F74797065223A22526172697479222C2276616C7565223A22 SWAP1 MSTORE DUP10 MLOAD SWAP1 PUSH1 0xEA DUP2 ADD DUP3 PUSH1 0x20 DUP14 ADD SWAP2 PUSH2 0x28EE SWAP3 PUSH2 0x1C07 JUMP JUMPDEST ADD DUP2 PUSH1 0xEA DUP3 ADD MSTORE PUSH1 0xED DUP2 ADD PUSH32 0x7B2274726169745F74797065223A22506F7765722054797065222C2276616C75 SWAP1 MSTORE PUSH4 0x32911D11 PUSH1 0xE1 SHL PUSH2 0x10D DUP3 ADD MSTORE DUP3 MLOAD SWAP1 PUSH2 0x111 SWAP4 DUP3 DUP6 DUP4 ADD SWAP2 PUSH1 0x20 ADD SWAP2 PUSH2 0x2943 SWAP3 PUSH2 0x1C07 JUMP JUMPDEST ADD SWAP2 DUP3 ADD MSTORE PUSH2 0x114 DUP2 ADD PUSH32 0x7B2274726169745F74797065223A224C6576656C222C2276616C7565223A0000 SWAP1 MSTORE DUP3 MLOAD SWAP1 PUSH2 0x132 SWAP4 DUP3 DUP6 DUP4 ADD SWAP2 PUSH1 0x20 ADD SWAP2 PUSH2 0x2989 SWAP3 PUSH2 0x1C07 JUMP JUMPDEST ADD SWAP2 PUSH2 0x1F4B PUSH1 0xF2 SHL SWAP5 DUP6 DUP5 DUP2 DUP1 SWAP7 SWAP5 DUP2 SWAP6 ADD MSTORE PUSH2 0x134 DUP2 ADD PUSH32 0x7B2274726169745F74797065223A2241747461636B222C2276616C7565223A00 SWAP1 MSTORE DUP3 MLOAD SWAP1 PUSH2 0x153 SWAP4 DUP3 DUP6 DUP4 ADD SWAP2 PUSH1 0x20 ADD SWAP2 PUSH2 0x29DD SWAP3 PUSH2 0x1C07 JUMP JUMPDEST ADD SWAP2 DUP3 ADD MSTORE PUSH2 0x155 DUP2 ADD PUSH32 0x7B2274726169745F74797065223A22446566656E7365222C2276616C7565223A SWAP1 MSTORE DUP3 MLOAD SWAP1 PUSH2 0x175 SWAP4 DUP3 DUP6 DUP4 ADD SWAP2 PUSH1 0x20 ADD SWAP2 PUSH2 0x2A23 SWAP3 PUSH2 0x1C07 JUMP JUMPDEST ADD SWAP2 DUP3 ADD MSTORE PUSH2 0x177 DUP2 ADD PUSH32 0x7B2274726169745F74797065223A225370656564222C2276616C7565223A0000 SWAP1 MSTORE DUP3 MLOAD SWAP1 PUSH2 0x195 SWAP4 DUP3 DUP6 DUP4 ADD SWAP2 PUSH1 0x20 ADD SWAP2 PUSH2 0x2A69 SWAP3 PUSH2 0x1C07 JUMP JUMPDEST ADD SWAP2 DUP3 ADD MSTORE PUSH2 0x197 DUP2 ADD PUSH32 0x7B2274726169745F74797065223A2257696E73222C2276616C7565223A000000 SWAP1 MSTORE DUP3 MLOAD SWAP1 PUSH2 0x1B4 SWAP4 DUP3 DUP6 DUP4 ADD SWAP2 PUSH1 0x20 ADD SWAP2 PUSH2 0x2AAF SWAP3 PUSH2 0x1C07 JUMP JUMPDEST ADD SWAP2 DUP3 ADD MSTORE PUSH2 0x1B6 DUP2 ADD PUSH32 0x7B2274726169745F74797065223A224C6F73736573222C2276616C7565223A00 SWAP1 MSTORE DUP2 MLOAD SWAP1 PUSH2 0x1D5 SWAP3 DUP3 DUP5 DUP4 ADD SWAP2 PUSH1 0x20 ADD SWAP2 PUSH2 0x2AF5 SWAP3 PUSH2 0x1C07 JUMP JUMPDEST ADD SWAP1 DUP2 ADD PUSH1 0x7D PUSH1 0xF8 SHL SWAP1 MSTORE PUSH2 0x1D6 DUP2 ADD PUSH32 0x5D2C22696D616765223A22697066733A2F2F516D596F7572496D616765486173 SWAP1 MSTORE PUSH2 0x1F6 DUP2 ADD PUSH2 0x682F PUSH1 0xF0 SHL SWAP1 MSTORE DUP2 MLOAD SWAP1 PUSH2 0x1F8 SWAP3 DUP3 DUP5 DUP4 ADD SWAP2 PUSH1 0x20 ADD SWAP2 PUSH2 0x2B4E SWAP3 PUSH2 0x1C07 JUMP JUMPDEST ADD SWAP1 DUP2 ADD PUSH1 0x5F PUSH1 0xF8 SHL SWAP1 MSTORE DUP2 MLOAD SWAP1 PUSH2 0x1F9 SWAP3 DUP3 DUP5 DUP4 ADD SWAP2 PUSH1 0x20 ADD SWAP2 PUSH2 0x2B72 SWAP3 PUSH2 0x1C07 JUMP JUMPDEST ADD SWAP1 PUSH6 0x2E706E67227D PUSH1 0xD0 SHL SWAP1 DUP3 ADD MSTORE SUB PUSH2 0x1DF DUP2 ADD DUP3 MSTORE PUSH2 0x1FF ADD PUSH2 0x2527 SWAP1 DUP3 PUSH2 0x1D6B JUMP JUMPDEST PUSH4 0x4E487B71 PUSH1 0xE0 SHL DUP2 MSTORE PUSH1 0x21 PUSH1 0x4 MSTORE PUSH1 0x24 SWAP1 REVERT JUMPDEST PUSH4 0x4E487B71 PUSH1 0xE0 SHL DUP3 MSTORE PUSH1 0x21 PUSH1 0x4 MSTORE PUSH1 0x24 DUP3 REVERT JUMPDEST PUSH1 0x40 MLOAD PUSH3 0x461BCD PUSH1 0xE5 SHL DUP2 MSTORE PUSH1 0x20 PUSH1 0x4 DUP3 ADD MSTORE PUSH1 0x13 PUSH1 0x24 DUP3 ADD MSTORE PUSH19 0x151BDAD95B88191BD95CDB89DD08195E1A5CDD PUSH1 0x6A SHL PUSH1 0x44 DUP3 ADD MSTORE PUSH1 0x64 SWAP1 REVERT JUMPDEST DUP1 PUSH1 0x0 SWAP2 PUSH27 0x184F03E93FF9F4DAA797ED6E38ED64BF6A1F010000000000000000 DUP1 DUP3 LT ISZERO PUSH2 0x2D55 JUMPI JUMPDEST POP PUSH14 0x4EE2D6D415B85ACEF8100000000 DUP1 DUP4 LT ISZERO PUSH2 0x2D46 JUMPI JUMPDEST POP PUSH7 0x2386F26FC10000 DUP1 DUP4 LT ISZERO PUSH2 0x2D37 JUMPI JUMPDEST POP PUSH4 0x5F5E100 DUP1 DUP4 LT ISZERO PUSH2 0x2D28 JUMPI JUMPDEST POP PUSH2 0x2710 DUP1 DUP4 LT ISZERO PUSH2 0x2D19 JUMPI JUMPDEST POP PUSH1 0x64 DUP3 LT ISZERO PUSH2 0x2D09 JUMPI JUMPDEST PUSH1 0xA DUP1 SWAP3 LT ISZERO PUSH2 0x2CFF JUMPI JUMPDEST PUSH1 0x1 SWAP1 DUP2 PUSH1 0x21 DUP2 DUP7 ADD SWAP6 PUSH2 0x2C94 DUP8 PUSH2 0x1D8D JUMP JUMPDEST SWAP7 PUSH2 0x2CA2 PUSH1 0x40 MLOAD SWAP9 DUP10 PUSH2 0x1D6B JUMP JUMPDEST DUP1 DUP9 MSTORE PUSH2 0x2CB1 PUSH1 0x1F NOT SWAP2 PUSH2 0x1D8D JUMP JUMPDEST ADD CALLDATASIZE PUSH1 0x20 DUP10 ADD CALLDATACOPY DUP7 ADD ADD SWAP1 JUMPDEST PUSH2 0x2CC9 JUMPI JUMPDEST POP POP POP POP SWAP1 JUMP JUMPDEST PUSH1 0x0 NOT ADD SWAP1 DUP4 SWAP1 PUSH16 0x181899199A1A9B1B9C1CB0B131B232B3 PUSH1 0x81 SHL DUP3 DUP3 MOD BYTE DUP4 MSTORE8 DIV SWAP2 DUP3 ISZERO PUSH2 0x2CFA JUMPI SWAP2 SWAP1 DUP3 PUSH2 0x2CBD JUMP JUMPDEST PUSH2 0x2CC2 JUMP JUMPDEST SWAP2 PUSH1 0x1 ADD SWAP2 PUSH2 0x2C81 JUMP JUMPDEST SWAP2 SWAP1 PUSH1 0x64 PUSH1 0x2 SWAP2 DIV SWAP2 ADD SWAP2 PUSH2 0x2C76 JUMP JUMPDEST PUSH1 0x4 SWAP2 SWAP4 SWAP3 DIV SWAP2 ADD SWAP2 CODESIZE PUSH2 0x2C6B JUMP JUMPDEST PUSH1 0x8 SWAP2 SWAP4 SWAP3 DIV SWAP2 ADD SWAP2 CODESIZE PUSH2 0x2C5E JUMP JUMPDEST PUSH1 0x10 SWAP2 SWAP4 SWAP3 DIV SWAP2 ADD SWAP2 CODESIZE PUSH2 0x2C4F JUMP JUMPDEST PUSH1 0x20 SWAP2 SWAP4 SWAP3 DIV SWAP2 ADD SWAP2 CODESIZE PUSH2 0x2C3D JUMP JUMPDEST PUSH1 0x40 SWAP4 POP DUP2 DIV SWAP2 POP CODESIZE PUSH2 0x2C24 JUMP JUMPDEST PUSH1 0x6 DUP2 LT ISZERO PUSH2 0xE6B JUMPI DUP1 ISZERO PUSH2 0x2E36 JUMPI PUSH1 0x1 DUP2 EQ PUSH2 0x2E14 JUMPI PUSH1 0x2 DUP2 EQ PUSH2 0x2DF2 JUMPI PUSH1 0x3 DUP2 EQ PUSH2 0x2DD2 JUMPI PUSH1 0x4 EQ PUSH2 0x2DB2 JUMPI PUSH1 0x40 MLOAD PUSH2 0x2D9D DUP2 PUSH2 0x1D17 JUMP JUMPDEST PUSH1 0x5 DUP2 MSTORE PUSH5 0x131A59DA1D PUSH1 0xDA SHL PUSH1 0x20 DUP3 ADD MSTORE SWAP1 JUMP JUMPDEST PUSH1 0x40 MLOAD PUSH2 0x2DBE DUP2 PUSH2 0x1D17 JUMP JUMPDEST PUSH1 0x4 DUP2 MSTORE PUSH4 0x4461726B PUSH1 0xE0 SHL PUSH1 0x20 DUP3 ADD MSTORE SWAP1 JUMP JUMPDEST POP PUSH1 0x40 MLOAD PUSH2 0x2DDF DUP2 PUSH2 0x1D17 JUMP JUMPDEST PUSH1 0x3 DUP2 MSTORE PUSH3 0x20B4B9 PUSH1 0xE9 SHL PUSH1 0x20 DUP3 ADD MSTORE SWAP1 JUMP JUMPDEST POP PUSH1 0x40 MLOAD PUSH2 0x2DFF DUP2 PUSH2 0x1D17 JUMP JUMPDEST PUSH1 0x5 DUP2 MSTORE PUSH5 0x8AC2E4E8D PUSH1 0xDB SHL PUSH1 0x20 DUP3 ADD MSTORE SWAP1 JUMP JUMPDEST POP PUSH1 0x40 MLOAD PUSH2 0x2E21 DUP2 PUSH2 0x1D17 JUMP JUMPDEST PUSH1 0x5 DUP2 MSTORE PUSH5 0x2BB0BA32B9 PUSH1 0xD9 SHL PUSH1 0x20 DUP3 ADD MSTORE SWAP1 JUMP JUMPDEST POP PUSH1 0x40 MLOAD PUSH2 0x2E43 DUP2 PUSH2 0x1D17 JUMP JUMPDEST PUSH1 0x4 DUP2 MSTORE PUSH4 0x46697265 PUSH1 0xE0 SHL PUSH1 0x20 DUP3 ADD MSTORE SWAP1 JUMP JUMPDEST PUSH2 0x2E60 DUP2 PUSH2 0x1DE0 JUMP JUMPDEST PUSH1 0x3 DUP2 EQ PUSH2 0x2EEF JUMPI PUSH2 0x2E71 DUP2 PUSH2 0x1DE0 JUMP JUMPDEST PUSH1 0x2 DUP2 EQ PUSH2 0x2ECC JUMPI DUP1 PUSH2 0x2E85 PUSH1 0x1 SWAP3 PUSH2 0x1DE0 JUMP JUMPDEST EQ PUSH2 0x2EAC JUMPI PUSH1 0x40 MLOAD PUSH2 0x2E96 DUP2 PUSH2 0x1D17 JUMP JUMPDEST PUSH1 0x6 DUP2 MSTORE PUSH6 0x21B7B6B6B7B7 PUSH1 0xD1 SHL PUSH1 0x20 DUP3 ADD MSTORE SWAP1 JUMP JUMPDEST PUSH1 0x40 MLOAD PUSH2 0x2EB8 DUP2 PUSH2 0x1D17 JUMP JUMPDEST PUSH1 0x4 DUP2 MSTORE PUSH4 0x52617265 PUSH1 0xE0 SHL PUSH1 0x20 DUP3 ADD MSTORE SWAP1 JUMP JUMPDEST POP PUSH1 0x40 MLOAD PUSH2 0x2ED9 DUP2 PUSH2 0x1D17 JUMP JUMPDEST PUSH1 0x6 DUP2 MSTORE PUSH6 0x556E69717565 PUSH1 0xD0 SHL PUSH1 0x20 DUP3 ADD MSTORE SWAP1 JUMP JUMPDEST POP PUSH1 0x40 MLOAD PUSH2 0x2EFC DUP2 PUSH2 0x1D17 JUMP JUMPDEST PUSH1 0x9 DUP2 MSTORE PUSH9 0x4C6567656E64617279 PUSH1 0xB8 SHL PUSH1 0x20 DUP3 ADD MSTORE SWAP1 JUMP JUMPDEST PUSH1 0x3 DUP2 LT ISZERO PUSH2 0xE6B JUMPI DUP1 ISZERO PUSH2 0x2F70 JUMPI PUSH1 0x1 EQ PUSH2 0x2F4D JUMPI PUSH1 0x40 MLOAD PUSH2 0x2F37 DUP2 PUSH2 0x1D17 JUMP JUMPDEST PUSH1 0x6 DUP2 MSTORE PUSH6 0x121E589C9A59 PUSH1 0xD2 SHL PUSH1 0x20 DUP3 ADD MSTORE SWAP1 JUMP JUMPDEST PUSH1 0x40 MLOAD PUSH2 0x2F59 DUP2 PUSH2 0x1D17 JUMP JUMPDEST PUSH1 0x7 DUP2 MSTORE PUSH7 0x135859DA58D85B PUSH1 0xCA SHL PUSH1 0x20 DUP3 ADD MSTORE SWAP1 JUMP JUMPDEST POP PUSH1 0x40 MLOAD PUSH2 0x2F7D DUP2 PUSH2 0x1D17 JUMP JUMPDEST PUSH1 0x8 DUP2 MSTORE PUSH8 0x141A1E5CDA58D85B PUSH1 0xC2 SHL PUSH1 0x20 DUP3 ADD MSTORE SWAP1 JUMP INVALID LOG2 PUSH5 0x6970667358 0x22 SLT KECCAK256 0xEA 0xBE PUSH25 0x69DC10A8ED89F9B138C3B5F7A70C1B570481E7F3AB5F13766A DUP13 0xB0 PUSH28 0x9B64736F6C6343000814003300000000000000000000000000000000 "},"methodIdentifiers":{"approve(address,uint256)":"095ea7b3","balanceOf(address)":"70a08231","breedDragons(uint256,uint256)":"68562d20","dragons(uint256)":"d2a59d69","eggNFT()":"1f8d442a","getApproved(uint256)":"081812fc","getBattlePower(uint256)":"e4a2fe1d","getDragon(uint256)":"e0bb933b","getUserDragons(address)":"47b50c42","hatchEgg(uint256)":"2385554c","isApprovedForAll(address,address)":"e985e9c5","leaderboardContract()":"ff0224d3","name()":"06fdde03","owner()":"8da5cb5b","ownerOf(uint256)":"6352211e","rarityMultipliers(uint8)":"97533259","recordBattleResult(uint256,uint256,uint256)":"168218f6","renounceOwnership()":"715018a6","safeTransferFrom(address,address,uint256)":"42842e0e","safeTransferFrom(address,address,uint256,bytes)":"b88d4fde","setApprovalForAll(address,bool)":"a22cb465","setBaseURI(string)":"55f804b3","setEggNFT(address)":"4315e387","setLeaderboard(address)":"f1a2de72","supportsInterface(bytes4)":"01ffc9a7","symbol()":"95d89b41","tokenURI(uint256)":"c87b56dd","transferFrom(address,address,uint256)":"23b872dd","transferOwnership(address)":"f2fde38b","userDragons(address,uint256)":"0cb2cc14"}}}}}