{"contracts/DragonCityNFT.sol":{"DragonCityNFT":{"abi":[{"inputs":[],"stateMutability":"nonpayable","type":"constructor"},{"inputs":[{"internalType":"address","name":"sender","type":"address"},{"internalType":"uint256","name":"tokenId","type":"uint256"},{"internalType":"address","name":"owner","type":"address"}],"name":"ERC721IncorrectOwner","type":"error"},{"inputs":[{"internalType":"address","name":"operator","type":"address"},{"internalType":"uint256","name":"tokenId","type":"uint256"}],"name":"ERC721InsufficientApproval","type":"error"},{"inputs":[{"internalType":"address","name":"approver","type":"address"}],"name":"ERC721InvalidApprover","type":"error"},{"inputs":[{"internalType":"address","name":"operator","type":"address"}],"name":"ERC721InvalidOperator","type":"error"},{"inputs":[{"internalType":"address","name":"owner","type":"address"}],"name":"ERC721InvalidOwner","type":"error"},{"inputs":[{"internalType":"address","name":"receiver","type":"address"}],"name":"ERC721InvalidReceiver","type":"error"},{"inputs":[{"internalType":"address","name":"sender","type":"address"}],"name":"ERC721InvalidSender","type":"error"},{"inputs":[{"internalType":"uint256","name":"tokenId","type":"uint256"}],"name":"ERC721NonexistentToken","type":"error"},{"inputs":[{"internalType":"address","name":"owner","type":"address"}],"name":"OwnableInvalidOwner","type":"error"},{"inputs":[{"internalType":"address","name":"account","type":"address"}],"name":"OwnableUnauthorizedAccount","type":"error"},{"inputs":[],"name":"ReentrancyGuardReentrantCall","type":"error"},{"anonymous":false,"inputs":[{"indexed":true,"internalType":"address","name":"owner","type":"address"},{"indexed":true,"internalType":"address","name":"approved","type":"address"},{"indexed":true,"internalType":"uint256","name":"tokenId","type":"uint256"}],"name":"Approval","type":"event"},{"anonymous":false,"inputs":[{"indexed":true,"internalType":"address","name":"owner","type":"address"},{"indexed":true,"internalType":"address","name":"operator","type":"address"},{"indexed":false,"internalType":"bool","name":"approved","type":"bool"}],"name":"ApprovalForAll","type":"event"},{"anonymous":false,"inputs":[{"indexed":true,"internalType":"uint256","name":"dragonId","type":"uint256"},{"indexed":true,"internalType":"address","name":"owner","type":"address"},{"indexed":false,"internalType":"enum DragonCityNFT.Element","name":"primary","type":"uint8"},{"indexed":false,"internalType":"enum DragonCityNFT.Element","name":"secondary","type":"uint8"}],"name":"DragonBorn","type":"event"},{"anonymous":false,"inputs":[{"indexed":true,"internalType":"uint256","name":"dragonId","type":"uint256"},{"indexed":false,"internalType":"enum DragonCityNFT.DragonForm","name":"newForm","type":"uint8"}],"name":"DragonEvolved","type":"event"},{"anonymous":false,"inputs":[{"indexed":true,"internalType":"uint256","name":"listingId","type":"uint256"},{"indexed":true,"internalType":"uint256","name":"dragonId","type":"uint256"},{"indexed":false,"internalType":"uint256","name":"price","type":"uint256"}],"name":"DragonListed","type":"event"},{"anonymous":false,"inputs":[{"indexed":true,"internalType":"uint256","name":"dragonId","type":"uint256"},{"indexed":false,"internalType":"string","name":"name","type":"string"}],"name":"DragonNamed","type":"event"},{"anonymous":false,"inputs":[{"indexed":true,"internalType":"uint256","name":"dragonId","type":"uint256"},{"indexed":false,"internalType":"address","name":"from","type":"address"},{"indexed":false,"internalType":"address","name":"to","type":"address"},{"indexed":false,"internalType":"uint256","name":"price","type":"uint256"}],"name":"DragonSold","type":"event"},{"anonymous":false,"inputs":[{"indexed":true,"internalType":"uint256","name":"listingId","type":"uint256"},{"indexed":false,"internalType":"address","name":"buyer","type":"address"},{"indexed":false,"internalType":"uint256","name":"amount","type":"uint256"}],"name":"InstallmentPayment","type":"event"},{"anonymous":false,"inputs":[{"indexed":true,"internalType":"address","name":"previousOwner","type":"address"},{"indexed":true,"internalType":"address","name":"newOwner","type":"address"}],"name":"OwnershipTransferred","type":"event"},{"anonymous":false,"inputs":[{"indexed":true,"internalType":"uint256","name":"dragonId","type":"uint256"},{"indexed":false,"internalType":"string","name":"stat","type":"string"},{"indexed":false,"internalType":"uint256","name":"improvement","type":"uint256"}],"name":"TrainingCompleted","type":"event"},{"anonymous":false,"inputs":[{"indexed":true,"internalType":"uint256","name":"dragonId","type":"uint256"},{"indexed":false,"internalType":"string","name":"stat","type":"string"},{"indexed":false,"internalType":"uint256","name":"duration","type":"uint256"}],"name":"TrainingStarted","type":"event"},{"anonymous":false,"inputs":[{"indexed":true,"internalType":"address","name":"from","type":"address"},{"indexed":true,"internalType":"address","name":"to","type":"address"},{"indexed":true,"internalType":"uint256","name":"tokenId","type":"uint256"}],"name":"Transfer","type":"event"},{"inputs":[],"name":"EVOLUTION_DURATION","outputs":[{"internalType":"uint256","name":"","type":"uint256"}],"stateMutability":"view","type":"function"},{"inputs":[],"name":"INSTALLMENT_COUNT","outputs":[{"internalType":"uint256","name":"","type":"uint256"}],"stateMutability":"view","type":"function"},{"inputs":[],"name":"MARKETPLACE_FEE","outputs":[{"internalType":"uint256","name":"","type":"uint256"}],"stateMutability":"view","type":"function"},{"inputs":[],"name":"PAYMENT_INTERVAL","outputs":[{"internalType":"uint256","name":"","type":"uint256"}],"stateMutability":"view","type":"function"},{"inputs":[],"name":"TRAINING_DURATION","outputs":[{"internalType":"uint256","name":"","type":"uint256"}],"stateMutability":"view","type":"function"},{"inputs":[{"internalType":"uint256","name":"","type":"uint256"}],"name":"activeListingIds","outputs":[{"internalType":"uint256","name":"","type":"uint256"}],"stateMutability":"view","type":"function"},{"inputs":[{"internalType":"uint256","name":"","type":"uint256"}],"name":"activeSessions","outputs":[{"internalType":"uint256","name":"dragonId","type":"uint256"},{"internalType":"uint256","name":"startTime","type":"uint256"},{"internalType":"uint256","name":"duration","type":"uint256"},{"internalType":"uint256","name":"feePaid","type":"uint256"},{"internalType":"string","name":"statToTrain","type":"string"},{"internalType":"bool","name":"completed","type":"bool"}],"stateMutability":"view","type":"function"},{"inputs":[{"internalType":"address","name":"to","type":"address"},{"internalType":"uint256","name":"tokenId","type":"uint256"}],"name":"approve","outputs":[],"stateMutability":"nonpayable","type":"function"},{"inputs":[{"internalType":"address","name":"owner","type":"address"}],"name":"balanceOf","outputs":[{"internalType":"uint256","name":"","type":"uint256"}],"stateMutability":"view","type":"function"},{"inputs":[],"name":"baseTrainingFee","outputs":[{"internalType":"uint256","name":"","type":"uint256"}],"stateMutability":"view","type":"function"},{"inputs":[{"internalType":"uint256","name":"parent1Id","type":"uint256"},{"internalType":"uint256","name":"parent2Id","type":"uint256"}],"name":"breedDragons","outputs":[{"internalType":"uint256","name":"","type":"uint256"}],"stateMutability":"payable","type":"function"},{"inputs":[{"internalType":"uint256","name":"listingId","type":"uint256"}],"name":"buyDragon","outputs":[],"stateMutability":"payable","type":"function"},{"inputs":[{"internalType":"uint256","name":"listingId","type":"uint256"}],"name":"cancelListing","outputs":[],"stateMutability":"nonpayable","type":"function"},{"inputs":[{"internalType":"uint256","name":"dragonId","type":"uint256"}],"name":"completeTraining","outputs":[],"stateMutability":"nonpayable","type":"function"},{"inputs":[{"internalType":"enum DragonCityNFT.Element","name":"primary","type":"uint8"},{"internalType":"enum DragonCityNFT.Element","name":"secondary","type":"uint8"},{"internalType":"enum DragonCityNFT.Rarity","name":"rarity","type":"uint8"}],"name":"createDragon","outputs":[{"internalType":"uint256","name":"","type":"uint256"}],"stateMutability":"payable","type":"function"},{"inputs":[{"internalType":"uint256","name":"","type":"uint256"}],"name":"dragons","outputs":[{"internalType":"uint256","name":"id","type":"uint256"},{"internalType":"string","name":"name","type":"string"},{"internalType":"enum DragonCityNFT.Element","name":"primary","type":"uint8"},{"internalType":"enum DragonCityNFT.Element","name":"secondary","type":"uint8"},{"internalType":"enum DragonCityNFT.Rarity","name":"rarity","type":"uint8"},{"internalType":"enum DragonCityNFT.DragonForm","name":"form","type":"uint8"},{"internalType":"uint256","name":"attack","type":"uint256"},{"internalType":"uint256","name":"defense","type":"uint256"},{"internalType":"uint256","name":"health","type":"uint256"},{"internalType":"uint256","name":"speed","type":"uint256"},{"internalType":"uint256","name":"level","type":"uint256"},{"internalType":"uint256","name":"experience","type":"uint256"},{"internalType":"uint256","name":"trainingCount","type":"uint256"},{"internalType":"uint256","name":"wins","type":"uint256"},{"internalType":"uint256","name":"losses","type":"uint256"},{"internalType":"uint256","name":"birthTime","type":"uint256"},{"internalType":"uint256","name":"lastTrainingTime","type":"uint256"},{"internalType":"uint256","name":"parentId1","type":"uint256"},{"internalType":"uint256","name":"parentId2","type":"uint256"},{"internalType":"bool","name":"isEvolved","type":"bool"}],"stateMutability":"view","type":"function"},{"inputs":[],"name":"evolutionFee","outputs":[{"internalType":"uint256","name":"","type":"uint256"}],"stateMutability":"view","type":"function"},{"inputs":[{"internalType":"enum DragonCityNFT.Rarity","name":"","type":"uint8"}],"name":"evolutionLevelRequired","outputs":[{"internalType":"uint256","name":"","type":"uint256"}],"stateMutability":"view","type":"function"},{"inputs":[{"internalType":"uint256","name":"dragonId","type":"uint256"}],"name":"evolveDragon","outputs":[],"stateMutability":"payable","type":"function"},{"inputs":[],"name":"gameToken","outputs":[{"internalType":"contract IERC20","name":"","type":"address"}],"stateMutability":"view","type":"function"},{"inputs":[],"name":"getActiveListings","outputs":[{"internalType":"uint256[]","name":"","type":"uint256[]"}],"stateMutability":"view","type":"function"},{"inputs":[{"internalType":"uint256","name":"tokenId","type":"uint256"}],"name":"getApproved","outputs":[{"internalType":"address","name":"","type":"address"}],"stateMutability":"view","type":"function"},{"inputs":[{"internalType":"uint256","name":"dragonId","type":"uint256"}],"name":"getBattlePower","outputs":[{"internalType":"uint256","name":"","type":"uint256"}],"stateMutability":"view","type":"function"},{"inputs":[{"internalType":"uint256","name":"dragonId","type":"uint256"}],"name":"getDragon","outputs":[{"components":[{"internalType":"uint256","name":"id","type":"uint256"},{"internalType":"string","name":"name","type":"string"},{"internalType":"enum DragonCityNFT.Element","name":"primary","type":"uint8"},{"internalType":"enum DragonCityNFT.Element","name":"secondary","type":"uint8"},{"internalType":"enum DragonCityNFT.Rarity","name":"rarity","type":"uint8"},{"internalType":"enum DragonCityNFT.DragonForm","name":"form","type":"uint8"},{"internalType":"uint256","name":"attack","type":"uint256"},{"internalType":"uint256","name":"defense","type":"uint256"},{"internalType":"uint256","name":"health","type":"uint256"},{"internalType":"uint256","name":"speed","type":"uint256"},{"internalType":"uint256","name":"level","type":"uint256"},{"internalType":"uint256","name":"experience","type":"uint256"},{"internalType":"uint256","name":"trainingCount","type":"uint256"},{"internalType":"uint256","name":"wins","type":"uint256"},{"internalType":"uint256","name":"losses","type":"uint256"},{"internalType":"uint256","name":"birthTime","type":"uint256"},{"internalType":"uint256","name":"lastTrainingTime","type":"uint256"},{"internalType":"uint256","name":"parentId1","type":"uint256"},{"internalType":"uint256","name":"parentId2","type":"uint256"},{"internalType":"bool","name":"isEvolved","type":"bool"}],"internalType":"struct DragonCityNFT.Dragon","name":"","type":"tuple"}],"stateMutability":"view","type":"function"},{"inputs":[{"internalType":"address","name":"user","type":"address"}],"name":"getUserDragons","outputs":[{"internalType":"uint256[]","name":"","type":"uint256[]"}],"stateMutability":"view","type":"function"},{"inputs":[{"internalType":"uint256","name":"","type":"uint256"}],"name":"installmentPlans","outputs":[{"internalType":"uint256","name":"listingId","type":"uint256"},{"internalType":"address","name":"buyer","type":"address"},{"internalType":"uint256","name":"totalPrice","type":"uint256"},{"internalType":"uint256","name":"paidAmount","type":"uint256"},{"internalType":"uint256","name":"installmentsPaid","type":"uint256"},{"internalType":"uint256","name":"lastPaymentTime","type":"uint256"},{"internalType":"bool","name":"completed","type":"bool"}],"stateMutability":"view","type":"function"},{"inputs":[{"internalType":"address","name":"owner","type":"address"},{"internalType":"address","name":"operator","type":"address"}],"name":"isApprovedForAll","outputs":[{"internalType":"bool","name":"","type":"bool"}],"stateMutability":"view","type":"function"},{"inputs":[{"internalType":"uint256","name":"dragonId","type":"uint256"},{"internalType":"uint256","name":"price","type":"uint256"},{"internalType":"bool","name":"acceptInstallments","type":"bool"}],"name":"listDragon","outputs":[],"stateMutability":"nonpayable","type":"function"},{"inputs":[{"internalType":"uint256","name":"","type":"uint256"}],"name":"listings","outputs":[{"internalType":"uint256","name":"dragonId","type":"uint256"},{"internalType":"address","name":"seller","type":"address"},{"internalType":"uint256","name":"price","type":"uint256"},{"internalType":"bool","name":"acceptsInstallments","type":"bool"},{"internalType":"bool","name":"active","type":"bool"},{"internalType":"uint256","name":"listedAt","type":"uint256"}],"stateMutability":"view","type":"function"},{"inputs":[],"name":"name","outputs":[{"internalType":"string","name":"","type":"string"}],"stateMutability":"view","type":"function"},{"inputs":[{"internalType":"uint256","name":"dragonId","type":"uint256"},{"internalType":"string","name":"newName","type":"string"}],"name":"nameDragon","outputs":[],"stateMutability":"nonpayable","type":"function"},{"inputs":[],"name":"owner","outputs":[{"internalType":"address","name":"","type":"address"}],"stateMutability":"view","type":"function"},{"inputs":[{"internalType":"uint256","name":"tokenId","type":"uint256"}],"name":"ownerOf","outputs":[{"internalType":"address","name":"","type":"address"}],"stateMutability":"view","type":"function"},{"inputs":[{"internalType":"uint256","name":"listingId","type":"uint256"}],"name":"payInstallment","outputs":[],"stateMutability":"payable","type":"function"},{"inputs":[],"name":"renounceOwnership","outputs":[],"stateMutability":"nonpayable","type":"function"},{"inputs":[{"internalType":"address","name":"from","type":"address"},{"internalType":"address","name":"to","type":"address"},{"internalType":"uint256","name":"tokenId","type":"uint256"}],"name":"safeTransferFrom","outputs":[],"stateMutability":"nonpayable","type":"function"},{"inputs":[{"internalType":"address","name":"from","type":"address"},{"internalType":"address","name":"to","type":"address"},{"internalType":"uint256","name":"tokenId","type":"uint256"},{"internalType":"bytes","name":"data","type":"bytes"}],"name":"safeTransferFrom","outputs":[],"stateMutability":"nonpayable","type":"function"},{"inputs":[{"internalType":"address","name":"operator","type":"address"},{"internalType":"bool","name":"approved","type":"bool"}],"name":"setApprovalForAll","outputs":[],"stateMutability":"nonpayable","type":"function"},{"inputs":[{"internalType":"address","name":"_token","type":"address"}],"name":"setGameToken","outputs":[],"stateMutability":"nonpayable","type":"function"},{"inputs":[{"internalType":"uint256","name":"_fee","type":"uint256"}],"name":"setTrainingFee","outputs":[],"stateMutability":"nonpayable","type":"function"},{"inputs":[{"internalType":"uint256","name":"listingId","type":"uint256"}],"name":"startInstallmentPurchase","outputs":[],"stateMutability":"payable","type":"function"},{"inputs":[{"internalType":"uint256","name":"dragonId","type":"uint256"},{"internalType":"string","name":"stat","type":"string"}],"name":"startTraining","outputs":[],"stateMutability":"payable","type":"function"},{"inputs":[{"internalType":"bytes4","name":"interfaceId","type":"bytes4"}],"name":"supportsInterface","outputs":[{"internalType":"bool","name":"","type":"bool"}],"stateMutability":"view","type":"function"},{"inputs":[],"name":"symbol","outputs":[{"internalType":"string","name":"","type":"string"}],"stateMutability":"view","type":"function"},{"inputs":[{"internalType":"uint256","name":"tokenId","type":"uint256"}],"name":"tokenURI","outputs":[{"internalType":"string","name":"","type":"string"}],"stateMutability":"view","type":"function"},{"inputs":[{"internalType":"address","name":"from","type":"address"},{"internalType":"address","name":"to","type":"address"},{"internalType":"uint256","name":"tokenId","type":"uint256"}],"name":"transferFrom","outputs":[],"stateMutability":"nonpayable","type":"function"},{"inputs":[{"internalType":"address","name":"newOwner","type":"address"}],"name":"transferOwnership","outputs":[],"stateMutability":"nonpayable","type":"function"},{"inputs":[],"name":"useTokenForFees","outputs":[{"internalType":"bool","name":"","type":"bool"}],"stateMutability":"view","type":"function"},{"inputs":[{"internalType":"address","name":"","type":"address"},{"internalType":"uint256","name":"","type":"uint256"}],"name":"userDragons","outputs":[{"internalType":"uint256","name":"","type":"uint256"}],"stateMutability":"view","type":"function"},{"inputs":[{"internalType":"address","name":"","type":"address"},{"internalType":"uint256","name":"","type":"uint256"}],"name":"userListings","outputs":[{"internalType":"uint256","name":"","type":"uint256"}],"stateMutability":"view","type":"function"},{"inputs":[],"name":"withdraw","outputs":[],"stateMutability":"nonpayable","type":"function"}],"evm":{"bytecode":{"linkReferences":{},"object":"608034620003d7576040906001600160401b039080830182811182821017620003c1578352600b815260206a447261676f6e204369747960a81b8183015283519284840184811082821117620003c15785526006845265222920a3a7a760d11b828501528251818111620003c1576000948554916001958684811c94168015620003b6575b86851014620003a2578190601f948581116200034f575b508690858311600114620002eb578992620002df575b5050600019600383901b1c191690861b1786555b8051928311620002cb5784548581811c91168015620002c0575b85821014620002ac579081838594931162000257575b5084918311600114620001f3578692620001e7575b5050600019600383901b1c191690831b1782555b3315620001cf5760068054336001600160a01b0319821681179092556032948694909390926014926001600160a01b03167f8be0079c531659141344cd1fd0a4f28419497f9722a3daafe3b4186f6b6457e08680a382600755826008558260095566038d7ea4c68000600a55662386f26fc10000600b5583805252600a838320558152600f828220556002815260148282205560038152601e8282205560048152205551613f789081620003dd8239f35b8351631e4fbdf760e01b815260048101849052602490fd5b0151905038806200010a565b8587528487208694509190601f198416885b8782821062000240575050841162000226575b505050811b0182556200011e565b015160001960f88460031b161c1916905538808062000218565b838501518655899790950194938401930162000205565b909192508587528487208380860160051c820192878710620002a2575b91869589929594930160051c01915b82811062000293575050620000f5565b89815586955088910162000283565b9250819262000274565b634e487b7160e01b87526022600452602487fd5b90607f1690620000df565b634e487b7160e01b86526041600452602486fd5b015190503880620000b1565b898052878a208994509190601f1984168b5b8a8282106200033857505084116200031e575b505050811b018655620000c5565b015160001960f88460031b161c1916905538808062000310565b8385015186558c97909501949384019301620002fd565b9091508880528689208580850160051c82019289861062000398575b918a91869594930160051c01915b828110620003895750506200009b565b8b81558594508a910162000379565b925081926200036b565b634e487b7160e01b88526022600452602488fd5b93607f169362000084565b634e487b7160e01b600052604160045260246000fd5b600080fdfe61010080604052600436101561001457600080fd5b60003560e01c90816301ffc9a7146132815750806306fdde03146131de578063081812fc146131a0578063095ea7b3146130b95780630cb2cc141461306f5780630ea92db21461305357806320dd0c841461273957806323b872dd1461303c57806325d9ddd214612e67578063305a67a814612dd75780633653a5f814612da65780633aa229e7146129ee5780633ccfd60b146129aa578063415ea6c1146127e457806342842e0e146127b657806347b50c421461273e5780634939504e1461273957806361687670146127185780636352211e146126e85780636415dbde146122eb57806368562d2014611abd57806370a0823114611a64578063715018a614611a0757806380d29e66146119c4578063862a93e8146117df57806386cfa7d31461178757806387c35bc0146117005780638d159787146116015780638da5cb5b146115d85780638eb27d02146115ba57806395d89b41146114db578063967f083e146114be5780639c103c61146114a2578063a22cb465146113f4578063a996aeb8146113d6578063ac56783614611165578063b4d34441146110eb578063b88d4fde1461107e578063c3dfdae614611055578063c6e5a41914610fc6578063c87b56dd14610f6f578063d0258ba514610c3d578063d2a59d6914610aa8578063de74e57b14610a36578063e0bb933b1461075d578063e2f8a01714610513578063e3b6a1f6146104c2578063e4a2fe1d1461035b578063e985e9c514610305578063f2c19d31146102df5763f2fde38b1461025157600080fd5b346102da5760203660031901126102da5761026a613334565b610272613639565b6001600160a01b039081169081156102c157600654826001600160601b0360a01b821617600655167f8be0079c531659141344cd1fd0a4f28419497f9722a3daafe3b4186f6b6457e0600080a3005b604051631e4fbdf760e01b815260006004820152602490fd5b600080fd5b346102da5760003660031901126102da57602060ff600c5460a01c166040519015158152f35b346102da5760403660031901126102da5761031e613334565b61032661334a565b9060018060a01b03809116600052600560205260406000209116600052602052602060ff604060002054166040519015158152f35b346102da5760203660031901126102da57600435600052600d60205260206104ba60406000206104b26040516103908161343a565b825481526040516103af816103a8816001880161357c565b038261348c565b858201526103fd60ff60028501546103cc82821660408601613a78565b6103de828260081c1660608601613a78565b6103f0828260101c1660808601613a84565b60181c1660a08301613a90565b6104aa60038401548060c08401526004850154908160e08501526005860154610100850152600686015493610120810194855261026060ff601060078a01549961014085019a8b5260088101546101608601526009810154610180860152600a8101546101a0860152600b8101546101c0860152600c8101546101e0860152600d810154610200860152600e810154610220860152600f8101546102408601520154161515910152613c8f565b905190613c8f565b905190613a65565b604051908152f35b346102da5760203660031901126102da576004356013548110156102da5760209060136000527f66de8ffda797e3de9c05e8fc57b3bf0ec28a930d40b0d285d93c06501cf6a0900154604051908152f35b6020806003193601126102da5760043561052b613c9c565b6000818152601183526040902060018101546001600160a01b039291908316330361072c57600681019081549061056560ff831615613cf7565b600581019081546201518081018091116106e65742106106fc5790600482610597600360028196015404341015613deb565b8381016105a5348254613c8f565b905501906105b38254613a56565b918290554290556040805133815234602082015286917f64c7bc57c4f4cc77014ed4b76e7682aa9954346d9a1f1754414c12f224e9070891a210156105fa575b6001600755005b60019060ff19161790556000526010825260116040600020925260406000206002830190815460fa81029080820460fa14811517156106e657612710610641920490613e2e565b6000808080600188818b0154169660038b549b0161ff00198154169055019461066e8a8a88541630613d37565b868282156106dd575bf1156106d157549154604080516001600160a01b039384168152949093169091166020840152908201527f921c8b778aa5da00e865fbebd027acf9388620c626df2cd24df3cf3768e96ed890606090a280808080806105f3565b6040513d6000823e3d90fd5b506108fc610677565b634e487b7160e01b600052601160045260246000fd5b60405162461bcd60e51b81526004810188905260086024820152672a37b79039b7b7b760c11b6044820152606490fd5b60405162461bcd60e51b81526004810185905260096024820152682737ba10313abcb2b960b91b6044820152606490fd5b346102da5760203660031901126102da57600061026060405161077f8161343a565b828152606060208201528260408201528260608201528260808201528260a08201528260c08201528260e08201528261010082015282610120820152826101408201528261016082015282610180820152826101a0820152826101c0820152826101e08201528261020082015282610220820152826102408201520152600435600052600d602052604060002060ff60106040519261081d8461343a565b80548452604051610835816103a8816001860161357c565b602085015261088283600283015461085282821660408901613a78565b610864828260081c1660608901613a78565b6108758282871c1660808901613a84565b60181c1660a08601613a90565b600381015460c0850152600481015460e085015260058101546101008501526006810154610120850152600781015461014085015260088101546101608501526009810154610180850152600a8101546101a0850152600b8101546101c0850152600c8101546101e0850152600d810154610200850152600e810154610220850152600f810154610240850152015416151561026082015260405180916020825280516020830152610260610948602083015161028060408601526102a085019061330f565b9161095b60408201516060860190613612565b61096d60608201516080860190613612565b61097f608082015160a086019061361f565b61099160a082015160c086019061362c565b60c081015160e085015260e08101516101008501526101008101516101208501526101208101516101408501526101408101516101608501526101608101516101808501526101808101516101a08501526101a08101516101c08501526101c08101516101e08501526101e081015161020085015261020081015161022085015261022081015161024085015261024081015182850152015115156102808301520390f35b346102da5760203660031901126102da57600435600052601060205260c0604060002080549060ff60018060a01b036001830154169160028101546004600383015492015493604051958652602086015260408501528181161515606085015260081c161515608083015260a0820152f35b346102da5760203660031901126102da57600435600052600d60205260406000208054610aeb60405180608052610ae2816001860161357c565b0360805161348c565b600282015460c052600382015460a05260048201549160058101546006820154600783015460088401546009850154600a86015490600b87015492600c88015494600d89015496600e8a01549860ff6010600f8d01549c0154169b6040518060e05252610b6861028080602060e051015260e0510160805161330f565b9c610b7d604060e0510160ff60c05116613612565b610b94606060e0510160ff60c05160081c16613612565b610bab608060e0510160ff60c05160101c1661361f565b610bc260a060e0510160ff60c05160181c1661362c565b60a05160c060e051015260e08051015261010060e051015261012060e051015261014060e051015261016060e051015261018060e05101526101a060e05101526101c060e05101526101e060e051015261020060e051015261022060e051015261024060e0510152151561026060e051015260e05180910390f35b610c46366134ff565b90610c4f613c9c565b610c6b610c5b826138cd565b6001600160a01b03163314613cbf565b80600052602091600f8352604060002060ff600582015416908115610f62575b5015610f2657600a549282600052600d8152600a60076040600020015404936001948581018091116106e657610cc091613a65565b3410610ee257604051610cd28161341f565b838152818101904282526040810191610e109283815260608301348152608084019187835260a08501936000855289600052600f8852604060002095518655518a8601555160028501555160038401556004830190518051906001600160401b038211610ecc578990610d458454613542565b601f8111610e83575b508790601f8411600114610dec57938380610dd59a98956005957fbe8474f46f152def007daccc49cb9b5c7e8c25d32ed484741f4094362f34a0e09d9b9995610dc199600094610de1575b50501b916000199060031b1c19161790555b51151591019060ff801983541691151516179055565b60405193849360408552604085019061330f565b918301520390a2600755005b015192503880610d99565b90601f9392931983169185600052896000209260005b818110610e6c5750937fbe8474f46f152def007daccc49cb9b5c7e8c25d32ed484741f4094362f34a0e09b999793610dc19793610dd59c9a97938360059810610e53575b505050811b019055610dab565b015160001960f88460031b161c191690558e8080610e46565b8284015185558e9690940193928b01928b01610e02565b8460005288600020601f850160051c8101918a8610610ec2575b601f0160051c019083905b828110610eb6575050610d4e565b60008155018390610ea8565b9091508190610e9d565b634e487b7160e01b600052604160045260246000fd5b6064906040519062461bcd60e51b82526004820152601960248201527f496e73756666696369656e7420747261696e696e6720666565000000000000006044820152fd5b60405162461bcd60e51b8152600481018490526014602482015273547261696e696e6720696e2070726f677265737360601b6044820152606490fd5b6001915001541584610c8b565b346102da5760203660031901126102da57610f8b6004356138cd565b506000604051610f9a81613456565b52610fc2604051610faa81613456565b6000815260405191829160208352602083019061330f565b0390f35b346102da5760203660031901126102da57600435600052600f60205260406000208054600182015491611049600282015491600381015460ff60056040519361101d85611016816004850161357c565b038661348c565b01541693604051968796875260208701526040860152606085015260c0608085015260c084019061330f565b90151560a08301520390f35b346102da5760003660031901126102da57600c546040516001600160a01b039091168152602090f35b346102da5760803660031901126102da57611097613334565b61109f61334a565b90604435606435926001600160401b0384116102da57366023850112156102da576110d76110e99436906024816004013591016134c8565b926110e3838383613665565b33613908565b005b346102da5760203660031901126102da57600435600052601160205260e0604060002080549060018060a01b03600182015416906002810154600382015460048301549160ff600660058601549501541694604051968752602087015260408601526060850152608084015260a0830152151560c0820152f35b6020806003193601126102da576004359061117e613c9c565b61118a610c5b836138cd565b81600052600d815260406000209060028201805460ff8160181c1660048110156112c657600381146113995760078501546111ca60ff8460101c166133cb565b541161136457600b54341061131f57806112dc575050805463ff000000191663010000001781555b549160ff8360101c1660058110156112c657600a810290808204600a14901517156106e657601401806014116106e65760038201611231828254613c8f565b905560048201611242828254613c8f565b90558060011b93818504600214821517156106e6576010836112be937f6385d084360729354e8d585433e82760d1bc5cd7bc804bd7294e06a8f282bf2497611291600560ff9801918254613c8f565b90556112a260068301918254613c8f565b9055016001841982541617905560405192839160181c1661362c565ba26001600755005b634e487b7160e01b600052602160045260246000fd5b600181036112fc575050805463ff000000191663020000001781556111f2565b60021461130a575b506111f2565b63ff0000001916630300000017815584611304565b60405162461bcd60e51b815260048101859052601a60248201527f496e73756666696369656e742065766f6c7574696f6e206665650000000000006044820152606490fd5b60405162461bcd60e51b815260048101859052600d60248201526c4c6576656c20746f6f206c6f7760981b6044820152606490fd5b60405162461bcd60e51b8152600481018590526015602482015274416c726561647920756c74696d61746520666f726d60581b6044820152606490fd5b346102da5760003660031901126102da576020600a54604051908152f35b346102da5760403660031901126102da5761140d613334565b60243590811515908183036102da576001600160a01b03169182156114895761145b9033600052600560205260406000208460005260205260406000209060ff801983541691151516179055565b6040519081527f17307eab39ab6107e8899845ad3d59bd9653f200f220920489ca2b5937696c3160203392a3005b604051630b61174360e31b815260048101849052602490fd5b346102da5760003660031901126102da57602060405160fa8152f35b346102da5760003660031901126102da576020604051610e108152f35b346102da5760003660031901126102da57604051600060018054906114ff82613542565b80855291818116908115611593575060011461153a575b610fc2846115268186038261348c565b60405191829160208352602083019061330f565b600081815292507fb10e2d527612073b26eecdfd717e6a320cf44b4afac2b0732d9fcbe2b7fa0cf65b82841061157b57505050810160200161152682611516565b80546020858701810191909152909301928101611563565b60ff191660208087019190915292151560051b850190920192506115269150839050611516565b346102da5760003660031901126102da576020600b54604051908152f35b346102da5760003660031901126102da576006546040516001600160a01b039091168152602090f35b60203660031901126102da57611615613c9c565b600435600052601060205260406000206003810180549161163b60ff8460081c16613db2565b600281019182549061164f82341015613deb565b60fa820282810460fa14831517156106e6576000809392611677829461271084950490613e2e565b9060018060a01b0360018801541696549861ff001916905561169a883330613d37565b858282156116f7575bf1156106d1579054604080516001600160a01b0390931683523360208401528201527f921c8b778aa5da00e865fbebd027acf9388620c626df2cd24df3cf3768e96ed89080606081015b0390a26001600755005b506108fc6116a3565b346102da5760003660031901126102da57604051806013549182815260208091019260136000527f66de8ffda797e3de9c05e8fc57b3bf0ec28a930d40b0d285d93c06501cf6a090916000905b82821061177057610fc2856117648189038261348c565b604051918291826133e4565b83548652948501946001938401939091019061174d565b346102da5760403660031901126102da576117a0613334565b6001600160a01b03166000908152601260205260409020805460243591908210156102da576020916117d191613360565b90546040519160031b1c8152f35b346102da576117ed366134ff565b906117fa610c5b826138cd565b815180151590816119b8575b501561197d5780600052602091600d83526001928360406000200182516001600160401b038111610ecc5761183b8254613542565b601f8111611934575b508295601f82116001146118b5578180917f2ca2d10ff2fb729a7904a4320c50e1360e6efc505ebca313438474abe76d2be197986000936118aa575b501b916000199060031b1c19161790555b6118a560405192828493845283019061330f565b0390a2005b870151925089611880565b90601f1981169683600052846000209060005b89811061191f5750827f2ca2d10ff2fb729a7904a4320c50e1360e6efc505ebca313438474abe76d2be1989910611906575b5050811b019055611891565b86015160001960f88460031b161c1916905587806118fa565b878201518355918401919086019086016118c8565b8260005283600020601f830160051c810191858410611973575b601f0160051c019087905b828110611967575050611844565b60008155018790611959565b909150819061194e565b60405162461bcd60e51b8152602060048201526013602482015272092dcecc2d8d2c840dcc2daca40d8cadccee8d606b1b6044820152606490fd5b60209150111583611806565b346102da5760203660031901126102da576119dd613334565b6119e5613639565b600c80546001600160a01b0319166001600160a01b0392909216919091179055005b346102da5760003660031901126102da57611a20613639565b600680546001600160a01b031981169091556000906001600160a01b03167f8be0079c531659141344cd1fd0a4f28419497f9722a3daafe3b4186f6b6457e08280a3005b346102da5760203660031901126102da576001600160a01b03611a85613334565b168015611aa45760005260036020526020604060002054604051908152f35b6040516322718ad960e21b815260006004820152602490fd5b60403660031901126102da57611ad1613c9c565b611adc6004356138cd565b6001600160a01b039033908216036122ae573390611afb6024356138cd565b160361227157600435600052600d60205260046007604060002001541061223357602435600052600d6020526004600760406000200154106121f55766b1a2bc2ec5000034106121b857600435600052600d602052604060002060ff601060405192611b668461343a565b80548452604051611b7e816103a8816001860161357c565b6020850152611b9b83600283015461085282821660408901613a78565b600381015460c0850152600481015460e085015260058101546101008501526006810154610120850152600781015461014085015260088101546101608501526009810154610180850152600a8101546101a0850152600b8101546101c0850152600c8101546101e0850152600d810154610200850152600e810154610220850152600f8101546102408501520154161515610260820152602435600052600d602052604060002060ff601060405192611c548461343a565b80548452604051611c6c816103a8816001860161357c565b6020850152611c8983600283015461085282821660408901613a78565b600381015460c0850152600481015460e085015260058101546101008501526006810154610120850152600781015461014085015260088101546101608501526009810154610180850152600a8101546101a0850152600b8101546101c0850152600c8101546101e0850152600d810154610200850152600e810154610220850152600f81015461024085015201541615156102608201526040820151600a8110156112c657604082015192600a8410156112c657608081015160058110156112c65760808401519060058210156112c65711156121a457608081015160058110156112c657925b60085493611d7e85613a56565b600855611db3611d8d82613e3b565b9260e080611da460c088015160c085015190613c8f565b60011c96015191015190613c8f565b60011c611e14611e0a611dc588613e7d565b95611e046028604051809967447261676f6e202360c01b6020830152611df481518092602086860191016132ec565b810103600881018a52018861348c565b85613c8f565b60011c9184613c8f565b60011c91838060011b04600214841517156106e657611e659060405195611e3a8761343a565b8887526020870152611e4f8760408801613a78565b611e5c8960608801613a78565b60808601613a84565b600060a085015260c084015260e08301528060011b61010083015261012082015260016101408201526000610160820152600061018082015260006101a082015260006101c0820152426101e08201526000610200820152600435610220820152602435610240820152600061026082015282600052600d6020526040600020938151855560208201518051906001600160401b038211610ecc578190611f0f6001890154613542565b601f8111612151575b50602090601f83116001146120df576000926120d4575b50508160011b916000199060031b1c19161760018601555b6040820151600a8110156112c6576002860154606084015190600a8210156112c65760808501519060058210156112c65760ff62ff000061ff009360101b1694169062ffffff1916179160081b161717600286015560a082015160048110156112c6578560106102606120a095611fc661206a95600260209c01613a9c565b60c0810151600385015560e08101516004850155610100810151600585015561012081015160068501556101408101516007850155610160810151600885015561018081015160098501556101a0810151600a8501556101c0810151600b8501556101e0810151600c850155610200810151600d850155610220810151600e850155610240810151600f8501550151151591019060ff801983541691151516179055565b33600052600e8552612080846040600020613abf565b61208a8433613af4565b6120976040518094613612565b84830190613612565b817f12d357f460fffe1442e0897baf3a26312e1a818c5d58b42693368b707fbea6e160403393a36001600755604051908152f35b015190508780611f2f565b9250600188016000526020600020906000935b601f1984168510612136576001945083601f1981161061211d575b505050811b016001860155611f47565b015160001960f88460031b161c1916905587808061210d565b818101518355602094850194600190930192909101906120f2565b909150600188016000526020600020601f840160051c81016020851061219d575b90849392915b601f830160051c8201811061218e575050611f18565b60008155859450600101612178565b5080612172565b608083015160058110156112c65792611d71565b60405162461bcd60e51b8152602060048201526015602482015274109c9959591a5b99c8199959481c995c5d5a5c9959605a1b6044820152606490fd5b60405162461bcd60e51b8152602060048201526016602482015275506172656e742032206c6576656c20746f6f206c6f7760501b6044820152606490fd5b60405162461bcd60e51b8152602060048201526016602482015275506172656e742031206c6576656c20746f6f206c6f7760501b6044820152606490fd5b60405162461bcd60e51b81526020600482015260156024820152742737ba1037bbb732b91037b3103830b932b73a101960591b6044820152606490fd5b60405162461bcd60e51b81526020600482015260156024820152744e6f74206f776e6572206f6620706172656e74203160581b6044820152606490fd5b346102da576020806003193601126102da5760043561230c610c5b826138cd565b80600052600f82526040600020600192838201549182156126ad5760056123498183019461233e60ff87541615613cf7565b600284015490613c8f565b42106126705784600052600d835260406000209560039283810154600a5490811561265a57049783890298808a048514901517156106e657600460089201967f46d1af4265f4530c75b41282ed3b71617d3d435e96fe13b08848482173692f4f6040516123ba816103a8818d61357c565b8881519101206561747461636b60d01b896040516123d781613471565b60068152015203612519578582016123f08b8254613c8f565b90555b600982016124018154613a56565b905542600d8301558360ff1982541617905501805490603282018092116106e6575585600052600d84526040600020916007830192835494606495868102908082048814901517156106e657600883018583850191600486019360068888019701985b6124af575b8d8f6124a68f8f7f8728c4e179fff9e80c2536ee7e38ed8130ec569e2c63fbda3c795e199c1a810c9360405193849360408552604085019061357c565b918301520390a2005b815410612513576124c08954613a56565b808a5583548681018091116106e657845584548681018091116106e657855586548881018091116106e65787558854600281018091116106e65789558a8102908082048c14901517156106e65782612464565b80612469565b7fc44da315fa8bc9654e62bdbfff44a77a572e467f40cbd23b7e611bf2d660428560405161254b816103a8818d61357c565b88815191012066646566656e736560c81b8960405161256981613471565b6007815201520361258b57600482016125838b8254613c8f565b90555b6123f3565b7f9005b4bf3e8c5705ff2b172ed7c0ff76f0096efed0943457e640b66da01b97d26040516125bd816103a8818d61357c565b888151910120650d0cac2d8e8d60d31b896040516125da81613471565b600681520152036125f3578482016125838b8254613c8f565b7f1aa3a92bf48444ec6c0ba221a56ba9a0eedb5e06c28b451a0096d0683ff4fdd3604051612625816103a8818d61357c565b888151910120641cdc19595960da1b8960405161264181613471565b89815201520361258657600682016125838b8254613c8f565b634e487b7160e01b600052601260045260246000fd5b60405162461bcd60e51b8152600481018490526015602482015274151c985a5b9a5b99c81b9bdd08199a5b9a5cda1959605a1b6044820152606490fd5b60405162461bcd60e51b81526004810183905260136024820152722737903a3930b4b734b7339039b2b9b9b4b7b760691b6044820152606490fd5b346102da5760203660031901126102da5760206127066004356138cd565b6040516001600160a01b039091168152f35b346102da5760203660031901126102da57612731613639565b600435600a55005b613378565b346102da576020806003193601126102da576001600160a01b03612760613334565b16600052600e8152604060002090604051908181845491828152019360005281600020916000905b82821061279f57610fc2856117648189038261348c565b835486529485019460019384019390910190612788565b346102da576110e96127c736613396565b90604051926127d584613456565b600084526110e3838383613665565b6020806003193601126102da57600435906127fd613c9c565b8160005260108152604060002060ff600382015461281f828260081c16613db2565b1615612965576002015490600382043410612921576040519060e08201908282106001600160401b03831117610ecc576128e99360069260405285845281840190338252604085019081526060850134815260808601916001835260a0870193428552601160c0890196600088528b60005252604060002097518855600188019060018060a01b039051166001600160601b0360a01b82541617905551600287015551600386015551600485015551600584015551151591019060ff801983541691151516179055565b604080513381523460208201527f64c7bc57c4f4cc77014ed4b76e7682aa9954346d9a1f1754414c12f224e9070891819081016116ed565b6064906040519062461bcd60e51b82526004820152601a60248201527f496e73756666696369656e74206669727374207061796d656e740000000000006044820152fd5b60405162461bcd60e51b815260048101839052601960248201527f496e7374616c6c6d656e7473206e6f74206163636570746564000000000000006044820152606490fd5b346102da5760003660031901126102da576129c3613639565b600080808060018060a01b036006541647908282156129e5575bf1156106d157005b506108fc6129dd565b60603660031901126102da57600a60043510156102da57600a60243510156102da57600560443510156102da57662386f26fc100003410612d6957600854612a3581613a56565b600855612a43604435613e3b565b612a4c82613e7d565b90612a8b6028604051809467447261676f6e202360c01b6020830152612a7b81518092602086860191016132ec565b810103600881018552018361348c565b808060011b04600214811517156106e65760405191612aa98361343a565b8383526020830152612ac060043560408401613a78565b612acf60243560608401613a78565b612ade60443560808401613a84565b600060a08301528060c08301528060e08301528060011b61010083015261012082015260016101408201526000610160820152600061018082015260006101a082015260006101c0820152426101e0820152600061020082015260006102208201526000610240820152600061026082015281600052600d6020526040600020918151835560208201519283516001600160401b038111610ecc57612b866001830154613542565b601f8111612d22575b506020601f8211600114612cb5578192939495600092612caa575b50508160011b916000199060031b1c19161760018201555b6040830151600a8110156112c6576002820154606085015190600a8210156112c65760808601519060058210156112c65760ff62ff000061ff009360101b1694169062ffffff1916179160081b161717600282015560a08301519060048210156112c6576010610260602095611fc6612c3e9560028601613a9c565b33600052600e8252612c54816040600020613abf565b612c5e8133613af4565b604051612c6d81600435613612565b612c7b838201602435613612565b817f12d357f460fffe1442e0897baf3a26312e1a818c5d58b42693368b707fbea6e160403393a3604051908152f35b015190508580612baa565b60018301600052602060002090600096601f198416975b888110612d0a57508360019596979810612cf1575b505050811b016001820155612bc2565b015160001960f88460031b161c19169055858080612ce1565b91926020600181928685015181550194019201612ccc565b600183016000526020600020601f830160051c810160208410612d62575b601f830160051c82018110612d56575050612b8f565b60008155600101612d40565b5080612d40565b60405162461bcd60e51b815260206004820152601560248201527410dc99585d1a5bdb88199959481c995c5d5a5c9959605a1b6044820152606490fd5b346102da5760203660031901126102da5760043560058110156102da57612dce6020916133cb565b54604051908152f35b346102da5760203660031901126102da57600435600090815260106020526040902060018101546001600160a01b03163303612e35578060036110e992018054612e2660ff8260081c16613db2565b61ff0019169055543330613d37565b60405162461bcd60e51b815260206004820152600a6024820152692737ba1039b2b63632b960b11b6044820152606490fd5b346102da5760603660031901126102da57600435602435604435908115158092036102da57612e95836138cd565b6001600160a01b039290612eac9084163314613cbf565b811561300757600460095493612ec185613a56565b60095560405192612ed18461341f565b86845260208401338152604085018681526060860192835260808601916001835260a0870194428652896000526010602052604060002097518855600188019151166001600160601b0360a01b825416179055516002860155612f476003860192511515839060ff801983541691151516179055565b51815461ff00191690151560081b61ff001617905551910155601354600160401b811015610ecc576001810180601355811015612ff1577f3c494fb15a952af9a624fe63d345e3a9f3ad4aae07c468d86e4bcf6a1a67a33091836020927f66de8ffda797e3de9c05e8fc57b3bf0ec28a930d40b0d285d93c06501cf6a09001553360005260128252612fdd846040600020613abf565b612fe8853033613d37565b604051908152a3005b634e487b7160e01b600052603260045260246000fd5b60405162461bcd60e51b815260206004820152600d60248201526c496e76616c696420707269636560981b6044820152606490fd5b346102da576110e961304d36613396565b91613665565b346102da5760003660031901126102da57602060405160038152f35b346102da5760403660031901126102da57613088613334565b6001600160a01b03166000908152600e60205260409020805460243591908210156102da576020916117d191613360565b346102da5760403660031901126102da576130d2613334565b6024356130de816138cd565b3315158061318d575b80613160575b613148576001600160a01b039283169282918491167f8c5be1e5ebec7d5bd14f71427d1e84f3dd0314c0f7b2291e5b200ac8c7c3b925600080a4600090815260046020526040902080546001600160a01b0319169091179055005b60405163a9fbf51f60e01b8152336004820152602490fd5b5060018060a01b038116600052600560205260406000203360005260205260ff60406000205416156130ed565b506001600160a01b0381163314156130e7565b346102da5760203660031901126102da576004356131bd816138cd565b506000526004602052602060018060a01b0360406000205416604051908152f35b346102da5760003660031901126102da57604051600080546131ff81613542565b80845290600190818116908115611593575060011461322857610fc2846115268186038261348c565b600080805292507f290decd9548b62a8d60345a988386fc84ba6bc95484008f6362f93160ef3e5635b82841061326957505050810160200161152682611516565b80546020858701810191909152909301928101613251565b346102da5760203660031901126102da576004359063ffffffff60e01b82168092036102da576020916380ac58cd60e01b81149081156132db575b81156132ca575b5015158152f35b6301ffc9a760e01b149050836132c3565b635b5e139f60e01b811491506132bc565b60005b8381106132ff5750506000910152565b81810151838201526020016132ef565b90602091613328815180928185528580860191016132ec565b601f01601f1916010190565b600435906001600160a01b03821682036102da57565b602435906001600160a01b03821682036102da57565b8054821015612ff15760005260206000200190600090565b346102da5760003660031901126102da576020604051620151808152f35b60609060031901126102da576001600160a01b039060043582811681036102da579160243590811681036102da579060443590565b60058110156112c6576000526014602052604060002090565b6020908160408183019282815285518094520193019160005b82811061340b575050505090565b8351855293810193928101926001016133fd565b60c081019081106001600160401b03821117610ecc57604052565b61028081019081106001600160401b03821117610ecc57604052565b602081019081106001600160401b03821117610ecc57604052565b604081019081106001600160401b03821117610ecc57604052565b90601f801991011681019081106001600160401b03821117610ecc57604052565b6001600160401b038111610ecc57601f01601f191660200190565b9291926134d4826134ad565b916134e2604051938461348c565b8294818452818301116102da578281602093846000960137010152565b9060406003198301126102da5760043591602435906001600160401b0382116102da57806023830112156102da5781602461353f936004013591016134c8565b90565b90600182811c92168015613572575b602083101461355c57565b634e487b7160e01b600052602260045260246000fd5b91607f1691613551565b906000929180549161358d83613542565b9182825260019384811690816000146135ef57506001146135af575b50505050565b90919394506000526020928360002092846000945b8386106135db5750505050010190388080806135a9565b8054858701830152940193859082016135c4565b9294505050602093945060ff191683830152151560051b010190388080806135a9565b90600a8210156112c65752565b9060058210156112c65752565b9060048210156112c65752565b6006546001600160a01b0316330361364d57565b60405163118cdaa760e01b8152336004820152602490fd5b906001600160a01b0390811680156137f85760009184835284602092600284526040938385872054169586913315158061375f575b509060027fddf252ad1be2c89b69c2b068fc378daa952ba7f163c4a11628f55a4df523b3ef928461372c575b85835260038152888320805460010190558683525286812080546001600160a01b0319168517905580a4831682036136fe5750505050565b516364283d7b60e01b81526001600160a01b0392831660048201526024810193909352166044820152606490fd5b600087815260046020526040902080546001600160a01b03191690558483526003815288832080546000190190556136c6565b919394509150806137b7575b1561377b5787929186913861369a565b848887613798576024915190637e27328960e01b82526004820152fd5b905163177e802f60e01b81523360048201526024810191909152604490fd5b5033861480156137dc575b8061376b575087825260048152338486842054161461376b565b5085825260058152848220338352815260ff85832054166137c2565b604051633250574960e11b815260006004820152602490fd5b6000828152600260205260408120546001600160a01b03908116939284917fddf252ad1be2c89b69c2b068fc378daa952ba7f163c4a11628f55a4df523b3ef9183613898575b169283613880575b84815260026020526040812080546001600160a01b0319168517905580a490565b8381526003602052604081206001815401905561385f565b600086815260046020526040902080546001600160a01b03191690558385526003602052604085208054600019019055613857565b6000818152600260205260409020546001600160a01b03169081156138f0575090565b60249060405190637e27328960e01b82526004820152fd5b90939192833b61391a575b5050505050565b604051630a85bd0160e11b8082526001600160a01b03938416600483015295831660248201526044810191909152608060648201529492169260209291859061396790608483019061330f565b039483816000978189895af1869181613a12575b506139dc575050503d6000146139d3573d613995816134ad565b906139a3604051928361348c565b81528093823d92013e5b825192836139ce57604051633250574960e11b815260048101849052602490fd5b019050fd5b606092506139ad565b919450915063ffffffff60e01b16036139fa57503880808080613913565b60249060405190633250574960e11b82526004820152fd5b9091508481813d8311613a4f575b613a2a818361348c565b81010312613a4b57516001600160e01b031981168103613a4b57903861397b565b8680fd5b503d613a20565b60001981146106e65760010190565b818102929181159184041417156106e657565b600a8210156112c65752565b60058210156112c65752565b60048210156112c65752565b9060048110156112c65763ff00000082549160181b169063ff0000001916179055565b8054600160401b811015610ecc57613adc91600182018155613360565b819291549060031b91821b91600019901b1916179055565b6040805192613b0284613456565b6000808552936001600160a01b0384811694908515613c7757613b258483613811565b16613c5f573b613b36575050505050565b908293949591613b77935190630a85bd0160e11b9283835233600484015288602484015260448301526080606483015281806020968793608483019061330f565b03818a8a5af1879181613c1b575b50613be5575050503d600014613bdc573d613b9f816134ad565b90613bac8451928361348c565b81528094823d92013e5b83519384613bd6578251633250574960e11b815260048101859052602490fd5b84925001fd5b60609350613bb6565b919550915063ffffffff60e01b1603613c045750503880808080613913565b602492505190633250574960e11b82526004820152fd5b9091508481813d8311613c58575b613c33818361348c565b81010312613c5457516001600160e01b031981168103613c54579038613b85565b8780fd5b503d613c29565b83516339e3563760e11b815260048101879052602490fd5b8451633250574960e11b815260048101889052602490fd5b919082018092116106e657565b600260075414613cad576002600755565b604051633ee5aeb560e01b8152600490fd5b15613cc657565b60405162461bcd60e51b81526020600482015260096024820152682737ba1037bbb732b960b91b6044820152606490fd5b15613cfe57565b60405162461bcd60e51b8152602060048201526011602482015270105b1c9958591e4818dbdb5c1b195d1959607a1b6044820152606490fd5b906001600160a01b0390818116156137f85783613d5391613811565b908082169081613d7657604051637e27328960e01b815260048101869052602490fd5b831603613d8257505050565b6040516364283d7b60e01b81526001600160a01b0392831660048201526024810193909352166044820152606490fd5b15613db957565b60405162461bcd60e51b815260206004820152600a6024820152694e6f742061637469766560b01b6044820152606490fd5b15613df257565b60405162461bcd60e51b8152602060048201526014602482015273125b9cdd59999a58da595b9d081c185e5b595b9d60621b6044820152606490fd5b919082039182116106e657565b60058110156112c6578015613e775760018114613e715760028114613e6b57600314613e665760c890565b609690565b50606490565b50604b90565b50603290565b8015613f2457600081805b613f105750613e96816134ad565b90613ea4604051928361348c565b808252601f19613eb3826134ad565b013660208401375b80928015613f095760001982019182116106e6578193600a9260309084840682018092116106e65785511115612ff15760f81b6001600160f81b03191660001a908401601f01530491613ebb565b5050905090565b90613f1c600a91613a56565b910480613e88565b50604051613f3181613471565b60018152600360fc1b60208201529056fea2646970667358221220dd7af06c6c8597645183539e51c21fa507de972b9925cd016a8187893462f2d964736f6c63430008140033","opcodes":"PUSH1 0x80 CALLVALUE PUSH3 0x3D7 JUMPI PUSH1 0x40 SWAP1 PUSH1 0x1 PUSH1 0x1 PUSH1 0x40 SHL SUB SWAP1 DUP1 DUP4 ADD DUP3 DUP2 GT DUP3 DUP3 LT OR PUSH3 0x3C1 JUMPI DUP4 MSTORE PUSH1 0xB DUP2 MSTORE PUSH1 0x20 PUSH11 0x447261676F6E2043697479 PUSH1 0xA8 SHL DUP2 DUP4 ADD MSTORE DUP4 MLOAD SWAP3 DUP5 DUP5 ADD DUP5 DUP2 LT DUP3 DUP3 GT OR PUSH3 0x3C1 JUMPI DUP6 MSTORE PUSH1 0x6 DUP5 MSTORE PUSH6 0x222920A3A7A7 PUSH1 0xD1 SHL DUP3 DUP6 ADD MSTORE DUP3 MLOAD DUP2 DUP2 GT PUSH3 0x3C1 JUMPI PUSH1 0x0 SWAP5 DUP6 SLOAD SWAP2 PUSH1 0x1 SWAP6 DUP7 DUP5 DUP2 SHR SWAP5 AND DUP1 ISZERO PUSH3 0x3B6 JUMPI JUMPDEST DUP7 DUP6 LT EQ PUSH3 0x3A2 JUMPI DUP2 SWAP1 PUSH1 0x1F SWAP5 DUP6 DUP2 GT PUSH3 0x34F JUMPI JUMPDEST POP DUP7 SWAP1 DUP6 DUP4 GT PUSH1 0x1 EQ PUSH3 0x2EB JUMPI DUP10 SWAP3 PUSH3 0x2DF JUMPI JUMPDEST POP POP PUSH1 0x0 NOT PUSH1 0x3 DUP4 SWAP1 SHL SHR NOT AND SWAP1 DUP7 SHL OR DUP7 SSTORE JUMPDEST DUP1 MLOAD SWAP3 DUP4 GT PUSH3 0x2CB JUMPI DUP5 SLOAD DUP6 DUP2 DUP2 SHR SWAP2 AND DUP1 ISZERO PUSH3 0x2C0 JUMPI JUMPDEST DUP6 DUP3 LT EQ PUSH3 0x2AC JUMPI SWAP1 DUP2 DUP4 DUP6 SWAP5 SWAP4 GT PUSH3 0x257 JUMPI JUMPDEST POP DUP5 SWAP2 DUP4 GT PUSH1 0x1 EQ PUSH3 0x1F3 JUMPI DUP7 SWAP3 PUSH3 0x1E7 JUMPI JUMPDEST POP POP PUSH1 0x0 NOT PUSH1 0x3 DUP4 SWAP1 SHL SHR NOT AND SWAP1 DUP4 SHL OR DUP3 SSTORE JUMPDEST CALLER ISZERO PUSH3 0x1CF JUMPI PUSH1 0x6 DUP1 SLOAD CALLER PUSH1 0x1 PUSH1 0x1 PUSH1 0xA0 SHL SUB NOT DUP3 AND DUP2 OR SWAP1 SWAP3 SSTORE PUSH1 0x32 SWAP5 DUP7 SWAP5 SWAP1 SWAP4 SWAP1 SWAP3 PUSH1 0x14 SWAP3 PUSH1 0x1 PUSH1 0x1 PUSH1 0xA0 SHL SUB AND PUSH32 0x8BE0079C531659141344CD1FD0A4F28419497F9722A3DAAFE3B4186F6B6457E0 DUP7 DUP1 LOG3 DUP3 PUSH1 0x7 SSTORE DUP3 PUSH1 0x8 SSTORE DUP3 PUSH1 0x9 SSTORE PUSH7 0x38D7EA4C68000 PUSH1 0xA SSTORE PUSH7 0x2386F26FC10000 PUSH1 0xB SSTORE DUP4 DUP1 MSTORE MSTORE PUSH1 0xA DUP4 DUP4 KECCAK256 SSTORE DUP2 MSTORE PUSH1 0xF DUP3 DUP3 KECCAK256 SSTORE PUSH1 0x2 DUP2 MSTORE PUSH1 0x14 DUP3 DUP3 KECCAK256 SSTORE PUSH1 0x3 DUP2 MSTORE PUSH1 0x1E DUP3 DUP3 KECCAK256 SSTORE PUSH1 0x4 DUP2 MSTORE KECCAK256 SSTORE MLOAD PUSH2 0x3F78 SWAP1 DUP2 PUSH3 0x3DD DUP3 CODECOPY RETURN JUMPDEST DUP4 MLOAD PUSH4 0x1E4FBDF7 PUSH1 0xE0 SHL DUP2 MSTORE PUSH1 0x4 DUP2 ADD DUP5 SWAP1 MSTORE PUSH1 0x24 SWAP1 REVERT JUMPDEST ADD MLOAD SWAP1 POP CODESIZE DUP1 PUSH3 0x10A JUMP JUMPDEST DUP6 DUP8 MSTORE DUP5 DUP8 KECCAK256 DUP7 SWAP5 POP SWAP2 SWAP1 PUSH1 0x1F NOT DUP5 AND DUP9 JUMPDEST DUP8 DUP3 DUP3 LT PUSH3 0x240 JUMPI POP POP DUP5 GT PUSH3 0x226 JUMPI JUMPDEST POP POP POP DUP2 SHL ADD DUP3 SSTORE PUSH3 0x11E JUMP JUMPDEST ADD MLOAD PUSH1 0x0 NOT PUSH1 0xF8 DUP5 PUSH1 0x3 SHL AND SHR NOT AND SWAP1 SSTORE CODESIZE DUP1 DUP1 PUSH3 0x218 JUMP JUMPDEST DUP4 DUP6 ADD MLOAD DUP7 SSTORE DUP10 SWAP8 SWAP1 SWAP6 ADD SWAP5 SWAP4 DUP5 ADD SWAP4 ADD PUSH3 0x205 JUMP JUMPDEST SWAP1 SWAP2 SWAP3 POP DUP6 DUP8 MSTORE DUP5 DUP8 KECCAK256 DUP4 DUP1 DUP7 ADD PUSH1 0x5 SHR DUP3 ADD SWAP3 DUP8 DUP8 LT PUSH3 0x2A2 JUMPI JUMPDEST SWAP2 DUP7 SWAP6 DUP10 SWAP3 SWAP6 SWAP5 SWAP4 ADD PUSH1 0x5 SHR ADD SWAP2 JUMPDEST DUP3 DUP2 LT PUSH3 0x293 JUMPI POP POP PUSH3 0xF5 JUMP JUMPDEST DUP10 DUP2 SSTORE DUP7 SWAP6 POP DUP9 SWAP2 ADD PUSH3 0x283 JUMP JUMPDEST SWAP3 POP DUP2 SWAP3 PUSH3 0x274 JUMP JUMPDEST PUSH4 0x4E487B71 PUSH1 0xE0 SHL DUP8 MSTORE PUSH1 0x22 PUSH1 0x4 MSTORE PUSH1 0x24 DUP8 REVERT JUMPDEST SWAP1 PUSH1 0x7F AND SWAP1 PUSH3 0xDF JUMP JUMPDEST PUSH4 0x4E487B71 PUSH1 0xE0 SHL DUP7 MSTORE PUSH1 0x41 PUSH1 0x4 MSTORE PUSH1 0x24 DUP7 REVERT JUMPDEST ADD MLOAD SWAP1 POP CODESIZE DUP1 PUSH3 0xB1 JUMP JUMPDEST DUP10 DUP1 MSTORE DUP8 DUP11 KECCAK256 DUP10 SWAP5 POP SWAP2 SWAP1 PUSH1 0x1F NOT DUP5 AND DUP12 JUMPDEST DUP11 DUP3 DUP3 LT PUSH3 0x338 JUMPI POP POP DUP5 GT PUSH3 0x31E JUMPI JUMPDEST POP POP POP DUP2 SHL ADD DUP7 SSTORE PUSH3 0xC5 JUMP JUMPDEST ADD MLOAD PUSH1 0x0 NOT PUSH1 0xF8 DUP5 PUSH1 0x3 SHL AND SHR NOT AND SWAP1 SSTORE CODESIZE DUP1 DUP1 PUSH3 0x310 JUMP JUMPDEST DUP4 DUP6 ADD MLOAD DUP7 SSTORE DUP13 SWAP8 SWAP1 SWAP6 ADD SWAP5 SWAP4 DUP5 ADD SWAP4 ADD PUSH3 0x2FD JUMP JUMPDEST SWAP1 SWAP2 POP DUP9 DUP1 MSTORE DUP7 DUP10 KECCAK256 DUP6 DUP1 DUP6 ADD PUSH1 0x5 SHR DUP3 ADD SWAP3 DUP10 DUP7 LT PUSH3 0x398 JUMPI JUMPDEST SWAP2 DUP11 SWAP2 DUP7 SWAP6 SWAP5 SWAP4 ADD PUSH1 0x5 SHR ADD SWAP2 JUMPDEST DUP3 DUP2 LT PUSH3 0x389 JUMPI POP POP PUSH3 0x9B JUMP JUMPDEST DUP12 DUP2 SSTORE DUP6 SWAP5 POP DUP11 SWAP2 ADD PUSH3 0x379 JUMP JUMPDEST SWAP3 POP DUP2 SWAP3 PUSH3 0x36B JUMP JUMPDEST PUSH4 0x4E487B71 PUSH1 0xE0 SHL DUP9 MSTORE PUSH1 0x22 PUSH1 0x4 MSTORE PUSH1 0x24 DUP9 REVERT JUMPDEST SWAP4 PUSH1 0x7F AND SWAP4 PUSH3 0x84 JUMP JUMPDEST PUSH4 0x4E487B71 PUSH1 0xE0 SHL PUSH1 0x0 MSTORE PUSH1 0x41 PUSH1 0x4 MSTORE PUSH1 0x24 PUSH1 0x0 REVERT JUMPDEST PUSH1 0x0 DUP1 REVERT INVALID PUSH2 0x100 DUP1 PUSH1 0x40 MSTORE PUSH1 0x4 CALLDATASIZE LT ISZERO PUSH2 0x14 JUMPI PUSH1 0x0 DUP1 REVERT JUMPDEST PUSH1 0x0 CALLDATALOAD PUSH1 0xE0 SHR SWAP1 DUP2 PUSH4 0x1FFC9A7 EQ PUSH2 0x3281 JUMPI POP DUP1 PUSH4 0x6FDDE03 EQ PUSH2 0x31DE JUMPI DUP1 PUSH4 0x81812FC EQ PUSH2 0x31A0 JUMPI DUP1 PUSH4 0x95EA7B3 EQ PUSH2 0x30B9 JUMPI DUP1 PUSH4 0xCB2CC14 EQ PUSH2 0x306F JUMPI DUP1 PUSH4 0xEA92DB2 EQ PUSH2 0x3053 JUMPI DUP1 PUSH4 0x20DD0C84 EQ PUSH2 0x2739 JUMPI DUP1 PUSH4 0x23B872DD EQ PUSH2 0x303C JUMPI DUP1 PUSH4 0x25D9DDD2 EQ PUSH2 0x2E67 JUMPI DUP1 PUSH4 0x305A67A8 EQ PUSH2 0x2DD7 JUMPI DUP1 PUSH4 0x3653A5F8 EQ PUSH2 0x2DA6 JUMPI DUP1 PUSH4 0x3AA229E7 EQ PUSH2 0x29EE JUMPI DUP1 PUSH4 0x3CCFD60B EQ PUSH2 0x29AA JUMPI DUP1 PUSH4 0x415EA6C1 EQ PUSH2 0x27E4 JUMPI DUP1 PUSH4 0x42842E0E EQ PUSH2 0x27B6 JUMPI DUP1 PUSH4 0x47B50C42 EQ PUSH2 0x273E JUMPI DUP1 PUSH4 0x4939504E EQ PUSH2 0x2739 JUMPI DUP1 PUSH4 0x61687670 EQ PUSH2 0x2718 JUMPI DUP1 PUSH4 0x6352211E EQ PUSH2 0x26E8 JUMPI DUP1 PUSH4 0x6415DBDE EQ PUSH2 0x22EB JUMPI DUP1 PUSH4 0x68562D20 EQ PUSH2 0x1ABD JUMPI DUP1 PUSH4 0x70A08231 EQ PUSH2 0x1A64 JUMPI DUP1 PUSH4 0x715018A6 EQ PUSH2 0x1A07 JUMPI DUP1 PUSH4 0x80D29E66 EQ PUSH2 0x19C4 JUMPI DUP1 PUSH4 0x862A93E8 EQ PUSH2 0x17DF JUMPI DUP1 PUSH4 0x86CFA7D3 EQ PUSH2 0x1787 JUMPI DUP1 PUSH4 0x87C35BC0 EQ PUSH2 0x1700 JUMPI DUP1 PUSH4 0x8D159787 EQ PUSH2 0x1601 JUMPI DUP1 PUSH4 0x8DA5CB5B EQ PUSH2 0x15D8 JUMPI DUP1 PUSH4 0x8EB27D02 EQ PUSH2 0x15BA JUMPI DUP1 PUSH4 0x95D89B41 EQ PUSH2 0x14DB JUMPI DUP1 PUSH4 0x967F083E EQ PUSH2 0x14BE JUMPI DUP1 PUSH4 0x9C103C61 EQ PUSH2 0x14A2 JUMPI DUP1 PUSH4 0xA22CB465 EQ PUSH2 0x13F4 JUMPI DUP1 PUSH4 0xA996AEB8 EQ PUSH2 0x13D6 JUMPI DUP1 PUSH4 0xAC567836 EQ PUSH2 0x1165 JUMPI DUP1 PUSH4 0xB4D34441 EQ PUSH2 0x10EB JUMPI DUP1 PUSH4 0xB88D4FDE EQ PUSH2 0x107E JUMPI DUP1 PUSH4 0xC3DFDAE6 EQ PUSH2 0x1055 JUMPI DUP1 PUSH4 0xC6E5A419 EQ PUSH2 0xFC6 JUMPI DUP1 PUSH4 0xC87B56DD EQ PUSH2 0xF6F JUMPI DUP1 PUSH4 0xD0258BA5 EQ PUSH2 0xC3D JUMPI DUP1 PUSH4 0xD2A59D69 EQ PUSH2 0xAA8 JUMPI DUP1 PUSH4 0xDE74E57B EQ PUSH2 0xA36 JUMPI DUP1 PUSH4 0xE0BB933B EQ PUSH2 0x75D JUMPI DUP1 PUSH4 0xE2F8A017 EQ PUSH2 0x513 JUMPI DUP1 PUSH4 0xE3B6A1F6 EQ PUSH2 0x4C2 JUMPI DUP1 PUSH4 0xE4A2FE1D EQ PUSH2 0x35B JUMPI DUP1 PUSH4 0xE985E9C5 EQ PUSH2 0x305 JUMPI DUP1 PUSH4 0xF2C19D31 EQ PUSH2 0x2DF JUMPI PUSH4 0xF2FDE38B EQ PUSH2 0x251 JUMPI PUSH1 0x0 DUP1 REVERT JUMPDEST CALLVALUE PUSH2 0x2DA JUMPI PUSH1 0x20 CALLDATASIZE PUSH1 0x3 NOT ADD SLT PUSH2 0x2DA JUMPI PUSH2 0x26A PUSH2 0x3334 JUMP JUMPDEST PUSH2 0x272 PUSH2 0x3639 JUMP JUMPDEST PUSH1 0x1 PUSH1 0x1 PUSH1 0xA0 SHL SUB SWAP1 DUP2 AND SWAP1 DUP2 ISZERO PUSH2 0x2C1 JUMPI PUSH1 0x6 SLOAD DUP3 PUSH1 0x1 PUSH1 0x1 PUSH1 0x60 SHL SUB PUSH1 0xA0 SHL DUP3 AND OR PUSH1 0x6 SSTORE AND PUSH32 0x8BE0079C531659141344CD1FD0A4F28419497F9722A3DAAFE3B4186F6B6457E0 PUSH1 0x0 DUP1 LOG3 STOP JUMPDEST PUSH1 0x40 MLOAD PUSH4 0x1E4FBDF7 PUSH1 0xE0 SHL DUP2 MSTORE PUSH1 0x0 PUSH1 0x4 DUP3 ADD MSTORE PUSH1 0x24 SWAP1 REVERT JUMPDEST PUSH1 0x0 DUP1 REVERT JUMPDEST CALLVALUE PUSH2 0x2DA JUMPI PUSH1 0x0 CALLDATASIZE PUSH1 0x3 NOT ADD SLT PUSH2 0x2DA JUMPI PUSH1 0x20 PUSH1 0xFF PUSH1 0xC SLOAD PUSH1 0xA0 SHR AND PUSH1 0x40 MLOAD SWAP1 ISZERO ISZERO DUP2 MSTORE RETURN JUMPDEST CALLVALUE PUSH2 0x2DA JUMPI PUSH1 0x40 CALLDATASIZE PUSH1 0x3 NOT ADD SLT PUSH2 0x2DA JUMPI PUSH2 0x31E PUSH2 0x3334 JUMP JUMPDEST PUSH2 0x326 PUSH2 0x334A JUMP JUMPDEST SWAP1 PUSH1 0x1 DUP1 PUSH1 0xA0 SHL SUB DUP1 SWAP2 AND PUSH1 0x0 MSTORE PUSH1 0x5 PUSH1 0x20 MSTORE PUSH1 0x40 PUSH1 0x0 KECCAK256 SWAP2 AND PUSH1 0x0 MSTORE PUSH1 0x20 MSTORE PUSH1 0x20 PUSH1 0xFF PUSH1 0x40 PUSH1 0x0 KECCAK256 SLOAD AND PUSH1 0x40 MLOAD SWAP1 ISZERO ISZERO DUP2 MSTORE RETURN JUMPDEST CALLVALUE PUSH2 0x2DA JUMPI PUSH1 0x20 CALLDATASIZE PUSH1 0x3 NOT ADD SLT PUSH2 0x2DA JUMPI PUSH1 0x4 CALLDATALOAD PUSH1 0x0 MSTORE PUSH1 0xD PUSH1 0x20 MSTORE PUSH1 0x20 PUSH2 0x4BA PUSH1 0x40 PUSH1 0x0 KECCAK256 PUSH2 0x4B2 PUSH1 0x40 MLOAD PUSH2 0x390 DUP2 PUSH2 0x343A JUMP JUMPDEST DUP3 SLOAD DUP2 MSTORE PUSH1 0x40 MLOAD PUSH2 0x3AF DUP2 PUSH2 0x3A8 DUP2 PUSH1 0x1 DUP9 ADD PUSH2 0x357C JUMP JUMPDEST SUB DUP3 PUSH2 0x348C JUMP JUMPDEST DUP6 DUP3 ADD MSTORE PUSH2 0x3FD PUSH1 0xFF PUSH1 0x2 DUP6 ADD SLOAD PUSH2 0x3CC DUP3 DUP3 AND PUSH1 0x40 DUP7 ADD PUSH2 0x3A78 JUMP JUMPDEST PUSH2 0x3DE DUP3 DUP3 PUSH1 0x8 SHR AND PUSH1 0x60 DUP7 ADD PUSH2 0x3A78 JUMP JUMPDEST PUSH2 0x3F0 DUP3 DUP3 PUSH1 0x10 SHR AND PUSH1 0x80 DUP7 ADD PUSH2 0x3A84 JUMP JUMPDEST PUSH1 0x18 SHR AND PUSH1 0xA0 DUP4 ADD PUSH2 0x3A90 JUMP JUMPDEST PUSH2 0x4AA PUSH1 0x3 DUP5 ADD SLOAD DUP1 PUSH1 0xC0 DUP5 ADD MSTORE PUSH1 0x4 DUP6 ADD SLOAD SWAP1 DUP2 PUSH1 0xE0 DUP6 ADD MSTORE PUSH1 0x5 DUP7 ADD SLOAD PUSH2 0x100 DUP6 ADD MSTORE PUSH1 0x6 DUP7 ADD SLOAD SWAP4 PUSH2 0x120 DUP2 ADD SWAP5 DUP6 MSTORE PUSH2 0x260 PUSH1 0xFF PUSH1 0x10 PUSH1 0x7 DUP11 ADD SLOAD SWAP10 PUSH2 0x140 DUP6 ADD SWAP11 DUP12 MSTORE PUSH1 0x8 DUP2 ADD SLOAD PUSH2 0x160 DUP7 ADD MSTORE PUSH1 0x9 DUP2 ADD SLOAD PUSH2 0x180 DUP7 ADD MSTORE PUSH1 0xA DUP2 ADD SLOAD PUSH2 0x1A0 DUP7 ADD MSTORE PUSH1 0xB DUP2 ADD SLOAD PUSH2 0x1C0 DUP7 ADD MSTORE PUSH1 0xC DUP2 ADD SLOAD PUSH2 0x1E0 DUP7 ADD MSTORE PUSH1 0xD DUP2 ADD SLOAD PUSH2 0x200 DUP7 ADD MSTORE PUSH1 0xE DUP2 ADD SLOAD PUSH2 0x220 DUP7 ADD MSTORE PUSH1 0xF DUP2 ADD SLOAD PUSH2 0x240 DUP7 ADD MSTORE ADD SLOAD AND ISZERO ISZERO SWAP2 ADD MSTORE PUSH2 0x3C8F JUMP JUMPDEST SWAP1 MLOAD SWAP1 PUSH2 0x3C8F JUMP JUMPDEST SWAP1 MLOAD SWAP1 PUSH2 0x3A65 JUMP JUMPDEST PUSH1 0x40 MLOAD SWAP1 DUP2 MSTORE RETURN JUMPDEST CALLVALUE PUSH2 0x2DA JUMPI PUSH1 0x20 CALLDATASIZE PUSH1 0x3 NOT ADD SLT PUSH2 0x2DA JUMPI PUSH1 0x4 CALLDATALOAD PUSH1 0x13 SLOAD DUP2 LT ISZERO PUSH2 0x2DA JUMPI PUSH1 0x20 SWAP1 PUSH1 0x13 PUSH1 0x0 MSTORE PUSH32 0x66DE8FFDA797E3DE9C05E8FC57B3BF0EC28A930D40B0D285D93C06501CF6A090 ADD SLOAD PUSH1 0x40 MLOAD SWAP1 DUP2 MSTORE RETURN JUMPDEST PUSH1 0x20 DUP1 PUSH1 0x3 NOT CALLDATASIZE ADD SLT PUSH2 0x2DA JUMPI PUSH1 0x4 CALLDATALOAD PUSH2 0x52B PUSH2 0x3C9C JUMP JUMPDEST PUSH1 0x0 DUP2 DUP2 MSTORE PUSH1 0x11 DUP4 MSTORE PUSH1 0x40 SWAP1 KECCAK256 PUSH1 0x1 DUP2 ADD SLOAD PUSH1 0x1 PUSH1 0x1 PUSH1 0xA0 SHL SUB SWAP3 SWAP2 SWAP1 DUP4 AND CALLER SUB PUSH2 0x72C JUMPI PUSH1 0x6 DUP2 ADD SWAP1 DUP2 SLOAD SWAP1 PUSH2 0x565 PUSH1 0xFF DUP4 AND ISZERO PUSH2 0x3CF7 JUMP JUMPDEST PUSH1 0x5 DUP2 ADD SWAP1 DUP2 SLOAD PUSH3 0x15180 DUP2 ADD DUP1 SWAP2 GT PUSH2 0x6E6 JUMPI TIMESTAMP LT PUSH2 0x6FC JUMPI SWAP1 PUSH1 0x4 DUP3 PUSH2 0x597 PUSH1 0x3 PUSH1 0x2 DUP2 SWAP7 ADD SLOAD DIV CALLVALUE LT ISZERO PUSH2 0x3DEB JUMP JUMPDEST DUP4 DUP2 ADD PUSH2 0x5A5 CALLVALUE DUP3 SLOAD PUSH2 0x3C8F JUMP JUMPDEST SWAP1 SSTORE ADD SWAP1 PUSH2 0x5B3 DUP3 SLOAD PUSH2 0x3A56 JUMP JUMPDEST SWAP2 DUP3 SWAP1 SSTORE TIMESTAMP SWAP1 SSTORE PUSH1 0x40 DUP1 MLOAD CALLER DUP2 MSTORE CALLVALUE PUSH1 0x20 DUP3 ADD MSTORE DUP7 SWAP2 PUSH32 0x64C7BC57C4F4CC77014ED4B76E7682AA9954346D9A1F1754414C12F224E90708 SWAP2 LOG2 LT ISZERO PUSH2 0x5FA JUMPI JUMPDEST PUSH1 0x1 PUSH1 0x7 SSTORE STOP JUMPDEST PUSH1 0x1 SWAP1 PUSH1 0xFF NOT AND OR SWAP1 SSTORE PUSH1 0x0 MSTORE PUSH1 0x10 DUP3 MSTORE PUSH1 0x11 PUSH1 0x40 PUSH1 0x0 KECCAK256 SWAP3 MSTORE PUSH1 0x40 PUSH1 0x0 KECCAK256 PUSH1 0x2 DUP4 ADD SWAP1 DUP2 SLOAD PUSH1 0xFA DUP2 MUL SWAP1 DUP1 DUP3 DIV PUSH1 0xFA EQ DUP2 ISZERO OR ISZERO PUSH2 0x6E6 JUMPI PUSH2 0x2710 PUSH2 0x641 SWAP3 DIV SWAP1 PUSH2 0x3E2E JUMP JUMPDEST PUSH1 0x0 DUP1 DUP1 DUP1 PUSH1 0x1 DUP9 DUP2 DUP12 ADD SLOAD AND SWAP7 PUSH1 0x3 DUP12 SLOAD SWAP12 ADD PUSH2 0xFF00 NOT DUP2 SLOAD AND SWAP1 SSTORE ADD SWAP5 PUSH2 0x66E DUP11 DUP11 DUP9 SLOAD AND ADDRESS PUSH2 0x3D37 JUMP JUMPDEST DUP7 DUP3 DUP3 ISZERO PUSH2 0x6DD JUMPI JUMPDEST CALL ISZERO PUSH2 0x6D1 JUMPI SLOAD SWAP2 SLOAD PUSH1 0x40 DUP1 MLOAD PUSH1 0x1 PUSH1 0x1 PUSH1 0xA0 SHL SUB SWAP4 DUP5 AND DUP2 MSTORE SWAP5 SWAP1 SWAP4 AND SWAP1 SWAP2 AND PUSH1 0x20 DUP5 ADD MSTORE SWAP1 DUP3 ADD MSTORE PUSH32 0x921C8B778AA5DA00E865FBEBD027ACF9388620C626DF2CD24DF3CF3768E96ED8 SWAP1 PUSH1 0x60 SWAP1 LOG2 DUP1 DUP1 DUP1 DUP1 DUP1 PUSH2 0x5F3 JUMP JUMPDEST PUSH1 0x40 MLOAD RETURNDATASIZE PUSH1 0x0 DUP3 RETURNDATACOPY RETURNDATASIZE SWAP1 REVERT JUMPDEST POP PUSH2 0x8FC PUSH2 0x677 JUMP JUMPDEST PUSH4 0x4E487B71 PUSH1 0xE0 SHL PUSH1 0x0 MSTORE PUSH1 0x11 PUSH1 0x4 MSTORE PUSH1 0x24 PUSH1 0x0 REVERT JUMPDEST PUSH1 0x40 MLOAD PUSH3 0x461BCD PUSH1 0xE5 SHL DUP2 MSTORE PUSH1 0x4 DUP2 ADD DUP9 SWAP1 MSTORE PUSH1 0x8 PUSH1 0x24 DUP3 ADD MSTORE PUSH8 0x2A37B79039B7B7B7 PUSH1 0xC1 SHL PUSH1 0x44 DUP3 ADD MSTORE PUSH1 0x64 SWAP1 REVERT JUMPDEST PUSH1 0x40 MLOAD PUSH3 0x461BCD PUSH1 0xE5 SHL DUP2 MSTORE PUSH1 0x4 DUP2 ADD DUP6 SWAP1 MSTORE PUSH1 0x9 PUSH1 0x24 DUP3 ADD MSTORE PUSH9 0x2737BA10313ABCB2B9 PUSH1 0xB9 SHL PUSH1 0x44 DUP3 ADD MSTORE PUSH1 0x64 SWAP1 REVERT JUMPDEST CALLVALUE PUSH2 0x2DA JUMPI PUSH1 0x20 CALLDATASIZE PUSH1 0x3 NOT ADD SLT PUSH2 0x2DA JUMPI PUSH1 0x0 PUSH2 0x260 PUSH1 0x40 MLOAD PUSH2 0x77F DUP2 PUSH2 0x343A JUMP JUMPDEST DUP3 DUP2 MSTORE PUSH1 0x60 PUSH1 0x20 DUP3 ADD MSTORE DUP3 PUSH1 0x40 DUP3 ADD MSTORE DUP3 PUSH1 0x60 DUP3 ADD MSTORE DUP3 PUSH1 0x80 DUP3 ADD MSTORE DUP3 PUSH1 0xA0 DUP3 ADD MSTORE DUP3 PUSH1 0xC0 DUP3 ADD MSTORE DUP3 PUSH1 0xE0 DUP3 ADD MSTORE DUP3 PUSH2 0x100 DUP3 ADD MSTORE DUP3 PUSH2 0x120 DUP3 ADD MSTORE DUP3 PUSH2 0x140 DUP3 ADD MSTORE DUP3 PUSH2 0x160 DUP3 ADD MSTORE DUP3 PUSH2 0x180 DUP3 ADD MSTORE DUP3 PUSH2 0x1A0 DUP3 ADD MSTORE DUP3 PUSH2 0x1C0 DUP3 ADD MSTORE DUP3 PUSH2 0x1E0 DUP3 ADD MSTORE DUP3 PUSH2 0x200 DUP3 ADD MSTORE DUP3 PUSH2 0x220 DUP3 ADD MSTORE DUP3 PUSH2 0x240 DUP3 ADD MSTORE ADD MSTORE PUSH1 0x4 CALLDATALOAD PUSH1 0x0 MSTORE PUSH1 0xD PUSH1 0x20 MSTORE PUSH1 0x40 PUSH1 0x0 KECCAK256 PUSH1 0xFF PUSH1 0x10 PUSH1 0x40 MLOAD SWAP3 PUSH2 0x81D DUP5 PUSH2 0x343A JUMP JUMPDEST DUP1 SLOAD DUP5 MSTORE PUSH1 0x40 MLOAD PUSH2 0x835 DUP2 PUSH2 0x3A8 DUP2 PUSH1 0x1 DUP7 ADD PUSH2 0x357C JUMP JUMPDEST PUSH1 0x20 DUP6 ADD MSTORE PUSH2 0x882 DUP4 PUSH1 0x2 DUP4 ADD SLOAD PUSH2 0x852 DUP3 DUP3 AND PUSH1 0x40 DUP10 ADD PUSH2 0x3A78 JUMP JUMPDEST PUSH2 0x864 DUP3 DUP3 PUSH1 0x8 SHR AND PUSH1 0x60 DUP10 ADD PUSH2 0x3A78 JUMP JUMPDEST PUSH2 0x875 DUP3 DUP3 DUP8 SHR AND PUSH1 0x80 DUP10 ADD PUSH2 0x3A84 JUMP JUMPDEST PUSH1 0x18 SHR AND PUSH1 0xA0 DUP7 ADD PUSH2 0x3A90 JUMP JUMPDEST PUSH1 0x3 DUP2 ADD SLOAD PUSH1 0xC0 DUP6 ADD MSTORE PUSH1 0x4 DUP2 ADD SLOAD PUSH1 0xE0 DUP6 ADD MSTORE PUSH1 0x5 DUP2 ADD SLOAD PUSH2 0x100 DUP6 ADD MSTORE PUSH1 0x6 DUP2 ADD SLOAD PUSH2 0x120 DUP6 ADD MSTORE PUSH1 0x7 DUP2 ADD SLOAD PUSH2 0x140 DUP6 ADD MSTORE PUSH1 0x8 DUP2 ADD SLOAD PUSH2 0x160 DUP6 ADD MSTORE PUSH1 0x9 DUP2 ADD SLOAD PUSH2 0x180 DUP6 ADD MSTORE PUSH1 0xA DUP2 ADD SLOAD PUSH2 0x1A0 DUP6 ADD MSTORE PUSH1 0xB DUP2 ADD SLOAD PUSH2 0x1C0 DUP6 ADD MSTORE PUSH1 0xC DUP2 ADD SLOAD PUSH2 0x1E0 DUP6 ADD MSTORE PUSH1 0xD DUP2 ADD SLOAD PUSH2 0x200 DUP6 ADD MSTORE PUSH1 0xE DUP2 ADD SLOAD PUSH2 0x220 DUP6 ADD MSTORE PUSH1 0xF DUP2 ADD SLOAD PUSH2 0x240 DUP6 ADD MSTORE ADD SLOAD AND ISZERO ISZERO PUSH2 0x260 DUP3 ADD MSTORE PUSH1 0x40 MLOAD DUP1 SWAP2 PUSH1 0x20 DUP3 MSTORE DUP1 MLOAD PUSH1 0x20 DUP4 ADD MSTORE PUSH2 0x260 PUSH2 0x948 PUSH1 0x20 DUP4 ADD MLOAD PUSH2 0x280 PUSH1 0x40 DUP7 ADD MSTORE PUSH2 0x2A0 DUP6 ADD SWAP1 PUSH2 0x330F JUMP JUMPDEST SWAP2 PUSH2 0x95B PUSH1 0x40 DUP3 ADD MLOAD PUSH1 0x60 DUP7 ADD SWAP1 PUSH2 0x3612 JUMP JUMPDEST PUSH2 0x96D PUSH1 0x60 DUP3 ADD MLOAD PUSH1 0x80 DUP7 ADD SWAP1 PUSH2 0x3612 JUMP JUMPDEST PUSH2 0x97F PUSH1 0x80 DUP3 ADD MLOAD PUSH1 0xA0 DUP7 ADD SWAP1 PUSH2 0x361F JUMP JUMPDEST PUSH2 0x991 PUSH1 0xA0 DUP3 ADD MLOAD PUSH1 0xC0 DUP7 ADD SWAP1 PUSH2 0x362C JUMP JUMPDEST PUSH1 0xC0 DUP2 ADD MLOAD PUSH1 0xE0 DUP6 ADD MSTORE PUSH1 0xE0 DUP2 ADD MLOAD PUSH2 0x100 DUP6 ADD MSTORE PUSH2 0x100 DUP2 ADD MLOAD PUSH2 0x120 DUP6 ADD MSTORE PUSH2 0x120 DUP2 ADD MLOAD PUSH2 0x140 DUP6 ADD MSTORE PUSH2 0x140 DUP2 ADD MLOAD PUSH2 0x160 DUP6 ADD MSTORE PUSH2 0x160 DUP2 ADD MLOAD PUSH2 0x180 DUP6 ADD MSTORE PUSH2 0x180 DUP2 ADD MLOAD PUSH2 0x1A0 DUP6 ADD MSTORE PUSH2 0x1A0 DUP2 ADD MLOAD PUSH2 0x1C0 DUP6 ADD MSTORE PUSH2 0x1C0 DUP2 ADD MLOAD PUSH2 0x1E0 DUP6 ADD MSTORE PUSH2 0x1E0 DUP2 ADD MLOAD PUSH2 0x200 DUP6 ADD MSTORE PUSH2 0x200 DUP2 ADD MLOAD PUSH2 0x220 DUP6 ADD MSTORE PUSH2 0x220 DUP2 ADD MLOAD PUSH2 0x240 DUP6 ADD MSTORE PUSH2 0x240 DUP2 ADD MLOAD DUP3 DUP6 ADD MSTORE ADD MLOAD ISZERO ISZERO PUSH2 0x280 DUP4 ADD MSTORE SUB SWAP1 RETURN JUMPDEST CALLVALUE PUSH2 0x2DA JUMPI PUSH1 0x20 CALLDATASIZE PUSH1 0x3 NOT ADD SLT PUSH2 0x2DA JUMPI PUSH1 0x4 CALLDATALOAD PUSH1 0x0 MSTORE PUSH1 0x10 PUSH1 0x20 MSTORE PUSH1 0xC0 PUSH1 0x40 PUSH1 0x0 KECCAK256 DUP1 SLOAD SWAP1 PUSH1 0xFF PUSH1 0x1 DUP1 PUSH1 0xA0 SHL SUB PUSH1 0x1 DUP4 ADD SLOAD AND SWAP2 PUSH1 0x2 DUP2 ADD SLOAD PUSH1 0x4 PUSH1 0x3 DUP4 ADD SLOAD SWAP3 ADD SLOAD SWAP4 PUSH1 0x40 MLOAD SWAP6 DUP7 MSTORE PUSH1 0x20 DUP7 ADD MSTORE PUSH1 0x40 DUP6 ADD MSTORE DUP2 DUP2 AND ISZERO ISZERO PUSH1 0x60 DUP6 ADD MSTORE PUSH1 0x8 SHR AND ISZERO ISZERO PUSH1 0x80 DUP4 ADD MSTORE PUSH1 0xA0 DUP3 ADD MSTORE RETURN JUMPDEST CALLVALUE PUSH2 0x2DA JUMPI PUSH1 0x20 CALLDATASIZE PUSH1 0x3 NOT ADD SLT PUSH2 0x2DA JUMPI PUSH1 0x4 CALLDATALOAD PUSH1 0x0 MSTORE PUSH1 0xD PUSH1 0x20 MSTORE PUSH1 0x40 PUSH1 0x0 KECCAK256 DUP1 SLOAD PUSH2 0xAEB PUSH1 0x40 MLOAD DUP1 PUSH1 0x80 MSTORE PUSH2 0xAE2 DUP2 PUSH1 0x1 DUP7 ADD PUSH2 0x357C JUMP JUMPDEST SUB PUSH1 0x80 MLOAD PUSH2 0x348C JUMP JUMPDEST PUSH1 0x2 DUP3 ADD SLOAD PUSH1 0xC0 MSTORE PUSH1 0x3 DUP3 ADD SLOAD PUSH1 0xA0 MSTORE PUSH1 0x4 DUP3 ADD SLOAD SWAP2 PUSH1 0x5 DUP2 ADD SLOAD PUSH1 0x6 DUP3 ADD SLOAD PUSH1 0x7 DUP4 ADD SLOAD PUSH1 0x8 DUP5 ADD SLOAD PUSH1 0x9 DUP6 ADD SLOAD PUSH1 0xA DUP7 ADD SLOAD SWAP1 PUSH1 0xB DUP8 ADD SLOAD SWAP3 PUSH1 0xC DUP9 ADD SLOAD SWAP5 PUSH1 0xD DUP10 ADD SLOAD SWAP7 PUSH1 0xE DUP11 ADD SLOAD SWAP9 PUSH1 0xFF PUSH1 0x10 PUSH1 0xF DUP14 ADD SLOAD SWAP13 ADD SLOAD AND SWAP12 PUSH1 0x40 MLOAD DUP1 PUSH1 0xE0 MSTORE MSTORE PUSH2 0xB68 PUSH2 0x280 DUP1 PUSH1 0x20 PUSH1 0xE0 MLOAD ADD MSTORE PUSH1 0xE0 MLOAD ADD PUSH1 0x80 MLOAD PUSH2 0x330F JUMP JUMPDEST SWAP13 PUSH2 0xB7D PUSH1 0x40 PUSH1 0xE0 MLOAD ADD PUSH1 0xFF PUSH1 0xC0 MLOAD AND PUSH2 0x3612 JUMP JUMPDEST PUSH2 0xB94 PUSH1 0x60 PUSH1 0xE0 MLOAD ADD PUSH1 0xFF PUSH1 0xC0 MLOAD PUSH1 0x8 SHR AND PUSH2 0x3612 JUMP JUMPDEST PUSH2 0xBAB PUSH1 0x80 PUSH1 0xE0 MLOAD ADD PUSH1 0xFF PUSH1 0xC0 MLOAD PUSH1 0x10 SHR AND PUSH2 0x361F JUMP JUMPDEST PUSH2 0xBC2 PUSH1 0xA0 PUSH1 0xE0 MLOAD ADD PUSH1 0xFF PUSH1 0xC0 MLOAD PUSH1 0x18 SHR AND PUSH2 0x362C JUMP JUMPDEST PUSH1 0xA0 MLOAD PUSH1 0xC0 PUSH1 0xE0 MLOAD ADD MSTORE PUSH1 0xE0 DUP1 MLOAD ADD MSTORE PUSH2 0x100 PUSH1 0xE0 MLOAD ADD MSTORE PUSH2 0x120 PUSH1 0xE0 MLOAD ADD MSTORE PUSH2 0x140 PUSH1 0xE0 MLOAD ADD MSTORE PUSH2 0x160 PUSH1 0xE0 MLOAD ADD MSTORE PUSH2 0x180 PUSH1 0xE0 MLOAD ADD MSTORE PUSH2 0x1A0 PUSH1 0xE0 MLOAD ADD MSTORE PUSH2 0x1C0 PUSH1 0xE0 MLOAD ADD MSTORE PUSH2 0x1E0 PUSH1 0xE0 MLOAD ADD MSTORE PUSH2 0x200 PUSH1 0xE0 MLOAD ADD MSTORE PUSH2 0x220 PUSH1 0xE0 MLOAD ADD MSTORE PUSH2 0x240 PUSH1 0xE0 MLOAD ADD MSTORE ISZERO ISZERO PUSH2 0x260 PUSH1 0xE0 MLOAD ADD MSTORE PUSH1 0xE0 MLOAD DUP1 SWAP2 SUB SWAP1 RETURN JUMPDEST PUSH2 0xC46 CALLDATASIZE PUSH2 0x34FF JUMP JUMPDEST SWAP1 PUSH2 0xC4F PUSH2 0x3C9C JUMP JUMPDEST PUSH2 0xC6B PUSH2 0xC5B DUP3 PUSH2 0x38CD JUMP JUMPDEST PUSH1 0x1 PUSH1 0x1 PUSH1 0xA0 SHL SUB AND CALLER EQ PUSH2 0x3CBF JUMP JUMPDEST DUP1 PUSH1 0x0 MSTORE PUSH1 0x20 SWAP2 PUSH1 0xF DUP4 MSTORE PUSH1 0x40 PUSH1 0x0 KECCAK256 PUSH1 0xFF PUSH1 0x5 DUP3 ADD SLOAD AND SWAP1 DUP2 ISZERO PUSH2 0xF62 JUMPI JUMPDEST POP ISZERO PUSH2 0xF26 JUMPI PUSH1 0xA SLOAD SWAP3 DUP3 PUSH1 0x0 MSTORE PUSH1 0xD DUP2 MSTORE PUSH1 0xA PUSH1 0x7 PUSH1 0x40 PUSH1 0x0 KECCAK256 ADD SLOAD DIV SWAP4 PUSH1 0x1 SWAP5 DUP6 DUP2 ADD DUP1 SWAP2 GT PUSH2 0x6E6 JUMPI PUSH2 0xCC0 SWAP2 PUSH2 0x3A65 JUMP JUMPDEST CALLVALUE LT PUSH2 0xEE2 JUMPI PUSH1 0x40 MLOAD PUSH2 0xCD2 DUP2 PUSH2 0x341F JUMP JUMPDEST DUP4 DUP2 MSTORE DUP2 DUP2 ADD SWAP1 TIMESTAMP DUP3 MSTORE PUSH1 0x40 DUP2 ADD SWAP2 PUSH2 0xE10 SWAP3 DUP4 DUP2 MSTORE PUSH1 0x60 DUP4 ADD CALLVALUE DUP2 MSTORE PUSH1 0x80 DUP5 ADD SWAP2 DUP8 DUP4 MSTORE PUSH1 0xA0 DUP6 ADD SWAP4 PUSH1 0x0 DUP6 MSTORE DUP10 PUSH1 0x0 MSTORE PUSH1 0xF DUP9 MSTORE PUSH1 0x40 PUSH1 0x0 KECCAK256 SWAP6 MLOAD DUP7 SSTORE MLOAD DUP11 DUP7 ADD SSTORE MLOAD PUSH1 0x2 DUP6 ADD SSTORE MLOAD PUSH1 0x3 DUP5 ADD SSTORE PUSH1 0x4 DUP4 ADD SWAP1 MLOAD DUP1 MLOAD SWAP1 PUSH1 0x1 PUSH1 0x1 PUSH1 0x40 SHL SUB DUP3 GT PUSH2 0xECC JUMPI DUP10 SWAP1 PUSH2 0xD45 DUP5 SLOAD PUSH2 0x3542 JUMP JUMPDEST PUSH1 0x1F DUP2 GT PUSH2 0xE83 JUMPI JUMPDEST POP DUP8 SWAP1 PUSH1 0x1F DUP5 GT PUSH1 0x1 EQ PUSH2 0xDEC JUMPI SWAP4 DUP4 DUP1 PUSH2 0xDD5 SWAP11 SWAP9 SWAP6 PUSH1 0x5 SWAP6 PUSH32 0xBE8474F46F152DEF007DACCC49CB9B5C7E8C25D32ED484741F4094362F34A0E0 SWAP14 SWAP12 SWAP10 SWAP6 PUSH2 0xDC1 SWAP10 PUSH1 0x0 SWAP5 PUSH2 0xDE1 JUMPI JUMPDEST POP POP SHL SWAP2 PUSH1 0x0 NOT SWAP1 PUSH1 0x3 SHL SHR NOT AND OR SWAP1 SSTORE JUMPDEST MLOAD ISZERO ISZERO SWAP2 ADD SWAP1 PUSH1 0xFF DUP1 NOT DUP4 SLOAD AND SWAP2 ISZERO ISZERO AND OR SWAP1 SSTORE JUMP JUMPDEST PUSH1 0x40 MLOAD SWAP4 DUP5 SWAP4 PUSH1 0x40 DUP6 MSTORE PUSH1 0x40 DUP6 ADD SWAP1 PUSH2 0x330F JUMP JUMPDEST SWAP2 DUP4 ADD MSTORE SUB SWAP1 LOG2 PUSH1 0x7 SSTORE STOP JUMPDEST ADD MLOAD SWAP3 POP CODESIZE DUP1 PUSH2 0xD99 JUMP JUMPDEST SWAP1 PUSH1 0x1F SWAP4 SWAP3 SWAP4 NOT DUP4 AND SWAP2 DUP6 PUSH1 0x0 MSTORE DUP10 PUSH1 0x0 KECCAK256 SWAP3 PUSH1 0x0 JUMPDEST DUP2 DUP2 LT PUSH2 0xE6C JUMPI POP SWAP4 PUSH32 0xBE8474F46F152DEF007DACCC49CB9B5C7E8C25D32ED484741F4094362F34A0E0 SWAP12 SWAP10 SWAP8 SWAP4 PUSH2 0xDC1 SWAP8 SWAP4 PUSH2 0xDD5 SWAP13 SWAP11 SWAP8 SWAP4 DUP4 PUSH1 0x5 SWAP9 LT PUSH2 0xE53 JUMPI JUMPDEST POP POP POP DUP2 SHL ADD SWAP1 SSTORE PUSH2 0xDAB JUMP JUMPDEST ADD MLOAD PUSH1 0x0 NOT PUSH1 0xF8 DUP5 PUSH1 0x3 SHL AND SHR NOT AND SWAP1 SSTORE DUP15 DUP1 DUP1 PUSH2 0xE46 JUMP JUMPDEST DUP3 DUP5 ADD MLOAD DUP6 SSTORE DUP15 SWAP7 SWAP1 SWAP5 ADD SWAP4 SWAP3 DUP12 ADD SWAP3 DUP12 ADD PUSH2 0xE02 JUMP JUMPDEST DUP5 PUSH1 0x0 MSTORE DUP9 PUSH1 0x0 KECCAK256 PUSH1 0x1F DUP6 ADD PUSH1 0x5 SHR DUP2 ADD SWAP2 DUP11 DUP7 LT PUSH2 0xEC2 JUMPI JUMPDEST PUSH1 0x1F ADD PUSH1 0x5 SHR ADD SWAP1 DUP4 SWAP1 JUMPDEST DUP3 DUP2 LT PUSH2 0xEB6 JUMPI POP POP PUSH2 0xD4E JUMP JUMPDEST PUSH1 0x0 DUP2 SSTORE ADD DUP4 SWAP1 PUSH2 0xEA8 JUMP JUMPDEST SWAP1 SWAP2 POP DUP2 SWAP1 PUSH2 0xE9D JUMP JUMPDEST PUSH4 0x4E487B71 PUSH1 0xE0 SHL PUSH1 0x0 MSTORE PUSH1 0x41 PUSH1 0x4 MSTORE PUSH1 0x24 PUSH1 0x0 REVERT JUMPDEST PUSH1 0x64 SWAP1 PUSH1 0x40 MLOAD SWAP1 PUSH3 0x461BCD PUSH1 0xE5 SHL DUP3 MSTORE PUSH1 0x4 DUP3 ADD MSTORE PUSH1 0x19 PUSH1 0x24 DUP3 ADD MSTORE PUSH32 0x496E73756666696369656E7420747261696E696E672066656500000000000000 PUSH1 0x44 DUP3 ADD MSTORE REVERT JUMPDEST PUSH1 0x40 MLOAD PUSH3 0x461BCD PUSH1 0xE5 SHL DUP2 MSTORE PUSH1 0x4 DUP2 ADD DUP5 SWAP1 MSTORE PUSH1 0x14 PUSH1 0x24 DUP3 ADD MSTORE PUSH20 0x547261696E696E6720696E2070726F6772657373 PUSH1 0x60 SHL PUSH1 0x44 DUP3 ADD MSTORE PUSH1 0x64 SWAP1 REVERT JUMPDEST PUSH1 0x1 SWAP2 POP ADD SLOAD ISZERO DUP5 PUSH2 0xC8B JUMP JUMPDEST CALLVALUE PUSH2 0x2DA JUMPI PUSH1 0x20 CALLDATASIZE PUSH1 0x3 NOT ADD SLT PUSH2 0x2DA JUMPI PUSH2 0xF8B PUSH1 0x4 CALLDATALOAD PUSH2 0x38CD JUMP JUMPDEST POP PUSH1 0x0 PUSH1 0x40 MLOAD PUSH2 0xF9A DUP2 PUSH2 0x3456 JUMP JUMPDEST MSTORE PUSH2 0xFC2 PUSH1 0x40 MLOAD PUSH2 0xFAA DUP2 PUSH2 0x3456 JUMP JUMPDEST PUSH1 0x0 DUP2 MSTORE PUSH1 0x40 MLOAD SWAP2 DUP3 SWAP2 PUSH1 0x20 DUP4 MSTORE PUSH1 0x20 DUP4 ADD SWAP1 PUSH2 0x330F JUMP JUMPDEST SUB SWAP1 RETURN JUMPDEST CALLVALUE PUSH2 0x2DA JUMPI PUSH1 0x20 CALLDATASIZE PUSH1 0x3 NOT ADD SLT PUSH2 0x2DA JUMPI PUSH1 0x4 CALLDATALOAD PUSH1 0x0 MSTORE PUSH1 0xF PUSH1 0x20 MSTORE PUSH1 0x40 PUSH1 0x0 KECCAK256 DUP1 SLOAD PUSH1 0x1 DUP3 ADD SLOAD SWAP2 PUSH2 0x1049 PUSH1 0x2 DUP3 ADD SLOAD SWAP2 PUSH1 0x3 DUP2 ADD SLOAD PUSH1 0xFF PUSH1 0x5 PUSH1 0x40 MLOAD SWAP4 PUSH2 0x101D DUP6 PUSH2 0x1016 DUP2 PUSH1 0x4 DUP6 ADD PUSH2 0x357C JUMP JUMPDEST SUB DUP7 PUSH2 0x348C JUMP JUMPDEST ADD SLOAD AND SWAP4 PUSH1 0x40 MLOAD SWAP7 DUP8 SWAP7 DUP8 MSTORE PUSH1 0x20 DUP8 ADD MSTORE PUSH1 0x40 DUP7 ADD MSTORE PUSH1 0x60 DUP6 ADD MSTORE PUSH1 0xC0 PUSH1 0x80 DUP6 ADD MSTORE PUSH1 0xC0 DUP5 ADD SWAP1 PUSH2 0x330F JUMP JUMPDEST SWAP1 ISZERO ISZERO PUSH1 0xA0 DUP4 ADD MSTORE SUB SWAP1 RETURN JUMPDEST CALLVALUE PUSH2 0x2DA JUMPI PUSH1 0x0 CALLDATASIZE PUSH1 0x3 NOT ADD SLT PUSH2 0x2DA JUMPI PUSH1 0xC SLOAD PUSH1 0x40 MLOAD PUSH1 0x1 PUSH1 0x1 PUSH1 0xA0 SHL SUB SWAP1 SWAP2 AND DUP2 MSTORE PUSH1 0x20 SWAP1 RETURN JUMPDEST CALLVALUE PUSH2 0x2DA JUMPI PUSH1 0x80 CALLDATASIZE PUSH1 0x3 NOT ADD SLT PUSH2 0x2DA JUMPI PUSH2 0x1097 PUSH2 0x3334 JUMP JUMPDEST PUSH2 0x109F PUSH2 0x334A JUMP JUMPDEST SWAP1 PUSH1 0x44 CALLDATALOAD PUSH1 0x64 CALLDATALOAD SWAP3 PUSH1 0x1 PUSH1 0x1 PUSH1 0x40 SHL SUB DUP5 GT PUSH2 0x2DA JUMPI CALLDATASIZE PUSH1 0x23 DUP6 ADD SLT ISZERO PUSH2 0x2DA JUMPI PUSH2 0x10D7 PUSH2 0x10E9 SWAP5 CALLDATASIZE SWAP1 PUSH1 0x24 DUP2 PUSH1 0x4 ADD CALLDATALOAD SWAP2 ADD PUSH2 0x34C8 JUMP JUMPDEST SWAP3 PUSH2 0x10E3 DUP4 DUP4 DUP4 PUSH2 0x3665 JUMP JUMPDEST CALLER PUSH2 0x3908 JUMP JUMPDEST STOP JUMPDEST CALLVALUE PUSH2 0x2DA JUMPI PUSH1 0x20 CALLDATASIZE PUSH1 0x3 NOT ADD SLT PUSH2 0x2DA JUMPI PUSH1 0x4 CALLDATALOAD PUSH1 0x0 MSTORE PUSH1 0x11 PUSH1 0x20 MSTORE PUSH1 0xE0 PUSH1 0x40 PUSH1 0x0 KECCAK256 DUP1 SLOAD SWAP1 PUSH1 0x1 DUP1 PUSH1 0xA0 SHL SUB PUSH1 0x1 DUP3 ADD SLOAD AND SWAP1 PUSH1 0x2 DUP2 ADD SLOAD PUSH1 0x3 DUP3 ADD SLOAD PUSH1 0x4 DUP4 ADD SLOAD SWAP2 PUSH1 0xFF PUSH1 0x6 PUSH1 0x5 DUP7 ADD SLOAD SWAP6 ADD SLOAD AND SWAP5 PUSH1 0x40 MLOAD SWAP7 DUP8 MSTORE PUSH1 0x20 DUP8 ADD MSTORE PUSH1 0x40 DUP7 ADD MSTORE PUSH1 0x60 DUP6 ADD MSTORE PUSH1 0x80 DUP5 ADD MSTORE PUSH1 0xA0 DUP4 ADD MSTORE ISZERO ISZERO PUSH1 0xC0 DUP3 ADD MSTORE RETURN JUMPDEST PUSH1 0x20 DUP1 PUSH1 0x3 NOT CALLDATASIZE ADD SLT PUSH2 0x2DA JUMPI PUSH1 0x4 CALLDATALOAD SWAP1 PUSH2 0x117E PUSH2 0x3C9C JUMP JUMPDEST PUSH2 0x118A PUSH2 0xC5B DUP4 PUSH2 0x38CD JUMP JUMPDEST DUP2 PUSH1 0x0 MSTORE PUSH1 0xD DUP2 MSTORE PUSH1 0x40 PUSH1 0x0 KECCAK256 SWAP1 PUSH1 0x2 DUP3 ADD DUP1 SLOAD PUSH1 0xFF DUP2 PUSH1 0x18 SHR AND PUSH1 0x4 DUP2 LT ISZERO PUSH2 0x12C6 JUMPI PUSH1 0x3 DUP2 EQ PUSH2 0x1399 JUMPI PUSH1 0x7 DUP6 ADD SLOAD PUSH2 0x11CA PUSH1 0xFF DUP5 PUSH1 0x10 SHR AND PUSH2 0x33CB JUMP JUMPDEST SLOAD GT PUSH2 0x1364 JUMPI PUSH1 0xB SLOAD CALLVALUE LT PUSH2 0x131F JUMPI DUP1 PUSH2 0x12DC JUMPI POP POP DUP1 SLOAD PUSH4 0xFF000000 NOT AND PUSH4 0x1000000 OR DUP2 SSTORE JUMPDEST SLOAD SWAP2 PUSH1 0xFF DUP4 PUSH1 0x10 SHR AND PUSH1 0x5 DUP2 LT ISZERO PUSH2 0x12C6 JUMPI PUSH1 0xA DUP2 MUL SWAP1 DUP1 DUP3 DIV PUSH1 0xA EQ SWAP1 ISZERO OR ISZERO PUSH2 0x6E6 JUMPI PUSH1 0x14 ADD DUP1 PUSH1 0x14 GT PUSH2 0x6E6 JUMPI PUSH1 0x3 DUP3 ADD PUSH2 0x1231 DUP3 DUP3 SLOAD PUSH2 0x3C8F JUMP JUMPDEST SWAP1 SSTORE PUSH1 0x4 DUP3 ADD PUSH2 0x1242 DUP3 DUP3 SLOAD PUSH2 0x3C8F JUMP JUMPDEST SWAP1 SSTORE DUP1 PUSH1 0x1 SHL SWAP4 DUP2 DUP6 DIV PUSH1 0x2 EQ DUP3 ISZERO OR ISZERO PUSH2 0x6E6 JUMPI PUSH1 0x10 DUP4 PUSH2 0x12BE SWAP4 PUSH32 0x6385D084360729354E8D585433E82760D1BC5CD7BC804BD7294E06A8F282BF24 SWAP8 PUSH2 0x1291 PUSH1 0x5 PUSH1 0xFF SWAP9 ADD SWAP2 DUP3 SLOAD PUSH2 0x3C8F JUMP JUMPDEST SWAP1 SSTORE PUSH2 0x12A2 PUSH1 0x6 DUP4 ADD SWAP2 DUP3 SLOAD PUSH2 0x3C8F JUMP JUMPDEST SWAP1 SSTORE ADD PUSH1 0x1 DUP5 NOT DUP3 SLOAD AND OR SWAP1 SSTORE PUSH1 0x40 MLOAD SWAP3 DUP4 SWAP2 PUSH1 0x18 SHR AND PUSH2 0x362C JUMP JUMPDEST LOG2 PUSH1 0x1 PUSH1 0x7 SSTORE STOP JUMPDEST PUSH4 0x4E487B71 PUSH1 0xE0 SHL PUSH1 0x0 MSTORE PUSH1 0x21 PUSH1 0x4 MSTORE PUSH1 0x24 PUSH1 0x0 REVERT JUMPDEST PUSH1 0x1 DUP2 SUB PUSH2 0x12FC JUMPI POP POP DUP1 SLOAD PUSH4 0xFF000000 NOT AND PUSH4 0x2000000 OR DUP2 SSTORE PUSH2 0x11F2 JUMP JUMPDEST PUSH1 0x2 EQ PUSH2 0x130A JUMPI JUMPDEST POP PUSH2 0x11F2 JUMP JUMPDEST PUSH4 0xFF000000 NOT AND PUSH4 0x3000000 OR DUP2 SSTORE DUP5 PUSH2 0x1304 JUMP JUMPDEST PUSH1 0x40 MLOAD PUSH3 0x461BCD PUSH1 0xE5 SHL DUP2 MSTORE PUSH1 0x4 DUP2 ADD DUP6 SWAP1 MSTORE PUSH1 0x1A PUSH1 0x24 DUP3 ADD MSTORE PUSH32 0x496E73756666696369656E742065766F6C7574696F6E20666565000000000000 PUSH1 0x44 DUP3 ADD MSTORE PUSH1 0x64 SWAP1 REVERT JUMPDEST PUSH1 0x40 MLOAD PUSH3 0x461BCD PUSH1 0xE5 SHL DUP2 MSTORE PUSH1 0x4 DUP2 ADD DUP6 SWAP1 MSTORE PUSH1 0xD PUSH1 0x24 DUP3 ADD MSTORE PUSH13 0x4C6576656C20746F6F206C6F77 PUSH1 0x98 SHL PUSH1 0x44 DUP3 ADD MSTORE PUSH1 0x64 SWAP1 REVERT JUMPDEST PUSH1 0x40 MLOAD PUSH3 0x461BCD PUSH1 0xE5 SHL DUP2 MSTORE PUSH1 0x4 DUP2 ADD DUP6 SWAP1 MSTORE PUSH1 0x15 PUSH1 0x24 DUP3 ADD MSTORE PUSH21 0x416C726561647920756C74696D61746520666F726D PUSH1 0x58 SHL PUSH1 0x44 DUP3 ADD MSTORE PUSH1 0x64 SWAP1 REVERT JUMPDEST CALLVALUE PUSH2 0x2DA JUMPI PUSH1 0x0 CALLDATASIZE PUSH1 0x3 NOT ADD SLT PUSH2 0x2DA JUMPI PUSH1 0x20 PUSH1 0xA SLOAD PUSH1 0x40 MLOAD SWAP1 DUP2 MSTORE RETURN JUMPDEST CALLVALUE PUSH2 0x2DA JUMPI PUSH1 0x40 CALLDATASIZE PUSH1 0x3 NOT ADD SLT PUSH2 0x2DA JUMPI PUSH2 0x140D PUSH2 0x3334 JUMP JUMPDEST PUSH1 0x24 CALLDATALOAD SWAP1 DUP2 ISZERO ISZERO SWAP1 DUP2 DUP4 SUB PUSH2 0x2DA JUMPI PUSH1 0x1 PUSH1 0x1 PUSH1 0xA0 SHL SUB AND SWAP2 DUP3 ISZERO PUSH2 0x1489 JUMPI PUSH2 0x145B SWAP1 CALLER PUSH1 0x0 MSTORE PUSH1 0x5 PUSH1 0x20 MSTORE PUSH1 0x40 PUSH1 0x0 KECCAK256 DUP5 PUSH1 0x0 MSTORE PUSH1 0x20 MSTORE PUSH1 0x40 PUSH1 0x0 KECCAK256 SWAP1 PUSH1 0xFF DUP1 NOT DUP4 SLOAD AND SWAP2 ISZERO ISZERO AND OR SWAP1 SSTORE JUMP JUMPDEST PUSH1 0x40 MLOAD SWAP1 DUP2 MSTORE PUSH32 0x17307EAB39AB6107E8899845AD3D59BD9653F200F220920489CA2B5937696C31 PUSH1 0x20 CALLER SWAP3 LOG3 STOP JUMPDEST PUSH1 0x40 MLOAD PUSH4 0xB611743 PUSH1 0xE3 SHL DUP2 MSTORE PUSH1 0x4 DUP2 ADD DUP5 SWAP1 MSTORE PUSH1 0x24 SWAP1 REVERT JUMPDEST CALLVALUE PUSH2 0x2DA JUMPI PUSH1 0x0 CALLDATASIZE PUSH1 0x3 NOT ADD SLT PUSH2 0x2DA JUMPI PUSH1 0x20 PUSH1 0x40 MLOAD PUSH1 0xFA DUP2 MSTORE RETURN JUMPDEST CALLVALUE PUSH2 0x2DA JUMPI PUSH1 0x0 CALLDATASIZE PUSH1 0x3 NOT ADD SLT PUSH2 0x2DA JUMPI PUSH1 0x20 PUSH1 0x40 MLOAD PUSH2 0xE10 DUP2 MSTORE RETURN JUMPDEST CALLVALUE PUSH2 0x2DA JUMPI PUSH1 0x0 CALLDATASIZE PUSH1 0x3 NOT ADD SLT PUSH2 0x2DA JUMPI PUSH1 0x40 MLOAD PUSH1 0x0 PUSH1 0x1 DUP1 SLOAD SWAP1 PUSH2 0x14FF DUP3 PUSH2 0x3542 JUMP JUMPDEST DUP1 DUP6 MSTORE SWAP2 DUP2 DUP2 AND SWAP1 DUP2 ISZERO PUSH2 0x1593 JUMPI POP PUSH1 0x1 EQ PUSH2 0x153A JUMPI JUMPDEST PUSH2 0xFC2 DUP5 PUSH2 0x1526 DUP2 DUP7 SUB DUP3 PUSH2 0x348C JUMP JUMPDEST PUSH1 0x40 MLOAD SWAP2 DUP3 SWAP2 PUSH1 0x20 DUP4 MSTORE PUSH1 0x20 DUP4 ADD SWAP1 PUSH2 0x330F JUMP JUMPDEST PUSH1 0x0 DUP2 DUP2 MSTORE SWAP3 POP PUSH32 0xB10E2D527612073B26EECDFD717E6A320CF44B4AFAC2B0732D9FCBE2B7FA0CF6 JUMPDEST DUP3 DUP5 LT PUSH2 0x157B JUMPI POP POP POP DUP2 ADD PUSH1 0x20 ADD PUSH2 0x1526 DUP3 PUSH2 0x1516 JUMP JUMPDEST DUP1 SLOAD PUSH1 0x20 DUP6 DUP8 ADD DUP2 ADD SWAP2 SWAP1 SWAP2 MSTORE SWAP1 SWAP4 ADD SWAP3 DUP2 ADD PUSH2 0x1563 JUMP JUMPDEST PUSH1 0xFF NOT AND PUSH1 0x20 DUP1 DUP8 ADD SWAP2 SWAP1 SWAP2 MSTORE SWAP3 ISZERO ISZERO PUSH1 0x5 SHL DUP6 ADD SWAP1 SWAP3 ADD SWAP3 POP PUSH2 0x1526 SWAP2 POP DUP4 SWAP1 POP PUSH2 0x1516 JUMP JUMPDEST CALLVALUE PUSH2 0x2DA JUMPI PUSH1 0x0 CALLDATASIZE PUSH1 0x3 NOT ADD SLT PUSH2 0x2DA JUMPI PUSH1 0x20 PUSH1 0xB SLOAD PUSH1 0x40 MLOAD SWAP1 DUP2 MSTORE RETURN JUMPDEST CALLVALUE PUSH2 0x2DA JUMPI PUSH1 0x0 CALLDATASIZE PUSH1 0x3 NOT ADD SLT PUSH2 0x2DA JUMPI PUSH1 0x6 SLOAD PUSH1 0x40 MLOAD PUSH1 0x1 PUSH1 0x1 PUSH1 0xA0 SHL SUB SWAP1 SWAP2 AND DUP2 MSTORE PUSH1 0x20 SWAP1 RETURN JUMPDEST PUSH1 0x20 CALLDATASIZE PUSH1 0x3 NOT ADD SLT PUSH2 0x2DA JUMPI PUSH2 0x1615 PUSH2 0x3C9C JUMP JUMPDEST PUSH1 0x4 CALLDATALOAD PUSH1 0x0 MSTORE PUSH1 0x10 PUSH1 0x20 MSTORE PUSH1 0x40 PUSH1 0x0 KECCAK256 PUSH1 0x3 DUP2 ADD DUP1 SLOAD SWAP2 PUSH2 0x163B PUSH1 0xFF DUP5 PUSH1 0x8 SHR AND PUSH2 0x3DB2 JUMP JUMPDEST PUSH1 0x2 DUP2 ADD SWAP2 DUP3 SLOAD SWAP1 PUSH2 0x164F DUP3 CALLVALUE LT ISZERO PUSH2 0x3DEB JUMP JUMPDEST PUSH1 0xFA DUP3 MUL DUP3 DUP2 DIV PUSH1 0xFA EQ DUP4 ISZERO OR ISZERO PUSH2 0x6E6 JUMPI PUSH1 0x0 DUP1 SWAP4 SWAP3 PUSH2 0x1677 DUP3 SWAP5 PUSH2 0x2710 DUP5 SWAP6 DIV SWAP1 PUSH2 0x3E2E JUMP JUMPDEST SWAP1 PUSH1 0x1 DUP1 PUSH1 0xA0 SHL SUB PUSH1 0x1 DUP9 ADD SLOAD AND SWAP7 SLOAD SWAP9 PUSH2 0xFF00 NOT AND SWAP1 SSTORE PUSH2 0x169A DUP9 CALLER ADDRESS PUSH2 0x3D37 JUMP JUMPDEST DUP6 DUP3 DUP3 ISZERO PUSH2 0x16F7 JUMPI JUMPDEST CALL ISZERO PUSH2 0x6D1 JUMPI SWAP1 SLOAD PUSH1 0x40 DUP1 MLOAD PUSH1 0x1 PUSH1 0x1 PUSH1 0xA0 SHL SUB SWAP1 SWAP4 AND DUP4 MSTORE CALLER PUSH1 0x20 DUP5 ADD MSTORE DUP3 ADD MSTORE PUSH32 0x921C8B778AA5DA00E865FBEBD027ACF9388620C626DF2CD24DF3CF3768E96ED8 SWAP1 DUP1 PUSH1 0x60 DUP2 ADD JUMPDEST SUB SWAP1 LOG2 PUSH1 0x1 PUSH1 0x7 SSTORE STOP JUMPDEST POP PUSH2 0x8FC PUSH2 0x16A3 JUMP JUMPDEST CALLVALUE PUSH2 0x2DA JUMPI PUSH1 0x0 CALLDATASIZE PUSH1 0x3 NOT ADD SLT PUSH2 0x2DA JUMPI PUSH1 0x40 MLOAD DUP1 PUSH1 0x13 SLOAD SWAP2 DUP3 DUP2 MSTORE PUSH1 0x20 DUP1 SWAP2 ADD SWAP3 PUSH1 0x13 PUSH1 0x0 MSTORE PUSH32 0x66DE8FFDA797E3DE9C05E8FC57B3BF0EC28A930D40B0D285D93C06501CF6A090 SWAP2 PUSH1 0x0 SWAP1 JUMPDEST DUP3 DUP3 LT PUSH2 0x1770 JUMPI PUSH2 0xFC2 DUP6 PUSH2 0x1764 DUP2 DUP10 SUB DUP3 PUSH2 0x348C JUMP JUMPDEST PUSH1 0x40 MLOAD SWAP2 DUP3 SWAP2 DUP3 PUSH2 0x33E4 JUMP JUMPDEST DUP4 SLOAD DUP7 MSTORE SWAP5 DUP6 ADD SWAP5 PUSH1 0x1 SWAP4 DUP5 ADD SWAP4 SWAP1 SWAP2 ADD SWAP1 PUSH2 0x174D JUMP JUMPDEST CALLVALUE PUSH2 0x2DA JUMPI PUSH1 0x40 CALLDATASIZE PUSH1 0x3 NOT ADD SLT PUSH2 0x2DA JUMPI PUSH2 0x17A0 PUSH2 0x3334 JUMP JUMPDEST PUSH1 0x1 PUSH1 0x1 PUSH1 0xA0 SHL SUB AND PUSH1 0x0 SWAP1 DUP2 MSTORE PUSH1 0x12 PUSH1 0x20 MSTORE PUSH1 0x40 SWAP1 KECCAK256 DUP1 SLOAD PUSH1 0x24 CALLDATALOAD SWAP2 SWAP1 DUP3 LT ISZERO PUSH2 0x2DA JUMPI PUSH1 0x20 SWAP2 PUSH2 0x17D1 SWAP2 PUSH2 0x3360 JUMP JUMPDEST SWAP1 SLOAD PUSH1 0x40 MLOAD SWAP2 PUSH1 0x3 SHL SHR DUP2 MSTORE RETURN JUMPDEST CALLVALUE PUSH2 0x2DA JUMPI PUSH2 0x17ED CALLDATASIZE PUSH2 0x34FF JUMP JUMPDEST SWAP1 PUSH2 0x17FA PUSH2 0xC5B DUP3 PUSH2 0x38CD JUMP JUMPDEST DUP2 MLOAD DUP1 ISZERO ISZERO SWAP1 DUP2 PUSH2 0x19B8 JUMPI JUMPDEST POP ISZERO PUSH2 0x197D JUMPI DUP1 PUSH1 0x0 MSTORE PUSH1 0x20 SWAP2 PUSH1 0xD DUP4 MSTORE PUSH1 0x1 SWAP3 DUP4 PUSH1 0x40 PUSH1 0x0 KECCAK256 ADD DUP3 MLOAD PUSH1 0x1 PUSH1 0x1 PUSH1 0x40 SHL SUB DUP2 GT PUSH2 0xECC JUMPI PUSH2 0x183B DUP3 SLOAD PUSH2 0x3542 JUMP JUMPDEST PUSH1 0x1F DUP2 GT PUSH2 0x1934 JUMPI JUMPDEST POP DUP3 SWAP6 PUSH1 0x1F DUP3 GT PUSH1 0x1 EQ PUSH2 0x18B5 JUMPI DUP2 DUP1 SWAP2 PUSH32 0x2CA2D10FF2FB729A7904A4320C50E1360E6EFC505EBCA313438474ABE76D2BE1 SWAP8 SWAP9 PUSH1 0x0 SWAP4 PUSH2 0x18AA JUMPI JUMPDEST POP SHL SWAP2 PUSH1 0x0 NOT SWAP1 PUSH1 0x3 SHL SHR NOT AND OR SWAP1 SSTORE JUMPDEST PUSH2 0x18A5 PUSH1 0x40 MLOAD SWAP3 DUP3 DUP5 SWAP4 DUP5 MSTORE DUP4 ADD SWAP1 PUSH2 0x330F JUMP JUMPDEST SUB SWAP1 LOG2 STOP JUMPDEST DUP8 ADD MLOAD SWAP3 POP DUP10 PUSH2 0x1880 JUMP JUMPDEST SWAP1 PUSH1 0x1F NOT DUP2 AND SWAP7 DUP4 PUSH1 0x0 MSTORE DUP5 PUSH1 0x0 KECCAK256 SWAP1 PUSH1 0x0 JUMPDEST DUP10 DUP2 LT PUSH2 0x191F JUMPI POP DUP3 PUSH32 0x2CA2D10FF2FB729A7904A4320C50E1360E6EFC505EBCA313438474ABE76D2BE1 SWAP9 SWAP10 LT PUSH2 0x1906 JUMPI JUMPDEST POP POP DUP2 SHL ADD SWAP1 SSTORE PUSH2 0x1891 JUMP JUMPDEST DUP7 ADD MLOAD PUSH1 0x0 NOT PUSH1 0xF8 DUP5 PUSH1 0x3 SHL AND SHR NOT AND SWAP1 SSTORE DUP8 DUP1 PUSH2 0x18FA JUMP JUMPDEST DUP8 DUP3 ADD MLOAD DUP4 SSTORE SWAP2 DUP5 ADD SWAP2 SWAP1 DUP7 ADD SWAP1 DUP7 ADD PUSH2 0x18C8 JUMP JUMPDEST DUP3 PUSH1 0x0 MSTORE DUP4 PUSH1 0x0 KECCAK256 PUSH1 0x1F DUP4 ADD PUSH1 0x5 SHR DUP2 ADD SWAP2 DUP6 DUP5 LT PUSH2 0x1973 JUMPI JUMPDEST PUSH1 0x1F ADD PUSH1 0x5 SHR ADD SWAP1 DUP8 SWAP1 JUMPDEST DUP3 DUP2 LT PUSH2 0x1967 JUMPI POP POP PUSH2 0x1844 JUMP JUMPDEST PUSH1 0x0 DUP2 SSTORE ADD DUP8 SWAP1 PUSH2 0x1959 JUMP JUMPDEST SWAP1 SWAP2 POP DUP2 SWAP1 PUSH2 0x194E JUMP JUMPDEST PUSH1 0x40 MLOAD PUSH3 0x461BCD PUSH1 0xE5 SHL DUP2 MSTORE PUSH1 0x20 PUSH1 0x4 DUP3 ADD MSTORE PUSH1 0x13 PUSH1 0x24 DUP3 ADD MSTORE PUSH19 0x92DCECC2D8D2C840DCC2DACA40D8CADCCEE8D PUSH1 0x6B SHL PUSH1 0x44 DUP3 ADD MSTORE PUSH1 0x64 SWAP1 REVERT JUMPDEST PUSH1 0x20 SWAP2 POP GT ISZERO DUP4 PUSH2 0x1806 JUMP JUMPDEST CALLVALUE PUSH2 0x2DA JUMPI PUSH1 0x20 CALLDATASIZE PUSH1 0x3 NOT ADD SLT PUSH2 0x2DA JUMPI PUSH2 0x19DD PUSH2 0x3334 JUMP JUMPDEST PUSH2 0x19E5 PUSH2 0x3639 JUMP JUMPDEST PUSH1 0xC DUP1 SLOAD PUSH1 0x1 PUSH1 0x1 PUSH1 0xA0 SHL SUB NOT AND PUSH1 0x1 PUSH1 0x1 PUSH1 0xA0 SHL SUB SWAP3 SWAP1 SWAP3 AND SWAP2 SWAP1 SWAP2 OR SWAP1 SSTORE STOP JUMPDEST CALLVALUE PUSH2 0x2DA JUMPI PUSH1 0x0 CALLDATASIZE PUSH1 0x3 NOT ADD SLT PUSH2 0x2DA JUMPI PUSH2 0x1A20 PUSH2 0x3639 JUMP JUMPDEST PUSH1 0x6 DUP1 SLOAD PUSH1 0x1 PUSH1 0x1 PUSH1 0xA0 SHL SUB NOT DUP2 AND SWAP1 SWAP2 SSTORE PUSH1 0x0 SWAP1 PUSH1 0x1 PUSH1 0x1 PUSH1 0xA0 SHL SUB AND PUSH32 0x8BE0079C531659141344CD1FD0A4F28419497F9722A3DAAFE3B4186F6B6457E0 DUP3 DUP1 LOG3 STOP JUMPDEST CALLVALUE PUSH2 0x2DA JUMPI PUSH1 0x20 CALLDATASIZE PUSH1 0x3 NOT ADD SLT PUSH2 0x2DA JUMPI PUSH1 0x1 PUSH1 0x1 PUSH1 0xA0 SHL SUB PUSH2 0x1A85 PUSH2 0x3334 JUMP JUMPDEST AND DUP1 ISZERO PUSH2 0x1AA4 JUMPI PUSH1 0x0 MSTORE PUSH1 0x3 PUSH1 0x20 MSTORE PUSH1 0x20 PUSH1 0x40 PUSH1 0x0 KECCAK256 SLOAD PUSH1 0x40 MLOAD SWAP1 DUP2 MSTORE RETURN JUMPDEST PUSH1 0x40 MLOAD PUSH4 0x22718AD9 PUSH1 0xE2 SHL DUP2 MSTORE PUSH1 0x0 PUSH1 0x4 DUP3 ADD MSTORE PUSH1 0x24 SWAP1 REVERT JUMPDEST PUSH1 0x40 CALLDATASIZE PUSH1 0x3 NOT ADD SLT PUSH2 0x2DA JUMPI PUSH2 0x1AD1 PUSH2 0x3C9C JUMP JUMPDEST PUSH2 0x1ADC PUSH1 0x4 CALLDATALOAD PUSH2 0x38CD JUMP JUMPDEST PUSH1 0x1 PUSH1 0x1 PUSH1 0xA0 SHL SUB SWAP1 CALLER SWAP1 DUP3 AND SUB PUSH2 0x22AE JUMPI CALLER SWAP1 PUSH2 0x1AFB PUSH1 0x24 CALLDATALOAD PUSH2 0x38CD JUMP JUMPDEST AND SUB PUSH2 0x2271 JUMPI PUSH1 0x4 CALLDATALOAD PUSH1 0x0 MSTORE PUSH1 0xD PUSH1 0x20 MSTORE PUSH1 0x4 PUSH1 0x7 PUSH1 0x40 PUSH1 0x0 KECCAK256 ADD SLOAD LT PUSH2 0x2233 JUMPI PUSH1 0x24 CALLDATALOAD PUSH1 0x0 MSTORE PUSH1 0xD PUSH1 0x20 MSTORE PUSH1 0x4 PUSH1 0x7 PUSH1 0x40 PUSH1 0x0 KECCAK256 ADD SLOAD LT PUSH2 0x21F5 JUMPI PUSH7 0xB1A2BC2EC50000 CALLVALUE LT PUSH2 0x21B8 JUMPI PUSH1 0x4 CALLDATALOAD PUSH1 0x0 MSTORE PUSH1 0xD PUSH1 0x20 MSTORE PUSH1 0x40 PUSH1 0x0 KECCAK256 PUSH1 0xFF PUSH1 0x10 PUSH1 0x40 MLOAD SWAP3 PUSH2 0x1B66 DUP5 PUSH2 0x343A JUMP JUMPDEST DUP1 SLOAD DUP5 MSTORE PUSH1 0x40 MLOAD PUSH2 0x1B7E DUP2 PUSH2 0x3A8 DUP2 PUSH1 0x1 DUP7 ADD PUSH2 0x357C JUMP JUMPDEST PUSH1 0x20 DUP6 ADD MSTORE PUSH2 0x1B9B DUP4 PUSH1 0x2 DUP4 ADD SLOAD PUSH2 0x852 DUP3 DUP3 AND PUSH1 0x40 DUP10 ADD PUSH2 0x3A78 JUMP JUMPDEST PUSH1 0x3 DUP2 ADD SLOAD PUSH1 0xC0 DUP6 ADD MSTORE PUSH1 0x4 DUP2 ADD SLOAD PUSH1 0xE0 DUP6 ADD MSTORE PUSH1 0x5 DUP2 ADD SLOAD PUSH2 0x100 DUP6 ADD MSTORE PUSH1 0x6 DUP2 ADD SLOAD PUSH2 0x120 DUP6 ADD MSTORE PUSH1 0x7 DUP2 ADD SLOAD PUSH2 0x140 DUP6 ADD MSTORE PUSH1 0x8 DUP2 ADD SLOAD PUSH2 0x160 DUP6 ADD MSTORE PUSH1 0x9 DUP2 ADD SLOAD PUSH2 0x180 DUP6 ADD MSTORE PUSH1 0xA DUP2 ADD SLOAD PUSH2 0x1A0 DUP6 ADD MSTORE PUSH1 0xB DUP2 ADD SLOAD PUSH2 0x1C0 DUP6 ADD MSTORE PUSH1 0xC DUP2 ADD SLOAD PUSH2 0x1E0 DUP6 ADD MSTORE PUSH1 0xD DUP2 ADD SLOAD PUSH2 0x200 DUP6 ADD MSTORE PUSH1 0xE DUP2 ADD SLOAD PUSH2 0x220 DUP6 ADD MSTORE PUSH1 0xF DUP2 ADD SLOAD PUSH2 0x240 DUP6 ADD MSTORE ADD SLOAD AND ISZERO ISZERO PUSH2 0x260 DUP3 ADD MSTORE PUSH1 0x24 CALLDATALOAD PUSH1 0x0 MSTORE PUSH1 0xD PUSH1 0x20 MSTORE PUSH1 0x40 PUSH1 0x0 KECCAK256 PUSH1 0xFF PUSH1 0x10 PUSH1 0x40 MLOAD SWAP3 PUSH2 0x1C54 DUP5 PUSH2 0x343A JUMP JUMPDEST DUP1 SLOAD DUP5 MSTORE PUSH1 0x40 MLOAD PUSH2 0x1C6C DUP2 PUSH2 0x3A8 DUP2 PUSH1 0x1 DUP7 ADD PUSH2 0x357C JUMP JUMPDEST PUSH1 0x20 DUP6 ADD MSTORE PUSH2 0x1C89 DUP4 PUSH1 0x2 DUP4 ADD SLOAD PUSH2 0x852 DUP3 DUP3 AND PUSH1 0x40 DUP10 ADD PUSH2 0x3A78 JUMP JUMPDEST PUSH1 0x3 DUP2 ADD SLOAD PUSH1 0xC0 DUP6 ADD MSTORE PUSH1 0x4 DUP2 ADD SLOAD PUSH1 0xE0 DUP6 ADD MSTORE PUSH1 0x5 DUP2 ADD SLOAD PUSH2 0x100 DUP6 ADD MSTORE PUSH1 0x6 DUP2 ADD SLOAD PUSH2 0x120 DUP6 ADD MSTORE PUSH1 0x7 DUP2 ADD SLOAD PUSH2 0x140 DUP6 ADD MSTORE PUSH1 0x8 DUP2 ADD SLOAD PUSH2 0x160 DUP6 ADD MSTORE PUSH1 0x9 DUP2 ADD SLOAD PUSH2 0x180 DUP6 ADD MSTORE PUSH1 0xA DUP2 ADD SLOAD PUSH2 0x1A0 DUP6 ADD MSTORE PUSH1 0xB DUP2 ADD SLOAD PUSH2 0x1C0 DUP6 ADD MSTORE PUSH1 0xC DUP2 ADD SLOAD PUSH2 0x1E0 DUP6 ADD MSTORE PUSH1 0xD DUP2 ADD SLOAD PUSH2 0x200 DUP6 ADD MSTORE PUSH1 0xE DUP2 ADD SLOAD PUSH2 0x220 DUP6 ADD MSTORE PUSH1 0xF DUP2 ADD SLOAD PUSH2 0x240 DUP6 ADD MSTORE ADD SLOAD AND ISZERO ISZERO PUSH2 0x260 DUP3 ADD MSTORE PUSH1 0x40 DUP3 ADD MLOAD PUSH1 0xA DUP2 LT ISZERO PUSH2 0x12C6 JUMPI PUSH1 0x40 DUP3 ADD MLOAD SWAP3 PUSH1 0xA DUP5 LT ISZERO PUSH2 0x12C6 JUMPI PUSH1 0x80 DUP2 ADD MLOAD PUSH1 0x5 DUP2 LT ISZERO PUSH2 0x12C6 JUMPI PUSH1 0x80 DUP5 ADD MLOAD SWAP1 PUSH1 0x5 DUP3 LT ISZERO PUSH2 0x12C6 JUMPI GT ISZERO PUSH2 0x21A4 JUMPI PUSH1 0x80 DUP2 ADD MLOAD PUSH1 0x5 DUP2 LT ISZERO PUSH2 0x12C6 JUMPI SWAP3 JUMPDEST PUSH1 0x8 SLOAD SWAP4 PUSH2 0x1D7E DUP6 PUSH2 0x3A56 JUMP JUMPDEST PUSH1 0x8 SSTORE PUSH2 0x1DB3 PUSH2 0x1D8D DUP3 PUSH2 0x3E3B JUMP JUMPDEST SWAP3 PUSH1 0xE0 DUP1 PUSH2 0x1DA4 PUSH1 0xC0 DUP9 ADD MLOAD PUSH1 0xC0 DUP6 ADD MLOAD SWAP1 PUSH2 0x3C8F JUMP JUMPDEST PUSH1 0x1 SHR SWAP7 ADD MLOAD SWAP2 ADD MLOAD SWAP1 PUSH2 0x3C8F JUMP JUMPDEST PUSH1 0x1 SHR PUSH2 0x1E14 PUSH2 0x1E0A PUSH2 0x1DC5 DUP9 PUSH2 0x3E7D JUMP JUMPDEST SWAP6 PUSH2 0x1E04 PUSH1 0x28 PUSH1 0x40 MLOAD DUP1 SWAP10 PUSH8 0x447261676F6E2023 PUSH1 0xC0 SHL PUSH1 0x20 DUP4 ADD MSTORE PUSH2 0x1DF4 DUP2 MLOAD DUP1 SWAP3 PUSH1 0x20 DUP7 DUP7 ADD SWAP2 ADD PUSH2 0x32EC JUMP JUMPDEST DUP2 ADD SUB PUSH1 0x8 DUP2 ADD DUP11 MSTORE ADD DUP9 PUSH2 0x348C JUMP JUMPDEST DUP6 PUSH2 0x3C8F JUMP JUMPDEST PUSH1 0x1 SHR SWAP2 DUP5 PUSH2 0x3C8F JUMP JUMPDEST PUSH1 0x1 SHR SWAP2 DUP4 DUP1 PUSH1 0x1 SHL DIV PUSH1 0x2 EQ DUP5 ISZERO OR ISZERO PUSH2 0x6E6 JUMPI PUSH2 0x1E65 SWAP1 PUSH1 0x40 MLOAD SWAP6 PUSH2 0x1E3A DUP8 PUSH2 0x343A JUMP JUMPDEST DUP9 DUP8 MSTORE PUSH1 0x20 DUP8 ADD MSTORE PUSH2 0x1E4F DUP8 PUSH1 0x40 DUP9 ADD PUSH2 0x3A78 JUMP JUMPDEST PUSH2 0x1E5C DUP10 PUSH1 0x60 DUP9 ADD PUSH2 0x3A78 JUMP JUMPDEST PUSH1 0x80 DUP7 ADD PUSH2 0x3A84 JUMP JUMPDEST PUSH1 0x0 PUSH1 0xA0 DUP6 ADD MSTORE PUSH1 0xC0 DUP5 ADD MSTORE PUSH1 0xE0 DUP4 ADD MSTORE DUP1 PUSH1 0x1 SHL PUSH2 0x100 DUP4 ADD MSTORE PUSH2 0x120 DUP3 ADD MSTORE PUSH1 0x1 PUSH2 0x140 DUP3 ADD MSTORE PUSH1 0x0 PUSH2 0x160 DUP3 ADD MSTORE PUSH1 0x0 PUSH2 0x180 DUP3 ADD MSTORE PUSH1 0x0 PUSH2 0x1A0 DUP3 ADD MSTORE PUSH1 0x0 PUSH2 0x1C0 DUP3 ADD MSTORE TIMESTAMP PUSH2 0x1E0 DUP3 ADD MSTORE PUSH1 0x0 PUSH2 0x200 DUP3 ADD MSTORE PUSH1 0x4 CALLDATALOAD PUSH2 0x220 DUP3 ADD MSTORE PUSH1 0x24 CALLDATALOAD PUSH2 0x240 DUP3 ADD MSTORE PUSH1 0x0 PUSH2 0x260 DUP3 ADD MSTORE DUP3 PUSH1 0x0 MSTORE PUSH1 0xD PUSH1 0x20 MSTORE PUSH1 0x40 PUSH1 0x0 KECCAK256 SWAP4 DUP2 MLOAD DUP6 SSTORE PUSH1 0x20 DUP3 ADD MLOAD DUP1 MLOAD SWAP1 PUSH1 0x1 PUSH1 0x1 PUSH1 0x40 SHL SUB DUP3 GT PUSH2 0xECC JUMPI DUP2 SWAP1 PUSH2 0x1F0F PUSH1 0x1 DUP10 ADD SLOAD PUSH2 0x3542 JUMP JUMPDEST PUSH1 0x1F DUP2 GT PUSH2 0x2151 JUMPI JUMPDEST POP PUSH1 0x20 SWAP1 PUSH1 0x1F DUP4 GT PUSH1 0x1 EQ PUSH2 0x20DF JUMPI PUSH1 0x0 SWAP3 PUSH2 0x20D4 JUMPI JUMPDEST POP POP DUP2 PUSH1 0x1 SHL SWAP2 PUSH1 0x0 NOT SWAP1 PUSH1 0x3 SHL SHR NOT AND OR PUSH1 0x1 DUP7 ADD SSTORE JUMPDEST PUSH1 0x40 DUP3 ADD MLOAD PUSH1 0xA DUP2 LT ISZERO PUSH2 0x12C6 JUMPI PUSH1 0x2 DUP7 ADD SLOAD PUSH1 0x60 DUP5 ADD MLOAD SWAP1 PUSH1 0xA DUP3 LT ISZERO PUSH2 0x12C6 JUMPI PUSH1 0x80 DUP6 ADD MLOAD SWAP1 PUSH1 0x5 DUP3 LT ISZERO PUSH2 0x12C6 JUMPI PUSH1 0xFF PUSH3 0xFF0000 PUSH2 0xFF00 SWAP4 PUSH1 0x10 SHL AND SWAP5 AND SWAP1 PUSH3 0xFFFFFF NOT AND OR SWAP2 PUSH1 0x8 SHL AND OR OR PUSH1 0x2 DUP7 ADD SSTORE PUSH1 0xA0 DUP3 ADD MLOAD PUSH1 0x4 DUP2 LT ISZERO PUSH2 0x12C6 JUMPI DUP6 PUSH1 0x10 PUSH2 0x260 PUSH2 0x20A0 SWAP6 PUSH2 0x1FC6 PUSH2 0x206A SWAP6 PUSH1 0x2 PUSH1 0x20 SWAP13 ADD PUSH2 0x3A9C JUMP JUMPDEST PUSH1 0xC0 DUP2 ADD MLOAD PUSH1 0x3 DUP6 ADD SSTORE PUSH1 0xE0 DUP2 ADD MLOAD PUSH1 0x4 DUP6 ADD SSTORE PUSH2 0x100 DUP2 ADD MLOAD PUSH1 0x5 DUP6 ADD SSTORE PUSH2 0x120 DUP2 ADD MLOAD PUSH1 0x6 DUP6 ADD SSTORE PUSH2 0x140 DUP2 ADD MLOAD PUSH1 0x7 DUP6 ADD SSTORE PUSH2 0x160 DUP2 ADD MLOAD PUSH1 0x8 DUP6 ADD SSTORE PUSH2 0x180 DUP2 ADD MLOAD PUSH1 0x9 DUP6 ADD SSTORE PUSH2 0x1A0 DUP2 ADD MLOAD PUSH1 0xA DUP6 ADD SSTORE PUSH2 0x1C0 DUP2 ADD MLOAD PUSH1 0xB DUP6 ADD SSTORE PUSH2 0x1E0 DUP2 ADD MLOAD PUSH1 0xC DUP6 ADD SSTORE PUSH2 0x200 DUP2 ADD MLOAD PUSH1 0xD DUP6 ADD SSTORE PUSH2 0x220 DUP2 ADD MLOAD PUSH1 0xE DUP6 ADD SSTORE PUSH2 0x240 DUP2 ADD MLOAD PUSH1 0xF DUP6 ADD SSTORE ADD MLOAD ISZERO ISZERO SWAP2 ADD SWAP1 PUSH1 0xFF DUP1 NOT DUP4 SLOAD AND SWAP2 ISZERO ISZERO AND OR SWAP1 SSTORE JUMP JUMPDEST CALLER PUSH1 0x0 MSTORE PUSH1 0xE DUP6 MSTORE PUSH2 0x2080 DUP5 PUSH1 0x40 PUSH1 0x0 KECCAK256 PUSH2 0x3ABF JUMP JUMPDEST PUSH2 0x208A DUP5 CALLER PUSH2 0x3AF4 JUMP JUMPDEST PUSH2 0x2097 PUSH1 0x40 MLOAD DUP1 SWAP5 PUSH2 0x3612 JUMP JUMPDEST DUP5 DUP4 ADD SWAP1 PUSH2 0x3612 JUMP JUMPDEST DUP2 PUSH32 0x12D357F460FFFE1442E0897BAF3A26312E1A818C5D58B42693368B707FBEA6E1 PUSH1 0x40 CALLER SWAP4 LOG3 PUSH1 0x1 PUSH1 0x7 SSTORE PUSH1 0x40 MLOAD SWAP1 DUP2 MSTORE RETURN JUMPDEST ADD MLOAD SWAP1 POP DUP8 DUP1 PUSH2 0x1F2F JUMP JUMPDEST SWAP3 POP PUSH1 0x1 DUP9 ADD PUSH1 0x0 MSTORE PUSH1 0x20 PUSH1 0x0 KECCAK256 SWAP1 PUSH1 0x0 SWAP4 JUMPDEST PUSH1 0x1F NOT DUP5 AND DUP6 LT PUSH2 0x2136 JUMPI PUSH1 0x1 SWAP5 POP DUP4 PUSH1 0x1F NOT DUP2 AND LT PUSH2 0x211D JUMPI JUMPDEST POP POP POP DUP2 SHL ADD PUSH1 0x1 DUP7 ADD SSTORE PUSH2 0x1F47 JUMP JUMPDEST ADD MLOAD PUSH1 0x0 NOT PUSH1 0xF8 DUP5 PUSH1 0x3 SHL AND SHR NOT AND SWAP1 SSTORE DUP8 DUP1 DUP1 PUSH2 0x210D JUMP JUMPDEST DUP2 DUP2 ADD MLOAD DUP4 SSTORE PUSH1 0x20 SWAP5 DUP6 ADD SWAP5 PUSH1 0x1 SWAP1 SWAP4 ADD SWAP3 SWAP1 SWAP2 ADD SWAP1 PUSH2 0x20F2 JUMP JUMPDEST SWAP1 SWAP2 POP PUSH1 0x1 DUP9 ADD PUSH1 0x0 MSTORE PUSH1 0x20 PUSH1 0x0 KECCAK256 PUSH1 0x1F DUP5 ADD PUSH1 0x5 SHR DUP2 ADD PUSH1 0x20 DUP6 LT PUSH2 0x219D JUMPI JUMPDEST SWAP1 DUP5 SWAP4 SWAP3 SWAP2 JUMPDEST PUSH1 0x1F DUP4 ADD PUSH1 0x5 SHR DUP3 ADD DUP2 LT PUSH2 0x218E JUMPI POP POP PUSH2 0x1F18 JUMP JUMPDEST PUSH1 0x0 DUP2 SSTORE DUP6 SWAP5 POP PUSH1 0x1 ADD PUSH2 0x2178 JUMP JUMPDEST POP DUP1 PUSH2 0x2172 JUMP JUMPDEST PUSH1 0x80 DUP4 ADD MLOAD PUSH1 0x5 DUP2 LT ISZERO PUSH2 0x12C6 JUMPI SWAP3 PUSH2 0x1D71 JUMP JUMPDEST PUSH1 0x40 MLOAD PUSH3 0x461BCD PUSH1 0xE5 SHL DUP2 MSTORE PUSH1 0x20 PUSH1 0x4 DUP3 ADD MSTORE PUSH1 0x15 PUSH1 0x24 DUP3 ADD MSTORE PUSH21 0x109C9959591A5B99C8199959481C995C5D5A5C9959 PUSH1 0x5A SHL PUSH1 0x44 DUP3 ADD MSTORE PUSH1 0x64 SWAP1 REVERT JUMPDEST PUSH1 0x40 MLOAD PUSH3 0x461BCD PUSH1 0xE5 SHL DUP2 MSTORE PUSH1 0x20 PUSH1 0x4 DUP3 ADD MSTORE PUSH1 0x16 PUSH1 0x24 DUP3 ADD MSTORE PUSH22 0x506172656E742032206C6576656C20746F6F206C6F77 PUSH1 0x50 SHL PUSH1 0x44 DUP3 ADD MSTORE PUSH1 0x64 SWAP1 REVERT JUMPDEST PUSH1 0x40 MLOAD PUSH3 0x461BCD PUSH1 0xE5 SHL DUP2 MSTORE PUSH1 0x20 PUSH1 0x4 DUP3 ADD MSTORE PUSH1 0x16 PUSH1 0x24 DUP3 ADD MSTORE PUSH22 0x506172656E742031206C6576656C20746F6F206C6F77 PUSH1 0x50 SHL PUSH1 0x44 DUP3 ADD MSTORE PUSH1 0x64 SWAP1 REVERT JUMPDEST PUSH1 0x40 MLOAD PUSH3 0x461BCD PUSH1 0xE5 SHL DUP2 MSTORE PUSH1 0x20 PUSH1 0x4 DUP3 ADD MSTORE PUSH1 0x15 PUSH1 0x24 DUP3 ADD MSTORE PUSH21 0x2737BA1037BBB732B91037B3103830B932B73A1019 PUSH1 0x59 SHL PUSH1 0x44 DUP3 ADD MSTORE PUSH1 0x64 SWAP1 REVERT JUMPDEST PUSH1 0x40 MLOAD PUSH3 0x461BCD PUSH1 0xE5 SHL DUP2 MSTORE PUSH1 0x20 PUSH1 0x4 DUP3 ADD MSTORE PUSH1 0x15 PUSH1 0x24 DUP3 ADD MSTORE PUSH21 0x4E6F74206F776E6572206F6620706172656E742031 PUSH1 0x58 SHL PUSH1 0x44 DUP3 ADD MSTORE PUSH1 0x64 SWAP1 REVERT JUMPDEST CALLVALUE PUSH2 0x2DA JUMPI PUSH1 0x20 DUP1 PUSH1 0x3 NOT CALLDATASIZE ADD SLT PUSH2 0x2DA JUMPI PUSH1 0x4 CALLDATALOAD PUSH2 0x230C PUSH2 0xC5B DUP3 PUSH2 0x38CD JUMP JUMPDEST DUP1 PUSH1 0x0 MSTORE PUSH1 0xF DUP3 MSTORE PUSH1 0x40 PUSH1 0x0 KECCAK256 PUSH1 0x1 SWAP3 DUP4 DUP3 ADD SLOAD SWAP2 DUP3 ISZERO PUSH2 0x26AD JUMPI PUSH1 0x5 PUSH2 0x2349 DUP2 DUP4 ADD SWAP5 PUSH2 0x233E PUSH1 0xFF DUP8 SLOAD AND ISZERO PUSH2 0x3CF7 JUMP JUMPDEST PUSH1 0x2 DUP5 ADD SLOAD SWAP1 PUSH2 0x3C8F JUMP JUMPDEST TIMESTAMP LT PUSH2 0x2670 JUMPI DUP5 PUSH1 0x0 MSTORE PUSH1 0xD DUP4 MSTORE PUSH1 0x40 PUSH1 0x0 KECCAK256 SWAP6 PUSH1 0x3 SWAP3 DUP4 DUP2 ADD SLOAD PUSH1 0xA SLOAD SWAP1 DUP2 ISZERO PUSH2 0x265A JUMPI DIV SWAP8 DUP4 DUP10 MUL SWAP9 DUP1 DUP11 DIV DUP6 EQ SWAP1 ISZERO OR ISZERO PUSH2 0x6E6 JUMPI PUSH1 0x4 PUSH1 0x8 SWAP3 ADD SWAP7 PUSH32 0x46D1AF4265F4530C75B41282ED3B71617D3D435E96FE13B08848482173692F4F PUSH1 0x40 MLOAD PUSH2 0x23BA DUP2 PUSH2 0x3A8 DUP2 DUP14 PUSH2 0x357C JUMP JUMPDEST DUP9 DUP2 MLOAD SWAP2 ADD KECCAK256 PUSH6 0x61747461636B PUSH1 0xD0 SHL DUP10 PUSH1 0x40 MLOAD PUSH2 0x23D7 DUP2 PUSH2 0x3471 JUMP JUMPDEST PUSH1 0x6 DUP2 MSTORE ADD MSTORE SUB PUSH2 0x2519 JUMPI DUP6 DUP3 ADD PUSH2 0x23F0 DUP12 DUP3 SLOAD PUSH2 0x3C8F JUMP JUMPDEST SWAP1 SSTORE JUMPDEST PUSH1 0x9 DUP3 ADD PUSH2 0x2401 DUP2 SLOAD PUSH2 0x3A56 JUMP JUMPDEST SWAP1 SSTORE TIMESTAMP PUSH1 0xD DUP4 ADD SSTORE DUP4 PUSH1 0xFF NOT DUP3 SLOAD AND OR SWAP1 SSTORE ADD DUP1 SLOAD SWAP1 PUSH1 0x32 DUP3 ADD DUP1 SWAP3 GT PUSH2 0x6E6 JUMPI SSTORE DUP6 PUSH1 0x0 MSTORE PUSH1 0xD DUP5 MSTORE PUSH1 0x40 PUSH1 0x0 KECCAK256 SWAP2 PUSH1 0x7 DUP4 ADD SWAP3 DUP4 SLOAD SWAP5 PUSH1 0x64 SWAP6 DUP7 DUP2 MUL SWAP1 DUP1 DUP3 DIV DUP9 EQ SWAP1 ISZERO OR ISZERO PUSH2 0x6E6 JUMPI PUSH1 0x8 DUP4 ADD DUP6 DUP4 DUP6 ADD SWAP2 PUSH1 0x4 DUP7 ADD SWAP4 PUSH1 0x6 DUP9 DUP9 ADD SWAP8 ADD SWAP9 JUMPDEST PUSH2 0x24AF JUMPI JUMPDEST DUP14 DUP16 PUSH2 0x24A6 DUP16 DUP16 PUSH32 0x8728C4E179FFF9E80C2536EE7E38ED8130EC569E2C63FBDA3C795E199C1A810C SWAP4 PUSH1 0x40 MLOAD SWAP4 DUP5 SWAP4 PUSH1 0x40 DUP6 MSTORE PUSH1 0x40 DUP6 ADD SWAP1 PUSH2 0x357C JUMP JUMPDEST SWAP2 DUP4 ADD MSTORE SUB SWAP1 LOG2 STOP JUMPDEST DUP2 SLOAD LT PUSH2 0x2513 JUMPI PUSH2 0x24C0 DUP10 SLOAD PUSH2 0x3A56 JUMP JUMPDEST DUP1 DUP11 SSTORE DUP4 SLOAD DUP7 DUP2 ADD DUP1 SWAP2 GT PUSH2 0x6E6 JUMPI DUP5 SSTORE DUP5 SLOAD DUP7 DUP2 ADD DUP1 SWAP2 GT PUSH2 0x6E6 JUMPI DUP6 SSTORE DUP7 SLOAD DUP9 DUP2 ADD DUP1 SWAP2 GT PUSH2 0x6E6 JUMPI DUP8 SSTORE DUP9 SLOAD PUSH1 0x2 DUP2 ADD DUP1 SWAP2 GT PUSH2 0x6E6 JUMPI DUP10 SSTORE DUP11 DUP2 MUL SWAP1 DUP1 DUP3 DIV DUP13 EQ SWAP1 ISZERO OR ISZERO PUSH2 0x6E6 JUMPI DUP3 PUSH2 0x2464 JUMP JUMPDEST DUP1 PUSH2 0x2469 JUMP JUMPDEST PUSH32 0xC44DA315FA8BC9654E62BDBFFF44A77A572E467F40CBD23B7E611BF2D6604285 PUSH1 0x40 MLOAD PUSH2 0x254B DUP2 PUSH2 0x3A8 DUP2 DUP14 PUSH2 0x357C JUMP JUMPDEST DUP9 DUP2 MLOAD SWAP2 ADD KECCAK256 PUSH7 0x646566656E7365 PUSH1 0xC8 SHL DUP10 PUSH1 0x40 MLOAD PUSH2 0x2569 DUP2 PUSH2 0x3471 JUMP JUMPDEST PUSH1 0x7 DUP2 MSTORE ADD MSTORE SUB PUSH2 0x258B JUMPI PUSH1 0x4 DUP3 ADD PUSH2 0x2583 DUP12 DUP3 SLOAD PUSH2 0x3C8F JUMP JUMPDEST SWAP1 SSTORE JUMPDEST PUSH2 0x23F3 JUMP JUMPDEST PUSH32 0x9005B4BF3E8C5705FF2B172ED7C0FF76F0096EFED0943457E640B66DA01B97D2 PUSH1 0x40 MLOAD PUSH2 0x25BD DUP2 PUSH2 0x3A8 DUP2 DUP14 PUSH2 0x357C JUMP JUMPDEST DUP9 DUP2 MLOAD SWAP2 ADD KECCAK256 PUSH6 0xD0CAC2D8E8D PUSH1 0xD3 SHL DUP10 PUSH1 0x40 MLOAD PUSH2 0x25DA DUP2 PUSH2 0x3471 JUMP JUMPDEST PUSH1 0x6 DUP2 MSTORE ADD MSTORE SUB PUSH2 0x25F3 JUMPI DUP5 DUP3 ADD PUSH2 0x2583 DUP12 DUP3 SLOAD PUSH2 0x3C8F JUMP JUMPDEST PUSH32 0x1AA3A92BF48444EC6C0BA221A56BA9A0EEDB5E06C28B451A0096D0683FF4FDD3 PUSH1 0x40 MLOAD PUSH2 0x2625 DUP2 PUSH2 0x3A8 DUP2 DUP14 PUSH2 0x357C JUMP JUMPDEST DUP9 DUP2 MLOAD SWAP2 ADD KECCAK256 PUSH5 0x1CDC195959 PUSH1 0xDA SHL DUP10 PUSH1 0x40 MLOAD PUSH2 0x2641 DUP2 PUSH2 0x3471 JUMP JUMPDEST DUP10 DUP2 MSTORE ADD MSTORE SUB PUSH2 0x2586 JUMPI PUSH1 0x6 DUP3 ADD PUSH2 0x2583 DUP12 DUP3 SLOAD PUSH2 0x3C8F JUMP JUMPDEST PUSH4 0x4E487B71 PUSH1 0xE0 SHL PUSH1 0x0 MSTORE PUSH1 0x12 PUSH1 0x4 MSTORE PUSH1 0x24 PUSH1 0x0 REVERT JUMPDEST PUSH1 0x40 MLOAD PUSH3 0x461BCD PUSH1 0xE5 SHL DUP2 MSTORE PUSH1 0x4 DUP2 ADD DUP5 SWAP1 MSTORE PUSH1 0x15 PUSH1 0x24 DUP3 ADD MSTORE PUSH21 0x151C985A5B9A5B99C81B9BDD08199A5B9A5CDA1959 PUSH1 0x5A SHL PUSH1 0x44 DUP3 ADD MSTORE PUSH1 0x64 SWAP1 REVERT JUMPDEST PUSH1 0x40 MLOAD PUSH3 0x461BCD PUSH1 0xE5 SHL DUP2 MSTORE PUSH1 0x4 DUP2 ADD DUP4 SWAP1 MSTORE PUSH1 0x13 PUSH1 0x24 DUP3 ADD MSTORE PUSH19 0x2737903A3930B4B734B7339039B2B9B9B4B7B7 PUSH1 0x69 SHL PUSH1 0x44 DUP3 ADD MSTORE PUSH1 0x64 SWAP1 REVERT JUMPDEST CALLVALUE PUSH2 0x2DA JUMPI PUSH1 0x20 CALLDATASIZE PUSH1 0x3 NOT ADD SLT PUSH2 0x2DA JUMPI PUSH1 0x20 PUSH2 0x2706 PUSH1 0x4 CALLDATALOAD PUSH2 0x38CD JUMP JUMPDEST PUSH1 0x40 MLOAD PUSH1 0x1 PUSH1 0x1 PUSH1 0xA0 SHL SUB SWAP1 SWAP2 AND DUP2 MSTORE RETURN JUMPDEST CALLVALUE PUSH2 0x2DA JUMPI PUSH1 0x20 CALLDATASIZE PUSH1 0x3 NOT ADD SLT PUSH2 0x2DA JUMPI PUSH2 0x2731 PUSH2 0x3639 JUMP JUMPDEST PUSH1 0x4 CALLDATALOAD PUSH1 0xA SSTORE STOP JUMPDEST PUSH2 0x3378 JUMP JUMPDEST CALLVALUE PUSH2 0x2DA JUMPI PUSH1 0x20 DUP1 PUSH1 0x3 NOT CALLDATASIZE ADD SLT PUSH2 0x2DA JUMPI PUSH1 0x1 PUSH1 0x1 PUSH1 0xA0 SHL SUB PUSH2 0x2760 PUSH2 0x3334 JUMP JUMPDEST AND PUSH1 0x0 MSTORE PUSH1 0xE DUP2 MSTORE PUSH1 0x40 PUSH1 0x0 KECCAK256 SWAP1 PUSH1 0x40 MLOAD SWAP1 DUP2 DUP2 DUP5 SLOAD SWAP2 DUP3 DUP2 MSTORE ADD SWAP4 PUSH1 0x0 MSTORE DUP2 PUSH1 0x0 KECCAK256 SWAP2 PUSH1 0x0 SWAP1 JUMPDEST DUP3 DUP3 LT PUSH2 0x279F JUMPI PUSH2 0xFC2 DUP6 PUSH2 0x1764 DUP2 DUP10 SUB DUP3 PUSH2 0x348C JUMP JUMPDEST DUP4 SLOAD DUP7 MSTORE SWAP5 DUP6 ADD SWAP5 PUSH1 0x1 SWAP4 DUP5 ADD SWAP4 SWAP1 SWAP2 ADD SWAP1 PUSH2 0x2788 JUMP JUMPDEST CALLVALUE PUSH2 0x2DA JUMPI PUSH2 0x10E9 PUSH2 0x27C7 CALLDATASIZE PUSH2 0x3396 JUMP JUMPDEST SWAP1 PUSH1 0x40 MLOAD SWAP3 PUSH2 0x27D5 DUP5 PUSH2 0x3456 JUMP JUMPDEST PUSH1 0x0 DUP5 MSTORE PUSH2 0x10E3 DUP4 DUP4 DUP4 PUSH2 0x3665 JUMP JUMPDEST PUSH1 0x20 DUP1 PUSH1 0x3 NOT CALLDATASIZE ADD SLT PUSH2 0x2DA JUMPI PUSH1 0x4 CALLDATALOAD SWAP1 PUSH2 0x27FD PUSH2 0x3C9C JUMP JUMPDEST DUP2 PUSH1 0x0 MSTORE PUSH1 0x10 DUP2 MSTORE PUSH1 0x40 PUSH1 0x0 KECCAK256 PUSH1 0xFF PUSH1 0x3 DUP3 ADD SLOAD PUSH2 0x281F DUP3 DUP3 PUSH1 0x8 SHR AND PUSH2 0x3DB2 JUMP JUMPDEST AND ISZERO PUSH2 0x2965 JUMPI PUSH1 0x2 ADD SLOAD SWAP1 PUSH1 0x3 DUP3 DIV CALLVALUE LT PUSH2 0x2921 JUMPI PUSH1 0x40 MLOAD SWAP1 PUSH1 0xE0 DUP3 ADD SWAP1 DUP3 DUP3 LT PUSH1 0x1 PUSH1 0x1 PUSH1 0x40 SHL SUB DUP4 GT OR PUSH2 0xECC JUMPI PUSH2 0x28E9 SWAP4 PUSH1 0x6 SWAP3 PUSH1 0x40 MSTORE DUP6 DUP5 MSTORE DUP2 DUP5 ADD SWAP1 CALLER DUP3 MSTORE PUSH1 0x40 DUP6 ADD SWAP1 DUP2 MSTORE PUSH1 0x60 DUP6 ADD CALLVALUE DUP2 MSTORE PUSH1 0x80 DUP7 ADD SWAP2 PUSH1 0x1 DUP4 MSTORE PUSH1 0xA0 DUP8 ADD SWAP4 TIMESTAMP DUP6 MSTORE PUSH1 0x11 PUSH1 0xC0 DUP10 ADD SWAP7 PUSH1 0x0 DUP9 MSTORE DUP12 PUSH1 0x0 MSTORE MSTORE PUSH1 0x40 PUSH1 0x0 KECCAK256 SWAP8 MLOAD DUP9 SSTORE PUSH1 0x1 DUP9 ADD SWAP1 PUSH1 0x1 DUP1 PUSH1 0xA0 SHL SUB SWAP1 MLOAD AND PUSH1 0x1 PUSH1 0x1 PUSH1 0x60 SHL SUB PUSH1 0xA0 SHL DUP3 SLOAD AND OR SWAP1 SSTORE MLOAD PUSH1 0x2 DUP8 ADD SSTORE MLOAD PUSH1 0x3 DUP7 ADD SSTORE MLOAD PUSH1 0x4 DUP6 ADD SSTORE MLOAD PUSH1 0x5 DUP5 ADD SSTORE MLOAD ISZERO ISZERO SWAP2 ADD SWAP1 PUSH1 0xFF DUP1 NOT DUP4 SLOAD AND SWAP2 ISZERO ISZERO AND OR SWAP1 SSTORE JUMP JUMPDEST PUSH1 0x40 DUP1 MLOAD CALLER DUP2 MSTORE CALLVALUE PUSH1 0x20 DUP3 ADD MSTORE PUSH32 0x64C7BC57C4F4CC77014ED4B76E7682AA9954346D9A1F1754414C12F224E90708 SWAP2 DUP2 SWAP1 DUP2 ADD PUSH2 0x16ED JUMP JUMPDEST PUSH1 0x64 SWAP1 PUSH1 0x40 MLOAD SWAP1 PUSH3 0x461BCD PUSH1 0xE5 SHL DUP3 MSTORE PUSH1 0x4 DUP3 ADD MSTORE PUSH1 0x1A PUSH1 0x24 DUP3 ADD MSTORE PUSH32 0x496E73756666696369656E74206669727374207061796D656E74000000000000 PUSH1 0x44 DUP3 ADD MSTORE REVERT JUMPDEST PUSH1 0x40 MLOAD PUSH3 0x461BCD PUSH1 0xE5 SHL DUP2 MSTORE PUSH1 0x4 DUP2 ADD DUP4 SWAP1 MSTORE PUSH1 0x19 PUSH1 0x24 DUP3 ADD MSTORE PUSH32 0x496E7374616C6C6D656E7473206E6F7420616363657074656400000000000000 PUSH1 0x44 DUP3 ADD MSTORE PUSH1 0x64 SWAP1 REVERT JUMPDEST CALLVALUE PUSH2 0x2DA JUMPI PUSH1 0x0 CALLDATASIZE PUSH1 0x3 NOT ADD SLT PUSH2 0x2DA JUMPI PUSH2 0x29C3 PUSH2 0x3639 JUMP JUMPDEST PUSH1 0x0 DUP1 DUP1 DUP1 PUSH1 0x1 DUP1 PUSH1 0xA0 SHL SUB PUSH1 0x6 SLOAD AND SELFBALANCE SWAP1 DUP3 DUP3 ISZERO PUSH2 0x29E5 JUMPI JUMPDEST CALL ISZERO PUSH2 0x6D1 JUMPI STOP JUMPDEST POP PUSH2 0x8FC PUSH2 0x29DD JUMP JUMPDEST PUSH1 0x60 CALLDATASIZE PUSH1 0x3 NOT ADD SLT PUSH2 0x2DA JUMPI PUSH1 0xA PUSH1 0x4 CALLDATALOAD LT ISZERO PUSH2 0x2DA JUMPI PUSH1 0xA PUSH1 0x24 CALLDATALOAD LT ISZERO PUSH2 0x2DA JUMPI PUSH1 0x5 PUSH1 0x44 CALLDATALOAD LT ISZERO PUSH2 0x2DA JUMPI PUSH7 0x2386F26FC10000 CALLVALUE LT PUSH2 0x2D69 JUMPI PUSH1 0x8 SLOAD PUSH2 0x2A35 DUP2 PUSH2 0x3A56 JUMP JUMPDEST PUSH1 0x8 SSTORE PUSH2 0x2A43 PUSH1 0x44 CALLDATALOAD PUSH2 0x3E3B JUMP JUMPDEST PUSH2 0x2A4C DUP3 PUSH2 0x3E7D JUMP JUMPDEST SWAP1 PUSH2 0x2A8B PUSH1 0x28 PUSH1 0x40 MLOAD DUP1 SWAP5 PUSH8 0x447261676F6E2023 PUSH1 0xC0 SHL PUSH1 0x20 DUP4 ADD MSTORE PUSH2 0x2A7B DUP2 MLOAD DUP1 SWAP3 PUSH1 0x20 DUP7 DUP7 ADD SWAP2 ADD PUSH2 0x32EC JUMP JUMPDEST DUP2 ADD SUB PUSH1 0x8 DUP2 ADD DUP6 MSTORE ADD DUP4 PUSH2 0x348C JUMP JUMPDEST DUP1 DUP1 PUSH1 0x1 SHL DIV PUSH1 0x2 EQ DUP2 ISZERO OR ISZERO PUSH2 0x6E6 JUMPI PUSH1 0x40 MLOAD SWAP2 PUSH2 0x2AA9 DUP4 PUSH2 0x343A JUMP JUMPDEST DUP4 DUP4 MSTORE PUSH1 0x20 DUP4 ADD MSTORE PUSH2 0x2AC0 PUSH1 0x4 CALLDATALOAD PUSH1 0x40 DUP5 ADD PUSH2 0x3A78 JUMP JUMPDEST PUSH2 0x2ACF PUSH1 0x24 CALLDATALOAD PUSH1 0x60 DUP5 ADD PUSH2 0x3A78 JUMP JUMPDEST PUSH2 0x2ADE PUSH1 0x44 CALLDATALOAD PUSH1 0x80 DUP5 ADD PUSH2 0x3A84 JUMP JUMPDEST PUSH1 0x0 PUSH1 0xA0 DUP4 ADD MSTORE DUP1 PUSH1 0xC0 DUP4 ADD MSTORE DUP1 PUSH1 0xE0 DUP4 ADD MSTORE DUP1 PUSH1 0x1 SHL PUSH2 0x100 DUP4 ADD MSTORE PUSH2 0x120 DUP3 ADD MSTORE PUSH1 0x1 PUSH2 0x140 DUP3 ADD MSTORE PUSH1 0x0 PUSH2 0x160 DUP3 ADD MSTORE PUSH1 0x0 PUSH2 0x180 DUP3 ADD MSTORE PUSH1 0x0 PUSH2 0x1A0 DUP3 ADD MSTORE PUSH1 0x0 PUSH2 0x1C0 DUP3 ADD MSTORE TIMESTAMP PUSH2 0x1E0 DUP3 ADD MSTORE PUSH1 0x0 PUSH2 0x200 DUP3 ADD MSTORE PUSH1 0x0 PUSH2 0x220 DUP3 ADD MSTORE PUSH1 0x0 PUSH2 0x240 DUP3 ADD MSTORE PUSH1 0x0 PUSH2 0x260 DUP3 ADD MSTORE DUP2 PUSH1 0x0 MSTORE PUSH1 0xD PUSH1 0x20 MSTORE PUSH1 0x40 PUSH1 0x0 KECCAK256 SWAP2 DUP2 MLOAD DUP4 SSTORE PUSH1 0x20 DUP3 ADD MLOAD SWAP3 DUP4 MLOAD PUSH1 0x1 PUSH1 0x1 PUSH1 0x40 SHL SUB DUP2 GT PUSH2 0xECC JUMPI PUSH2 0x2B86 PUSH1 0x1 DUP4 ADD SLOAD PUSH2 0x3542 JUMP JUMPDEST PUSH1 0x1F DUP2 GT PUSH2 0x2D22 JUMPI JUMPDEST POP PUSH1 0x20 PUSH1 0x1F DUP3 GT PUSH1 0x1 EQ PUSH2 0x2CB5 JUMPI DUP2 SWAP3 SWAP4 SWAP5 SWAP6 PUSH1 0x0 SWAP3 PUSH2 0x2CAA JUMPI JUMPDEST POP POP DUP2 PUSH1 0x1 SHL SWAP2 PUSH1 0x0 NOT SWAP1 PUSH1 0x3 SHL SHR NOT AND OR PUSH1 0x1 DUP3 ADD SSTORE JUMPDEST PUSH1 0x40 DUP4 ADD MLOAD PUSH1 0xA DUP2 LT ISZERO PUSH2 0x12C6 JUMPI PUSH1 0x2 DUP3 ADD SLOAD PUSH1 0x60 DUP6 ADD MLOAD SWAP1 PUSH1 0xA DUP3 LT ISZERO PUSH2 0x12C6 JUMPI PUSH1 0x80 DUP7 ADD MLOAD SWAP1 PUSH1 0x5 DUP3 LT ISZERO PUSH2 0x12C6 JUMPI PUSH1 0xFF PUSH3 0xFF0000 PUSH2 0xFF00 SWAP4 PUSH1 0x10 SHL AND SWAP5 AND SWAP1 PUSH3 0xFFFFFF NOT AND OR SWAP2 PUSH1 0x8 SHL AND OR OR PUSH1 0x2 DUP3 ADD SSTORE PUSH1 0xA0 DUP4 ADD MLOAD SWAP1 PUSH1 0x4 DUP3 LT ISZERO PUSH2 0x12C6 JUMPI PUSH1 0x10 PUSH2 0x260 PUSH1 0x20 SWAP6 PUSH2 0x1FC6 PUSH2 0x2C3E SWAP6 PUSH1 0x2 DUP7 ADD PUSH2 0x3A9C JUMP JUMPDEST CALLER PUSH1 0x0 MSTORE PUSH1 0xE DUP3 MSTORE PUSH2 0x2C54 DUP2 PUSH1 0x40 PUSH1 0x0 KECCAK256 PUSH2 0x3ABF JUMP JUMPDEST PUSH2 0x2C5E DUP2 CALLER PUSH2 0x3AF4 JUMP JUMPDEST PUSH1 0x40 MLOAD PUSH2 0x2C6D DUP2 PUSH1 0x4 CALLDATALOAD PUSH2 0x3612 JUMP JUMPDEST PUSH2 0x2C7B DUP4 DUP3 ADD PUSH1 0x24 CALLDATALOAD PUSH2 0x3612 JUMP JUMPDEST DUP2 PUSH32 0x12D357F460FFFE1442E0897BAF3A26312E1A818C5D58B42693368B707FBEA6E1 PUSH1 0x40 CALLER SWAP4 LOG3 PUSH1 0x40 MLOAD SWAP1 DUP2 MSTORE RETURN JUMPDEST ADD MLOAD SWAP1 POP DUP6 DUP1 PUSH2 0x2BAA JUMP JUMPDEST PUSH1 0x1 DUP4 ADD PUSH1 0x0 MSTORE PUSH1 0x20 PUSH1 0x0 KECCAK256 SWAP1 PUSH1 0x0 SWAP7 PUSH1 0x1F NOT DUP5 AND SWAP8 JUMPDEST DUP9 DUP2 LT PUSH2 0x2D0A JUMPI POP DUP4 PUSH1 0x1 SWAP6 SWAP7 SWAP8 SWAP9 LT PUSH2 0x2CF1 JUMPI JUMPDEST POP POP POP DUP2 SHL ADD PUSH1 0x1 DUP3 ADD SSTORE PUSH2 0x2BC2 JUMP JUMPDEST ADD MLOAD PUSH1 0x0 NOT PUSH1 0xF8 DUP5 PUSH1 0x3 SHL AND SHR NOT AND SWAP1 SSTORE DUP6 DUP1 DUP1 PUSH2 0x2CE1 JUMP JUMPDEST SWAP2 SWAP3 PUSH1 0x20 PUSH1 0x1 DUP2 SWAP3 DUP7 DUP6 ADD MLOAD DUP2 SSTORE ADD SWAP5 ADD SWAP3 ADD PUSH2 0x2CCC JUMP JUMPDEST PUSH1 0x1 DUP4 ADD PUSH1 0x0 MSTORE PUSH1 0x20 PUSH1 0x0 KECCAK256 PUSH1 0x1F DUP4 ADD PUSH1 0x5 SHR DUP2 ADD PUSH1 0x20 DUP5 LT PUSH2 0x2D62 JUMPI JUMPDEST PUSH1 0x1F DUP4 ADD PUSH1 0x5 SHR DUP3 ADD DUP2 LT PUSH2 0x2D56 JUMPI POP POP PUSH2 0x2B8F JUMP JUMPDEST PUSH1 0x0 DUP2 SSTORE PUSH1 0x1 ADD PUSH2 0x2D40 JUMP JUMPDEST POP DUP1 PUSH2 0x2D40 JUMP JUMPDEST PUSH1 0x40 MLOAD PUSH3 0x461BCD PUSH1 0xE5 SHL DUP2 MSTORE PUSH1 0x20 PUSH1 0x4 DUP3 ADD MSTORE PUSH1 0x15 PUSH1 0x24 DUP3 ADD MSTORE PUSH21 0x10DC99585D1A5BDB88199959481C995C5D5A5C9959 PUSH1 0x5A SHL PUSH1 0x44 DUP3 ADD MSTORE PUSH1 0x64 SWAP1 REVERT JUMPDEST CALLVALUE PUSH2 0x2DA JUMPI PUSH1 0x20 CALLDATASIZE PUSH1 0x3 NOT ADD SLT PUSH2 0x2DA JUMPI PUSH1 0x4 CALLDATALOAD PUSH1 0x5 DUP2 LT ISZERO PUSH2 0x2DA JUMPI PUSH2 0x2DCE PUSH1 0x20 SWAP2 PUSH2 0x33CB JUMP JUMPDEST SLOAD PUSH1 0x40 MLOAD SWAP1 DUP2 MSTORE RETURN JUMPDEST CALLVALUE PUSH2 0x2DA JUMPI PUSH1 0x20 CALLDATASIZE PUSH1 0x3 NOT ADD SLT PUSH2 0x2DA JUMPI PUSH1 0x4 CALLDATALOAD PUSH1 0x0 SWAP1 DUP2 MSTORE PUSH1 0x10 PUSH1 0x20 MSTORE PUSH1 0x40 SWAP1 KECCAK256 PUSH1 0x1 DUP2 ADD SLOAD PUSH1 0x1 PUSH1 0x1 PUSH1 0xA0 SHL SUB AND CALLER SUB PUSH2 0x2E35 JUMPI DUP1 PUSH1 0x3 PUSH2 0x10E9 SWAP3 ADD DUP1 SLOAD PUSH2 0x2E26 PUSH1 0xFF DUP3 PUSH1 0x8 SHR AND PUSH2 0x3DB2 JUMP JUMPDEST PUSH2 0xFF00 NOT AND SWAP1 SSTORE SLOAD CALLER ADDRESS PUSH2 0x3D37 JUMP JUMPDEST PUSH1 0x40 MLOAD PUSH3 0x461BCD PUSH1 0xE5 SHL DUP2 MSTORE PUSH1 0x20 PUSH1 0x4 DUP3 ADD MSTORE PUSH1 0xA PUSH1 0x24 DUP3 ADD MSTORE PUSH10 0x2737BA1039B2B63632B9 PUSH1 0xB1 SHL PUSH1 0x44 DUP3 ADD MSTORE PUSH1 0x64 SWAP1 REVERT JUMPDEST CALLVALUE PUSH2 0x2DA JUMPI PUSH1 0x60 CALLDATASIZE PUSH1 0x3 NOT ADD SLT PUSH2 0x2DA JUMPI PUSH1 0x4 CALLDATALOAD PUSH1 0x24 CALLDATALOAD PUSH1 0x44 CALLDATALOAD SWAP1 DUP2 ISZERO ISZERO DUP1 SWAP3 SUB PUSH2 0x2DA JUMPI PUSH2 0x2E95 DUP4 PUSH2 0x38CD JUMP JUMPDEST PUSH1 0x1 PUSH1 0x1 PUSH1 0xA0 SHL SUB SWAP3 SWAP1 PUSH2 0x2EAC SWAP1 DUP5 AND CALLER EQ PUSH2 0x3CBF JUMP JUMPDEST DUP2 ISZERO PUSH2 0x3007 JUMPI PUSH1 0x4 PUSH1 0x9 SLOAD SWAP4 PUSH2 0x2EC1 DUP6 PUSH2 0x3A56 JUMP JUMPDEST PUSH1 0x9 SSTORE PUSH1 0x40 MLOAD SWAP3 PUSH2 0x2ED1 DUP5 PUSH2 0x341F JUMP JUMPDEST DUP7 DUP5 MSTORE PUSH1 0x20 DUP5 ADD CALLER DUP2 MSTORE PUSH1 0x40 DUP6 ADD DUP7 DUP2 MSTORE PUSH1 0x60 DUP7 ADD SWAP3 DUP4 MSTORE PUSH1 0x80 DUP7 ADD SWAP2 PUSH1 0x1 DUP4 MSTORE PUSH1 0xA0 DUP8 ADD SWAP5 TIMESTAMP DUP7 MSTORE DUP10 PUSH1 0x0 MSTORE PUSH1 0x10 PUSH1 0x20 MSTORE PUSH1 0x40 PUSH1 0x0 KECCAK256 SWAP8 MLOAD DUP9 SSTORE PUSH1 0x1 DUP9 ADD SWAP2 MLOAD AND PUSH1 0x1 PUSH1 0x1 PUSH1 0x60 SHL SUB PUSH1 0xA0 SHL DUP3 SLOAD AND OR SWAP1 SSTORE MLOAD PUSH1 0x2 DUP7 ADD SSTORE PUSH2 0x2F47 PUSH1 0x3 DUP7 ADD SWAP3 MLOAD ISZERO ISZERO DUP4 SWAP1 PUSH1 0xFF DUP1 NOT DUP4 SLOAD AND SWAP2 ISZERO ISZERO AND OR SWAP1 SSTORE JUMP JUMPDEST MLOAD DUP2 SLOAD PUSH2 0xFF00 NOT AND SWAP1 ISZERO ISZERO PUSH1 0x8 SHL PUSH2 0xFF00 AND OR SWAP1 SSTORE MLOAD SWAP2 ADD SSTORE PUSH1 0x13 SLOAD PUSH1 0x1 PUSH1 0x40 SHL DUP2 LT ISZERO PUSH2 0xECC JUMPI PUSH1 0x1 DUP2 ADD DUP1 PUSH1 0x13 SSTORE DUP2 LT ISZERO PUSH2 0x2FF1 JUMPI PUSH32 0x3C494FB15A952AF9A624FE63D345E3A9F3AD4AAE07C468D86E4BCF6A1A67A330 SWAP2 DUP4 PUSH1 0x20 SWAP3 PUSH32 0x66DE8FFDA797E3DE9C05E8FC57B3BF0EC28A930D40B0D285D93C06501CF6A090 ADD SSTORE CALLER PUSH1 0x0 MSTORE PUSH1 0x12 DUP3 MSTORE PUSH2 0x2FDD DUP5 PUSH1 0x40 PUSH1 0x0 KECCAK256 PUSH2 0x3ABF JUMP JUMPDEST PUSH2 0x2FE8 DUP6 ADDRESS CALLER PUSH2 0x3D37 JUMP JUMPDEST PUSH1 0x40 MLOAD SWAP1 DUP2 MSTORE LOG3 STOP JUMPDEST PUSH4 0x4E487B71 PUSH1 0xE0 SHL PUSH1 0x0 MSTORE PUSH1 0x32 PUSH1 0x4 MSTORE PUSH1 0x24 PUSH1 0x0 REVERT JUMPDEST PUSH1 0x40 MLOAD PUSH3 0x461BCD PUSH1 0xE5 SHL DUP2 MSTORE PUSH1 0x20 PUSH1 0x4 DUP3 ADD MSTORE PUSH1 0xD PUSH1 0x24 DUP3 ADD MSTORE PUSH13 0x496E76616C6964207072696365 PUSH1 0x98 SHL PUSH1 0x44 DUP3 ADD MSTORE PUSH1 0x64 SWAP1 REVERT JUMPDEST CALLVALUE PUSH2 0x2DA JUMPI PUSH2 0x10E9 PUSH2 0x304D CALLDATASIZE PUSH2 0x3396 JUMP JUMPDEST SWAP2 PUSH2 0x3665 JUMP JUMPDEST CALLVALUE PUSH2 0x2DA JUMPI PUSH1 0x0 CALLDATASIZE PUSH1 0x3 NOT ADD SLT PUSH2 0x2DA JUMPI PUSH1 0x20 PUSH1 0x40 MLOAD PUSH1 0x3 DUP2 MSTORE RETURN JUMPDEST CALLVALUE PUSH2 0x2DA JUMPI PUSH1 0x40 CALLDATASIZE PUSH1 0x3 NOT ADD SLT PUSH2 0x2DA JUMPI PUSH2 0x3088 PUSH2 0x3334 JUMP JUMPDEST PUSH1 0x1 PUSH1 0x1 PUSH1 0xA0 SHL SUB AND PUSH1 0x0 SWAP1 DUP2 MSTORE PUSH1 0xE PUSH1 0x20 MSTORE PUSH1 0x40 SWAP1 KECCAK256 DUP1 SLOAD PUSH1 0x24 CALLDATALOAD SWAP2 SWAP1 DUP3 LT ISZERO PUSH2 0x2DA JUMPI PUSH1 0x20 SWAP2 PUSH2 0x17D1 SWAP2 PUSH2 0x3360 JUMP JUMPDEST CALLVALUE PUSH2 0x2DA JUMPI PUSH1 0x40 CALLDATASIZE PUSH1 0x3 NOT ADD SLT PUSH2 0x2DA JUMPI PUSH2 0x30D2 PUSH2 0x3334 JUMP JUMPDEST PUSH1 0x24 CALLDATALOAD PUSH2 0x30DE DUP2 PUSH2 0x38CD JUMP JUMPDEST CALLER ISZERO ISZERO DUP1 PUSH2 0x318D JUMPI JUMPDEST DUP1 PUSH2 0x3160 JUMPI JUMPDEST PUSH2 0x3148 JUMPI PUSH1 0x1 PUSH1 0x1 PUSH1 0xA0 SHL SUB SWAP3 DUP4 AND SWAP3 DUP3 SWAP2 DUP5 SWAP2 AND PUSH32 0x8C5BE1E5EBEC7D5BD14F71427D1E84F3DD0314C0F7B2291E5B200AC8C7C3B925 PUSH1 0x0 DUP1 LOG4 PUSH1 0x0 SWAP1 DUP2 MSTORE PUSH1 0x4 PUSH1 0x20 MSTORE PUSH1 0x40 SWAP1 KECCAK256 DUP1 SLOAD PUSH1 0x1 PUSH1 0x1 PUSH1 0xA0 SHL SUB NOT AND SWAP1 SWAP2 OR SWAP1 SSTORE STOP JUMPDEST PUSH1 0x40 MLOAD PUSH4 0xA9FBF51F PUSH1 0xE0 SHL DUP2 MSTORE CALLER PUSH1 0x4 DUP3 ADD MSTORE PUSH1 0x24 SWAP1 REVERT JUMPDEST POP PUSH1 0x1 DUP1 PUSH1 0xA0 SHL SUB DUP2 AND PUSH1 0x0 MSTORE PUSH1 0x5 PUSH1 0x20 MSTORE PUSH1 0x40 PUSH1 0x0 KECCAK256 CALLER PUSH1 0x0 MSTORE PUSH1 0x20 MSTORE PUSH1 0xFF PUSH1 0x40 PUSH1 0x0 KECCAK256 SLOAD AND ISZERO PUSH2 0x30ED JUMP JUMPDEST POP PUSH1 0x1 PUSH1 0x1 PUSH1 0xA0 SHL SUB DUP2 AND CALLER EQ ISZERO PUSH2 0x30E7 JUMP JUMPDEST CALLVALUE PUSH2 0x2DA JUMPI PUSH1 0x20 CALLDATASIZE PUSH1 0x3 NOT ADD SLT PUSH2 0x2DA JUMPI PUSH1 0x4 CALLDATALOAD PUSH2 0x31BD DUP2 PUSH2 0x38CD JUMP JUMPDEST POP PUSH1 0x0 MSTORE PUSH1 0x4 PUSH1 0x20 MSTORE PUSH1 0x20 PUSH1 0x1 DUP1 PUSH1 0xA0 SHL SUB PUSH1 0x40 PUSH1 0x0 KECCAK256 SLOAD AND PUSH1 0x40 MLOAD SWAP1 DUP2 MSTORE RETURN JUMPDEST CALLVALUE PUSH2 0x2DA JUMPI PUSH1 0x0 CALLDATASIZE PUSH1 0x3 NOT ADD SLT PUSH2 0x2DA JUMPI PUSH1 0x40 MLOAD PUSH1 0x0 DUP1 SLOAD PUSH2 0x31FF DUP2 PUSH2 0x3542 JUMP JUMPDEST DUP1 DUP5 MSTORE SWAP1 PUSH1 0x1 SWAP1 DUP2 DUP2 AND SWAP1 DUP2 ISZERO PUSH2 0x1593 JUMPI POP PUSH1 0x1 EQ PUSH2 0x3228 JUMPI PUSH2 0xFC2 DUP5 PUSH2 0x1526 DUP2 DUP7 SUB DUP3 PUSH2 0x348C JUMP JUMPDEST PUSH1 0x0 DUP1 DUP1 MSTORE SWAP3 POP PUSH32 0x290DECD9548B62A8D60345A988386FC84BA6BC95484008F6362F93160EF3E563 JUMPDEST DUP3 DUP5 LT PUSH2 0x3269 JUMPI POP POP POP DUP2 ADD PUSH1 0x20 ADD PUSH2 0x1526 DUP3 PUSH2 0x1516 JUMP JUMPDEST DUP1 SLOAD PUSH1 0x20 DUP6 DUP8 ADD DUP2 ADD SWAP2 SWAP1 SWAP2 MSTORE SWAP1 SWAP4 ADD SWAP3 DUP2 ADD PUSH2 0x3251 JUMP JUMPDEST CALLVALUE PUSH2 0x2DA JUMPI PUSH1 0x20 CALLDATASIZE PUSH1 0x3 NOT ADD SLT PUSH2 0x2DA JUMPI PUSH1 0x4 CALLDATALOAD SWAP1 PUSH4 0xFFFFFFFF PUSH1 0xE0 SHL DUP3 AND DUP1 SWAP3 SUB PUSH2 0x2DA JUMPI PUSH1 0x20 SWAP2 PUSH4 0x80AC58CD PUSH1 0xE0 SHL DUP2 EQ SWAP1 DUP2 ISZERO PUSH2 0x32DB JUMPI JUMPDEST DUP2 ISZERO PUSH2 0x32CA JUMPI JUMPDEST POP ISZERO ISZERO DUP2 MSTORE RETURN JUMPDEST PUSH4 0x1FFC9A7 PUSH1 0xE0 SHL EQ SWAP1 POP DUP4 PUSH2 0x32C3 JUMP JUMPDEST PUSH4 0x5B5E139F PUSH1 0xE0 SHL DUP2 EQ SWAP2 POP PUSH2 0x32BC JUMP JUMPDEST PUSH1 0x0 JUMPDEST DUP4 DUP2 LT PUSH2 0x32FF JUMPI POP POP PUSH1 0x0 SWAP2 ADD MSTORE JUMP JUMPDEST DUP2 DUP2 ADD MLOAD DUP4 DUP3 ADD MSTORE PUSH1 0x20 ADD PUSH2 0x32EF JUMP JUMPDEST SWAP1 PUSH1 0x20 SWAP2 PUSH2 0x3328 DUP2 MLOAD DUP1 SWAP3 DUP2 DUP6 MSTORE DUP6 DUP1 DUP7 ADD SWAP2 ADD PUSH2 0x32EC JUMP JUMPDEST PUSH1 0x1F ADD PUSH1 0x1F NOT AND ADD ADD SWAP1 JUMP JUMPDEST PUSH1 0x4 CALLDATALOAD SWAP1 PUSH1 0x1 PUSH1 0x1 PUSH1 0xA0 SHL SUB DUP3 AND DUP3 SUB PUSH2 0x2DA JUMPI JUMP JUMPDEST PUSH1 0x24 CALLDATALOAD SWAP1 PUSH1 0x1 PUSH1 0x1 PUSH1 0xA0 SHL SUB DUP3 AND DUP3 SUB PUSH2 0x2DA JUMPI JUMP JUMPDEST DUP1 SLOAD DUP3 LT ISZERO PUSH2 0x2FF1 JUMPI PUSH1 0x0 MSTORE PUSH1 0x20 PUSH1 0x0 KECCAK256 ADD SWAP1 PUSH1 0x0 SWAP1 JUMP JUMPDEST CALLVALUE PUSH2 0x2DA JUMPI PUSH1 0x0 CALLDATASIZE PUSH1 0x3 NOT ADD SLT PUSH2 0x2DA JUMPI PUSH1 0x20 PUSH1 0x40 MLOAD PUSH3 0x15180 DUP2 MSTORE RETURN JUMPDEST PUSH1 0x60 SWAP1 PUSH1 0x3 NOT ADD SLT PUSH2 0x2DA JUMPI PUSH1 0x1 PUSH1 0x1 PUSH1 0xA0 SHL SUB SWAP1 PUSH1 0x4 CALLDATALOAD DUP3 DUP2 AND DUP2 SUB PUSH2 0x2DA JUMPI SWAP2 PUSH1 0x24 CALLDATALOAD SWAP1 DUP2 AND DUP2 SUB PUSH2 0x2DA JUMPI SWAP1 PUSH1 0x44 CALLDATALOAD SWAP1 JUMP JUMPDEST PUSH1 0x5 DUP2 LT ISZERO PUSH2 0x12C6 JUMPI PUSH1 0x0 MSTORE PUSH1 0x14 PUSH1 0x20 MSTORE PUSH1 0x40 PUSH1 0x0 KECCAK256 SWAP1 JUMP JUMPDEST PUSH1 0x20 SWAP1 DUP2 PUSH1 0x40 DUP2 DUP4 ADD SWAP3 DUP3 DUP2 MSTORE DUP6 MLOAD DUP1 SWAP5 MSTORE ADD SWAP4 ADD SWAP2 PUSH1 0x0 JUMPDEST DUP3 DUP2 LT PUSH2 0x340B JUMPI POP POP POP POP SWAP1 JUMP JUMPDEST DUP4 MLOAD DUP6 MSTORE SWAP4 DUP2 ADD SWAP4 SWAP3 DUP2 ADD SWAP3 PUSH1 0x1 ADD PUSH2 0x33FD JUMP JUMPDEST PUSH1 0xC0 DUP2 ADD SWAP1 DUP2 LT PUSH1 0x1 PUSH1 0x1 PUSH1 0x40 SHL SUB DUP3 GT OR PUSH2 0xECC JUMPI PUSH1 0x40 MSTORE JUMP JUMPDEST PUSH2 0x280 DUP2 ADD SWAP1 DUP2 LT PUSH1 0x1 PUSH1 0x1 PUSH1 0x40 SHL SUB DUP3 GT OR PUSH2 0xECC JUMPI PUSH1 0x40 MSTORE JUMP JUMPDEST PUSH1 0x20 DUP2 ADD SWAP1 DUP2 LT PUSH1 0x1 PUSH1 0x1 PUSH1 0x40 SHL SUB DUP3 GT OR PUSH2 0xECC JUMPI PUSH1 0x40 MSTORE JUMP JUMPDEST PUSH1 0x40 DUP2 ADD SWAP1 DUP2 LT PUSH1 0x1 PUSH1 0x1 PUSH1 0x40 SHL SUB DUP3 GT OR PUSH2 0xECC JUMPI PUSH1 0x40 MSTORE JUMP JUMPDEST SWAP1 PUSH1 0x1F DUP1 NOT SWAP2 ADD AND DUP2 ADD SWAP1 DUP2 LT PUSH1 0x1 PUSH1 0x1 PUSH1 0x40 SHL SUB DUP3 GT OR PUSH2 0xECC JUMPI PUSH1 0x40 MSTORE JUMP JUMPDEST PUSH1 0x1 PUSH1 0x1 PUSH1 0x40 SHL SUB DUP2 GT PUSH2 0xECC JUMPI PUSH1 0x1F ADD PUSH1 0x1F NOT AND PUSH1 0x20 ADD SWAP1 JUMP JUMPDEST SWAP3 SWAP2 SWAP3 PUSH2 0x34D4 DUP3 PUSH2 0x34AD JUMP JUMPDEST SWAP2 PUSH2 0x34E2 PUSH1 0x40 MLOAD SWAP4 DUP5 PUSH2 0x348C JUMP JUMPDEST DUP3 SWAP5 DUP2 DUP5 MSTORE DUP2 DUP4 ADD GT PUSH2 0x2DA JUMPI DUP3 DUP2 PUSH1 0x20 SWAP4 DUP5 PUSH1 0x0 SWAP7 ADD CALLDATACOPY ADD ADD MSTORE JUMP JUMPDEST SWAP1 PUSH1 0x40 PUSH1 0x3 NOT DUP4 ADD SLT PUSH2 0x2DA JUMPI PUSH1 0x4 CALLDATALOAD SWAP2 PUSH1 0x24 CALLDATALOAD SWAP1 PUSH1 0x1 PUSH1 0x1 PUSH1 0x40 SHL SUB DUP3 GT PUSH2 0x2DA JUMPI DUP1 PUSH1 0x23 DUP4 ADD SLT ISZERO PUSH2 0x2DA JUMPI DUP2 PUSH1 0x24 PUSH2 0x353F SWAP4 PUSH1 0x4 ADD CALLDATALOAD SWAP2 ADD PUSH2 0x34C8 JUMP JUMPDEST SWAP1 JUMP JUMPDEST SWAP1 PUSH1 0x1 DUP3 DUP2 SHR SWAP3 AND DUP1 ISZERO PUSH2 0x3572 JUMPI JUMPDEST PUSH1 0x20 DUP4 LT EQ PUSH2 0x355C JUMPI JUMP JUMPDEST PUSH4 0x4E487B71 PUSH1 0xE0 SHL PUSH1 0x0 MSTORE PUSH1 0x22 PUSH1 0x4 MSTORE PUSH1 0x24 PUSH1 0x0 REVERT JUMPDEST SWAP2 PUSH1 0x7F AND SWAP2 PUSH2 0x3551 JUMP JUMPDEST SWAP1 PUSH1 0x0 SWAP3 SWAP2 DUP1 SLOAD SWAP2 PUSH2 0x358D DUP4 PUSH2 0x3542 JUMP JUMPDEST SWAP2 DUP3 DUP3 MSTORE PUSH1 0x1 SWAP4 DUP5 DUP2 AND SWAP1 DUP2 PUSH1 0x0 EQ PUSH2 0x35EF JUMPI POP PUSH1 0x1 EQ PUSH2 0x35AF JUMPI JUMPDEST POP POP POP POP JUMP JUMPDEST SWAP1 SWAP2 SWAP4 SWAP5 POP PUSH1 0x0 MSTORE PUSH1 0x20 SWAP3 DUP4 PUSH1 0x0 KECCAK256 SWAP3 DUP5 PUSH1 0x0 SWAP5 JUMPDEST DUP4 DUP7 LT PUSH2 0x35DB JUMPI POP POP POP POP ADD ADD SWAP1 CODESIZE DUP1 DUP1 DUP1 PUSH2 0x35A9 JUMP JUMPDEST DUP1 SLOAD DUP6 DUP8 ADD DUP4 ADD MSTORE SWAP5 ADD SWAP4 DUP6 SWAP1 DUP3 ADD PUSH2 0x35C4 JUMP JUMPDEST SWAP3 SWAP5 POP POP POP PUSH1 0x20 SWAP4 SWAP5 POP PUSH1 0xFF NOT AND DUP4 DUP4 ADD MSTORE ISZERO ISZERO PUSH1 0x5 SHL ADD ADD SWAP1 CODESIZE DUP1 DUP1 DUP1 PUSH2 0x35A9 JUMP JUMPDEST SWAP1 PUSH1 0xA DUP3 LT ISZERO PUSH2 0x12C6 JUMPI MSTORE JUMP JUMPDEST SWAP1 PUSH1 0x5 DUP3 LT ISZERO PUSH2 0x12C6 JUMPI MSTORE JUMP JUMPDEST SWAP1 PUSH1 0x4 DUP3 LT ISZERO PUSH2 0x12C6 JUMPI MSTORE JUMP JUMPDEST PUSH1 0x6 SLOAD PUSH1 0x1 PUSH1 0x1 PUSH1 0xA0 SHL SUB AND CALLER SUB PUSH2 0x364D JUMPI JUMP JUMPDEST PUSH1 0x40 MLOAD PUSH4 0x118CDAA7 PUSH1 0xE0 SHL DUP2 MSTORE CALLER PUSH1 0x4 DUP3 ADD MSTORE PUSH1 0x24 SWAP1 REVERT JUMPDEST SWAP1 PUSH1 0x1 PUSH1 0x1 PUSH1 0xA0 SHL SUB SWAP1 DUP2 AND DUP1 ISZERO PUSH2 0x37F8 JUMPI PUSH1 0x0 SWAP2 DUP5 DUP4 MSTORE DUP5 PUSH1 0x20 SWAP3 PUSH1 0x2 DUP5 MSTORE PUSH1 0x40 SWAP4 DUP4 DUP6 DUP8 KECCAK256 SLOAD AND SWAP6 DUP7 SWAP2 CALLER ISZERO ISZERO DUP1 PUSH2 0x375F JUMPI JUMPDEST POP SWAP1 PUSH1 0x2 PUSH32 0xDDF252AD1BE2C89B69C2B068FC378DAA952BA7F163C4A11628F55A4DF523B3EF SWAP3 DUP5 PUSH2 0x372C JUMPI JUMPDEST DUP6 DUP4 MSTORE PUSH1 0x3 DUP2 MSTORE DUP9 DUP4 KECCAK256 DUP1 SLOAD PUSH1 0x1 ADD SWAP1 SSTORE DUP7 DUP4 MSTORE MSTORE DUP7 DUP2 KECCAK256 DUP1 SLOAD PUSH1 0x1 PUSH1 0x1 PUSH1 0xA0 SHL SUB NOT AND DUP6 OR SWAP1 SSTORE DUP1 LOG4 DUP4 AND DUP3 SUB PUSH2 0x36FE JUMPI POP POP POP POP JUMP JUMPDEST MLOAD PUSH4 0x64283D7B PUSH1 0xE0 SHL DUP2 MSTORE PUSH1 0x1 PUSH1 0x1 PUSH1 0xA0 SHL SUB SWAP3 DUP4 AND PUSH1 0x4 DUP3 ADD MSTORE PUSH1 0x24 DUP2 ADD SWAP4 SWAP1 SWAP4 MSTORE AND PUSH1 0x44 DUP3 ADD MSTORE PUSH1 0x64 SWAP1 REVERT JUMPDEST PUSH1 0x0 DUP8 DUP2 MSTORE PUSH1 0x4 PUSH1 0x20 MSTORE PUSH1 0x40 SWAP1 KECCAK256 DUP1 SLOAD PUSH1 0x1 PUSH1 0x1 PUSH1 0xA0 SHL SUB NOT AND SWAP1 SSTORE DUP5 DUP4 MSTORE PUSH1 0x3 DUP2 MSTORE DUP9 DUP4 KECCAK256 DUP1 SLOAD PUSH1 0x0 NOT ADD SWAP1 SSTORE PUSH2 0x36C6 JUMP JUMPDEST SWAP2 SWAP4 SWAP5 POP SWAP2 POP DUP1 PUSH2 0x37B7 JUMPI JUMPDEST ISZERO PUSH2 0x377B JUMPI DUP8 SWAP3 SWAP2 DUP7 SWAP2 CODESIZE PUSH2 0x369A JUMP JUMPDEST DUP5 DUP9 DUP8 PUSH2 0x3798 JUMPI PUSH1 0x24 SWAP2 MLOAD SWAP1 PUSH4 0x7E273289 PUSH1 0xE0 SHL DUP3 MSTORE PUSH1 0x4 DUP3 ADD MSTORE REVERT JUMPDEST SWAP1 MLOAD PUSH4 0x177E802F PUSH1 0xE0 SHL DUP2 MSTORE CALLER PUSH1 0x4 DUP3 ADD MSTORE PUSH1 0x24 DUP2 ADD SWAP2 SWAP1 SWAP2 MSTORE PUSH1 0x44 SWAP1 REVERT JUMPDEST POP CALLER DUP7 EQ DUP1 ISZERO PUSH2 0x37DC JUMPI JUMPDEST DUP1 PUSH2 0x376B JUMPI POP DUP8 DUP3 MSTORE PUSH1 0x4 DUP2 MSTORE CALLER DUP5 DUP7 DUP5 KECCAK256 SLOAD AND EQ PUSH2 0x376B JUMP JUMPDEST POP DUP6 DUP3 MSTORE PUSH1 0x5 DUP2 MSTORE DUP5 DUP3 KECCAK256 CALLER DUP4 MSTORE DUP2 MSTORE PUSH1 0xFF DUP6 DUP4 KECCAK256 SLOAD AND PUSH2 0x37C2 JUMP JUMPDEST PUSH1 0x40 MLOAD PUSH4 0x32505749 PUSH1 0xE1 SHL DUP2 MSTORE PUSH1 0x0 PUSH1 0x4 DUP3 ADD MSTORE PUSH1 0x24 SWAP1 REVERT JUMPDEST PUSH1 0x0 DUP3 DUP2 MSTORE PUSH1 0x2 PUSH1 0x20 MSTORE PUSH1 0x40 DUP2 KECCAK256 SLOAD PUSH1 0x1 PUSH1 0x1 PUSH1 0xA0 SHL SUB SWAP1 DUP2 AND SWAP4 SWAP3 DUP5 SWAP2 PUSH32 0xDDF252AD1BE2C89B69C2B068FC378DAA952BA7F163C4A11628F55A4DF523B3EF SWAP2 DUP4 PUSH2 0x3898 JUMPI JUMPDEST AND SWAP3 DUP4 PUSH2 0x3880 JUMPI JUMPDEST DUP5 DUP2 MSTORE PUSH1 0x2 PUSH1 0x20 MSTORE PUSH1 0x40 DUP2 KECCAK256 DUP1 SLOAD PUSH1 0x1 PUSH1 0x1 PUSH1 0xA0 SHL SUB NOT AND DUP6 OR SWAP1 SSTORE DUP1 LOG4 SWAP1 JUMP JUMPDEST DUP4 DUP2 MSTORE PUSH1 0x3 PUSH1 0x20 MSTORE PUSH1 0x40 DUP2 KECCAK256 PUSH1 0x1 DUP2 SLOAD ADD SWAP1 SSTORE PUSH2 0x385F JUMP JUMPDEST PUSH1 0x0 DUP7 DUP2 MSTORE PUSH1 0x4 PUSH1 0x20 MSTORE PUSH1 0x40 SWAP1 KECCAK256 DUP1 SLOAD PUSH1 0x1 PUSH1 0x1 PUSH1 0xA0 SHL SUB NOT AND SWAP1 SSTORE DUP4 DUP6 MSTORE PUSH1 0x3 PUSH1 0x20 MSTORE PUSH1 0x40 DUP6 KECCAK256 DUP1 SLOAD PUSH1 0x0 NOT ADD SWAP1 SSTORE PUSH2 0x3857 JUMP JUMPDEST PUSH1 0x0 DUP2 DUP2 MSTORE PUSH1 0x2 PUSH1 0x20 MSTORE PUSH1 0x40 SWAP1 KECCAK256 SLOAD PUSH1 0x1 PUSH1 0x1 PUSH1 0xA0 SHL SUB AND SWAP1 DUP2 ISZERO PUSH2 0x38F0 JUMPI POP SWAP1 JUMP JUMPDEST PUSH1 0x24 SWAP1 PUSH1 0x40 MLOAD SWAP1 PUSH4 0x7E273289 PUSH1 0xE0 SHL DUP3 MSTORE PUSH1 0x4 DUP3 ADD MSTORE REVERT JUMPDEST SWAP1 SWAP4 SWAP2 SWAP3 DUP4 EXTCODESIZE PUSH2 0x391A JUMPI JUMPDEST POP POP POP POP POP JUMP JUMPDEST PUSH1 0x40 MLOAD PUSH4 0xA85BD01 PUSH1 0xE1 SHL DUP1 DUP3 MSTORE PUSH1 0x1 PUSH1 0x1 PUSH1 0xA0 SHL SUB SWAP4 DUP5 AND PUSH1 0x4 DUP4 ADD MSTORE SWAP6 DUP4 AND PUSH1 0x24 DUP3 ADD MSTORE PUSH1 0x44 DUP2 ADD SWAP2 SWAP1 SWAP2 MSTORE PUSH1 0x80 PUSH1 0x64 DUP3 ADD MSTORE SWAP5 SWAP3 AND SWAP3 PUSH1 0x20 SWAP3 SWAP2 DUP6 SWAP1 PUSH2 0x3967 SWAP1 PUSH1 0x84 DUP4 ADD SWAP1 PUSH2 0x330F JUMP JUMPDEST SUB SWAP5 DUP4 DUP2 PUSH1 0x0 SWAP8 DUP2 DUP10 DUP10 GAS CALL DUP7 SWAP2 DUP2 PUSH2 0x3A12 JUMPI JUMPDEST POP PUSH2 0x39DC JUMPI POP POP POP RETURNDATASIZE PUSH1 0x0 EQ PUSH2 0x39D3 JUMPI RETURNDATASIZE PUSH2 0x3995 DUP2 PUSH2 0x34AD JUMP JUMPDEST SWAP1 PUSH2 0x39A3 PUSH1 0x40 MLOAD SWAP3 DUP4 PUSH2 0x348C JUMP JUMPDEST DUP2 MSTORE DUP1 SWAP4 DUP3 RETURNDATASIZE SWAP3 ADD RETURNDATACOPY JUMPDEST DUP3 MLOAD SWAP3 DUP4 PUSH2 0x39CE JUMPI PUSH1 0x40 MLOAD PUSH4 0x32505749 PUSH1 0xE1 SHL DUP2 MSTORE PUSH1 0x4 DUP2 ADD DUP5 SWAP1 MSTORE PUSH1 0x24 SWAP1 REVERT JUMPDEST ADD SWAP1 POP REVERT JUMPDEST PUSH1 0x60 SWAP3 POP PUSH2 0x39AD JUMP JUMPDEST SWAP2 SWAP5 POP SWAP2 POP PUSH4 0xFFFFFFFF PUSH1 0xE0 SHL AND SUB PUSH2 0x39FA JUMPI POP CODESIZE DUP1 DUP1 DUP1 DUP1 PUSH2 0x3913 JUMP JUMPDEST PUSH1 0x24 SWAP1 PUSH1 0x40 MLOAD SWAP1 PUSH4 0x32505749 PUSH1 0xE1 SHL DUP3 MSTORE PUSH1 0x4 DUP3 ADD MSTORE REVERT JUMPDEST SWAP1 SWAP2 POP DUP5 DUP2 DUP2 RETURNDATASIZE DUP4 GT PUSH2 0x3A4F JUMPI JUMPDEST PUSH2 0x3A2A DUP2 DUP4 PUSH2 0x348C JUMP JUMPDEST DUP2 ADD SUB SLT PUSH2 0x3A4B JUMPI MLOAD PUSH1 0x1 PUSH1 0x1 PUSH1 0xE0 SHL SUB NOT DUP2 AND DUP2 SUB PUSH2 0x3A4B JUMPI SWAP1 CODESIZE PUSH2 0x397B JUMP JUMPDEST DUP7 DUP1 REVERT JUMPDEST POP RETURNDATASIZE PUSH2 0x3A20 JUMP JUMPDEST PUSH1 0x0 NOT DUP2 EQ PUSH2 0x6E6 JUMPI PUSH1 0x1 ADD SWAP1 JUMP JUMPDEST DUP2 DUP2 MUL SWAP3 SWAP2 DUP2 ISZERO SWAP2 DUP5 DIV EQ OR ISZERO PUSH2 0x6E6 JUMPI JUMP JUMPDEST PUSH1 0xA DUP3 LT ISZERO PUSH2 0x12C6 JUMPI MSTORE JUMP JUMPDEST PUSH1 0x5 DUP3 LT ISZERO PUSH2 0x12C6 JUMPI MSTORE JUMP JUMPDEST PUSH1 0x4 DUP3 LT ISZERO PUSH2 0x12C6 JUMPI MSTORE JUMP JUMPDEST SWAP1 PUSH1 0x4 DUP2 LT ISZERO PUSH2 0x12C6 JUMPI PUSH4 0xFF000000 DUP3 SLOAD SWAP2 PUSH1 0x18 SHL AND SWAP1 PUSH4 0xFF000000 NOT AND OR SWAP1 SSTORE JUMP JUMPDEST DUP1 SLOAD PUSH1 0x1 PUSH1 0x40 SHL DUP2 LT ISZERO PUSH2 0xECC JUMPI PUSH2 0x3ADC SWAP2 PUSH1 0x1 DUP3 ADD DUP2 SSTORE PUSH2 0x3360 JUMP JUMPDEST DUP2 SWAP3 SWAP2 SLOAD SWAP1 PUSH1 0x3 SHL SWAP2 DUP3 SHL SWAP2 PUSH1 0x0 NOT SWAP1 SHL NOT AND OR SWAP1 SSTORE JUMP JUMPDEST PUSH1 0x40 DUP1 MLOAD SWAP3 PUSH2 0x3B02 DUP5 PUSH2 0x3456 JUMP JUMPDEST PUSH1 0x0 DUP1 DUP6 MSTORE SWAP4 PUSH1 0x1 PUSH1 0x1 PUSH1 0xA0 SHL SUB DUP5 DUP2 AND SWAP5 SWAP1 DUP6 ISZERO PUSH2 0x3C77 JUMPI PUSH2 0x3B25 DUP5 DUP4 PUSH2 0x3811 JUMP JUMPDEST AND PUSH2 0x3C5F JUMPI EXTCODESIZE PUSH2 0x3B36 JUMPI POP POP POP POP POP JUMP JUMPDEST SWAP1 DUP3 SWAP4 SWAP5 SWAP6 SWAP2 PUSH2 0x3B77 SWAP4 MLOAD SWAP1 PUSH4 0xA85BD01 PUSH1 0xE1 SHL SWAP3 DUP4 DUP4 MSTORE CALLER PUSH1 0x4 DUP5 ADD MSTORE DUP9 PUSH1 0x24 DUP5 ADD MSTORE PUSH1 0x44 DUP4 ADD MSTORE PUSH1 0x80 PUSH1 0x64 DUP4 ADD MSTORE DUP2 DUP1 PUSH1 0x20 SWAP7 DUP8 SWAP4 PUSH1 0x84 DUP4 ADD SWAP1 PUSH2 0x330F JUMP JUMPDEST SUB DUP2 DUP11 DUP11 GAS CALL DUP8 SWAP2 DUP2 PUSH2 0x3C1B JUMPI JUMPDEST POP PUSH2 0x3BE5 JUMPI POP POP POP RETURNDATASIZE PUSH1 0x0 EQ PUSH2 0x3BDC JUMPI RETURNDATASIZE PUSH2 0x3B9F DUP2 PUSH2 0x34AD JUMP JUMPDEST SWAP1 PUSH2 0x3BAC DUP5 MLOAD SWAP3 DUP4 PUSH2 0x348C JUMP JUMPDEST DUP2 MSTORE DUP1 SWAP5 DUP3 RETURNDATASIZE SWAP3 ADD RETURNDATACOPY JUMPDEST DUP4 MLOAD SWAP4 DUP5 PUSH2 0x3BD6 JUMPI DUP3 MLOAD PUSH4 0x32505749 PUSH1 0xE1 SHL DUP2 MSTORE PUSH1 0x4 DUP2 ADD DUP6 SWAP1 MSTORE PUSH1 0x24 SWAP1 REVERT JUMPDEST DUP5 SWAP3 POP ADD REVERT JUMPDEST PUSH1 0x60 SWAP4 POP PUSH2 0x3BB6 JUMP JUMPDEST SWAP2 SWAP6 POP SWAP2 POP PUSH4 0xFFFFFFFF PUSH1 0xE0 SHL AND SUB PUSH2 0x3C04 JUMPI POP POP CODESIZE DUP1 DUP1 DUP1 DUP1 PUSH2 0x3913 JUMP JUMPDEST PUSH1 0x24 SWAP3 POP MLOAD SWAP1 PUSH4 0x32505749 PUSH1 0xE1 SHL DUP3 MSTORE PUSH1 0x4 DUP3 ADD MSTORE REVERT JUMPDEST SWAP1 SWAP2 POP DUP5 DUP2 DUP2 RETURNDATASIZE DUP4 GT PUSH2 0x3C58 JUMPI JUMPDEST PUSH2 0x3C33 DUP2 DUP4 PUSH2 0x348C JUMP JUMPDEST DUP2 ADD SUB SLT PUSH2 0x3C54 JUMPI MLOAD PUSH1 0x1 PUSH1 0x1 PUSH1 0xE0 SHL SUB NOT DUP2 AND DUP2 SUB PUSH2 0x3C54 JUMPI SWAP1 CODESIZE PUSH2 0x3B85 JUMP JUMPDEST DUP8 DUP1 REVERT JUMPDEST POP RETURNDATASIZE PUSH2 0x3C29 JUMP JUMPDEST DUP4 MLOAD PUSH4 0x39E35637 PUSH1 0xE1 SHL DUP2 MSTORE PUSH1 0x4 DUP2 ADD DUP8 SWAP1 MSTORE PUSH1 0x24 SWAP1 REVERT JUMPDEST DUP5 MLOAD PUSH4 0x32505749 PUSH1 0xE1 SHL DUP2 MSTORE PUSH1 0x4 DUP2 ADD DUP9 SWAP1 MSTORE PUSH1 0x24 SWAP1 REVERT JUMPDEST SWAP2 SWAP1 DUP3 ADD DUP1 SWAP3 GT PUSH2 0x6E6 JUMPI JUMP JUMPDEST PUSH1 0x2 PUSH1 0x7 SLOAD EQ PUSH2 0x3CAD JUMPI PUSH1 0x2 PUSH1 0x7 SSTORE JUMP JUMPDEST PUSH1 0x40 MLOAD PUSH4 0x3EE5AEB5 PUSH1 0xE0 SHL DUP2 MSTORE PUSH1 0x4 SWAP1 REVERT JUMPDEST ISZERO PUSH2 0x3CC6 JUMPI JUMP JUMPDEST PUSH1 0x40 MLOAD PUSH3 0x461BCD PUSH1 0xE5 SHL DUP2 MSTORE PUSH1 0x20 PUSH1 0x4 DUP3 ADD MSTORE PUSH1 0x9 PUSH1 0x24 DUP3 ADD MSTORE PUSH9 0x2737BA1037BBB732B9 PUSH1 0xB9 SHL PUSH1 0x44 DUP3 ADD MSTORE PUSH1 0x64 SWAP1 REVERT JUMPDEST ISZERO PUSH2 0x3CFE JUMPI JUMP JUMPDEST PUSH1 0x40 MLOAD PUSH3 0x461BCD PUSH1 0xE5 SHL DUP2 MSTORE PUSH1 0x20 PUSH1 0x4 DUP3 ADD MSTORE PUSH1 0x11 PUSH1 0x24 DUP3 ADD MSTORE PUSH17 0x105B1C9958591E4818DBDB5C1B195D1959 PUSH1 0x7A SHL PUSH1 0x44 DUP3 ADD MSTORE PUSH1 0x64 SWAP1 REVERT JUMPDEST SWAP1 PUSH1 0x1 PUSH1 0x1 PUSH1 0xA0 SHL SUB SWAP1 DUP2 DUP2 AND ISZERO PUSH2 0x37F8 JUMPI DUP4 PUSH2 0x3D53 SWAP2 PUSH2 0x3811 JUMP JUMPDEST SWAP1 DUP1 DUP3 AND SWAP1 DUP2 PUSH2 0x3D76 JUMPI PUSH1 0x40 MLOAD PUSH4 0x7E273289 PUSH1 0xE0 SHL DUP2 MSTORE PUSH1 0x4 DUP2 ADD DUP7 SWAP1 MSTORE PUSH1 0x24 SWAP1 REVERT JUMPDEST DUP4 AND SUB PUSH2 0x3D82 JUMPI POP POP POP JUMP JUMPDEST PUSH1 0x40 MLOAD PUSH4 0x64283D7B PUSH1 0xE0 SHL DUP2 MSTORE PUSH1 0x1 PUSH1 0x1 PUSH1 0xA0 SHL SUB SWAP3 DUP4 AND PUSH1 0x4 DUP3 ADD MSTORE PUSH1 0x24 DUP2 ADD SWAP4 SWAP1 SWAP4 MSTORE AND PUSH1 0x44 DUP3 ADD MSTORE PUSH1 0x64 SWAP1 REVERT JUMPDEST ISZERO PUSH2 0x3DB9 JUMPI JUMP JUMPDEST PUSH1 0x40 MLOAD PUSH3 0x461BCD PUSH1 0xE5 SHL DUP2 MSTORE PUSH1 0x20 PUSH1 0x4 DUP3 ADD MSTORE PUSH1 0xA PUSH1 0x24 DUP3 ADD MSTORE PUSH10 0x4E6F7420616374697665 PUSH1 0xB0 SHL PUSH1 0x44 DUP3 ADD MSTORE PUSH1 0x64 SWAP1 REVERT JUMPDEST ISZERO PUSH2 0x3DF2 JUMPI JUMP JUMPDEST PUSH1 0x40 MLOAD PUSH3 0x461BCD PUSH1 0xE5 SHL DUP2 MSTORE PUSH1 0x20 PUSH1 0x4 DUP3 ADD MSTORE PUSH1 0x14 PUSH1 0x24 DUP3 ADD MSTORE PUSH20 0x125B9CDD59999A58DA595B9D081C185E5B595B9D PUSH1 0x62 SHL PUSH1 0x44 DUP3 ADD MSTORE PUSH1 0x64 SWAP1 REVERT JUMPDEST SWAP2 SWAP1 DUP3 SUB SWAP2 DUP3 GT PUSH2 0x6E6 JUMPI JUMP JUMPDEST PUSH1 0x5 DUP2 LT ISZERO PUSH2 0x12C6 JUMPI DUP1 ISZERO PUSH2 0x3E77 JUMPI PUSH1 0x1 DUP2 EQ PUSH2 0x3E71 JUMPI PUSH1 0x2 DUP2 EQ PUSH2 0x3E6B JUMPI PUSH1 0x3 EQ PUSH2 0x3E66 JUMPI PUSH1 0xC8 SWAP1 JUMP JUMPDEST PUSH1 0x96 SWAP1 JUMP JUMPDEST POP PUSH1 0x64 SWAP1 JUMP JUMPDEST POP PUSH1 0x4B SWAP1 JUMP JUMPDEST POP PUSH1 0x32 SWAP1 JUMP JUMPDEST DUP1 ISZERO PUSH2 0x3F24 JUMPI PUSH1 0x0 DUP2 DUP1 JUMPDEST PUSH2 0x3F10 JUMPI POP PUSH2 0x3E96 DUP2 PUSH2 0x34AD JUMP JUMPDEST SWAP1 PUSH2 0x3EA4 PUSH1 0x40 MLOAD SWAP3 DUP4 PUSH2 0x348C JUMP JUMPDEST DUP1 DUP3 MSTORE PUSH1 0x1F NOT PUSH2 0x3EB3 DUP3 PUSH2 0x34AD JUMP JUMPDEST ADD CALLDATASIZE PUSH1 0x20 DUP5 ADD CALLDATACOPY JUMPDEST DUP1 SWAP3 DUP1 ISZERO PUSH2 0x3F09 JUMPI PUSH1 0x0 NOT DUP3 ADD SWAP2 DUP3 GT PUSH2 0x6E6 JUMPI DUP2 SWAP4 PUSH1 0xA SWAP3 PUSH1 0x30 SWAP1 DUP5 DUP5 MOD DUP3 ADD DUP1 SWAP3 GT PUSH2 0x6E6 JUMPI DUP6 MLOAD GT ISZERO PUSH2 0x2FF1 JUMPI PUSH1 0xF8 SHL PUSH1 0x1 PUSH1 0x1 PUSH1 0xF8 SHL SUB NOT AND PUSH1 0x0 BYTE SWAP1 DUP5 ADD PUSH1 0x1F ADD MSTORE8 DIV SWAP2 PUSH2 0x3EBB JUMP JUMPDEST POP POP SWAP1 POP SWAP1 JUMP JUMPDEST SWAP1 PUSH2 0x3F1C PUSH1 0xA SWAP2 PUSH2 0x3A56 JUMP JUMPDEST SWAP2 DIV DUP1 PUSH2 0x3E88 JUMP JUMPDEST POP PUSH1 0x40 MLOAD PUSH2 0x3F31 DUP2 PUSH2 0x3471 JUMP JUMPDEST PUSH1 0x1 DUP2 MSTORE PUSH1 0x3 PUSH1 0xFC SHL PUSH1 0x20 DUP3 ADD MSTORE SWAP1 JUMP INVALID LOG2 PUSH5 0x6970667358 0x22 SLT KECCAK256 0xDD PUSH27 0xF06C6C8597645183539E51C21FA507DE972B9925CD016A81878934 PUSH3 0xF2D964 PUSH20 0x6F6C634300081400330000000000000000000000 "},"methodIdentifiers":{"EVOLUTION_DURATION()":"4939504e","INSTALLMENT_COUNT()":"0ea92db2","MARKETPLACE_FEE()":"9c103c61","PAYMENT_INTERVAL()":"20dd0c84","TRAINING_DURATION()":"967f083e","activeListingIds(uint256)":"e3b6a1f6","activeSessions(uint256)":"c6e5a419","approve(address,uint256)":"095ea7b3","balanceOf(address)":"70a08231","baseTrainingFee()":"a996aeb8","breedDragons(uint256,uint256)":"68562d20","buyDragon(uint256)":"8d159787","cancelListing(uint256)":"305a67a8","completeTraining(uint256)":"6415dbde","createDragon(uint8,uint8,uint8)":"3aa229e7","dragons(uint256)":"d2a59d69","evolutionFee()":"8eb27d02","evolutionLevelRequired(uint8)":"3653a5f8","evolveDragon(uint256)":"ac567836","gameToken()":"c3dfdae6","getActiveListings()":"87c35bc0","getApproved(uint256)":"081812fc","getBattlePower(uint256)":"e4a2fe1d","getDragon(uint256)":"e0bb933b","getUserDragons(address)":"47b50c42","installmentPlans(uint256)":"b4d34441","isApprovedForAll(address,address)":"e985e9c5","listDragon(uint256,uint256,bool)":"25d9ddd2","listings(uint256)":"de74e57b","name()":"06fdde03","nameDragon(uint256,string)":"862a93e8","owner()":"8da5cb5b","ownerOf(uint256)":"6352211e","payInstallment(uint256)":"e2f8a017","renounceOwnership()":"715018a6","safeTransferFrom(address,address,uint256)":"42842e0e","safeTransferFrom(address,address,uint256,bytes)":"b88d4fde","setApprovalForAll(address,bool)":"a22cb465","setGameToken(address)":"80d29e66","setTrainingFee(uint256)":"61687670","startInstallmentPurchase(uint256)":"415ea6c1","startTraining(uint256,string)":"d0258ba5","supportsInterface(bytes4)":"01ffc9a7","symbol()":"95d89b41","tokenURI(uint256)":"c87b56dd","transferFrom(address,address,uint256)":"23b872dd","transferOwnership(address)":"f2fde38b","useTokenForFees()":"f2c19d31","userDragons(address,uint256)":"0cb2cc14","userListings(address,uint256)":"86cfa7d3","withdraw()":"3ccfd60b"}}}}}