{
  "_format": "hh-sol-artifact-1",
  "contractName": "BattleArena",
  "sourceName": "contracts/BattleArena.sol",
  "abi": [
    {
      "inputs": [
        {
          "internalType": "address",
          "name": "_dragonContract",
          "type": "address"
        }
      ],
      "stateMutability": "nonpayable",
      "type": "constructor"
    },
    {
      "anonymous": false,
      "inputs": [
        {
          "indexed": true,
          "internalType": "uint256",
          "name": "battleId",
          "type": "uint256"
        },
        {
          "indexed": true,
          "internalType": "address",
          "name": "winner",
          "type": "address"
        },
        {
          "indexed": false,
          "internalType": "uint256",
          "name": "expGained",
          "type": "uint256"
        }
      ],
      "name": "BattleCompleted",
      "type": "event"
    },
    {
      "anonymous": false,
      "inputs": [
        {
          "indexed": true,
          "internalType": "uint256",
          "name": "battleId",
          "type": "uint256"
        },
        {
          "indexed": true,
          "internalType": "address",
          "name": "challenger",
          "type": "address"
        },
        {
          "indexed": false,
          "internalType": "uint256",
          "name": "challengerDragon",
          "type": "uint256"
        },
        {
          "indexed": false,
          "internalType": "uint256",
          "name": "opponentDragon",
          "type": "uint256"
        }
      ],
      "name": "BattleInitiated",
      "type": "event"
    },
    {
      "inputs": [
        {
          "internalType": "uint256",
          "name": "",
          "type": "uint256"
        }
      ],
      "name": "battles",
      "outputs": [
        {
          "internalType": "uint256",
          "name": "id",
          "type": "uint256"
        },
        {
          "internalType": "address",
          "name": "challenger",
          "type": "address"
        },
        {
          "internalType": "uint256",
          "name": "challengerDragonId",
          "type": "uint256"
        },
        {
          "internalType": "address",
          "name": "opponent",
          "type": "address"
        },
        {
          "internalType": "uint256",
          "name": "opponentDragonId",
          "type": "uint256"
        },
        {
          "internalType": "uint256",
          "name": "timestamp",
          "type": "uint256"
        },
        {
          "internalType": "address",
          "name": "winner",
          "type": "address"
        },
        {
          "internalType": "bool",
          "name": "completed",
          "type": "bool"
        },
        {
          "internalType": "uint256",
          "name": "expReward",
          "type": "uint256"
        }
      ],
      "stateMutability": "view",
      "type": "function"
    },
    {
      "inputs": [],
      "name": "dragonContract",
      "outputs": [
        {
          "internalType": "contract IDragonNFT",
          "name": "",
          "type": "address"
        }
      ],
      "stateMutability": "view",
      "type": "function"
    },
    {
      "inputs": [
        {
          "internalType": "uint256",
          "name": "battleId",
          "type": "uint256"
        }
      ],
      "name": "getBattle",
      "outputs": [
        {
          "components": [
            {
              "internalType": "uint256",
              "name": "id",
              "type": "uint256"
            },
            {
              "internalType": "address",
              "name": "challenger",
              "type": "address"
            },
            {
              "internalType": "uint256",
              "name": "challengerDragonId",
              "type": "uint256"
            },
            {
              "internalType": "address",
              "name": "opponent",
              "type": "address"
            },
            {
              "internalType": "uint256",
              "name": "opponentDragonId",
              "type": "uint256"
            },
            {
              "internalType": "uint256",
              "name": "timestamp",
              "type": "uint256"
            },
            {
              "internalType": "address",
              "name": "winner",
              "type": "address"
            },
            {
              "internalType": "bool",
              "name": "completed",
              "type": "bool"
            },
            {
              "internalType": "uint256",
              "name": "expReward",
              "type": "uint256"
            }
          ],
          "internalType": "struct BattleArena.Battle",
          "name": "",
          "type": "tuple"
        }
      ],
      "stateMutability": "view",
      "type": "function"
    },
    {
      "inputs": [
        {
          "internalType": "address",
          "name": "user",
          "type": "address"
        }
      ],
      "name": "getUserBattles",
      "outputs": [
        {
          "internalType": "uint256[]",
          "name": "",
          "type": "uint256[]"
        }
      ],
      "stateMutability": "view",
      "type": "function"
    },
    {
      "inputs": [
        {
          "internalType": "uint256",
          "name": "myDragonId",
          "type": "uint256"
        },
        {
          "internalType": "uint256",
          "name": "opponentDragonId",
          "type": "uint256"
        }
      ],
      "name": "initiateBattle",
      "outputs": [
        {
          "internalType": "uint256",
          "name": "",
          "type": "uint256"
        }
      ],
      "stateMutability": "nonpayable",
      "type": "function"
    },
    {
      "inputs": [
        {
          "internalType": "uint256",
          "name": "battleId",
          "type": "uint256"
        },
        {
          "internalType": "address",
          "name": "winner",
          "type": "address"
        },
        {
          "internalType": "uint256",
          "name": "expGained",
          "type": "uint256"
        }
      ],
      "name": "submitBattleResult",
      "outputs": [],
      "stateMutability": "nonpayable",
      "type": "function"
    },
    {
      "inputs": [
        {
          "internalType": "address",
          "name": "",
          "type": "address"
        },
        {
          "internalType": "uint256",
          "name": "",
          "type": "uint256"
        }
      ],
      "name": "userBattles",
      "outputs": [
        {
          "internalType": "uint256",
          "name": "",
          "type": "uint256"
        }
      ],
      "stateMutability": "view",
      "type": "function"
    }
  ],
  "bytecode": "0x60803461007457601f610bea38819003918201601f19168301916001600160401b038311848410176100795780849260209460405283398101031261007457516001600160a01b0381169081900361007457600080546001600160a01b031916919091179055604051610b5a90816100908239f35b600080fd5b634e487b7160e01b600052604160045260246000fdfe60806040908082526004908136101561001757600080fd5b60009160e08335811c928363012fc85e146108305750826305760181146107da5782635217ea291461030c578263606d2e96146102785782636dd0ce7a1461014f57505080639711dc38146101235763f5dbbaed1461007557600080fd5b3461012057602090816003193601126101205782906001600160a01b0361009a610a10565b16815260028352818120908251808584549182815201908194845286842090845b81811061010c57505050816100d1910382610a8c565b83519485948186019282875251809352850193925b8281106100f557505050500390f35b8351855286955093810193928101926001016100e6565b8254845292880192600192830192016100bb565b80fd5b50903461014b578160031936011261014b57905490516001600160a01b039091168152602090f35b5080fd5b9091503461027457602036600319011261027457808480519461017186610a59565b80865280602087015280828701528060608701528060808701528060a08701528060c0870152808387015280610100809701528435815260016020522092855180946101bc82610a59565b8054808352600160a01b600190038094816001850154169a602086019b8c52600285015481870190815283600387015416926060880193845286015494608088019586528c60058801549760a08a0198895260068101549b8a8860c08f9d019c168c52019b60a01c60ff1615158c52600701549c019b8c528483519e8f9283525116906020015251908c0152511660608a01525160808901525160a0880152511660c086015251151590840152519082015261012090f35b8280fd5b849250346103085760203660031901126103085760ff83610120958435815260016020522080549460018060a01b03908160018401541695600284015490836003860154169085015491600586015493600760068801549701549981519b8c5260208c01528a01526060890152608088015260a0870152811660c086015260a01c16151590830152610100820152f35b8380fd5b9391503461027457816003193601126102745780359060249384359160018060a01b039081835416978651986331a9108f60e11b808b5287848c015260209a8b818c81865afa90811561077f5787916107bd575b50853391160361078957885163e0bb933b60e01b815284810188905286818c81865afa801561077f5787906105dd575b6101a0915001511561059b578a908a8a518094819382528a888301525afa908115610591579084918691610564575b50169233841461052257600354986000198a146105115750938895938693828a999794868b968f600183016003558851956103f987610a59565b8387528b8d8389013381528c8a0191825260608a01918b835260808b0193845260a08b019542875260c08c01998b8b528c01988b8a526101008d019b808d5252600190528d8d209a518b558660018c01925116916bffffffffffffffffffffffff60a01b92838254161790555160028b01558560038b019251169082541617905551908701555160058601556006850192511682549160ff60a01b9051151560a01b16916affffffffffffffffffffff60a81b161717905551906007015533825260028b5283838320906104cc91610aea565b815260028a5220906104dd91610aea565b83519182528682015233927f2e1463e8d1391d8dce100cd457a5e3707257dd4b1f90d3a4c5dcdf8bbece118d91a351908152f35b634e487b7160e01b86526011845285fd5b875162461bcd60e51b81528084018b9052601d818b01527f43616e6e6f7420626174746c6520796f7572206f776e20647261676f6e0000006044820152606490fd5b61058491508b3d8d1161058a575b61057c8183610a8c565b810190610aae565b386103bf565b503d610572565b88513d87823e3d90fd5b885162461bcd60e51b81528085018c9052601e818c01527f4f70706f6e656e7420647261676f6e206e6f74206f6e207374616e64627900006044820152606490fd5b503d8088833e6105ed8183610a8c565b8101908c8183031261077b57805167ffffffffffffffff918282116107775701906101c0928383820312610777578c5193840184811083821117610765578d5282518452828f01518281116107615783019080601f8301121561076157815192831161076557908f92918e519361066d81601f19601f8701160186610a8c565b8385528383010111610761578f90918b92835b82811061074b575050830101528d83015261069c8b8201610acd565b8b8301526106ac60608201610acd565b60608301526106bd60808201610adb565b60808301526106ce60a08201610adb565b60a08301526106df60c08201610adb565b60c08301526106ef858201610acd565b85830152610100808201519083015261012080820151908301526101408082015190830152610160808201519083015261018080820151908301526101a080910151908115158203610747578201526101a090610390565b8880fd5b8181018401518682018501528d94508301610680565b8a80fd5b634e487b7160e01b8b52604189528e8bfd5b8980fd5b8780fd5b8a513d89823e3d90fd5b885162461bcd60e51b81528085018c9052600f818c01526e2737ba103cb7bab910323930b3b7b760891b6044820152606490fd5b6107d491508c8d3d1061058a5761057c8183610a8c565b38610360565b83853461014b578060031936011261014b576107f4610a10565b6001600160a01b03168252600260205280822080546024359390841015610120575060209261082291610a2b565b91905490519160031b1c8152f35b8583869234610308576060366003190112610308576001600160a01b03602435818116948435949091869003610a0c57604435928588526020946001865283892092600684019283549260ff8460a01c166109cb57508060018601541680331480156109bc575b15610987578a14908115610977575b50156109435785151580610938575b1561090057506001600160a81b0319168717600160a01b179055600701829055519081527f5f6e525271d68d47b9049b49a4ed50e63d6e24b56b74fc5d8d595818fcdfa0239190a380f35b845162461bcd60e51b81529081018790526012602482015271125b9d985b1a5908195e1c08185b5bdd5b9d60721b6044820152606490fd5b5060c88611156108b5565b845162461bcd60e51b8152908101879052600e60248201526d24b73b30b634b2103bb4b73732b960911b6044820152606490fd5b905060038501541689148b6108a6565b865162461bcd60e51b81528084018a9052600f60248201526e139bdd081c185c9d1a58da5c185b9d608a1b6044820152606490fd5b50816003870154163314610897565b62461bcd60e51b8152828101899052601860248201527f426174746c6520616c726561647920636f6d706c6574656400000000000000006044820152606490fd5b8680fd5b600435906001600160a01b0382168203610a2657565b600080fd5b8054821015610a435760005260206000200190600090565b634e487b7160e01b600052603260045260246000fd5b610120810190811067ffffffffffffffff821117610a7657604052565b634e487b7160e01b600052604160045260246000fd5b90601f8019910116810190811067ffffffffffffffff821117610a7657604052565b90816020910312610a2657516001600160a01b0381168103610a265790565b519060ff82168203610a2657565b519061ffff82168203610a2657565b805468010000000000000000811015610a7657610b0c91600182018155610a2b565b819291549060031b91821b91600019901b191617905556fea26469706673582212200aa35a3b6ceca4ca9d3059719e19a974ad791c8f541632b36a842a2c3758484b64736f6c63430008140033",
  "linkReferences": {},
  "deployedLinkReferences": {}
}