{
  "_format": "hh-sol-artifact-1",
  "contractName": "EggNFT",
  "sourceName": "contracts/EggNFT.sol",
  "abi": [
    {
      "inputs": [],
      "stateMutability": "nonpayable",
      "type": "constructor"
    },
    {
      "inputs": [
        {
          "internalType": "address",
          "name": "sender",
          "type": "address"
        },
        {
          "internalType": "uint256",
          "name": "tokenId",
          "type": "uint256"
        },
        {
          "internalType": "address",
          "name": "owner",
          "type": "address"
        }
      ],
      "name": "ERC721IncorrectOwner",
      "type": "error"
    },
    {
      "inputs": [
        {
          "internalType": "address",
          "name": "operator",
          "type": "address"
        },
        {
          "internalType": "uint256",
          "name": "tokenId",
          "type": "uint256"
        }
      ],
      "name": "ERC721InsufficientApproval",
      "type": "error"
    },
    {
      "inputs": [
        {
          "internalType": "address",
          "name": "approver",
          "type": "address"
        }
      ],
      "name": "ERC721InvalidApprover",
      "type": "error"
    },
    {
      "inputs": [
        {
          "internalType": "address",
          "name": "operator",
          "type": "address"
        }
      ],
      "name": "ERC721InvalidOperator",
      "type": "error"
    },
    {
      "inputs": [
        {
          "internalType": "address",
          "name": "owner",
          "type": "address"
        }
      ],
      "name": "ERC721InvalidOwner",
      "type": "error"
    },
    {
      "inputs": [
        {
          "internalType": "address",
          "name": "receiver",
          "type": "address"
        }
      ],
      "name": "ERC721InvalidReceiver",
      "type": "error"
    },
    {
      "inputs": [
        {
          "internalType": "address",
          "name": "sender",
          "type": "address"
        }
      ],
      "name": "ERC721InvalidSender",
      "type": "error"
    },
    {
      "inputs": [
        {
          "internalType": "uint256",
          "name": "tokenId",
          "type": "uint256"
        }
      ],
      "name": "ERC721NonexistentToken",
      "type": "error"
    },
    {
      "inputs": [
        {
          "internalType": "address",
          "name": "owner",
          "type": "address"
        }
      ],
      "name": "OwnableInvalidOwner",
      "type": "error"
    },
    {
      "inputs": [
        {
          "internalType": "address",
          "name": "account",
          "type": "address"
        }
      ],
      "name": "OwnableUnauthorizedAccount",
      "type": "error"
    },
    {
      "anonymous": false,
      "inputs": [
        {
          "indexed": true,
          "internalType": "address",
          "name": "owner",
          "type": "address"
        },
        {
          "indexed": true,
          "internalType": "address",
          "name": "approved",
          "type": "address"
        },
        {
          "indexed": true,
          "internalType": "uint256",
          "name": "tokenId",
          "type": "uint256"
        }
      ],
      "name": "Approval",
      "type": "event"
    },
    {
      "anonymous": false,
      "inputs": [
        {
          "indexed": true,
          "internalType": "address",
          "name": "owner",
          "type": "address"
        },
        {
          "indexed": true,
          "internalType": "address",
          "name": "operator",
          "type": "address"
        },
        {
          "indexed": false,
          "internalType": "bool",
          "name": "approved",
          "type": "bool"
        }
      ],
      "name": "ApprovalForAll",
      "type": "event"
    },
    {
      "anonymous": false,
      "inputs": [
        {
          "indexed": true,
          "internalType": "uint256",
          "name": "tokenId",
          "type": "uint256"
        },
        {
          "indexed": true,
          "internalType": "address",
          "name": "owner",
          "type": "address"
        }
      ],
      "name": "EggHatched",
      "type": "event"
    },
    {
      "anonymous": false,
      "inputs": [
        {
          "indexed": true,
          "internalType": "uint256",
          "name": "tokenId",
          "type": "uint256"
        },
        {
          "indexed": true,
          "internalType": "address",
          "name": "buyer",
          "type": "address"
        },
        {
          "indexed": false,
          "internalType": "uint8",
          "name": "element",
          "type": "uint8"
        },
        {
          "indexed": false,
          "internalType": "uint8",
          "name": "rarity",
          "type": "uint8"
        }
      ],
      "name": "EggPurchased",
      "type": "event"
    },
    {
      "anonymous": false,
      "inputs": [
        {
          "indexed": true,
          "internalType": "address",
          "name": "previousOwner",
          "type": "address"
        },
        {
          "indexed": true,
          "internalType": "address",
          "name": "newOwner",
          "type": "address"
        }
      ],
      "name": "OwnershipTransferred",
      "type": "event"
    },
    {
      "anonymous": false,
      "inputs": [
        {
          "indexed": true,
          "internalType": "address",
          "name": "from",
          "type": "address"
        },
        {
          "indexed": true,
          "internalType": "address",
          "name": "to",
          "type": "address"
        },
        {
          "indexed": true,
          "internalType": "uint256",
          "name": "tokenId",
          "type": "uint256"
        }
      ],
      "name": "Transfer",
      "type": "event"
    },
    {
      "inputs": [
        {
          "internalType": "uint256",
          "name": "typeId",
          "type": "uint256"
        },
        {
          "internalType": "uint8",
          "name": "element",
          "type": "uint8"
        },
        {
          "internalType": "uint8",
          "name": "rarity",
          "type": "uint8"
        },
        {
          "internalType": "string",
          "name": "metadata",
          "type": "string"
        }
      ],
      "name": "addEggType",
      "outputs": [],
      "stateMutability": "nonpayable",
      "type": "function"
    },
    {
      "inputs": [
        {
          "internalType": "address",
          "name": "to",
          "type": "address"
        },
        {
          "internalType": "uint256",
          "name": "tokenId",
          "type": "uint256"
        }
      ],
      "name": "approve",
      "outputs": [],
      "stateMutability": "nonpayable",
      "type": "function"
    },
    {
      "inputs": [
        {
          "internalType": "address",
          "name": "owner",
          "type": "address"
        }
      ],
      "name": "balanceOf",
      "outputs": [
        {
          "internalType": "uint256",
          "name": "",
          "type": "uint256"
        }
      ],
      "stateMutability": "view",
      "type": "function"
    },
    {
      "inputs": [],
      "name": "buyEgg",
      "outputs": [
        {
          "internalType": "uint256",
          "name": "",
          "type": "uint256"
        }
      ],
      "stateMutability": "payable",
      "type": "function"
    },
    {
      "inputs": [],
      "name": "dragonNFT",
      "outputs": [
        {
          "internalType": "address",
          "name": "",
          "type": "address"
        }
      ],
      "stateMutability": "view",
      "type": "function"
    },
    {
      "inputs": [
        {
          "internalType": "uint8",
          "name": "",
          "type": "uint8"
        }
      ],
      "name": "eggPrices",
      "outputs": [
        {
          "internalType": "uint256",
          "name": "",
          "type": "uint256"
        }
      ],
      "stateMutability": "view",
      "type": "function"
    },
    {
      "inputs": [
        {
          "internalType": "uint256",
          "name": "",
          "type": "uint256"
        }
      ],
      "name": "eggTypes",
      "outputs": [
        {
          "internalType": "uint8",
          "name": "element",
          "type": "uint8"
        },
        {
          "internalType": "uint8",
          "name": "rarity",
          "type": "uint8"
        },
        {
          "internalType": "string",
          "name": "metadata",
          "type": "string"
        }
      ],
      "stateMutability": "view",
      "type": "function"
    },
    {
      "inputs": [
        {
          "internalType": "uint256",
          "name": "",
          "type": "uint256"
        }
      ],
      "name": "eggs",
      "outputs": [
        {
          "internalType": "uint256",
          "name": "id",
          "type": "uint256"
        },
        {
          "internalType": "uint8",
          "name": "element",
          "type": "uint8"
        },
        {
          "internalType": "uint8",
          "name": "rarity",
          "type": "uint8"
        },
        {
          "internalType": "uint256",
          "name": "purchaseTime",
          "type": "uint256"
        },
        {
          "internalType": "bool",
          "name": "hatched",
          "type": "bool"
        }
      ],
      "stateMutability": "view",
      "type": "function"
    },
    {
      "inputs": [
        {
          "internalType": "uint256",
          "name": "tokenId",
          "type": "uint256"
        }
      ],
      "name": "getApproved",
      "outputs": [
        {
          "internalType": "address",
          "name": "",
          "type": "address"
        }
      ],
      "stateMutability": "view",
      "type": "function"
    },
    {
      "inputs": [
        {
          "internalType": "uint256",
          "name": "tokenId",
          "type": "uint256"
        }
      ],
      "name": "getEgg",
      "outputs": [
        {
          "components": [
            {
              "internalType": "uint256",
              "name": "id",
              "type": "uint256"
            },
            {
              "internalType": "uint8",
              "name": "element",
              "type": "uint8"
            },
            {
              "internalType": "uint8",
              "name": "rarity",
              "type": "uint8"
            },
            {
              "internalType": "uint256",
              "name": "purchaseTime",
              "type": "uint256"
            },
            {
              "internalType": "bool",
              "name": "hatched",
              "type": "bool"
            }
          ],
          "internalType": "struct EggNFT.Egg",
          "name": "",
          "type": "tuple"
        }
      ],
      "stateMutability": "view",
      "type": "function"
    },
    {
      "inputs": [
        {
          "internalType": "uint256",
          "name": "tokenId",
          "type": "uint256"
        }
      ],
      "name": "hatchEgg",
      "outputs": [],
      "stateMutability": "nonpayable",
      "type": "function"
    },
    {
      "inputs": [
        {
          "internalType": "address",
          "name": "owner",
          "type": "address"
        },
        {
          "internalType": "address",
          "name": "operator",
          "type": "address"
        }
      ],
      "name": "isApprovedForAll",
      "outputs": [
        {
          "internalType": "bool",
          "name": "",
          "type": "bool"
        }
      ],
      "stateMutability": "view",
      "type": "function"
    },
    {
      "inputs": [],
      "name": "name",
      "outputs": [
        {
          "internalType": "string",
          "name": "",
          "type": "string"
        }
      ],
      "stateMutability": "view",
      "type": "function"
    },
    {
      "inputs": [],
      "name": "owner",
      "outputs": [
        {
          "internalType": "address",
          "name": "",
          "type": "address"
        }
      ],
      "stateMutability": "view",
      "type": "function"
    },
    {
      "inputs": [
        {
          "internalType": "uint256",
          "name": "tokenId",
          "type": "uint256"
        }
      ],
      "name": "ownerOf",
      "outputs": [
        {
          "internalType": "address",
          "name": "",
          "type": "address"
        }
      ],
      "stateMutability": "view",
      "type": "function"
    },
    {
      "inputs": [],
      "name": "renounceOwnership",
      "outputs": [],
      "stateMutability": "nonpayable",
      "type": "function"
    },
    {
      "inputs": [
        {
          "internalType": "address",
          "name": "from",
          "type": "address"
        },
        {
          "internalType": "address",
          "name": "to",
          "type": "address"
        },
        {
          "internalType": "uint256",
          "name": "tokenId",
          "type": "uint256"
        }
      ],
      "name": "safeTransferFrom",
      "outputs": [],
      "stateMutability": "nonpayable",
      "type": "function"
    },
    {
      "inputs": [
        {
          "internalType": "address",
          "name": "from",
          "type": "address"
        },
        {
          "internalType": "address",
          "name": "to",
          "type": "address"
        },
        {
          "internalType": "uint256",
          "name": "tokenId",
          "type": "uint256"
        },
        {
          "internalType": "bytes",
          "name": "data",
          "type": "bytes"
        }
      ],
      "name": "safeTransferFrom",
      "outputs": [],
      "stateMutability": "nonpayable",
      "type": "function"
    },
    {
      "inputs": [
        {
          "internalType": "address",
          "name": "operator",
          "type": "address"
        },
        {
          "internalType": "bool",
          "name": "approved",
          "type": "bool"
        }
      ],
      "name": "setApprovalForAll",
      "outputs": [],
      "stateMutability": "nonpayable",
      "type": "function"
    },
    {
      "inputs": [
        {
          "internalType": "address",
          "name": "_dragonNFT",
          "type": "address"
        }
      ],
      "name": "setDragonNFT",
      "outputs": [],
      "stateMutability": "nonpayable",
      "type": "function"
    },
    {
      "inputs": [
        {
          "internalType": "uint8",
          "name": "rarity",
          "type": "uint8"
        },
        {
          "internalType": "uint256",
          "name": "price",
          "type": "uint256"
        }
      ],
      "name": "setEggPrice",
      "outputs": [],
      "stateMutability": "nonpayable",
      "type": "function"
    },
    {
      "inputs": [
        {
          "internalType": "bytes4",
          "name": "interfaceId",
          "type": "bytes4"
        }
      ],
      "name": "supportsInterface",
      "outputs": [
        {
          "internalType": "bool",
          "name": "",
          "type": "bool"
        }
      ],
      "stateMutability": "view",
      "type": "function"
    },
    {
      "inputs": [],
      "name": "symbol",
      "outputs": [
        {
          "internalType": "string",
          "name": "",
          "type": "string"
        }
      ],
      "stateMutability": "view",
      "type": "function"
    },
    {
      "inputs": [
        {
          "internalType": "uint256",
          "name": "tokenId",
          "type": "uint256"
        }
      ],
      "name": "tokenURI",
      "outputs": [
        {
          "internalType": "string",
          "name": "",
          "type": "string"
        }
      ],
      "stateMutability": "view",
      "type": "function"
    },
    {
      "inputs": [
        {
          "internalType": "address",
          "name": "from",
          "type": "address"
        },
        {
          "internalType": "address",
          "name": "to",
          "type": "address"
        },
        {
          "internalType": "uint256",
          "name": "tokenId",
          "type": "uint256"
        }
      ],
      "name": "transferFrom",
      "outputs": [],
      "stateMutability": "nonpayable",
      "type": "function"
    },
    {
      "inputs": [
        {
          "internalType": "address",
          "name": "newOwner",
          "type": "address"
        }
      ],
      "name": "transferOwnership",
      "outputs": [],
      "stateMutability": "nonpayable",
      "type": "function"
    },
    {
      "inputs": [],
      "name": "withdraw",
      "outputs": [],
      "stateMutability": "nonpayable",
      "type": "function"
    }
  ],
  "bytecode": "0x6080346200037b576001600160401b039060408181018381118382101762000365578152600f82526020916e447261676f6e20436974792045676760881b838201528151938285018581108282111762000365578352600385526245474760e81b84860152815181811162000365576000948554916001948584811c941680156200035a575b8385101462000346578190601f94858111620002f3575b5083908583116001146200028f57899262000283575b5050600019600383901b1c191690851b1786555b86519283116200026f5783548481811c9116801562000264575b82821014620002505782811162000208575b5080918311600114620001a157508495829394959262000195575b5050600019600383901b1c191690821b1790555b33156200017d5760068054336001600160a01b03198216811790925591519290916001600160a01b0316907f8be0079c531659141344cd1fd0a4f28419497f9722a3daafe3b4186f6b6457e09080a36117929081620003818239f35b51631e4fbdf760e01b81526004810191909152602490fd5b0151905038806200010d565b90601f198316968487528287209287905b898210620001f0575050838596979810620001d6575b505050811b01905562000121565b015160001960f88460031b161c19169055388080620001c8565b808785968294968601518155019501930190620001b2565b8487528187208380860160051c82019284871062000246575b0160051c019085905b8281106200023a575050620000f2565b8881550185906200022a565b9250819262000221565b634e487b7160e01b87526022600452602487fd5b90607f1690620000e0565b634e487b7160e01b86526041600452602486fd5b015190503880620000b2565b898052848a208894509190601f1984168b5b87828210620002dc5750508411620002c2575b505050811b018655620000c6565b015160001960f88460031b161c19169055388080620002b4565b8385015186558b97909501949384019301620002a1565b9091508880528389208580850160051c8201928686106200033c575b918991869594930160051c01915b8281106200032d5750506200009c565b8b81558594508991016200031d565b925081926200030f565b634e487b7160e01b88526022600452602488fd5b93607f169362000085565b634e487b7160e01b600052604160045260246000fd5b600080fdfe6040608081526004908136101561001557600080fd5b600091823560e01c8063019e7eab1461104657806301ffc9a714610fd957806306fdde0314610f31578063081812fc14610ef6578063095ea7b314610e1a5780630a6d092014610d395780632368049914610d035780632385554c14610bb457806323b872dd14610b9c5780633ccfd60b14610b4c57806342842e0e14610b1d57806349bf8b4414610af45780636352211e14610ac357806365b8640114610a7e57806370a0823114610a29578063715018a6146109c95780637d635502146105e45780638da5cb5b146105bb57806395d89b41146104d8578063a22cb46514610431578063a27bbde114610400578063b88d4fde1461038d578063bb654efa14610331578063c87b56dd146102de578063e985e9c51461028c578063f2fde38b146101fd5763feb40f7e1461014a57600080fd5b346101f95760203660031901126101f95782829160a0946080845161016e81611314565b82815282602082015282868201528260608201520152358152600b6020522081519061019982611314565b80549283835260ff600183015481602086018183168152818588019360081c168352608082600360028901549860608b01998a52015416970196151587528451978852511660208701525116908401525160608301525115156080820152f35b8280fd5b50346101f95760203660031901126101f9576102176112ae565b9061022061140c565b6001600160a01b03918216928315610276575050600654826bffffffffffffffffffffffff60a01b821617600655167f8be0079c531659141344cd1fd0a4f28419497f9722a3daafe3b4186f6b6457e08380a380f35b51631e4fbdf760e01b8152908101849052602490fd5b5050346102da57806003193601126102da5760ff816020936102ac6112ae565b6102b46112c4565b6001600160a01b0391821683526005875283832091168252855220549151911615158152f35b5080fd5b509190346102da5760203660031901126102da576102ff61032d93356115d7565b5081815161030c81611346565b5280519161031983611346565b82525191829160208352602083019061126e565b0390f35b50346101f95760203660031901126101f95760a0928291358152600b602052209081549160018101549160ff806003600285015494015416938251958652818116602087015260081c1690840152606083015215156080820152f35b8382346102da5760803660031901126102da576103a86112ae565b6103b06112c4565b6044359060643567ffffffffffffffff81116103fc57366023820112156103fc576103f9948160246103e7933693013591016113d5565b926103f3838383611438565b33611612565b80f35b8580fd5b5050346102da5760203660031901126102da578060209260ff610421611259565b1681526009845220549051908152f35b5090346101f957806003193601126101f95761044b6112ae565b90602435801515928382036103fc576001600160a01b03169384156104c157506104949033865260056020528286208587526020528286209060ff801983541691151516179055565b519081527f17307eab39ab6107e8899845ad3d59bd9653f200f220920489ca2b5937696c3160203392a380f35b8251630b61174360e31b8152908101859052602490fd5b5050346102da57816003193601126102da578051908260018054916104fc836112da565b808652928281169081156105935750600114610537575b5050506105258261032d940383611362565b5191829160208352602083019061126e565b94508085527fb10e2d527612073b26eecdfd717e6a320cf44b4afac2b0732d9fcbe2b7fa0cf65b82861061057b5750505061052582602061032d9582010194610513565b8054602087870181019190915290950194810161055e565b61032d97508693506020925061052594915060ff191682840152151560051b82010194610513565b5050346102da57816003193601126102da5760065490516001600160a01b039091168152602090f35b5090826003193601126101f9576008549181516020948582019242845285858401523360601b606084015260548352608083019383851067ffffffffffffffff8611176109b657848652835190209360ff60648160068806169660081c0616603c811060001461099c575060ff835b169384845260098952868420543410610964575050600019808714610951576001870160085585519061068582611346565b838252331561093a5787845260028952868420546001600160a01b03168015159189919083610908575b503380875260038c528987208054600101905582875260028c5289872080546001600160a01b03191682179055907fddf252ad1be2c89b69c2b068fc378daa952ba7f163c4a11628f55a4df523b3ef8780a46108f257333b6107cb575b5050610796906003868861077a88519461072586611314565b83865260ff838701918a83528b808901918b8352600b60608b019742895260808c0199838b52835252209751885581600189019351168219845416178355511661ff0082549160081b169061ff001916179055565b51600284015551151591019060ff801983541691151516179055565b825191825284820152827f323bf84ea2f2167a91e45d06cfcd3e1e9fffd5b3a307d24d5c3a516981af1b86833393a351908152f35b85979492979693919651858180610809630a85bd0160e11b95868352338d8401528d602484015289604484015260806064840152608483019061126e565b03818c335af18991816108ae575b506108775750505050503d60001461086e573d610833816113b9565b9061084084519283611362565b81528094823d92013e5b83519384610868578251633250574960e11b81523381860152602490fd5b84925001fd5b6060935061084a565b63ffffffff60e099949699989395981b160361089757506107963861070c565b602490855190633250574960e11b82523390820152fd5b9091508681813d83116108eb575b6108c68183611362565b810103126108e757516001600160e01b0319811681036108e7579038610817565b8980fd5b503d6108bc565b506024918551916339e3563760e11b8352820152fd5b600083815260046020526040902080546001600160a01b031916905581875260038c52898720908154019055386106af565b8651633250574960e11b8152808401859052602490fd5b634e487b7160e01b835260118252602483fd5b9073125b9cdd59999a58da595b9d081c185e5b595b9d60621b60c46064938b62461bcd60e51b85526084820152601460a48201520152fd5b605a11156109ad5760ff6001610653565b60ff6002610653565b634e487b7160e01b835260418252602483fd5b8334610a265780600319360112610a26576109e261140c565b600680546001600160a01b0319811690915581906001600160a01b03167f8be0079c531659141344cd1fd0a4f28419497f9722a3daafe3b4186f6b6457e08280a380f35b80fd5b509134610a26576020366003190112610a26576001600160a01b03610a4c6112ae565b16928315610a695750806020938392526003845220549051908152f35b91516322718ad960e21b815291820152602490fd5b8334610a26576020366003190112610a2657610a986112ae565b610aa061140c565b60018060a01b03166bffffffffffffffffffffffff60a01b600a541617600a5580f35b509134610a26576020366003190112610a265750610ae3602092356115d7565b90516001600160a01b039091168152f35b5050346102da57816003193601126102da57600a5490516001600160a01b039091168152602090f35b5050346102da576103f990610b3136611384565b91925192610b3e84611346565b8584526103f3838383611438565b5050346102da57816003193601126102da57610b6661140c565b8180808060018060a01b03600654164790828215610b93575bf115610b89575080f35b51903d90823e3d90fd5b506108fc610b7f565b8334610a26576103f9610bae36611384565b91611438565b5090346101f957602080600319360112610cff57823592610bd4846115d7565b336001600160a01b0390911603610cd257838552600b825260ff6003848720015416610c9f57838552600b825260028386200154610e108101809111610c8c574210610c5b5750828452600b90528220600301805460ff1916600117905533907fbcc217a4a801124dc2346b3503be7dfbbb798f5ea5d401306958d24640c088e08380a380f35b915162461bcd60e51b815291820152600d60248201526c456767206e6f7420726561647960981b6044820152606490fd5b634e487b7160e01b865260118252602486fd5b915162461bcd60e51b815291820152600f60248201526e105b1c9958591e481a185d18da1959608a1b6044820152606490fd5b915162461bcd60e51b81529182015260096024820152682737ba1037bbb732b960b91b6044820152606490fd5b8380fd5b5050346102da57806003193601126102da5760ff610d1f611259565b610d2761140c565b16825260096020526024359082205580f35b509190346102da57602092836003193601126101f9573582526007835280822090815492600180930182519382825492610d72846112da565b80885293838116908115610df65750600114610dbf575b60ff8861032d8960608a8e610da0848d0385611362565b8151968681899816885260081c1690860152840152606083019061126e565b90809450528683205b828410610de357505050820184018185610da061032d610d89565b8054868501890152928701928101610dc8565b60ff1916888b015250505050151560051b8301850190508185610da061032d610d89565b5090346101f957806003193601126101f957610e346112ae565b91602435610e41816115d7565b33151580610ee3575b80610eba575b610ea4576001600160a01b039485169482918691167f8c5be1e5ebec7d5bd14f71427d1e84f3dd0314c0f7b2291e5b200ac8c7c3b9258880a48452602052822080546001600160a01b031916909117905580f35b835163a9fbf51f60e01b81523381850152602490fd5b506001600160a01b03811686526005602090815284872033885290528386205460ff1615610e50565b506001600160a01b038116331415610e4a565b50346101f95760203660031901126101f957918260209335610f17816115d7565b50825283528190205490516001600160a01b039091168152f35b5050346102da57816003193601126102da57805190828054610f52816112da565b808552916001918083169081156105935750600114610f7d575050506105258261032d940383611362565b80809650527f290decd9548b62a8d60345a988386fc84ba6bc95484008f6362f93160ef3e5635b828610610fc15750505061052582602061032d9582010194610513565b80546020878701810191909152909501948101610fa4565b50346101f95760203660031901126101f957359063ffffffff60e01b82168092036101f957602092506380ac58cd60e01b8214918215611035575b8215611024575b50519015158152f35b6301ffc9a760e01b1491503861101b565b635b5e139f60e01b81149250611014565b50346101f95760803660031901126101f9576024359060ff8216809203610cff576044359060ff8216809203611255576064359067ffffffffffffffff92838311611251573660238401121561125157828201359284841161124d57366024858301011161124d576110b661140c565b865195606087018781108782111761123a576110ec60ff93611121959385938c528a52602097888b0194855260243692016113d5565b98808901998a5285358b52600787528a2097511682198854161787555116859061ff0082549160081b169061ff001916179055565b60018094019451908151938411611227575061113d85546112da565b601f81116111e1575b5081601f841160011461118057509282939183928794611175575b50501b916000199060031b1c191617905580f35b015192503880611161565b919083601f1981168789528489209489905b888383106111c757505050106111ae575b505050811b01905580f35b015160001960f88460031b161c191690553880806111a3565b858701518855909601959485019487935090810190611192565b858752828720601f850160051c81019184861061121d575b601f0160051c019085905b828110611212575050611146565b888155018590611204565b90915081906111f9565b634e487b7160e01b875260419052602486fd5b634e487b7160e01b8a526041855260248afd5b8780fd5b8680fd5b8480fd5b6004359060ff8216820361126957565b600080fd5b919082519283825260005b84811061129a575050826000602080949584010152601f8019910116010190565b602081830181015184830182015201611279565b600435906001600160a01b038216820361126957565b602435906001600160a01b038216820361126957565b90600182811c9216801561130a575b60208310146112f457565b634e487b7160e01b600052602260045260246000fd5b91607f16916112e9565b60a0810190811067ffffffffffffffff82111761133057604052565b634e487b7160e01b600052604160045260246000fd5b6020810190811067ffffffffffffffff82111761133057604052565b90601f8019910116810190811067ffffffffffffffff82111761133057604052565b6060906003190112611269576001600160a01b0390600435828116810361126957916024359081168103611269579060443590565b67ffffffffffffffff811161133057601f01601f191660200190565b9291926113e1826113b9565b916113ef6040519384611362565b829481845281830111611269578281602093846000960137010152565b6006546001600160a01b0316330361142057565b60405163118cdaa760e01b8152336004820152602490fd5b6001600160a01b0391821692909183156115be57600092828452826020956002875260409684888820541696879133151580611528575b509060027fddf252ad1be2c89b69c2b068fc378daa952ba7f163c4a11628f55a4df523b3ef92846114f5575b858352600381528b8320805460010190558683525289812080546001600160a01b0319168517905580a416928383036114d45750505050565b6064945051926364283d7b60e01b8452600484015260248301526044820152fd5b600087815260046020526040902080546001600160a01b0319169055848352600381528b8320805460001901905561149b565b9193945091508061157d575b156115445785929187913861146f565b878688611561576024915190637e27328960e01b82526004820152fd5b604491519063177e802f60e01b82523360048301526024820152fd5b5033871480156115a2575b806115345750858252600481523385898420541614611534565b5086825260058152878220338352815260ff8883205416611588565b604051633250574960e11b815260006004820152602490fd5b6000818152600260205260409020546001600160a01b03169081156115fa575090565b60249060405190637e27328960e01b82526004820152fd5b90939192833b611624575b5050505050565b604051630a85bd0160e11b8082526001600160a01b03938416600483015295831660248201526044810191909152608060648201529492169260209291859061167190608483019061126e565b039483816000978189895af186918161171c575b506116e6575050503d6000146116dd573d61169f816113b9565b906116ad6040519283611362565b81528093823d92013e5b825192836116d857604051633250574960e11b815260048101849052602490fd5b019050fd5b606092506116b7565b919450915063ffffffff60e01b16036117045750388080808061161d565b60249060405190633250574960e11b82526004820152fd5b9091508481813d8311611755575b6117348183611362565b8101031261125157516001600160e01b031981168103611251579038611685565b503d61172a56fea2646970667358221220519c1574cf7019bc13b885fde615b5dba621c9079f80d023ebedda91c6ec596e64736f6c63430008140033",
  "linkReferences": {},
  "deployedLinkReferences": {}
}