{
  "_format": "hh-sol-artifact-1",
  "contractName": "DragonNFT",
  "sourceName": "contracts/DragonNFT.sol",
  "abi": [
    {
      "inputs": [],
      "stateMutability": "nonpayable",
      "type": "constructor"
    },
    {
      "inputs": [],
      "name": "ERC721EnumerableForbiddenBatchMint",
      "type": "error"
    },
    {
      "inputs": [
        {
          "internalType": "address",
          "name": "sender",
          "type": "address"
        },
        {
          "internalType": "uint256",
          "name": "tokenId",
          "type": "uint256"
        },
        {
          "internalType": "address",
          "name": "owner",
          "type": "address"
        }
      ],
      "name": "ERC721IncorrectOwner",
      "type": "error"
    },
    {
      "inputs": [
        {
          "internalType": "address",
          "name": "operator",
          "type": "address"
        },
        {
          "internalType": "uint256",
          "name": "tokenId",
          "type": "uint256"
        }
      ],
      "name": "ERC721InsufficientApproval",
      "type": "error"
    },
    {
      "inputs": [
        {
          "internalType": "address",
          "name": "approver",
          "type": "address"
        }
      ],
      "name": "ERC721InvalidApprover",
      "type": "error"
    },
    {
      "inputs": [
        {
          "internalType": "address",
          "name": "operator",
          "type": "address"
        }
      ],
      "name": "ERC721InvalidOperator",
      "type": "error"
    },
    {
      "inputs": [
        {
          "internalType": "address",
          "name": "owner",
          "type": "address"
        }
      ],
      "name": "ERC721InvalidOwner",
      "type": "error"
    },
    {
      "inputs": [
        {
          "internalType": "address",
          "name": "receiver",
          "type": "address"
        }
      ],
      "name": "ERC721InvalidReceiver",
      "type": "error"
    },
    {
      "inputs": [
        {
          "internalType": "address",
          "name": "sender",
          "type": "address"
        }
      ],
      "name": "ERC721InvalidSender",
      "type": "error"
    },
    {
      "inputs": [
        {
          "internalType": "uint256",
          "name": "tokenId",
          "type": "uint256"
        }
      ],
      "name": "ERC721NonexistentToken",
      "type": "error"
    },
    {
      "inputs": [
        {
          "internalType": "address",
          "name": "owner",
          "type": "address"
        },
        {
          "internalType": "uint256",
          "name": "index",
          "type": "uint256"
        }
      ],
      "name": "ERC721OutOfBoundsIndex",
      "type": "error"
    },
    {
      "inputs": [
        {
          "internalType": "address",
          "name": "owner",
          "type": "address"
        }
      ],
      "name": "OwnableInvalidOwner",
      "type": "error"
    },
    {
      "inputs": [
        {
          "internalType": "address",
          "name": "account",
          "type": "address"
        }
      ],
      "name": "OwnableUnauthorizedAccount",
      "type": "error"
    },
    {
      "anonymous": false,
      "inputs": [
        {
          "indexed": true,
          "internalType": "address",
          "name": "owner",
          "type": "address"
        },
        {
          "indexed": true,
          "internalType": "address",
          "name": "approved",
          "type": "address"
        },
        {
          "indexed": true,
          "internalType": "uint256",
          "name": "tokenId",
          "type": "uint256"
        }
      ],
      "name": "Approval",
      "type": "event"
    },
    {
      "anonymous": false,
      "inputs": [
        {
          "indexed": true,
          "internalType": "address",
          "name": "owner",
          "type": "address"
        },
        {
          "indexed": true,
          "internalType": "address",
          "name": "operator",
          "type": "address"
        },
        {
          "indexed": false,
          "internalType": "bool",
          "name": "approved",
          "type": "bool"
        }
      ],
      "name": "ApprovalForAll",
      "type": "event"
    },
    {
      "anonymous": false,
      "inputs": [
        {
          "indexed": true,
          "internalType": "uint256",
          "name": "newDragonId",
          "type": "uint256"
        },
        {
          "indexed": true,
          "internalType": "uint256",
          "name": "parent1",
          "type": "uint256"
        },
        {
          "indexed": true,
          "internalType": "uint256",
          "name": "parent2",
          "type": "uint256"
        }
      ],
      "name": "DragonBred",
      "type": "event"
    },
    {
      "anonymous": false,
      "inputs": [
        {
          "indexed": true,
          "internalType": "uint256",
          "name": "tokenId",
          "type": "uint256"
        },
        {
          "indexed": true,
          "internalType": "address",
          "name": "owner",
          "type": "address"
        },
        {
          "indexed": false,
          "internalType": "uint8",
          "name": "element",
          "type": "uint8"
        }
      ],
      "name": "DragonHatched",
      "type": "event"
    },
    {
      "anonymous": false,
      "inputs": [
        {
          "indexed": true,
          "internalType": "uint256",
          "name": "tokenId",
          "type": "uint256"
        },
        {
          "indexed": false,
          "internalType": "uint8",
          "name": "newLevel",
          "type": "uint8"
        }
      ],
      "name": "DragonLevelUp",
      "type": "event"
    },
    {
      "anonymous": false,
      "inputs": [
        {
          "indexed": true,
          "internalType": "address",
          "name": "previousOwner",
          "type": "address"
        },
        {
          "indexed": true,
          "internalType": "address",
          "name": "newOwner",
          "type": "address"
        }
      ],
      "name": "OwnershipTransferred",
      "type": "event"
    },
    {
      "anonymous": false,
      "inputs": [
        {
          "indexed": true,
          "internalType": "uint256",
          "name": "tokenId",
          "type": "uint256"
        },
        {
          "indexed": false,
          "internalType": "bool",
          "name": "isStandby",
          "type": "bool"
        }
      ],
      "name": "StandbyStatusChanged",
      "type": "event"
    },
    {
      "anonymous": false,
      "inputs": [
        {
          "indexed": true,
          "internalType": "address",
          "name": "from",
          "type": "address"
        },
        {
          "indexed": true,
          "internalType": "address",
          "name": "to",
          "type": "address"
        },
        {
          "indexed": true,
          "internalType": "uint256",
          "name": "tokenId",
          "type": "uint256"
        }
      ],
      "name": "Transfer",
      "type": "event"
    },
    {
      "inputs": [
        {
          "internalType": "uint256",
          "name": "tokenId",
          "type": "uint256"
        },
        {
          "internalType": "uint256",
          "name": "exp",
          "type": "uint256"
        }
      ],
      "name": "addExperience",
      "outputs": [],
      "stateMutability": "nonpayable",
      "type": "function"
    },
    {
      "inputs": [
        {
          "internalType": "address",
          "name": "to",
          "type": "address"
        },
        {
          "internalType": "uint256",
          "name": "tokenId",
          "type": "uint256"
        }
      ],
      "name": "approve",
      "outputs": [],
      "stateMutability": "nonpayable",
      "type": "function"
    },
    {
      "inputs": [
        {
          "internalType": "address",
          "name": "owner",
          "type": "address"
        }
      ],
      "name": "balanceOf",
      "outputs": [
        {
          "internalType": "uint256",
          "name": "",
          "type": "uint256"
        }
      ],
      "stateMutability": "view",
      "type": "function"
    },
    {
      "inputs": [
        {
          "internalType": "uint256",
          "name": "parent1Id",
          "type": "uint256"
        },
        {
          "internalType": "uint256",
          "name": "parent2Id",
          "type": "uint256"
        }
      ],
      "name": "breedDragons",
      "outputs": [
        {
          "internalType": "uint256",
          "name": "",
          "type": "uint256"
        }
      ],
      "stateMutability": "nonpayable",
      "type": "function"
    },
    {
      "inputs": [
        {
          "internalType": "uint256",
          "name": "",
          "type": "uint256"
        }
      ],
      "name": "dragons",
      "outputs": [
        {
          "internalType": "uint256",
          "name": "id",
          "type": "uint256"
        },
        {
          "internalType": "string",
          "name": "name",
          "type": "string"
        },
        {
          "internalType": "uint8",
          "name": "element",
          "type": "uint8"
        },
        {
          "internalType": "uint8",
          "name": "powerType",
          "type": "uint8"
        },
        {
          "internalType": "uint16",
          "name": "attack",
          "type": "uint16"
        },
        {
          "internalType": "uint16",
          "name": "defense",
          "type": "uint16"
        },
        {
          "internalType": "uint16",
          "name": "speed",
          "type": "uint16"
        },
        {
          "internalType": "uint8",
          "name": "level",
          "type": "uint8"
        },
        {
          "internalType": "uint256",
          "name": "experience",
          "type": "uint256"
        },
        {
          "internalType": "uint256",
          "name": "birthTime",
          "type": "uint256"
        },
        {
          "internalType": "uint256",
          "name": "parent1",
          "type": "uint256"
        },
        {
          "internalType": "uint256",
          "name": "parent2",
          "type": "uint256"
        },
        {
          "internalType": "uint256",
          "name": "originChainId",
          "type": "uint256"
        },
        {
          "internalType": "bool",
          "name": "isStandby",
          "type": "bool"
        }
      ],
      "stateMutability": "view",
      "type": "function"
    },
    {
      "inputs": [
        {
          "internalType": "uint256",
          "name": "tokenId",
          "type": "uint256"
        }
      ],
      "name": "getApproved",
      "outputs": [
        {
          "internalType": "address",
          "name": "",
          "type": "address"
        }
      ],
      "stateMutability": "view",
      "type": "function"
    },
    {
      "inputs": [
        {
          "internalType": "uint256",
          "name": "tokenId",
          "type": "uint256"
        }
      ],
      "name": "getDragon",
      "outputs": [
        {
          "components": [
            {
              "internalType": "uint256",
              "name": "id",
              "type": "uint256"
            },
            {
              "internalType": "string",
              "name": "name",
              "type": "string"
            },
            {
              "internalType": "uint8",
              "name": "element",
              "type": "uint8"
            },
            {
              "internalType": "uint8",
              "name": "powerType",
              "type": "uint8"
            },
            {
              "internalType": "uint16",
              "name": "attack",
              "type": "uint16"
            },
            {
              "internalType": "uint16",
              "name": "defense",
              "type": "uint16"
            },
            {
              "internalType": "uint16",
              "name": "speed",
              "type": "uint16"
            },
            {
              "internalType": "uint8",
              "name": "level",
              "type": "uint8"
            },
            {
              "internalType": "uint256",
              "name": "experience",
              "type": "uint256"
            },
            {
              "internalType": "uint256",
              "name": "birthTime",
              "type": "uint256"
            },
            {
              "internalType": "uint256",
              "name": "parent1",
              "type": "uint256"
            },
            {
              "internalType": "uint256",
              "name": "parent2",
              "type": "uint256"
            },
            {
              "internalType": "uint256",
              "name": "originChainId",
              "type": "uint256"
            },
            {
              "internalType": "bool",
              "name": "isStandby",
              "type": "bool"
            }
          ],
          "internalType": "struct DragonNFT.Dragon",
          "name": "",
          "type": "tuple"
        }
      ],
      "stateMutability": "view",
      "type": "function"
    },
    {
      "inputs": [
        {
          "internalType": "address",
          "name": "user",
          "type": "address"
        }
      ],
      "name": "getUserDragons",
      "outputs": [
        {
          "internalType": "uint256[]",
          "name": "",
          "type": "uint256[]"
        }
      ],
      "stateMutability": "view",
      "type": "function"
    },
    {
      "inputs": [
        {
          "internalType": "address",
          "name": "to",
          "type": "address"
        },
        {
          "internalType": "uint8",
          "name": "element",
          "type": "uint8"
        }
      ],
      "name": "hatchEgg",
      "outputs": [
        {
          "internalType": "uint256",
          "name": "",
          "type": "uint256"
        }
      ],
      "stateMutability": "nonpayable",
      "type": "function"
    },
    {
      "inputs": [
        {
          "internalType": "address",
          "name": "owner",
          "type": "address"
        },
        {
          "internalType": "address",
          "name": "operator",
          "type": "address"
        }
      ],
      "name": "isApprovedForAll",
      "outputs": [
        {
          "internalType": "bool",
          "name": "",
          "type": "bool"
        }
      ],
      "stateMutability": "view",
      "type": "function"
    },
    {
      "inputs": [],
      "name": "name",
      "outputs": [
        {
          "internalType": "string",
          "name": "",
          "type": "string"
        }
      ],
      "stateMutability": "view",
      "type": "function"
    },
    {
      "inputs": [],
      "name": "owner",
      "outputs": [
        {
          "internalType": "address",
          "name": "",
          "type": "address"
        }
      ],
      "stateMutability": "view",
      "type": "function"
    },
    {
      "inputs": [
        {
          "internalType": "uint256",
          "name": "tokenId",
          "type": "uint256"
        }
      ],
      "name": "ownerOf",
      "outputs": [
        {
          "internalType": "address",
          "name": "",
          "type": "address"
        }
      ],
      "stateMutability": "view",
      "type": "function"
    },
    {
      "inputs": [],
      "name": "renounceOwnership",
      "outputs": [],
      "stateMutability": "nonpayable",
      "type": "function"
    },
    {
      "inputs": [
        {
          "internalType": "address",
          "name": "from",
          "type": "address"
        },
        {
          "internalType": "address",
          "name": "to",
          "type": "address"
        },
        {
          "internalType": "uint256",
          "name": "tokenId",
          "type": "uint256"
        }
      ],
      "name": "safeTransferFrom",
      "outputs": [],
      "stateMutability": "nonpayable",
      "type": "function"
    },
    {
      "inputs": [
        {
          "internalType": "address",
          "name": "from",
          "type": "address"
        },
        {
          "internalType": "address",
          "name": "to",
          "type": "address"
        },
        {
          "internalType": "uint256",
          "name": "tokenId",
          "type": "uint256"
        },
        {
          "internalType": "bytes",
          "name": "data",
          "type": "bytes"
        }
      ],
      "name": "safeTransferFrom",
      "outputs": [],
      "stateMutability": "nonpayable",
      "type": "function"
    },
    {
      "inputs": [
        {
          "internalType": "address",
          "name": "operator",
          "type": "address"
        },
        {
          "internalType": "bool",
          "name": "approved",
          "type": "bool"
        }
      ],
      "name": "setApprovalForAll",
      "outputs": [],
      "stateMutability": "nonpayable",
      "type": "function"
    },
    {
      "inputs": [
        {
          "internalType": "uint256",
          "name": "tokenId",
          "type": "uint256"
        },
        {
          "internalType": "bool",
          "name": "status",
          "type": "bool"
        }
      ],
      "name": "setStandbyStatus",
      "outputs": [],
      "stateMutability": "nonpayable",
      "type": "function"
    },
    {
      "inputs": [
        {
          "internalType": "bytes4",
          "name": "interfaceId",
          "type": "bytes4"
        }
      ],
      "name": "supportsInterface",
      "outputs": [
        {
          "internalType": "bool",
          "name": "",
          "type": "bool"
        }
      ],
      "stateMutability": "view",
      "type": "function"
    },
    {
      "inputs": [],
      "name": "symbol",
      "outputs": [
        {
          "internalType": "string",
          "name": "",
          "type": "string"
        }
      ],
      "stateMutability": "view",
      "type": "function"
    },
    {
      "inputs": [
        {
          "internalType": "uint256",
          "name": "index",
          "type": "uint256"
        }
      ],
      "name": "tokenByIndex",
      "outputs": [
        {
          "internalType": "uint256",
          "name": "",
          "type": "uint256"
        }
      ],
      "stateMutability": "view",
      "type": "function"
    },
    {
      "inputs": [
        {
          "internalType": "address",
          "name": "owner",
          "type": "address"
        },
        {
          "internalType": "uint256",
          "name": "index",
          "type": "uint256"
        }
      ],
      "name": "tokenOfOwnerByIndex",
      "outputs": [
        {
          "internalType": "uint256",
          "name": "",
          "type": "uint256"
        }
      ],
      "stateMutability": "view",
      "type": "function"
    },
    {
      "inputs": [
        {
          "internalType": "uint256",
          "name": "tokenId",
          "type": "uint256"
        }
      ],
      "name": "tokenURI",
      "outputs": [
        {
          "internalType": "string",
          "name": "",
          "type": "string"
        }
      ],
      "stateMutability": "view",
      "type": "function"
    },
    {
      "inputs": [],
      "name": "totalSupply",
      "outputs": [
        {
          "internalType": "uint256",
          "name": "",
          "type": "uint256"
        }
      ],
      "stateMutability": "view",
      "type": "function"
    },
    {
      "inputs": [
        {
          "internalType": "address",
          "name": "from",
          "type": "address"
        },
        {
          "internalType": "address",
          "name": "to",
          "type": "address"
        },
        {
          "internalType": "uint256",
          "name": "tokenId",
          "type": "uint256"
        }
      ],
      "name": "transferFrom",
      "outputs": [],
      "stateMutability": "nonpayable",
      "type": "function"
    },
    {
      "inputs": [
        {
          "internalType": "address",
          "name": "newOwner",
          "type": "address"
        }
      ],
      "name": "transferOwnership",
      "outputs": [],
      "stateMutability": "nonpayable",
      "type": "function"
    },
    {
      "inputs": [
        {
          "internalType": "address",
          "name": "",
          "type": "address"
        },
        {
          "internalType": "uint256",
          "name": "",
          "type": "uint256"
        }
      ],
      "name": "userDragons",
      "outputs": [
        {
          "internalType": "uint256",
          "name": "",
          "type": "uint256"
        }
      ],
      "stateMutability": "view",
      "type": "function"
    }
  ],
  "bytecode": "0x60803462000381576001600160401b03906040818101838111838210176200036b5781526012825260209171223930b3b7b71021b4ba3c90223930b3b7b760711b83820152815193828501858110828211176200036b5783526006855265222920a3a7a760d11b8486015281518181116200036b576000948554916001948584811c9416801562000360575b838510146200034c578190601f94858111620002f9575b5083908583116001146200029557899262000289575b5050600019600383901b1c191690851b1786555b8651928311620002755783548481811c911680156200026a575b8282101462000256578281116200020e575b5080918311600114620001a75750849582939495926200019b575b5050600019600383901b1c191690821b1790555b33156200018357600a8054336001600160a01b03198216811790925591519290916001600160a01b0316907f8be0079c531659141344cd1fd0a4f28419497f9722a3daafe3b4186f6b6457e09080a361283d9081620003878239f35b51631e4fbdf760e01b81526004810191909152602490fd5b01519050388062000113565b90601f198316968487528287209287905b898210620001f6575050838596979810620001dc575b505050811b01905562000127565b015160001960f88460031b161c19169055388080620001ce565b808785968294968601518155019501930190620001b8565b8487528187208380860160051c8201928487106200024c575b0160051c019085905b82811062000240575050620000f8565b88815501859062000230565b9250819262000227565b634e487b7160e01b87526022600452602487fd5b90607f1690620000e6565b634e487b7160e01b86526041600452602486fd5b015190503880620000b8565b898052848a208894509190601f1984168b5b87828210620002e25750508411620002c8575b505050811b018655620000cc565b015160001960f88460031b161c19169055388080620002ba565b8385015186558b97909501949384019301620002a7565b9091508880528389208580850160051c82019286861062000342575b918991869594930160051c01915b82811062000333575050620000a2565b8b815585945089910162000323565b9250819262000315565b634e487b7160e01b88526022600452602488fd5b93607f16936200008b565b634e487b7160e01b600052604160045260246000fd5b600080fdfe608080604052600436101561001357600080fd5b60003560e01c90816301ffc9a714611bcb5750806306fdde0314611b28578063081812fc14611aea578063095ea7b314611a035780630cb2cc14146119b957806318160ddd1461199b57806323b872dd146119845780632f745c59146119005780633334ca9f1461188557806342842e0e1461185757806347b50c42146117a35780634f6ccce71461174d5780635d240c581461156e5780636352211e1461153e57806368562d2014610cea57806370a0823114610cbf578063715018a614610c625780638da5cb5b14610c3957806395d89b4114610b5a578063a22cb46514610aaf578063a515db84146105ff578063b88d4fde14610568578063c87b56dd14610511578063d2a59d691461042f578063e0bb933b14610231578063e985e9c5146101db5763f2fde38b1461014857600080fd5b346101d65760203660031901126101d657610161611c98565b610169611eda565b6001600160a01b039081169081156101bd57600a54826bffffffffffffffffffffffff60a01b821617600a55167f8be0079c531659141344cd1fd0a4f28419497f9722a3daafe3b4186f6b6457e0600080a3005b604051631e4fbdf760e01b815260006004820152602490fd5b600080fd5b346101d65760403660031901126101d6576101f4611c98565b6101fc611cae565b9060018060a01b03809116600052600560205260406000209116600052602052602060ff604060002054166040519015158152f35b346101d65760203660031901126101d65760006101a060405161025381611d83565b828152606060208201528260408201528260608201528260808201528260a08201528260c08201528260e082015282610100820152826101208201528261014082015282610160820152826101808201520152600435600052600c602052604060002060ff6008604051926102c784611d83565b805484526102d760018201611e34565b602085015282600282015481811660408701528181851c16606087015261ffff8160101c16608087015261ffff8160201c1660a087015261ffff8160301c1660c087015260401c1660e08501526003810154610100850152600481015461012085015260058101546101408501526006810154610160850152600781015461018085015201541615156101a0820152604051809160208252805160208301526101a061039460208301516101c060408601526101e0850190611c73565b9160ff604082015116606085015260ff606082015116608085015261ffff60808201511660a085015261ffff60a08201511660c085015261ffff60c08201511660e085015260ff60e08201511661010085015261010081015161012085015261012081015161014085015261014081015161016085015261016081015161018085015261018081015182850152015115156101c08301520390f35b346101d65760203660031901126101d657600435600052600c6020526040600020805461045e60018301611e34565b916002810154906003810154906004810154600582015460068301549160ff60086007860154950154169460ff6104a76040519a8b9a8b526101c08060208d01528b0190611c73565b9781811660408b0152818160081c1660608b015261ffff808260101c1660808c0152808260201c1660a08c01528160301c1660c08b015260401c1660e089015261010088015261012087015261014086015261016085015261018084015215156101a08301520390f35b346101d65760203660031901126101d65761052d6004356121be565b50600060405161053c81611da0565b5261056460405161054c81611da0565b60008152604051918291602083526020830190611c73565b0390f35b346101d65760803660031901126101d657610581611c98565b610589611cae565b906044356064359267ffffffffffffffff84116101d657366023850112156101d6578360040135926105ba84611dde565b936105c86040519586611dbc565b80855236602482880101116101d65760208160009260246105fd990183890137860101526105f7838383611f3f565b336121f9565b005b346101d65760403660031901126101d657610618611c98565b60243560ff811681036101d657600b549061063282612347565b600b5561063f82846123de565b604080514260208201908152918101849052606085811b6bffffffffffffffffffffffff19169082015260548152610678607482611dbc565b51902060ff60648260181c0616603c8110600014610a93575061ffff60005b60ff8116600203610a74578160ff60465b1693816106b488612730565b956106f36028604051809967447261676f6e202360c01b60208301526106e38151809260208686019101611c50565b810103600881018a520188611dbc565b60ff61072861070784603287061684612369565b9284603261071c82828a60081c061684612369565b9760101c061690612369565b95604051986107368a611d83565b8b8a5260208a0152818a1660408a01521660608801521660808601521660a08401521660c0820152600160e0820152600061010082015242610120820152600061014082015260006101608201524661018082015260006101a082015282600052600c60205260406000209080518255602081015180519067ffffffffffffffff8211610a5e576107ca6001850154611dfa565b601f8111610a17575b5091859391602097938890601f8311600114610979576101a07f93fc3f7231d9a21efcc80084c4d7d5b633eda63afdc34cb7991b9f7d6f39950396948461093d958d989560089560009261096e575b50508160011b916000199060031b1c19161760018501555b6108ef6002850160ff60408401511681549061ff006060860151881b169161ffff19161717815561088861ffff608085015116829063ffff000082549160101b169063ffff00001916179055565b60a0830151815465ffff00000000191660209190911b65ffff000000001617815560c0830151815467ffff000000000000191660309190911b61ffff60301b1617815560e0830151815468ff0000000000000000191660409190911b60ff60401b16179055565b610100810151600385015561012081015160048501556101408101516005850155610160810151600685015561018081015160078501550151151591019060ff801983541691151516179055565b60018060a01b03169384600052600d825261095c8460406000206123bb565b60ff60405191168152a3604051908152f35b015190508e80610822565b9060018501600052896000209160005b601f19851681106109fd57507f93fc3f7231d9a21efcc80084c4d7d5b633eda63afdc34cb7991b9f7d6f39950396946001858d98956008956101a09561093d99601f198116106109e4575b505050811b01600185015561083a565b015160001960f88460031b161c191690558e80806109d4565b8183015184558a9850600190930192918b01918b01610989565b600185016000526020600020601f840160051c810160208510610a57575b601f830160051c82018110610a4b5750506107d3565b60008155600101610a35565b5080610a35565b634e487b7160e01b600052604160045260246000fd5b60ff8116600103610a89578160ff603c6106a8565b8160ff60326106a8565b605a1115610aa55761ffff6001610697565b61ffff6002610697565b346101d65760403660031901126101d657610ac8611c98565b610ad0611d5e565b6001600160a01b03909116908115610b4157336000526005602052604060002082600052602052610b118160406000209060ff801983541691151516179055565b60405190151581527f17307eab39ab6107e8899845ad3d59bd9653f200f220920489ca2b5937696c3160203392a3005b604051630b61174360e31b815260048101839052602490fd5b346101d65760003660031901126101d65760405160006001805490610b7e82611dfa565b80855291818116908115610c125750600114610bb9575b61056484610ba581860382611dbc565b604051918291602083526020830190611c73565b600081815292507fb10e2d527612073b26eecdfd717e6a320cf44b4afac2b0732d9fcbe2b7fa0cf65b828410610bfa575050508101602001610ba582610b95565b80546020858701810191909152909301928101610be2565b60ff191660208087019190915292151560051b85019092019250610ba59150839050610b95565b346101d65760003660031901126101d657600a546040516001600160a01b039091168152602090f35b346101d65760003660031901126101d657610c7b611eda565b600a80546001600160a01b031981169091556000906001600160a01b03167f8be0079c531659141344cd1fd0a4f28419497f9722a3daafe3b4186f6b6457e08280a3005b346101d65760203660031901126101d6576020610ce2610cdd611c98565b611f06565b604051908152f35b346101d657610cf836611d6d565b90610d02816121be565b6001600160a01b03903390821603611502573390610d1f846121be565b16036114c6578181146114815780600052600c602052600460ff60026040600020015460401c16106114445781600052600c602052600460ff60026040600020015460401c161061140757600b54610d7681612347565b600b55610d8381336123de565b81600052600c60205260406000209260ff600860405195610da387611d83565b80548752610db360018201611e34565b602088015282600282015481811660408a01528181851c1660608a015261ffff8160101c1660808a015261ffff8160201c1660a08a015261ffff8160301c1660c08a015260401c1660e08801526003810154610100880152600481015461012088015260058101546101408801526006810154610160880152600781015461018088015201541615156101a085015280600052600c602052604060002060405194610e5d86611d83565b81548652610e6d60018301611e34565b602087015260ff600860028401549382851660408a01528285831c1660608a015261ffff8560101c1660808a015261ffff8560201c1660a08a015261ffff8560301c1660c08a0152828560401c1660e08a015260038101546101008a015260048101546101208a015260058101546101408a015260068101546101608a015260078101546101808a015201541615156101a087015260408101516040519260ff60f81b809260f81b16602085015260f81b1660218301524260228301526022825281606081011067ffffffffffffffff606084011117610a5e576060820160405260ff60068351602085012006169160606080820191610fac81610f96338a42889160549391835260208301526bffffffffffffffffffffffff199060601b1660408201520190565b03607f19810184840152605f1901838301611dbc565b015190209560ff6060830151166002811480156113f6575b1561137e575060ff60648860181c061660288110600014611368575060025b60ff811660020361134d57601e975b610ffb87612730565b98604051809a6020820167447261676f6e202360c01b90528051908160288401916020019161102992611c50565b810103600881018b5260280161103f908b611dbc565b608085015161ffff16608085015161ffff1661105a91612369565b60011c617fff1660ff82169060148406611073916126eb565b9061107d916126eb565b61ffff169360a086015161ffff1660a082015161ffff1661109d91612369565b60011c617fff1660ff8316908460081c601490066110ba916126eb565b906110c4916126eb565b61ffff169560c0015161ffff169060c0015161ffff166110e391612369565b60011c617fff169060ff169160101c601490066110ff916126eb565b90611109916126eb565b61ffff16936040519861111b8a611d83565b878a5260208a0152604089015260ff166060880152608087015260a086015260c085015260e0840160019052610100840160009052426101208501528261014085015280610160850152466101808501526101a084016000905281600052600c602052604060002084518155602085015194855167ffffffffffffffff8111610a5e576111ab6001840154611dfa565b96601f8811611306575b602097508790601f831160011461128f5792826008936101a09361124097966000926112845750508160011b916000199060031b1c19161760018501556108ef6002850160ff60408401511681549061ff006060860151881b169161ffff19161717815561088861ffff608085015116829063ffff000082549160101b169063ffff00001916179055565b33600052600d84526112568260406000206123bb565b60405192827f5dd19136080ec996c060b4627c7dff4df9969e4bee9b2db3f121f0a769c9e65e600080a48152f35b015190508b80610822565b9060018501600052886000209160005b601f19851681106112ef5750836101a093611240979693600193600897601f198116106112d657505050811b01600185015561083a565b015160001960f88460031b161c191690558b80806109d4565b91928a60018192868501518155019401920161129f565b600184016000526020600020601f830160051c810160208410611346575b601f8a0160051c8201811061133a5750506111b5565b60008155600101611324565b5080611324565b60ff811660010361136157600f5b97610ff2565b600061135b565b60501115611377576001610fe3565b6000610fe3565b60011480156113e5575b156113b95760ff60648860181c0616601481106000146113aa57506002610fe3565b60461115611377576001610fe3565b60ff60648860181c0616600581106000146113d657506002610fe3565b60231115611377576001610fe3565b50600160ff60608301511614611388565b50600260ff60608401511614610fc4565b60405162461bcd60e51b8152602060048201526015602482015274506172656e7432206c6576656c20746f6f206c6f7760581b6044820152606490fd5b60405162461bcd60e51b8152602060048201526015602482015274506172656e7431206c6576656c20746f6f206c6f7760581b6044820152606490fd5b60405162461bcd60e51b815260206004820152601860248201527f43616e6e6f742062726565642073616d6520647261676f6e00000000000000006044820152606490fd5b60405162461bcd60e51b81526020600482015260146024820152732737ba1037bbb732b91037b3103830b932b73a1960611b6044820152606490fd5b60405162461bcd60e51b81526020600482015260146024820152734e6f74206f776e6572206f6620706172656e743160601b6044820152606490fd5b346101d65760203660031901126101d657602061155c6004356121be565b6040516001600160a01b039091168152f35b346101d65761157c36611d6d565b611598611588836121be565b6001600160a01b031633146126f8565b81600052600c906020908282526115b860036040600020019182546126eb565b90558260005281815260ff6002606482826040600020015460401c16028281169081036117255785600052848452604060002090600382015410158061173b575b6115ff57005b810182815460401c1690838214611725576001611630920160ff60401b82549160401b169060ff60401b1916179055565b84600052838352806040600020019361166e61ffff9561165587825460101c16612356565b63ffff000082549160101b169063ffff00001916179055565b856000528084526116aa8260406000200161168d878254881c16612356565b65ffff0000000082549160201b169065ffff000000001916179055565b8560005280845281604060002001600386825460301c1601958611611725577f50afff476f1cefe2a31d47ee36b044c2a448378edb35b37817b95cfd7ad3a85b9561170b919061ffff60301b82549160301b169061ffff60301b1916179055565b8560005283526040600020015460401c16604051908152a2005b634e487b7160e01b600052601160045260246000fd5b506032838383015460401c16106115f9565b346101d65760203660031901126101d65760043560085481101561178457611776602091611cc4565b90546040519160031b1c8152f35b6044906040519063295f44f760e21b8252600060048301526024820152fd5b346101d6576020806003193601126101d6576001600160a01b036117c5611c98565b16600052600d8152604060002060405190818382549182815201908192600052846000209060005b8682821061184357868661180382880383611dbc565b604051928392818401908285525180915260408401929160005b82811061182c57505050500390f35b83518552869550938101939281019260010161181d565b8354855290930192600192830192016117ed565b346101d6576105fd61186836611d29565b906040519261187684611da0565b600084526105f7838383611f3f565b346101d65760403660031901126101d6576004357ff8bd5c94edec7c60f40c9b53a0632b885eaa0db04abbaf42e4e3751c5e429ff660206118c4611d5e565b6118d0611588856121be565b83600052600c82526118f58160086040600020019060ff801983541691151516179055565b6040519015158152a2005b346101d65760403660031901126101d657611919611c98565b6024359061192681611f06565b8210156119595760018060a01b031660005260066020526040600020906000526020526020604060002054604051908152f35b60405163295f44f760e21b81526001600160a01b039190911660048201526024810191909152604490fd5b346101d6576105fd61199536611d29565b91611f3f565b346101d65760003660031901126101d6576020600854604051908152f35b346101d65760403660031901126101d6576119d2611c98565b6001600160a01b03166000908152600d60205260409020805460243591908210156101d65760209161177691611d11565b346101d65760403660031901126101d657611a1c611c98565b602435611a28816121be565b33151580611ad7575b80611aaa575b611a92576001600160a01b039283169282918491167f8c5be1e5ebec7d5bd14f71427d1e84f3dd0314c0f7b2291e5b200ac8c7c3b925600080a4600090815260046020526040902080546001600160a01b0319169091179055005b60405163a9fbf51f60e01b8152336004820152602490fd5b5060018060a01b038116600052600560205260406000203360005260205260ff6040600020541615611a37565b506001600160a01b038116331415611a31565b346101d65760203660031901126101d657600435611b07816121be565b506000526004602052602060018060a01b0360406000205416604051908152f35b346101d65760003660031901126101d65760405160008054611b4981611dfa565b80845290600190818116908115610c125750600114611b725761056484610ba581860382611dbc565b600080805292507f290decd9548b62a8d60345a988386fc84ba6bc95484008f6362f93160ef3e5635b828410611bb3575050508101602001610ba582610b95565b80546020858701810191909152909301928101611b9b565b346101d65760203660031901126101d6576004359063ffffffff60e01b82168092036101d65760209163780e9d6360e01b8114908115611c0d575b5015158152f35b6380ac58cd60e01b811491508115611c3f575b8115611c2e575b5083611c06565b6301ffc9a760e01b14905083611c27565b635b5e139f60e01b81149150611c20565b60005b838110611c635750506000910152565b8181015183820152602001611c53565b90602091611c8c81518092818552858086019101611c50565b601f01601f1916010190565b600435906001600160a01b03821682036101d657565b602435906001600160a01b03821682036101d657565b600854811015611cfb5760086000527ff3f7a9fe364faab93b216da50a3214154f22a0a2b415b23a84c8169e8b636ee30190600090565b634e487b7160e01b600052603260045260246000fd5b8054821015611cfb5760005260206000200190600090565b60609060031901126101d6576001600160a01b039060043582811681036101d6579160243590811681036101d6579060443590565b6024359081151582036101d657565b60409060031901126101d6576004359060243590565b6101c0810190811067ffffffffffffffff821117610a5e57604052565b6020810190811067ffffffffffffffff821117610a5e57604052565b90601f8019910116810190811067ffffffffffffffff821117610a5e57604052565b67ffffffffffffffff8111610a5e57601f01601f191660200190565b90600182811c92168015611e2a575b6020831014611e1457565b634e487b7160e01b600052602260045260246000fd5b91607f1691611e09565b9060405191826000825492611e4884611dfa565b908184526001948581169081600014611eb75750600114611e74575b5050611e7292500383611dbc565b565b9093915060005260209081600020936000915b818310611e9f575050611e7293508201013880611e64565b85548884018501529485019487945091830191611e87565b915050611e7294506020925060ff191682840152151560051b8201013880611e64565b600a546001600160a01b03163303611eee57565b60405163118cdaa760e01b8152336004820152602490fd5b6001600160a01b03168015611f2657600052600360205260406000205490565b6040516322718ad960e21b815260006004820152602490fd5b6001600160a01b03828116939184156121a557600094838652602095600287526040968488832054169633151580612117575b50871580156120e4575b84845260038352898420805460010190558784526002835289842080546001600160a01b0319168617905587858a7fddf252ad1be2c89b69c2b068fc378daa952ba7f163c4a11628f55a4df523b3ef8780a415612078576008548784526009835289842055611fea8761237f565b838803612026575b5050505016928383036120055750505050565b6064945051926364283d7b60e01b8452600484015260248301526044820152fd5b61202f90611f06565b6000198101939084116120645782916007918a9452600681528383208584528152878484205587835252205538808080611ff2565b634e487b7160e01b83526011600452602483fd5b878414611fea5761208888611f06565b878452600783528984205490898552600684528a8520918181036120c2575b5088855260078452848b812055845282528289812055611fea565b8186528285528b862054818752808d8820558652600785528b862055386120a7565b600088815260046020526040902080546001600160a01b0319169055888452600383528984208054600019019055611f7c565b80612164575b156121285738611f72565b888789612145576024915190637e27328960e01b82526004820152fd5b905163177e802f60e01b81523360048201526024810191909152604490fd5b503388148015612189575b8061211d57508683526004825233868a852054161461211d565b5087835260058252888320338452825260ff898420541661216f565b604051633250574960e11b815260006004820152602490fd5b6000818152600260205260409020546001600160a01b03169081156121e1575090565b60249060405190637e27328960e01b82526004820152fd5b90939192833b61220b575b5050505050565b604051630a85bd0160e11b8082526001600160a01b039384166004830152958316602482015260448101919091526080606482015294921692602092918590612258906084830190611c73565b039483816000978189895af1869181612303575b506122cd575050503d6000146122c4573d61228681611dde565b906122946040519283611dbc565b81528093823d92013e5b825192836122bf57604051633250574960e11b815260048101849052602490fd5b019050fd5b6060925061229e565b919450915063ffffffff60e01b16036122eb57503880808080612204565b60249060405190633250574960e11b82526004820152fd5b9091508481813d8311612340575b61231b8183611dbc565b8101031261233c57516001600160e01b03198116810361233c57903861226c565b8680fd5b503d612311565b60001981146117255760010190565b90600561ffff8093160191821161172557565b91909161ffff8080941691160191821161172557565b60085490600160401b821015610a5e576123a2826001611e729401600855611cc4565b90919082549060031b91821b91600019901b1916179055565b90815491600160401b831015610a5e57826123a2916001611e7295018155611d11565b604080516123eb81611da0565b6000808252936001600160a01b038481169490929085156126d357828752868660209560028752878320541680158683837fddf252ad1be2c89b69c2b068fc378daa952ba7f163c4a11628f55a4df523b3ef841597886126a0575b83815260038d528d81208054600101905584815260028d528d812080546001600160a01b0319168517905580a41561263357600854868b5260098852888b205561248f8661237f565b036125e6575b6125ce573b6124a7575b505050505050565b826124e5918596979894955180938192630a85bd0160e11b968784523360048501528c60248501526044840152608060648401526084830190611c73565b03818a8a5af187918161258a575b50612553575050503d60001461254a573d61250d81611dde565b9061251a84519283611dbc565b81528094823d92013e5b83519384612544578251633250574960e11b815260048101859052602490fd5b84925001fd5b60609350612524565b919550915063ffffffff60e01b160361257357505038808080808061249f565b602492505190633250574960e11b82526004820152fd5b9091508481813d83116125c7575b6125a28183611dbc565b810103126125c357516001600160e01b0319811681036125c35790386124f3565b8780fd5b503d612598565b84516339e3563760e11b815260048101889052602490fd5b6125ef82611f06565b600019810190811161261f5787895260068652868920818a52865284878a20558489526007865286892055612495565b634e487b7160e01b89526011600452602489fd5b80821461248f5761264381611f06565b868b5260078852888b205490828c5260068952898c209181810361267d575b50878c52600789528b8a8120558b528752898881205561248f565b818d52828a528a8d2054818e528b8e208190558d5260078a528a8d205538612662565b600085815260046020526040902080546001600160a01b031916905582815260038d528d81208054600019019055612446565b8451633250574960e11b815260048101889052602490fd5b9190820180921161172557565b156126ff57565b60405162461bcd60e51b81526020600482015260096024820152682737ba1037bbb732b960b91b6044820152606490fd5b80156127d85780816000925b6127c2575061274a82611dde565b916127586040519384611dbc565b80835281601f1961276883611dde565b013660208601375b61277957505090565b90600019820190828211611725578192600a9260309084840682018092116117255786511115611cfb5760f81b6001600160f81b03191660001a908501601f0153049081612770565b90916127cf600a91612347565b9291048061273c565b506040516040810181811067ffffffffffffffff821117610a5e5760405260018152600360fc1b60208201529056fea264697066735822122040700c3b0f7681883b14cfb1214b50da21169bd6bddea8c2ed083b30fefe9c4164736f6c63430008140033",
  "linkReferences": {},
  "deployedLinkReferences": {}
}