{
  "_format": "hh-sol-artifact-1",
  "contractName": "DragonNFTWithRarity",
  "sourceName": "contracts/DragonNFTWithRarity.sol",
  "abi": [
    {
      "inputs": [
        {
          "internalType": "address",
          "name": "_eggNFT",
          "type": "address"
        }
      ],
      "stateMutability": "nonpayable",
      "type": "constructor"
    },
    {
      "inputs": [
        {
          "internalType": "address",
          "name": "sender",
          "type": "address"
        },
        {
          "internalType": "uint256",
          "name": "tokenId",
          "type": "uint256"
        },
        {
          "internalType": "address",
          "name": "owner",
          "type": "address"
        }
      ],
      "name": "ERC721IncorrectOwner",
      "type": "error"
    },
    {
      "inputs": [
        {
          "internalType": "address",
          "name": "operator",
          "type": "address"
        },
        {
          "internalType": "uint256",
          "name": "tokenId",
          "type": "uint256"
        }
      ],
      "name": "ERC721InsufficientApproval",
      "type": "error"
    },
    {
      "inputs": [
        {
          "internalType": "address",
          "name": "approver",
          "type": "address"
        }
      ],
      "name": "ERC721InvalidApprover",
      "type": "error"
    },
    {
      "inputs": [
        {
          "internalType": "address",
          "name": "operator",
          "type": "address"
        }
      ],
      "name": "ERC721InvalidOperator",
      "type": "error"
    },
    {
      "inputs": [
        {
          "internalType": "address",
          "name": "owner",
          "type": "address"
        }
      ],
      "name": "ERC721InvalidOwner",
      "type": "error"
    },
    {
      "inputs": [
        {
          "internalType": "address",
          "name": "receiver",
          "type": "address"
        }
      ],
      "name": "ERC721InvalidReceiver",
      "type": "error"
    },
    {
      "inputs": [
        {
          "internalType": "address",
          "name": "sender",
          "type": "address"
        }
      ],
      "name": "ERC721InvalidSender",
      "type": "error"
    },
    {
      "inputs": [
        {
          "internalType": "uint256",
          "name": "tokenId",
          "type": "uint256"
        }
      ],
      "name": "ERC721NonexistentToken",
      "type": "error"
    },
    {
      "inputs": [
        {
          "internalType": "address",
          "name": "owner",
          "type": "address"
        }
      ],
      "name": "OwnableInvalidOwner",
      "type": "error"
    },
    {
      "inputs": [
        {
          "internalType": "address",
          "name": "account",
          "type": "address"
        }
      ],
      "name": "OwnableUnauthorizedAccount",
      "type": "error"
    },
    {
      "anonymous": false,
      "inputs": [
        {
          "indexed": true,
          "internalType": "address",
          "name": "owner",
          "type": "address"
        },
        {
          "indexed": true,
          "internalType": "address",
          "name": "approved",
          "type": "address"
        },
        {
          "indexed": true,
          "internalType": "uint256",
          "name": "tokenId",
          "type": "uint256"
        }
      ],
      "name": "Approval",
      "type": "event"
    },
    {
      "anonymous": false,
      "inputs": [
        {
          "indexed": true,
          "internalType": "address",
          "name": "owner",
          "type": "address"
        },
        {
          "indexed": true,
          "internalType": "address",
          "name": "operator",
          "type": "address"
        },
        {
          "indexed": false,
          "internalType": "bool",
          "name": "approved",
          "type": "bool"
        }
      ],
      "name": "ApprovalForAll",
      "type": "event"
    },
    {
      "anonymous": false,
      "inputs": [
        {
          "indexed": true,
          "internalType": "uint256",
          "name": "winnerId",
          "type": "uint256"
        },
        {
          "indexed": true,
          "internalType": "uint256",
          "name": "loserId",
          "type": "uint256"
        }
      ],
      "name": "BattleResult",
      "type": "event"
    },
    {
      "anonymous": false,
      "inputs": [
        {
          "indexed": true,
          "internalType": "uint256",
          "name": "dragonId",
          "type": "uint256"
        },
        {
          "indexed": true,
          "internalType": "address",
          "name": "owner",
          "type": "address"
        },
        {
          "indexed": false,
          "internalType": "enum DragonNFTWithRarity.Element",
          "name": "element",
          "type": "uint8"
        },
        {
          "indexed": false,
          "internalType": "enum DragonNFTWithRarity.Rarity",
          "name": "rarity",
          "type": "uint8"
        }
      ],
      "name": "DragonHatched",
      "type": "event"
    },
    {
      "anonymous": false,
      "inputs": [
        {
          "indexed": true,
          "internalType": "uint256",
          "name": "dragonId",
          "type": "uint256"
        },
        {
          "indexed": false,
          "internalType": "uint256",
          "name": "newLevel",
          "type": "uint256"
        }
      ],
      "name": "DragonLevelUp",
      "type": "event"
    },
    {
      "anonymous": false,
      "inputs": [
        {
          "indexed": true,
          "internalType": "address",
          "name": "previousOwner",
          "type": "address"
        },
        {
          "indexed": true,
          "internalType": "address",
          "name": "newOwner",
          "type": "address"
        }
      ],
      "name": "OwnershipTransferred",
      "type": "event"
    },
    {
      "anonymous": false,
      "inputs": [
        {
          "indexed": true,
          "internalType": "address",
          "name": "from",
          "type": "address"
        },
        {
          "indexed": true,
          "internalType": "address",
          "name": "to",
          "type": "address"
        },
        {
          "indexed": true,
          "internalType": "uint256",
          "name": "tokenId",
          "type": "uint256"
        }
      ],
      "name": "Transfer",
      "type": "event"
    },
    {
      "inputs": [
        {
          "internalType": "address",
          "name": "to",
          "type": "address"
        },
        {
          "internalType": "uint256",
          "name": "tokenId",
          "type": "uint256"
        }
      ],
      "name": "approve",
      "outputs": [],
      "stateMutability": "nonpayable",
      "type": "function"
    },
    {
      "inputs": [
        {
          "internalType": "address",
          "name": "owner",
          "type": "address"
        }
      ],
      "name": "balanceOf",
      "outputs": [
        {
          "internalType": "uint256",
          "name": "",
          "type": "uint256"
        }
      ],
      "stateMutability": "view",
      "type": "function"
    },
    {
      "inputs": [
        {
          "internalType": "uint256",
          "name": "parent1Id",
          "type": "uint256"
        },
        {
          "internalType": "uint256",
          "name": "parent2Id",
          "type": "uint256"
        }
      ],
      "name": "breedDragons",
      "outputs": [
        {
          "internalType": "uint256",
          "name": "",
          "type": "uint256"
        }
      ],
      "stateMutability": "nonpayable",
      "type": "function"
    },
    {
      "inputs": [
        {
          "internalType": "uint256",
          "name": "",
          "type": "uint256"
        }
      ],
      "name": "dragons",
      "outputs": [
        {
          "internalType": "uint256",
          "name": "id",
          "type": "uint256"
        },
        {
          "internalType": "enum DragonNFTWithRarity.Element",
          "name": "element",
          "type": "uint8"
        },
        {
          "internalType": "enum DragonNFTWithRarity.PowerType",
          "name": "powerType",
          "type": "uint8"
        },
        {
          "internalType": "enum DragonNFTWithRarity.Rarity",
          "name": "rarity",
          "type": "uint8"
        },
        {
          "internalType": "uint256",
          "name": "attack",
          "type": "uint256"
        },
        {
          "internalType": "uint256",
          "name": "defense",
          "type": "uint256"
        },
        {
          "internalType": "uint256",
          "name": "speed",
          "type": "uint256"
        },
        {
          "internalType": "uint256",
          "name": "level",
          "type": "uint256"
        },
        {
          "internalType": "uint256",
          "name": "experience",
          "type": "uint256"
        },
        {
          "internalType": "uint256",
          "name": "wins",
          "type": "uint256"
        },
        {
          "internalType": "uint256",
          "name": "losses",
          "type": "uint256"
        },
        {
          "internalType": "uint256",
          "name": "birthTime",
          "type": "uint256"
        },
        {
          "internalType": "uint256",
          "name": "parentEggId",
          "type": "uint256"
        }
      ],
      "stateMutability": "view",
      "type": "function"
    },
    {
      "inputs": [],
      "name": "eggNFT",
      "outputs": [
        {
          "internalType": "contract IEggNFT",
          "name": "",
          "type": "address"
        }
      ],
      "stateMutability": "view",
      "type": "function"
    },
    {
      "inputs": [
        {
          "internalType": "uint256",
          "name": "tokenId",
          "type": "uint256"
        }
      ],
      "name": "getApproved",
      "outputs": [
        {
          "internalType": "address",
          "name": "",
          "type": "address"
        }
      ],
      "stateMutability": "view",
      "type": "function"
    },
    {
      "inputs": [
        {
          "internalType": "uint256",
          "name": "dragonId",
          "type": "uint256"
        }
      ],
      "name": "getBattlePower",
      "outputs": [
        {
          "internalType": "uint256",
          "name": "",
          "type": "uint256"
        }
      ],
      "stateMutability": "view",
      "type": "function"
    },
    {
      "inputs": [
        {
          "internalType": "uint256",
          "name": "dragonId",
          "type": "uint256"
        }
      ],
      "name": "getDragon",
      "outputs": [
        {
          "components": [
            {
              "internalType": "uint256",
              "name": "id",
              "type": "uint256"
            },
            {
              "internalType": "enum DragonNFTWithRarity.Element",
              "name": "element",
              "type": "uint8"
            },
            {
              "internalType": "enum DragonNFTWithRarity.PowerType",
              "name": "powerType",
              "type": "uint8"
            },
            {
              "internalType": "enum DragonNFTWithRarity.Rarity",
              "name": "rarity",
              "type": "uint8"
            },
            {
              "internalType": "uint256",
              "name": "attack",
              "type": "uint256"
            },
            {
              "internalType": "uint256",
              "name": "defense",
              "type": "uint256"
            },
            {
              "internalType": "uint256",
              "name": "speed",
              "type": "uint256"
            },
            {
              "internalType": "uint256",
              "name": "level",
              "type": "uint256"
            },
            {
              "internalType": "uint256",
              "name": "experience",
              "type": "uint256"
            },
            {
              "internalType": "uint256",
              "name": "wins",
              "type": "uint256"
            },
            {
              "internalType": "uint256",
              "name": "losses",
              "type": "uint256"
            },
            {
              "internalType": "uint256",
              "name": "birthTime",
              "type": "uint256"
            },
            {
              "internalType": "uint256",
              "name": "parentEggId",
              "type": "uint256"
            }
          ],
          "internalType": "struct DragonNFTWithRarity.Dragon",
          "name": "",
          "type": "tuple"
        }
      ],
      "stateMutability": "view",
      "type": "function"
    },
    {
      "inputs": [
        {
          "internalType": "address",
          "name": "user",
          "type": "address"
        }
      ],
      "name": "getUserDragons",
      "outputs": [
        {
          "internalType": "uint256[]",
          "name": "",
          "type": "uint256[]"
        }
      ],
      "stateMutability": "view",
      "type": "function"
    },
    {
      "inputs": [
        {
          "internalType": "uint256",
          "name": "eggId",
          "type": "uint256"
        }
      ],
      "name": "hatchEgg",
      "outputs": [
        {
          "internalType": "uint256",
          "name": "",
          "type": "uint256"
        }
      ],
      "stateMutability": "nonpayable",
      "type": "function"
    },
    {
      "inputs": [
        {
          "internalType": "address",
          "name": "owner",
          "type": "address"
        },
        {
          "internalType": "address",
          "name": "operator",
          "type": "address"
        }
      ],
      "name": "isApprovedForAll",
      "outputs": [
        {
          "internalType": "bool",
          "name": "",
          "type": "bool"
        }
      ],
      "stateMutability": "view",
      "type": "function"
    },
    {
      "inputs": [],
      "name": "leaderboardContract",
      "outputs": [
        {
          "internalType": "address",
          "name": "",
          "type": "address"
        }
      ],
      "stateMutability": "view",
      "type": "function"
    },
    {
      "inputs": [],
      "name": "name",
      "outputs": [
        {
          "internalType": "string",
          "name": "",
          "type": "string"
        }
      ],
      "stateMutability": "view",
      "type": "function"
    },
    {
      "inputs": [],
      "name": "owner",
      "outputs": [
        {
          "internalType": "address",
          "name": "",
          "type": "address"
        }
      ],
      "stateMutability": "view",
      "type": "function"
    },
    {
      "inputs": [
        {
          "internalType": "uint256",
          "name": "tokenId",
          "type": "uint256"
        }
      ],
      "name": "ownerOf",
      "outputs": [
        {
          "internalType": "address",
          "name": "",
          "type": "address"
        }
      ],
      "stateMutability": "view",
      "type": "function"
    },
    {
      "inputs": [
        {
          "internalType": "enum DragonNFTWithRarity.Rarity",
          "name": "",
          "type": "uint8"
        }
      ],
      "name": "rarityMultipliers",
      "outputs": [
        {
          "internalType": "uint256",
          "name": "",
          "type": "uint256"
        }
      ],
      "stateMutability": "view",
      "type": "function"
    },
    {
      "inputs": [
        {
          "internalType": "uint256",
          "name": "winnerId",
          "type": "uint256"
        },
        {
          "internalType": "uint256",
          "name": "loserId",
          "type": "uint256"
        },
        {
          "internalType": "uint256",
          "name": "expGained",
          "type": "uint256"
        }
      ],
      "name": "recordBattleResult",
      "outputs": [],
      "stateMutability": "nonpayable",
      "type": "function"
    },
    {
      "inputs": [],
      "name": "renounceOwnership",
      "outputs": [],
      "stateMutability": "nonpayable",
      "type": "function"
    },
    {
      "inputs": [
        {
          "internalType": "address",
          "name": "from",
          "type": "address"
        },
        {
          "internalType": "address",
          "name": "to",
          "type": "address"
        },
        {
          "internalType": "uint256",
          "name": "tokenId",
          "type": "uint256"
        }
      ],
      "name": "safeTransferFrom",
      "outputs": [],
      "stateMutability": "nonpayable",
      "type": "function"
    },
    {
      "inputs": [
        {
          "internalType": "address",
          "name": "from",
          "type": "address"
        },
        {
          "internalType": "address",
          "name": "to",
          "type": "address"
        },
        {
          "internalType": "uint256",
          "name": "tokenId",
          "type": "uint256"
        },
        {
          "internalType": "bytes",
          "name": "data",
          "type": "bytes"
        }
      ],
      "name": "safeTransferFrom",
      "outputs": [],
      "stateMutability": "nonpayable",
      "type": "function"
    },
    {
      "inputs": [
        {
          "internalType": "address",
          "name": "operator",
          "type": "address"
        },
        {
          "internalType": "bool",
          "name": "approved",
          "type": "bool"
        }
      ],
      "name": "setApprovalForAll",
      "outputs": [],
      "stateMutability": "nonpayable",
      "type": "function"
    },
    {
      "inputs": [
        {
          "internalType": "string",
          "name": "baseURI",
          "type": "string"
        }
      ],
      "name": "setBaseURI",
      "outputs": [],
      "stateMutability": "nonpayable",
      "type": "function"
    },
    {
      "inputs": [
        {
          "internalType": "address",
          "name": "_eggNFT",
          "type": "address"
        }
      ],
      "name": "setEggNFT",
      "outputs": [],
      "stateMutability": "nonpayable",
      "type": "function"
    },
    {
      "inputs": [
        {
          "internalType": "address",
          "name": "_leaderboard",
          "type": "address"
        }
      ],
      "name": "setLeaderboard",
      "outputs": [],
      "stateMutability": "nonpayable",
      "type": "function"
    },
    {
      "inputs": [
        {
          "internalType": "bytes4",
          "name": "interfaceId",
          "type": "bytes4"
        }
      ],
      "name": "supportsInterface",
      "outputs": [
        {
          "internalType": "bool",
          "name": "",
          "type": "bool"
        }
      ],
      "stateMutability": "view",
      "type": "function"
    },
    {
      "inputs": [],
      "name": "symbol",
      "outputs": [
        {
          "internalType": "string",
          "name": "",
          "type": "string"
        }
      ],
      "stateMutability": "view",
      "type": "function"
    },
    {
      "inputs": [
        {
          "internalType": "uint256",
          "name": "tokenId",
          "type": "uint256"
        }
      ],
      "name": "tokenURI",
      "outputs": [
        {
          "internalType": "string",
          "name": "",
          "type": "string"
        }
      ],
      "stateMutability": "view",
      "type": "function"
    },
    {
      "inputs": [
        {
          "internalType": "address",
          "name": "from",
          "type": "address"
        },
        {
          "internalType": "address",
          "name": "to",
          "type": "address"
        },
        {
          "internalType": "uint256",
          "name": "tokenId",
          "type": "uint256"
        }
      ],
      "name": "transferFrom",
      "outputs": [],
      "stateMutability": "nonpayable",
      "type": "function"
    },
    {
      "inputs": [
        {
          "internalType": "address",
          "name": "newOwner",
          "type": "address"
        }
      ],
      "name": "transferOwnership",
      "outputs": [],
      "stateMutability": "nonpayable",
      "type": "function"
    },
    {
      "inputs": [
        {
          "internalType": "address",
          "name": "",
          "type": "address"
        },
        {
          "internalType": "uint256",
          "name": "",
          "type": "uint256"
        }
      ],
      "name": "userDragons",
      "outputs": [
        {
          "internalType": "uint256",
          "name": "",
          "type": "uint256"
        }
      ],
      "stateMutability": "view",
      "type": "function"
    }
  ],
  "bytecode": "0x608034620003f257620033e390813803601f1991601f91838382011682019460018060401b039183871083881117620003dc5780849260409889528339602093849181010312620003f257516001600160a01b03808216929091839003620003f2576200006b620003f7565b946012865271223930b3b7b71021b4ba3c90223930b3b7b760711b8587015262000094620003f7565b6006815265222920a3a7a760d11b86820152865197838911620003dc576000988954986001998a81811c91168015620003d1575b8a821014620003bd579081868493116200036a575b50899086831160011462000309578c92620002fd575b5050600019600383901b1c191690891b1789555b8151938411620002e95787548881811c91168015620002de575b88821014620002ca57908184869594931162000273575b5087928411600114620002125750889262000206575b5050600019600383901b1c191690851b1784555b3315620001ee57614e209492869492600b9260065460018060a01b03199133838316176006553391167f8be0079c531659141344cd1fd0a4f28419497f9722a3daafe3b4186f6b6457e08880a3846007556009541617600955838052526127108383205581526130d48282205560028152613a988282205560038152205551612fcb9081620004188239f35b8551631e4fbdf760e01b815260048101869052602490fd5b0151905038806200014e565b888a52878a20899590939291168a5b898282106200025c575050841162000242575b505050811b01845562000162565b015160001960f88460031b161c1916905538808062000234565b8385015186558b9790950194938401930162000221565b9091929350888a52878a208480870160051c8201928a8810620002c0575b9187968c92969594930160051c01915b828110620002b157505062000138565b8c81558796508b9101620002a1565b9250819262000291565b634e487b7160e01b8a52602260045260248afd5b90607f169062000121565b634e487b7160e01b89526041600452602489fd5b015190503880620000f3565b908c91858d95168380528c8420935b8d82821062000353575050841162000339575b505050811b01895562000107565b015160001960f88460031b161c191690553880806200032b565b8385015186558f9790950194938401930162000318565b9091508b8052898c208680850160051c8201928c8610620003b3575b918d91869594930160051c01915b828110620003a4575050620000dd565b8e81558594508d910162000394565b9250819262000386565b634e487b7160e01b8c52602260045260248cfd5b90607f1690620000c8565b634e487b7160e01b600052604160045260246000fd5b600080fd5b60408051919082016001600160401b03811183821017620003dc5760405256fe608080604052600436101561001357600080fd5b60003560e01c90816301ffc9a714611b9c5750806306fdde0314611af9578063081812fc14611abb578063095ea7b3146119d45780630cb2cc141461197c578063168218f6146117895780631f8d442a146117605780632385554c146112c057806323b872dd146112a957806342842e0e1461127b5780634315e3871461123857806347b50c421461118457806355f804b314610fe35780636352211e14610fb357806368562d201461098657806370a082311461092d578063715018a6146108d05780638da5cb5b146108a757806395d89b41146107dc578063975332591461079e578063a22cb465146106f9578063b88d4fde1461068b578063c87b56dd14610654578063d2a59d6914610584578063e0bb933b146103b7578063e4a2fe1d146102be578063e985e9c514610268578063f1a2de7214610225578063f2fde38b146101975763ff0224d31461016957600080fd5b3461019257600036600319011261019257600a546040516001600160a01b039091168152602090f35b600080fd5b34610192576020366003190112610192576101b0611c4f565b6101b8611e04565b6001600160a01b0390811690811561020c57600654826bffffffffffffffffffffffff60a01b821617600655167f8be0079c531659141344cd1fd0a4f28419497f9722a3daafe3b4186f6b6457e0600080a3005b604051631e4fbdf760e01b815260006004820152602490fd5b346101925760203660031901126101925761023e611c4f565b610246611e04565b600a80546001600160a01b0319166001600160a01b0392909216919091179055005b3461019257604036600319011261019257610281611c4f565b610289611c65565b9060018060a01b03809116600052600560205260406000209116600052602052602060ff604060002054166040519015158152f35b3461019257602036600319011261019257600435600052600c60205260206103af60406000206103a76040516102f381611cde565b8254815260ff600184015461030c8282168885016121ca565b61031e828260081c16604085016121d6565b60101c1661032b81611de0565b606082015261039f60028401548060808401526003850154908160a085015260048601549360c08101948552610180600a60058901549860e08401998a526006810154610100850152600781015461012085015260088101546101408501526009810154610160850152015491015261244a565b90519061244a565b9051906121b7565b604051908152f35b346101925760203660031901126101925760006101806040516103d981611cde565b8281528260208201528260408201528260608201528260808201528260a08201528260c08201528260e0820152826101008201528261012082015282610140820152826101608201520152600435600052600c6020526101a06040600020600a6040519161044683611cde565b8054835260ff6001820154610460828216602087016121ca565b610472828260081c16604087016121d6565b60101c1661047f81611de0565b606084015260028101546080840152600381015460a0840152600481015460c0840152600581015460e08401526006810154610100840152600781015461012084015260088101546101408401526009810154610160840152015461018082015261018060405191805183526104fd60208201516020850190611dea565b61050f60408201516040850190611df7565b606081015161051d81611de0565b60608401526080810151608084015260a081015160a084015260c081015160c084015260e081015160e08401526101008101516101008401526101208101516101208401526101408101516101408401526101608101516101608401520151610180820152f35b3461019257602036600319011261019257600435600052600c6020526101a0604060002080549060018101549060ff8260101c16600282015460038301546004840154600585015490600686015492600787015494600888015496610612600a60098b01549a01549a60ff604080519e8f90815261060760208201848616611dea565b019160081c16611df7565b61061b81611de0565b60608b015260808a015260a089015260c088015260e0870152610100860152610120850152610140840152610160830152610180820152f35b34610192576020366003190112610192576106876106736004356124a6565b604051918291602083526020830190611c2a565b0390f35b34610192576080366003190112610192576106a4611c4f565b6106ac611c65565b906044356064359267ffffffffffffffff84116101925736602385011215610192576106e56106f7943690602481600401359101611da9565b926106f1838383611e6a565b33612044565b005b3461019257604036600319011261019257610712611c4f565b60243590811515809203610192576001600160a01b031690811561078557336000526005602052604060002082600052602052604060002060ff1981541660ff83161790556040519081527f17307eab39ab6107e8899845ad3d59bd9653f200f220920489ca2b5937696c3160203392a3005b604051630b61174360e31b815260048101839052602490fd5b34610192576020366003190112610192576004356004811015610192576107c481611de0565b600052600b6020526020604060002054604051908152f35b34610192576000366003190112610192576040516000600180549061080082611e30565b808552918181169081156108805750600114610827575b6106878461067381860382611d6b565b600081815292507fb10e2d527612073b26eecdfd717e6a320cf44b4afac2b0732d9fcbe2b7fa0cf65b82841061086857505050810160200161067382610817565b80546020858701810191909152909301928101610850565b60ff191660208087019190915292151560051b850190920192506106739150839050610817565b34610192576000366003190112610192576006546040516001600160a01b039091168152602090f35b34610192576000366003190112610192576108e9611e04565b600680546001600160a01b031981169091556000906001600160a01b03167f8be0079c531659141344cd1fd0a4f28419497f9722a3daafe3b4186f6b6457e08280a3005b34610192576020366003190112610192576001600160a01b0361094e611c4f565b16801561096d5760005260036020526020604060002054604051908152f35b6040516322718ad960e21b815260006004820152602490fd5b34610192576040366003190112610192576109a2600435612009565b6001600160a01b03903390821603610f775733906109c1602435612009565b1603610f3b57600435600052600c602052600460056040600020015410610efe57602435600052600c602052600460056040600020015410610ec157600435600052600c6020526040600020600a60405191610a1c83611cde565b8054835260ff6001820154610a36828216602087016121ca565b610a48828260081c16604087016121d6565b60101c16610a5581611de0565b606084015260028101546080840152600381015460a0840152600481015460c0840152600581015460e084015260068101546101008401526007810154610120840152600881015461014084015260098101546101608401520154610180820152602435600052600c602052604060002090600a60405192610ad684611cde565b8054845260ff6001820154610af0828216602088016121ca565b610b02828260081c16604088016121d6565b60101c16610b0f81611de0565b606085015260028101546080850152600381015460a0850152600481015460c0850152600581015460e0850152600681015461010085015260078101546101208501526008810154610140850152600981015461016085015201546101808301526060810151610b7e81611de0565b606083015190610b8d82611de0565b610b9682611de0565b610b9f81611de0565b1115610eae576060810151610bb381611de0565b60016040516020810190428252600435604082015260408152610bd581611d4f565b51902016610e9a5760208201516006811015610e6b57905b60016040516020810190428252602435604082015260408152610c0f81611d4f565b51902016610e81576040830151926003841015610e6b57610ca393945b612710610cb9610cab82610cb2610c78610c4f608089015160808901519061244a565b60011c9660c080610c6960a08c015160a08501519061244a565b60011c9a01519101519061244a565b60011c95610c8589611de0565b88600052600b60205282604060002054948580936007549e8f612192565b6007556121b7565b04976121b7565b04936121b7565b0491610ce460405197610ccb89611cde565b878952610cdb8760208b016121ca565b604089016121d6565b610ced84611de0565b836060880152608087015260a086015260c0850152600160e085015260006101008501526000610120850152600061014085015242610160850152600061018085015282600052600c6020526040600020845181556020850151946006861015610e6b5760018201546040820151916003831015610e6b57602097600a9361ff006101809460ff62ff00006060870151610d8681611de0565b610d8f81611de0565b60101b1694169062ffffff1916179160081b16171760018501556080810151600285015560a0810151600385015560c0810151600485015560e081015160058501556101008101516006850155610120810151600785015561014081015160088501556101608101516009850155015191015533600052600d8452610e188360406000206121e2565b610e22833361221c565b610e2f6040518093611dea565b610e3881611de0565b83820152817fde84af6d30866324ee8781dd4ac14e6124c517b058043a88c80227b93d22800a60403393a3604051908152f35b634e487b7160e01b600052602160045260246000fd5b6040840151926003841015610e6b57610ca39394610c2c565b60208301516006811015610e6b5790610bed565b6060820151610ebc81611de0565b610bb3565b60405162461bcd60e51b8152602060048201526015602482015274506172656e7432206c6576656c20746f6f206c6f7760581b6044820152606490fd5b60405162461bcd60e51b8152602060048201526015602482015274506172656e7431206c6576656c20746f6f206c6f7760581b6044820152606490fd5b60405162461bcd60e51b81526020600482015260146024820152732737ba1037bbb732b91037b3103830b932b73a1960611b6044820152606490fd5b60405162461bcd60e51b81526020600482015260146024820152734e6f74206f776e6572206f6620706172656e743160601b6044820152606490fd5b34610192576020366003190112610192576020610fd1600435612009565b6040516001600160a01b039091168152f35b34610192576020806003193601126101925767ffffffffffffffff600435818111610192573660238201121561019257611027903690602481600401359101611da9565b91611030611e04565b825191821161116e57611044600854611e30565b601f811161110a575b5080601f83116001146110895750819260009261107e575b5050600019600383901b1c191660019190911b17600855005b015190508280611065565b90601f1983169360086000527ff3f7a9fe364faab93b216da50a3214154f22a0a2b415b23a84c8169e8b636ee3926000905b8682106110f257505083600195106110d9575b505050811b01600855005b015160001960f88460031b161c191690558280806110ce565b806001859682949686015181550195019301906110bb565b60086000527ff3f7a9fe364faab93b216da50a3214154f22a0a2b415b23a84c8169e8b636ee3601f840160051c810191838510611164575b601f0160051c01905b818110611158575061104d565b6000815560010161114b565b9091508190611142565b634e487b7160e01b600052604160045260246000fd5b3461019257602080600319360112610192576001600160a01b036111a6611c4f565b16600052600d8152604060002060405190818382549182815201908192600052846000209060005b868282106112245786866111e482880383611d6b565b604051928392818401908285525180915260408401929160005b82811061120d57505050500390f35b8351855286955093810193928101926001016111fe565b8354855290930192600192830192016111ce565b3461019257602036600319011261019257611251611c4f565b611259611e04565b600980546001600160a01b0319166001600160a01b0392909216919091179055005b34610192576106f761128c36611ca9565b906040519261129a84611d33565b600084526106f1838383611e6a565b34610192576106f76112ba36611ca9565b91611e6a565b34610192576020366003190112610192576009546040516331a9108f60e11b815260048035908201526001600160a01b0391821691602082602481865afa9182156116e257600092611723575b50339116036116ee57608060249160405192838092635db2a77d60e11b825260043560048301525afa80156116e257600091600091611696575b5061165b576040519060066020830142815260043560408501523360601b9384606082015266195b195b595b9d60ca1b6074820152605b815261138981611cfb565b51902006916006831015610e6b57600390604051602081019142835260043560408301526060820152643837bbb2b960d91b6074820152605981526113cd81611cfb565b51902006916003831015610e6b576113e482611de0565b6113f060ff8316611de0565b61141a6040516113ff81611d17565b600681526561747461636b60d01b6020820152600435612457565b9161144660405161142a81611d17565b6007815266646566656e736560c81b6020820152600435612457565b61146f60405161145581611d17565b60058152641cdc19595960da1b6020820152600435612457565b61147b60ff8416611de0565b60ff8316600052600b602052610cab6114b560406000205480610cb2816007549a6114a58c612192565b60075561271096879485926121b7565b04916114c760405197610ccb89611cde565b6114d360ff8516611de0565b60ff84166060880152608087015260a086015260c0850152600160e08501526000610100850152600061012085015260006101408501524261016085015260043561018085015282600052600c602052604060002090845182556020850151916006831015610e6b5760018101546040870151906003821015610e6b578760ff95600a9361ff00610180948962ff0000606060209f015161157381611de0565b61157c81611de0565b60101b1694169062ffffff1916179160081b16171760018501556080810151600285015560a0810151600385015560c0810151600485015560e081015160058501556101008101516006850155610120810151600785015561014081015160088501556101608101516009850155015191015533600052600d85526116058460406000206121e2565b61160f843361221c565b61161c6040518094611dea565b611627828216611de0565b1683820152817fde84af6d30866324ee8781dd4ac14e6124c517b058043a88c80227b93d22800a60403393a3604051908152f35b60405162461bcd60e51b81526020600482015260136024820152721159d9c8185b1c9958591e481a185d18da1959606a1b6044820152606490fd5b9150506080813d82116116da575b816116b160809383611d6b565b810103126101925780519060048210156101925760400151908115158203610192579082611347565b3d91506116a4565b6040513d6000823e3d90fd5b60405162461bcd60e51b815260206004820152600d60248201526c2737ba1032b3b39037bbb732b960991b6044820152606490fd5b9091506020813d602011611758575b8161173f60209383611d6b565b810103126101925751818116810361019257908361130d565b3d9150611732565b34610192576000366003190112610192576009546040516001600160a01b039091168152602090f35b34610192576060366003190112610192576004356024803560018060a01b0380600a5416331490811561196e575b50156119395782600052602092600c845260076040600020016117da8154612192565b905580600052600c845260066040600020016117f9604435825461244a565b905581600052600c845260086040600020016118158154612192565b905580600052600c845260406000209360059283860193845496606497888102908082048a14901517156119245792600682019060028301916004600385019401955b8154106118fb576118698954612192565b808a5583548681018091116118e657845584548681018091116118e65785558654600381018091116118e6578755887fb873985bf70acbc386cfb464c89165d78a194f67b3bf545670776e363545f66089604051848152a28b8102908082048d14901517611858578a634e487b7160e01b60005260116004526000fd5b8b634e487b7160e01b60005260116004526000fd5b50867f37fdf7cda6ec1c848e98866fe5e1f781b2b5976a1d79c7770394e65503ce92af600080a3005b87634e487b7160e01b60005260116004526000fd5b60405162461bcd60e51b815260206004820152600e818401526d139bdd08185d5d1a1bdc9a5e995960921b6044820152606490fd5b9050600654163314846117b7565b3461019257604036600319011261019257611995611c4f565b6001600160a01b03166000908152600d6020526040902080546024359190821015610192576020916119c691611c7b565b90546040519160031b1c8152f35b34610192576040366003190112610192576119ed611c4f565b6024356119f981612009565b33151580611aa8575b80611a7b575b611a63576001600160a01b039283169282918491167f8c5be1e5ebec7d5bd14f71427d1e84f3dd0314c0f7b2291e5b200ac8c7c3b925600080a4600090815260046020526040902080546001600160a01b0319169091179055005b60405163a9fbf51f60e01b8152336004820152602490fd5b5060018060a01b038116600052600560205260406000203360005260205260ff6040600020541615611a08565b506001600160a01b038116331415611a02565b3461019257602036600319011261019257600435611ad881612009565b506000526004602052602060018060a01b0360406000205416604051908152f35b346101925760003660031901126101925760405160008054611b1a81611e30565b808452906001908181169081156108805750600114611b43576106878461067381860382611d6b565b600080805292507f290decd9548b62a8d60345a988386fc84ba6bc95484008f6362f93160ef3e5635b828410611b8457505050810160200161067382610817565b80546020858701810191909152909301928101611b6c565b34610192576020366003190112610192576004359063ffffffff60e01b8216809203610192576020916380ac58cd60e01b8114908115611bf6575b8115611be5575b5015158152f35b6301ffc9a760e01b14905083611bde565b635b5e139f60e01b81149150611bd7565b60005b838110611c1a5750506000910152565b8181015183820152602001611c0a565b90602091611c4381518092818552858086019101611c07565b601f01601f1916010190565b600435906001600160a01b038216820361019257565b602435906001600160a01b038216820361019257565b8054821015611c935760005260206000200190600090565b634e487b7160e01b600052603260045260246000fd5b6060906003190112610192576001600160a01b0390600435828116810361019257916024359081168103610192579060443590565b6101a0810190811067ffffffffffffffff82111761116e57604052565b6080810190811067ffffffffffffffff82111761116e57604052565b6040810190811067ffffffffffffffff82111761116e57604052565b6020810190811067ffffffffffffffff82111761116e57604052565b6060810190811067ffffffffffffffff82111761116e57604052565b90601f8019910116810190811067ffffffffffffffff82111761116e57604052565b67ffffffffffffffff811161116e57601f01601f191660200190565b929192611db582611d8d565b91611dc36040519384611d6b565b829481845281830111610192578281602093846000960137010152565b60041115610e6b57565b906006821015610e6b5752565b906003821015610e6b5752565b6006546001600160a01b03163303611e1857565b60405163118cdaa760e01b8152336004820152602490fd5b90600182811c92168015611e60575b6020831014611e4a57565b634e487b7160e01b600052602260045260246000fd5b91607f1691611e3f565b6001600160a01b039182169290918315611ff057600092828452826020956002875260409684888820541696879133151580611f5a575b509060027fddf252ad1be2c89b69c2b068fc378daa952ba7f163c4a11628f55a4df523b3ef9284611f27575b858352600381528b8320805460010190558683525289812080546001600160a01b0319168517905580a41692838303611f065750505050565b6064945051926364283d7b60e01b8452600484015260248301526044820152fd5b600087815260046020526040902080546001600160a01b0319169055848352600381528b83208054600019019055611ecd565b91939450915080611faf575b15611f7657859291879138611ea1565b878688611f93576024915190637e27328960e01b82526004820152fd5b604491519063177e802f60e01b82523360048301526024820152fd5b503387148015611fd4575b80611f665750858252600481523385898420541614611f66565b5086825260058152878220338352815260ff8883205416611fba565b604051633250574960e11b815260006004820152602490fd5b6000818152600260205260409020546001600160a01b031690811561202c575090565b60249060405190637e27328960e01b82526004820152fd5b90939192833b612056575b5050505050565b604051630a85bd0160e11b8082526001600160a01b0393841660048301529583166024820152604481019190915260806064820152949216926020929185906120a3906084830190611c2a565b039483816000978189895af186918161214e575b50612118575050503d60001461210f573d6120d181611d8d565b906120df6040519283611d6b565b81528093823d92013e5b8251928361210a57604051633250574960e11b815260048101849052602490fd5b019050fd5b606092506120e9565b919450915063ffffffff60e01b16036121365750388080808061204f565b60249060405190633250574960e11b82526004820152fd5b9091508481813d831161218b575b6121668183611d6b565b8101031261218757516001600160e01b0319811681036121875790386120b7565b8680fd5b503d61215c565b60001981146121a15760010190565b634e487b7160e01b600052601160045260246000fd5b818102929181159184041417156121a157565b6006821015610e6b5752565b6003821015610e6b5752565b80546801000000000000000081101561116e5761220491600182018155611c7b565b819291549060031b91821b91600019901b1916179055565b6040805161222981611d33565b6000808252936001600160a01b0384811694909290851561243257828752602093600285528588205416838782151592836123ff575b818b5260038852888b2080546001019055828b5260028852888b2080546001600160a01b031916831790557fddf252ad1be2c89b69c2b068fc378daa952ba7f163c4a11628f55a4df523b3ef8b80a46123e7573b6122c0575b505050505050565b826122fe918596979894955180938192630a85bd0160e11b968784523360048501528c60248501526044840152608060648401526084830190611c2a565b03818a8a5af18791816123a3575b5061236c575050503d600014612363573d61232681611d8d565b9061233384519283611d6b565b81528094823d92013e5b8351938461235d578251633250574960e11b815260048101859052602490fd5b84925001fd5b6060935061233d565b919550915063ffffffff60e01b160361238c5750503880808080806122b8565b602492505190633250574960e11b82526004820152fd5b9091508481813d83116123e0575b6123bb8183611d6b565b810103126123dc57516001600160e01b0319811681036123dc57903861230c565b8780fd5b503d6123b1565b84516339e3563760e11b815260048101889052602490fd5b600083815260046020526040902080546001600160a01b0319169055808b5260038852888b20805460001901905561225f565b8451633250574960e11b815260048101889052602490fd5b919082018092116121a157565b60339161249460606040518093602082019542875260408301526124848151809260208686019101611c07565b8101036040810184520182611d6b565b51902006603201806032116121a15790565b6001600160a01b036124b782612009565b1615612bc057600854906124ca82611e30565b156125b0576124d890612bfb565b60405180926000906124e981611e30565b90600190818116908115612589575060011461252a575b50508061251884602093612527965194859201611c07565b0103601f198101835282611d6b565b90565b600860009081529192507ff3f7a9fe364faab93b216da50a3214154f22a0a2b415b23a84c8169e8b636ee35b83831061256e57505050810160200182612518612500565b80546020848901810191909152879550909201918101612556565b60ff1916602086810191909152831515909302850190920192508491506125189050612500565b90506000818152600c6020526040812090604051906125ce82611cde565b8254825260018301549060208301936125ea60ff8416866121ca565b60ff6040850193612600828260081c16866121d6565b60101c1693606081019461261381611de0565b85526002820154906080810191825260038301549160a0820192835260048401549460c0830195865260058501549860e08401998a5260068601546101008501526007860154936101208101948552610180600a6008890154986101408401998a5260098101546101608501520154910152516006811015612bac5761269b6126ab91612d63565b98516126a681611de0565b612e57565b9651906003821015612b9857506126c190612f15565b986126cb90612bfb565b97516126d690612bfb565b90516126e190612bfb565b92516126ec90612bfb565b94516126f790612bfb565b915161270290612bfb565b935161270d90612bfb565b94604051998a9960208b017f646174613a6170706c69636174696f6e2f6a736f6e3b757466382c7b226e616d90526332911d1160e11b60408c0152885160448c018160208c019161275d92611c07565b808c01604401600160fd1b9052808b8d815193849101604501916020019161278492611c07565b8c0101604581016820447261676f6e202360b81b905281519182604e830191602001916127b092611c07565b01604e81017f222c226465736372697074696f6e223a224120706f77657266756c20647261679052606e81017f6f6e2066726f6d20447261676f6e20436974792e20456c656d656e743a2000009052895190608c81018260208d019161281592611c07565b01608c810169016102930b934ba3c9d160b51b9052885190609681018260208c019161284092611c07565b6f222c2261747472696275746573223a5b60801b609692909101918201527f7b2274726169745f74797065223a22456c656d656e74222c2276616c7565223a60a6820152601160f91b60c68201528951906128a28260c7830160208e01611c07565b0162089f4b60ea1b908160c782015260ca81017f7b2274726169745f74797065223a22526172697479222c2276616c7565223a22905289519060ea81018260208d01916128ee92611c07565b018160ea82015260ed81017f7b2274726169745f74797065223a22506f7765722054797065222c2276616c7590526332911d1160e11b61010d8201528251906101119382858301916020019161294392611c07565b019182015261011481017f7b2274726169745f74797065223a224c6576656c222c2276616c7565223a000090528251906101329382858301916020019161298992611c07565b0191611f4b60f21b948584818096948195015261013481017f7b2274726169745f74797065223a2241747461636b222c2276616c7565223a009052825190610153938285830191602001916129dd92611c07565b019182015261015581017f7b2274726169745f74797065223a22446566656e7365222c2276616c7565223a905282519061017593828583019160200191612a2392611c07565b019182015261017781017f7b2274726169745f74797065223a225370656564222c2276616c7565223a0000905282519061019593828583019160200191612a6992611c07565b019182015261019781017f7b2274726169745f74797065223a2257696e73222c2276616c7565223a00000090528251906101b493828583019160200191612aaf92611c07565b01918201526101b681017f7b2274726169745f74797065223a224c6f73736573222c2276616c7565223a0090528151906101d592828483019160200191612af592611c07565b01908101607d60f81b90526101d681017f5d2c22696d616765223a22697066733a2f2f516d596f7572496d61676548617390526101f6810161682f60f01b90528151906101f892828483019160200191612b4e92611c07565b01908101605f60f81b90528151906101f992828483019160200191612b7292611c07565b0190652e706e67227d60d01b90820152036101df810182526101ff016125279082611d6b565b634e487b7160e01b81526021600452602490fd5b634e487b7160e01b82526021600452602482fd5b60405162461bcd60e51b8152602060048201526013602482015272151bdad95b88191bd95cdb89dd08195e1a5cdd606a1b6044820152606490fd5b806000917a184f03e93ff9f4daa797ed6e38ed64bf6a1f01000000000000000080821015612d55575b506d04ee2d6d415b85acef810000000080831015612d46575b50662386f26fc1000080831015612d37575b506305f5e10080831015612d28575b5061271080831015612d19575b506064821015612d09575b600a80921015612cff575b60019081602181860195612c9487611d8d565b96612ca26040519889611d6b565b808852612cb1601f1991611d8d565b01366020890137860101905b612cc9575b5050505090565b600019019083906f181899199a1a9b1b9c1cb0b131b232b360811b8282061a835304918215612cfa57919082612cbd565b612cc2565b9160010191612c81565b9190606460029104910191612c76565b60049193920491019138612c6b565b60089193920491019138612c5e565b60109193920491019138612c4f565b60209193920491019138612c3d565b604093508104915038612c24565b6006811015610e6b578015612e365760018114612e145760028114612df25760038114612dd257600414612db257604051612d9d81611d17565b6005815264131a59da1d60da1b602082015290565b604051612dbe81611d17565b60048152634461726b60e01b602082015290565b50604051612ddf81611d17565b600381526220b4b960e91b602082015290565b50604051612dff81611d17565b600581526408ac2e4e8d60db1b602082015290565b50604051612e2181611d17565b60058152642bb0ba32b960d91b602082015290565b50604051612e4381611d17565b60048152634669726560e01b602082015290565b612e6081611de0565b60038114612eef57612e7181611de0565b60028114612ecc5780612e85600192611de0565b14612eac57604051612e9681611d17565b600681526521b7b6b6b7b760d11b602082015290565b604051612eb881611d17565b60048152635261726560e01b602082015290565b50604051612ed981611d17565b6006815265556e6971756560d01b602082015290565b50604051612efc81611d17565b60098152684c6567656e6461727960b81b602082015290565b6003811015610e6b578015612f7057600114612f4d57604051612f3781611d17565b6006815265121e589c9a5960d21b602082015290565b604051612f5981611d17565b6007815266135859da58d85b60ca1b602082015290565b50604051612f7d81611d17565b6008815267141a1e5cda58d85b60c21b60208201529056fea2646970667358221220eabe7869dc10a8ed89f9b138c3b5f7a70c1b570481e7f3ab5f13766a8cb07b9b64736f6c63430008140033",
  "linkReferences": {},
  "deployedLinkReferences": {}
}