{
  "_format": "hh-sol-artifact-1",
  "contractName": "EggNFTBatch",
  "sourceName": "contracts/EggNFTBatch.sol",
  "abi": [
    {
      "inputs": [],
      "stateMutability": "nonpayable",
      "type": "constructor"
    },
    {
      "inputs": [
        {
          "internalType": "address",
          "name": "sender",
          "type": "address"
        },
        {
          "internalType": "uint256",
          "name": "tokenId",
          "type": "uint256"
        },
        {
          "internalType": "address",
          "name": "owner",
          "type": "address"
        }
      ],
      "name": "ERC721IncorrectOwner",
      "type": "error"
    },
    {
      "inputs": [
        {
          "internalType": "address",
          "name": "operator",
          "type": "address"
        },
        {
          "internalType": "uint256",
          "name": "tokenId",
          "type": "uint256"
        }
      ],
      "name": "ERC721InsufficientApproval",
      "type": "error"
    },
    {
      "inputs": [
        {
          "internalType": "address",
          "name": "approver",
          "type": "address"
        }
      ],
      "name": "ERC721InvalidApprover",
      "type": "error"
    },
    {
      "inputs": [
        {
          "internalType": "address",
          "name": "operator",
          "type": "address"
        }
      ],
      "name": "ERC721InvalidOperator",
      "type": "error"
    },
    {
      "inputs": [
        {
          "internalType": "address",
          "name": "owner",
          "type": "address"
        }
      ],
      "name": "ERC721InvalidOwner",
      "type": "error"
    },
    {
      "inputs": [
        {
          "internalType": "address",
          "name": "receiver",
          "type": "address"
        }
      ],
      "name": "ERC721InvalidReceiver",
      "type": "error"
    },
    {
      "inputs": [
        {
          "internalType": "address",
          "name": "sender",
          "type": "address"
        }
      ],
      "name": "ERC721InvalidSender",
      "type": "error"
    },
    {
      "inputs": [
        {
          "internalType": "uint256",
          "name": "tokenId",
          "type": "uint256"
        }
      ],
      "name": "ERC721NonexistentToken",
      "type": "error"
    },
    {
      "inputs": [
        {
          "internalType": "address",
          "name": "owner",
          "type": "address"
        }
      ],
      "name": "OwnableInvalidOwner",
      "type": "error"
    },
    {
      "inputs": [
        {
          "internalType": "address",
          "name": "account",
          "type": "address"
        }
      ],
      "name": "OwnableUnauthorizedAccount",
      "type": "error"
    },
    {
      "anonymous": false,
      "inputs": [
        {
          "indexed": true,
          "internalType": "address",
          "name": "owner",
          "type": "address"
        },
        {
          "indexed": true,
          "internalType": "address",
          "name": "approved",
          "type": "address"
        },
        {
          "indexed": true,
          "internalType": "uint256",
          "name": "tokenId",
          "type": "uint256"
        }
      ],
      "name": "Approval",
      "type": "event"
    },
    {
      "anonymous": false,
      "inputs": [
        {
          "indexed": true,
          "internalType": "address",
          "name": "owner",
          "type": "address"
        },
        {
          "indexed": true,
          "internalType": "address",
          "name": "operator",
          "type": "address"
        },
        {
          "indexed": false,
          "internalType": "bool",
          "name": "approved",
          "type": "bool"
        }
      ],
      "name": "ApprovalForAll",
      "type": "event"
    },
    {
      "anonymous": false,
      "inputs": [
        {
          "indexed": true,
          "internalType": "uint256",
          "name": "tokenId",
          "type": "uint256"
        },
        {
          "indexed": true,
          "internalType": "address",
          "name": "owner",
          "type": "address"
        }
      ],
      "name": "EggHatched",
      "type": "event"
    },
    {
      "anonymous": false,
      "inputs": [
        {
          "indexed": true,
          "internalType": "address",
          "name": "buyer",
          "type": "address"
        },
        {
          "indexed": true,
          "internalType": "uint256",
          "name": "tokenId",
          "type": "uint256"
        },
        {
          "indexed": false,
          "internalType": "enum EggNFTBatch.Rarity",
          "name": "rarity",
          "type": "uint8"
        },
        {
          "indexed": false,
          "internalType": "bool",
          "name": "isInstallment",
          "type": "bool"
        }
      ],
      "name": "EggMinted",
      "type": "event"
    },
    {
      "anonymous": false,
      "inputs": [],
      "name": "FirstSaleEnded",
      "type": "event"
    },
    {
      "anonymous": false,
      "inputs": [
        {
          "indexed": true,
          "internalType": "address",
          "name": "buyer",
          "type": "address"
        },
        {
          "indexed": true,
          "internalType": "uint256",
          "name": "eggId",
          "type": "uint256"
        }
      ],
      "name": "InstallmentCompleted",
      "type": "event"
    },
    {
      "anonymous": false,
      "inputs": [
        {
          "indexed": true,
          "internalType": "address",
          "name": "buyer",
          "type": "address"
        },
        {
          "indexed": true,
          "internalType": "uint256",
          "name": "eggId",
          "type": "uint256"
        },
        {
          "indexed": false,
          "internalType": "uint256",
          "name": "payment",
          "type": "uint256"
        },
        {
          "indexed": false,
          "internalType": "uint256",
          "name": "installmentNumber",
          "type": "uint256"
        }
      ],
      "name": "InstallmentPayment",
      "type": "event"
    },
    {
      "anonymous": false,
      "inputs": [
        {
          "indexed": true,
          "internalType": "address",
          "name": "previousOwner",
          "type": "address"
        },
        {
          "indexed": true,
          "internalType": "address",
          "name": "newOwner",
          "type": "address"
        }
      ],
      "name": "OwnershipTransferred",
      "type": "event"
    },
    {
      "anonymous": false,
      "inputs": [
        {
          "indexed": true,
          "internalType": "address",
          "name": "from",
          "type": "address"
        },
        {
          "indexed": true,
          "internalType": "address",
          "name": "to",
          "type": "address"
        },
        {
          "indexed": true,
          "internalType": "uint256",
          "name": "tokenId",
          "type": "uint256"
        }
      ],
      "name": "Transfer",
      "type": "event"
    },
    {
      "inputs": [],
      "name": "COMMON_COUNT",
      "outputs": [
        {
          "internalType": "uint256",
          "name": "",
          "type": "uint256"
        }
      ],
      "stateMutability": "view",
      "type": "function"
    },
    {
      "inputs": [],
      "name": "COMMON_PRICE",
      "outputs": [
        {
          "internalType": "uint256",
          "name": "",
          "type": "uint256"
        }
      ],
      "stateMutability": "view",
      "type": "function"
    },
    {
      "inputs": [],
      "name": "INSTALLMENT_COUNT",
      "outputs": [
        {
          "internalType": "uint256",
          "name": "",
          "type": "uint256"
        }
      ],
      "stateMutability": "view",
      "type": "function"
    },
    {
      "inputs": [],
      "name": "LEGENDARY_COUNT",
      "outputs": [
        {
          "internalType": "uint256",
          "name": "",
          "type": "uint256"
        }
      ],
      "stateMutability": "view",
      "type": "function"
    },
    {
      "inputs": [],
      "name": "LEGENDARY_PRICE",
      "outputs": [
        {
          "internalType": "uint256",
          "name": "",
          "type": "uint256"
        }
      ],
      "stateMutability": "view",
      "type": "function"
    },
    {
      "inputs": [],
      "name": "MAX_SUPPLY",
      "outputs": [
        {
          "internalType": "uint256",
          "name": "",
          "type": "uint256"
        }
      ],
      "stateMutability": "view",
      "type": "function"
    },
    {
      "inputs": [],
      "name": "PAYMENT_INTERVAL",
      "outputs": [
        {
          "internalType": "uint256",
          "name": "",
          "type": "uint256"
        }
      ],
      "stateMutability": "view",
      "type": "function"
    },
    {
      "inputs": [],
      "name": "RARE_COUNT",
      "outputs": [
        {
          "internalType": "uint256",
          "name": "",
          "type": "uint256"
        }
      ],
      "stateMutability": "view",
      "type": "function"
    },
    {
      "inputs": [],
      "name": "RARE_PRICE",
      "outputs": [
        {
          "internalType": "uint256",
          "name": "",
          "type": "uint256"
        }
      ],
      "stateMutability": "view",
      "type": "function"
    },
    {
      "inputs": [],
      "name": "UNIQUE_COUNT",
      "outputs": [
        {
          "internalType": "uint256",
          "name": "",
          "type": "uint256"
        }
      ],
      "stateMutability": "view",
      "type": "function"
    },
    {
      "inputs": [],
      "name": "UNIQUE_PRICE",
      "outputs": [
        {
          "internalType": "uint256",
          "name": "",
          "type": "uint256"
        }
      ],
      "stateMutability": "view",
      "type": "function"
    },
    {
      "inputs": [
        {
          "internalType": "address",
          "name": "to",
          "type": "address"
        },
        {
          "internalType": "uint256",
          "name": "tokenId",
          "type": "uint256"
        }
      ],
      "name": "approve",
      "outputs": [],
      "stateMutability": "nonpayable",
      "type": "function"
    },
    {
      "inputs": [
        {
          "internalType": "address",
          "name": "owner",
          "type": "address"
        }
      ],
      "name": "balanceOf",
      "outputs": [
        {
          "internalType": "uint256",
          "name": "",
          "type": "uint256"
        }
      ],
      "stateMutability": "view",
      "type": "function"
    },
    {
      "inputs": [
        {
          "internalType": "address[]",
          "name": "recipients",
          "type": "address[]"
        },
        {
          "internalType": "enum EggNFTBatch.Rarity[]",
          "name": "rarities",
          "type": "uint8[]"
        }
      ],
      "name": "batchMint",
      "outputs": [],
      "stateMutability": "nonpayable",
      "type": "function"
    },
    {
      "inputs": [],
      "name": "commonMinted",
      "outputs": [
        {
          "internalType": "uint256",
          "name": "",
          "type": "uint256"
        }
      ],
      "stateMutability": "view",
      "type": "function"
    },
    {
      "inputs": [],
      "name": "dragonNFTContract",
      "outputs": [
        {
          "internalType": "address",
          "name": "",
          "type": "address"
        }
      ],
      "stateMutability": "view",
      "type": "function"
    },
    {
      "inputs": [
        {
          "internalType": "uint256",
          "name": "",
          "type": "uint256"
        }
      ],
      "name": "eggs",
      "outputs": [
        {
          "internalType": "enum EggNFTBatch.Rarity",
          "name": "rarity",
          "type": "uint8"
        },
        {
          "internalType": "uint256",
          "name": "batchId",
          "type": "uint256"
        },
        {
          "internalType": "bool",
          "name": "isHatched",
          "type": "bool"
        },
        {
          "internalType": "uint256",
          "name": "mintedAt",
          "type": "uint256"
        }
      ],
      "stateMutability": "view",
      "type": "function"
    },
    {
      "inputs": [],
      "name": "endFirstSale",
      "outputs": [],
      "stateMutability": "nonpayable",
      "type": "function"
    },
    {
      "inputs": [],
      "name": "firstSaleEndTime",
      "outputs": [
        {
          "internalType": "uint256",
          "name": "",
          "type": "uint256"
        }
      ],
      "stateMutability": "view",
      "type": "function"
    },
    {
      "inputs": [
        {
          "internalType": "uint256",
          "name": "tokenId",
          "type": "uint256"
        }
      ],
      "name": "getApproved",
      "outputs": [
        {
          "internalType": "address",
          "name": "",
          "type": "address"
        }
      ],
      "stateMutability": "view",
      "type": "function"
    },
    {
      "inputs": [
        {
          "internalType": "uint256",
          "name": "tokenId",
          "type": "uint256"
        }
      ],
      "name": "getEgg",
      "outputs": [
        {
          "components": [
            {
              "internalType": "enum EggNFTBatch.Rarity",
              "name": "rarity",
              "type": "uint8"
            },
            {
              "internalType": "uint256",
              "name": "batchId",
              "type": "uint256"
            },
            {
              "internalType": "bool",
              "name": "isHatched",
              "type": "bool"
            },
            {
              "internalType": "uint256",
              "name": "mintedAt",
              "type": "uint256"
            }
          ],
          "internalType": "struct EggNFTBatch.Egg",
          "name": "",
          "type": "tuple"
        }
      ],
      "stateMutability": "view",
      "type": "function"
    },
    {
      "inputs": [
        {
          "internalType": "enum EggNFTBatch.Rarity",
          "name": "rarity",
          "type": "uint8"
        }
      ],
      "name": "getInstallmentAmount",
      "outputs": [
        {
          "internalType": "uint256",
          "name": "",
          "type": "uint256"
        }
      ],
      "stateMutability": "pure",
      "type": "function"
    },
    {
      "inputs": [
        {
          "internalType": "uint256",
          "name": "tokenId",
          "type": "uint256"
        }
      ],
      "name": "getInstallmentStatus",
      "outputs": [
        {
          "internalType": "uint256",
          "name": "paidAmount",
          "type": "uint256"
        },
        {
          "internalType": "uint256",
          "name": "remainingAmount",
          "type": "uint256"
        },
        {
          "internalType": "uint256",
          "name": "nextPaymentDue",
          "type": "uint256"
        },
        {
          "internalType": "bool",
          "name": "isComplete",
          "type": "bool"
        }
      ],
      "stateMutability": "view",
      "type": "function"
    },
    {
      "inputs": [
        {
          "internalType": "enum EggNFTBatch.Rarity",
          "name": "rarity",
          "type": "uint8"
        }
      ],
      "name": "getPriceForRarity",
      "outputs": [
        {
          "internalType": "uint256",
          "name": "",
          "type": "uint256"
        }
      ],
      "stateMutability": "pure",
      "type": "function"
    },
    {
      "inputs": [],
      "name": "getRaritySupply",
      "outputs": [
        {
          "internalType": "uint256",
          "name": "legendary",
          "type": "uint256"
        },
        {
          "internalType": "uint256",
          "name": "unique",
          "type": "uint256"
        },
        {
          "internalType": "uint256",
          "name": "rare",
          "type": "uint256"
        },
        {
          "internalType": "uint256",
          "name": "common",
          "type": "uint256"
        }
      ],
      "stateMutability": "view",
      "type": "function"
    },
    {
      "inputs": [
        {
          "internalType": "address",
          "name": "user",
          "type": "address"
        }
      ],
      "name": "getUserInstallments",
      "outputs": [
        {
          "internalType": "uint256[]",
          "name": "",
          "type": "uint256[]"
        }
      ],
      "stateMutability": "view",
      "type": "function"
    },
    {
      "inputs": [
        {
          "internalType": "uint256",
          "name": "tokenId",
          "type": "uint256"
        }
      ],
      "name": "hatchEgg",
      "outputs": [],
      "stateMutability": "nonpayable",
      "type": "function"
    },
    {
      "inputs": [
        {
          "internalType": "uint256",
          "name": "",
          "type": "uint256"
        }
      ],
      "name": "installmentPlans",
      "outputs": [
        {
          "internalType": "address",
          "name": "buyer",
          "type": "address"
        },
        {
          "internalType": "uint256",
          "name": "eggId",
          "type": "uint256"
        },
        {
          "internalType": "uint256",
          "name": "totalPrice",
          "type": "uint256"
        },
        {
          "internalType": "uint256",
          "name": "paidAmount",
          "type": "uint256"
        },
        {
          "internalType": "uint256",
          "name": "installmentsPaid",
          "type": "uint256"
        },
        {
          "internalType": "uint256",
          "name": "lastPaymentTime",
          "type": "uint256"
        },
        {
          "internalType": "bool",
          "name": "isComplete",
          "type": "bool"
        },
        {
          "internalType": "bool",
          "name": "isActive",
          "type": "bool"
        }
      ],
      "stateMutability": "view",
      "type": "function"
    },
    {
      "inputs": [
        {
          "internalType": "address",
          "name": "owner",
          "type": "address"
        },
        {
          "internalType": "address",
          "name": "operator",
          "type": "address"
        }
      ],
      "name": "isApprovedForAll",
      "outputs": [
        {
          "internalType": "bool",
          "name": "",
          "type": "bool"
        }
      ],
      "stateMutability": "view",
      "type": "function"
    },
    {
      "inputs": [],
      "name": "isFirstSaleActive",
      "outputs": [
        {
          "internalType": "bool",
          "name": "",
          "type": "bool"
        }
      ],
      "stateMutability": "view",
      "type": "function"
    },
    {
      "inputs": [],
      "name": "legendaryMinted",
      "outputs": [
        {
          "internalType": "uint256",
          "name": "",
          "type": "uint256"
        }
      ],
      "stateMutability": "view",
      "type": "function"
    },
    {
      "inputs": [
        {
          "internalType": "enum EggNFTBatch.Rarity",
          "name": "_rarity",
          "type": "uint8"
        }
      ],
      "name": "mintEgg",
      "outputs": [],
      "stateMutability": "payable",
      "type": "function"
    },
    {
      "inputs": [
        {
          "internalType": "enum EggNFTBatch.Rarity",
          "name": "_rarity",
          "type": "uint8"
        }
      ],
      "name": "mintEggWithInstallment",
      "outputs": [],
      "stateMutability": "payable",
      "type": "function"
    },
    {
      "inputs": [],
      "name": "mintGachaEgg",
      "outputs": [],
      "stateMutability": "payable",
      "type": "function"
    },
    {
      "inputs": [],
      "name": "name",
      "outputs": [
        {
          "internalType": "string",
          "name": "",
          "type": "string"
        }
      ],
      "stateMutability": "view",
      "type": "function"
    },
    {
      "inputs": [],
      "name": "owner",
      "outputs": [
        {
          "internalType": "address",
          "name": "",
          "type": "address"
        }
      ],
      "stateMutability": "view",
      "type": "function"
    },
    {
      "inputs": [
        {
          "internalType": "uint256",
          "name": "tokenId",
          "type": "uint256"
        }
      ],
      "name": "ownerOf",
      "outputs": [
        {
          "internalType": "address",
          "name": "",
          "type": "address"
        }
      ],
      "stateMutability": "view",
      "type": "function"
    },
    {
      "inputs": [
        {
          "internalType": "uint256",
          "name": "tokenId",
          "type": "uint256"
        }
      ],
      "name": "payInstallment",
      "outputs": [],
      "stateMutability": "payable",
      "type": "function"
    },
    {
      "inputs": [],
      "name": "rareMinted",
      "outputs": [
        {
          "internalType": "uint256",
          "name": "",
          "type": "uint256"
        }
      ],
      "stateMutability": "view",
      "type": "function"
    },
    {
      "inputs": [],
      "name": "renounceOwnership",
      "outputs": [],
      "stateMutability": "nonpayable",
      "type": "function"
    },
    {
      "inputs": [
        {
          "internalType": "address",
          "name": "from",
          "type": "address"
        },
        {
          "internalType": "address",
          "name": "to",
          "type": "address"
        },
        {
          "internalType": "uint256",
          "name": "tokenId",
          "type": "uint256"
        }
      ],
      "name": "safeTransferFrom",
      "outputs": [],
      "stateMutability": "nonpayable",
      "type": "function"
    },
    {
      "inputs": [
        {
          "internalType": "address",
          "name": "from",
          "type": "address"
        },
        {
          "internalType": "address",
          "name": "to",
          "type": "address"
        },
        {
          "internalType": "uint256",
          "name": "tokenId",
          "type": "uint256"
        },
        {
          "internalType": "bytes",
          "name": "data",
          "type": "bytes"
        }
      ],
      "name": "safeTransferFrom",
      "outputs": [],
      "stateMutability": "nonpayable",
      "type": "function"
    },
    {
      "inputs": [
        {
          "internalType": "address",
          "name": "operator",
          "type": "address"
        },
        {
          "internalType": "bool",
          "name": "approved",
          "type": "bool"
        }
      ],
      "name": "setApprovalForAll",
      "outputs": [],
      "stateMutability": "nonpayable",
      "type": "function"
    },
    {
      "inputs": [
        {
          "internalType": "string",
          "name": "baseURI",
          "type": "string"
        }
      ],
      "name": "setBaseURI",
      "outputs": [],
      "stateMutability": "nonpayable",
      "type": "function"
    },
    {
      "inputs": [
        {
          "internalType": "address",
          "name": "_dragonContract",
          "type": "address"
        }
      ],
      "name": "setDragonContract",
      "outputs": [],
      "stateMutability": "nonpayable",
      "type": "function"
    },
    {
      "inputs": [
        {
          "internalType": "bytes4",
          "name": "interfaceId",
          "type": "bytes4"
        }
      ],
      "name": "supportsInterface",
      "outputs": [
        {
          "internalType": "bool",
          "name": "",
          "type": "bool"
        }
      ],
      "stateMutability": "view",
      "type": "function"
    },
    {
      "inputs": [],
      "name": "symbol",
      "outputs": [
        {
          "internalType": "string",
          "name": "",
          "type": "string"
        }
      ],
      "stateMutability": "view",
      "type": "function"
    },
    {
      "inputs": [
        {
          "internalType": "uint256",
          "name": "tokenId",
          "type": "uint256"
        }
      ],
      "name": "tokenURI",
      "outputs": [
        {
          "internalType": "string",
          "name": "",
          "type": "string"
        }
      ],
      "stateMutability": "view",
      "type": "function"
    },
    {
      "inputs": [
        {
          "internalType": "address",
          "name": "from",
          "type": "address"
        },
        {
          "internalType": "address",
          "name": "to",
          "type": "address"
        },
        {
          "internalType": "uint256",
          "name": "tokenId",
          "type": "uint256"
        }
      ],
      "name": "transferFrom",
      "outputs": [],
      "stateMutability": "nonpayable",
      "type": "function"
    },
    {
      "inputs": [
        {
          "internalType": "address",
          "name": "newOwner",
          "type": "address"
        }
      ],
      "name": "transferOwnership",
      "outputs": [],
      "stateMutability": "nonpayable",
      "type": "function"
    },
    {
      "inputs": [],
      "name": "uniqueMinted",
      "outputs": [
        {
          "internalType": "uint256",
          "name": "",
          "type": "uint256"
        }
      ],
      "stateMutability": "view",
      "type": "function"
    },
    {
      "inputs": [
        {
          "internalType": "address",
          "name": "",
          "type": "address"
        },
        {
          "internalType": "uint256",
          "name": "",
          "type": "uint256"
        }
      ],
      "name": "userInstallments",
      "outputs": [
        {
          "internalType": "uint256",
          "name": "",
          "type": "uint256"
        }
      ],
      "stateMutability": "view",
      "type": "function"
    },
    {
      "inputs": [],
      "name": "withdraw",
      "outputs": [],
      "stateMutability": "nonpayable",
      "type": "function"
    }
  ],
  "bytecode": "0x608034620003ab576001600160401b03906040908082018381118282101762000395578252600a815260209069447261676f6e2045676760b01b8282015282519383850185811082821117620003955784526005855264445245474760d81b83860152815181811162000395576000938454916001948584811c941680156200038a575b8385101462000376578190601f9485811162000323575b508390858311600114620002bf578892620002b3575b5050600019600383901b1c191690851b1785555b86519283116200029f5783548481811c9116801562000294575b82821014620002805782811162000238575b5080918311600114620001d1575083949582939492620001c5575b5050600019600383901b1c191690821b1781555b3315620001ae5760068054336001600160a01b0319821681179092559351936001600160a01b03167f8be0079c531659141344cd1fd0a4f28419497f9722a3daafe3b4186f6b6457e08480a38060ff19600c541617600c5560075562093a804201908142116200019a5750600d55612f3e9081620003b18239f35b634e487b7160e01b81526011600452602490fd5b506024915190631e4fbdf760e01b82526004820152fd5b0151905038806200010b565b90601f198316968486528286209286905b8982106200022057505083859697981062000206575b505050811b0181556200011f565b015160001960f88460031b161c19169055388080620001f8565b808785968294968601518155019501930190620001e2565b8486528186208380860160051c82019284871062000276575b0160051c019085905b8281106200026a575050620000f0565b8781550185906200025a565b9250819262000251565b634e487b7160e01b86526022600452602486fd5b90607f1690620000de565b634e487b7160e01b85526041600452602485fd5b015190503880620000b0565b8880528489208894509190601f1984168a5b878282106200030c5750508411620002f2575b505050811b018555620000c4565b015160001960f88460031b161c19169055388080620002e4565b8385015186558b97909501949384019301620002d1565b9091508780528388208580850160051c8201928686106200036c575b918991869594930160051c01915b8281106200035d5750506200009a565b8a81558594508991016200034d565b925081926200033f565b634e487b7160e01b87526022600452602487fd5b93607f169362000083565b634e487b7160e01b600052604160045260246000fd5b600080fdfe6080604081815260048036101561001557600080fd5b600092833560e01c90816301ffc9a714611d6057508063039f14b014611d205780630651e16214611cbc57806306fdde0314611c14578063081812fc14611bd9578063095ea7b314611afd5780630a21213714611ade5780630af4750e14611ac25780630ea92db214611aa657806312383f1a146118ce5780631b397db5146118955780631e188a56146114db57806320dd0c84146114bd5780632385554c1461131457806323b872dd146112fc5780632e119c79146112d95780632f3e1b63146112ba5780633133602a146111d057806332cb6b0c146111b357806333080d711461118f5780633ccfd60b1461111657806342842e0e146110e7578063476b285c146110be578063544352081461101157806355f804b314610e745780636352211e14610e4357806366435c0614610e2457806370a0823114610dcf578063715018a614610d725780637561875314610d555780637869b40c14610d0b57806379c352a714610b225780638da5cb5b14610af957806395d89b4114610a165780639efa44f8146109f7578063a22cb46514610950578063b4d34441146108ce578063b88d4fde1461085b578063bb654efa14610803578063bdc71fb8146107e0578063c092ae38146107c4578063c200e534146107a1578063c87b56dd14610769578063d519989914610747578063df34800c14610714578063df3ea193146106f8578063e2f8a01714610495578063e985e9c514610447578063e9aac10214610428578063eb76d5ed146103f8578063f2fde38b1461036e578063f48375dc146103115763feb40f7e1461026a57600080fd5b3461030d57602036600319011261030d578282916080946060845161028e81611ead565b828152826020820152828682015201523581526010602052208151916102b383611ead565b6102c160ff83541684612606565b60018201549160208401928352600360ff600283015416918386019215158352015492606085019384526102f88351809651611f8e565b51602085015251151590830152516060820152f35b8280fd5b50503461036a578060031936011261036a5761032b611dcc565b6001600160a01b03168252601260205280822080546024359390841015610367575060209261035991611fb1565b91905490519160031b1c8152f35b80fd5b5080fd5b503461030d57602036600319011261030d57610388611dcc565b90610391611fdf565b6001600160a01b039182169283156103e2575050600654826001600160601b0360a01b821617600655167f8be0079c531659141344cd1fd0a4f28419497f9722a3daafe3b4186f6b6457e08380a380f35b51631e4fbdf760e01b8152908101849052602490fd5b509134610367576020366003190112610367578235928310156103675750610421602092612868565b9051908152f35b50503461036a578160031936011261036a576020906008549051908152f35b50503461036a578060031936011261036a5760ff81602093610467611dcc565b61046f611de7565b6001600160a01b0391821683526005875283832091168252855220549151911615158152f35b50906020806003193601126106f45782359283855260118252828520600681019384549360ff8560081c16156106c15782546001600160a01b0316330361068f5760ff851661065a5783830193845494600386101561062d576005850191825462015180810180911161061a5742106105d7576003806002880154049661051d883414612548565b018054908782018092116105c45755600187018097116105b1575092858095937f533ee8548875d0f22a581a3c1a9288f512457c881609110b967d0c66a6db573e936003988c975542905582519485528401523392a31461057c578380f35b60ff19166001179055337f21bfb436a474b6bdcdddacb49d2f7b16e5d70a35f6543bc99c2ff3d94bc3d9ab8380a33880808380f35b634e487b7160e01b8b526011905260248afd5b634e487b7160e01b8d526011835260248dfd5b845162461bcd60e51b8152908101849052601a60248201527f546f6f206561726c7920666f72206e657874207061796d656e740000000000006044820152606490fd5b634e487b7160e01b8c526011825260248cfd5b50915162461bcd60e51b8152918201526008602482015267105b1b081c185a5960c21b6044820152606490fd5b8390606492519162461bcd60e51b8352820152601060248201526f416c726561647920636f6d706c65746560801b6044820152fd5b8390606492519162461bcd60e51b8352820152600d60248201526c2737ba103cb7bab910383630b760991b6044820152fd5b8390606492519162461bcd60e51b8352820152600e60248201526d27379030b1ba34bb3290383630b760911b6044820152fd5b8380fd5b50503461036a578160031936011261036a576020905160238152f35b509134610367576020366003190112610367578235928310156103675750600361073f602093612868565b049051908152f35b50503461036a578160031936011261036a576020905166b1a2bc2ec500008152f35b509134610367576020366003190112610367575061078a61079d92356128b9565b9051918291602083526020830190611e20565b0390f35b50503461036a578160031936011261036a5760209051670429d069189e00008152f35b50503461036a578160031936011261036a5760209051602d8152f35b50503461036a578160031936011261036a57602090516706f05b59d3b200008152f35b503461030d57602036600319011261030d57608092829135815260106020522060ff81541691600182015491600360ff6002830154169101549261084983518096611f8e565b60208501521515908301526060820152f35b83823461036a57608036600319011261036a57610876611dcc565b61087e611de7565b6044359060643567ffffffffffffffff81116108ca57366023820112156108ca576108c7948160246108b593369301359101611f3f565b926108c1838383612045565b3361241f565b80f35b8580fd5b503461030d57602036600319011261030d5780826101009460ff9335815260116020522060018060a01b03815416936001820154926002830154600384015491840154926006600586015495015495815198895260208901528701526060860152608085015260a0840152818116151560c084015260081c16151560e0820152f35b50903461030d578060031936011261030d5761096a611dcc565b90602435801515928382036108ca576001600160a01b03169384156109e057506109b39033865260056020528286208587526020528286209060ff801983541691151516179055565b519081527f17307eab39ab6107e8899845ad3d59bd9653f200f220920489ca2b5937696c3160203392a380f35b8251630b61174360e31b8152908101859052602490fd5b50503461036a578160031936011261036a576020906009549051908152f35b50503461036a578160031936011261036a57805190826001805491610a3a8361200b565b80865292828116908115610ad15750600114610a75575b505050610a638261079d940383611f01565b51918291602083526020830190611e20565b94508085527fb10e2d527612073b26eecdfd717e6a320cf44b4afac2b0732d9fcbe2b7fa0cf65b828610610ab957505050610a6382602061079d9582010194610a51565b80546020878701810191909152909501948101610a9c565b61079d975086935060209250610a6394915060ff191682840152151560051b82010194610a51565b50503461036a578160031936011261036a5760065490516001600160a01b039091168152602090f35b509134610367578160031936011261036757823567ffffffffffffffff918282116103675736602383011215610367578185013591610b6083611f76565b90610b6d86519283611f01565b8382526020908183016024809660051b830101913683116108ca578601905b828210610cec57505050833594851161030d573660238601121561030d578487013594610bb886611f76565b95610bc588519788611f01565b808752858388019160051b830101913683116108ca578601905b828210610cd157505050610bf1611fdf565b8151855103610c9e57825b8251811015610c9a576103e860075411610c63576001600160a01b03610c2282856125f2565b5116610c2e82886125f2565b519089821015610c5157610c4c9291610c4691612612565b506125cd565b610bfc565b634e487b7160e01b865260218a528686fd5b865162461bcd60e51b81528089018390526012818701527113585e081cdd5c1c1b1e481c995858da195960721b6044820152606490fd5b8380f35b86600f8560649389519362461bcd60e51b85528401528201526e098cadccee8d040dad2e6dac2e8c6d608b1b6044820152fd5b81358a811015610ce8578152908301908301610bdf565b8680fd5b81356001600160a01b0381168103610ce8578152908301908301610b8c565b8334610367578060031936011261036757610d24611fdf565b60ff19600c5416600c557f87f8b5fcd37e51287c7d6863576ed7ba36c0b4506d1147ca3ba2eab69aedb1b58180a180f35b50503461036a578160031936011261036a576020905161037f8152f35b8334610367578060031936011261036757610d8b611fdf565b600680546001600160a01b0319811690915581906001600160a01b03167f8be0079c531659141344cd1fd0a4f28419497f9722a3daafe3b4186f6b6457e08280a380f35b509134610367576020366003190112610367576001600160a01b03610df2611dcc565b16928315610e0f5750806020938392526003845220549051908152f35b91516322718ad960e21b815291820152602490fd5b50503461036a578160031936011261036a57602090600b549051908152f35b5091346103675760203660031901126103675750610e63602092356122a0565b90516001600160a01b039091168152f35b5082346103675760208060031936011261036a5767ffffffffffffffff9083358281116106f457366023820112156106f457610eb99036906024818801359101611f3f565b93610ec2611fdf565b8451928311610ffe5750610ed7600e5461200b565b601f8111610f9c575b5080601f8311600114610f1b57508293829392610f10575b50508160011b916000199060031b1c191617600e5580f35b015190508380610ef8565b600e8452601f198316947fbb7b4a454dc3493923482f07822329ed19e8244eff582cc204f8554c3620c3fd929185905b878210610f84575050836001959610610f6b575b505050811b01600e5580f35b015160001960f88460031b161c19169055838080610f5f565b80600185968294968601518155019501930190610f4b565b600e84527fbb7b4a454dc3493923482f07822329ed19e8244eff582cc204f8554c3620c3fd601f840160051c810191838510610ff4575b601f0160051c01905b818110610fe95750610ee0565b848155600101610fdc565b9091508190610fd3565b634e487b7160e01b845260419052602483fd5b82843461036757602090816003193601126103675782906001600160a01b03611038611dcc565b16815260128352818120908251808584549182815201908194845286842090845b8181106110aa575050508161106f910382611f01565b83519485948186019282875251809352850193925b82811061109357505050500390f35b835185528695509381019392810192600101611084565b825484529288019260019283019201611059565b50503461036a578160031936011261036a57600f5490516001600160a01b039091168152602090f35b50503461036a576108c7906110fb36611e45565b9192519261110884611ec9565b8584526108c1838383612045565b503461030d578260031936011261030d5761112f611fdf565b47908115611161575060065483918291829182916001600160a01b031682f115611157575080f35b51903d90823e3d90fd5b606490602084519162461bcd60e51b835282015260086024820152674e6f2066756e647360c01b6044820152fd5b50503461036a578160031936011261036a5760209060ff600c541690519015158152f35b50503461036a578160031936011261036a57602090516103e88152f35b5091903461036a57602036600319011261036a57823582526011602052808220918151916111fd83611e7a565b60018060a01b038454168352600184015460208401526002840154928382820152600385015494856060830152868101546080830152600660058201549160a0840192835201549160e060ff60c08301948181161515865260081c1615159101528585039485116112a757519262015180840180941161129457506080955051151592815194855260208501528301526060820152f35b634e487b7160e01b815260118752602490fd5b634e487b7160e01b845260118752602484fd5b50503461036a578160031936011261036a57602090600a549051908152f35b50503461036a578160031936011261036a5760209051670214e8348c4f00008152f35b8334610367576108c761130e36611e45565b91612045565b50903461030d576020806003193601126106f457823592611334846122a0565b6001600160a01b0390339082160361148b578486526010835260ff6002858820015416611457578486526011835260e0600685882086519361137585611e7a565b815416845260018101548685015260028101548785015260038101546060850152848101546080850152600581015460a085015201549160ff8084161593841560c084015260081c161515918291015261140c575b5050828452601090528220600201805460ff1916600117905533907fbcc217a4a801124dc2346b3503be7dfbbb798f5ea5d401306958d24640c088e08380a380f35b61141657806113ca565b915162461bcd60e51b815291820152601760248201527f436f6d706c657465207061796d656e74732066697273740000000000000000006044820152606490fd5b50915162461bcd60e51b815291820152600f60248201526e105b1c9958591e481a185d18da1959608a1b6044820152606490fd5b50915162461bcd60e51b815291820152600d60248201526c2737ba1032b3b39037bbb732b960991b6044820152606490fd5b50503461036a578160031936011261036a5760209051620151808152f35b50919060208060031936011261030d57833591848310156106f457600754926115086103e885111561250a565b61151181612868565b9260038404938434036118525760ff600c5416611842575b61153283612821565b1561180857611540866125cd565b600755600383036117bf576115566008546125cd565b6008555b83519261156684611ead565b6115708185612606565b828401936001948581528682018a815260608301914283528a8c5260108752888c2093518d8110156117ab57845460ff91821660ff1991821617865591518986015591516002850180549115159093169116179055600390519101558451906115d882611ec9565b8882523315611794576001600160a01b0391826115f58a336121e4565b1661177d579188878b959382953390843392611610936122db565b8151908161161d91611f8e565b888882015233917fd48981a3a59cf6fb9f8e7df82b62b368aff5a96c6d53f6837cf0871485b53f0791a386519161165383611e7a565b3383528583019084825288840190815260608401908a8252608085019289845260a08601944286528b60c0880199808b5260e08901998d8b52815260118c52209651166001600160601b0360a01b8754161786555189860155516002850155516003840155518b830155516005820155600601915115156116e090839060ff801983541691151516179055565b51151581549060081b61ff00169061ff001916179055338652601281528286208054906801000000000000000082101561176a578161174791857f533ee8548875d0f22a581a3c1a9288f512457c881609110b967d0c66a6db573e97969594018155611fb1565b81549060031b9088821b91600019901b191617905582519485528401523392a380f35b634e487b7160e01b885260418952602488fd5b86516339e3563760e11b8152808c018b9052602490fd5b8551633250574960e11b8152808b018a9052602490fd5b50634e487b7160e01b8c5260218d5260248cfd5b600283036117da576117d26009546125cd565b60095561155a565b600183036117f5576117ed600a546125cd565b600a5561155a565b611800600b546125cd565b600b5561155a565b835162461bcd60e51b8152808901839052601460248201527314985c9a5d1e481b1a5b5a5d081c995858da195960621b6044820152606490fd5b61184d831515612588565b611529565b835162461bcd60e51b8152808901839052601760248201527f496e636f7272656374206669727374207061796d656e740000000000000000006044820152606490fd5b50503461036a578160031936011261036a576080906008549060095490600a5490600b5492815194855260208501528301526060820152f35b50908260031936011261030d5760ff600c5416611a6f576118f766b1a2bc2ec500003414612548565b600b549161037f831015611a375761191d60075493611915856125cd565b6007556125cd565b600b55815161192b81611ead565b848152602081016001815283820186815260608301914283528688526010602052858820935185811015611a2457845460ff91821660ff1991821617865591516001860155915160028501805491151590931691161790556003905191015581519061199682611ec9565b8482523315611a0d576001600160a01b036119b185336121e4565b166119f657506119c3908333336122db565b7fd48981a3a59cf6fb9f8e7df82b62b368aff5a96c6d53f6837cf0871485b53f078151918483528460208401523392a380f35b82516339e3563760e11b8152908101859052602490fd5b8251633250574960e11b8152908101859052602490fd5b634e487b7160e01b895260218652602489fd5b6020606492519162461bcd60e51b83528201526013602482015272139bc818dbdb5b5bdb881959d9dcc81b19599d606a1b6044820152fd5b906020606492519162461bcd60e51b8352820152601160248201527046697273742073616c652061637469766560781b6044820152fd5b50503461036a578160031936011261036a576020905160038152f35b50503461036a578160031936011261036a576020905160198152f35b50503461036a578160031936011261036a57602090600d549051908152f35b50903461030d578060031936011261030d57611b17611dcc565b91602435611b24816122a0565b33151580611bc6575b80611b9d575b611b87576001600160a01b039485169482918691167f8c5be1e5ebec7d5bd14f71427d1e84f3dd0314c0f7b2291e5b200ac8c7c3b9258880a48452602052822080546001600160a01b031916909117905580f35b835163a9fbf51f60e01b81523381850152602490fd5b506001600160a01b03811686526005602090815284872033885290528386205460ff1615611b33565b506001600160a01b038116331415611b2d565b503461030d57602036600319011261030d57918260209335611bfa816122a0565b50825283528190205490516001600160a01b039091168152f35b50503461036a578160031936011261036a57805190828054611c358161200b565b80855291600191808316908115610ad15750600114611c6057505050610a638261079d940383611f01565b80809650527f290decd9548b62a8d60345a988386fc84ba6bc95484008f6362f93160ef3e5635b828610611ca457505050610a6382602061079d9582010194610a51565b80546020878701810191909152909501948101611c87565b8382602036600319011261036a5780359081101561036a57611d0c90611ce86103e8600754111561250a565b611cfb611cf482612868565b3414612548565b60ff600c5416611d10575b33612612565b5080f35b611d1b811515612588565b611d06565b833461036757602036600319011261036757611d3a611dcc565b611d42611fdf565b60018060a01b03166001600160601b0360a01b600f541617600f5580f35b9250503461030d57602036600319011261030d573563ffffffff60e01b811680910361030d57602092506380ac58cd60e01b8114908115611dbb575b8115611daa575b5015158152f35b6301ffc9a760e01b14905038611da3565b635b5e139f60e01b81149150611d9c565b600435906001600160a01b0382168203611de257565b600080fd5b602435906001600160a01b0382168203611de257565b60005b838110611e105750506000910152565b8181015183820152602001611e00565b90602091611e3981518092818552858086019101611dfd565b601f01601f1916010190565b6060906003190112611de2576001600160a01b03906004358281168103611de257916024359081168103611de2579060443590565b610100810190811067ffffffffffffffff821117611e9757604052565b634e487b7160e01b600052604160045260246000fd5b6080810190811067ffffffffffffffff821117611e9757604052565b6020810190811067ffffffffffffffff821117611e9757604052565b6040810190811067ffffffffffffffff821117611e9757604052565b90601f8019910116810190811067ffffffffffffffff821117611e9757604052565b67ffffffffffffffff8111611e9757601f01601f191660200190565b929192611f4b82611f23565b91611f596040519384611f01565b829481845281830111611de2578281602093846000960137010152565b67ffffffffffffffff8111611e975760051b60200190565b906004821015611f9b5752565b634e487b7160e01b600052602160045260246000fd5b8054821015611fc95760005260206000200190600090565b634e487b7160e01b600052603260045260246000fd5b6006546001600160a01b03163303611ff357565b60405163118cdaa760e01b8152336004820152602490fd5b90600182811c9216801561203b575b602083101461202557565b634e487b7160e01b600052602260045260246000fd5b91607f169161201a565b6001600160a01b0391821692909183156121cb57600092828452826020956002875260409684888820541696879133151580612135575b509060027fddf252ad1be2c89b69c2b068fc378daa952ba7f163c4a11628f55a4df523b3ef9284612102575b858352600381528b8320805460010190558683525289812080546001600160a01b0319168517905580a416928383036120e15750505050565b6064945051926364283d7b60e01b8452600484015260248301526044820152fd5b600087815260046020526040902080546001600160a01b0319169055848352600381528b832080546000190190556120a8565b9193945091508061218a575b156121515785929187913861207c565b87868861216e576024915190637e27328960e01b82526004820152fd5b604491519063177e802f60e01b82523360048301526024820152fd5b5033871480156121af575b806121415750858252600481523385898420541614612141565b5086825260058152878220338352815260ff8883205416612195565b604051633250574960e11b815260006004820152602490fd5b6000828152600260205260408120546001600160a01b03908116939284917fddf252ad1be2c89b69c2b068fc378daa952ba7f163c4a11628f55a4df523b3ef918361226b575b169283612253575b84815260026020526040812080546001600160a01b0319168517905580a490565b83815260036020526040812060018154019055612232565b600086815260046020526040902080546001600160a01b0319169055838552600360205260408520805460001901905561222a565b6000818152600260205260409020546001600160a01b03169081156122c3575090565b60249060405190637e27328960e01b82526004820152fd5b90929192803b6122ec575b50505050565b9061233b9293949160018060a01b038091169460405191630a85bd0160e11b93848452166004830152600096876024840152604483015260806064830152818060209687936084830190611e20565b038189895af18691816123df575b506123aa575050503d6000146123a1573d61236381611f23565b906123716040519283611f01565b81528093823d92013e5b8251928361239c57604051633250574960e11b815260048101849052602490fd5b019050fd5b6060925061237b565b919450915063ffffffff60e01b16036123c75750388080806122e6565b60249060405190633250574960e11b82526004820152fd5b9091508481813d8311612418575b6123f78183611f01565b81010312610ce857516001600160e01b031981168103610ce8579038612349565b503d6123ed565b90939192833b612431575b5050505050565b604051630a85bd0160e11b8082526001600160a01b03938416600483015295831660248201526044810191909152608060648201529492169260209291859061247e906084830190611e20565b039483816000978189895af18691816124ca575b506124ac575050503d6000146123a1573d61236381611f23565b919450915063ffffffff60e01b16036123c75750388080808061242a565b9091508481813d8311612503575b6124e28183611f01565b81010312610ce857516001600160e01b031981168103610ce8579038612492565b503d6124d8565b1561251157565b60405162461bcd60e51b815260206004820152600f60248201526e105b1b081959d9dcc81b5a5b9d1959608a1b6044820152606490fd5b1561254f57565b60405162461bcd60e51b8152602060048201526011602482015270125b98dbdc9c9958dd081c185e5b595b9d607a1b6044820152606490fd5b1561258f57565b60405162461bcd60e51b815260206004820152601660248201527546697273742073616c653a20526172652b206f6e6c7960501b6044820152606490fd5b60001981146125dc5760010190565b634e487b7160e01b600052601160045260246000fd5b8051821015611fc95760209160051b010190565b6004821015611f9b5752565b9061261c81612821565b156127e5576007549161262e836125cd565b600755600491828110156127d057600381036127875761264f6008546125cd565b6008555b60409182519061266282611ead565b61266c8383612606565b602082019160018352848101926000938481526060830191428352898652601060205287862093518981101561277457845460ff91821660ff199182161786559151600186015591516002850180549115159093169116179055600390519101558351906126d982611ec9565b8282526001600160a01b038181169690871561275d576126f989846121e4565b166127465750916127317fd48981a3a59cf6fb9f8e7df82b62b368aff5a96c6d53f6837cf0871485b53f0794928880989795336122db565b61273d83518093611f8e565b6020820152a390565b85516339e3563760e11b8152908101849052602490fd5b8651633250574960e11b8152808301869052602490fd5b634e487b7160e01b875260218a52602487fd5b600281036127a25761279a6009546125cd565b600955612653565b600181036127bd576127b5600a546125cd565b600a55612653565b6127c8600b546125cd565b600b55612653565b602183634e487b7160e01b6000525260246000fd5b60405162461bcd60e51b815260206004820152601460248201527314985c9a5d1e481b1a5b5a5d081c995858da195960621b6044820152606490fd5b6004811015611f9b576003811461285e57600281146128545760011461284b5761037f600b541090565b602d600a541090565b5060236009541090565b5060196008541090565b6004811015611f9b57600381146128ac576002811461289f576001146128935766b1a2bc2ec5000090565b670214e8348c4f000090565b50670429d069189e000090565b506706f05b59d3b2000090565b6001600160a01b036128ca826122a0565b1615612cba57600e54906128dd8261200b565b156129c3576128eb90612cf5565b60405180926000906128fc8161200b565b9060019081811690811561299c575060011461293d575b50508061292b8460209361293a965194859201611dfd565b0103601f198101835282611f01565b90565b600e60009081529192507fbb7b4a454dc3493923482f07822329ed19e8244eff582cc204f8554c3620c3fd5b8383106129815750505081016020018261292b612913565b80546020848901810191909152879550909201918101612969565b60ff19166020868101919091528315159093028501909201925084915061292b9050612913565b80915060005260209060108252604091826000209280516129e381611ead565b6129f160ff86541682612606565b600185015490838101918252600360ff6002880154169684830197151588520154606082015251926004841015611f9b5761293a94612a3b612a3561012e96612e5d565b91612cf5565b965115612c70577f7d5d2c22696d616765223a22697066733a2f2f516d596f7572496d6167654861612a8c8551612a7181611ee5565b600781526612185d18da195960ca1b85820152945b51612cf5565b85519889967f646174613a6170706c69636174696f6e2f6a736f6e3b757466382c7b226e616d868901526f65223a22447261676f6e20456767202360801b90880152612ae1815180928760508b019101611dfd565b8601947f222c226465736372697074696f6e223a2241206d7973746963616c206472616760508701527f6f6e206567672066726f6d20447261676f6e20436974792e205261726974793a6070870152600160fd1b6090870152835185850196612b4e82609183018a611dfd565b017f222c2261747472696275746573223a5b7b2274726169745f74797065223a225260918201526f30b934ba3c9116113b30b63ab2911d1160811b60b1820152845190612b9f8260c183018a611dfd565b017f227d2c7b2274726169745f74797065223a22537461747573222c2276616c756560c182015262111d1160e91b60e1820152612be5825180938860e485019101611dfd565b017f227d2c7b2274726169745f74797065223a224261746368222c2276616c75652260e4820152601d60f91b610104820152612c2c82518093610105978885019101611dfd565b01928301526273682f60e81b6101258301525190612c51826101289485840190611dfd565b0190652e706e67227d60d01b908201520361010e810184520182611f01565b7f7d5d2c22696d616765223a22697066733a2f2f516d596f7572496d6167654861612a8c8551612c9f81611ee5565b6009815268155b9a185d18da195960ba1b8582015294612a86565b60405162461bcd60e51b8152602060048201526013602482015272151bdad95b88191bd95cdb89dd08195e1a5cdd606a1b6044820152606490fd5b806000917a184f03e93ff9f4daa797ed6e38ed64bf6a1f01000000000000000080821015612e4f575b506d04ee2d6d415b85acef810000000080831015612e40575b50662386f26fc1000080831015612e31575b506305f5e10080831015612e22575b5061271080831015612e13575b506064821015612e03575b600a80921015612df9575b60019081602181860195612d8e87611f23565b96612d9c6040519889611f01565b808852612dab601f1991611f23565b01366020890137860101905b612dc3575b5050505090565b600019019083906f181899199a1a9b1b9c1cb0b131b232b360811b8282061a835304918215612df457919082612db7565b612dbc565b9160010191612d7b565b9190606460029104910191612d70565b60049193920491019138612d65565b60089193920491019138612d58565b60109193920491019138612d49565b60209193920491019138612d37565b604093508104915038612d1e565b6004811015611f9b5760038114612ee25760028114612ebf57600114612e9f57604051612e8981611ee5565b600681526521b7b6b6b7b760d11b602082015290565b604051612eab81611ee5565b60048152635261726560e01b602082015290565b50604051612ecc81611ee5565b6006815265556e6971756560d01b602082015290565b50604051612eef81611ee5565b60098152684c6567656e6461727960b81b60208201529056fea264697066735822122040ebb376e2fe09146ed3f17d3dd33680df6be015ad515a0bcd4e2a6b2d9aaf0264736f6c63430008140033",
  "linkReferences": {},
  "deployedLinkReferences": {}
}