{
  "_format": "hh-sol-artifact-1",
  "contractName": "DragonMarketplace",
  "sourceName": "contracts/DragonMarketplace.sol",
  "abi": [
    {
      "inputs": [
        {
          "internalType": "address",
          "name": "_dragonNFT",
          "type": "address"
        }
      ],
      "stateMutability": "nonpayable",
      "type": "constructor"
    },
    {
      "inputs": [
        {
          "internalType": "address",
          "name": "owner",
          "type": "address"
        }
      ],
      "name": "OwnableInvalidOwner",
      "type": "error"
    },
    {
      "inputs": [
        {
          "internalType": "address",
          "name": "account",
          "type": "address"
        }
      ],
      "name": "OwnableUnauthorizedAccount",
      "type": "error"
    },
    {
      "inputs": [],
      "name": "ReentrancyGuardReentrantCall",
      "type": "error"
    },
    {
      "anonymous": false,
      "inputs": [
        {
          "indexed": true,
          "internalType": "uint256",
          "name": "dragonId",
          "type": "uint256"
        },
        {
          "indexed": true,
          "internalType": "address",
          "name": "seller",
          "type": "address"
        },
        {
          "indexed": false,
          "internalType": "uint256",
          "name": "price",
          "type": "uint256"
        }
      ],
      "name": "DragonListed",
      "type": "event"
    },
    {
      "anonymous": false,
      "inputs": [
        {
          "indexed": true,
          "internalType": "uint256",
          "name": "dragonId",
          "type": "uint256"
        },
        {
          "indexed": true,
          "internalType": "address",
          "name": "seller",
          "type": "address"
        },
        {
          "indexed": true,
          "internalType": "address",
          "name": "buyer",
          "type": "address"
        },
        {
          "indexed": false,
          "internalType": "uint256",
          "name": "price",
          "type": "uint256"
        }
      ],
      "name": "DragonSold",
      "type": "event"
    },
    {
      "anonymous": false,
      "inputs": [
        {
          "indexed": true,
          "internalType": "uint256",
          "name": "element",
          "type": "uint256"
        },
        {
          "indexed": true,
          "internalType": "uint256",
          "name": "rarity",
          "type": "uint256"
        },
        {
          "indexed": false,
          "internalType": "uint256",
          "name": "newFloor",
          "type": "uint256"
        }
      ],
      "name": "FloorPriceUpdated",
      "type": "event"
    },
    {
      "anonymous": false,
      "inputs": [
        {
          "indexed": true,
          "internalType": "uint256",
          "name": "dragonId",
          "type": "uint256"
        },
        {
          "indexed": true,
          "internalType": "address",
          "name": "seller",
          "type": "address"
        }
      ],
      "name": "ListingCancelled",
      "type": "event"
    },
    {
      "anonymous": false,
      "inputs": [
        {
          "indexed": true,
          "internalType": "address",
          "name": "previousOwner",
          "type": "address"
        },
        {
          "indexed": true,
          "internalType": "address",
          "name": "newOwner",
          "type": "address"
        }
      ],
      "name": "OwnershipTransferred",
      "type": "event"
    },
    {
      "anonymous": false,
      "inputs": [
        {
          "indexed": true,
          "internalType": "uint256",
          "name": "offerId",
          "type": "uint256"
        },
        {
          "indexed": true,
          "internalType": "address",
          "name": "seller",
          "type": "address"
        },
        {
          "indexed": true,
          "internalType": "address",
          "name": "buyer",
          "type": "address"
        }
      ],
      "name": "TradeOfferAccepted",
      "type": "event"
    },
    {
      "anonymous": false,
      "inputs": [
        {
          "indexed": true,
          "internalType": "uint256",
          "name": "offerId",
          "type": "uint256"
        }
      ],
      "name": "TradeOfferCancelled",
      "type": "event"
    },
    {
      "anonymous": false,
      "inputs": [
        {
          "indexed": true,
          "internalType": "uint256",
          "name": "offerId",
          "type": "uint256"
        },
        {
          "indexed": false,
          "internalType": "address",
          "name": "offerer",
          "type": "address"
        },
        {
          "indexed": false,
          "internalType": "uint256",
          "name": "offeredDragon",
          "type": "uint256"
        },
        {
          "indexed": false,
          "internalType": "uint256",
          "name": "targetDragon",
          "type": "uint256"
        },
        {
          "indexed": false,
          "internalType": "uint256",
          "name": "ethDifference",
          "type": "uint256"
        }
      ],
      "name": "TradeOfferCreated",
      "type": "event"
    },
    {
      "inputs": [],
      "name": "FEE_DENOMINATOR",
      "outputs": [
        {
          "internalType": "uint256",
          "name": "",
          "type": "uint256"
        }
      ],
      "stateMutability": "view",
      "type": "function"
    },
    {
      "inputs": [
        {
          "internalType": "uint256",
          "name": "offerId",
          "type": "uint256"
        }
      ],
      "name": "acceptTradeOffer",
      "outputs": [],
      "stateMutability": "nonpayable",
      "type": "function"
    },
    {
      "inputs": [
        {
          "internalType": "uint256",
          "name": "",
          "type": "uint256"
        }
      ],
      "name": "activeListings",
      "outputs": [
        {
          "internalType": "uint256",
          "name": "",
          "type": "uint256"
        }
      ],
      "stateMutability": "view",
      "type": "function"
    },
    {
      "inputs": [
        {
          "internalType": "uint256",
          "name": "dragonId",
          "type": "uint256"
        }
      ],
      "name": "buyDragon",
      "outputs": [],
      "stateMutability": "payable",
      "type": "function"
    },
    {
      "inputs": [
        {
          "internalType": "uint256",
          "name": "element",
          "type": "uint256"
        },
        {
          "internalType": "uint256",
          "name": "rarity",
          "type": "uint256"
        }
      ],
      "name": "calculateFloorPrice",
      "outputs": [
        {
          "internalType": "uint256",
          "name": "",
          "type": "uint256"
        }
      ],
      "stateMutability": "view",
      "type": "function"
    },
    {
      "inputs": [
        {
          "internalType": "uint256",
          "name": "dragonId",
          "type": "uint256"
        }
      ],
      "name": "cancelListing",
      "outputs": [],
      "stateMutability": "nonpayable",
      "type": "function"
    },
    {
      "inputs": [
        {
          "internalType": "uint256",
          "name": "offerId",
          "type": "uint256"
        }
      ],
      "name": "cancelTradeOffer",
      "outputs": [],
      "stateMutability": "nonpayable",
      "type": "function"
    },
    {
      "inputs": [
        {
          "internalType": "uint256",
          "name": "offeredDragonId",
          "type": "uint256"
        },
        {
          "internalType": "uint256",
          "name": "targetDragonId",
          "type": "uint256"
        },
        {
          "internalType": "address",
          "name": "targetOwner",
          "type": "address"
        },
        {
          "internalType": "uint256",
          "name": "offeredElement",
          "type": "uint256"
        },
        {
          "internalType": "uint256",
          "name": "offeredRarity",
          "type": "uint256"
        },
        {
          "internalType": "uint256",
          "name": "targetElement",
          "type": "uint256"
        },
        {
          "internalType": "uint256",
          "name": "targetRarity",
          "type": "uint256"
        }
      ],
      "name": "createTradeOffer",
      "outputs": [
        {
          "internalType": "uint256",
          "name": "",
          "type": "uint256"
        }
      ],
      "stateMutability": "payable",
      "type": "function"
    },
    {
      "inputs": [],
      "name": "dragonNFT",
      "outputs": [
        {
          "internalType": "contract IERC721",
          "name": "",
          "type": "address"
        }
      ],
      "stateMutability": "view",
      "type": "function"
    },
    {
      "inputs": [
        {
          "internalType": "uint256",
          "name": "",
          "type": "uint256"
        },
        {
          "internalType": "uint256",
          "name": "",
          "type": "uint256"
        }
      ],
      "name": "dragonTradeOffers",
      "outputs": [
        {
          "internalType": "uint256",
          "name": "",
          "type": "uint256"
        }
      ],
      "stateMutability": "view",
      "type": "function"
    },
    {
      "inputs": [
        {
          "internalType": "uint256",
          "name": "",
          "type": "uint256"
        },
        {
          "internalType": "uint256",
          "name": "",
          "type": "uint256"
        }
      ],
      "name": "floorPrices",
      "outputs": [
        {
          "internalType": "uint256",
          "name": "element",
          "type": "uint256"
        },
        {
          "internalType": "uint256",
          "name": "rarity",
          "type": "uint256"
        },
        {
          "internalType": "uint256",
          "name": "floorPrice",
          "type": "uint256"
        },
        {
          "internalType": "uint256",
          "name": "lastUpdated",
          "type": "uint256"
        }
      ],
      "stateMutability": "view",
      "type": "function"
    },
    {
      "inputs": [],
      "name": "getActiveListings",
      "outputs": [
        {
          "components": [
            {
              "internalType": "uint256",
              "name": "dragonId",
              "type": "uint256"
            },
            {
              "internalType": "address",
              "name": "seller",
              "type": "address"
            },
            {
              "internalType": "uint256",
              "name": "price",
              "type": "uint256"
            },
            {
              "internalType": "bool",
              "name": "isActive",
              "type": "bool"
            },
            {
              "internalType": "uint256",
              "name": "listedAt",
              "type": "uint256"
            }
          ],
          "internalType": "struct DragonMarketplace.Listing[]",
          "name": "",
          "type": "tuple[]"
        }
      ],
      "stateMutability": "view",
      "type": "function"
    },
    {
      "inputs": [
        {
          "internalType": "uint256",
          "name": "dragonId",
          "type": "uint256"
        }
      ],
      "name": "getTradeOffersForDragon",
      "outputs": [
        {
          "internalType": "uint256[]",
          "name": "",
          "type": "uint256[]"
        }
      ],
      "stateMutability": "view",
      "type": "function"
    },
    {
      "inputs": [
        {
          "internalType": "uint256",
          "name": "dragonId",
          "type": "uint256"
        },
        {
          "internalType": "uint256",
          "name": "price",
          "type": "uint256"
        }
      ],
      "name": "listDragon",
      "outputs": [],
      "stateMutability": "nonpayable",
      "type": "function"
    },
    {
      "inputs": [
        {
          "internalType": "uint256",
          "name": "",
          "type": "uint256"
        }
      ],
      "name": "listings",
      "outputs": [
        {
          "internalType": "uint256",
          "name": "dragonId",
          "type": "uint256"
        },
        {
          "internalType": "address",
          "name": "seller",
          "type": "address"
        },
        {
          "internalType": "uint256",
          "name": "price",
          "type": "uint256"
        },
        {
          "internalType": "bool",
          "name": "isActive",
          "type": "bool"
        },
        {
          "internalType": "uint256",
          "name": "listedAt",
          "type": "uint256"
        }
      ],
      "stateMutability": "view",
      "type": "function"
    },
    {
      "inputs": [],
      "name": "marketplaceFee",
      "outputs": [
        {
          "internalType": "uint256",
          "name": "",
          "type": "uint256"
        }
      ],
      "stateMutability": "view",
      "type": "function"
    },
    {
      "inputs": [],
      "name": "owner",
      "outputs": [
        {
          "internalType": "address",
          "name": "",
          "type": "address"
        }
      ],
      "stateMutability": "view",
      "type": "function"
    },
    {
      "inputs": [],
      "name": "renounceOwnership",
      "outputs": [],
      "stateMutability": "nonpayable",
      "type": "function"
    },
    {
      "inputs": [
        {
          "internalType": "uint256",
          "name": "",
          "type": "uint256"
        }
      ],
      "name": "salesHistory",
      "outputs": [
        {
          "internalType": "uint256",
          "name": "dragonId",
          "type": "uint256"
        },
        {
          "internalType": "uint256",
          "name": "price",
          "type": "uint256"
        },
        {
          "internalType": "uint256",
          "name": "timestamp",
          "type": "uint256"
        },
        {
          "internalType": "uint256",
          "name": "element",
          "type": "uint256"
        },
        {
          "internalType": "uint256",
          "name": "rarity",
          "type": "uint256"
        }
      ],
      "stateMutability": "view",
      "type": "function"
    },
    {
      "inputs": [
        {
          "internalType": "uint256",
          "name": "newFee",
          "type": "uint256"
        }
      ],
      "name": "setMarketplaceFee",
      "outputs": [],
      "stateMutability": "nonpayable",
      "type": "function"
    },
    {
      "inputs": [
        {
          "internalType": "uint256",
          "name": "newFee",
          "type": "uint256"
        }
      ],
      "name": "setTradeInFee",
      "outputs": [],
      "stateMutability": "nonpayable",
      "type": "function"
    },
    {
      "inputs": [],
      "name": "tradeInFee",
      "outputs": [
        {
          "internalType": "uint256",
          "name": "",
          "type": "uint256"
        }
      ],
      "stateMutability": "view",
      "type": "function"
    },
    {
      "inputs": [
        {
          "internalType": "uint256",
          "name": "",
          "type": "uint256"
        }
      ],
      "name": "tradeOffers",
      "outputs": [
        {
          "internalType": "uint256",
          "name": "offerId",
          "type": "uint256"
        },
        {
          "internalType": "address",
          "name": "offerer",
          "type": "address"
        },
        {
          "internalType": "uint256",
          "name": "offeredDragonId",
          "type": "uint256"
        },
        {
          "internalType": "address",
          "name": "target",
          "type": "address"
        },
        {
          "internalType": "uint256",
          "name": "targetDragonId",
          "type": "uint256"
        },
        {
          "internalType": "uint256",
          "name": "ethDifference",
          "type": "uint256"
        },
        {
          "internalType": "bool",
          "name": "isActive",
          "type": "bool"
        },
        {
          "internalType": "uint256",
          "name": "createdAt",
          "type": "uint256"
        },
        {
          "internalType": "uint256",
          "name": "expiresAt",
          "type": "uint256"
        }
      ],
      "stateMutability": "view",
      "type": "function"
    },
    {
      "inputs": [
        {
          "internalType": "address",
          "name": "newOwner",
          "type": "address"
        }
      ],
      "name": "transferOwnership",
      "outputs": [],
      "stateMutability": "nonpayable",
      "type": "function"
    },
    {
      "inputs": [
        {
          "internalType": "uint256",
          "name": "element",
          "type": "uint256"
        },
        {
          "internalType": "uint256",
          "name": "rarity",
          "type": "uint256"
        },
        {
          "internalType": "uint256",
          "name": "newFloor",
          "type": "uint256"
        }
      ],
      "name": "updateFloorPrice",
      "outputs": [],
      "stateMutability": "nonpayable",
      "type": "function"
    },
    {
      "inputs": [],
      "name": "withdrawFees",
      "outputs": [],
      "stateMutability": "nonpayable",
      "type": "function"
    },
    {
      "stateMutability": "payable",
      "type": "receive"
    }
  ],
  "bytecode": "0x6080346200035c57601f6200219b38819003918201601f19168301916001600160401b038311848410176200036157808492604094855283396020938491810103126200035c57516001600160a01b0390818116908190036200035c573315620003445760039293600091825460018060a01b031994338683161785553391167f8be0079c531659141344cd1fd0a4f28419497f9722a3daafe3b4186f6b6457e08580a36001938480556103e886556107d06004556002541617600255818360028380620000cc62000377565b858152818101908582528a8c808301662386f26fc100009485825260608501924284528b805260078852808c208b8d5288528b2094518555518985015551878401555191015584808c84815191858352837f2df3fc9611087e1428b8ced3c9c2ed6653d92b2f351a869bd136cfec04c6f6339d8e809a8196a36200014f62000377565b8481528f8c848301878152848401908a82528560608601934285528a815260078952818120895220945185555188850155518c8401555191015551858152a36200019862000377565b8481528a8c848301888152818401908582526060850192428452898c5260078852808c208b8d5288528b209451855551898501555187840155519101558a51908152a360028484848984868484620001ef62000377565b94838652818601958587528f8282019767016345785d8a0000988981526060840191428352888052600787528589208a8a52875285892094518555518d85015551888401555191015551858152a36200024762000377565b8481528a8c848301888152818401908582526060850192428452898c5260078852808c208b8d5288528b209451855551888501555188840155519101558a51908152a36200029462000377565b90808252828201918683528688820193670de0b6b3a7640000948581526060840191428352858052600788528b862084875288528b862094518555518985015551600284015551910155858185858a51868152a385620002f362000377565b91868352848301828152898401908582528a60608601934285528a815260078952818120868252895220945185555188850155516002840155519101558551908152a351611e039081620003988239f35b8251631e4fbdf760e01b815260006004820152602490fd5b600080fd5b634e487b7160e01b600052604160045260246000fd5b60405190608082016001600160401b03811183821017620003615760405256fe60406080815260048036101561001f575b5050361561001d57600080fd5b005b600091823560e01c806213363c1461194e57806320a564db146118bf578063305a67a8146117a4578063476343ee1461169157806348ff07191461166e57806349bf8b44146116455780635d5b90211461133757806361cf48631461130c57806365357b3d146110855780636a16696414611066578063715018a61461100c57806387c35bc014610dfe5780638d15978714610b765780638da5cb5b14610b4e5780638fa46ac914610a875780639407ea9814610a57578063a0e569ff14610a39578063aa2b2bd9146108ab578063ab265cb11461086a578063b190939e1461083a578063caf6ca01146107eb578063d73792a9146107ce578063de74e57b14610771578063ebcd0e2d14610284578063f16a3207146101df5763f2fde38b146101495750610010565b346101db5760203660031901126101db576001600160a01b038235818116939192908490036101d65761017a611a61565b83156101c0575050600054826001600160601b0360a01b821617600055167f8be0079c531659141344cd1fd0a4f28419497f9722a3daafe3b4186f6b6457e0600080a380f35b51631e4fbdf760e01b8152908101849052602490fd5b600080fd5b8280fd5b509134610281576020918260031936011261027d57929192358152600a8352818120908251808584549182815201908194845286842090845b818110610269575050508161022e910382611ad3565b83519485948186019282875251809352850193925b82811061025257505050500390f35b835185528695509381019392810192600101610243565b825484529288019260019283019201610218565b5080fd5b80fd5b5060e03660031901126101db576001600160a01b0392604480358581169480359360248035939091908890036101d6576102bc611b14565b60025487516331a9108f60e11b80825285820189905260209b928316918c818781865afa90811561076757859161074a575b50833391160361070757895190815286868201528b818681855afa9081156106fd578b9184918e87926106d0575b505016036106965785881461065457606435835260078b5288832060843584528b52600289842001549660a435845260078c5289842060c43585528c5260028a85200154978015158061064b575b1561061357849881811161059e575b505050803b156101db5788516323b872dd60e01b815233868201908152306020820152604081018a90529091849183919082908490829060600103925af1801561059457908391610580575b50506103d2600854611bf3565b988960085562093a8042019081421161056d57895192610120840184811067ffffffffffffffff82111761055957936104b860018f8f8f9998968f8f93978f93916009899c9a8f948f61010060089f8e60e0918a5284815285810199338b528101978852606081019a8b52608081019b8c5260a081019c8d5260c081019d8e52019d8e429052019d8e5252528d8d209b518c558160018d01935116926001600160601b0360a01b93848254161790555160028c015560038b0192511690825416179055518b880155516005870155511515600686019060ff801983541691151516179055565b51600784015551910155848152600a8a522090815492600160401b84101561054657505092608092610513837f71d76c00ffb4f5abbf79f321b52ae2b8885930ce3ffa7552059ad0c70e5da97d9660018b9996018155611a49565b81549060031b9088821b91600019901b191617905586519233845289840152868301526060820152a26001805551908152f35b604190634e487b7160e01b600052526000fd5b86604189634e487b7160e01b600052526000fd5b5050634e487b7160e01b82525060118352fd5b61058990611a8d565b61027d5781386103c5565b89513d85823e3d90fd5b6105c3929950906105ae91611b99565b6127106105bc885483611b70565b0490611be6565b968734106105d2578080610379565b857f496e73756666696369656e742045544820666f72207472616465000000000000606492601a8f89908f519562461bcd60e51b8752860152840152820152fd5b508572119b1bdbdc881c1c9a58d9481b9bdd081cd95d606a1b60649260138f89908f519562461bcd60e51b8752860152840152820152fd5b5088151561036a565b50875162461bcd60e51b81528085018b90526018818501527f43616e6e6f742074726164652073616d6520647261676f6e000000000000000081880152606490fd5b50875162461bcd60e51b81528085018b9052601581850152740a8c2e4cecae840deeedccae440dad2e6dac2e8c6d605b1b81880152606490fd5b6106ef9250803d106106f6575b6106e78183611ad3565b810190611af5565b388e61031c565b503d6106dd565b8a513d86823e3d90fd5b5050875162461bcd60e51b81528085018b9052601b818501527f4e6f74206f776e6572206f66206f66666572656420647261676f6e000000000081880152606490fd5b61076191508d803d106106f6576106e78183611ad3565b386102ee565b8b513d87823e3d90fd5b50346101db5760203660031901126101db578060a09383358152600560205220805492600180861b036001830154169260028301549160ff6003850154169301549381519586526020860152840152151560608301526080820152f35b83823461027d578160031936011261027d57602090516127108152f35b83823461027d57806080926107ff366119fc565b908252600760205282822090825260205220908154916001810154916003600283015492015492815194855260208501528301526060820152f35b50503461027d57602036600319011261027d57803590610858611a61565b610866611388831115611d92565b5580f35b83823461027d5761087a366119fc565b92908152600a602052818120908154841015610281575060209261089d91611a49565b91905490519160031b1c8152f35b5090346101db5760203660031901126101db578035916108c9611b14565b8284526009602052808420600681018054906108e760ff8316611c02565b60018301546001600160a01b03929083163303610a085760ff191690556002805490830154879392909116803b15610a045784516323b872dd60e01b8152308782019081523360208201526040810193909352918491839182908490829060600103925af180156109fa579083916109e6575b50506005015480610993575b50837fc754a4b878552d0fc775d075fea1dc22f51657a9ef39ede106fe10828e7b8caa8280a26001805580f35b81808092335af16109a2611ba6565b50156109af578381610966565b906020606492519162461bcd60e51b83528201526011602482015270115512081c99599d5b990819985a5b1959607a1b6044820152fd5b6109ef90611a8d565b61027d57813861095a565b84513d85823e3d90fd5b8380fd5b845162461bcd60e51b8152602081880152600b60248201526a2737ba1037b33332b932b960a91b6044820152606490fd5b5090346101db57826003193601126101db5760209250549051908152f35b50503461027d57602036600319011261027d5735610a73611a61565b610a816107d0821115611d92565b60035580f35b5090346101db5760603660031901126101db578035906024359260443591610aad611a61565b815190608082019082821067ffffffffffffffff831117610b395750917f2df3fc9611087e1428b8ced3c9c2ed6653d92b2f351a869bd136cfec04c6f6339391602093825285815260038482018881528383018581526060840191428352898c5260078852858c208b8d528852858c20945185555160018501555160028401555191015551908152a380f35b604190634e487b7160e01b6000525260246000fd5b83823461027d578160031936011261027d57905490516001600160a01b039091168152602090f35b508290602090816003193601126101db57833591610b92611b14565b82845260058152818420926003840191825493610bb160ff8616611b37565b600286015494853410610dc45760018060a01b03806001809901541695610be7612710610be06003548b611b70565b0489611b99565b9260ff1916905560025416803b15610dc05782516323b872dd60e01b815230818c019081523360208201526040810187905290918a9183919082908490829060600103925af18015610db657908991610d9e575b5080808093885af1610c4b611ba6565b5015610d6a57843411610d19575b805197610c6589611ab7565b83895282890190868252828a0142815260608b018a815260808c01918a8352600b54600160401b811015610d0657808c610ca29201600b556119ab565b959095610cf4577f921c8b778aa5da00e865fbebd027acf9388620c626df2cd24df3cf3768e96ed898999a9b9c9d518655518c86015551600285015551600384015551910155519485523394a4805580f35b634e487b7160e01b8d528c855260248dfd5b634e487b7160e01b8d526041855260248dfd5b86808080610d278934611b99565b335af1610d32611ba6565b50610c59575162461bcd60e51b815280880191909152600d60248201526c1499599d5b990819985a5b1959609a1b6044820152606490fd5b5162461bcd60e51b815280880191909152600e60248201526d14185e5b595b9d0819985a5b195960921b6044820152606490fd5b610da790611a8d565b610db257878a610c3b565b8780fd5b83513d8b823e3d90fd5b8880fd5b815162461bcd60e51b8152808a018490526014602482015273125b9cdd59999a58da595b9d081c185e5b595b9d60621b6044820152606490fd5b5091903461027d578160031936011261027d576006548291825b828110610fc45750610e2983611c41565b92610e3686519485611ad3565b808452610e45601f1991611c41565b01845b818110610f915750508390845b838110610ecd57505050508251916020808401908085528351809252808686019401925b828110610e865785850386f35b835180518652808301516001600160a01b03168684015287810151888701526060808201511515908701526080908101519086015260a09094019392810192600101610e79565b610ed681611a12565b9054600391821b1c875260059060209180835260ff9081838c8c20015416610f0b575b50505050610f0690611bf3565b610e55565b849692610f8794928792610f21610f0698611a12565b905490841b1c8d5284528c8c20918d5194610f3b86611ab7565b8354865260018401546001600160a01b03169086015260028301548e860152820154161515606084015201546080820152610f768289611c59565b52610f818188611c59565b50611bf3565b9290388080610ef9565b6020908751610f9f81611ab7565b878152828881830152888a830152886060830152886080830152828801015201610e48565b60ff610fcf82611a12565b9054600391821b1c87526005602052878720015416610ff7575b610ff290611bf3565b610e18565b92611004610ff291611bf3565b939050610fe9565b8334610281578060031936011261028157611025611a61565b600080546001600160a01b0319811682556001600160a01b03167f8be0079c531659141344cd1fd0a4f28419497f9722a3daafe3b4186f6b6457e08280a380f35b83823461027d578160031936011261027d576020906003549051908152f35b50346101db57611094366119fc565b92909161109f611b14565b60025481516331a9108f60e11b8152808401859052602093916001600160a01b0391908216908581602481855afa9081156113025789916112e5575b5082339116036112b657861561127f578588526005855260ff6003858a2001541661124b578088913b1561027d5784516323b872dd60e01b815233858201908152306020820152604081018990529091839183919082908490829060600103925af1801561124157611229575b5082906111be85519361115a85611ab7565b888552878501338152878601908b82526060870192600184528960808901964288528d815260058d522097518855600188019151166001600160601b0360a01b825416179055516002860155511515600385019060ff801983541691151516179055565b5191015560065490600160401b821015610b395750906112068260017f8f95eb146180baeccb688c7d9448e2186ec121c1a7891ccb4398434aec159936959401600655611a12565b81549060031b9086821b91600019901b1916179055519384523393a36001805580f35b61123290611a8d565b61123d578638611148565b8680fd5b85513d84823e3d90fd5b835162461bcd60e51b8152808401869052600e60248201526d105b1c9958591e481b1a5cdd195960921b6044820152606490fd5b835162461bcd60e51b8152808401869052601160248201527005072696365206d757374206265203e203607c1b6044820152606490fd5b835162461bcd60e51b815280840186905260096024820152682737ba1037bbb732b960b91b6044820152606490fd5b6112fc9150863d88116106f6576106e78183611ad3565b386110db565b85513d8b823e3d90fd5b5090346101db5760203660031901126101db573591600654831015610281575061089d602092611a12565b50346101db57602080600319360112610a0457823592611355611b14565b8385526009825282852091600683019384549361137460ff8616611c02565b60038101546001600160a01b039690871633036116115760088201544210156115de5786600254169560248587850154988651928380926331a9108f60e11b82528c8c8301525afa9081156115d4578b916115b7575b508833911603611574579089929160ff19169055866002541695600182019688885416813b156115525785516323b872dd60e01b80825233828b019081526001600160a01b039093166020840152604083019490945291859183919082908490829060600103925af1801561156a57908491611556575b50508760025416906002830154823b156115525785519182523088830190815233602082015260408101919091529091849183919082908490829060600103925af180156109fa5790839161153e575b505060050154806114d2575b505050505054169033907f1368b7350e5e5d1defe357e4992c04f76331b806f36fb57436abb2354d5035338480a46001805580f35b81806114ef81936127106114e860035483611b70565b0490611b99565b335af16114fa611ba6565b501561150757868161149d565b5162461bcd60e51b8152918201526013602482015272115512081d1c985b9cd9995c8819985a5b1959606a1b604482015260649150fd5b61154790611a8d565b61027d578138611491565b8480fd5b61155f90611a8d565b6101db578238611441565b85513d86823e3d90fd5b835162461bcd60e51b8152808701869052601760248201527f446f6e2774206f776e2074617267657420647261676f6e0000000000000000006044820152606490fd5b6115ce9150863d88116106f6576106e78183611ad3565b386113ca565b85513d8d823e3d90fd5b50505162461bcd60e51b815291820152600d60248201526c13d999995c88195e1c1a5c9959609a1b604482015260649150fd5b50505162461bcd60e51b815291820152600e60248201526d139bdd081d1a19481d185c99d95d60921b604482015260649150fd5b83823461027d578160031936011261027d5760025490516001600160a01b039091168152602090f35b83823461027d5760209061168a611684366119fc565b90611c6d565b9051908152f35b50346101db57826003193601126101db576116aa611a61565b4783906001600854905b81811115611763575050906116c891611b99565b801561172a57835484918291829182916001600160a01b03165af16116eb611ba6565b50156116f5578280f35b906020606492519162461bcd60e51b8352820152600f60248201526e15da5d1a191c985dc819985a5b1959608a1b6044820152fd5b815162461bcd60e51b815260208185015260136024820152724e6f206665657320746f20776974686472617760681b6044820152606490fd5b808752600960205284872060ff60068201541661178a575b5061178590611bf3565b6116b4565b6117859194600561179d92015490611be6565b939061177b565b5082903461027d57602036600319011261027d578235926117c3611b14565b83835260056020528183206003810180546001926117e360ff8316611b37565b838060a01b03938491015416330361188f5760ff191690556002541690813b15610a045782516323b872dd60e01b815230918101918252336020830152604082018690529291849184919082908490829060600103925af19081156118865750611877575b509033907f8e25282255ab31897df2b0456bb993ac7f84d376861aefd84901d2d63a7428a28380a36001805580f35b61188090611a8d565b82611848565b513d84823e3d90fd5b845162461bcd60e51b8152602081860152600a6024820152692737ba1039b2b63632b960b11b6044820152606490fd5b5090346101db5760203660031901126101db5781610120938235815260096020522080549260018060a01b038060018401541693600284015491600385015416908401549060058501549260ff6006870154169460086007880154970154978151998a5260208a01528801526060870152608086015260a0850152151560c084015260e0830152610100820152f35b50346101db5760203660031901126101db57813592600b54841015610281575061197960a0936119ab565b508054926001820154926002830154916003840154930154938151958652602086015284015260608301526080820152f35b600b548110156119e657600590600b600052027f0175b7a638427703f0dbe7bb9bbf987a2551717b34e79f33b5b1008d1fa01db90190600090565b634e487b7160e01b600052603260045260246000fd5b60409060031901126101d6576004359060243590565b6006548110156119e65760066000527ff652222313e28459528d920b65115c16c04f3efc82aaedc97be59f3f377c0d3f0190600090565b80548210156119e65760005260206000200190600090565b6000546001600160a01b03163303611a7557565b60405163118cdaa760e01b8152336004820152602490fd5b67ffffffffffffffff8111611aa157604052565b634e487b7160e01b600052604160045260246000fd5b60a0810190811067ffffffffffffffff821117611aa157604052565b90601f8019910116810190811067ffffffffffffffff821117611aa157604052565b908160209103126101d657516001600160a01b03811681036101d65790565b600260015414611b25576002600155565b604051633ee5aeb560e01b8152600490fd5b15611b3e57565b60405162461bcd60e51b815260206004820152600a602482015269139bdd081b1a5cdd195960b21b6044820152606490fd5b81810292918115918404141715611b8357565b634e487b7160e01b600052601160045260246000fd5b91908203918211611b8357565b3d15611be1573d9067ffffffffffffffff8211611aa15760405191611bd5601f8201601f191660200184611ad3565b82523d6000602084013e565b606090565b91908201809211611b8357565b6000198114611b835760010190565b15611c0957565b60405162461bcd60e51b815260206004820152601060248201526f4f66666572206e6f742061637469766560801b6044820152606490fd5b67ffffffffffffffff8111611aa15760051b60200190565b80518210156119e65760209160051b010190565b4262093a7f198101939260009283928611611d7e57600b54805b611cc3575b509091928094955015611c9f5750500490565b91509150600052600760205260406000209060005260205260026040600020015490565b6000198101818111611b8357611cd8906119ab565b50608060409189835193611ceb85611ab7565b825485526001830154948560208201526002840154809282015260046003850154948560608401520154948591015210611d7657848691149182611d6c575b5050611d50575b50600a851015611d4b578015611b83576000190180611c87565b611c8c565b611d5f90611d65929695611be6565b93611bf3565b9338611d31565b1490508438611d2a565b505050611c8c565b634e487b7160e01b84526011600452602484fd5b15611d9957565b60405162461bcd60e51b815260206004820152600c60248201526b08ccaca40e8dede40d0d2ced60a31b6044820152606490fdfea26469706673582212205d8f5d4e9954a447e0e9385755d3df944cde4b722786b7cf68c0ff1f1907692b64736f6c63430008140033",
  "linkReferences": {},
  "deployedLinkReferences": {}
}