{
  "_format": "hh-sol-artifact-1",
  "contractName": "MissionSystem",
  "sourceName": "contracts/MissionSystem.sol",
  "abi": [
    {
      "inputs": [
        {
          "internalType": "address",
          "name": "_dragonNFT",
          "type": "address"
        }
      ],
      "stateMutability": "nonpayable",
      "type": "constructor"
    },
    {
      "inputs": [
        {
          "internalType": "address",
          "name": "owner",
          "type": "address"
        }
      ],
      "name": "OwnableInvalidOwner",
      "type": "error"
    },
    {
      "inputs": [
        {
          "internalType": "address",
          "name": "account",
          "type": "address"
        }
      ],
      "name": "OwnableUnauthorizedAccount",
      "type": "error"
    },
    {
      "inputs": [],
      "name": "ReentrancyGuardReentrantCall",
      "type": "error"
    },
    {
      "anonymous": false,
      "inputs": [
        {
          "indexed": true,
          "internalType": "uint256",
          "name": "missionId",
          "type": "uint256"
        },
        {
          "indexed": true,
          "internalType": "address",
          "name": "player",
          "type": "address"
        },
        {
          "indexed": false,
          "internalType": "uint256",
          "name": "completionIndex",
          "type": "uint256"
        }
      ],
      "name": "MissionCompleted",
      "type": "event"
    },
    {
      "anonymous": false,
      "inputs": [
        {
          "indexed": true,
          "internalType": "uint256",
          "name": "missionId",
          "type": "uint256"
        },
        {
          "indexed": true,
          "internalType": "address",
          "name": "creator",
          "type": "address"
        },
        {
          "indexed": false,
          "internalType": "uint256",
          "name": "creatorDragonId",
          "type": "uint256"
        },
        {
          "indexed": false,
          "internalType": "enum MissionSystem.MissionType",
          "name": "missionType",
          "type": "uint8"
        },
        {
          "indexed": false,
          "internalType": "uint256",
          "name": "rewardETH",
          "type": "uint256"
        }
      ],
      "name": "MissionCreated",
      "type": "event"
    },
    {
      "anonymous": false,
      "inputs": [
        {
          "indexed": true,
          "internalType": "uint256",
          "name": "missionId",
          "type": "uint256"
        },
        {
          "indexed": true,
          "internalType": "address",
          "name": "player",
          "type": "address"
        },
        {
          "indexed": false,
          "internalType": "bool",
          "name": "approved",
          "type": "bool"
        }
      ],
      "name": "MissionVerified",
      "type": "event"
    },
    {
      "anonymous": false,
      "inputs": [
        {
          "indexed": true,
          "internalType": "address",
          "name": "previousOwner",
          "type": "address"
        },
        {
          "indexed": true,
          "internalType": "address",
          "name": "newOwner",
          "type": "address"
        }
      ],
      "name": "OwnershipTransferred",
      "type": "event"
    },
    {
      "anonymous": false,
      "inputs": [
        {
          "indexed": true,
          "internalType": "uint256",
          "name": "missionId",
          "type": "uint256"
        },
        {
          "indexed": true,
          "internalType": "address",
          "name": "player",
          "type": "address"
        },
        {
          "indexed": false,
          "internalType": "uint256",
          "name": "rewardETH",
          "type": "uint256"
        },
        {
          "indexed": false,
          "internalType": "uint256",
          "name": "rewardTokens",
          "type": "uint256"
        }
      ],
      "name": "RewardClaimed",
      "type": "event"
    },
    {
      "inputs": [],
      "name": "MIN_RARITY_FOR_MISSIONS",
      "outputs": [
        {
          "internalType": "uint256",
          "name": "",
          "type": "uint256"
        }
      ],
      "stateMutability": "view",
      "type": "function"
    },
    {
      "inputs": [
        {
          "internalType": "uint256",
          "name": "missionId",
          "type": "uint256"
        }
      ],
      "name": "cancelMission",
      "outputs": [],
      "stateMutability": "nonpayable",
      "type": "function"
    },
    {
      "inputs": [
        {
          "internalType": "uint256",
          "name": "missionId",
          "type": "uint256"
        }
      ],
      "name": "claimReward",
      "outputs": [],
      "stateMutability": "nonpayable",
      "type": "function"
    },
    {
      "inputs": [
        {
          "internalType": "uint256",
          "name": "missionId",
          "type": "uint256"
        },
        {
          "internalType": "string",
          "name": "proofData",
          "type": "string"
        }
      ],
      "name": "completeMission",
      "outputs": [],
      "stateMutability": "nonpayable",
      "type": "function"
    },
    {
      "inputs": [
        {
          "internalType": "uint256",
          "name": "dragonId",
          "type": "uint256"
        },
        {
          "internalType": "enum MissionSystem.MissionType",
          "name": "missionType",
          "type": "uint8"
        },
        {
          "internalType": "string",
          "name": "title",
          "type": "string"
        },
        {
          "internalType": "string",
          "name": "description",
          "type": "string"
        },
        {
          "internalType": "string",
          "name": "verificationData",
          "type": "string"
        },
        {
          "internalType": "uint256",
          "name": "expMultiplier",
          "type": "uint256"
        },
        {
          "internalType": "uint256",
          "name": "maxCompletions",
          "type": "uint256"
        },
        {
          "internalType": "uint256",
          "name": "durationDays",
          "type": "uint256"
        },
        {
          "internalType": "bool",
          "name": "requiresVerification",
          "type": "bool"
        }
      ],
      "name": "createMission",
      "outputs": [
        {
          "internalType": "uint256",
          "name": "",
          "type": "uint256"
        }
      ],
      "stateMutability": "payable",
      "type": "function"
    },
    {
      "inputs": [],
      "name": "dragonNFT",
      "outputs": [
        {
          "internalType": "contract IERC721",
          "name": "",
          "type": "address"
        }
      ],
      "stateMutability": "view",
      "type": "function"
    },
    {
      "inputs": [
        {
          "internalType": "uint256",
          "name": "missionId",
          "type": "uint256"
        }
      ],
      "name": "fundMission",
      "outputs": [],
      "stateMutability": "payable",
      "type": "function"
    },
    {
      "inputs": [],
      "name": "getActiveMissions",
      "outputs": [
        {
          "components": [
            {
              "internalType": "uint256",
              "name": "id",
              "type": "uint256"
            },
            {
              "internalType": "address",
              "name": "creator",
              "type": "address"
            },
            {
              "internalType": "uint256",
              "name": "creatorDragonId",
              "type": "uint256"
            },
            {
              "internalType": "enum MissionSystem.MissionType",
              "name": "missionType",
              "type": "uint8"
            },
            {
              "internalType": "string",
              "name": "title",
              "type": "string"
            },
            {
              "internalType": "string",
              "name": "description",
              "type": "string"
            },
            {
              "internalType": "string",
              "name": "verificationData",
              "type": "string"
            },
            {
              "internalType": "uint256",
              "name": "rewardETH",
              "type": "uint256"
            },
            {
              "internalType": "uint256",
              "name": "rewardTokens",
              "type": "uint256"
            },
            {
              "internalType": "uint256",
              "name": "expMultiplier",
              "type": "uint256"
            },
            {
              "internalType": "uint256",
              "name": "maxCompletions",
              "type": "uint256"
            },
            {
              "internalType": "uint256",
              "name": "completionsCount",
              "type": "uint256"
            },
            {
              "internalType": "uint256",
              "name": "expiresAt",
              "type": "uint256"
            },
            {
              "internalType": "enum MissionSystem.MissionStatus",
              "name": "status",
              "type": "uint8"
            },
            {
              "internalType": "bool",
              "name": "requiresVerification",
              "type": "bool"
            }
          ],
          "internalType": "struct MissionSystem.Mission[]",
          "name": "",
          "type": "tuple[]"
        }
      ],
      "stateMutability": "view",
      "type": "function"
    },
    {
      "inputs": [
        {
          "internalType": "uint256",
          "name": "missionId",
          "type": "uint256"
        }
      ],
      "name": "getMissionCompletions",
      "outputs": [
        {
          "components": [
            {
              "internalType": "uint256",
              "name": "missionId",
              "type": "uint256"
            },
            {
              "internalType": "address",
              "name": "player",
              "type": "address"
            },
            {
              "internalType": "uint256",
              "name": "completedAt",
              "type": "uint256"
            },
            {
              "internalType": "string",
              "name": "proofData",
              "type": "string"
            },
            {
              "internalType": "bool",
              "name": "verified",
              "type": "bool"
            },
            {
              "internalType": "bool",
              "name": "rewardClaimed",
              "type": "bool"
            }
          ],
          "internalType": "struct MissionSystem.MissionCompletion[]",
          "name": "",
          "type": "tuple[]"
        }
      ],
      "stateMutability": "view",
      "type": "function"
    },
    {
      "inputs": [
        {
          "internalType": "address",
          "name": "player",
          "type": "address"
        }
      ],
      "name": "getPlayerCompletedMissions",
      "outputs": [
        {
          "internalType": "uint256[]",
          "name": "",
          "type": "uint256[]"
        }
      ],
      "stateMutability": "view",
      "type": "function"
    },
    {
      "inputs": [
        {
          "internalType": "uint256",
          "name": "",
          "type": "uint256"
        },
        {
          "internalType": "uint256",
          "name": "",
          "type": "uint256"
        }
      ],
      "name": "missionCompletions",
      "outputs": [
        {
          "internalType": "uint256",
          "name": "missionId",
          "type": "uint256"
        },
        {
          "internalType": "address",
          "name": "player",
          "type": "address"
        },
        {
          "internalType": "uint256",
          "name": "completedAt",
          "type": "uint256"
        },
        {
          "internalType": "string",
          "name": "proofData",
          "type": "string"
        },
        {
          "internalType": "bool",
          "name": "verified",
          "type": "bool"
        },
        {
          "internalType": "bool",
          "name": "rewardClaimed",
          "type": "bool"
        }
      ],
      "stateMutability": "view",
      "type": "function"
    },
    {
      "inputs": [],
      "name": "missionCreationFee",
      "outputs": [
        {
          "internalType": "uint256",
          "name": "",
          "type": "uint256"
        }
      ],
      "stateMutability": "view",
      "type": "function"
    },
    {
      "inputs": [
        {
          "internalType": "uint256",
          "name": "",
          "type": "uint256"
        }
      ],
      "name": "missions",
      "outputs": [
        {
          "internalType": "uint256",
          "name": "id",
          "type": "uint256"
        },
        {
          "internalType": "address",
          "name": "creator",
          "type": "address"
        },
        {
          "internalType": "uint256",
          "name": "creatorDragonId",
          "type": "uint256"
        },
        {
          "internalType": "enum MissionSystem.MissionType",
          "name": "missionType",
          "type": "uint8"
        },
        {
          "internalType": "string",
          "name": "title",
          "type": "string"
        },
        {
          "internalType": "string",
          "name": "description",
          "type": "string"
        },
        {
          "internalType": "string",
          "name": "verificationData",
          "type": "string"
        },
        {
          "internalType": "uint256",
          "name": "rewardETH",
          "type": "uint256"
        },
        {
          "internalType": "uint256",
          "name": "rewardTokens",
          "type": "uint256"
        },
        {
          "internalType": "uint256",
          "name": "expMultiplier",
          "type": "uint256"
        },
        {
          "internalType": "uint256",
          "name": "maxCompletions",
          "type": "uint256"
        },
        {
          "internalType": "uint256",
          "name": "completionsCount",
          "type": "uint256"
        },
        {
          "internalType": "uint256",
          "name": "expiresAt",
          "type": "uint256"
        },
        {
          "internalType": "enum MissionSystem.MissionStatus",
          "name": "status",
          "type": "uint8"
        },
        {
          "internalType": "bool",
          "name": "requiresVerification",
          "type": "bool"
        }
      ],
      "stateMutability": "view",
      "type": "function"
    },
    {
      "inputs": [],
      "name": "owner",
      "outputs": [
        {
          "internalType": "address",
          "name": "",
          "type": "address"
        }
      ],
      "stateMutability": "view",
      "type": "function"
    },
    {
      "inputs": [
        {
          "internalType": "address",
          "name": "",
          "type": "address"
        },
        {
          "internalType": "uint256",
          "name": "",
          "type": "uint256"
        }
      ],
      "name": "playerCompletedMissions",
      "outputs": [
        {
          "internalType": "uint256",
          "name": "",
          "type": "uint256"
        }
      ],
      "stateMutability": "view",
      "type": "function"
    },
    {
      "inputs": [
        {
          "internalType": "address",
          "name": "",
          "type": "address"
        },
        {
          "internalType": "uint256",
          "name": "",
          "type": "uint256"
        }
      ],
      "name": "playerMissions",
      "outputs": [
        {
          "internalType": "uint256",
          "name": "",
          "type": "uint256"
        }
      ],
      "stateMutability": "view",
      "type": "function"
    },
    {
      "inputs": [],
      "name": "renounceOwnership",
      "outputs": [],
      "stateMutability": "nonpayable",
      "type": "function"
    },
    {
      "inputs": [
        {
          "internalType": "uint256",
          "name": "newFee",
          "type": "uint256"
        }
      ],
      "name": "setMissionCreationFee",
      "outputs": [],
      "stateMutability": "nonpayable",
      "type": "function"
    },
    {
      "inputs": [
        {
          "internalType": "address",
          "name": "newOwner",
          "type": "address"
        }
      ],
      "name": "transferOwnership",
      "outputs": [],
      "stateMutability": "nonpayable",
      "type": "function"
    },
    {
      "inputs": [
        {
          "internalType": "uint256",
          "name": "missionId",
          "type": "uint256"
        },
        {
          "internalType": "address",
          "name": "player",
          "type": "address"
        },
        {
          "internalType": "bool",
          "name": "approved",
          "type": "bool"
        }
      ],
      "name": "verifyCompletion",
      "outputs": [],
      "stateMutability": "nonpayable",
      "type": "function"
    },
    {
      "inputs": [],
      "name": "withdrawFees",
      "outputs": [],
      "stateMutability": "nonpayable",
      "type": "function"
    }
  ],
  "bytecode": "0x6080346100d557601f61238738819003918201601f19168301916001600160401b038311848410176100da578084926020946040528339810103126100d557516001600160a01b0390818116908190036100d55733156100bc5760005460018060a01b0319903382821617600055604051933391167f8be0079c531659141344cd1fd0a4f28419497f9722a3daafe3b4186f6b6457e0600080a36001805566038d7ea4c68000600855600254161760025561229690816100f18239f35b604051631e4fbdf760e01b815260006004820152602490fd5b600080fd5b634e487b7160e01b600052604160045260246000fdfe608080604052600436101561001357600080fd5b60003560e01c90816305f6e56f14611a2d575080630c73bef014611a0c5780632c8fe526146118dc57806343e38330146117e657806345a8eac914611677578063476343ee1461154f57806349287f97146114ad57806349bf8b4414611484578063676209dc1461107b578063715018a6146110225780638093f10e14610f7b5780638da5cb5b14610f52578063a8cfb47f14610f34578063a8d45e0b1461075c578063ae169a5014610738578063aedfab45146106ee578063bed50726146106a4578063dbe0a504146102a0578063e436bdb0146101ec578063e9d0e76c146101945763f2fde38b1461010657600080fd5b3461018f57602036600319011261018f5761011f611c6d565b610127611c9b565b6001600160a01b0390811690811561017657600054826001600160601b0360a01b821617600055167f8be0079c531659141344cd1fd0a4f28419497f9722a3daafe3b4186f6b6457e0600080a3005b604051631e4fbdf760e01b815260006004820152602490fd5b600080fd5b3461018f57604036600319011261018f576101ad611c6d565b6001600160a01b031660009081526007602052604090208054602435919082101561018f576020916101de91611c83565b90546040519160031b1c8152f35b3461018f5760208060031936011261018f576001600160a01b0361020e611c6d565b1660005260078152604060002060405190818382549182815201908192600052846000209060005b8682821061028c57868661024c82880383611ab8565b604051928392818401908285525180915260408401929160005b82811061027557505050500390f35b835185528695509381019392810192600101610266565b835485529093019260019283019201610236565b3461018f57600036600319011261018f57600060016003908154905b8181111561063a57506102ce83612235565b926102dc6040519485611ab8565b8084526102eb601f1991612235565b0160005b8181106105b6575050600060015b82811115610433576040805160208082528751818301819052600093600582901b8401810192808b01929185015b8287106103385785850386f35b909192938280600192603f1989820301855287519081518152848060a01b038383015116838201526040820151604082015261037c60608084015190830190611b7f565b6103c26103af61039c608080860151906101e08091870152850190611b8c565b60a0808601519085830390860152611b8c565b60c0808501519084830390850152611b8c565b9160e081015160e0830152610100808201519083015261012080820151908301526101408082015190830152610160808201519083015261018080820151908301526104176101a08083015190840190611bcc565b6101c0809101511515910152960192019601959291909261032b565b8060005260206004815260ff600d9181836040600020015416600481101561058757158061059d575b610472575b50505061046d90611cc7565b6102fd565b836000959293949552600481526040600020936040519161049283611a9c565b8554835260018601546001600160a01b03169083015260028501546040830152878501546104c590851660608401611ce3565b6104d160048601611ad9565b60808301526104e260058601611ad9565b60a08301526104f360068601611ad9565b60c0830152600785015460e0830152600894858101546101008401526009810154610120840152600a810154610140840152600b810154610160840152600c8101546101808401520154928084169360048510156105875761046d9561057e956101a08501521c1615156101c082015261056d828961224c565b52610578818861224c565b50611cc7565b91908680610461565b634e487b7160e01b600052602160045260246000fd5b508360005260048152600c60406000200154421061045c565b6020906040516105c581611a9c565b60008152826000818301526000604083015260606000818401528060808401528060a084015260c0830152600060e08301526000610100830152600061012083015260006101408301526000610160830152600061018083015260006101a083015260006101c08301528288010152016102ef565b8060005260206004815260ff600d604060002001541660048110156105875715908161068a575b50610675575b61067090611cc7565b6102bc565b9261068261067091611cc7565b939050610667565b600491508260005252600c60406000200154421085610661565b3461018f57606036600319011261018f576024356001600160a01b038116810361018f57604435801515810361018f576106e8916106e0611d24565b600435611dd7565b60018055005b3461018f57604036600319011261018f57610707611c6d565b6001600160a01b031660009081526006602052604090208054602435919082101561018f576020916101de91611c83565b3461018f57602036600319011261018f57610751611d24565b6106e8600435611fc3565b61012036600319011261018f576008602435101561018f576044356001600160401b03811161018f57610793903690600401611c26565b6064356001600160401b03811161018f576107b2903690600401611c26565b6084356001600160401b03811161018f576107d1903690600401611c26565b906101043590811515820361018f576107e8611d24565b6002546040516331a9108f60e11b8152600480359082015290602090829060249082906001600160a01b03165afa908115610f2857600091610ee6575b50336001600160a01b0390911603610eae576008543410610e695760c43515610e245760e435151580610e16575b15610dde57610863600354611cc7565b92836003556201518060e4358160e4350204811460e435151715610dc85761088f9060e4350242611cd6565b916040519561089d87611a9c565b85875233602088015260043560408801526108bd60243560608901611ce3565b608087015260a086015260c0850152600060e0850152600061010085015260a43561012085015260c435610140850152600061016085015261018084015260006101a084015215156101c08301528060005260046020526040600020825181556001810160018060a01b036020850151166001600160601b0360a01b825416179055604083015160028201556060830151600881101561058757600382019060ff8019835416911617905560808301519283516001600160401b038111610c305761098b6004840154611a47565b601f8111610d81575b506020601f8211600114610d12578192939495600092610d07575b50508160011b916000199060031b1c19161760048301555b60a08101519283516001600160401b038111610c30576109ea6005850154611a47565b601f8111610cc0575b506020601f8211600114610c51578192939495600092610c46575b50508160011b916000199060031b1c19161760058401555b60c08201519283516001600160401b038111610c3057610a496006830154611a47565b601f8111610be9575b506020601f8211600114610b76578190600d949596600092610b6b575b50508160011b916000199060031b1c19161760068201555b60e0840151600782015561010084015160088201556101208401516009820155610140840151600a820155610160840151600b820155610180840151600c82015501916101a08101519260048410156105875780546101c0929092015161ffff1990921660ff9094169390931790151560081b61ff0016179091556020903360005260068252610b1b816040600020611cef565b6040516004358152610b31838201602435611b7f565b60006040820152817f897f9767940a95ad463f2a9dc0a5c47499f1a7ab5af19e155bdc8db262093a1560603393a360018055604051908152f35b015190508680610a6f565b6006830160005260206000209560005b601f1984168110610bd15750958291600d959697600194601f19811610610bb8575b505050811b016006820155610a87565b015160001960f88460031b161c19169055868080610ba8565b82820151885560019097019660209283019201610b86565b600683016000526020600020601f830160051c810160208410610c29575b601f830160051c82018110610c1d575050610a52565b60008155600101610c07565b5080610c07565b634e487b7160e01b600052604160045260246000fd5b015190508580610a0e565b6005850160005260206000209060005b601f1984168110610ca8575060019394959683601f19811610610c8f575b505050811b016005840155610a26565b015160001960f88460031b161c19169055858080610c7f565b9091602060018192858b015181550193019101610c61565b600585016000526020600020601f830160051c810160208410610d00575b601f830160051c82018110610cf45750506109f3565b60008155600101610cde565b5080610cde565b0151905085806109af565b6004840160005260206000209060005b601f1984168110610d69575060019394959683601f19811610610d50575b505050811b0160048301556109c7565b015160001960f88460031b161c19169055858080610d40565b9091602060018192858b015181550193019101610d22565b600484016000526020600020601f830160051c810160208410610dc1575b601f830160051c82018110610db5575050610994565b60008155600101610d9f565b5080610d9f565b634e487b7160e01b600052601160045260246000fd5b60405162461bcd60e51b815260206004820152601060248201526f24b73b30b634b210323ab930ba34b7b760811b6044820152606490fd5b5061016d60e4351115610853565b60405162461bcd60e51b815260206004820152601b60248201527f4d617820636f6d706c6574696f6e73206d757374206265203e203000000000006044820152606490fd5b60405162461bcd60e51b815260206004820152601960248201527f496e73756666696369656e74206372656174696f6e20666565000000000000006044820152606490fd5b60405162461bcd60e51b815260206004820152601060248201526f2737ba10323930b3b7b71037bbb732b960811b6044820152606490fd5b90506020813d602011610f20575b81610f0160209383611ab8565b8101031261018f57516001600160a01b038116810361018f5785610825565b3d9150610ef4565b6040513d6000823e3d90fd5b3461018f57600036600319011261018f576020600854604051908152f35b3461018f57600036600319011261018f576000546040516001600160a01b039091168152602090f35b602036600319011261018f57610f8f611d24565b60043560005260046020526040600020610fb660018060a01b036001830154163314611d47565b60ff600d82015416600481101561058757610fd19015611d89565b3415610fed57600701610fe5348254611cd6565b905560018055005b60405162461bcd60e51b815260206004820152600d60248201526c09aeae6e840e6cadcc8408aa89609b1b6044820152606490fd5b3461018f57600036600319011261018f5761103b611c9b565b600080546001600160a01b0319811682556001600160a01b03167f8be0079c531659141344cd1fd0a4f28419497f9722a3daafe3b4186f6b6457e08280a3005b3461018f57604036600319011261018f576024356001600160401b03811161018f576110ab903690600401611c26565b6110b3611d24565b6004356000526004602052604060002090600d8201549060ff82166004811015610587576110e19015611d89565b600c83015442101561144d57600b830154600a84015411156114195760043560005260056020526040600020916000908354915b8281106113b4575060ff906040519361112d85611a81565b6004358552336020860152426040860152606085015260081c16156080830152600060a0830152600160401b811015610c30578060016111709201845583611bd9565b61139e57815181556001810160018060a01b036020840151166001600160601b0360a01b8254161790556040820151600282015560608201518051906001600160401b038211610c30576111c76003840154611a47565b601f8111611357575b50602090601f83116001146112de57928260a09360049361124297966000926112d3575b50508160011b916000199060031b1c19161760038201555b019161122a60808201511515849060ff801983541691151516179055565b0151815461ff00191690151560081b61ff0016179055565b61124f600b830154611cc7565b600b83015533600052600760205261126d6004356040600020611cef565b54600019810191908211610dc857600d60ff9160405184815233907f369260990bee183b35114396b189aad17928064fcd9755e1b794808d1f86707b602060043592a3015460081c16156112c15760018055005b6112cd906004356120c2565b806106e8565b0151905089806111f4565b906003840160005260206000209160005b601f198516811061133f57508360049361124297969360019360a097601f19811610611326575b505050811b01600382015561120c565b015160001960f88460031b161c19169055898080611316565b919260206001819286850151815501940192016112ef565b600384016000526020600020601f840160051c810160208510611397575b601f830160051c8201811061138b5750506111d0565b60008155600101611375565b5080611375565b634e487b7160e01b600052600060045260246000fd5b6113be8186611bd9565b50600101546001600160a01b031633146113e0576113db90611cc7565b611115565b60405162461bcd60e51b8152602060048201526011602482015270105b1c9958591e4818dbdb5c1b195d1959607a1b6044820152606490fd5b60405162461bcd60e51b815260206004820152600c60248201526b135a5cdcda5bdb88199d5b1b60a21b6044820152606490fd5b60405162461bcd60e51b815260206004820152600f60248201526e135a5cdcda5bdb88195e1c1a5c9959608a1b6044820152606490fd5b3461018f57600036600319011261018f576002546040516001600160a01b039091168152602090f35b3461018f57604036600319011261018f576024356004356000526005602052604060002090815481101561018f576114e491611bd9565b50805460018060a01b036001830154169160ff611535600283015492600461150e60038301611ad9565b9101549360405196879687526020870152604086015260c0606086015260c0850190611b8c565b918181161515608085015260081c16151560a08301520390f35b3461018f57600036600319011261018f57611568611c9b565b60035460004760015b8381111561161d576115838383611dca565b80156115e25760008080809360018060a01b038254165af16115a3612092565b50156115ab57005b60405162461bcd60e51b815260206004820152600f60248201526e15da5d1a191c985dc819985a5b1959608a1b6044820152606490fd5b60405162461bcd60e51b81526020600482015260136024820152724e6f206665657320746f20776974686472617760681b6044820152606490fd5b8060005260206004815260ff600d604060002001541660048110156105875715611651575b5061164c90611cc7565b611571565b819360046116709261164c946000525260076040600020015490611cd6565b9290611642565b3461018f5760208060031936011261018f5760043560005260059081815260406000208054916116a683612235565b926116b46040519485611ab8565b808452818401809360005282600020866000925b848410611774575050505050604051928184019082855251809152604081818601961b85010192916000955b8287106117015785850386f35b909192938280600192603f1989820301855287519081518152848060a01b038383015116838201526040820151604082015261174c6060808401519060c08091850152830190611b8c565b9160808082015115159083015260a080910151151591015296019201960195929190926116f4565b908560019260409997995161178881611a81565b85548152848060a01b03858701541683820152600286015460408201526117b160038701611ad9565b6060820152600486015460ff908181161515608084015260081c16151560a082015281520192019201919087909694966116c8565b3461018f57602036600319011261018f576117ff611d24565b6004356000526004602052604060002061182660018060a01b036001830154163314611d47565b600d8101805460ff81169060048210156105875761184660039215611d89565b60ff1916179055600b810154611865600a600784015493015483612072565b90818102918183041490151715610dc85761187f91611dca565b8061188a5760018055005b600080808093335af161189b612092565b50156118a757806106e8565b60405162461bcd60e51b815260206004820152600d60248201526c1499599d5b990819985a5b1959609a1b6044820152606490fd5b3461018f57602036600319011261018f57600435600052600460205260406000208054600160a01b60019003600183015416916002810154600382015460ff16916004810161192a90611ad9565b9261193760058301611ad9565b9361194460068401611ad9565b94600784015495600885015490600986015492600a87015494600b88015496600c89015498600d0154996040519d8e809e81526020015260408d015260608c0161198d91611b7f565b6101e08060808d01528b016119a191611b8c565b8a810360a08c01526119b291611b8c565b89810360c08b01526119c391611b8c565b9660e08901526101008801526101208701526101408601526101608501526101808401526101a0830160ff8216906119fa91611bcc565b60081c60ff1615156101c08301520390f35b3461018f57602036600319011261018f57611a25611c9b565b600435600855005b3461018f57600036600319011261018f5780605060209252f35b90600182811c92168015611a77575b6020831014611a6157565b634e487b7160e01b600052602260045260246000fd5b91607f1691611a56565b60c081019081106001600160401b03821117610c3057604052565b6101e081019081106001600160401b03821117610c3057604052565b90601f801991011681019081106001600160401b03821117610c3057604052565b9060405191826000825492611aed84611a47565b908184526001948581169081600014611b5c5750600114611b19575b5050611b1792500383611ab8565b565b9093915060005260209081600020936000915b818310611b44575050611b1793508201013880611b09565b85548884018501529485019487945091830191611b2c565b915050611b1794506020925060ff191682840152151560051b8201013880611b09565b9060088210156105875752565b919082519283825260005b848110611bb8575050826000602080949584010152601f8019910116010190565b602081830181015184830182015201611b97565b9060048210156105875752565b8054821015611bf5576000526005602060002091020190600090565b634e487b7160e01b600052603260045260246000fd5b6001600160401b038111610c3057601f01601f191660200190565b81601f8201121561018f57803590611c3d82611c0b565b92611c4b6040519485611ab8565b8284526020838301011161018f57816000926020809301838601378301015290565b600435906001600160a01b038216820361018f57565b8054821015611bf55760005260206000200190600090565b6000546001600160a01b03163303611caf57565b60405163118cdaa760e01b8152336004820152602490fd5b6000198114610dc85760010190565b91908201809211610dc857565b60088210156105875752565b8054600160401b811015610c3057611d0c91600182018155611c83565b819291549060031b91821b91600019901b1916179055565b600260015414611d35576002600155565b604051633ee5aeb560e01b8152600490fd5b15611d4e57565b60405162461bcd60e51b81526020600482015260136024820152722737ba1036b4b9b9b4b7b71031b932b0ba37b960691b6044820152606490fd5b15611d9057565b60405162461bcd60e51b81526020600482015260126024820152714d697373696f6e206e6f742061637469766560701b6044820152606490fd5b91908203918211610dc857565b9091816000526004926020928484526040928360002060018060a01b0393600194611e088187850154163314611d47565b600d60ff9301549183600893841c1615611f875785600052600589528760002091876000905b611e6d575b895162461bcd60e51b8152808d018c9052601460248201527310dbdb5c1b195d1a5bdb881b9bdd08199bdd5b9960621b6044820152606490fd5b8354811015611f82578189611e828387611bd9565b50015416828416809114611ea15750611e9b8991611cc7565b90611e2e565b94979b969992509992949750508685611eba8b87611bd9565b50015416611f4c577f994290015fd5efdbf5083178829f5563ae93c9889b16dd884acc94428dbf757c8493928b92611f0b8b89611ef88f809b611bd9565b50019060ff801983541691151516179055565b518a15158152a385611f2e575b5050505050611f25575050565b611b17916120c2565b611f3b9293949550611bd9565b500154901c16153880808481611f18565b5162461bcd60e51b815280850191909152601060248201526f105b1c9958591e481d995c9a599a595960821b6044820152606490fd5b611e33565b875162461bcd60e51b8152808b018a90526016602482015275139bc81d995c9a599a58d85d1a5bdb881b995959195960521b6044820152606490fd5b80600052600560205260406000209060005b825481101561203757611fe88184611bd9565b50600101546001600160a01b031633148061201b575b6120105761200b90611cc7565b611fd5565b90611b1792506120c2565b5060ff600461202a8386611bd9565b50015460081c1615611ffe565b60405162461bcd60e51b8152602060048201526013602482015272139bc818db185a5b58589b19481c995dd85c99606a1b6044820152606490fd5b811561207c570490565b634e487b7160e01b600052601260045260246000fd5b3d156120bd573d906120a382611c0b565b916120b16040519384611ab8565b82523d6000602084013e565b606090565b6000818152602090600482526040916120e48383209560058352848420611bd9565b5060048101805460ff8116156122025760ff8160081c166121cc5761ff0019166101001790556007860154600a87015461211d91612072565b928361216b575b5060010154600895909501548351928352908201526001600160a01b03909316927ffc6ecd966b430510beae9124efe7dd517ed5286d7ed0ae258f8556c7a9765a449190a3565b8080808660018060a01b036001870154165af1612186612092565b50156121925738612124565b835162461bcd60e51b8152600481018390526013602482015272115512081d1c985b9cd9995c8819985a5b1959606a1b6044820152606490fd5b855162461bcd60e51b815260048101859052600f60248201526e105b1c9958591e4818db185a5b5959608a1b6044820152606490fd5b855162461bcd60e51b815260048101859052600c60248201526b139bdd081d995c9a599a595960a21b6044820152606490fd5b6001600160401b038111610c305760051b60200190565b8051821015611bf55760209160051b01019056fea2646970667358221220271466f7bccc7bd810291912f9342809e706100d6cd703e67451c3947561e64364736f6c63430008140033",
  "linkReferences": {},
  "deployedLinkReferences": {}
}